{
  "abi": [
    {
      "anonymous": false,
      "inputs": [
        {
          "indexed": false,
          "internalType": "uint8",
          "name": "version",
          "type": "uint8"
        }
      ],
      "name": "Initialized",
      "type": "event"
    },
    {
      "anonymous": false,
      "inputs": [
        {
          "indexed": true,
          "internalType": "address",
          "name": "previousOwner",
          "type": "address"
        },
        {
          "indexed": true,
          "internalType": "address",
          "name": "newOwner",
          "type": "address"
        }
      ],
      "name": "OwnershipTransferred",
      "type": "event"
    },
    {
      "anonymous": false,
      "inputs": [
        {
          "indexed": true,
          "internalType": "bytes32",
          "name": "role",
          "type": "bytes32"
        },
        {
          "indexed": true,
          "internalType": "bytes32",
          "name": "previousAdminRole",
          "type": "bytes32"
        },
        {
          "indexed": true,
          "internalType": "bytes32",
          "name": "newAdminRole",
          "type": "bytes32"
        }
      ],
      "name": "RoleAdminChanged",
      "type": "event"
    },
    {
      "anonymous": false,
      "inputs": [
        {
          "indexed": true,
          "internalType": "bytes32",
          "name": "role",
          "type": "bytes32"
        },
        {
          "indexed": true,
          "internalType": "address",
          "name": "account",
          "type": "address"
        },
        {
          "indexed": true,
          "internalType": "address",
          "name": "sender",
          "type": "address"
        }
      ],
      "name": "RoleGranted",
      "type": "event"
    },
    {
      "anonymous": false,
      "inputs": [
        {
          "indexed": true,
          "internalType": "bytes32",
          "name": "role",
          "type": "bytes32"
        },
        {
          "indexed": true,
          "internalType": "address",
          "name": "account",
          "type": "address"
        },
        {
          "indexed": true,
          "internalType": "address",
          "name": "sender",
          "type": "address"
        }
      ],
      "name": "RoleRevoked",
      "type": "event"
    },
    {
      "inputs": [],
      "name": "DEFAULT_ADMIN_ROLE",
      "outputs": [
        {
          "internalType": "bytes32",
          "name": "",
          "type": "bytes32"
        }
      ],
      "stateMutability": "view",
      "type": "function"
    },
    {
      "inputs": [],
      "name": "boost",
      "outputs": [],
      "stateMutability": "nonpayable",
      "type": "function"
    },
    {
      "inputs": [],
      "name": "booster",
      "outputs": [
        {
          "internalType": "address",
          "name": "",
          "type": "address"
        }
      ],
      "stateMutability": "view",
      "type": "function"
    },
    {
      "inputs": [
        {
          "internalType": "address[]",
          "name": "_addrs",
          "type": "address[]"
        }
      ],
      "name": "claimAll",
      "outputs": [],
      "stateMutability": "nonpayable",
      "type": "function"
    },
    {
      "inputs": [
        {
          "internalType": "address",
          "name": "account",
          "type": "address"
        },
        {
          "internalType": "address",
          "name": "pool",
          "type": "address"
        }
      ],
      "name": "claimable",
      "outputs": [
        {
          "internalType": "uint256",
          "name": "",
          "type": "uint256"
        }
      ],
      "stateMutability": "view",
      "type": "function"
    },
    {
      "inputs": [
        {
          "internalType": "uint256",
          "name": "amount",
          "type": "uint256"
        }
      ],
      "name": "depositEsBLE",
      "outputs": [],
      "stateMutability": "nonpayable",
      "type": "function"
    },
    {
      "inputs": [
        {
          "internalType": "bytes32",
          "name": "role",
          "type": "bytes32"
        }
      ],
      "name": "getRoleAdmin",
      "outputs": [
        {
          "internalType": "bytes32",
          "name": "",
          "type": "bytes32"
        }
      ],
      "stateMutability": "view",
      "type": "function"
    },
    {
      "inputs": [
        {
          "internalType": "address",
          "name": "_account",
          "type": "address"
        }
      ],
      "name": "grantControllerRoleByMarketManager",
      "outputs": [],
      "stateMutability": "nonpayable",
      "type": "function"
    },
    {
      "inputs": [
        {
          "internalType": "bytes32",
          "name": "role",
          "type": "bytes32"
        },
        {
          "internalType": "address",
          "name": "account",
          "type": "address"
        }
      ],
      "name": "grantRole",
      "outputs": [],
      "stateMutability": "nonpayable",
      "type": "function"
    },
    {
      "inputs": [
        {
          "internalType": "bytes32",
          "name": "role",
          "type": "bytes32"
        },
        {
          "internalType": "address",
          "name": "account",
          "type": "address"
        }
      ],
      "name": "hasRole",
      "outputs": [
        {
          "internalType": "bool",
          "name": "",
          "type": "bool"
        }
      ],
      "stateMutability": "view",
      "type": "function"
    },
    {
      "inputs": [
        {
          "internalType": "address[]",
          "name": "_rewardTrackers",
          "type": "address[]"
        }
      ],
      "name": "initialize",
      "outputs": [],
      "stateMutability": "nonpayable",
      "type": "function"
    },
    {
      "inputs": [],
      "name": "mintNFT",
      "outputs": [],
      "stateMutability": "nonpayable",
      "type": "function"
    },
    {
      "inputs": [],
      "name": "owner",
      "outputs": [
        {
          "internalType": "address",
          "name": "",
          "type": "address"
        }
      ],
      "stateMutability": "view",
      "type": "function"
    },
    {
      "inputs": [],
      "name": "renounceOwnership",
      "outputs": [],
      "stateMutability": "nonpayable",
      "type": "function"
    },
    {
      "inputs": [
        {
          "internalType": "bytes32",
          "name": "",
          "type": "bytes32"
        },
        {
          "internalType": "address",
          "name": "",
          "type": "address"
        }
      ],
      "name": "renounceRole",
      "outputs": [],
      "stateMutability": "nonpayable",
      "type": "function"
    },
    {
      "inputs": [
        {
          "internalType": "bytes32",
          "name": "role",
          "type": "bytes32"
        },
        {
          "internalType": "address",
          "name": "account",
          "type": "address"
        }
      ],
      "name": "revokeRole",
      "outputs": [],
      "stateMutability": "nonpayable",
      "type": "function"
    },
    {
      "inputs": [
        {
          "internalType": "uint256",
          "name": "",
          "type": "uint256"
        }
      ],
      "name": "rewardTrackers",
      "outputs": [
        {
          "internalType": "address",
          "name": "",
          "type": "address"
        }
      ],
      "stateMutability": "view",
      "type": "function"
    },
    {
      "inputs": [
        {
          "internalType": "uint256",
          "name": "amount",
          "type": "uint256"
        }
      ],
      "name": "stakeBLE",
      "outputs": [],
      "stateMutability": "nonpayable",
      "type": "function"
    },
    {
      "inputs": [
        {
          "internalType": "bytes4",
          "name": "interfaceId",
          "type": "bytes4"
        }
      ],
      "name": "supportsInterface",
      "outputs": [
        {
          "internalType": "bool",
          "name": "",
          "type": "bool"
        }
      ],
      "stateMutability": "view",
      "type": "function"
    },
    {
      "inputs": [
        {
          "internalType": "address",
          "name": "to",
          "type": "address"
        }
      ],
      "name": "transferAdmin",
      "outputs": [],
      "stateMutability": "nonpayable",
      "type": "function"
    },
    {
      "inputs": [
        {
          "internalType": "address",
          "name": "newOwner",
          "type": "address"
        }
      ],
      "name": "transferOwnership",
      "outputs": [],
      "stateMutability": "nonpayable",
      "type": "function"
    },
    {
      "inputs": [
        {
          "internalType": "uint256",
          "name": "amount",
          "type": "uint256"
        }
      ],
      "name": "unstakeBLE",
      "outputs": [],
      "stateMutability": "nonpayable",
      "type": "function"
    },
    {
      "inputs": [],
      "name": "withdrawEsBLE",
      "outputs": [],
      "stateMutability": "nonpayable",
      "type": "function"
    }
  ],
  "bytecode": {
    "object": "0x608060405234801561001057600080fd5b5061001a3361001f565b610071565b600180546001600160a01b038381166001600160a01b0319831681179093556040519116919082907f8be0079c531659141344cd1fd0a4f28419497f9722a3daafe3b4186f6b6457e090600090a35050565b611126806100806000396000f3fe608060405234801561001057600080fd5b506004361061014d5760003560e01c80637fe4a698116100c3578063a66f42c01161007c578063a66f42c0146102af578063c1a95668146102b7578063c6def076146102ca578063d4570c1c146102dd578063d547741f146102f0578063f2fde38b1461030357600080fd5b80637fe4a6981461024a5780638da5cb5b1461025d57806391d148541461026e57806391d9979e14610281578063a217fddf14610294578063a224cee71461029c57600080fd5b80632f2ff15d116101155780632f2ff15d146101f357806336568abe1461020657806368c1649c1461021457806369a259021461021c578063715018a61461022f57806375829def1461023757600080fd5b806301ffc9a7146101525780630d0e7dc91461017a57806314f710fe146101a55780631e2de0d1146101af578063248a9ca3146101c2575b600080fd5b610165610160366004610dda565b610316565b60405190151581526020015b60405180910390f35b61018d610188366004610e04565b61034d565b6040516001600160a01b039091168152602001610171565b6101ad610377565b005b6101ad6101bd366004610e4f565b6103f4565b6101e56101d0366004610e04565b60009081526020819052604090206001015490565b604051908152602001610171565b6101ad610201366004610f14565b61048c565b6101ad61014d366004610f14565b6101ad6104b6565b6101ad61022a366004610e04565b610503565b6101ad610588565b6101ad610245366004610f40565b61059c565b6101ad610258366004610f40565b610611565b6001546001600160a01b031661018d565b61016561027c366004610f14565b61063b565b6101ad61028f366004610e04565b610664565b6101e5600081565b6101ad6102aa366004610e4f565b6106b8565b6101ad6107f5565b6101ad6102c5366004610e04565b610826565b60045461018d906001600160a01b031681565b6101e56102eb366004610f5b565b61087a565b6101ad6102fe366004610f14565b6108ef565b6101ad610311366004610f40565b610914565b60006001600160e01b03198216637965db0b60e01b148061034757506301ffc9a760e01b6001600160e01b03198316145b92915050565b6003818154811061035d57600080fd5b6000918252602090912001546001600160a01b0316905081565b600360018154811061038b5761038b610f85565b60009182526020909120015460405163f16a4c7960e01b81523360048201526001600160a01b039091169063f16a4c79906024015b600060405180830381600087803b1580156103da57600080fd5b505af11580156103ee573d6000803e3d6000fd5b50505050565b60005b815181101561048857600082828151811061041457610414610f85565b6020908102919091010151604051632bf5a97360e21b81523360048201529091506001600160a01b0382169063afd6a5cc90602401600060405180830381600087803b15801561046357600080fd5b505af1925050508015610474575060015b50508061048081610fb1565b9150506103f7565b5050565b6000828152602081905260409020600101546104a78161098d565b6104b18383610997565b505050565b60036002815481106104ca576104ca610f85565b600091825260209091200154604051630efcd41b60e21b81523360048201526001600160a01b0390911690633bf3506c906024016103c0565b600360008154811061051757610517610f85565b600091825260209091200154604051630485062360e31b8152336004820152602481018390526001600160a01b03909116906324283118906044015b600060405180830381600087803b15801561056d57600080fd5b505af1158015610581573d6000803e3d6000fd5b5050505050565b610590610a1b565b61059a6000610a75565b565b60006105a78161098d565b6001600160a01b0382166105f25760405162461bcd60e51b815260206004820152600d60248201526c217a65726f206164647265737360981b60448201526064015b60405180910390fd5b6105fd600083610ac7565b61060682610a75565b610488600033610ad1565b7f8d1089725c0dc266707fa6207730fb801dcd03108bfed7a21099bd303651d2b761014d8161098d565b6000918252602082815260408084206001600160a01b0393909316845291905290205460ff1690565b600360008154811061067857610678610f85565b60009182526020909120015460405163776de3bb60e11b8152336004820152602481018390526001600160a01b039091169063eedbc77690604401610553565b600154600160a81b900460ff16158080156106de575060018054600160a01b900460ff16105b806106fe5750303b1580156106fe575060018054600160a01b900460ff16145b6107615760405162461bcd60e51b815260206004820152602e60248201527f496e697469616c697a61626c653a20636f6e747261637420697320616c72656160448201526d191e481a5b9a5d1a585b1a5e995960921b60648201526084016105e9565b6001805460ff60a01b1916600160a01b179055801561078e576001805460ff60a81b1916600160a81b1790555b61079733610b36565b81516107aa906003906020850190610d60565b508015610488576001805460ff60a81b191681556040519081527f7f26b83ff96e1f2b6a682f133852f6798a09c465da95921460cefb38474024989060200160405180910390a15050565b6004805460405163abef36d360e01b815233928101929092526001600160a01b03169063abef36d3906024016103c0565b600360028154811061083a5761083a610f85565b60009182526020909120015460405163342fcda960e01b8152336004820152602481018390526001600160a01b039091169063342fcda990604401610553565b60405163402914f560e01b81526001600160a01b0383811660048301526000919083169063402914f590602401602060405180830381865afa1580156108c4573d6000803e3d6000fd5b505050506040513d601f19601f820116820180604052508101906108e89190610fca565b9392505050565b60008281526020819052604090206001015461090a8161098d565b6104b18383610ad1565b61091c610a1b565b6001600160a01b0381166109815760405162461bcd60e51b815260206004820152602660248201527f4f776e61626c653a206e6577206f776e657220697320746865207a65726f206160448201526564647265737360d01b60648201526084016105e9565b61098a81610a75565b50565b61098a8133610b59565b6109a1828261063b565b610488576000828152602081815260408083206001600160a01b03851684529091529020805460ff191660011790556109d73390565b6001600160a01b0316816001600160a01b0316837f2f8788117e7eff1d82e926ec794901d17c78024a50270940304540a733656f0d60405160405180910390a45050565b6001546001600160a01b0316331461059a5760405162461bcd60e51b815260206004820181905260248201527f4f776e61626c653a2063616c6c6572206973206e6f7420746865206f776e657260448201526064016105e9565b600180546001600160a01b038381166001600160a01b0319831681179093556040519116919082907f8be0079c531659141344cd1fd0a4f28419497f9722a3daafe3b4186f6b6457e090600090a35050565b6104888282610997565b610adb828261063b565b15610488576000828152602081815260408083206001600160a01b0385168085529252808320805460ff1916905551339285917ff6391f5c32d9c69d2a47ea670b442974b53935d1edc7fd64eb21e047a839171b9190a45050565b42600255610b4333610a75565b610b4e600033610ac7565b61098a600082610ac7565b610b63828261063b565b61048857610b7081610bb2565b610b7b836020610bc4565b604051602001610b8c929190611007565b60408051601f198184030181529082905262461bcd60e51b82526105e99160040161107c565b60606103476001600160a01b03831660145b60606000610bd38360026110af565b610bde9060026110c6565b67ffffffffffffffff811115610bf657610bf6610e1d565b6040519080825280601f01601f191660200182016040528015610c20576020820181803683370190505b509050600360fc1b81600081518110610c3b57610c3b610f85565b60200101906001600160f81b031916908160001a905350600f60fb1b81600181518110610c6a57610c6a610f85565b60200101906001600160f81b031916908160001a9053506000610c8e8460026110af565b610c999060016110c6565b90505b6001811115610d11576f181899199a1a9b1b9c1cb0b131b232b360811b85600f1660108110610ccd57610ccd610f85565b1a60f81b828281518110610ce357610ce3610f85565b60200101906001600160f81b031916908160001a90535060049490941c93610d0a816110d9565b9050610c9c565b5083156108e85760405162461bcd60e51b815260206004820181905260248201527f537472696e67733a20686578206c656e67746820696e73756666696369656e7460448201526064016105e9565b828054828255906000526020600020908101928215610db5579160200282015b82811115610db557825182546001600160a01b0319166001600160a01b03909116178255602090920191600190910190610d80565b50610dc1929150610dc5565b5090565b5b80821115610dc15760008155600101610dc6565b600060208284031215610dec57600080fd5b81356001600160e01b0319811681146108e857600080fd5b600060208284031215610e1657600080fd5b5035919050565b634e487b7160e01b600052604160045260246000fd5b80356001600160a01b0381168114610e4a57600080fd5b919050565b60006020808385031215610e6257600080fd5b823567ffffffffffffffff80821115610e7a57600080fd5b818501915085601f830112610e8e57600080fd5b813581811115610ea057610ea0610e1d565b8060051b604051601f19603f83011681018181108582111715610ec557610ec5610e1d565b604052918252848201925083810185019188831115610ee357600080fd5b938501935b82851015610f0857610ef985610e33565b84529385019392850192610ee8565b98975050505050505050565b60008060408385031215610f2757600080fd5b82359150610f3760208401610e33565b90509250929050565b600060208284031215610f5257600080fd5b6108e882610e33565b60008060408385031215610f6e57600080fd5b610f7783610e33565b9150610f3760208401610e33565b634e487b7160e01b600052603260045260246000fd5b634e487b7160e01b600052601160045260246000fd5b600060018201610fc357610fc3610f9b565b5060010190565b600060208284031215610fdc57600080fd5b5051919050565b60005b83811015610ffe578181015183820152602001610fe6565b50506000910152565b7f416363657373436f6e74726f6c3a206163636f756e742000000000000000000081526000835161103f816017850160208801610fe3565b7001034b99036b4b9b9b4b733903937b6329607d1b6017918401918201528351611070816028840160208801610fe3565b01602801949350505050565b602081526000825180602084015261109b816040850160208701610fe3565b601f01601f19169190910160400192915050565b808202811582820484141761034757610347610f9b565b8082018082111561034757610347610f9b565b6000816110e8576110e8610f9b565b50600019019056fea2646970667358221220a8d3aa3a74d26a289ae9bfc8796e72d9e747d328f138103810ec1ec42e66232464736f6c63430008110033",
    "linkReferences": {}
  },
  "methodIdentifiers": {
    "DEFAULT_ADMIN_ROLE()": "a217fddf",
    "boost()": "a66f42c0",
    "booster()": "c6def076",
    "claimAll(address[])": "1e2de0d1",
    "claimable(address,address)": "d4570c1c",
    "depositEsBLE(uint256)": "c1a95668",
    "getRoleAdmin(bytes32)": "248a9ca3",
    "grantControllerRoleByMarketManager(address)": "7fe4a698",
    "grantRole(bytes32,address)": "2f2ff15d",
    "hasRole(bytes32,address)": "91d14854",
    "initialize(address[])": "a224cee7",
    "mintNFT()": "14f710fe",
    "owner()": "8da5cb5b",
    "renounceOwnership()": "715018a6",
    "renounceRole(bytes32,address)": "36568abe",
    "revokeRole(bytes32,address)": "d547741f",
    "rewardTrackers(uint256)": "0d0e7dc9",
    "stakeBLE(uint256)": "69a25902",
    "supportsInterface(bytes4)": "01ffc9a7",
    "transferAdmin(address)": "75829def",
    "transferOwnership(address)": "f2fde38b",
    "unstakeBLE(uint256)": "91d9979e",
    "withdrawEsBLE()": "68c1649c"
  },
  "id": 94
}