{
  "abi": [
    {
      "inputs": [
        {
          "internalType": "address",
          "name": "_f",
          "type": "address"
        }
      ],
      "stateMutability": "nonpayable",
      "type": "constructor"
    },
    {
      "anonymous": false,
      "inputs": [
        {
          "indexed": false,
          "internalType": "uint8",
          "name": "version",
          "type": "uint8"
        }
      ],
      "name": "Initialized",
      "type": "event"
    },
    {
      "anonymous": false,
      "inputs": [
        {
          "indexed": true,
          "internalType": "address",
          "name": "previousOwner",
          "type": "address"
        },
        {
          "indexed": true,
          "internalType": "address",
          "name": "newOwner",
          "type": "address"
        }
      ],
      "name": "OwnershipTransferred",
      "type": "event"
    },
    {
      "anonymous": false,
      "inputs": [
        {
          "indexed": true,
          "internalType": "bytes32",
          "name": "role",
          "type": "bytes32"
        },
        {
          "indexed": true,
          "internalType": "bytes32",
          "name": "previousAdminRole",
          "type": "bytes32"
        },
        {
          "indexed": true,
          "internalType": "bytes32",
          "name": "newAdminRole",
          "type": "bytes32"
        }
      ],
      "name": "RoleAdminChanged",
      "type": "event"
    },
    {
      "anonymous": false,
      "inputs": [
        {
          "indexed": true,
          "internalType": "bytes32",
          "name": "role",
          "type": "bytes32"
        },
        {
          "indexed": true,
          "internalType": "address",
          "name": "account",
          "type": "address"
        },
        {
          "indexed": true,
          "internalType": "address",
          "name": "sender",
          "type": "address"
        }
      ],
      "name": "RoleGranted",
      "type": "event"
    },
    {
      "anonymous": false,
      "inputs": [
        {
          "indexed": true,
          "internalType": "bytes32",
          "name": "role",
          "type": "bytes32"
        },
        {
          "indexed": true,
          "internalType": "address",
          "name": "account",
          "type": "address"
        },
        {
          "indexed": true,
          "internalType": "address",
          "name": "sender",
          "type": "address"
        }
      ],
      "name": "RoleRevoked",
      "type": "event"
    },
    {
      "inputs": [],
      "name": "DEFAULT_ADMIN_ROLE",
      "outputs": [
        {
          "internalType": "bytes32",
          "name": "",
          "type": "bytes32"
        }
      ],
      "stateMutability": "view",
      "type": "function"
    },
    {
      "inputs": [
        {
          "components": [
            {
              "internalType": "address",
              "name": "_market",
              "type": "address"
            },
            {
              "internalType": "bool",
              "name": "_isLong",
              "type": "bool"
            },
            {
              "internalType": "uint256",
              "name": "_oraclePrice",
              "type": "uint256"
            },
            {
              "internalType": "bool",
              "name": "isOpen",
              "type": "bool"
            },
            {
              "internalType": "bool",
              "name": "isCreate",
              "type": "bool"
            },
            {
              "components": [
                {
                  "internalType": "uint8",
                  "name": "version",
                  "type": "uint8"
                },
                {
                  "internalType": "uint32",
                  "name": "updatedAtBlock",
                  "type": "uint32"
                },
                {
                  "internalType": "uint8",
                  "name": "triggerAbove",
                  "type": "uint8"
                },
                {
                  "internalType": "address",
                  "name": "account",
                  "type": "address"
                },
                {
                  "internalType": "uint48",
                  "name": "extra3",
                  "type": "uint48"
                },
                {
                  "internalType": "uint128",
                  "name": "collateral",
                  "type": "uint128"
                },
                {
                  "internalType": "uint128",
                  "name": "size",
                  "type": "uint128"
                },
                {
                  "internalType": "uint128",
                  "name": "price",
                  "type": "uint128"
                },
                {
                  "internalType": "uint128",
                  "name": "extra1",
                  "type": "uint128"
                },
                {
                  "internalType": "uint64",
                  "name": "orderID",
                  "type": "uint64"
                },
                {
                  "internalType": "uint64",
                  "name": "extra2",
                  "type": "uint64"
                },
                {
                  "internalType": "uint128",
                  "name": "extra0",
                  "type": "uint128"
                },
                {
                  "internalType": "bytes32",
                  "name": "refCode",
                  "type": "bytes32"
                }
              ],
              "internalType": "struct Order.Props",
              "name": "_order",
              "type": "tuple"
            },
            {
              "internalType": "uint256[]",
              "name": "inputs",
              "type": "uint256[]"
            }
          ],
          "internalType": "struct MarketDataTypes.UpdateOrderInputs[]",
          "name": "_vars",
          "type": "tuple[]"
        }
      ],
      "name": "add",
      "outputs": [
        {
          "components": [
            {
              "internalType": "uint8",
              "name": "version",
              "type": "uint8"
            },
            {
              "internalType": "uint32",
              "name": "updatedAtBlock",
              "type": "uint32"
            },
            {
              "internalType": "uint8",
              "name": "triggerAbove",
              "type": "uint8"
            },
            {
              "internalType": "address",
              "name": "account",
              "type": "address"
            },
            {
              "internalType": "uint48",
              "name": "extra3",
              "type": "uint48"
            },
            {
              "internalType": "uint128",
              "name": "collateral",
              "type": "uint128"
            },
            {
              "internalType": "uint128",
              "name": "size",
              "type": "uint128"
            },
            {
              "internalType": "uint128",
              "name": "price",
              "type": "uint128"
            },
            {
              "internalType": "uint128",
              "name": "extra1",
              "type": "uint128"
            },
            {
              "internalType": "uint64",
              "name": "orderID",
              "type": "uint64"
            },
            {
              "internalType": "uint64",
              "name": "extra2",
              "type": "uint64"
            },
            {
              "internalType": "uint128",
              "name": "extra0",
              "type": "uint128"
            },
            {
              "internalType": "bytes32",
              "name": "refCode",
              "type": "bytes32"
            }
          ],
          "internalType": "struct Order.Props[]",
          "name": "_orders",
          "type": "tuple[]"
        }
      ],
      "stateMutability": "nonpayable",
      "type": "function"
    },
    {
      "inputs": [],
      "name": "closeStore",
      "outputs": [
        {
          "internalType": "contract IOrderStore",
          "name": "",
          "type": "address"
        }
      ],
      "stateMutability": "view",
      "type": "function"
    },
    {
      "inputs": [
        {
          "internalType": "uint256",
          "name": "start",
          "type": "uint256"
        },
        {
          "internalType": "uint256",
          "name": "end",
          "type": "uint256"
        },
        {
          "internalType": "bool",
          "name": "isOpen",
          "type": "bool"
        },
        {
          "internalType": "uint256",
          "name": "_oraclePrice",
          "type": "uint256"
        }
      ],
      "name": "getExecutableOrdersByPrice",
      "outputs": [
        {
          "components": [
            {
              "internalType": "uint8",
              "name": "version",
              "type": "uint8"
            },
            {
              "internalType": "uint32",
              "name": "updatedAtBlock",
              "type": "uint32"
            },
            {
              "internalType": "uint8",
              "name": "triggerAbove",
              "type": "uint8"
            },
            {
              "internalType": "address",
              "name": "account",
              "type": "address"
            },
            {
              "internalType": "uint48",
              "name": "extra3",
              "type": "uint48"
            },
            {
              "internalType": "uint128",
              "name": "collateral",
              "type": "uint128"
            },
            {
              "internalType": "uint128",
              "name": "size",
              "type": "uint128"
            },
            {
              "internalType": "uint128",
              "name": "price",
              "type": "uint128"
            },
            {
              "internalType": "uint128",
              "name": "extra1",
              "type": "uint128"
            },
            {
              "internalType": "uint64",
              "name": "orderID",
              "type": "uint64"
            },
            {
              "internalType": "uint64",
              "name": "extra2",
              "type": "uint64"
            },
            {
              "internalType": "uint128",
              "name": "extra0",
              "type": "uint128"
            },
            {
              "internalType": "bytes32",
              "name": "refCode",
              "type": "bytes32"
            }
          ],
          "internalType": "struct Order.Props[]",
          "name": "_orders",
          "type": "tuple[]"
        }
      ],
      "stateMutability": "view",
      "type": "function"
    },
    {
      "inputs": [
        {
          "internalType": "bytes32",
          "name": "role",
          "type": "bytes32"
        }
      ],
      "name": "getRoleAdmin",
      "outputs": [
        {
          "internalType": "bytes32",
          "name": "",
          "type": "bytes32"
        }
      ],
      "stateMutability": "view",
      "type": "function"
    },
    {
      "inputs": [
        {
          "internalType": "address",
          "name": "_account",
          "type": "address"
        }
      ],
      "name": "grantControllerRoleByMarketManager",
      "outputs": [],
      "stateMutability": "nonpayable",
      "type": "function"
    },
    {
      "inputs": [
        {
          "internalType": "bytes32",
          "name": "role",
          "type": "bytes32"
        },
        {
          "internalType": "address",
          "name": "account",
          "type": "address"
        }
      ],
      "name": "grantRole",
      "outputs": [],
      "stateMutability": "nonpayable",
      "type": "function"
    },
    {
      "inputs": [
        {
          "internalType": "bytes32",
          "name": "role",
          "type": "bytes32"
        },
        {
          "internalType": "address",
          "name": "account",
          "type": "address"
        }
      ],
      "name": "hasRole",
      "outputs": [
        {
          "internalType": "bool",
          "name": "",
          "type": "bool"
        }
      ],
      "stateMutability": "view",
      "type": "function"
    },
    {
      "inputs": [
        {
          "internalType": "bool",
          "name": "_isLong",
          "type": "bool"
        },
        {
          "internalType": "address",
          "name": "_openStore",
          "type": "address"
        },
        {
          "internalType": "address",
          "name": "_closeStore",
          "type": "address"
        }
      ],
      "name": "initialize",
      "outputs": [],
      "stateMutability": "nonpayable",
      "type": "function"
    },
    {
      "inputs": [],
      "name": "isLong",
      "outputs": [
        {
          "internalType": "bool",
          "name": "",
          "type": "bool"
        }
      ],
      "stateMutability": "view",
      "type": "function"
    },
    {
      "inputs": [],
      "name": "openStore",
      "outputs": [
        {
          "internalType": "contract IOrderStore",
          "name": "",
          "type": "address"
        }
      ],
      "stateMutability": "view",
      "type": "function"
    },
    {
      "inputs": [],
      "name": "owner",
      "outputs": [
        {
          "internalType": "address",
          "name": "",
          "type": "address"
        }
      ],
      "stateMutability": "view",
      "type": "function"
    },
    {
      "inputs": [
        {
          "internalType": "bytes32",
          "name": "key",
          "type": "bytes32"
        },
        {
          "internalType": "bool",
          "name": "isOpen",
          "type": "bool"
        }
      ],
      "name": "remove",
      "outputs": [
        {
          "components": [
            {
              "internalType": "uint8",
              "name": "version",
              "type": "uint8"
            },
            {
              "internalType": "uint32",
              "name": "updatedAtBlock",
              "type": "uint32"
            },
            {
              "internalType": "uint8",
              "name": "triggerAbove",
              "type": "uint8"
            },
            {
              "internalType": "address",
              "name": "account",
              "type": "address"
            },
            {
              "internalType": "uint48",
              "name": "extra3",
              "type": "uint48"
            },
            {
              "internalType": "uint128",
              "name": "collateral",
              "type": "uint128"
            },
            {
              "internalType": "uint128",
              "name": "size",
              "type": "uint128"
            },
            {
              "internalType": "uint128",
              "name": "price",
              "type": "uint128"
            },
            {
              "internalType": "uint128",
              "name": "extra1",
              "type": "uint128"
            },
            {
              "internalType": "uint64",
              "name": "orderID",
              "type": "uint64"
            },
            {
              "internalType": "uint64",
              "name": "extra2",
              "type": "uint64"
            },
            {
              "internalType": "uint128",
              "name": "extra0",
              "type": "uint128"
            },
            {
              "internalType": "bytes32",
              "name": "refCode",
              "type": "bytes32"
            }
          ],
          "internalType": "struct Order.Props[]",
          "name": "_orders",
          "type": "tuple[]"
        }
      ],
      "stateMutability": "nonpayable",
      "type": "function"
    },
    {
      "inputs": [
        {
          "internalType": "address",
          "name": "account",
          "type": "address"
        },
        {
          "internalType": "uint256",
          "name": "orderID",
          "type": "uint256"
        },
        {
          "internalType": "bool",
          "name": "isOpen",
          "type": "bool"
        }
      ],
      "name": "remove",
      "outputs": [
        {
          "components": [
            {
              "internalType": "uint8",
              "name": "version",
              "type": "uint8"
            },
            {
              "internalType": "uint32",
              "name": "updatedAtBlock",
              "type": "uint32"
            },
            {
              "internalType": "uint8",
              "name": "triggerAbove",
              "type": "uint8"
            },
            {
              "internalType": "address",
              "name": "account",
              "type": "address"
            },
            {
              "internalType": "uint48",
              "name": "extra3",
              "type": "uint48"
            },
            {
              "internalType": "uint128",
              "name": "collateral",
              "type": "uint128"
            },
            {
              "internalType": "uint128",
              "name": "size",
              "type": "uint128"
            },
            {
              "internalType": "uint128",
              "name": "price",
              "type": "uint128"
            },
            {
              "internalType": "uint128",
              "name": "extra1",
              "type": "uint128"
            },
            {
              "internalType": "uint64",
              "name": "orderID",
              "type": "uint64"
            },
            {
              "internalType": "uint64",
              "name": "extra2",
              "type": "uint64"
            },
            {
              "internalType": "uint128",
              "name": "extra0",
              "type": "uint128"
            },
            {
              "internalType": "bytes32",
              "name": "refCode",
              "type": "bytes32"
            }
          ],
          "internalType": "struct Order.Props[]",
          "name": "_orders",
          "type": "tuple[]"
        }
      ],
      "stateMutability": "nonpayable",
      "type": "function"
    },
    {
      "inputs": [
        {
          "internalType": "bool",
          "name": "isOpen",
          "type": "bool"
        },
        {
          "internalType": "address",
          "name": "account",
          "type": "address"
        }
      ],
      "name": "removeByAccount",
      "outputs": [
        {
          "components": [
            {
              "internalType": "uint8",
              "name": "version",
              "type": "uint8"
            },
            {
              "internalType": "uint32",
              "name": "updatedAtBlock",
              "type": "uint32"
            },
            {
              "internalType": "uint8",
              "name": "triggerAbove",
              "type": "uint8"
            },
            {
              "internalType": "address",
              "name": "account",
              "type": "address"
            },
            {
              "internalType": "uint48",
              "name": "extra3",
              "type": "uint48"
            },
            {
              "internalType": "uint128",
              "name": "collateral",
              "type": "uint128"
            },
            {
              "internalType": "uint128",
              "name": "size",
              "type": "uint128"
            },
            {
              "internalType": "uint128",
              "name": "price",
              "type": "uint128"
            },
            {
              "internalType": "uint128",
              "name": "extra1",
              "type": "uint128"
            },
            {
              "internalType": "uint64",
              "name": "orderID",
              "type": "uint64"
            },
            {
              "internalType": "uint64",
              "name": "extra2",
              "type": "uint64"
            },
            {
              "internalType": "uint128",
              "name": "extra0",
              "type": "uint128"
            },
            {
              "internalType": "bytes32",
              "name": "refCode",
              "type": "bytes32"
            }
          ],
          "internalType": "struct Order.Props[]",
          "name": "_orders",
          "type": "tuple[]"
        }
      ],
      "stateMutability": "nonpayable",
      "type": "function"
    },
    {
      "inputs": [],
      "name": "renounceOwnership",
      "outputs": [],
      "stateMutability": "nonpayable",
      "type": "function"
    },
    {
      "inputs": [
        {
          "internalType": "bytes32",
          "name": "",
          "type": "bytes32"
        },
        {
          "internalType": "address",
          "name": "",
          "type": "address"
        }
      ],
      "name": "renounceRole",
      "outputs": [],
      "stateMutability": "nonpayable",
      "type": "function"
    },
    {
      "inputs": [
        {
          "internalType": "bytes32",
          "name": "role",
          "type": "bytes32"
        },
        {
          "internalType": "address",
          "name": "account",
          "type": "address"
        }
      ],
      "name": "revokeRole",
      "outputs": [],
      "stateMutability": "nonpayable",
      "type": "function"
    },
    {
      "inputs": [
        {
          "internalType": "bytes4",
          "name": "interfaceId",
          "type": "bytes4"
        }
      ],
      "name": "supportsInterface",
      "outputs": [
        {
          "internalType": "bool",
          "name": "",
          "type": "bool"
        }
      ],
      "stateMutability": "view",
      "type": "function"
    },
    {
      "inputs": [
        {
          "internalType": "address",
          "name": "to",
          "type": "address"
        }
      ],
      "name": "transferAdmin",
      "outputs": [],
      "stateMutability": "nonpayable",
      "type": "function"
    },
    {
      "inputs": [
        {
          "internalType": "address",
          "name": "newOwner",
          "type": "address"
        }
      ],
      "name": "transferOwnership",
      "outputs": [],
      "stateMutability": "nonpayable",
      "type": "function"
    },
    {
      "inputs": [
        {
          "components": [
            {
              "internalType": "address",
              "name": "_market",
              "type": "address"
            },
            {
              "internalType": "bool",
              "name": "_isLong",
              "type": "bool"
            },
            {
              "internalType": "uint256",
              "name": "_oraclePrice",
              "type": "uint256"
            },
            {
              "internalType": "bool",
              "name": "isOpen",
              "type": "bool"
            },
            {
              "internalType": "bool",
              "name": "isCreate",
              "type": "bool"
            },
            {
              "components": [
                {
                  "internalType": "uint8",
                  "name": "version",
                  "type": "uint8"
                },
                {
                  "internalType": "uint32",
                  "name": "updatedAtBlock",
                  "type": "uint32"
                },
                {
                  "internalType": "uint8",
                  "name": "triggerAbove",
                  "type": "uint8"
                },
                {
                  "internalType": "address",
                  "name": "account",
                  "type": "address"
                },
                {
                  "internalType": "uint48",
                  "name": "extra3",
                  "type": "uint48"
                },
                {
                  "internalType": "uint128",
                  "name": "collateral",
                  "type": "uint128"
                },
                {
                  "internalType": "uint128",
                  "name": "size",
                  "type": "uint128"
                },
                {
                  "internalType": "uint128",
                  "name": "price",
                  "type": "uint128"
                },
                {
                  "internalType": "uint128",
                  "name": "extra1",
                  "type": "uint128"
                },
                {
                  "internalType": "uint64",
                  "name": "orderID",
                  "type": "uint64"
                },
                {
                  "internalType": "uint64",
                  "name": "extra2",
                  "type": "uint64"
                },
                {
                  "internalType": "uint128",
                  "name": "extra0",
                  "type": "uint128"
                },
                {
                  "internalType": "bytes32",
                  "name": "refCode",
                  "type": "bytes32"
                }
              ],
              "internalType": "struct Order.Props",
              "name": "_order",
              "type": "tuple"
            },
            {
              "internalType": "uint256[]",
              "name": "inputs",
              "type": "uint256[]"
            }
          ],
          "internalType": "struct MarketDataTypes.UpdateOrderInputs",
          "name": "_vars",
          "type": "tuple"
        }
      ],
      "name": "update",
      "outputs": [
        {
          "components": [
            {
              "internalType": "uint8",
              "name": "version",
              "type": "uint8"
            },
            {
              "internalType": "uint32",
              "name": "updatedAtBlock",
              "type": "uint32"
            },
            {
              "internalType": "uint8",
              "name": "triggerAbove",
              "type": "uint8"
            },
            {
              "internalType": "address",
              "name": "account",
              "type": "address"
            },
            {
              "internalType": "uint48",
              "name": "extra3",
              "type": "uint48"
            },
            {
              "internalType": "uint128",
              "name": "collateral",
              "type": "uint128"
            },
            {
              "internalType": "uint128",
              "name": "size",
              "type": "uint128"
            },
            {
              "internalType": "uint128",
              "name": "price",
              "type": "uint128"
            },
            {
              "internalType": "uint128",
              "name": "extra1",
              "type": "uint128"
            },
            {
              "internalType": "uint64",
              "name": "orderID",
              "type": "uint64"
            },
            {
              "internalType": "uint64",
              "name": "extra2",
              "type": "uint64"
            },
            {
              "internalType": "uint128",
              "name": "extra0",
              "type": "uint128"
            },
            {
              "internalType": "bytes32",
              "name": "refCode",
              "type": "bytes32"
            }
          ],
          "internalType": "struct Order.Props",
          "name": "_order",
          "type": "tuple"
        }
      ],
      "stateMutability": "nonpayable",
      "type": "function"
    }
  ],
  "bytecode": {
    "object": "0x60806040523480156200001157600080fd5b5060405162002b0638038062002b0683398101604081905262000034916200018c565b8062000040336200005e565b6200005681620000b060201b620013cf1760201c565b5050620001be565b600180546001600160a01b038381166001600160a01b0319831681179093556040519116919082907f8be0079c531659141344cd1fd0a4f28419497f9722a3daafe3b4186f6b6457e090600090a35050565b42600255620000bf336200005e565b620000cc600033620000dc565b620000d9600082620000dc565b50565b620000e88282620000ec565b5050565b6000828152602081815260408083206001600160a01b038516845290915290205460ff16620000e8576000828152602081815260408083206001600160a01b03851684529091529020805460ff19166001179055620001483390565b6001600160a01b0316816001600160a01b0316837f2f8788117e7eff1d82e926ec794901d17c78024a50270940304540a733656f0d60405160405180910390a45050565b6000602082840312156200019f57600080fd5b81516001600160a01b0381168114620001b757600080fd5b9392505050565b61293880620001ce6000396000f3fe608060405234801561001057600080fd5b50600436106101425760003560e01c806375829def116100b857806391d148541161007c57806391d14854146102cd578063a217fddf146102e0578063b398a842146102e8578063d547741f146102fb578063e25454221461030e578063f2fde38b1461032157600080fd5b806375829def146102705780637e1dcaf7146102835780637fe4a698146102965780638da5cb5b146102a95780638f549206146102ba57600080fd5b80632f2ff15d1161010a5780632f2ff15d146101f457806336568abe1461020957806345824d67146102175780636d0785661461022a578063715018a6146102555780637380adf01461025d57600080fd5b806301ffc9a7146101475780630c3167391461016f57806314d102a91461018f578063202a61a1146101af578063248a9ca3146101c3575b600080fd5b61015a610155366004611d52565b610334565b60405190151581526020015b60405180910390f35b61018261017d366004612112565b61036b565b6040516101669190612268565b6101a261019d366004612277565b610629565b60405161016691906122b6565b60045461015a90600160a01b900460ff1681565b6101e66101d1366004612305565b60009081526020819052604090206001015490565b604051908152602001610166565b61020761020236600461231e565b610960565b005b61020761014236600461231e565b6101a261022536600461234e565b61098a565b60045461023d906001600160a01b031681565b6040516001600160a01b039091168152602001610166565b610207610c0c565b6101a261026b366004612373565b610c20565b61020761027e3660046123a1565b610ce4565b60035461023d906001600160a01b031681565b6102076102a43660046123a1565b610d58565b6001546001600160a01b031661023d565b6101a26102c83660046123be565b610d82565b61015a6102db36600461231e565b610db6565b6101e6600081565b6101a26102f6366004612400565b610ddf565b61020761030936600461231e565b611120565b61020761031c3660046124b0565b611145565b61020761032f3660046123a1565b611356565b60006001600160e01b03198216637965db0b60e01b148061036557506301ffc9a760e01b6001600160e01b03198316145b92915050565b610373611ce6565b61038a6000805160206128e38339815191526113f2565b60006103998360a001516113fc565b9050600083606001516103b7576004546001600160a01b03166103c4565b6003546001600160a01b03165b604051637b58815360e11b8152600481018490529091506001600160a01b0382169063f6b102a690602401602060405180830381865afa15801561040c573d6000803e3d6000fd5b505050506040513d601f19601f8201168201806040525081019061043091906124f0565b6104815760405162461bcd60e51b815260206004820152601a60248201527f4f72646572426f6f6b3a696e76616c6964206f726465724b657900000000000060448201526064015b60405180910390fd5b6040516309c3f1e960e41b8152600481018390526001600160a01b03821690639c3f1e90906024016101a060405180830381865afa1580156104c7573d6000803e3d6000fd5b505050506040513d601f19601f820116820180604052508101906104eb9190612649565b805190935060ff166001146105425760405162461bcd60e51b815260206004820152601760248201527f4f72646572426f6f6b3a77726f6e672076657273696f6e0000000000000000006044820152606401610478565b60a084015160e0908101516001600160801b0316908401526105648484611411565b92508360600151156105b65761059361058c8560a0015161010001516001600160801b031690565b84906114b2565b6105b66105af8560a0015161016001516001600160801b031690565b84906114d1565b6105c48385606001516114f0565b6040516309775f1d60e31b81526001600160a01b03821690634bbaf8e8906105f0908690600401612268565b600060405180830381600087803b15801561060a57600080fd5b505af115801561061e573d6000803e3d6000fd5b505050505050919050565b606060058261066d5760405162461bcd60e51b815260206004820152601060248201526f6f7261636c655072696365207a65726f60801b6044820152606401610478565b600084610685576004546001600160a01b0316610692565b6003546001600160a01b03165b60405163b4d1cbad60e01b815260048101899052602481018890529091506000906001600160a01b0383169063b4d1cbad90604401600060405180830381865afa1580156106e4573d6000803e3d6000fd5b505050506040513d6000823e601f3d908101601f1916820160405261070c9190810190612666565b8051909150600090815b818110156107f8576000848281518110610732576107326126f6565b602002602001015190506000866001600160a01b0316639c3f1e90836040518263ffffffff1660e01b815260040161076c91815260200190565b6101a060405180830381865afa15801561078a573d6000803e3d6000fd5b505050506040513d601f19601f820116820180604052508101906107ae9190612649565b90506107ba818b61160c565b80156107c557508115155b806107d557506107d5818c61164a565b156107ee578460010194508785106107ee5750506107f8565b5050600101610716565b50816001600160401b0381111561081157610811611d7c565b60405190808252806020026020018201604052801561084a57816020015b610837611ce6565b81526020019060019003908161082f5790505b5095506000805b8281101561095157600085828151811061086d5761086d6126f6565b602002602001015190506000876001600160a01b0316639c3f1e90836040518263ffffffff1660e01b81526004016108a791815260200190565b6101a060405180830381865afa1580156108c5573d6000803e3d6000fd5b505050506040513d601f19601f820116820180604052508101906108e99190612649565b90506108f5818c61160c565b801561090057508115155b806109105750610910818d61164a565b1561094757808a8581518110610928576109286126f6565b6020026020010181905250836001019350888410610947575050610951565b5050600101610851565b50505050505050949350505050565b60008281526020819052604090206001015461097b816113f2565b610985838361167c565b505050565b60606109a36000805160206128e38339815191526113f2565b6000826109bb576004546001600160a01b03166109c8565b6003546001600160a01b03165b9050821515600003610b48576040516309c3f1e960e41b815260048101859052600090610a4a906001600160a01b03841690639c3f1e90906024016101a060405180830381865afa158015610a21573d6000803e3d6000fd5b505050506040513d601f19601f82011682018060405250810190610a459190612649565b611700565b905080610a58576001610a5b565b60025b60ff166001600160401b03811115610a7557610a75611d7c565b604051908082528060200260200182016040528015610aae57816020015b610a9b611ce6565b815260200190600190039081610a935790505b5092508015610b42576040516395bc267360e01b8152600481018290526001600160a01b038316906395bc2673906024016101a0604051808303816000875af1158015610aff573d6000803e3d6000fd5b505050506040513d601f19601f82011682018060405250810190610b239190612649565b83600181518110610b3657610b366126f6565b60200260200101819052505b50610b7b565b60408051600180825281830190925290816020015b610b65611ce6565b815260200190600190039081610b5d5790505091505b6040516395bc267360e01b8152600481018590526001600160a01b038216906395bc2673906024016101a0604051808303816000875af1158015610bc3573d6000803e3d6000fd5b505050506040513d601f19601f82011682018060405250810190610be79190612649565b82600081518110610bfa57610bfa6126f6565b60200260200101819052505092915050565b610c14611715565b610c1e600061176f565b565b6060610c396000805160206128e38339815191526113f2565b6001600160a01b038216156103655782610c5e576004546001600160a01b0316610c6b565b6003546001600160a01b03165b604051631c1b6fcd60e01b81526001600160a01b0384811660048301529190911690631c1b6fcd906024016000604051808303816000875af1158015610cb5573d6000803e3d6000fd5b505050506040513d6000823e601f3d908101601f19168201604052610cdd919081019061270c565b9392505050565b6000610cef816113f2565b6001600160a01b038216610d355760405162461bcd60e51b815260206004820152600d60248201526c217a65726f206164647265737360981b6044820152606401610478565b610d406000836117c1565b610d498261176f565b610d546000336117cb565b5050565b7f8d1089725c0dc266707fa6207730fb801dcd03108bfed7a21099bd303651d2b7610142816113f2565b6060610d9b6000805160206128e38339815191526113f2565b610dae610da88585611830565b8361098a565b949350505050565b6000918252602082815260408084206001600160a01b0393909316845291905290205460ff1690565b6060610df86000805160206128e38339815191526113f2565b81516001600160401b03811115610e1157610e11611d7c565b604051908082528060200260200182016040528015610e4a57816020015b610e37611ce6565b815260200190600190039081610e2f5790505b50905060005b8251811015610f94576000838281518110610e6d57610e6d6126f6565b602090810291909101015160a00151600181528451909150849083908110610e9757610e976126f6565b602002602001015160600151610eb8576004546001600160a01b0316610ec5565b6003546001600160a01b03165b6060820151604051637859f28160e11b81526001600160a01b03918216600482015291169063f0b3e502906024016020604051808303816000875af1158015610f12573d6000803e3d6000fd5b505050506040513d601f19601f82011682018060405250810190610f3691906127a6565b6001600160401b03166101208201528351610f6b90859084908110610f5d57610f5d6126f6565b602002602001015182611411565b905080838381518110610f8057610f806126f6565b602090810291909101015250600101610e50565b50805160020361102057610fea81600181518110610fb457610fb46126f6565b6020026020010151610120015182600081518110610fd457610fd46126f6565b602002602001015161188490919063ffffffff16565b61102081600081518110611000576110006126f6565b6020026020010151610120015182600181518110610fd457610fd46126f6565b60005b815181101561111a576000828281518110611040576110406126f6565b6020026020010151905061107181858481518110611060576110606126f6565b6020026020010151606001516114f0565b838281518110611083576110836126f6565b6020026020010151606001516110a4576004546001600160a01b03166110b1565b6003546001600160a01b03165b6001600160a01b0316632597382b826040518263ffffffff1660e01b81526004016110dc9190612268565b600060405180830381600087803b1580156110f657600080fd5b505af115801561110a573d6000803e3d6000fd5b5050505081600101915050611023565b50919050565b60008281526020819052604090206001015461113b816113f2565b61098583836117cb565b600154600160a81b900460ff161580801561116b575060018054600160a01b900460ff16105b8061118b5750303b15801561118b575060018054600160a01b900460ff16145b6111ee5760405162461bcd60e51b815260206004820152602e60248201527f496e697469616c697a61626c653a20636f6e747261637420697320616c72656160448201526d191e481a5b9a5d1a585b1a5e995960921b6064820152608401610478565b6001805460ff60a01b1916600160a01b179055801561121b576001805460ff60a81b1916600160a81b1790555b6004805460ff60a01b1916600160a01b861515908102919091178255600380546001600160a01b0319166001600160a01b03871690811790915560405163d53a822f60e01b8152928301919091529063d53a822f90602401600060405180830381600087803b15801561128d57600080fd5b505af192505050801561129e575060015b50600480546001600160a01b0319166001600160a01b038416908117825560405163d53a822f60e01b8152861515928101929092529063d53a822f90602401600060405180830381600087803b1580156112f757600080fd5b505af1925050508015611308575060015b508015611350576001805460ff60a81b191681556040519081527f7f26b83ff96e1f2b6a682f133852f6798a09c465da95921460cefb38474024989060200160405180910390a15b50505050565b61135e611715565b6001600160a01b0381166113c35760405162461bcd60e51b815260206004820152602660248201527f4f776e61626c653a206e6577206f776e657220697320746865207a65726f206160448201526564647265737360d01b6064820152608401610478565b6113cc8161176f565b50565b426002556113dc3361176f565b6113e76000336117c1565b6113cc6000826117c1565b6113cc8133611896565b60006103658260600151836101200151611830565b611419611ce6565b611422836118ef565b156114465760208301516060840151611441918491151590151461192a565b61111a565b8260600151156114615760208301516114419083901561192a565b8260a001516040015160ff1660000361149a576114418260e001516001600160801b03168460400151108361192a90919063ffffffff16565b60a083015160409081015160ff169083015250919050565b6114bb81611948565b6001600160801b03166101009092019190915250565b6114da81611948565b6001600160801b03166101609092019190915250565b80156115635760045461150e908390600160a01b900460ff166119b5565b60008260a001516001600160801b0316116115635760405162461bcd60e51b815260206004820152601560248201527413d08e9a5b9d985b1a590818dbdb1b185d195c985b605a1b6044820152606401610478565b60608201516001600160a01b03166115bd5760405162461bcd60e51b815260206004820152601960248201527f4f72646572426f6f6b3a696e76616c6964206163636f756e74000000000000006044820152606401610478565b816040015160ff16600003610d545760405162461bcd60e51b815260206004820152601560248201527413d08e9d1c9a59d9d95c8818589bdd99481a5b9a5d605a1b6044820152606401610478565b600061161783611ac1565b15611633575060e08201516001600160801b0316811015610365565b5060e08201516001600160801b0316811115610365565b600081156116675750608082015165ffffffffffff161515610365565b505061010001516001600160801b0316151590565b6116868282610db6565b610d54576000828152602081815260408083206001600160a01b03851684529091529020805460ff191660011790556116bc3390565b6001600160a01b0316816001600160a01b0316837f2f8788117e7eff1d82e926ec794901d17c78024a50270940304540a733656f0d60405160405180910390a45050565b60006103658260600151836101400151611830565b6001546001600160a01b03163314610c1e5760405162461bcd60e51b815260206004820181905260248201527f4f776e61626c653a2063616c6c6572206973206e6f7420746865206f776e65726044820152606401610478565b600180546001600160a01b038381166001600160a01b0319831681179093556040519116919082907f8be0079c531659141344cd1fd0a4f28419497f9722a3daafe3b4186f6b6457e090600090a35050565b610d54828261167c565b6117d58282610db6565b15610d54576000828152602081815260408083206001600160a01b0385168085529252808320805460ff1916905551339285917ff6391f5c32d9c69d2a47ea670b442974b53935d1edc7fd64eb21e047a839171b9190a45050565b6040516bffffffffffffffffffffffff19606084901b1660208201526001600160c01b031960c083901b166034820152600090603c0160405160208183030381529060405280519060200120905092915050565b6001600160401b031661014090910152565b6118a08282610db6565b610d54576118ad81611b39565b6118b8836020611b4b565b6040516020016118c99291906127e3565b60408051601f198184030181529082905262461bcd60e51b825261047891600401612858565b600060028260c001515110158015610365575060008260c0015160018151811061191b5761191b6126f6565b60200260200101511192915050565b80611936576002611939565b60015b60ff1660409092019190915250565b60006001600160801b038211156119b15760405162461bcd60e51b815260206004820152602760248201527f53616665436173743a2076616c756520646f65736e27742066697420696e20316044820152663238206269747360c81b6064820152608401610478565b5090565b60006119cc8361010001516001600160801b031690565b1115611a3b578015158260e001516001600160801b03166119f88461010001516001600160801b031690565b1114611a3b5760405162461bcd60e51b81526020600482015260126024820152714f72646572426f6f6b3a74703c707269636560701b6044820152606401610478565b6000611a528361016001516001600160801b031690565b1115610d5457801515611a708361016001516001600160801b031690565b60e08401516001600160801b03161114610d545760405162461bcd60e51b81526020600482015260126024820152714f72646572426f6f6b3a736c3e707269636560701b6044820152606401610478565b6000816040015160ff16600103611ada57506001919050565b816040015160ff16600203611af157506000919050565b60405162461bcd60e51b815260206004820152601b60248201527f696e76616c6964206f7264657220747269676765722061626f766500000000006044820152606401610478565b60606103656001600160a01b03831660145b60606000611b5a8360026128a1565b611b659060026128b8565b6001600160401b03811115611b7c57611b7c611d7c565b6040519080825280601f01601f191660200182016040528015611ba6576020820181803683370190505b509050600360fc1b81600081518110611bc157611bc16126f6565b60200101906001600160f81b031916908160001a905350600f60fb1b81600181518110611bf057611bf06126f6565b60200101906001600160f81b031916908160001a9053506000611c148460026128a1565b611c1f9060016128b8565b90505b6001811115611c97576f181899199a1a9b1b9c1cb0b131b232b360811b85600f1660108110611c5357611c536126f6565b1a60f81b828281518110611c6957611c696126f6565b60200101906001600160f81b031916908160001a90535060049490941c93611c90816128cb565b9050611c22565b508315610cdd5760405162461bcd60e51b815260206004820181905260248201527f537472696e67733a20686578206c656e67746820696e73756666696369656e746044820152606401610478565b604080516101a081018252600080825260208201819052918101829052606081018290526080810182905260a0810182905260c0810182905260e08101829052610100810182905261012081018290526101408101829052610160810182905261018081019190915290565b600060208284031215611d6457600080fd5b81356001600160e01b031981168114610cdd57600080fd5b634e487b7160e01b600052604160045260246000fd5b6040516101a081016001600160401b0381118282101715611db557611db5611d7c565b60405290565b60405160e081016001600160401b0381118282101715611db557611db5611d7c565b604051601f8201601f191681016001600160401b0381118282101715611e0557611e05611d7c565b604052919050565b6001600160a01b03811681146113cc57600080fd5b8035611e2d81611e0d565b919050565b80151581146113cc57600080fd5b8035611e2d81611e32565b60ff811681146113cc57600080fd5b8035611e2d81611e4b565b63ffffffff811681146113cc57600080fd5b8035611e2d81611e65565b65ffffffffffff811681146113cc57600080fd5b8035611e2d81611e82565b6001600160801b03811681146113cc57600080fd5b8035611e2d81611ea1565b6001600160401b03811681146113cc57600080fd5b8035611e2d81611ec1565b60006101a08284031215611ef457600080fd5b611efc611d92565b9050611f0782611e5a565b8152611f1560208301611e77565b6020820152611f2660408301611e5a565b6040820152611f3760608301611e22565b6060820152611f4860808301611e96565b6080820152611f5960a08301611eb6565b60a0820152611f6a60c08301611eb6565b60c0820152611f7b60e08301611eb6565b60e0820152610100611f8e818401611eb6565b90820152610120611fa0838201611ed6565b90820152610140611fb2838201611ed6565b90820152610160611fc4838201611eb6565b818301525061018080830135818301525092915050565b60006001600160401b03821115611ff457611ff4611d7c565b5060051b60200190565b600082601f83011261200f57600080fd5b8135602061202461201f83611fdb565b611ddd565b82815260059290921b8401810191818101908684111561204357600080fd5b8286015b8481101561205e5780358352918301918301612047565b509695505050505050565b6000610260828403121561207c57600080fd5b612084611dbb565b905061208f82611e22565b815261209d60208301611e40565b6020820152604082013560408201526120b860608301611e40565b60608201526120c960808301611e40565b60808201526120db8360a08401611ee1565b60a08201526102408201356001600160401b038111156120fa57600080fd5b61210684828501611ffe565b60c08301525092915050565b60006020828403121561212457600080fd5b81356001600160401b0381111561213a57600080fd5b610dae84828501612069565b805160ff1682526020810151612164602084018263ffffffff169052565b506040810151612179604084018260ff169052565b50606081015161219460608401826001600160a01b03169052565b5060808101516121ae608084018265ffffffffffff169052565b5060a08101516121c960a08401826001600160801b03169052565b5060c08101516121e460c08401826001600160801b03169052565b5060e08101516121ff60e08401826001600160801b03169052565b50610100818101516001600160801b038116848301525050610120818101516001600160401b038116848301525050610140818101516001600160401b038116848301525050610160818101516001600160801b03811684830152505061018090810151910152565b6101a081016103658284612146565b6000806000806080858703121561228d57600080fd5b843593506020850135925060408501356122a681611e32565b9396929550929360600135925050565b6020808252825182820181905260009190848201906040850190845b818110156122f9576122e5838551612146565b928401926101a092909201916001016122d2565b50909695505050505050565b60006020828403121561231757600080fd5b5035919050565b6000806040838503121561233157600080fd5b82359150602083013561234381611e0d565b809150509250929050565b6000806040838503121561236157600080fd5b82359150602083013561234381611e32565b6000806040838503121561238657600080fd5b823561239181611e32565b9150602083013561234381611e0d565b6000602082840312156123b357600080fd5b8135610cdd81611e0d565b6000806000606084860312156123d357600080fd5b83356123de81611e0d565b92506020840135915060408401356123f581611e32565b809150509250925092565b6000602080838503121561241357600080fd5b82356001600160401b038082111561242a57600080fd5b818501915085601f83011261243e57600080fd5b813561244c61201f82611fdb565b81815260059190911b8301840190848101908883111561246b57600080fd5b8585015b838110156124a3578035858111156124875760008081fd5b6124958b89838a0101612069565b84525091860191860161246f565b5098975050505050505050565b6000806000606084860312156124c557600080fd5b83356124d081611e32565b925060208401356124e081611e0d565b915060408401356123f581611e0d565b60006020828403121561250257600080fd5b8151610cdd81611e32565b8051611e2d81611e4b565b8051611e2d81611e65565b8051611e2d81611e0d565b8051611e2d81611e82565b8051611e2d81611ea1565b8051611e2d81611ec1565b60006101a0828403121561256257600080fd5b61256a611d92565b90506125758261250d565b815261258360208301612518565b60208201526125946040830161250d565b60408201526125a560608301612523565b60608201526125b66080830161252e565b60808201526125c760a08301612539565b60a08201526125d860c08301612539565b60c08201526125e960e08301612539565b60e08201526101006125fc818401612539565b9082015261012061260e838201612544565b90820152610140612620838201612544565b90820152610160612632838201612539565b818301525061018080830151818301525092915050565b60006101a0828403121561265c57600080fd5b610cdd838361254f565b6000602080838503121561267957600080fd5b82516001600160401b0381111561268f57600080fd5b8301601f810185136126a057600080fd5b80516126ae61201f82611fdb565b81815260059190911b820183019083810190878311156126cd57600080fd5b928401925b828410156126eb578351825292840192908401906126d2565b979650505050505050565b634e487b7160e01b600052603260045260246000fd5b6000602080838503121561271f57600080fd5b82516001600160401b0381111561273557600080fd5b8301601f8101851361274657600080fd5b805161275461201f82611fdb565b8181526101a0918202830184019184820191908884111561277457600080fd5b938501935b8385101561279a5761278b898661254f565b83529384019391850191612779565b50979650505050505050565b6000602082840312156127b857600080fd5b5051919050565b60005b838110156127da5781810151838201526020016127c2565b50506000910152565b7f416363657373436f6e74726f6c3a206163636f756e742000000000000000000081526000835161281b8160178501602088016127bf565b7001034b99036b4b9b9b4b733903937b6329607d1b601791840191820152835161284c8160288401602088016127bf565b01602801949350505050565b60208152600082518060208401526128778160408501602087016127bf565b601f01601f19169190910160400192915050565b634e487b7160e01b600052601160045260246000fd5b80820281158282048414176103655761036561288b565b808201808211156103655761036561288b565b6000816128da576128da61288b565b50600019019056fecb58d6d985142a614029cdf01861b4fe094d5919a47e69b8310dc4093d9d6ad0a2646970667358221220ef35c5f138f9c5f4dd93024b71c3738caa62861d6b235ad0861f4d09f48d834f64736f6c63430008110033",
    "linkReferences": {}
  },
  "methodIdentifiers": {
    "DEFAULT_ADMIN_ROLE()": "a217fddf",
    "add((address,bool,uint256,bool,bool,(uint8,uint32,uint8,address,uint48,uint128,uint128,uint128,uint128,uint64,uint64,uint128,bytes32),uint256[])[])": "b398a842",
    "closeStore()": "6d078566",
    "getExecutableOrdersByPrice(uint256,uint256,bool,uint256)": "14d102a9",
    "getRoleAdmin(bytes32)": "248a9ca3",
    "grantControllerRoleByMarketManager(address)": "7fe4a698",
    "grantRole(bytes32,address)": "2f2ff15d",
    "hasRole(bytes32,address)": "91d14854",
    "initialize(bool,address,address)": "e2545422",
    "isLong()": "202a61a1",
    "openStore()": "7e1dcaf7",
    "owner()": "8da5cb5b",
    "remove(address,uint256,bool)": "8f549206",
    "remove(bytes32,bool)": "45824d67",
    "removeByAccount(bool,address)": "7380adf0",
    "renounceOwnership()": "715018a6",
    "renounceRole(bytes32,address)": "36568abe",
    "revokeRole(bytes32,address)": "d547741f",
    "supportsInterface(bytes4)": "01ffc9a7",
    "transferAdmin(address)": "75829def",
    "transferOwnership(address)": "f2fde38b",
    "update((address,bool,uint256,bool,bool,(uint8,uint32,uint8,address,uint48,uint128,uint128,uint128,uint128,uint64,uint64,uint128,bytes32),uint256[]))": "0c316739"
  },
  "id": 76
}