{
  "abi": [
    {
      "inputs": [
        {
          "internalType": "address",
          "name": "_linkToken",
          "type": "address"
        },
        {
          "internalType": "address",
          "name": "_apiOracle",
          "type": "address"
        },
        {
          "internalType": "uint256",
          "name": "_fee",
          "type": "uint256"
        }
      ],
      "stateMutability": "nonpayable",
      "type": "constructor"
    },
    {
      "anonymous": false,
      "inputs": [
        {
          "indexed": true,
          "internalType": "bytes32",
          "name": "id",
          "type": "bytes32"
        }
      ],
      "name": "ChainlinkCancelled",
      "type": "event"
    },
    {
      "anonymous": false,
      "inputs": [
        {
          "indexed": true,
          "internalType": "bytes32",
          "name": "id",
          "type": "bytes32"
        }
      ],
      "name": "ChainlinkFulfilled",
      "type": "event"
    },
    {
      "anonymous": false,
      "inputs": [
        {
          "indexed": true,
          "internalType": "bytes32",
          "name": "id",
          "type": "bytes32"
        }
      ],
      "name": "ChainlinkRequested",
      "type": "event"
    },
    {
      "anonymous": false,
      "inputs": [
        {
          "indexed": true,
          "internalType": "address",
          "name": "from",
          "type": "address"
        },
        {
          "indexed": true,
          "internalType": "address",
          "name": "to",
          "type": "address"
        }
      ],
      "name": "OwnershipTransferRequested",
      "type": "event"
    },
    {
      "anonymous": false,
      "inputs": [
        {
          "indexed": true,
          "internalType": "address",
          "name": "from",
          "type": "address"
        },
        {
          "indexed": true,
          "internalType": "address",
          "name": "to",
          "type": "address"
        }
      ],
      "name": "OwnershipTransferred",
      "type": "event"
    },
    {
      "anonymous": false,
      "inputs": [
        {
          "indexed": true,
          "internalType": "bytes32",
          "name": "requestId",
          "type": "bytes32"
        },
        {
          "indexed": false,
          "internalType": "uint256",
          "name": "volume",
          "type": "uint256"
        }
      ],
      "name": "RequestPrice",
      "type": "event"
    },
    {
      "inputs": [],
      "name": "BASIS_POINTS_DIVISOR",
      "outputs": [
        {
          "internalType": "uint256",
          "name": "",
          "type": "uint256"
        }
      ],
      "stateMutability": "view",
      "type": "function"
    },
    {
      "inputs": [],
      "name": "acceptOwnership",
      "outputs": [],
      "stateMutability": "nonpayable",
      "type": "function"
    },
    {
      "inputs": [],
      "name": "apiOracle",
      "outputs": [
        {
          "internalType": "address",
          "name": "",
          "type": "address"
        }
      ],
      "stateMutability": "view",
      "type": "function"
    },
    {
      "inputs": [],
      "name": "chainPriceFeed",
      "outputs": [
        {
          "internalType": "address",
          "name": "",
          "type": "address"
        }
      ],
      "stateMutability": "view",
      "type": "function"
    },
    {
      "inputs": [
        {
          "internalType": "bytes",
          "name": "checkData",
          "type": "bytes"
        }
      ],
      "name": "checkUpkeep",
      "outputs": [
        {
          "internalType": "bool",
          "name": "upkeepNeeded",
          "type": "bool"
        },
        {
          "internalType": "bytes",
          "name": "performData",
          "type": "bytes"
        }
      ],
      "stateMutability": "view",
      "type": "function"
    },
    {
      "inputs": [],
      "name": "diff_limit",
      "outputs": [
        {
          "internalType": "uint256",
          "name": "",
          "type": "uint256"
        }
      ],
      "stateMutability": "view",
      "type": "function"
    },
    {
      "inputs": [],
      "name": "fastPriceFeed",
      "outputs": [
        {
          "internalType": "address",
          "name": "",
          "type": "address"
        }
      ],
      "stateMutability": "view",
      "type": "function"
    },
    {
      "inputs": [],
      "name": "fee",
      "outputs": [
        {
          "internalType": "uint256",
          "name": "",
          "type": "uint256"
        }
      ],
      "stateMutability": "view",
      "type": "function"
    },
    {
      "inputs": [
        {
          "internalType": "bytes32",
          "name": "_requestId",
          "type": "bytes32"
        },
        {
          "internalType": "uint256",
          "name": "_price",
          "type": "uint256"
        }
      ],
      "name": "fulfill",
      "outputs": [],
      "stateMutability": "nonpayable",
      "type": "function"
    },
    {
      "inputs": [],
      "name": "jobId",
      "outputs": [
        {
          "internalType": "bytes32",
          "name": "",
          "type": "bytes32"
        }
      ],
      "stateMutability": "view",
      "type": "function"
    },
    {
      "inputs": [],
      "name": "lastUpdatedAt",
      "outputs": [
        {
          "internalType": "uint256",
          "name": "",
          "type": "uint256"
        }
      ],
      "stateMutability": "view",
      "type": "function"
    },
    {
      "inputs": [],
      "name": "lastUpdatedBlock",
      "outputs": [
        {
          "internalType": "uint256",
          "name": "",
          "type": "uint256"
        }
      ],
      "stateMutability": "view",
      "type": "function"
    },
    {
      "inputs": [],
      "name": "linkToken",
      "outputs": [
        {
          "internalType": "address",
          "name": "",
          "type": "address"
        }
      ],
      "stateMutability": "view",
      "type": "function"
    },
    {
      "inputs": [],
      "name": "minBlockInterval",
      "outputs": [
        {
          "internalType": "uint256",
          "name": "",
          "type": "uint256"
        }
      ],
      "stateMutability": "view",
      "type": "function"
    },
    {
      "inputs": [],
      "name": "minTimeInterval",
      "outputs": [
        {
          "internalType": "uint256",
          "name": "",
          "type": "uint256"
        }
      ],
      "stateMutability": "view",
      "type": "function"
    },
    {
      "inputs": [],
      "name": "owner",
      "outputs": [
        {
          "internalType": "address",
          "name": "",
          "type": "address"
        }
      ],
      "stateMutability": "view",
      "type": "function"
    },
    {
      "inputs": [],
      "name": "path",
      "outputs": [
        {
          "internalType": "string",
          "name": "",
          "type": "string"
        }
      ],
      "stateMutability": "view",
      "type": "function"
    },
    {
      "inputs": [
        {
          "internalType": "bytes",
          "name": "performData",
          "type": "bytes"
        }
      ],
      "name": "performUpkeep",
      "outputs": [],
      "stateMutability": "nonpayable",
      "type": "function"
    },
    {
      "inputs": [],
      "name": "price",
      "outputs": [
        {
          "internalType": "uint256",
          "name": "",
          "type": "uint256"
        }
      ],
      "stateMutability": "view",
      "type": "function"
    },
    {
      "inputs": [],
      "name": "requestPrice",
      "outputs": [
        {
          "internalType": "bytes32",
          "name": "requestId",
          "type": "bytes32"
        }
      ],
      "stateMutability": "nonpayable",
      "type": "function"
    },
    {
      "inputs": [
        {
          "internalType": "address",
          "name": "oracle",
          "type": "address"
        }
      ],
      "name": "setAPIOracle",
      "outputs": [],
      "stateMutability": "nonpayable",
      "type": "function"
    },
    {
      "inputs": [
        {
          "internalType": "address",
          "name": "feed",
          "type": "address"
        }
      ],
      "name": "setFastPriceFeed",
      "outputs": [],
      "stateMutability": "nonpayable",
      "type": "function"
    },
    {
      "inputs": [
        {
          "internalType": "uint256",
          "name": "_fee",
          "type": "uint256"
        }
      ],
      "name": "setFee",
      "outputs": [],
      "stateMutability": "nonpayable",
      "type": "function"
    },
    {
      "inputs": [
        {
          "internalType": "address",
          "name": "token",
          "type": "address"
        }
      ],
      "name": "setLinkToken",
      "outputs": [],
      "stateMutability": "nonpayable",
      "type": "function"
    },
    {
      "inputs": [
        {
          "internalType": "uint256",
          "name": "interval",
          "type": "uint256"
        }
      ],
      "name": "setMinBlockInterval",
      "outputs": [],
      "stateMutability": "nonpayable",
      "type": "function"
    },
    {
      "inputs": [
        {
          "internalType": "uint256",
          "name": "interval",
          "type": "uint256"
        }
      ],
      "name": "setMinTimeInterval",
      "outputs": [],
      "stateMutability": "nonpayable",
      "type": "function"
    },
    {
      "inputs": [
        {
          "internalType": "address",
          "name": "token",
          "type": "address"
        },
        {
          "internalType": "string",
          "name": "_url",
          "type": "string"
        },
        {
          "internalType": "string",
          "name": "_path",
          "type": "string"
        }
      ],
      "name": "setToken",
      "outputs": [],
      "stateMutability": "nonpayable",
      "type": "function"
    },
    {
      "inputs": [],
      "name": "tokens",
      "outputs": [
        {
          "internalType": "address",
          "name": "",
          "type": "address"
        }
      ],
      "stateMutability": "view",
      "type": "function"
    },
    {
      "inputs": [
        {
          "internalType": "address",
          "name": "to",
          "type": "address"
        }
      ],
      "name": "transferOwnership",
      "outputs": [],
      "stateMutability": "nonpayable",
      "type": "function"
    },
    {
      "inputs": [],
      "name": "url",
      "outputs": [
        {
          "internalType": "string",
          "name": "",
          "type": "string"
        }
      ],
      "stateMutability": "view",
      "type": "function"
    },
    {
      "inputs": [],
      "name": "withdrawLink",
      "outputs": [],
      "stateMutability": "nonpayable",
      "type": "function"
    }
  ],
  "bytecode": {
    "object": "0x60806040526001600455600a6008553480156200001b57600080fd5b5060405162002496380380620024968339810160408190526200003e916200037b565b3380600081620000955760405162461bcd60e51b815260206004820152601860248201527f43616e6e6f7420736574206f776e657220746f207a65726f000000000000000060448201526064015b60405180910390fd5b600680546001600160a01b0319166001600160a01b0384811691909117909155811615620000c857620000c881620000fb565b505050620000dc81620001a760201b60201c565b620000e783620001f6565b620000f2826200027b565b505050620003bc565b336001600160a01b03821603620001555760405162461bcd60e51b815260206004820152601760248201527f43616e6e6f74207472616e7366657220746f2073656c6600000000000000000060448201526064016200008c565b600780546001600160a01b0319166001600160a01b03838116918217909255600654604051919216907fed8889f560326eb138920d842192f0eb3dd22b4f139c87a2c57538e05bae127890600090a350565b620001b162000300565b60008111620001f15760405162461bcd60e51b815260206004820152600b60248201526a696e76616c69642066656560a81b60448201526064016200008c565b600d55565b6200020062000300565b6001600160a01b0381166200024d5760405162461bcd60e51b815260206004820152601260248201527134b73b30b634b2103634b735903a37b5b2b760711b60448201526064016200008c565b600b80546001600160a01b0383166001600160a01b0319918216811790925560028054909116909117905550565b6200028562000300565b6001600160a01b038116620002d25760405162461bcd60e51b8152602060048201526012602482015271696e76616c696420415049204f7261636c6560701b60448201526064016200008c565b600c80546001600160a01b0383166001600160a01b0319918216811790925560038054909116909117905550565b6006546001600160a01b031633146200035c5760405162461bcd60e51b815260206004820152601660248201527f4f6e6c792063616c6c61626c65206279206f776e65720000000000000000000060448201526064016200008c565b565b80516001600160a01b03811681146200037657600080fd5b919050565b6000806000606084860312156200039157600080fd5b6200039c846200035e565b9250620003ac602085016200035e565b9150604084015190509250925092565b6120ca80620003cc6000396000f3fe608060405234801561001057600080fd5b50600436106101e55760003560e01c806379ba50971161010f578063b3606b56116100a2578063ddca3f4311610071578063ddca3f43146103d2578063ee71d95c146103db578063f2fde38b146103ee578063f90ce5ba1461040157600080fd5b8063b3606b561461037c578063c2939d9714610385578063d33d9ba8146103ac578063d6a153f1146103bf57600080fd5b80639c24ea40116100de5780639c24ea401461033a5780639d63848a1461034d578063a035b1fe14610360578063add37b7b1461036957600080fd5b806379ba5097146103065780638da5cb5b1461030e5780638dc654a21461031f5780638f3fbe6e1461032757600080fd5b80634357855e1161018757806357970e931161015657806357970e93146102ac57806365e16bde146102bf57806369fe0e2d146102d25780636e04ff0d146102e557600080fd5b80634357855e146102755780634585e33b1461028857806354aea1271461029b5780635600f04f146102a457600080fd5b8063171e7721116101c3578063171e7721146102175780632996b5fa1461022c5780633a849c21146102355780633dc063561461026057600080fd5b806302997dd0146101ea578063126082cf146102065780631604f9ea1461020f575b600080fd5b6101f360085481565b6040519081526020015b60405180910390f35b6101f361271081565b6101f361040a565b61022a6102253660046119c6565b610572565b005b6101f360125481565b600954610248906001600160a01b031681565b6040516001600160a01b0390911681526020016101fd565b6102686106b9565b6040516101fd9190611a30565b61022a610283366004611a43565b610747565b61022a610296366004611a65565b610997565b6101f360135481565b6102686109a4565b600b54610248906001600160a01b031681565b61022a6102cd366004611ad6565b6109b1565b61022a6102e0366004611ad6565b6109be565b6102f86102f3366004611a65565b610a09565b6040516101fd929190611aef565b61022a610b30565b6006546001600160a01b0316610248565b61022a610bde565b600c54610248906001600160a01b031681565b61022a6103483660046119c6565b610d1f565b600e54610248906001600160a01b031681565b6101f360115481565b600a54610248906001600160a01b031681565b6101f360145481565b6101f37f636139383336366363373331343935376238633031326337326630356165656281565b61022a6103ba366004611bac565b610d9f565b61022a6103cd366004611ad6565b610e27565b6101f3600d5481565b61022a6103e93660046119c6565b610e34565b61022a6103fc3660046119c6565b610eb4565b6101f360155481565b60008061043f7f6361393833363663633733313439353762386330313263373266303561656562306321abc2af60e11b610ec5565b90506104fb6040518060400160405280600381526020016219d95d60ea1b815250600f805461046d90611c21565b80601f016020809104026020016040519081016040528092919081815260200182805461049990611c21565b80156104e65780601f106104bb576101008083540402835291602001916104e6565b820191906000526020600020905b8154815290600101906020018083116104c957829003601f168201915b505050505083610eea9092919063ffffffff16565b610528604051806040016040528060048152602001630e0c2e8d60e31b8152506010805461046d90611c21565b60408051808201909152600581526474696d657360d81b60208201526c0c9f2c9cd04674edea400000009061055f90839083610f08565b61056b82600d54610f26565b9250505090565b61057a610f49565b6001600160a01b0381166105ce5760405162461bcd60e51b81526020600482015260166024820152751a5b9d985b1a590819985cdd141c9a58d9481999595960521b60448201526064015b60405180910390fd5b600980546001600160a01b0319166001600160a01b0383169081179091556040805163add37b7b60e01b8152905163add37b7b916004808201926020929091908290030181865afa158015610627573d6000803e3d6000fd5b505050506040513d601f19601f8201168201806040525081019061064b9190611c55565b600a80546001600160a01b0319166001600160a01b039290921691821790556106b65760405162461bcd60e51b815260206004820152601760248201527f696e76616c696420636861696e5072696365206665656400000000000000000060448201526064016105c5565b50565b601080546106c690611c21565b80601f01602080910402602001604051908101604052809291908181526020018280546106f290611c21565b801561073f5780601f106107145761010080835404028352916020019161073f565b820191906000526020600020905b81548152906001019060200180831161072257829003601f168201915b505050505081565b60008281526005602052604090205482906001600160a01b031633146107c05760405162461bcd60e51b815260206004820152602860248201527f536f75726365206d75737420626520746865206f7261636c65206f6620746865604482015267081c995c5d595cdd60c21b60648201526084016105c5565b60008181526005602052604080822080546001600160a01b03191690555182917f7cc135e0cebb02c3480ae5d74d377283180a2601f8f644edf7987b009316c63a91a2600082116108435760405162461bcd60e51b815260206004820152600d60248201526c696e76616c696420707269636560981b60448201526064016105c5565b6040805160018082528183019092526000916020808301908036833750506040805160018082528183019092529293506000929150602080830190803683375050600e5484519293506001600160a01b0316918491506000906108a8576108a8611c72565b60200260200101906001600160a01b031690816001600160a01b03168152505083816000815181106108dc576108dc611c72565b6020908102919091010152600954604051631e09986f60e21b81526001600160a01b039091169063782661bc9061091b90859085904290600401611c88565b600060405180830381600087803b15801561093557600080fd5b505af1158015610949573d6000803e3d6000fd5b5050505061095684610f9e565b847f9a8cbabab41362fe534ea197eab0af0bfb16b084f9213b1f15ef6337d97dec158560405161098891815260200190565b60405180910390a25050505050565b61099f61040a565b505050565b600f80546106c690611c21565b6109b9610f49565b601255565b6109c6610f49565b60008111610a045760405162461bcd60e51b815260206004820152600b60248201526a696e76616c69642066656560a81b60448201526064016105c5565b600d55565b60006060610a15610fff565b610a225760009150610b29565b600954600e5460405163cfed246b60e01b81526001600160a01b039182166004820152600092919091169063cfed246b90602401602060405180830381865afa158015610a73573d6000803e3d6000fd5b505050506040513d601f19601f82011682018060405250810190610a979190611d15565b905080600003610aab576001925050610b29565b6000610ab5611049565b90506000818311610ae75782612710610ace8285611d44565b610ad89190611d57565b610ae29190611d84565b610b09565b81612710610af58286611d44565b610aff9190611d57565b610b099190611d84565b9050600854811015610b215760009450505050610b29565b600194505050505b9250929050565b6007546001600160a01b03163314610b835760405162461bcd60e51b815260206004820152601660248201527526bab9ba10313290383937b837b9b2b21037bbb732b960511b60448201526064016105c5565b600680546001600160a01b0319808216339081179093556007805490911690556040516001600160a01b03909116919082907f8be0079c531659141344cd1fd0a4f28419497f9722a3daafe3b4186f6b6457e090600090a350565b610be6610f49565b6000610bfa6002546001600160a01b031690565b6040516370a0823160e01b81523060048201529091506001600160a01b0382169063a9059cbb90339083906370a0823190602401602060405180830381865afa158015610c4b573d6000803e3d6000fd5b505050506040513d601f19601f82011682018060405250810190610c6f9190611d15565b6040516001600160e01b031960e085901b1681526001600160a01b03909216600483015260248201526044016020604051808303816000875af1158015610cba573d6000803e3d6000fd5b505050506040513d601f19601f82011682018060405250810190610cde9190611d98565b6106b65760405162461bcd60e51b81526020600482015260126024820152712ab730b13632903a37903a3930b739b332b960711b60448201526064016105c5565b610d27610f49565b6001600160a01b038116610d725760405162461bcd60e51b815260206004820152601260248201527134b73b30b634b2103634b735903a37b5b2b760711b60448201526064016105c5565b600b80546001600160a01b03929092166001600160a01b0319928316811790915560028054909216179055565b610da7610f49565b6001600160a01b038316610ded5760405162461bcd60e51b815260206004820152600d60248201526c34b73b30b634b2103a37b5b2b760991b60448201526064016105c5565b600e80546001600160a01b0319166001600160a01b038516179055600f610e148382611e08565b506010610e218282611e08565b50505050565b610e2f610f49565b601455565b610e3c610f49565b6001600160a01b038116610e875760405162461bcd60e51b8152602060048201526012602482015271696e76616c696420415049204f7261636c6560701b60448201526064016105c5565b600c80546001600160a01b03929092166001600160a01b0319928316811790915560038054909216179055565b610ebc610f49565b6106b6816111d7565b610ecd611976565b610ed5611976565b610ee181868686611281565b95945050505050565b6080830151610ef990836112c7565b608083015161099f90826112c7565b6080830151610f1790836112c7565b608083015161099f90826112de565b600354600090610f40906001600160a01b03168484611341565b90505b92915050565b6006546001600160a01b03163314610f9c5760405162461bcd60e51b815260206004820152601660248201527527b7363c9031b0b63630b1363290313c9037bbb732b960511b60448201526064016105c5565b565b610fa6610fff565b610ff25760405162461bcd60e51b815260206004820152601f60248201527f6d696e426c6f636b496e74657276616c206e6f7420796574207061737365640060448201526064016105c5565b6011554260135543601555565b6014546000901561102b5760145460155461101a9043611d44565b106110255750600190565b50600090565b601254156110435760125460135461101a9042611d44565b50600190565b600a54600e546040516302c68be360e31b81526001600160a01b039182166004820152600092839216906316345f1890602401602060405180830381865afa158015611099573d6000803e3d6000fd5b505050506040513d601f19601f820116820180604052508101906110bd9190611d15565b600a54600e5460405163cefe0f2160e01b81526001600160a01b03918216600482015292935060009291169063cefe0f2190602401602060405180830381865afa15801561110f573d6000803e3d6000fd5b505050506040513d601f19601f820116820180604052508101906111339190611d15565b90506000600a60009054906101000a90046001600160a01b03166001600160a01b03166395082d256040518163ffffffff1660e01b8152600401602060405180830381865afa15801561118a573d6000803e3d6000fd5b505050506040513d601f19601f820116820180604052508101906111ae9190611d15565b90506111bb82600a611fab565b6111c58285611d57565b6111cf9190611d84565b935050505090565b336001600160a01b0382160361122f5760405162461bcd60e51b815260206004820152601760248201527f43616e6e6f74207472616e7366657220746f2073656c6600000000000000000060448201526064016105c5565b600780546001600160a01b0319166001600160a01b03838116918217909255600654604051919216907fed8889f560326eb138920d842192f0eb3dd22b4f139c87a2c57538e05bae127890600090a350565b611289611976565b61129985608001516101006113d4565b50508284526001600160a01b03821660208501526001600160e01b031981166040850152835b949350505050565b6112d48260038351611439565b61099f8282611540565b67ffffffffffffffff198112156112fd576112f98282611567565b5050565b6001600160401b03811315611316576112f982826115a9565b6000811261132a576112f982600083611439565b6112f982600161133c84600019611fb7565b611439565b600454600090611352816001611fde565b600455835160408086015160808701515191516000936320214ca360e11b9361138a9386938493923092918a91600191602401611ff1565b60408051601f198184030181529190526020810180516001600160e01b03166001600160e01b03199093169290921790915290506113ca868386846115cc565b9695505050505050565b6040805180820190915260608152600060208201526113f4602083612059565b1561141c57611404602083612059565b61140f906020611d44565b6114199083611fde565b91505b506020828101829052604080518085526000815290920101905290565b6017816001600160401b03161161145d57610e218360e0600585901b16831761172a565b60ff816001600160401b03161161149957611483836018611fe0600586901b161761172a565b50610e21836001600160401b038316600161174f565b61ffff816001600160401b0316116114d6576114c0836019611fe0600586901b161761172a565b50610e21836001600160401b038316600261174f565b63ffffffff816001600160401b031611611515576114ff83601a611fe0600586901b161761172a565b50610e21836001600160401b038316600461174f565b61152a83601b611fe0600586901b161761172a565b50610e21836001600160401b038316600861174f565b604080518082019091526060815260006020820152610f4083846000015151848551611775565b6115728260c361172a565b506112f98261158383600019611fb7565b60405160200161159591815260200190565b60405160208183030381529060405261185f565b6115b48260c261172a565b506112f9828260405160200161159591815260200190565b6040516bffffffffffffffffffffffff193060601b1660208201526034810184905260009060540160408051808303601f1901815282825280516020918201206000818152600590925291812080546001600160a01b0319166001600160a01b038a1617905590925082917fb5e6e01e79f91267dc17b4e6314d5d4d03593d2ceee0fbb452b750bd70ea5af99190a2600254604051630200057560e51b81526001600160a01b0390911690634000aea09061168f9088908790879060040161206d565b6020604051808303816000875af11580156116ae573d6000803e3d6000fd5b505050506040513d601f19601f820116820180604052508101906116d29190611d98565b6112bf5760405162461bcd60e51b815260206004820152602360248201527f756e61626c6520746f207472616e73666572416e6443616c6c20746f206f7261604482015262636c6560e81b60648201526084016105c5565b604080518082019091526060815260006020820152610f40838460000151518461186c565b6040805180820190915260608152600060208201526112bf8485600001515185856118c7565b604080518082019091526060815260006020820152825182111561179857600080fd5b60208501516117a78386611fde565b11156117da576117da856117ca876020015187866117c59190611fde565b611948565b6117d5906002611d57565b61195f565b6000808651805187602083010193508088870111156117f95787860182525b505050602084015b602084106118395780518252611818602083611fde565b9150611825602082611fde565b9050611832602085611d44565b9350611801565b51815160001960208690036101000a019081169019919091161790525083949350505050565b6112d48260028351611439565b604080518082019091526060815260006020820152836020015183106118a1576118a184856020015160026117d59190611d57565b83518051602085830101848153508085036118bd576001810182525b5093949350505050565b60408051808201909152606081526000602082015260208501516118eb8584611fde565b11156118ff576118ff856117ca8685611fde565b6000600161190f84610100611fab565b6119199190611d44565b905085518386820101858319825116178152508051848701111561193d5783860181525b509495945050505050565b600081831115611959575081610f43565b50919050565b815161196b83836113d4565b50610e218382611540565b6040805160a0810182526000808252602080830182905282840182905260608084018390528451808601909552845283015290608082015290565b6001600160a01b03811681146106b657600080fd5b6000602082840312156119d857600080fd5b81356119e3816119b1565b9392505050565b6000815180845260005b81811015611a10576020818501810151868301820152016119f4565b506000602082860101526020601f19601f83011685010191505092915050565b602081526000610f4060208301846119ea565b60008060408385031215611a5657600080fd5b50508035926020909101359150565b60008060208385031215611a7857600080fd5b82356001600160401b0380821115611a8f57600080fd5b818501915085601f830112611aa357600080fd5b813581811115611ab257600080fd5b866020828501011115611ac457600080fd5b60209290920196919550909350505050565b600060208284031215611ae857600080fd5b5035919050565b82151581526040602082015260006112bf60408301846119ea565b634e487b7160e01b600052604160045260246000fd5b600082601f830112611b3157600080fd5b81356001600160401b0380821115611b4b57611b4b611b0a565b604051601f8301601f19908116603f01168101908282118183101715611b7357611b73611b0a565b81604052838152866020858801011115611b8c57600080fd5b836020870160208301376000602085830101528094505050505092915050565b600080600060608486031215611bc157600080fd5b8335611bcc816119b1565b925060208401356001600160401b0380821115611be857600080fd5b611bf487838801611b20565b93506040860135915080821115611c0a57600080fd5b50611c1786828701611b20565b9150509250925092565b600181811c90821680611c3557607f821691505b60208210810361195957634e487b7160e01b600052602260045260246000fd5b600060208284031215611c6757600080fd5b81516119e3816119b1565b634e487b7160e01b600052603260045260246000fd5b606080825284519082018190526000906020906080840190828801845b82811015611cca5781516001600160a01b031684529284019290840190600101611ca5565b5050508381038285015285518082528683019183019060005b81811015611cff57835183529284019291840191600101611ce3565b5050809350505050826040830152949350505050565b600060208284031215611d2757600080fd5b5051919050565b634e487b7160e01b600052601160045260246000fd5b81810381811115610f4357610f43611d2e565b8082028115828204841417610f4357610f43611d2e565b634e487b7160e01b600052601260045260246000fd5b600082611d9357611d93611d6e565b500490565b600060208284031215611daa57600080fd5b815180151581146119e357600080fd5b601f82111561099f57600081815260208120601f850160051c81016020861015611de15750805b601f850160051c820191505b81811015611e0057828155600101611ded565b505050505050565b81516001600160401b03811115611e2157611e21611b0a565b611e3581611e2f8454611c21565b84611dba565b602080601f831160018114611e6a5760008415611e525750858301515b600019600386901b1c1916600185901b178555611e00565b600085815260208120601f198616915b82811015611e9957888601518255948401946001909101908401611e7a565b5085821015611eb75787850151600019600388901b60f8161c191681555b5050505050600190811b01905550565b600181815b80851115611f02578160001904821115611ee857611ee8611d2e565b80851615611ef557918102915b93841c9390800290611ecc565b509250929050565b600082611f1957506001610f43565b81611f2657506000610f43565b8160018114611f3c5760028114611f4657611f62565b6001915050610f43565b60ff841115611f5757611f57611d2e565b50506001821b610f43565b5060208310610133831016604e8410600b8410161715611f85575081810a610f43565b611f8f8383611ec7565b8060001904821115611fa357611fa3611d2e565b029392505050565b6000610f408383611f0a565b8181036000831280158383131683831282161715611fd757611fd7611d2e565b5092915050565b80820180821115610f4357610f43611d2e565b6001600160a01b0389811682526020820189905260408201889052861660608201526001600160e01b03198516608082015260a0810184905260c0810183905261010060e0820181905260009061204a838201856119ea565b9b9a5050505050505050505050565b60008261206857612068611d6e565b500690565b60018060a01b0384168152826020820152606060408201526000610ee160608301846119ea56fea26469706673582212202c73d8a547891adfe36dc56447a0e36e4c4718a000a2e98763ff0d666d35b78e64736f6c63430008110033",
    "linkReferences": {}
  },
  "methodIdentifiers": {
    "BASIS_POINTS_DIVISOR()": "126082cf",
    "acceptOwnership()": "79ba5097",
    "apiOracle()": "8f3fbe6e",
    "chainPriceFeed()": "add37b7b",
    "checkUpkeep(bytes)": "6e04ff0d",
    "diff_limit()": "02997dd0",
    "fastPriceFeed()": "3a849c21",
    "fee()": "ddca3f43",
    "fulfill(bytes32,uint256)": "4357855e",
    "jobId()": "c2939d97",
    "lastUpdatedAt()": "54aea127",
    "lastUpdatedBlock()": "f90ce5ba",
    "linkToken()": "57970e93",
    "minBlockInterval()": "b3606b56",
    "minTimeInterval()": "2996b5fa",
    "owner()": "8da5cb5b",
    "path()": "3dc06356",
    "performUpkeep(bytes)": "4585e33b",
    "price()": "a035b1fe",
    "requestPrice()": "1604f9ea",
    "setAPIOracle(address)": "ee71d95c",
    "setFastPriceFeed(address)": "171e7721",
    "setFee(uint256)": "69fe0e2d",
    "setLinkToken(address)": "9c24ea40",
    "setMinBlockInterval(uint256)": "d6a153f1",
    "setMinTimeInterval(uint256)": "65e16bde",
    "setToken(address,string,string)": "d33d9ba8",
    "tokens()": "9d63848a",
    "transferOwnership(address)": "f2fde38b",
    "url()": "5600f04f",
    "withdrawLink()": "8dc654a2"
  },
  "id": 31
}