{
  "abi": [
    {
      "inputs": [
        {
          "internalType": "address",
          "name": "factory",
          "type": "address"
        },
        {
          "internalType": "bool",
          "name": "islong",
          "type": "bool"
        }
      ],
      "stateMutability": "nonpayable",
      "type": "constructor"
    },
    {
      "anonymous": false,
      "inputs": [
        {
          "indexed": false,
          "internalType": "uint8",
          "name": "version",
          "type": "uint8"
        }
      ],
      "name": "Initialized",
      "type": "event"
    },
    {
      "anonymous": false,
      "inputs": [
        {
          "indexed": true,
          "internalType": "address",
          "name": "previousOwner",
          "type": "address"
        },
        {
          "indexed": true,
          "internalType": "address",
          "name": "newOwner",
          "type": "address"
        }
      ],
      "name": "OwnershipTransferred",
      "type": "event"
    },
    {
      "anonymous": false,
      "inputs": [
        {
          "indexed": true,
          "internalType": "address",
          "name": "account",
          "type": "address"
        },
        {
          "indexed": false,
          "internalType": "uint256",
          "name": "size",
          "type": "uint256"
        },
        {
          "indexed": false,
          "internalType": "uint256",
          "name": "collateral",
          "type": "uint256"
        }
      ],
      "name": "RemovePosition",
      "type": "event"
    },
    {
      "anonymous": false,
      "inputs": [
        {
          "indexed": true,
          "internalType": "bytes32",
          "name": "role",
          "type": "bytes32"
        },
        {
          "indexed": true,
          "internalType": "bytes32",
          "name": "previousAdminRole",
          "type": "bytes32"
        },
        {
          "indexed": true,
          "internalType": "bytes32",
          "name": "newAdminRole",
          "type": "bytes32"
        }
      ],
      "name": "RoleAdminChanged",
      "type": "event"
    },
    {
      "anonymous": false,
      "inputs": [
        {
          "indexed": true,
          "internalType": "bytes32",
          "name": "role",
          "type": "bytes32"
        },
        {
          "indexed": true,
          "internalType": "address",
          "name": "account",
          "type": "address"
        },
        {
          "indexed": true,
          "internalType": "address",
          "name": "sender",
          "type": "address"
        }
      ],
      "name": "RoleGranted",
      "type": "event"
    },
    {
      "anonymous": false,
      "inputs": [
        {
          "indexed": true,
          "internalType": "bytes32",
          "name": "role",
          "type": "bytes32"
        },
        {
          "indexed": true,
          "internalType": "address",
          "name": "account",
          "type": "address"
        },
        {
          "indexed": true,
          "internalType": "address",
          "name": "sender",
          "type": "address"
        }
      ],
      "name": "RoleRevoked",
      "type": "event"
    },
    {
      "anonymous": false,
      "inputs": [
        {
          "indexed": true,
          "internalType": "address",
          "name": "account",
          "type": "address"
        },
        {
          "indexed": false,
          "internalType": "uint256",
          "name": "size",
          "type": "uint256"
        },
        {
          "indexed": false,
          "internalType": "uint256",
          "name": "collateral",
          "type": "uint256"
        }
      ],
      "name": "UpdatePosition",
      "type": "event"
    },
    {
      "anonymous": false,
      "inputs": [
        {
          "indexed": true,
          "internalType": "address",
          "name": "oldAddress",
          "type": "address"
        },
        {
          "indexed": true,
          "internalType": "address",
          "name": "newAddress",
          "type": "address"
        }
      ],
      "name": "UpdatePositionBook",
      "type": "event"
    },
    {
      "inputs": [],
      "name": "DEFAULT_ADMIN_ROLE",
      "outputs": [
        {
          "internalType": "bytes32",
          "name": "",
          "type": "bytes32"
        }
      ],
      "stateMutability": "view",
      "type": "function"
    },
    {
      "inputs": [
        {
          "internalType": "address",
          "name": "account",
          "type": "address"
        }
      ],
      "name": "contains",
      "outputs": [
        {
          "internalType": "bool",
          "name": "",
          "type": "bool"
        }
      ],
      "stateMutability": "view",
      "type": "function"
    },
    {
      "inputs": [
        {
          "internalType": "address",
          "name": "account",
          "type": "address"
        }
      ],
      "name": "get",
      "outputs": [
        {
          "components": [
            {
              "internalType": "address",
              "name": "market",
              "type": "address"
            },
            {
              "internalType": "bool",
              "name": "isLong",
              "type": "bool"
            },
            {
              "internalType": "uint32",
              "name": "lastTime",
              "type": "uint32"
            },
            {
              "internalType": "uint216",
              "name": "extra3",
              "type": "uint216"
            },
            {
              "internalType": "uint256",
              "name": "size",
              "type": "uint256"
            },
            {
              "internalType": "uint256",
              "name": "collateral",
              "type": "uint256"
            },
            {
              "internalType": "uint256",
              "name": "averagePrice",
              "type": "uint256"
            },
            {
              "internalType": "int256",
              "name": "entryFundingRate",
              "type": "int256"
            },
            {
              "internalType": "int256",
              "name": "realisedPnl",
              "type": "int256"
            },
            {
              "internalType": "uint256",
              "name": "extra0",
              "type": "uint256"
            },
            {
              "internalType": "uint256",
              "name": "extra1",
              "type": "uint256"
            },
            {
              "internalType": "uint256",
              "name": "extra2",
              "type": "uint256"
            }
          ],
          "internalType": "struct Position.Props",
          "name": "",
          "type": "tuple"
        }
      ],
      "stateMutability": "view",
      "type": "function"
    },
    {
      "inputs": [],
      "name": "getGlobalPosition",
      "outputs": [
        {
          "components": [
            {
              "internalType": "address",
              "name": "market",
              "type": "address"
            },
            {
              "internalType": "bool",
              "name": "isLong",
              "type": "bool"
            },
            {
              "internalType": "uint32",
              "name": "lastTime",
              "type": "uint32"
            },
            {
              "internalType": "uint216",
              "name": "extra3",
              "type": "uint216"
            },
            {
              "internalType": "uint256",
              "name": "size",
              "type": "uint256"
            },
            {
              "internalType": "uint256",
              "name": "collateral",
              "type": "uint256"
            },
            {
              "internalType": "uint256",
              "name": "averagePrice",
              "type": "uint256"
            },
            {
              "internalType": "int256",
              "name": "entryFundingRate",
              "type": "int256"
            },
            {
              "internalType": "int256",
              "name": "realisedPnl",
              "type": "int256"
            },
            {
              "internalType": "uint256",
              "name": "extra0",
              "type": "uint256"
            },
            {
              "internalType": "uint256",
              "name": "extra1",
              "type": "uint256"
            },
            {
              "internalType": "uint256",
              "name": "extra2",
              "type": "uint256"
            }
          ],
          "internalType": "struct Position.Props",
          "name": "",
          "type": "tuple"
        }
      ],
      "stateMutability": "view",
      "type": "function"
    },
    {
      "inputs": [],
      "name": "getPositionCount",
      "outputs": [
        {
          "internalType": "uint256",
          "name": "",
          "type": "uint256"
        }
      ],
      "stateMutability": "view",
      "type": "function"
    },
    {
      "inputs": [
        {
          "internalType": "uint256",
          "name": "start",
          "type": "uint256"
        },
        {
          "internalType": "uint256",
          "name": "end",
          "type": "uint256"
        }
      ],
      "name": "getPositionKeys",
      "outputs": [
        {
          "internalType": "address[]",
          "name": "",
          "type": "address[]"
        }
      ],
      "stateMutability": "view",
      "type": "function"
    },
    {
      "inputs": [
        {
          "internalType": "bytes32",
          "name": "role",
          "type": "bytes32"
        }
      ],
      "name": "getRoleAdmin",
      "outputs": [
        {
          "internalType": "bytes32",
          "name": "",
          "type": "bytes32"
        }
      ],
      "stateMutability": "view",
      "type": "function"
    },
    {
      "inputs": [],
      "name": "globalSize",
      "outputs": [
        {
          "internalType": "uint256",
          "name": "",
          "type": "uint256"
        }
      ],
      "stateMutability": "view",
      "type": "function"
    },
    {
      "inputs": [
        {
          "internalType": "address",
          "name": "_account",
          "type": "address"
        }
      ],
      "name": "grantControllerRoleByMarketManager",
      "outputs": [],
      "stateMutability": "nonpayable",
      "type": "function"
    },
    {
      "inputs": [
        {
          "internalType": "bytes32",
          "name": "role",
          "type": "bytes32"
        },
        {
          "internalType": "address",
          "name": "account",
          "type": "address"
        }
      ],
      "name": "grantRole",
      "outputs": [],
      "stateMutability": "nonpayable",
      "type": "function"
    },
    {
      "inputs": [
        {
          "internalType": "bytes32",
          "name": "role",
          "type": "bytes32"
        },
        {
          "internalType": "address",
          "name": "account",
          "type": "address"
        }
      ],
      "name": "hasRole",
      "outputs": [
        {
          "internalType": "bool",
          "name": "",
          "type": "bool"
        }
      ],
      "stateMutability": "view",
      "type": "function"
    },
    {
      "inputs": [],
      "name": "isLong",
      "outputs": [
        {
          "internalType": "bool",
          "name": "",
          "type": "bool"
        }
      ],
      "stateMutability": "view",
      "type": "function"
    },
    {
      "inputs": [],
      "name": "owner",
      "outputs": [
        {
          "internalType": "address",
          "name": "",
          "type": "address"
        }
      ],
      "stateMutability": "view",
      "type": "function"
    },
    {
      "inputs": [],
      "name": "positionBook",
      "outputs": [
        {
          "internalType": "address",
          "name": "",
          "type": "address"
        }
      ],
      "stateMutability": "view",
      "type": "function"
    },
    {
      "inputs": [
        {
          "internalType": "address",
          "name": "account",
          "type": "address"
        },
        {
          "components": [
            {
              "internalType": "address",
              "name": "market",
              "type": "address"
            },
            {
              "internalType": "bool",
              "name": "isLong",
              "type": "bool"
            },
            {
              "internalType": "uint32",
              "name": "lastTime",
              "type": "uint32"
            },
            {
              "internalType": "uint216",
              "name": "extra3",
              "type": "uint216"
            },
            {
              "internalType": "uint256",
              "name": "size",
              "type": "uint256"
            },
            {
              "internalType": "uint256",
              "name": "collateral",
              "type": "uint256"
            },
            {
              "internalType": "uint256",
              "name": "averagePrice",
              "type": "uint256"
            },
            {
              "internalType": "int256",
              "name": "entryFundingRate",
              "type": "int256"
            },
            {
              "internalType": "int256",
              "name": "realisedPnl",
              "type": "int256"
            },
            {
              "internalType": "uint256",
              "name": "extra0",
              "type": "uint256"
            },
            {
              "internalType": "uint256",
              "name": "extra1",
              "type": "uint256"
            },
            {
              "internalType": "uint256",
              "name": "extra2",
              "type": "uint256"
            }
          ],
          "internalType": "struct Position.Props",
          "name": "globalPosition",
          "type": "tuple"
        }
      ],
      "name": "remove",
      "outputs": [],
      "stateMutability": "nonpayable",
      "type": "function"
    },
    {
      "inputs": [],
      "name": "renounceOwnership",
      "outputs": [],
      "stateMutability": "nonpayable",
      "type": "function"
    },
    {
      "inputs": [
        {
          "internalType": "bytes32",
          "name": "",
          "type": "bytes32"
        },
        {
          "internalType": "address",
          "name": "",
          "type": "address"
        }
      ],
      "name": "renounceRole",
      "outputs": [],
      "stateMutability": "nonpayable",
      "type": "function"
    },
    {
      "inputs": [
        {
          "internalType": "bytes32",
          "name": "role",
          "type": "bytes32"
        },
        {
          "internalType": "address",
          "name": "account",
          "type": "address"
        }
      ],
      "name": "revokeRole",
      "outputs": [],
      "stateMutability": "nonpayable",
      "type": "function"
    },
    {
      "inputs": [
        {
          "internalType": "address",
          "name": "account",
          "type": "address"
        },
        {
          "components": [
            {
              "internalType": "address",
              "name": "market",
              "type": "address"
            },
            {
              "internalType": "bool",
              "name": "isLong",
              "type": "bool"
            },
            {
              "internalType": "uint32",
              "name": "lastTime",
              "type": "uint32"
            },
            {
              "internalType": "uint216",
              "name": "extra3",
              "type": "uint216"
            },
            {
              "internalType": "uint256",
              "name": "size",
              "type": "uint256"
            },
            {
              "internalType": "uint256",
              "name": "collateral",
              "type": "uint256"
            },
            {
              "internalType": "uint256",
              "name": "averagePrice",
              "type": "uint256"
            },
            {
              "internalType": "int256",
              "name": "entryFundingRate",
              "type": "int256"
            },
            {
              "internalType": "int256",
              "name": "realisedPnl",
              "type": "int256"
            },
            {
              "internalType": "uint256",
              "name": "extra0",
              "type": "uint256"
            },
            {
              "internalType": "uint256",
              "name": "extra1",
              "type": "uint256"
            },
            {
              "internalType": "uint256",
              "name": "extra2",
              "type": "uint256"
            }
          ],
          "internalType": "struct Position.Props",
          "name": "position",
          "type": "tuple"
        },
        {
          "components": [
            {
              "internalType": "address",
              "name": "market",
              "type": "address"
            },
            {
              "internalType": "bool",
              "name": "isLong",
              "type": "bool"
            },
            {
              "internalType": "uint32",
              "name": "lastTime",
              "type": "uint32"
            },
            {
              "internalType": "uint216",
              "name": "extra3",
              "type": "uint216"
            },
            {
              "internalType": "uint256",
              "name": "size",
              "type": "uint256"
            },
            {
              "internalType": "uint256",
              "name": "collateral",
              "type": "uint256"
            },
            {
              "internalType": "uint256",
              "name": "averagePrice",
              "type": "uint256"
            },
            {
              "internalType": "int256",
              "name": "entryFundingRate",
              "type": "int256"
            },
            {
              "internalType": "int256",
              "name": "realisedPnl",
              "type": "int256"
            },
            {
              "internalType": "uint256",
              "name": "extra0",
              "type": "uint256"
            },
            {
              "internalType": "uint256",
              "name": "extra1",
              "type": "uint256"
            },
            {
              "internalType": "uint256",
              "name": "extra2",
              "type": "uint256"
            }
          ],
          "internalType": "struct Position.Props",
          "name": "globalPosition",
          "type": "tuple"
        }
      ],
      "name": "set",
      "outputs": [],
      "stateMutability": "nonpayable",
      "type": "function"
    },
    {
      "inputs": [
        {
          "internalType": "address",
          "name": "pb",
          "type": "address"
        }
      ],
      "name": "setPositionBook",
      "outputs": [],
      "stateMutability": "nonpayable",
      "type": "function"
    },
    {
      "inputs": [
        {
          "internalType": "bytes4",
          "name": "interfaceId",
          "type": "bytes4"
        }
      ],
      "name": "supportsInterface",
      "outputs": [
        {
          "internalType": "bool",
          "name": "",
          "type": "bool"
        }
      ],
      "stateMutability": "view",
      "type": "function"
    },
    {
      "inputs": [
        {
          "internalType": "address",
          "name": "to",
          "type": "address"
        }
      ],
      "name": "transferAdmin",
      "outputs": [],
      "stateMutability": "nonpayable",
      "type": "function"
    },
    {
      "inputs": [
        {
          "internalType": "address",
          "name": "newOwner",
          "type": "address"
        }
      ],
      "name": "transferOwnership",
      "outputs": [],
      "stateMutability": "nonpayable",
      "type": "function"
    }
  ],
  "bytecode": {
    "object": "0x60a06040523480156200001157600080fd5b5060405162001af238038062001af28339810160408190526200003491620002aa565b816200004033620000b1565b62000056816200010360201b62000b471760201c565b50600380546001600160a01b031916339081179091558115156080526200009f907fcb58d6d985142a614029cdf01861b4fe094d5919a47e69b8310dc4093d9d6ad0906200012f565b620000a9620001d0565b5050620002f8565b600180546001600160a01b038381166001600160a01b0319831681179093556040519116919082907f8be0079c531659141344cd1fd0a4f28419497f9722a3daafe3b4186f6b6457e090600090a35050565b426002556200011233620000b1565b6200011f6000336200029e565b6200012c6000826200029e565b50565b6000828152602081815260408083206001600160a01b038516845290915290205460ff16620001cc576000828152602081815260408083206001600160a01b03851684529091529020805460ff191660011790556200018b3390565b6001600160a01b0316816001600160a01b0316837f2f8788117e7eff1d82e926ec794901d17c78024a50270940304540a733656f0d60405160405180910390a45b5050565b600154600160a81b900460ff16156200023f5760405162461bcd60e51b815260206004820152602760248201527f496e697469616c697a61626c653a20636f6e747261637420697320696e697469604482015266616c697a696e6760c81b606482015260840160405180910390fd5b600154600160a01b900460ff908116146200029c576001805460ff60a01b191660ff60a01b17905560405160ff81527f7f26b83ff96e1f2b6a682f133852f6798a09c465da95921460cefb38474024989060200160405180910390a15b565b620001cc82826200012f565b60008060408385031215620002be57600080fd5b82516001600160a01b0381168114620002d657600080fd5b60208401519092508015158114620002ed57600080fd5b809150509250929050565b6080516117de62000314600039600061019101526117de6000f3fe608060405234801561001057600080fd5b506004361061014d5760003560e01c80637fe4a698116100c3578063a217fddf1161007c578063a217fddf146102d5578063ac0b05a6146102dd578063b7ed1357146102f0578063c2bc2efc14610303578063d547741f14610316578063f2fde38b1461032957600080fd5b80637fe4a6981461025a578063816834761461026d5780638d49701d146102755780638da5cb5b146102885780639027b59e146102ad57806391d14854146102c257600080fd5b80632f2ff15d116101155780632f2ff15d146101eb57806336568abe146101fe5780635dbe47e81461020c578063715018a61461021f57806375829def146102275780637f497d971461023a57600080fd5b806301ffc9a7146101525780631ee229be1461017a578063202a61a11461018c578063248a9ca3146101b35780632d015618146101d6575b600080fd5b610165610160366004611231565b61033c565b60405190151581526020015b60405180910390f35b6009545b604051908152602001610171565b6101657f000000000000000000000000000000000000000000000000000000000000000081565b61017e6101c136600461125b565b60009081526020819052604090206001015490565b6101e96101e43660046112a2565b610373565b005b6101e96101f93660046112d9565b610655565b6101e961014d3660046112d9565b61016561021a366004611309565b61067f565b6101e961068c565b6101e9610235366004611309565b6106a0565b61024d610248366004611326565b610714565b6040516101719190611348565b6101e9610268366004611309565b610729565b61017e610753565b6101e9610283366004611309565b610764565b6001546001600160a01b03165b6040516001600160a01b039091168152602001610171565b6102b5610870565b6040516101719190611395565b6101656102d03660046112d9565b610910565b61017e600081565b600354610295906001600160a01b031681565b6101e96102fe36600461144c565b610939565b6102b5610311366004611309565b6109e2565b6101e96103243660046112d9565b610aa9565b6101e9610337366004611309565b610ace565b60006001600160e01b03198216637965db0b60e01b148061036d57506301ffc9a760e01b6001600160e01b03198316145b92915050565b61038a600080516020611789833981519152610b6a565b6000610397600584610b74565b9050806103eb5760405162461bcd60e51b815260206004820152601760248201527f706f736974696f6e20646f6573206e6f7420657869737400000000000000000060448201526064015b60405180910390fd5b8160076103f882826114e3565b905050600060046000856001600160a01b03166001600160a01b03168152602001908152602001600020604051806101800160405290816000820160009054906101000a90046001600160a01b03166001600160a01b03166001600160a01b031681526020016000820160149054906101000a900460ff161515151581526020016000820160159054906101000a900463ffffffff1663ffffffff1663ffffffff1681526020016001820160009054906101000a90046001600160d81b03166001600160d81b03166001600160d81b0316815260200160028201548152602001600382015481526020016004820154815260200160058201548152602001600682015481526020016007820154815260200160088201548152602001600982015481525050905060046000856001600160a01b03166001600160a01b03168152602001908152602001600020600080820160006101000a8154906001600160a01b0302191690556000820160146101000a81549060ff02191690556000820160156101000a81549063ffffffff02191690556001820160006101000a8154906001600160d81b0302191690556002820160009055600382016000905560048201600090556005820160009055600682016000905560078201600090556008820160009055600982016000905550506105fa846005610b9690919063ffffffff16565b50836001600160a01b03167f20b3ac24c835264e655c493af7b3db37ff78a0f358627f0de89832abc7e1deca82608001518360a00151604051610647929190918252602082015260400190565b60405180910390a250505050565b60008281526020819052604090206001015461067081610b6a565b61067a8383610bab565b505050565b600061036d600583610b74565b610694610c2f565b61069e6000610c89565b565b60006106ab81610b6a565b6001600160a01b0382166106f15760405162461bcd60e51b815260206004820152600d60248201526c217a65726f206164647265737360981b60448201526064016103e2565b6106fc600083610cdb565b61070582610c89565b610710600033610ce5565b5050565b606061072260058484610d4a565b9392505050565b7f8d1089725c0dc266707fa6207730fb801dcd03108bfed7a21099bd303651d2b761014d81610b6a565b600061075f6005610e18565b905090565b61078d7f241ecf16d79d0f8dbfb92cbc07fe17840425976cf0667f022fe9877caa831b08610b6a565b6001600160a01b0381166107d55760405162461bcd60e51b815260206004820152600f60248201526e696e76616c6964206164647265737360881b60448201526064016103e2565b6003546001600160a01b03166107f960008051602061178983398151915282610ce5565b600380546001600160a01b0319166001600160a01b03841617905561082c60008051602061178983398151915283610bab565b816001600160a01b0316816001600160a01b03167f2ee38693e6d151b09b65fa20e0e55d8947aeee23c1fa70257ea61af59a8dd2f060405160405180910390a35050565b6108786111b6565b5060408051610180810182526007546001600160a01b0381168252600160a01b810460ff1615156020830152600160a81b900463ffffffff16918101919091526008546001600160d81b031660608201526009546080820152600a5460a0820152600b5460c0820152600c5460e0820152600d54610100820152600e54610120820152600f5461014082015260105461016082015290565b6000918252602082815260408084206001600160a01b0393909316845291905290205460ff1690565b610950600080516020611789833981519152610b6a565b80600761095d82826114e3565b50506001600160a01b0383166000908152600460205260409020829061098382826114e3565b506109919050600584610e22565b50604080516080840135815260a084013560208201526001600160a01b038516917f0d77a4156ff764dade22a2cd25a68a83ff04b20df143bba5d162a6a980702623910160405180910390a2505050565b6109ea6111b6565b506001600160a01b0390811660009081526004602081815260409283902083516101808101855281549586168152600160a01b860460ff16151592810192909252600160a81b90940463ffffffff169281019290925260018301546001600160d81b0316606083015260028301546080830152600383015460a083015282015460c0820152600582015460e082015260068201546101008201526007820154610120820152600882015461014082015260099091015461016082015290565b600082815260208190526040902060010154610ac481610b6a565b61067a8383610ce5565b610ad6610c2f565b6001600160a01b038116610b3b5760405162461bcd60e51b815260206004820152602660248201527f4f776e61626c653a206e6577206f776e657220697320746865207a65726f206160448201526564647265737360d01b60648201526084016103e2565b610b4481610c89565b50565b42600255610b5433610c89565b610b5f600033610cdb565b610b44600082610cdb565b610b448133610e37565b6001600160a01b03811660009081526001830160205260408120541515610722565b6000610722836001600160a01b038416610e90565b610bb58282610910565b610710576000828152602081815260408083206001600160a01b03851684529091529020805460ff19166001179055610beb3390565b6001600160a01b0316816001600160a01b0316837f2f8788117e7eff1d82e926ec794901d17c78024a50270940304540a733656f0d60405160405180910390a45050565b6001546001600160a01b0316331461069e5760405162461bcd60e51b815260206004820181905260248201527f4f776e61626c653a2063616c6c6572206973206e6f7420746865206f776e657260448201526064016103e2565b600180546001600160a01b038381166001600160a01b0319831681179093556040519116919082907f8be0079c531659141344cd1fd0a4f28419497f9722a3daafe3b4186f6b6457e090600090a35050565b6107108282610bab565b610cef8282610910565b15610710576000828152602081815260408083206001600160a01b0385168085529252808320805460ff1916905551339285917ff6391f5c32d9c69d2a47ea670b442974b53935d1edc7fd64eb21e047a839171b9190a45050565b60606000610d5785610e18565b905080831115610d65578092505b6000610d71858561160d565b67ffffffffffffffff811115610d8957610d89611620565b604051908082528060200260200182016040528015610db2578160200160208202803683370190505b509050845b84811015610e0e57610dc98782610f83565b82610dd4888461160d565b81518110610de457610de4611636565b6001600160a01b039092166020928302919091019091015280610e068161164c565b915050610db7565b5095945050505050565b600061036d825490565b6000610722836001600160a01b038416610f8f565b610e418282610910565b61071057610e4e81610fde565b610e59836020610ff0565b604051602001610e6a929190611689565b60408051601f198184030181529082905262461bcd60e51b82526103e2916004016116fe565b60008181526001830160205260408120548015610f79576000610eb460018361160d565b8554909150600090610ec89060019061160d565b9050818114610f2d576000866000018281548110610ee857610ee8611636565b9060005260206000200154905080876000018481548110610f0b57610f0b611636565b6000918252602080832090910192909255918252600188019052604090208390555b8554869080610f3e57610f3e611731565b60019003818190600052602060002001600090559055856001016000868152602001908152602001600020600090556001935050505061036d565b600091505061036d565b6000610722838361118c565b6000818152600183016020526040812054610fd65750815460018181018455600084815260208082209093018490558454848252828601909352604090209190915561036d565b50600061036d565b606061036d6001600160a01b03831660145b60606000610fff836002611747565b61100a90600261175e565b67ffffffffffffffff81111561102257611022611620565b6040519080825280601f01601f19166020018201604052801561104c576020820181803683370190505b509050600360fc1b8160008151811061106757611067611636565b60200101906001600160f81b031916908160001a905350600f60fb1b8160018151811061109657611096611636565b60200101906001600160f81b031916908160001a90535060006110ba846002611747565b6110c590600161175e565b90505b600181111561113d576f181899199a1a9b1b9c1cb0b131b232b360811b85600f16601081106110f9576110f9611636565b1a60f81b82828151811061110f5761110f611636565b60200101906001600160f81b031916908160001a90535060049490941c9361113681611771565b90506110c8565b5083156107225760405162461bcd60e51b815260206004820181905260248201527f537472696e67733a20686578206c656e67746820696e73756666696369656e7460448201526064016103e2565b60008260000182815481106111a3576111a3611636565b9060005260206000200154905092915050565b60405180610180016040528060006001600160a01b03168152602001600015158152602001600063ffffffff16815260200160006001600160d81b0316815260200160008152602001600081526020016000815260200160008152602001600081526020016000815260200160008152602001600081525090565b60006020828403121561124357600080fd5b81356001600160e01b03198116811461072257600080fd5b60006020828403121561126d57600080fd5b5035919050565b6001600160a01b0381168114610b4457600080fd5b6000610180828403121561129c57600080fd5b50919050565b6000806101a083850312156112b657600080fd5b82356112c181611274565b91506112d08460208501611289565b90509250929050565b600080604083850312156112ec57600080fd5b8235915060208301356112fe81611274565b809150509250929050565b60006020828403121561131b57600080fd5b813561072281611274565b6000806040838503121561133957600080fd5b50508035926020909101359150565b6020808252825182820181905260009190848201906040850190845b818110156113895783516001600160a01b031683529284019291840191600101611364565b50909695505050505050565b81516001600160a01b03168152610180810160208301516113ba602084018215159052565b5060408301516113d2604084018263ffffffff169052565b5060608301516113ed60608401826001600160d81b03169052565b506080830151608083015260a083015160a083015260c083015160c083015260e083015160e083015261010080840151818401525061012080840151818401525061014080840151818401525061016080840151818401525092915050565b6000806000610320848603121561146257600080fd5b833561146d81611274565b925061147c8560208601611289565b915061148c856101a08601611289565b90509250925092565b6000813561036d81611274565b60008135801515811461036d57600080fd5b6000813563ffffffff8116811461036d57600080fd5b600081356001600160d81b038116811461036d57600080fd5b61150c6114ef83611495565b82546001600160a01b0319166001600160a01b0391909116178255565b61153961151b602084016114a2565b82805460ff60a01b191691151560a01b60ff60a01b16919091179055565b61156c611548604084016114b4565b82805463ffffffff60a81b191660a89290921b63ffffffff60a81b16919091179055565b61159f61157b606084016114ca565b6001830180546001600160d81b0319166001600160d81b0392909216919091179055565b6080820135600282015560a0820135600382015560c0820135600482015560e0820135600582015561010082013560068201556101208201356007820155610140820135600882015561016082013560098201555050565b634e487b7160e01b600052601160045260246000fd5b8181038181111561036d5761036d6115f7565b634e487b7160e01b600052604160045260246000fd5b634e487b7160e01b600052603260045260246000fd5b60006001820161165e5761165e6115f7565b5060010190565b60005b83811015611680578181015183820152602001611668565b50506000910152565b7f416363657373436f6e74726f6c3a206163636f756e74200000000000000000008152600083516116c1816017850160208801611665565b7001034b99036b4b9b9b4b733903937b6329607d1b60179184019182015283516116f2816028840160208801611665565b01602801949350505050565b602081526000825180602084015261171d816040850160208701611665565b601f01601f19169190910160400192915050565b634e487b7160e01b600052603160045260246000fd5b808202811582820484141761036d5761036d6115f7565b8082018082111561036d5761036d6115f7565b600081611780576117806115f7565b50600019019056fecb58d6d985142a614029cdf01861b4fe094d5919a47e69b8310dc4093d9d6ad0a26469706673582212200713ac4b36ed478c6d97982efcf75c463a43c5cd364de8a8db587a71fd1436e064736f6c63430008110033",
    "linkReferences": {}
  },
  "methodIdentifiers": {
    "DEFAULT_ADMIN_ROLE()": "a217fddf",
    "contains(address)": "5dbe47e8",
    "get(address)": "c2bc2efc",
    "getGlobalPosition()": "9027b59e",
    "getPositionCount()": "81683476",
    "getPositionKeys(uint256,uint256)": "7f497d97",
    "getRoleAdmin(bytes32)": "248a9ca3",
    "globalSize()": "1ee229be",
    "grantControllerRoleByMarketManager(address)": "7fe4a698",
    "grantRole(bytes32,address)": "2f2ff15d",
    "hasRole(bytes32,address)": "91d14854",
    "isLong()": "202a61a1",
    "owner()": "8da5cb5b",
    "positionBook()": "ac0b05a6",
    "remove(address,(address,bool,uint32,uint216,uint256,uint256,uint256,int256,int256,uint256,uint256,uint256))": "2d015618",
    "renounceOwnership()": "715018a6",
    "renounceRole(bytes32,address)": "36568abe",
    "revokeRole(bytes32,address)": "d547741f",
    "set(address,(address,bool,uint32,uint216,uint256,uint256,uint256,int256,int256,uint256,uint256,uint256),(address,bool,uint32,uint216,uint256,uint256,uint256,int256,int256,uint256,uint256,uint256))": "b7ed1357",
    "setPositionBook(address)": "8d49701d",
    "supportsInterface(bytes4)": "01ffc9a7",
    "transferAdmin(address)": "75829def",
    "transferOwnership(address)": "f2fde38b"
  },
  "id": 83
}