{
  "abi": [
    {
      "inputs": [
        {
          "internalType": "address",
          "name": "_coreVault",
          "type": "address"
        },
        {
          "internalType": "address",
          "name": "_usdc",
          "type": "address"
        }
      ],
      "stateMutability": "nonpayable",
      "type": "constructor"
    },
    {
      "inputs": [],
      "name": "USDBalance",
      "outputs": [
        {
          "internalType": "uint256",
          "name": "",
          "type": "uint256"
        }
      ],
      "stateMutability": "view",
      "type": "function"
    },
    {
      "inputs": [
        {
          "internalType": "uint256",
          "name": "_amount",
          "type": "uint256"
        }
      ],
      "name": "borrowFromVault",
      "outputs": [],
      "stateMutability": "nonpayable",
      "type": "function"
    },
    {
      "inputs": [],
      "name": "coreVault",
      "outputs": [
        {
          "internalType": "address",
          "name": "",
          "type": "address"
        }
      ],
      "stateMutability": "view",
      "type": "function"
    },
    {
      "inputs": [],
      "name": "fundLimit",
      "outputs": [
        {
          "internalType": "uint256",
          "name": "",
          "type": "uint256"
        }
      ],
      "stateMutability": "view",
      "type": "function"
    },
    {
      "inputs": [
        {
          "internalType": "address",
          "name": "",
          "type": "address"
        }
      ],
      "name": "fundsUsed",
      "outputs": [
        {
          "internalType": "uint256",
          "name": "",
          "type": "uint256"
        }
      ],
      "stateMutability": "view",
      "type": "function"
    },
    {
      "inputs": [],
      "name": "getAUM",
      "outputs": [
        {
          "internalType": "uint256",
          "name": "",
          "type": "uint256"
        }
      ],
      "stateMutability": "view",
      "type": "function"
    },
    {
      "inputs": [],
      "name": "getUSDBalance",
      "outputs": [
        {
          "internalType": "uint256",
          "name": "",
          "type": "uint256"
        }
      ],
      "stateMutability": "view",
      "type": "function"
    },
    {
      "inputs": [
        {
          "internalType": "uint256",
          "name": "_amount",
          "type": "uint256"
        }
      ],
      "name": "repayToVault",
      "outputs": [],
      "stateMutability": "nonpayable",
      "type": "function"
    },
    {
      "inputs": [
        {
          "internalType": "uint256",
          "name": "_limit",
          "type": "uint256"
        }
      ],
      "name": "setFundLimit",
      "outputs": [],
      "stateMutability": "nonpayable",
      "type": "function"
    },
    {
      "inputs": [
        {
          "internalType": "uint256",
          "name": "_balance",
          "type": "uint256"
        }
      ],
      "name": "setUSDBalance",
      "outputs": [],
      "stateMutability": "nonpayable",
      "type": "function"
    },
    {
      "inputs": [],
      "name": "temAddress",
      "outputs": [
        {
          "internalType": "address",
          "name": "",
          "type": "address"
        }
      ],
      "stateMutability": "view",
      "type": "function"
    },
    {
      "inputs": [],
      "name": "totalAUM",
      "outputs": [
        {
          "internalType": "uint256",
          "name": "",
          "type": "uint256"
        }
      ],
      "stateMutability": "view",
      "type": "function"
    },
    {
      "inputs": [],
      "name": "usdc",
      "outputs": [
        {
          "internalType": "address",
          "name": "",
          "type": "address"
        }
      ],
      "stateMutability": "view",
      "type": "function"
    }
  ],
  "bytecode": {
    "object": "0x608060405262989680600055620f424060015534801561001e57600080fd5b5060405161048738038061048783398101604081905261003d9161008a565b600380546001600160a01b039384166001600160a01b031991821617909155600580549290931691161790556100bd565b80516001600160a01b038116811461008557600080fd5b919050565b6000806040838503121561009d57600080fd5b6100a68361006e565b91506100b46020840161006e565b90509250929050565b6103bb806100cc6000396000f3fe608060405234801561001057600080fd5b50600436106100cf5760003560e01c8063c6aee6181161008c578063de5f654c11610066578063de5f654c1461018f578063e108262f14610198578063e44eb396146101ab578063fa867f01146101be57600080fd5b8063c6aee6181461015e578063cc3ed29614610173578063d666fe081461018657600080fd5b806307021bdd146100d45780632b8a0012146100f05780633e413bee14610110578063674ce1b51461013b5780636dc7b0a11461014e578063c120105414610156575b600080fd5b6100dd60025481565b6040519081526020015b60405180910390f35b6100dd6100fe3660046102e1565b60066020526000908152604090205481565b600554610123906001600160a01b031681565b6040516001600160a01b0390911681526020016100e7565b600354610123906001600160a01b031681565b6100dd6101d1565b6002546100dd565b61017161016c366004610311565b61024b565b005b600454610123906001600160a01b031681565b6100dd60005481565b6100dd60015481565b6101716101a6366004610311565b6102a7565b6101716101b9366004610311565b600055565b6101716101cc366004610311565b600255565b6005546003546040516370a0823160e01b81526001600160a01b03918216600482015260009291909116906370a0823190602401602060405180830381865afa158015610222573d6000803e3d6000fd5b505050506040513d601f19601f82011682018060405250810190610246919061032a565b905090565b600480546001600160a01b0319163390811790915560009081526006602052604090205461027a908290610359565b61028690612710610359565b3360009081526006602052604081208290555410156102a457600080fd5b50565b336000908152600660205260409020546102c2908290610372565b6102ce90612710610359565b3360009081526006602052604090205550565b6000602082840312156102f357600080fd5b81356001600160a01b038116811461030a57600080fd5b9392505050565b60006020828403121561032357600080fd5b5035919050565b60006020828403121561033c57600080fd5b5051919050565b634e487b7160e01b600052601160045260246000fd5b8082018082111561036c5761036c610343565b92915050565b8181038181111561036c5761036c61034356fea26469706673582212204bab09fab159d4f00caa95e3d76c9f990040b27f5d8f6fa9093d39301309d0c264736f6c63430008110033",
    "linkReferences": {}
  },
  "methodIdentifiers": {
    "USDBalance()": "07021bdd",
    "borrowFromVault(uint256)": "c6aee618",
    "coreVault()": "674ce1b5",
    "fundLimit()": "d666fe08",
    "fundsUsed(address)": "2b8a0012",
    "getAUM()": "6dc7b0a1",
    "getUSDBalance()": "c1201054",
    "repayToVault(uint256)": "e108262f",
    "setFundLimit(uint256)": "e44eb396",
    "setUSDBalance(uint256)": "fa867f01",
    "temAddress()": "cc3ed296",
    "totalAUM()": "de5f654c",
    "usdc()": "3e413bee"
  },
  "id": 13
}