{
  "abi": [
    {
      "inputs": [
        {
          "internalType": "address",
          "name": "_f",
          "type": "address"
        }
      ],
      "stateMutability": "nonpayable",
      "type": "constructor"
    },
    {
      "anonymous": false,
      "inputs": [
        {
          "indexed": false,
          "internalType": "uint8",
          "name": "version",
          "type": "uint8"
        }
      ],
      "name": "Initialized",
      "type": "event"
    },
    {
      "anonymous": false,
      "inputs": [
        {
          "indexed": true,
          "internalType": "address",
          "name": "previousOwner",
          "type": "address"
        },
        {
          "indexed": true,
          "internalType": "address",
          "name": "newOwner",
          "type": "address"
        }
      ],
      "name": "OwnershipTransferred",
      "type": "event"
    },
    {
      "anonymous": false,
      "inputs": [
        {
          "indexed": true,
          "internalType": "bytes32",
          "name": "role",
          "type": "bytes32"
        },
        {
          "indexed": true,
          "internalType": "bytes32",
          "name": "previousAdminRole",
          "type": "bytes32"
        },
        {
          "indexed": true,
          "internalType": "bytes32",
          "name": "newAdminRole",
          "type": "bytes32"
        }
      ],
      "name": "RoleAdminChanged",
      "type": "event"
    },
    {
      "anonymous": false,
      "inputs": [
        {
          "indexed": true,
          "internalType": "bytes32",
          "name": "role",
          "type": "bytes32"
        },
        {
          "indexed": true,
          "internalType": "address",
          "name": "account",
          "type": "address"
        },
        {
          "indexed": true,
          "internalType": "address",
          "name": "sender",
          "type": "address"
        }
      ],
      "name": "RoleGranted",
      "type": "event"
    },
    {
      "anonymous": false,
      "inputs": [
        {
          "indexed": true,
          "internalType": "bytes32",
          "name": "role",
          "type": "bytes32"
        },
        {
          "indexed": true,
          "internalType": "address",
          "name": "account",
          "type": "address"
        },
        {
          "indexed": true,
          "internalType": "address",
          "name": "sender",
          "type": "address"
        }
      ],
      "name": "RoleRevoked",
      "type": "event"
    },
    {
      "inputs": [],
      "name": "DEFAULT_ADMIN_ROLE",
      "outputs": [
        {
          "internalType": "bytes32",
          "name": "",
          "type": "bytes32"
        }
      ],
      "stateMutability": "view",
      "type": "function"
    },
    {
      "inputs": [
        {
          "internalType": "address",
          "name": "market",
          "type": "address"
        },
        {
          "internalType": "address",
          "name": "account",
          "type": "address"
        },
        {
          "internalType": "bool",
          "name": "isLong",
          "type": "bool"
        }
      ],
      "name": "availableLiquidity",
      "outputs": [
        {
          "internalType": "uint256",
          "name": "",
          "type": "uint256"
        }
      ],
      "stateMutability": "view",
      "type": "function"
    },
    {
      "inputs": [],
      "name": "fac",
      "outputs": [
        {
          "internalType": "contract IMarketFactory",
          "name": "",
          "type": "address"
        }
      ],
      "stateMutability": "view",
      "type": "function"
    },
    {
      "inputs": [
        {
          "internalType": "address",
          "name": "account",
          "type": "address"
        },
        {
          "internalType": "address",
          "name": "market",
          "type": "address"
        },
        {
          "internalType": "bool",
          "name": "isLong",
          "type": "bool"
        }
      ],
      "name": "getFundingFee",
      "outputs": [
        {
          "internalType": "int256",
          "name": "",
          "type": "int256"
        }
      ],
      "stateMutability": "view",
      "type": "function"
    },
    {
      "inputs": [
        {
          "internalType": "address",
          "name": "_market",
          "type": "address"
        },
        {
          "internalType": "bool",
          "name": "_isLong",
          "type": "bool"
        }
      ],
      "name": "getFundingRate",
      "outputs": [
        {
          "internalType": "int256",
          "name": "",
          "type": "int256"
        },
        {
          "internalType": "int256",
          "name": "",
          "type": "int256"
        }
      ],
      "stateMutability": "view",
      "type": "function"
    },
    {
      "inputs": [
        {
          "internalType": "address",
          "name": "_marketAddr",
          "type": "address"
        }
      ],
      "name": "getMarket",
      "outputs": [
        {
          "components": [
            {
              "internalType": "uint256",
              "name": "minSlippage",
              "type": "uint256"
            },
            {
              "internalType": "uint256",
              "name": "maxSlippage",
              "type": "uint256"
            },
            {
              "internalType": "uint256",
              "name": "slippageDigits",
              "type": "uint256"
            },
            {
              "internalType": "uint256",
              "name": "minLev",
              "type": "uint256"
            },
            {
              "internalType": "uint256",
              "name": "maxLev",
              "type": "uint256"
            },
            {
              "internalType": "uint256",
              "name": "minCollateral",
              "type": "uint256"
            },
            {
              "internalType": "uint256",
              "name": "maxTradeAmount",
              "type": "uint256"
            },
            {
              "internalType": "bool",
              "name": "allowOpen",
              "type": "bool"
            },
            {
              "internalType": "bool",
              "name": "allowClose",
              "type": "bool"
            }
          ],
          "internalType": "struct IMarketReader.ValidOuts",
          "name": "validOuts",
          "type": "tuple"
        },
        {
          "components": [
            {
              "internalType": "uint256",
              "name": "tokenDigits",
              "type": "uint256"
            },
            {
              "internalType": "uint256",
              "name": "closeFeeRate",
              "type": "uint256"
            },
            {
              "internalType": "uint256",
              "name": "openFeeRate",
              "type": "uint256"
            },
            {
              "internalType": "uint256",
              "name": "liquidationFeeUsd",
              "type": "uint256"
            },
            {
              "internalType": "uint256",
              "name": "spread",
              "type": "uint256"
            },
            {
              "internalType": "address",
              "name": "indexToken",
              "type": "address"
            },
            {
              "internalType": "address",
              "name": "collateralToken",
              "type": "address"
            },
            {
              "internalType": "address",
              "name": "orderBookLong",
              "type": "address"
            },
            {
              "internalType": "address",
              "name": "orderBookShort",
              "type": "address"
            },
            {
              "internalType": "address",
              "name": "positionBook",
              "type": "address"
            }
          ],
          "internalType": "struct IMarketReader.MarketOuts",
          "name": "mktOuts",
          "type": "tuple"
        },
        {
          "components": [
            {
              "internalType": "uint256",
              "name": "closeFeeRate",
              "type": "uint256"
            },
            {
              "internalType": "uint256",
              "name": "openFeeRate",
              "type": "uint256"
            },
            {
              "internalType": "uint256",
              "name": "execFee",
              "type": "uint256"
            },
            {
              "internalType": "uint256",
              "name": "liquidateFee",
              "type": "uint256"
            },
            {
              "internalType": "uint256",
              "name": "digits",
              "type": "uint256"
            }
          ],
          "internalType": "struct IMarketReader.FeeOuts",
          "name": "feeOuts",
          "type": "tuple"
        }
      ],
      "stateMutability": "view",
      "type": "function"
    },
    {
      "inputs": [],
      "name": "getMarkets",
      "outputs": [
        {
          "components": [
            {
              "internalType": "string",
              "name": "name",
              "type": "string"
            },
            {
              "internalType": "address",
              "name": "addr",
              "type": "address"
            },
            {
              "internalType": "uint256",
              "name": "minPay",
              "type": "uint256"
            },
            {
              "internalType": "bool",
              "name": "allowOpen",
              "type": "bool"
            },
            {
              "internalType": "bool",
              "name": "allowClose",
              "type": "bool"
            }
          ],
          "internalType": "struct IMarketFactory.Outs[]",
          "name": "_outs",
          "type": "tuple[]"
        }
      ],
      "stateMutability": "view",
      "type": "function"
    },
    {
      "inputs": [
        {
          "internalType": "address",
          "name": "account",
          "type": "address"
        },
        {
          "internalType": "address",
          "name": "market",
          "type": "address"
        }
      ],
      "name": "getPositions",
      "outputs": [
        {
          "components": [
            {
              "internalType": "address",
              "name": "market",
              "type": "address"
            },
            {
              "internalType": "bool",
              "name": "isLong",
              "type": "bool"
            },
            {
              "internalType": "uint32",
              "name": "lastTime",
              "type": "uint32"
            },
            {
              "internalType": "uint216",
              "name": "extra3",
              "type": "uint216"
            },
            {
              "internalType": "uint256",
              "name": "size",
              "type": "uint256"
            },
            {
              "internalType": "uint256",
              "name": "collateral",
              "type": "uint256"
            },
            {
              "internalType": "uint256",
              "name": "averagePrice",
              "type": "uint256"
            },
            {
              "internalType": "int256",
              "name": "entryFundingRate",
              "type": "int256"
            },
            {
              "internalType": "int256",
              "name": "realisedPnl",
              "type": "int256"
            },
            {
              "internalType": "uint256",
              "name": "extra0",
              "type": "uint256"
            },
            {
              "internalType": "uint256",
              "name": "extra1",
              "type": "uint256"
            },
            {
              "internalType": "uint256",
              "name": "extra2",
              "type": "uint256"
            }
          ],
          "internalType": "struct Position.Props[]",
          "name": "_positions",
          "type": "tuple[]"
        }
      ],
      "stateMutability": "view",
      "type": "function"
    },
    {
      "inputs": [
        {
          "internalType": "bytes32",
          "name": "role",
          "type": "bytes32"
        }
      ],
      "name": "getRoleAdmin",
      "outputs": [
        {
          "internalType": "bytes32",
          "name": "",
          "type": "bytes32"
        }
      ],
      "stateMutability": "view",
      "type": "function"
    },
    {
      "inputs": [
        {
          "internalType": "address",
          "name": "_account",
          "type": "address"
        }
      ],
      "name": "grantControllerRoleByMarketManager",
      "outputs": [],
      "stateMutability": "nonpayable",
      "type": "function"
    },
    {
      "inputs": [
        {
          "internalType": "bytes32",
          "name": "role",
          "type": "bytes32"
        },
        {
          "internalType": "address",
          "name": "account",
          "type": "address"
        }
      ],
      "name": "grantRole",
      "outputs": [],
      "stateMutability": "nonpayable",
      "type": "function"
    },
    {
      "inputs": [
        {
          "internalType": "bytes32",
          "name": "role",
          "type": "bytes32"
        },
        {
          "internalType": "address",
          "name": "account",
          "type": "address"
        }
      ],
      "name": "hasRole",
      "outputs": [
        {
          "internalType": "bool",
          "name": "",
          "type": "bool"
        }
      ],
      "stateMutability": "view",
      "type": "function"
    },
    {
      "inputs": [
        {
          "internalType": "address",
          "name": "_marketRouter",
          "type": "address"
        },
        {
          "internalType": "address",
          "name": "_vaultRouter",
          "type": "address"
        }
      ],
      "name": "initialize",
      "outputs": [],
      "stateMutability": "nonpayable",
      "type": "function"
    },
    {
      "inputs": [
        {
          "internalType": "address",
          "name": "market",
          "type": "address"
        },
        {
          "internalType": "address",
          "name": "_account",
          "type": "address"
        },
        {
          "internalType": "bool",
          "name": "_isLong",
          "type": "bool"
        }
      ],
      "name": "isLiquidate",
      "outputs": [
        {
          "internalType": "uint256",
          "name": "_state",
          "type": "uint256"
        }
      ],
      "stateMutability": "view",
      "type": "function"
    },
    {
      "inputs": [],
      "name": "marketRouter",
      "outputs": [
        {
          "internalType": "contract IMarketRouter",
          "name": "",
          "type": "address"
        }
      ],
      "stateMutability": "view",
      "type": "function"
    },
    {
      "inputs": [],
      "name": "owner",
      "outputs": [
        {
          "internalType": "address",
          "name": "",
          "type": "address"
        }
      ],
      "stateMutability": "view",
      "type": "function"
    },
    {
      "inputs": [],
      "name": "renounceOwnership",
      "outputs": [],
      "stateMutability": "nonpayable",
      "type": "function"
    },
    {
      "inputs": [
        {
          "internalType": "bytes32",
          "name": "",
          "type": "bytes32"
        },
        {
          "internalType": "address",
          "name": "",
          "type": "address"
        }
      ],
      "name": "renounceRole",
      "outputs": [],
      "stateMutability": "nonpayable",
      "type": "function"
    },
    {
      "inputs": [
        {
          "internalType": "bytes32",
          "name": "role",
          "type": "bytes32"
        },
        {
          "internalType": "address",
          "name": "account",
          "type": "address"
        }
      ],
      "name": "revokeRole",
      "outputs": [],
      "stateMutability": "nonpayable",
      "type": "function"
    },
    {
      "inputs": [
        {
          "internalType": "bytes4",
          "name": "interfaceId",
          "type": "bytes4"
        }
      ],
      "name": "supportsInterface",
      "outputs": [
        {
          "internalType": "bool",
          "name": "",
          "type": "bool"
        }
      ],
      "stateMutability": "view",
      "type": "function"
    },
    {
      "inputs": [
        {
          "internalType": "address",
          "name": "to",
          "type": "address"
        }
      ],
      "name": "transferAdmin",
      "outputs": [],
      "stateMutability": "nonpayable",
      "type": "function"
    },
    {
      "inputs": [
        {
          "internalType": "address",
          "name": "newOwner",
          "type": "address"
        }
      ],
      "name": "transferOwnership",
      "outputs": [],
      "stateMutability": "nonpayable",
      "type": "function"
    },
    {
      "inputs": [],
      "name": "vaultRouter",
      "outputs": [
        {
          "internalType": "contract IVaultRouter",
          "name": "",
          "type": "address"
        }
      ],
      "stateMutability": "view",
      "type": "function"
    }
  ],
  "bytecode": {
    "object": "0x60806040523480156200001157600080fd5b50604051620034cb380380620034cb8339810160408190526200003491620001ab565b8062000040336200007d565b6200005681620000cf60201b62001fd91760201c565b50600580546001600160a01b0319166001600160a01b0392909216919091179055620001dd565b600180546001600160a01b038381166001600160a01b0319831681179093556040519116919082907f8be0079c531659141344cd1fd0a4f28419497f9722a3daafe3b4186f6b6457e090600090a35050565b42600255620000de336200007d565b620000eb600033620000fb565b620000f8600082620000fb565b50565b6200010782826200010b565b5050565b6000828152602081815260408083206001600160a01b038516845290915290205460ff1662000107576000828152602081815260408083206001600160a01b03851684529091529020805460ff19166001179055620001673390565b6001600160a01b0316816001600160a01b0316837f2f8788117e7eff1d82e926ec794901d17c78024a50270940304540a733656f0d60405160405180910390a45050565b600060208284031215620001be57600080fd5b81516001600160a01b0381168114620001d657600080fd5b9392505050565b6132de80620001ed6000396000f3fe608060405234801561001057600080fd5b506004361061014d5760003560e01c80637fe4a698116100c3578063d12dbde41161007c578063d12dbde4146102e3578063d37c441c146102f6578063d4dfadbf14610309578063d547741f1461032b578063ec2c90161461033e578063f2fde38b1461035357600080fd5b80637fe4a6981461026a578063889be2851461027d5780638da5cb5b1461029057806391d14854146102b5578063a217fddf146102c8578063c3b31472146102d057600080fd5b806336568abe1161011557806336568abe146101fb578063485cc95514610209578063715018a61461021c578063735a288514610224578063739118a41461023757806375829def1461025757600080fd5b806301ffc9a71461015257806320981df41461017a57806323961001146101a2578063248a9ca3146101c35780632f2ff15d146101e6575b600080fd5b6101656101603660046124cd565b610366565b60405190151581526020015b60405180910390f35b61018d61018836600461251a565b61039d565b60408051928352602083019190915201610171565b6101b56101b0366004612553565b610502565b604051908152602001610171565b6101b56101d136600461259e565b60009081526020819052604090206001015490565b6101f96101f43660046125b7565b610821565b005b6101f961014d3660046125b7565b6101f96102173660046125dc565b61084b565b6101f96109cf565b6101b5610232366004612553565b6109e3565b61024a6102453660046125dc565b610f34565b60405161017191906126b3565b6101f9610265366004612702565b611279565b6101f9610278366004612702565b6112ed565b6101b561028b366004612553565b611317565b6001546001600160a01b03165b6040516001600160a01b039091168152602001610171565b6101656102c33660046125b7565b611590565b6101b5600081565b60055461029d906001600160a01b031681565b60035461029d906001600160a01b031681565b60045461029d906001600160a01b031681565b61031c610317366004612702565b6115b9565b604051610171939291906127c2565b6101f96103393660046125b7565b611ec4565b610346611ee9565b60405161017191906128bf565b6101f9610361366004612702565b611f60565b60006001600160e01b03198216637965db0b60e01b148061039757506301ffc9a760e01b6001600160e01b03198316145b92915050565b6000806000846001600160a01b031663f29ebf616040518163ffffffff1660e01b8152600401602060405180830381865afa1580156103e0573d6000803e3d6000fd5b505050506040513d601f19601f820116820180604052508101906104049190612961565b604051630826077d60e21b81526001600160a01b03878116600483015286151560248301529192506000918316906320981df490604401602060405180830381865afa158015610458573d6000803e3d6000fd5b505050506040513d601f19601f8201168201806040525081019061047c919061297e565b6040516334f32e2560e01b81526001600160a01b03888116600483015287151560248301529192506000918416906334f32e2590604401602060405180830381865afa1580156104d0573d6000803e3d6000fd5b505050506040513d601f19601f820116820180604052508101906104f4919061297e565b919791965090945050505050565b6000808490506000816001600160a01b031663b894300d6040518163ffffffff1660e01b8152600401602060405180830381865afa158015610548573d6000803e3d6000fd5b505050506040513d601f19601f8201168201806040525081019061056c9190612961565b9050806001600160a01b0316631f21756a868887866001600160a01b031663ac0b05a66040518163ffffffff1660e01b8152600401602060405180830381865afa1580156105be573d6000803e3d6000fd5b505050506040513d601f19601f820116820180604052508101906105e29190612961565b876001600160a01b031663f29ebf616040518163ffffffff1660e01b8152600401602060405180830381865afa158015610620573d6000803e3d6000fd5b505050506040513d601f19601f820116820180604052508101906106449190612961565b886001600160a01b031663741bef1a6040518163ffffffff1660e01b8152600401602060405180830381865afa158015610682573d6000803e3d6000fd5b505050506040513d601f19601f820116820180604052508101906106a69190612961565b6001600160a01b03166376d697608a6001600160a01b031663e7d015f26040518163ffffffff1660e01b8152600401602060405180830381865afa1580156106f2573d6000803e3d6000fd5b505050506040513d601f19601f820116820180604052508101906107169190612961565b6040516001600160e01b031960e084901b1681526001600160a01b0390911660048201528d156024820152604401602060405180830381865afa158015610761573d6000803e3d6000fd5b505050506040513d601f19601f82011682018060405250810190610785919061297e565b60405160e088901b6001600160e01b03191681526001600160a01b039687166004820152948616602486015292151560448501529084166064840152909216608482015260a481019190915260c401602060405180830381865afa1580156107f1573d6000803e3d6000fd5b505050506040513d601f19601f82011682018060405250810190610815919061297e565b925050505b9392505050565b60008281526020819052604090206001015461083c81611ffc565b6108468383612006565b505050565b61085361208a565b600154600160a81b900460ff1615808015610879575060018054600160a01b900460ff16105b806108995750303b158015610899575060018054600160a01b900460ff16145b6109015760405162461bcd60e51b815260206004820152602e60248201527f496e697469616c697a61626c653a20636f6e747261637420697320616c72656160448201526d191e481a5b9a5d1a585b1a5e995960921b60648201526084015b60405180910390fd5b6001805460ff60a01b1916600160a01b179055801561092e576001805460ff60a81b1916600160a81b1790555b6001600160a01b03831661094157600080fd5b6001600160a01b03821661095457600080fd5b600380546001600160a01b038086166001600160a01b03199283161790925560048054928516929091169190911790558015610846576001805460ff60a81b191681556040519081527f7f26b83ff96e1f2b6a682f133852f6798a09c465da95921460cefb38474024989060200160405180910390a1505050565b6109d761208a565b6109e160006120e4565b565b600080846001600160a01b031663d37c441c6040518163ffffffff1660e01b8152600401602060405180830381865afa158015610a24573d6000803e3d6000fd5b505050506040513d601f19601f82011682018060405250810190610a489190612961565b90506000816001600160a01b0316636dc7b0a16040518163ffffffff1660e01b8152600401602060405180830381865afa158015610a8a573d6000803e3d6000fd5b505050506040513d601f19601f82011682018060405250810190610aae919061297e565b905060008111610ac35760009250505061081a565b6000866001600160a01b031663ac0b05a66040518163ffffffff1660e01b8152600401602060405180830381865afa158015610b03573d6000803e3d6000fd5b505050506040513d601f19601f82011682018060405250810190610b279190612961565b90506000876001600160a01b031663c54dc3d66040518163ffffffff1660e01b8152600401602060405180830381865afa158015610b69573d6000803e3d6000fd5b505050506040513d601f19601f82011682018060405250810190610b8d9190612961565b9050610bf060405180610140016040528060006001600160a01b0316815260200160008152602001600015158152602001600081526020016000815260200160008152602001600081526020016000815260200160008152602001600081525090565b6001600160a01b03808a1682528715156040808401919091526000602084015280516343a4b4a560e11b8152815192861692638749694a926004808401939192918290030181865afa158015610c4a573d6000803e3d6000fd5b505050506040513d601f19601f82011682018060405250810190610c6e91906129a7565b61010083015260e082015260035460405162b29b4b60e61b81526001600160a01b038a8116600483015290911690632ca6d2c0906024016040805180830381865afa158015610cc1573d6000803e3d6000fd5b505050506040513d601f19601f82011682018060405250810190610ce591906129a7565b60c083015260a082015260035460408051630799f55f60e01b815281516001600160a01b0390931692630799f55f926004808401939192918290030181865afa158015610d36573d6000803e3d6000fd5b505050506040513d601f19601f82011682018060405250810190610d5a91906129a7565b8260600183608001828152508281525050506000896001600160a01b031663b2016bd46040518163ffffffff1660e01b8152600401602060405180830381865afa158015610dac573d6000803e3d6000fd5b505050506040513d601f19601f82011682018060405250810190610dd09190612961565b9050610eb3600460009054906101000a90046001600160a01b03166001600160a01b0316636dc7b0a16040518163ffffffff1660e01b8152600401602060405180830381865afa158015610e28573d6000803e3d6000fd5b505050506040513d601f19601f82011682018060405250810190610e4c919061297e565b826001600160a01b031663313ce5676040518163ffffffff1660e01b8152600401602060405180830381865afa158015610e8a573d6000803e3d6000fd5b505050506040513d601f19601f82011682018060405250810190610eae91906129cb565b612136565b610120830152604051638050e32f60e01b81526001600160a01b03841690638050e32f90610ee59085906004016129ee565b602060405180830381865afa158015610f02573d6000803e3d6000fd5b505050506040513d601f19601f82011682018060405250810190610f26919061297e565b9a9950505050505050505050565b60606001600160a01b03821661120b5760055460408051637616480b60e11b815290516000926001600160a01b03169163ec2c901691600480830192869291908290030181865afa158015610f8d573d6000803e3d6000fd5b505050506040513d6000823e601f3d908101601f19168201604052610fb59190810190612b31565b905060008080805b845181101561107f57848181518110610fd857610fd8612cab565b6020908102919091018101510151604051631f75a98760e11b81526001600160a01b038a81166004830152919550600091861690633eeb530e90602401600060405180830381865afa158015611032573d6000803e3d6000fd5b505050506040513d6000823e601f3d908101601f1916820160405261105a9190810190612da5565b90508051836110699190612e56565b925050808061107790612e69565b915050610fbd565b50806000036110915750505050610397565b8067ffffffffffffffff8111156110aa576110aa612a6e565b6040519080825280602002602001820160405280156110e357816020015b6110d0612452565b8152602001906001900390816110c85790505b50945060005b84518110156112015784818151811061110457611104612cab565b6020908102919091018101510151604051631f75a98760e11b81526001600160a01b038a81166004830152919550600091861690633eeb530e90602401600060405180830381865afa15801561115e573d6000803e3d6000fd5b505050506040513d6000823e601f3d908101601f191682016040526111869190810190612da5565b905060005b81518110156111ec578181815181106111a6576111a6612cab565b60200260200101518886815181106111c0576111c0612cab565b602002602001018190525084806111d690612e69565b95505080806111e490612e69565b91505061118b565b505080806111f990612e69565b9150506110e9565b5050505050610397565b604051631f75a98760e11b81526001600160a01b038481166004830152831690633eeb530e90602401600060405180830381865afa158015611251573d6000803e3d6000fd5b505050506040513d6000823e601f3d908101601f1916820160405261081a9190810190612da5565b600061128481611ffc565b6001600160a01b0382166112ca5760405162461bcd60e51b815260206004820152600d60248201526c217a65726f206164647265737360981b60448201526064016108f8565b6112d5600083612163565b6112de826120e4565b6112e960003361216d565b5050565b7f8d1089725c0dc266707fa6207730fb801dcd03108bfed7a21099bd303651d2b761014d81611ffc565b600080836001600160a01b031663ac0b05a66040518163ffffffff1660e01b8152600401602060405180830381865afa158015611358573d6000803e3d6000fd5b505050506040513d601f19601f8201168201806040525081019061137c9190612961565b9050611386612452565b60405163bc95baad60e01b81526001600160a01b03878116600483015260006024830152851515604483015283169063bc95baad9060640161018060405180830381865afa1580156113dc573d6000803e3d6000fd5b505050506040513d601f19601f820116820180604052508101906114009190612e82565b90506000856001600160a01b031663f29ebf616040518163ffffffff1660e01b8152600401602060405180830381865afa158015611442573d6000803e3d6000fd5b505050506040513d601f19601f820116820180604052508101906114669190612961565b604080516101e081018252600080825281830181905260608083018290526080830182905260a080840183905260c0840183905260e08401839052610100840183905261012084018390526101408401839052610160840183905261018084018381526101a085018490526101c08501929092528a1515602085015287015190526001600160a01b038a811683529251634151026360e01b8152939450909290918416906341510263906115209085908890600401612eda565b600060405180830381865afa15801561153d573d6000803e3d6000fd5b505050506040513d6000823e601f3d908101601f191682016040526115659190810190612fe2565b90508060028151811061157a5761157a612cab565b6020026020010151955050505050509392505050565b6000918252602082815260408084206001600160a01b0393909316845291905290205460ff1690565b61160c604051806101200160405280600081526020016000815260200160008152602001600081526020016000815260200160008152602001600081526020016000151581526020016000151581525090565b6040805161014081018252600080825260208201819052918101829052606081018290526080810182905260a0810182905260c0810182905260e08101829052610100810182905261012081019190915261168f6040518060a0016040528060008152602001600081526020016000815260200160008152602001600081525090565b60008490506000816001600160a01b031663f29ebf616040518163ffffffff1660e01b8152600401602060405180830381865afa1580156116d4573d6000803e3d6000fd5b505050506040513d601f19601f820116820180604052508101906116f89190612961565b90506000826001600160a01b031663b894300d6040518163ffffffff1660e01b8152600401602060405180830381865afa15801561173a573d6000803e3d6000fd5b505050506040513d601f19601f8201168201806040525081019061175e9190612961565b90506000816001600160a01b031663177927296040518163ffffffff1660e01b8152600401602060405180830381865afa1580156117a0573d6000803e3d6000fd5b505050506040513d601f19601f820116820180604052508101906117c49190613073565b90506040518061012001604052806117de8351610fff1690565b81528251602090910190600c1c610fff1681526020016117ff6127106121d2565b8152825160181c610fff9081166020830152835160241c166040820152606001611828836121f7565b815260200161183683612215565b815260200161184b8351600f606c1b16151590565b151581526020016118628351600f60681b16151590565b15158152509650604051806101400160405280856001600160a01b031663e84254676040518163ffffffff1660e01b8152600401602060405180830381865afa1580156118b3573d6000803e3d6000fd5b505050506040513d601f19601f820116820180604052508101906118d791906129cb565b60ff168152602001846001600160a01b031663d87780688b60016040518363ffffffff1660e01b815260040161190e9291906130b5565b602060405180830381865afa15801561192b573d6000803e3d6000fd5b505050506040513d601f19601f8201168201806040525081019061194f919061297e565b8152602001846001600160a01b031663d87780688b60006040518363ffffffff1660e01b81526004016119839291906130b5565b602060405180830381865afa1580156119a0573d6000803e3d6000fd5b505050506040513d601f19601f820116820180604052508101906119c4919061297e565b8152602001846001600160a01b031663d87780688b60046040518363ffffffff1660e01b81526004016119f89291906130b5565b602060405180830381865afa158015611a15573d6000803e3d6000fd5b505050506040513d601f19601f82011682018060405250810190611a39919061297e565b815260200160008152602001856001600160a01b031663e7d015f26040518163ffffffff1660e01b8152600401602060405180830381865afa158015611a83573d6000803e3d6000fd5b505050506040513d601f19601f82011682018060405250810190611aa79190612961565b6001600160a01b03168152602001856001600160a01b031663b2016bd46040518163ffffffff1660e01b8152600401602060405180830381865afa158015611af3573d6000803e3d6000fd5b505050506040513d601f19601f82011682018060405250810190611b179190612961565b6001600160a01b03168152602001856001600160a01b0316637b2fd1e56040518163ffffffff1660e01b8152600401602060405180830381865afa158015611b63573d6000803e3d6000fd5b505050506040513d601f19601f82011682018060405250810190611b879190612961565b6001600160a01b03168152602001856001600160a01b03166305ba9ae96040518163ffffffff1660e01b8152600401602060405180830381865afa158015611bd3573d6000803e3d6000fd5b505050506040513d601f19601f82011682018060405250810190611bf79190612961565b6001600160a01b03168152602001856001600160a01b031663ac0b05a66040518163ffffffff1660e01b8152600401602060405180830381865afa158015611c43573d6000803e3d6000fd5b505050506040513d601f19601f82011682018060405250810190611c679190612961565b6001600160a01b039081169091526040805160a0810191829052631b0ef00d60e31b9091529197508190851663d8778068611ca78c600160a486016130b5565b602060405180830381865afa158015611cc4573d6000803e3d6000fd5b505050506040513d601f19601f82011682018060405250810190611ce8919061297e565b8152602001846001600160a01b031663d87780688b60006040518363ffffffff1660e01b8152600401611d1c9291906130b5565b602060405180830381865afa158015611d39573d6000803e3d6000fd5b505050506040513d601f19601f82011682018060405250810190611d5d919061297e565b8152602001846001600160a01b031663d87780688b60036040518363ffffffff1660e01b8152600401611d919291906130b5565b602060405180830381865afa158015611dae573d6000803e3d6000fd5b505050506040513d601f19601f82011682018060405250810190611dd2919061297e565b8152602001846001600160a01b031663d87780688b60046040518363ffffffff1660e01b8152600401611e069291906130b5565b602060405180830381865afa158015611e23573d6000803e3d6000fd5b505050506040513d601f19601f82011682018060405250810190611e47919061297e565b8152602001611eb6856001600160a01b031663f4ca4d1d6040518163ffffffff1660e01b8152600401602060405180830381865afa158015611e8d573d6000803e3d6000fd5b505050506040513d601f19601f82011682018060405250810190611eb1919061297e565b6121d2565b905296989597505050505050565b600082815260208190526040902060010154611edf81611ffc565b610846838361216d565b60055460408051637616480b60e11b815290516060926001600160a01b03169163ec2c90169160048083019260009291908290030181865afa158015611f33573d6000803e3d6000fd5b505050506040513d6000823e601f3d908101601f19168201604052611f5b9190810190612b31565b905090565b611f6861208a565b6001600160a01b038116611fcd5760405162461bcd60e51b815260206004820152602660248201527f4f776e61626c653a206e6577206f776e657220697320746865207a65726f206160448201526564647265737360d01b60648201526084016108f8565b611fd6816120e4565b50565b42600255611fe6336120e4565b611ff1600033612163565b611fd6600082612163565b611fd68133612235565b6120108282611590565b6112e9576000828152602081815260408083206001600160a01b03851684529091529020805460ff191660011790556120463390565b6001600160a01b0316816001600160a01b0316837f2f8788117e7eff1d82e926ec794901d17c78024a50270940304540a733656f0d60405160405180910390a45050565b6001546001600160a01b031633146109e15760405162461bcd60e51b815260206004820181905260248201527f4f776e61626c653a2063616c6c6572206973206e6f7420746865206f776e657260448201526064016108f8565b600180546001600160a01b038381166001600160a01b0319831681179093556040519116919082907f8be0079c531659141344cd1fd0a4f28419497f9722a3daafe3b4186f6b6457e090600090a35050565b600061214382600a6131b5565b61214f6012600a6131c4565b61215990856131d0565b61081a91906131e7565b6112e98282612006565b6121778282611590565b156112e9576000828152602081815260408083206001600160a01b0385168085529252808320805460ff1916905551339285917ff6391f5c32d9c69d2a47ea670b442974b53935d1edc7fd64eb21e047a839171b9190a45050565b600060015b6001909101906121e8600a826131d0565b90508281036121d75750919050565b60006122028261228e565b82516103979190603c1c610fff166131d0565b60006122208261228e565b8251610397919060481c63ffffffff166131d0565b61223f8282611590565b6112e95761224c816122a4565b6122578360206122b6565b604051602001612268929190613209565b60408051601f198184030181529082905262461bcd60e51b82526108f89160040161327e565b80516000906103979060701c60ff16600a6131c4565b60606103976001600160a01b03831660145b606060006122c58360026131d0565b6122d0906002612e56565b67ffffffffffffffff8111156122e8576122e8612a6e565b6040519080825280601f01601f191660200182016040528015612312576020820181803683370190505b509050600360fc1b8160008151811061232d5761232d612cab565b60200101906001600160f81b031916908160001a905350600f60fb1b8160018151811061235c5761235c612cab565b60200101906001600160f81b031916908160001a90535060006123808460026131d0565b61238b906001612e56565b90505b6001811115612403576f181899199a1a9b1b9c1cb0b131b232b360811b85600f16601081106123bf576123bf612cab565b1a60f81b8282815181106123d5576123d5612cab565b60200101906001600160f81b031916908160001a90535060049490941c936123fc81613291565b905061238e565b50831561081a5760405162461bcd60e51b815260206004820181905260248201527f537472696e67733a20686578206c656e67746820696e73756666696369656e7460448201526064016108f8565b60405180610180016040528060006001600160a01b03168152602001600015158152602001600063ffffffff16815260200160006001600160d81b0316815260200160008152602001600081526020016000815260200160008152602001600081526020016000815260200160008152602001600081525090565b6000602082840312156124df57600080fd5b81356001600160e01b03198116811461081a57600080fd5b6001600160a01b0381168114611fd657600080fd5b8015158114611fd657600080fd5b6000806040838503121561252d57600080fd5b8235612538816124f7565b915060208301356125488161250c565b809150509250929050565b60008060006060848603121561256857600080fd5b8335612573816124f7565b92506020840135612583816124f7565b915060408401356125938161250c565b809150509250925092565b6000602082840312156125b057600080fd5b5035919050565b600080604083850312156125ca57600080fd5b823591506020830135612548816124f7565b600080604083850312156125ef57600080fd5b82356125fa816124f7565b91506020830135612548816124f7565b80516001600160a01b03168252602081015161262a602084018215159052565b506040810151612642604084018263ffffffff169052565b50606081015161265d60608401826001600160d81b03169052565b506080818101519083015260a0808201519083015260c0808201519083015260e0808201519083015261010080820151908301526101208082015190830152610140808201519083015261016090810151910152565b6020808252825182820181905260009190848201906040850190845b818110156126f6576126e283855161260a565b9284019261018092909201916001016126cf565b50909695505050505050565b60006020828403121561271457600080fd5b813561081a816124f7565b805182526020810151602083015260408101516040830152606081015160608301526080810151608083015260a081015161276560a08401826001600160a01b03169052565b5060c081015161278060c08401826001600160a01b03169052565b5060e081015161279b60e08401826001600160a01b03169052565b50610100818101516001600160a01b03908116918401919091526101209182015116910152565b600061030082019050845182526020850151602083015260408501516040830152606085015160608301526080850151608083015260a085015160a083015260c085015160c083015260e0850151151560e0830152610100808601511515818401525061283361012083018561271f565b8251610260830152602083015161028083015260408301516102a083015260608301516102c083015260808301516102e0830152949350505050565b60005b8381101561288a578181015183820152602001612872565b50506000910152565b600081518084526128ab81602086016020860161286f565b601f01601f19169290920160200192915050565b60006020808301818452808551808352604092508286019150828160051b87010184880160005b8381101561295357603f19898403018552815160a0815181865261290c82870182612893565b838b01516001600160a01b0316878c0152898401518a88015260608085015115159088015260809384015115159390960192909252505093860193908601906001016128e6565b509098975050505050505050565b60006020828403121561297357600080fd5b815161081a816124f7565b60006020828403121561299057600080fd5b5051919050565b80516129a2816124f7565b919050565b600080604083850312156129ba57600080fd5b505080516020909101519092909150565b6000602082840312156129dd57600080fd5b815160ff8116811461081a57600080fd5b81516001600160a01b031681526101408101602083015160208301526040830151612a1d604084018215159052565b50606083015160608301526080830151608083015260a083015160a083015260c083015160c083015260e083015160e083015261010080840151818401525061012080840151818401525092915050565b634e487b7160e01b600052604160045260246000fd5b60405160a0810167ffffffffffffffff81118282101715612aa757612aa7612a6e565b60405290565b604051610180810167ffffffffffffffff81118282101715612aa757612aa7612a6e565b604051601f8201601f1916810167ffffffffffffffff81118282101715612afa57612afa612a6e565b604052919050565b600067ffffffffffffffff821115612b1c57612b1c612a6e565b5060051b60200190565b80516129a28161250c565b60006020808385031215612b4457600080fd5b825167ffffffffffffffff80821115612b5c57600080fd5b818501915085601f830112612b7057600080fd5b8151612b83612b7e82612b02565b612ad1565b81815260059190911b83018401908481019088831115612ba257600080fd5b8585015b83811015612c9e57805185811115612bbd57600080fd5b8601601f1960a0828d0382011215612bd55760008081fd5b612bdd612a84565b8983015188811115612bef5760008081fd5b8301603f81018e13612c015760008081fd5b8a81015160408a821115612c1757612c17612a6e565b612c278d86601f85011601612ad1565b94508185528f81838501011115612c3e5760008081fd5b612c4d828e870183860161286f565b848452612c5b818701612997565b8d8501526060945084860151818501525050506080612c7b818501612b26565b83830152612c8b60a08501612b26565b9082015285525050918601918601612ba6565b5098975050505050505050565b634e487b7160e01b600052603260045260246000fd5b805163ffffffff811681146129a257600080fd5b80516001600160d81b03811681146129a257600080fd5b60006101808284031215612cff57600080fd5b612d07612aad565b9050612d1282612997565b8152612d2060208301612b26565b6020820152612d3160408301612cc1565b6040820152612d4260608301612cd5565b60608201526080820151608082015260a082015160a082015260c082015160c082015260e082015160e082015261010080830151818301525061012080830151818301525061014080830151818301525061016080830151818301525092915050565b60006020808385031215612db857600080fd5b825167ffffffffffffffff811115612dcf57600080fd5b8301601f81018513612de057600080fd5b8051612dee612b7e82612b02565b8181526101809182028301840191848201919088841115612e0e57600080fd5b938501935b83851015612e3457612e258986612cec565b83529384019391850191612e13565b50979650505050505050565b634e487b7160e01b600052601160045260246000fd5b8082018082111561039757610397612e40565b600060018201612e7b57612e7b612e40565b5060010190565b60006101808284031215612e9557600080fd5b61081a8383612cec565b600081518084526020808501945080840160005b83811015612ecf57815187529582019590820190600101612eb3565b509495945050505050565b60006101a0808352612ef781840186516001600160a01b03169052565b60208501516101c0612f0c8186018315159052565b60408701516101e0868101919091526060880151151561020087015260808801516001600160a01b031661022087015260a088015161024087015260c088015161026087015260e088015161028087015261010088015115156102a087015261012088015160ff9081166102c088015261014089015167ffffffffffffffff166102e08801526101608901516103008801526101808901516103208801529388015190931661034086015286015161036085019290925250612fd2610380840182612e9f565b91505061081a602083018461260a565b60006020808385031215612ff557600080fd5b825167ffffffffffffffff81111561300c57600080fd5b8301601f8101851361301d57600080fd5b805161302b612b7e82612b02565b81815260059190911b8201830190838101908783111561304a57600080fd5b928401925b828410156130685783518252928401929084019061304f565b979650505050505050565b60006020828403121561308557600080fd5b6040516020810181811067ffffffffffffffff821117156130a8576130a8612a6e565b6040529151825250919050565b6001600160a01b0392909216825260ff16602082015260400190565b600181815b8085111561310c5781600019048211156130f2576130f2612e40565b808516156130ff57918102915b93841c93908002906130d6565b509250929050565b60008261312357506001610397565b8161313057506000610397565b816001811461314657600281146131505761316c565b6001915050610397565b60ff84111561316157613161612e40565b50506001821b610397565b5060208310610133831016604e8410600b841016171561318f575081810a610397565b61319983836130d1565b80600019048211156131ad576131ad612e40565b029392505050565b600061081a60ff841683613114565b600061081a8383613114565b808202811582820484141761039757610397612e40565b60008261320457634e487b7160e01b600052601260045260246000fd5b500490565b7f416363657373436f6e74726f6c3a206163636f756e742000000000000000000081526000835161324181601785016020880161286f565b7001034b99036b4b9b9b4b733903937b6329607d1b601791840191820152835161327281602884016020880161286f565b01602801949350505050565b60208152600061081a6020830184612893565b6000816132a0576132a0612e40565b50600019019056fea26469706673582212207e3c25f49a36ca4f933155c17e0d5de1f663a9f019e55ae66cda81bbbf30fead64736f6c63430008110033",
    "linkReferences": {}
  },
  "methodIdentifiers": {
    "DEFAULT_ADMIN_ROLE()": "a217fddf",
    "availableLiquidity(address,address,bool)": "735a2885",
    "fac()": "c3b31472",
    "getFundingFee(address,address,bool)": "889be285",
    "getFundingRate(address,bool)": "20981df4",
    "getMarket(address)": "d4dfadbf",
    "getMarkets()": "ec2c9016",
    "getPositions(address,address)": "739118a4",
    "getRoleAdmin(bytes32)": "248a9ca3",
    "grantControllerRoleByMarketManager(address)": "7fe4a698",
    "grantRole(bytes32,address)": "2f2ff15d",
    "hasRole(bytes32,address)": "91d14854",
    "initialize(address,address)": "485cc955",
    "isLiquidate(address,address,bool)": "23961001",
    "marketRouter()": "d12dbde4",
    "owner()": "8da5cb5b",
    "renounceOwnership()": "715018a6",
    "renounceRole(bytes32,address)": "36568abe",
    "revokeRole(bytes32,address)": "d547741f",
    "supportsInterface(bytes4)": "01ffc9a7",
    "transferAdmin(address)": "75829def",
    "transferOwnership(address)": "f2fde38b",
    "vaultRouter()": "d37c441c"
  },
  "id": 14
}