{
  "abi": [
    {
      "inputs": [],
      "stateMutability": "nonpayable",
      "type": "constructor"
    },
    {
      "anonymous": false,
      "inputs": [
        {
          "indexed": false,
          "internalType": "uint8",
          "name": "version",
          "type": "uint8"
        }
      ],
      "name": "Initialized",
      "type": "event"
    },
    {
      "anonymous": false,
      "inputs": [
        {
          "indexed": true,
          "internalType": "address",
          "name": "previousOwner",
          "type": "address"
        },
        {
          "indexed": true,
          "internalType": "address",
          "name": "newOwner",
          "type": "address"
        }
      ],
      "name": "OwnershipTransferred",
      "type": "event"
    },
    {
      "anonymous": false,
      "inputs": [
        {
          "indexed": true,
          "internalType": "bytes32",
          "name": "role",
          "type": "bytes32"
        },
        {
          "indexed": true,
          "internalType": "bytes32",
          "name": "previousAdminRole",
          "type": "bytes32"
        },
        {
          "indexed": true,
          "internalType": "bytes32",
          "name": "newAdminRole",
          "type": "bytes32"
        }
      ],
      "name": "RoleAdminChanged",
      "type": "event"
    },
    {
      "anonymous": false,
      "inputs": [
        {
          "indexed": true,
          "internalType": "bytes32",
          "name": "role",
          "type": "bytes32"
        },
        {
          "indexed": true,
          "internalType": "address",
          "name": "account",
          "type": "address"
        },
        {
          "indexed": true,
          "internalType": "address",
          "name": "sender",
          "type": "address"
        }
      ],
      "name": "RoleGranted",
      "type": "event"
    },
    {
      "anonymous": false,
      "inputs": [
        {
          "indexed": true,
          "internalType": "bytes32",
          "name": "role",
          "type": "bytes32"
        },
        {
          "indexed": true,
          "internalType": "address",
          "name": "account",
          "type": "address"
        },
        {
          "indexed": true,
          "internalType": "address",
          "name": "sender",
          "type": "address"
        }
      ],
      "name": "RoleRevoked",
      "type": "event"
    },
    {
      "inputs": [],
      "name": "DEFAULT_ADMIN_ROLE",
      "outputs": [
        {
          "internalType": "bytes32",
          "name": "",
          "type": "bytes32"
        }
      ],
      "stateMutability": "view",
      "type": "function"
    },
    {
      "inputs": [],
      "name": "PRICE_PRECISION",
      "outputs": [
        {
          "internalType": "uint256",
          "name": "",
          "type": "uint256"
        }
      ],
      "stateMutability": "view",
      "type": "function"
    },
    {
      "inputs": [
        {
          "internalType": "address",
          "name": "token",
          "type": "address"
        }
      ],
      "name": "getLatestPrice",
      "outputs": [
        {
          "internalType": "uint256",
          "name": "",
          "type": "uint256"
        }
      ],
      "stateMutability": "view",
      "type": "function"
    },
    {
      "inputs": [
        {
          "internalType": "address",
          "name": "token",
          "type": "address"
        },
        {
          "internalType": "bool",
          "name": "maximise",
          "type": "bool"
        }
      ],
      "name": "getPrice",
      "outputs": [
        {
          "internalType": "uint256",
          "name": "",
          "type": "uint256"
        }
      ],
      "stateMutability": "view",
      "type": "function"
    },
    {
      "inputs": [
        {
          "internalType": "bytes32",
          "name": "role",
          "type": "bytes32"
        }
      ],
      "name": "getRoleAdmin",
      "outputs": [
        {
          "internalType": "bytes32",
          "name": "",
          "type": "bytes32"
        }
      ],
      "stateMutability": "view",
      "type": "function"
    },
    {
      "inputs": [
        {
          "internalType": "address",
          "name": "_account",
          "type": "address"
        }
      ],
      "name": "grantControllerRoleByMarketManager",
      "outputs": [],
      "stateMutability": "nonpayable",
      "type": "function"
    },
    {
      "inputs": [
        {
          "internalType": "bytes32",
          "name": "role",
          "type": "bytes32"
        },
        {
          "internalType": "address",
          "name": "account",
          "type": "address"
        }
      ],
      "name": "grantRole",
      "outputs": [],
      "stateMutability": "nonpayable",
      "type": "function"
    },
    {
      "inputs": [
        {
          "internalType": "bytes32",
          "name": "role",
          "type": "bytes32"
        },
        {
          "internalType": "address",
          "name": "account",
          "type": "address"
        }
      ],
      "name": "hasRole",
      "outputs": [
        {
          "internalType": "bool",
          "name": "",
          "type": "bool"
        }
      ],
      "stateMutability": "view",
      "type": "function"
    },
    {
      "inputs": [],
      "name": "owner",
      "outputs": [
        {
          "internalType": "address",
          "name": "",
          "type": "address"
        }
      ],
      "stateMutability": "view",
      "type": "function"
    },
    {
      "inputs": [
        {
          "internalType": "address",
          "name": "",
          "type": "address"
        }
      ],
      "name": "priceDecimals",
      "outputs": [
        {
          "internalType": "uint256",
          "name": "",
          "type": "uint256"
        }
      ],
      "stateMutability": "view",
      "type": "function"
    },
    {
      "inputs": [
        {
          "internalType": "address",
          "name": "",
          "type": "address"
        }
      ],
      "name": "priceFeeds",
      "outputs": [
        {
          "internalType": "address",
          "name": "",
          "type": "address"
        }
      ],
      "stateMutability": "view",
      "type": "function"
    },
    {
      "inputs": [],
      "name": "renounceOwnership",
      "outputs": [],
      "stateMutability": "nonpayable",
      "type": "function"
    },
    {
      "inputs": [
        {
          "internalType": "bytes32",
          "name": "",
          "type": "bytes32"
        },
        {
          "internalType": "address",
          "name": "",
          "type": "address"
        }
      ],
      "name": "renounceRole",
      "outputs": [],
      "stateMutability": "nonpayable",
      "type": "function"
    },
    {
      "inputs": [
        {
          "internalType": "bytes32",
          "name": "role",
          "type": "bytes32"
        },
        {
          "internalType": "address",
          "name": "account",
          "type": "address"
        }
      ],
      "name": "revokeRole",
      "outputs": [],
      "stateMutability": "nonpayable",
      "type": "function"
    },
    {
      "inputs": [],
      "name": "sampleSpace",
      "outputs": [
        {
          "internalType": "uint256",
          "name": "",
          "type": "uint256"
        }
      ],
      "stateMutability": "view",
      "type": "function"
    },
    {
      "inputs": [
        {
          "internalType": "address",
          "name": "_token",
          "type": "address"
        },
        {
          "internalType": "address",
          "name": "_feed",
          "type": "address"
        },
        {
          "internalType": "uint256",
          "name": "_decimal",
          "type": "uint256"
        }
      ],
      "name": "setPriceFeed",
      "outputs": [],
      "stateMutability": "nonpayable",
      "type": "function"
    },
    {
      "inputs": [
        {
          "internalType": "uint256",
          "name": "_times",
          "type": "uint256"
        }
      ],
      "name": "setSampleSpace",
      "outputs": [],
      "stateMutability": "nonpayable",
      "type": "function"
    },
    {
      "inputs": [
        {
          "internalType": "bytes4",
          "name": "interfaceId",
          "type": "bytes4"
        }
      ],
      "name": "supportsInterface",
      "outputs": [
        {
          "internalType": "bool",
          "name": "",
          "type": "bool"
        }
      ],
      "stateMutability": "view",
      "type": "function"
    },
    {
      "inputs": [
        {
          "internalType": "address",
          "name": "to",
          "type": "address"
        }
      ],
      "name": "transferAdmin",
      "outputs": [],
      "stateMutability": "nonpayable",
      "type": "function"
    },
    {
      "inputs": [
        {
          "internalType": "address",
          "name": "newOwner",
          "type": "address"
        }
      ],
      "name": "transferOwnership",
      "outputs": [],
      "stateMutability": "nonpayable",
      "type": "function"
    }
  ],
  "bytecode": {
    "object": "0x6080604052600380553480156200001557600080fd5b503362000022816200003f565b62000038816200009160201b620007691760201c565b506200016d565b600180546001600160a01b038381166001600160a01b0319831681179093556040519116919082907f8be0079c531659141344cd1fd0a4f28419497f9722a3daafe3b4186f6b6457e090600090a35050565b42600255620000a0336200003f565b620000ad600033620000bd565b620000ba600082620000bd565b50565b620000c98282620000cd565b5050565b6000828152602081815260408083206001600160a01b038516845290915290205460ff16620000c9576000828152602081815260408083206001600160a01b03851684529091529020805460ff19166001179055620001293390565b6001600160a01b0316816001600160a01b0316837f2f8788117e7eff1d82e926ec794901d17c78024a50270940304540a733656f0d60405160405180910390a45050565b61128e806200017d6000396000f3fe608060405234801561001057600080fd5b506004361061012c5760003560e01c80637fe4a698116100ad578063a217fddf11610071578063a217fddf14610292578063cefe0f211461029a578063d547741f146102ba578063eceb9a9c146102cd578063f2fde38b146102e057600080fd5b80637fe4a6981461020a5780638da5cb5b1461021d57806391d148541461024257806395082d25146102555780639dcb511a1461026957600080fd5b80632f2ff15d116100f45780632f2ff15d146101bb57806336568abe146101ce578063715018a6146101dc57806375829def146101e457806376d69760146101f757600080fd5b806301ffc9a714610131578063110106e61461015957806316345f1814610170578063248a9ca3146101835780632ae76ac2146101a6575b600080fd5b61014461013f366004610def565b6102f3565b60405190151581526020015b60405180910390f35b61016260035481565b604051908152602001610150565b61016261017e366004610e35565b61032a565b610162610191366004610e50565b60009081526020819052604090206001015490565b6101b96101b4366004610e50565b61045a565b005b6101b96101c9366004610e69565b6104e4565b6101b961012c366004610e69565b6101b961050e565b6101b96101f2366004610e35565b610522565b610162610205366004610e95565b610596565b6101b9610218366004610e35565b6105a5565b6001546001600160a01b03165b6040516001600160a01b039091168152602001610150565b610144610250366004610e69565b6105cf565b6101626c0c9f2c9cd04674edea4000000081565b61022a610277366004610e35565b6004602052600090815260409020546001600160a01b031681565b610162600081565b6101626102a8366004610e35565b60056020526000908152604090205481565b6101b96102c8366004610e69565b6105f8565b6101b96102db366004610ed1565b61061d565b6101b96102ee366004610e35565b6106f0565b60006001600160e01b03198216637965db0b60e01b148061032457506301ffc9a760e01b6001600160e01b03198316145b92915050565b6001600160a01b03808216600090815260046020526040812054909116806103995760405162461bcd60e51b815260206004820152601d60248201527f5072696365466565643a20696e76616c6964207072696365206665656400000060448201526064015b60405180910390fd5b6000816001600160a01b031663feaf968c6040518163ffffffff1660e01b815260040160a060405180830381865afa1580156103d9573d6000803e3d6000fd5b505050506040513d601f19601f820116820180604052508101906103fd9190610f24565b505050915050600081136104535760405162461bcd60e51b815260206004820152601860248201527f5072696365466565643a20696e76616c696420707269636500000000000000006044820152606401610390565b9392505050565b6104837f241ecf16d79d0f8dbfb92cbc07fe17840425976cf0667f022fe9877caa831b0861078c565b600081116104df5760405162461bcd60e51b8152602060048201526024808201527f5072696365466565643a20696e76616c6964205f707269636553616d706c65536044820152637061636560e01b6064820152608401610390565b600355565b6000828152602081905260409020600101546104ff8161078c565b6105098383610796565b505050565b61051661081a565b6105206000610874565b565b600061052d8161078c565b6001600160a01b0382166105735760405162461bcd60e51b815260206004820152600d60248201526c217a65726f206164647265737360981b6044820152606401610390565b61057e6000836108c6565b61058782610874565b6105926000336108d0565b5050565b60006104538383600354610935565b7f8d1089725c0dc266707fa6207730fb801dcd03108bfed7a21099bd303651d2b761012c8161078c565b6000918252602082815260408084206001600160a01b0393909316845291905290205460ff1690565b6000828152602081905260409020600101546106138161078c565b61050983836108d0565b7f241ecf16d79d0f8dbfb92cbc07fe17840425976cf0667f022fe9877caa831b08600061064a81336105cf565b905080156106a75762015180600254426106649190610f8a565b106106a25760405162461bcd60e51b815260206004820152600e60248201526d1858c81d1a5b59481c185cdcd95960921b6044820152606401610390565b6106b1565b6106b18233610be8565b50506001600160a01b03928316600090815260046020908152604080832080546001600160a01b03191695909616949094179094556005909352912055565b6106f861081a565b6001600160a01b03811661075d5760405162461bcd60e51b815260206004820152602660248201527f4f776e61626c653a206e6577206f776e657220697320746865207a65726f206160448201526564647265737360d01b6064820152608401610390565b61076681610874565b50565b4260025561077633610874565b6107816000336108c6565b6107666000826108c6565b6107668133610be8565b6107a082826105cf565b610592576000828152602081815260408083206001600160a01b03851684529091529020805460ff191660011790556107d63390565b6001600160a01b0316816001600160a01b0316837f2f8788117e7eff1d82e926ec794901d17c78024a50270940304540a733656f0d60405160405180910390a45050565b6001546001600160a01b031633146105205760405162461bcd60e51b815260206004820181905260248201527f4f776e61626c653a2063616c6c6572206973206e6f7420746865206f776e65726044820152606401610390565b600180546001600160a01b038381166001600160a01b0319831681179093556040519116919082907f8be0079c531659141344cd1fd0a4f28419497f9722a3daafe3b4186f6b6457e090600090a35050565b6105928282610796565b6108da82826105cf565b15610592576000828152602081815260408083206001600160a01b0385168085529252808320805460ff1916905551339285917ff6391f5c32d9c69d2a47ea670b442974b53935d1edc7fd64eb21e047a839171b9190a45050565b6001600160a01b038084166000908152600460205260408120549091168061099f5760405162461bcd60e51b815260206004820152601d60248201527f5072696365466565643a20696e76616c696420707269636520666565640000006044820152606401610390565b6000819050600080826001600160a01b031663feaf968c6040518163ffffffff1660e01b815260040160a060405180830381865afa1580156109e5573d6000803e3d6000fd5b505050506040513d601f19601f82011682018060405250810190610a099190610f24565b505050915091506000868380610a1e90610f9d565b9450610a2a9190610fc0565b90505b806001600160501b0316836001600160501b03161115610af757604051639a6fc8f560e01b81526001600160501b03841660048201526000906001600160a01b03861690639a6fc8f59060240160a060405180830381865afa158015610a97573d6000803e3d6000fd5b505050506040513d601f19601f82011682018060405250810190610abb9190610f24565b5050509150508815610ad85782811315610ad3578092505b610ae4565b82811215610ae4578092505b5082610aef81610f9d565b935050610a2d565b506000836001600160a01b031663313ce5676040518163ffffffff1660e01b8152600401602060405180830381865afa158015610b38573d6000803e3d6000fd5b505050506040513d601f19601f82011682018060405250810190610b5c9190610fe7565b9050610b6981600a6110ee565b610b806c0c9f2c9cd04674edea40000000846110fd565b610b8a9190611114565b955060008611610bdc5760405162461bcd60e51b815260206004820181905260248201527f5072696365466565643a20636f756c64206e6f742066657463682070726963656044820152606401610390565b50505050509392505050565b610bf282826105cf565b61059257610bff81610c41565b610c0a836020610c53565b604051602001610c1b92919061115a565b60408051601f198184030181529082905262461bcd60e51b8252610390916004016111cf565b60606103246001600160a01b03831660145b60606000610c628360026110fd565b610c6d906002611202565b67ffffffffffffffff811115610c8557610c85611215565b6040519080825280601f01601f191660200182016040528015610caf576020820181803683370190505b509050600360fc1b81600081518110610cca57610cca61122b565b60200101906001600160f81b031916908160001a905350600f60fb1b81600181518110610cf957610cf961122b565b60200101906001600160f81b031916908160001a9053506000610d1d8460026110fd565b610d28906001611202565b90505b6001811115610da0576f181899199a1a9b1b9c1cb0b131b232b360811b85600f1660108110610d5c57610d5c61122b565b1a60f81b828281518110610d7257610d7261122b565b60200101906001600160f81b031916908160001a90535060049490941c93610d9981611241565b9050610d2b565b5083156104535760405162461bcd60e51b815260206004820181905260248201527f537472696e67733a20686578206c656e67746820696e73756666696369656e746044820152606401610390565b600060208284031215610e0157600080fd5b81356001600160e01b03198116811461045357600080fd5b80356001600160a01b0381168114610e3057600080fd5b919050565b600060208284031215610e4757600080fd5b61045382610e19565b600060208284031215610e6257600080fd5b5035919050565b60008060408385031215610e7c57600080fd5b82359150610e8c60208401610e19565b90509250929050565b60008060408385031215610ea857600080fd5b610eb183610e19565b915060208301358015158114610ec657600080fd5b809150509250929050565b600080600060608486031215610ee657600080fd5b610eef84610e19565b9250610efd60208501610e19565b9150604084013590509250925092565b80516001600160501b0381168114610e3057600080fd5b600080600080600060a08688031215610f3c57600080fd5b610f4586610f0d565b9450602086015193506040860151925060608601519150610f6860808701610f0d565b90509295509295909350565b634e487b7160e01b600052601160045260246000fd5b8181038181111561032457610324610f74565b60006001600160501b03821680610fb657610fb6610f74565b6000190192915050565b6001600160501b03828116828216039080821115610fe057610fe0610f74565b5092915050565b600060208284031215610ff957600080fd5b815160ff8116811461045357600080fd5b600181815b8085111561104557816000190482111561102b5761102b610f74565b8085161561103857918102915b93841c939080029061100f565b509250929050565b60008261105c57506001610324565b8161106957506000610324565b816001811461107f5760028114611089576110a5565b6001915050610324565b60ff84111561109a5761109a610f74565b50506001821b610324565b5060208310610133831016604e8410600b84101617156110c8575081810a610324565b6110d2838361100a565b80600019048211156110e6576110e6610f74565b029392505050565b600061045360ff84168361104d565b808202811582820484141761032457610324610f74565b60008261113157634e487b7160e01b600052601260045260246000fd5b500490565b60005b83811015611151578181015183820152602001611139565b50506000910152565b7f416363657373436f6e74726f6c3a206163636f756e7420000000000000000000815260008351611192816017850160208801611136565b7001034b99036b4b9b9b4b733903937b6329607d1b60179184019182015283516111c3816028840160208801611136565b01602801949350505050565b60208152600082518060208401526111ee816040850160208701611136565b601f01601f19169190910160400192915050565b8082018082111561032457610324610f74565b634e487b7160e01b600052604160045260246000fd5b634e487b7160e01b600052603260045260246000fd5b60008161125057611250610f74565b50600019019056fea26469706673582212201b3112d0b87dfafa850d087f26af3bb1bcc18c09c554a7611b3e78c08ee8353e64736f6c63430008110033",
    "linkReferences": {}
  },
  "methodIdentifiers": {
    "DEFAULT_ADMIN_ROLE()": "a217fddf",
    "PRICE_PRECISION()": "95082d25",
    "getLatestPrice(address)": "16345f18",
    "getPrice(address,bool)": "76d69760",
    "getRoleAdmin(bytes32)": "248a9ca3",
    "grantControllerRoleByMarketManager(address)": "7fe4a698",
    "grantRole(bytes32,address)": "2f2ff15d",
    "hasRole(bytes32,address)": "91d14854",
    "owner()": "8da5cb5b",
    "priceDecimals(address)": "cefe0f21",
    "priceFeeds(address)": "9dcb511a",
    "renounceOwnership()": "715018a6",
    "renounceRole(bytes32,address)": "36568abe",
    "revokeRole(bytes32,address)": "d547741f",
    "sampleSpace()": "110106e6",
    "setPriceFeed(address,address,uint256)": "eceb9a9c",
    "setSampleSpace(uint256)": "2ae76ac2",
    "supportsInterface(bytes4)": "01ffc9a7",
    "transferAdmin(address)": "75829def",
    "transferOwnership(address)": "f2fde38b"
  },
  "id": 68
}