{
  "abi": [
    {
      "anonymous": false,
      "inputs": [
        {
          "indexed": false,
          "internalType": "uint8",
          "name": "version",
          "type": "uint8"
        }
      ],
      "name": "Initialized",
      "type": "event"
    },
    {
      "anonymous": false,
      "inputs": [
        {
          "indexed": true,
          "internalType": "address",
          "name": "previousOwner",
          "type": "address"
        },
        {
          "indexed": true,
          "internalType": "address",
          "name": "newOwner",
          "type": "address"
        }
      ],
      "name": "OwnershipTransferred",
      "type": "event"
    },
    {
      "anonymous": false,
      "inputs": [
        {
          "indexed": true,
          "internalType": "bytes32",
          "name": "role",
          "type": "bytes32"
        },
        {
          "indexed": true,
          "internalType": "bytes32",
          "name": "previousAdminRole",
          "type": "bytes32"
        },
        {
          "indexed": true,
          "internalType": "bytes32",
          "name": "newAdminRole",
          "type": "bytes32"
        }
      ],
      "name": "RoleAdminChanged",
      "type": "event"
    },
    {
      "anonymous": false,
      "inputs": [
        {
          "indexed": true,
          "internalType": "bytes32",
          "name": "role",
          "type": "bytes32"
        },
        {
          "indexed": true,
          "internalType": "address",
          "name": "account",
          "type": "address"
        },
        {
          "indexed": true,
          "internalType": "address",
          "name": "sender",
          "type": "address"
        }
      ],
      "name": "RoleGranted",
      "type": "event"
    },
    {
      "anonymous": false,
      "inputs": [
        {
          "indexed": true,
          "internalType": "bytes32",
          "name": "role",
          "type": "bytes32"
        },
        {
          "indexed": true,
          "internalType": "address",
          "name": "account",
          "type": "address"
        },
        {
          "indexed": true,
          "internalType": "address",
          "name": "sender",
          "type": "address"
        }
      ],
      "name": "RoleRevoked",
      "type": "event"
    },
    {
      "inputs": [],
      "name": "DEFAULT_ADMIN_ROLE",
      "outputs": [
        {
          "internalType": "bytes32",
          "name": "",
          "type": "bytes32"
        }
      ],
      "stateMutability": "view",
      "type": "function"
    },
    {
      "inputs": [
        {
          "internalType": "address",
          "name": "acc",
          "type": "address"
        }
      ],
      "name": "claimForAccount",
      "outputs": [],
      "stateMutability": "nonpayable",
      "type": "function"
    },
    {
      "inputs": [],
      "name": "esVault",
      "outputs": [
        {
          "internalType": "address",
          "name": "",
          "type": "address"
        }
      ],
      "stateMutability": "view",
      "type": "function"
    },
    {
      "inputs": [
        {
          "internalType": "bytes32",
          "name": "role",
          "type": "bytes32"
        }
      ],
      "name": "getRoleAdmin",
      "outputs": [
        {
          "internalType": "bytes32",
          "name": "",
          "type": "bytes32"
        }
      ],
      "stateMutability": "view",
      "type": "function"
    },
    {
      "inputs": [
        {
          "internalType": "address",
          "name": "_account",
          "type": "address"
        }
      ],
      "name": "grantControllerRoleByMarketManager",
      "outputs": [],
      "stateMutability": "nonpayable",
      "type": "function"
    },
    {
      "inputs": [
        {
          "internalType": "bytes32",
          "name": "role",
          "type": "bytes32"
        },
        {
          "internalType": "address",
          "name": "account",
          "type": "address"
        }
      ],
      "name": "grantRole",
      "outputs": [],
      "stateMutability": "nonpayable",
      "type": "function"
    },
    {
      "inputs": [
        {
          "internalType": "bytes32",
          "name": "role",
          "type": "bytes32"
        },
        {
          "internalType": "address",
          "name": "account",
          "type": "address"
        }
      ],
      "name": "hasRole",
      "outputs": [
        {
          "internalType": "bool",
          "name": "",
          "type": "bool"
        }
      ],
      "stateMutability": "view",
      "type": "function"
    },
    {
      "inputs": [
        {
          "internalType": "address",
          "name": "_tradeVolContract",
          "type": "address"
        },
        {
          "internalType": "address",
          "name": "_esVault",
          "type": "address"
        },
        {
          "internalType": "address",
          "name": "_rewardToken",
          "type": "address"
        }
      ],
      "name": "initialize",
      "outputs": [],
      "stateMutability": "nonpayable",
      "type": "function"
    },
    {
      "inputs": [],
      "name": "owner",
      "outputs": [
        {
          "internalType": "address",
          "name": "",
          "type": "address"
        }
      ],
      "stateMutability": "view",
      "type": "function"
    },
    {
      "inputs": [],
      "name": "renounceOwnership",
      "outputs": [],
      "stateMutability": "nonpayable",
      "type": "function"
    },
    {
      "inputs": [
        {
          "internalType": "bytes32",
          "name": "",
          "type": "bytes32"
        },
        {
          "internalType": "address",
          "name": "",
          "type": "address"
        }
      ],
      "name": "renounceRole",
      "outputs": [],
      "stateMutability": "nonpayable",
      "type": "function"
    },
    {
      "inputs": [
        {
          "internalType": "bytes32",
          "name": "role",
          "type": "bytes32"
        },
        {
          "internalType": "address",
          "name": "account",
          "type": "address"
        }
      ],
      "name": "revokeRole",
      "outputs": [],
      "stateMutability": "nonpayable",
      "type": "function"
    },
    {
      "inputs": [],
      "name": "rewardToken",
      "outputs": [
        {
          "internalType": "address",
          "name": "",
          "type": "address"
        }
      ],
      "stateMutability": "view",
      "type": "function"
    },
    {
      "inputs": [
        {
          "internalType": "uint256",
          "name": "_a",
          "type": "uint256"
        },
        {
          "internalType": "uint256",
          "name": "_b",
          "type": "uint256"
        }
      ],
      "name": "setThreshold",
      "outputs": [],
      "stateMutability": "nonpayable",
      "type": "function"
    },
    {
      "inputs": [],
      "name": "sizeDecimals",
      "outputs": [
        {
          "internalType": "uint256",
          "name": "",
          "type": "uint256"
        }
      ],
      "stateMutability": "view",
      "type": "function"
    },
    {
      "inputs": [
        {
          "internalType": "bytes4",
          "name": "interfaceId",
          "type": "bytes4"
        }
      ],
      "name": "supportsInterface",
      "outputs": [
        {
          "internalType": "bool",
          "name": "",
          "type": "bool"
        }
      ],
      "stateMutability": "view",
      "type": "function"
    },
    {
      "inputs": [],
      "name": "thresholdA",
      "outputs": [
        {
          "internalType": "uint256",
          "name": "",
          "type": "uint256"
        }
      ],
      "stateMutability": "view",
      "type": "function"
    },
    {
      "inputs": [],
      "name": "thresholdB",
      "outputs": [
        {
          "internalType": "uint256",
          "name": "",
          "type": "uint256"
        }
      ],
      "stateMutability": "view",
      "type": "function"
    },
    {
      "inputs": [],
      "name": "tradeVolumeContract",
      "outputs": [
        {
          "internalType": "contract ITradeVolume",
          "name": "",
          "type": "address"
        }
      ],
      "stateMutability": "view",
      "type": "function"
    },
    {
      "inputs": [
        {
          "internalType": "address",
          "name": "to",
          "type": "address"
        }
      ],
      "name": "transferAdmin",
      "outputs": [],
      "stateMutability": "nonpayable",
      "type": "function"
    },
    {
      "inputs": [
        {
          "internalType": "address",
          "name": "newOwner",
          "type": "address"
        }
      ],
      "name": "transferOwnership",
      "outputs": [],
      "stateMutability": "nonpayable",
      "type": "function"
    },
    {
      "inputs": [
        {
          "internalType": "address",
          "name": "acc",
          "type": "address"
        }
      ],
      "name": "updateReward",
      "outputs": [],
      "stateMutability": "nonpayable",
      "type": "function"
    },
    {
      "inputs": [
        {
          "internalType": "address",
          "name": "",
          "type": "address"
        }
      ],
      "name": "users",
      "outputs": [
        {
          "internalType": "uint32",
          "name": "extra0",
          "type": "uint32"
        },
        {
          "internalType": "uint64",
          "name": "accumulatedReward",
          "type": "uint64"
        },
        {
          "internalType": "uint96",
          "name": "claimedReward",
          "type": "uint96"
        },
        {
          "internalType": "uint128",
          "name": "extra1",
          "type": "uint128"
        }
      ],
      "stateMutability": "view",
      "type": "function"
    }
  ],
  "bytecode": {
    "object": "0x608060405234801561001057600080fd5b5061001a3361001f565b610071565b600180546001600160a01b038381166001600160a01b0319831681179093556040519116919082907f8be0079c531659141344cd1fd0a4f28419497f9722a3daafe3b4186f6b6457e090600090a35050565b61153b806100806000396000f3fe608060405234801561001057600080fd5b506004361061014d5760003560e01c80637fe4a698116100c3578063b9c362091161007c578063b9c3620914610337578063c0c53b8b1461034a578063d547741f1461035d578063e54b82a214610370578063f2fde38b14610383578063f7c618c11461039657600080fd5b80637fe4a698146102415780638da5cb5b1461025457806391d1485414610265578063a217fddf14610278578063a87430ba14610280578063afd6a5cc1461032457600080fd5b80632f2ff15d116101155780632f2ff15d146101c557806336568abe146101da578063632447c9146101e857806367a47997146101fb578063715018a61461022657806375829def1461022e57600080fd5b806301ffc9a7146101525780630a431e3e1461017a5780631b5ba64514610191578063248a9ca31461019a57806329791b73146101bd575b600080fd5b610165610160366004611053565b6103a9565b60405190151581526020015b60405180910390f35b61018360045481565b604051908152602001610171565b61018360055481565b6101836101a836600461107d565b60009081526020819052604090206001015490565b610183601281565b6101d86101d33660046110b2565b6103e0565b005b6101d861014d3660046110b2565b6101d86101f63660046110de565b61040a565b60075461020e906001600160a01b031681565b6040516001600160a01b039091168152602001610171565b6101d861043f565b6101d861023c3660046110de565b610453565b6101d861024f3660046110de565b6104cc565b6001546001600160a01b031661020e565b6101656102733660046110b2565b6104f6565b610183600081565b6102dd61028e3660046110de565b6003602052600090815260409020805460019091015463ffffffff821691640100000000810467ffffffffffffffff1691600160601b9091046001600160601b0316906001600160801b031684565b6040805163ffffffff909516855267ffffffffffffffff90931660208501526001600160601b03909116918301919091526001600160801b03166060820152608001610171565b6101d86103323660046110de565b61051f565b6101d86103453660046110f9565b610635565b6101d861035836600461111b565b61066b565b6101d861036b3660046110b2565b61081a565b60085461020e906001600160a01b031681565b6101d86103913660046110de565b61083f565b60065461020e906001600160a01b031681565b60006001600160e01b03198216637965db0b60e01b14806103da57506301ffc9a760e01b6001600160e01b03198316145b92915050565b6000828152602081905260409020600101546103fb816108b5565b61040583836108bf565b505050565b6104337fcb58d6d985142a614029cdf01861b4fe094d5919a47e69b8310dc4093d9d6ad06108b5565b61043c81610943565b50565b610447610b25565b6104516000610b7f565b565b600061045e816108b5565b6001600160a01b0382166104a95760405162461bcd60e51b815260206004820152600d60248201526c217a65726f206164647265737360981b60448201526064015b60405180910390fd5b6104b4600083610bd1565b6104bd82610b7f565b6104c8600033610bdb565b5050565b7f8d1089725c0dc266707fa6207730fb801dcd03108bfed7a21099bd303651d2b761014d816108b5565b6000918252602082815260408084206001600160a01b0393909316845291905290205460ff1690565b61052881610943565b6001600160a01b0381166000908152600360205260408120805490919061057190600160601b81046001600160601b031690640100000000900467ffffffffffffffff16611174565b6001600160601b0316905061058581610c40565b82548390600c906105a7908490600160601b90046001600160601b031661119b565b82546001600160601b039182166101009390930a9283029190920219909116179055506006546040516340c10f1960e01b81526001600160a01b03858116600483015260248201849052909116906340c10f1990604401600060405180830381600087803b15801561061857600080fd5b505af115801561062c573d6000803e3d6000fd5b50505050505050565b7fcb6bc1c12dd43bca8d7dd46d975f913325437d0dcd5978e99d515e4ad39b977261065f816108b5565b50600491909155600555565b600154600160a81b900460ff1615808015610691575060018054600160a01b900460ff16105b806106b15750303b1580156106b1575060018054600160a01b900460ff16145b6107145760405162461bcd60e51b815260206004820152602e60248201527f496e697469616c697a61626c653a20636f6e747261637420697320616c72656160448201526d191e481a5b9a5d1a585b1a5e995960921b60648201526084016104a0565b6001805460ff60a01b1916600160a01b1790558015610741576001805460ff60a81b1916600160a81b1790555b61074a33610cac565b600880546001600160a01b0319166001600160a01b03861617905561078f7fcb58d6d985142a614029cdf01861b4fe094d5919a47e69b8310dc4093d9d6ad0856103e0565b600780546001600160a01b038086166001600160a01b031992831617909255600680549285169290911691909117905563017d78406004556113886005558015610814576001805460ff60a81b191681556040519081527f7f26b83ff96e1f2b6a682f133852f6798a09c465da95921460cefb38474024989060200160405180910390a15b50505050565b600082815260208190526040902060010154610835816108b5565b6104058383610bdb565b610847610b25565b6001600160a01b0381166108ac5760405162461bcd60e51b815260206004820152602660248201527f4f776e61626c653a206e6577206f776e657220697320746865207a65726f206160448201526564647265737360d01b60648201526084016104a0565b61043c81610b7f565b61043c8133610ccf565b6108c982826104f6565b6104c8576000828152602081815260408083206001600160a01b03851684529091529020805460ff191660011790556108ff3390565b6001600160a01b0316816001600160a01b0316837f2f8788117e7eff1d82e926ec794901d17c78024a50270940304540a733656f0d60405160405180910390a45050565b6001600160a01b0381811660008181526003602090815260408083208151608081018352815463ffffffff81168252640100000000810467ffffffffffffffff1694820194909452600160601b9093046001600160601b031683830152600101546001600160801b03166060830152600854905163543a185d60e11b815260048101949094529093919291169063a87430ba90602401608060405180830381865afa1580156109f6573d6000803e3d6000fd5b505050506040513d601f19601f82011682018060405250810190610a1a91906111fd565b90506000610a26610d28565b825190915063ffffffff16811115610814576000610a45848487610d3c565b9050610a5081610e35565b84602001818151610a619190611296565b67ffffffffffffffff9081169091526001600160a01b03871660009081526003602090815260409182902088518154928a0151938a01516001600160601b0316600160601b026bffffffffffffffffffffffff60601b1994909516640100000000026bffffffffffffffffffffffff1990931663ffffffff9091161791909117919091169190911781556060860151600190910180546001600160801b039092166fffffffffffffffffffffffffffffffff19909216919091179055505050505050565b6001546001600160a01b031633146104515760405162461bcd60e51b815260206004820181905260248201527f4f776e61626c653a2063616c6c6572206973206e6f7420746865206f776e657260448201526064016104a0565b600180546001600160a01b038381166001600160a01b0319831681179093556040519116919082907f8be0079c531659141344cd1fd0a4f28419497f9722a3daafe3b4186f6b6457e090600090a35050565b6104c882826108bf565b610be582826104f6565b156104c8576000828152602081815260408083206001600160a01b0385168085529252808320805460ff1916905551339285917ff6391f5c32d9c69d2a47ea670b442974b53935d1edc7fd64eb21e047a839171b9190a45050565b60006001600160601b03821115610ca85760405162461bcd60e51b815260206004820152602660248201527f53616665436173743a2076616c756520646f65736e27742066697420696e203960448201526536206269747360d01b60648201526084016104a0565b5090565b42600255610cb933610b7f565b610cc4600033610bd1565b61043c600082610bd1565b610cd982826104f6565b6104c857610ce681610e9e565b610cf1836020610eb0565b604051602001610d029291906112db565b60408051601f198184030181529082905262461bcd60e51b82526104a091600401611350565b6000610d376201518042611383565b905090565b600080610d4b6012600a611489565b600454610d589190611495565b60085460405163ce0e4e1560e01b81526001600160a01b0386811660048301529293506000929091169063ce0e4e1590602401602060405180830381865afa158015610da8573d6000803e3d6000fd5b505050506040513d601f19601f82011682018060405250810190610dcc91906114ac565b905081811015610e03578160055486602001516001600160801b0316610df29190611495565b610dfc9190611383565b9250610e2c565b8060055486602001516001600160801b0316610e1f9190611495565b610e299190611383565b92505b50509392505050565b600067ffffffffffffffff821115610ca85760405162461bcd60e51b815260206004820152602660248201527f53616665436173743a2076616c756520646f65736e27742066697420696e203660448201526534206269747360d01b60648201526084016104a0565b60606103da6001600160a01b03831660145b60606000610ebf836002611495565b610eca9060026114c5565b67ffffffffffffffff811115610ee257610ee26111bb565b6040519080825280601f01601f191660200182016040528015610f0c576020820181803683370190505b509050600360fc1b81600081518110610f2757610f276114d8565b60200101906001600160f81b031916908160001a905350600f60fb1b81600181518110610f5657610f566114d8565b60200101906001600160f81b031916908160001a9053506000610f7a846002611495565b610f859060016114c5565b90505b6001811115610ffd576f181899199a1a9b1b9c1cb0b131b232b360811b85600f1660108110610fb957610fb96114d8565b1a60f81b828281518110610fcf57610fcf6114d8565b60200101906001600160f81b031916908160001a90535060049490941c93610ff6816114ee565b9050610f88565b50831561104c5760405162461bcd60e51b815260206004820181905260248201527f537472696e67733a20686578206c656e67746820696e73756666696369656e7460448201526064016104a0565b9392505050565b60006020828403121561106557600080fd5b81356001600160e01b03198116811461104c57600080fd5b60006020828403121561108f57600080fd5b5035919050565b80356001600160a01b03811681146110ad57600080fd5b919050565b600080604083850312156110c557600080fd5b823591506110d560208401611096565b90509250929050565b6000602082840312156110f057600080fd5b61104c82611096565b6000806040838503121561110c57600080fd5b50508035926020909101359150565b60008060006060848603121561113057600080fd5b61113984611096565b925061114760208501611096565b915061115560408501611096565b90509250925092565b634e487b7160e01b600052601160045260246000fd5b6001600160601b038281168282160390808211156111945761119461115e565b5092915050565b6001600160601b038181168382160190808211156111945761119461115e565b634e487b7160e01b600052604160045260246000fd5b805163ffffffff811681146110ad57600080fd5b805167ffffffffffffffff811681146110ad57600080fd5b60006080828403121561120f57600080fd5b6040516080810181811067ffffffffffffffff8211171561124057634e487b7160e01b600052604160045260246000fd5b60405261124c836111d1565b815260208301516001600160801b038116811461126857600080fd5b6020820152611279604084016111e5565b604082015261128a606084016111d1565b60608201529392505050565b67ffffffffffffffff8181168382160190808211156111945761119461115e565b60005b838110156112d25781810151838201526020016112ba565b50506000910152565b7f416363657373436f6e74726f6c3a206163636f756e74200000000000000000008152600083516113138160178501602088016112b7565b7001034b99036b4b9b9b4b733903937b6329607d1b60179184019182015283516113448160288401602088016112b7565b01602801949350505050565b602081526000825180602084015261136f8160408501602087016112b7565b601f01601f19169190910160400192915050565b6000826113a057634e487b7160e01b600052601260045260246000fd5b500490565b600181815b808511156113e05781600019048211156113c6576113c661115e565b808516156113d357918102915b93841c93908002906113aa565b509250929050565b6000826113f7575060016103da565b81611404575060006103da565b816001811461141a576002811461142457611440565b60019150506103da565b60ff8411156114355761143561115e565b50506001821b6103da565b5060208310610133831016604e8410600b8410161715611463575081810a6103da565b61146d83836113a5565b80600019048211156114815761148161115e565b029392505050565b600061104c83836113e8565b80820281158282048414176103da576103da61115e565b6000602082840312156114be57600080fd5b5051919050565b808201808211156103da576103da61115e565b634e487b7160e01b600052603260045260246000fd5b6000816114fd576114fd61115e565b50600019019056fea2646970667358221220265fd16516508c6e8da02aab4498d356a06d030b8c777af124bbfa7b7af63ae564736f6c63430008110033",
    "linkReferences": {}
  },
  "methodIdentifiers": {
    "DEFAULT_ADMIN_ROLE()": "a217fddf",
    "claimForAccount(address)": "afd6a5cc",
    "esVault()": "67a47997",
    "getRoleAdmin(bytes32)": "248a9ca3",
    "grantControllerRoleByMarketManager(address)": "7fe4a698",
    "grantRole(bytes32,address)": "2f2ff15d",
    "hasRole(bytes32,address)": "91d14854",
    "initialize(address,address,address)": "c0c53b8b",
    "owner()": "8da5cb5b",
    "renounceOwnership()": "715018a6",
    "renounceRole(bytes32,address)": "36568abe",
    "revokeRole(bytes32,address)": "d547741f",
    "rewardToken()": "f7c618c1",
    "setThreshold(uint256,uint256)": "b9c36209",
    "sizeDecimals()": "29791b73",
    "supportsInterface(bytes4)": "01ffc9a7",
    "thresholdA()": "0a431e3e",
    "thresholdB()": "1b5ba645",
    "tradeVolumeContract()": "e54b82a2",
    "transferAdmin(address)": "75829def",
    "transferOwnership(address)": "f2fde38b",
    "updateReward(address)": "632447c9",
    "users(address)": "a87430ba"
  },
  "id": 93
}