{
  "abi": [
    {
      "inputs": [
        {
          "internalType": "address",
          "name": "_marketAddr",
          "type": "address"
        }
      ],
      "name": "getMarket",
      "outputs": [
        {
          "components": [
            {
              "internalType": "string",
              "name": "name",
              "type": "string"
            },
            {
              "internalType": "address",
              "name": "addr",
              "type": "address"
            },
            {
              "components": [
                {
                  "internalType": "string",
                  "name": "_name",
                  "type": "string"
                },
                {
                  "internalType": "address",
                  "name": "_marketAddress",
                  "type": "address"
                },
                {
                  "internalType": "address[]",
                  "name": "addrs",
                  "type": "address[]"
                },
                {
                  "internalType": "address",
                  "name": "_openStoreLong",
                  "type": "address"
                },
                {
                  "internalType": "address",
                  "name": "_closeStoreLong",
                  "type": "address"
                },
                {
                  "internalType": "address",
                  "name": "_openStoreShort",
                  "type": "address"
                },
                {
                  "internalType": "address",
                  "name": "_closeStoreShort",
                  "type": "address"
                },
                {
                  "internalType": "uint256",
                  "name": "_minSlippage",
                  "type": "uint256"
                },
                {
                  "internalType": "uint256",
                  "name": "_maxSlippage",
                  "type": "uint256"
                },
                {
                  "internalType": "uint256",
                  "name": "_minLeverage",
                  "type": "uint256"
                },
                {
                  "internalType": "uint256",
                  "name": "_maxLeverage",
                  "type": "uint256"
                },
                {
                  "internalType": "uint256",
                  "name": "_maxTradeAmount",
                  "type": "uint256"
                },
                {
                  "internalType": "uint256",
                  "name": "_minPay",
                  "type": "uint256"
                },
                {
                  "internalType": "uint256",
                  "name": "_minCollateral",
                  "type": "uint256"
                },
                {
                  "internalType": "bool",
                  "name": "_allowOpen",
                  "type": "bool"
                },
                {
                  "internalType": "bool",
                  "name": "_allowClose",
                  "type": "bool"
                },
                {
                  "internalType": "uint256",
                  "name": "_tokenDigits",
                  "type": "uint256"
                }
              ],
              "internalType": "struct IMarketFactory.CreateInputs",
              "name": "inputs",
              "type": "tuple"
            }
          ],
          "internalType": "struct IMarketFactory.Props",
          "name": "",
          "type": "tuple"
        }
      ],
      "stateMutability": "view",
      "type": "function"
    },
    {
      "inputs": [],
      "name": "getMarkets",
      "outputs": [
        {
          "components": [
            {
              "internalType": "string",
              "name": "name",
              "type": "string"
            },
            {
              "internalType": "address",
              "name": "addr",
              "type": "address"
            },
            {
              "internalType": "uint256",
              "name": "minPay",
              "type": "uint256"
            },
            {
              "internalType": "bool",
              "name": "allowOpen",
              "type": "bool"
            },
            {
              "internalType": "bool",
              "name": "allowClose",
              "type": "bool"
            }
          ],
          "internalType": "struct IMarketFactory.Outs[]",
          "name": "_outs",
          "type": "tuple[]"
        }
      ],
      "stateMutability": "view",
      "type": "function"
    },
    {
      "inputs": [
        {
          "internalType": "uint256",
          "name": "",
          "type": "uint256"
        }
      ],
      "name": "markets",
      "outputs": [
        {
          "internalType": "string",
          "name": "name",
          "type": "string"
        },
        {
          "internalType": "address",
          "name": "addr",
          "type": "address"
        },
        {
          "components": [
            {
              "internalType": "string",
              "name": "_name",
              "type": "string"
            },
            {
              "internalType": "address",
              "name": "_marketAddress",
              "type": "address"
            },
            {
              "internalType": "address[]",
              "name": "addrs",
              "type": "address[]"
            },
            {
              "internalType": "address",
              "name": "_openStoreLong",
              "type": "address"
            },
            {
              "internalType": "address",
              "name": "_closeStoreLong",
              "type": "address"
            },
            {
              "internalType": "address",
              "name": "_openStoreShort",
              "type": "address"
            },
            {
              "internalType": "address",
              "name": "_closeStoreShort",
              "type": "address"
            },
            {
              "internalType": "uint256",
              "name": "_minSlippage",
              "type": "uint256"
            },
            {
              "internalType": "uint256",
              "name": "_maxSlippage",
              "type": "uint256"
            },
            {
              "internalType": "uint256",
              "name": "_minLeverage",
              "type": "uint256"
            },
            {
              "internalType": "uint256",
              "name": "_maxLeverage",
              "type": "uint256"
            },
            {
              "internalType": "uint256",
              "name": "_maxTradeAmount",
              "type": "uint256"
            },
            {
              "internalType": "uint256",
              "name": "_minPay",
              "type": "uint256"
            },
            {
              "internalType": "uint256",
              "name": "_minCollateral",
              "type": "uint256"
            },
            {
              "internalType": "bool",
              "name": "_allowOpen",
              "type": "bool"
            },
            {
              "internalType": "bool",
              "name": "_allowClose",
              "type": "bool"
            },
            {
              "internalType": "uint256",
              "name": "_tokenDigits",
              "type": "uint256"
            }
          ],
          "internalType": "struct IMarketFactory.CreateInputs",
          "name": "inputs",
          "type": "tuple"
        }
      ],
      "stateMutability": "view",
      "type": "function"
    },
    {
      "inputs": [
        {
          "internalType": "string",
          "name": "name",
          "type": "string"
        },
        {
          "internalType": "address",
          "name": "addr",
          "type": "address"
        }
      ],
      "name": "setMarket",
      "outputs": [],
      "stateMutability": "nonpayable",
      "type": "function"
    }
  ],
  "bytecode": {
    "object": "0x608060405234801561001057600080fd5b5061105b806100206000396000f3fe608060405234801561001057600080fd5b506004361061004c5760003560e01c8063a0d2ac9814610051578063b1283e7714610066578063d4dfadbf14610091578063ec2c9016146100b1575b600080fd5b61006461005f366004610aad565b6100c6565b005b610079610074366004610b6f565b610299565b60405161008893929190610d45565b60405180910390f35b6100a461009f366004610d83565b61052d565b6040516100889190610da5565b6100b961053a565b6040516100889190610dfd565b6100ce610927565b8281526001600160a01b038216602082015260008054600181018255908052815182916012027f290decd9548b62a8d60345a988386fc84ba6bc95484008f6362f93160ef3e563019081906101239082610f28565b5060208201516001820180546001600160a01b0319166001600160a01b0390921691909117905560408201518051600283019081906101629082610f28565b506020828101516001830180546001600160a01b0319166001600160a01b03909216919091179055604083015180516101a19260028501920190610a06565b5060608201516003820180546001600160a01b03199081166001600160a01b03938416179091556080840151600484018054831691841691909117905560a0840151600584018054831691841691909117905560c0840151600684018054909216921691909117905560e082015160078201556101008083015160088301556101208301516009830155610140830151600a830155610160830151600b830155610180830151600c8301556101a0830151600d8301556101c0830151600e830180546101e086015161ffff1990911692151561ff0019169290921791151590920217905561020090910151600f909101555050505050565b600081815481106102a957600080fd5b90600052602060002090601202016000915090508060000180546102cc90610e9f565b80601f01602080910402602001604051908101604052809291908181526020018280546102f890610e9f565b80156103455780601f1061031a57610100808354040283529160200191610345565b820191906000526020600020905b81548152906001019060200180831161032857829003601f168201915b5050505050908060010160009054906101000a90046001600160a01b031690806002016040518061022001604052908160008201805461038490610e9f565b80601f01602080910402602001604051908101604052809291908181526020018280546103b090610e9f565b80156103fd5780601f106103d2576101008083540402835291602001916103fd565b820191906000526020600020905b8154815290600101906020018083116103e057829003601f168201915b505050918352505060018201546001600160a01b0316602080830191909152600283018054604080518285028101850182528281529401939283018282801561046f57602002820191906000526020600020905b81546001600160a01b03168152600190910190602001808311610451575b505050918352505060038201546001600160a01b0390811660208301526004830154811660408301526005830154811660608301526006830154166080820152600782015460a0820152600882015460c0820152600982015460e0820152600a82015461010080830191909152600b830154610120830152600c830154610140830152600d830154610160830152600e83015460ff80821615156101808501529190041615156101a0820152600f909101546101c090910152905083565b610535610927565b919050565b6060600080805480602002602001604051908101604052809291908181526020016000905b82821015610808578382906000526020600020906012020160405180606001604052908160008201805461059290610e9f565b80601f01602080910402602001604051908101604052809291908181526020018280546105be90610e9f565b801561060b5780601f106105e05761010080835404028352916020019161060b565b820191906000526020600020905b8154815290600101906020018083116105ee57829003601f168201915b505050918352505060018201546001600160a01b031660208201526040805161022081018252600284018054929093019290918290829061064b90610e9f565b80601f016020809104026020016040519081016040528092919081815260200182805461067790610e9f565b80156106c45780601f10610699576101008083540402835291602001916106c4565b820191906000526020600020905b8154815290600101906020018083116106a757829003601f168201915b505050918352505060018201546001600160a01b0316602080830191909152600283018054604080518285028101850182528281529401939283018282801561073657602002820191906000526020600020905b81546001600160a01b03168152600190910190602001808311610718575b505050918352505060038201546001600160a01b0390811660208084019190915260048401548216604084015260058401548216606084015260068401549091166080830152600783015460a0830152600883015460c0830152600983015460e0830152600a83015461010080840191909152600b840154610120840152600c840154610140840152600d840154610160840152600e84015460ff80821615156101808601529190041615156101a0830152600f909201546101c090910152915291835250600192909201910161055f565b505082519293508291505067ffffffffffffffff81111561082b5761082b610a80565b60405190808252806020026020018201604052801561088557816020015b6040805160a081018252606080825260006020808401829052938301819052908201819052608082015282526000199092019101816108495790505b50925060005b818110156109215760008382815181106108a7576108a7610fe8565b602002602001015190506040518060a001604052808260000151815260200182602001516001600160a01b03168152602001601481526020016001151581526020016001151581525085838151811061090257610902610fe8565b602002602001018190525050808061091990610ffe565b91505061088b565b50505090565b60405180606001604052806060815260200160006001600160a01b03168152602001610a016040518061022001604052806060815260200160006001600160a01b031681526020016060815260200160006001600160a01b0316815260200160006001600160a01b0316815260200160006001600160a01b0316815260200160006001600160a01b0316815260200160008152602001600081526020016000815260200160008152602001600081526020016000815260200160008152602001600015158152602001600015158152602001600081525090565b905290565b828054828255906000526020600020908101928215610a5b579160200282015b82811115610a5b57825182546001600160a01b0319166001600160a01b03909116178255602090920191600190910190610a26565b50610a67929150610a6b565b5090565b5b80821115610a675760008155600101610a6c565b634e487b7160e01b600052604160045260246000fd5b80356001600160a01b038116811461053557600080fd5b60008060408385031215610ac057600080fd5b823567ffffffffffffffff80821115610ad857600080fd5b818501915085601f830112610aec57600080fd5b813581811115610afe57610afe610a80565b604051601f8201601f19908116603f01168101908382118183101715610b2657610b26610a80565b81604052828152886020848701011115610b3f57600080fd5b826020860160208301376000602084830101528096505050505050610b6660208401610a96565b90509250929050565b600060208284031215610b8157600080fd5b5035919050565b6000815180845260005b81811015610bae57602081850181015186830182015201610b92565b506000602082860101526020601f19601f83011685010191505092915050565b600081518084526020808501945080840160005b83811015610c075781516001600160a01b031687529582019590820190600101610be2565b509495945050505050565b60006102208251818552610c2882860182610b88565b9150506020830151610c4560208601826001600160a01b03169052565b5060408301518482036040860152610c5d8282610bce565b9150506060830151610c7a60608601826001600160a01b03169052565b506080830151610c9560808601826001600160a01b03169052565b5060a0830151610cb060a08601826001600160a01b03169052565b5060c0830151610ccb60c08601826001600160a01b03169052565b5060e08381015190850152610100808401519085015261012080840151908501526101408084015190850152610160808401519085015261018080840151908501526101a080840151908501526101c0808401511515908501526101e0808401511515908501526102009283015192909301919091525090565b606081526000610d586060830186610b88565b6001600160a01b03851660208401528281036040840152610d798185610c12565b9695505050505050565b600060208284031215610d9557600080fd5b610d9e82610a96565b9392505050565b602081526000825160606020840152610dc16080840182610b88565b60208501516001600160a01b0316604085810191909152850151848203601f19016060860152909150610df48282610c12565b95945050505050565b60006020808301818452808551808352604092508286019150828160051b87010184880160005b83811015610e9157603f19898403018552815160a08151818652610e4a82870182610b88565b838b01516001600160a01b0316878c0152898401518a8801526060808501511515908801526080938401511515939096019290925250509386019390860190600101610e24565b509098975050505050505050565b600181811c90821680610eb357607f821691505b602082108103610ed357634e487b7160e01b600052602260045260246000fd5b50919050565b601f821115610f2357600081815260208120601f850160051c81016020861015610f005750805b601f850160051c820191505b81811015610f1f57828155600101610f0c565b5050505b505050565b815167ffffffffffffffff811115610f4257610f42610a80565b610f5681610f508454610e9f565b84610ed9565b602080601f831160018114610f8b5760008415610f735750858301515b600019600386901b1c1916600185901b178555610f1f565b600085815260208120601f198616915b82811015610fba57888601518255948401946001909101908401610f9b565b5085821015610fd85787850151600019600388901b60f8161c191681555b5050505050600190811b01905550565b634e487b7160e01b600052603260045260246000fd5b60006001820161101e57634e487b7160e01b600052601160045260246000fd5b506001019056fea264697066735822122020a1f0fbca73c29aaec109ad59dc1900d4d607bf1304d7cfe180ba06ff9ac52264736f6c63430008110033",
    "linkReferences": {}
  },
  "methodIdentifiers": {
    "getMarket(address)": "d4dfadbf",
    "getMarkets()": "ec2c9016",
    "markets(uint256)": "b1283e77",
    "setMarket(string,address)": "a0d2ac98"
  },
  "id": 43
}