{
  "abi": [
    {
      "anonymous": false,
      "inputs": [
        {
          "indexed": false,
          "internalType": "uint8",
          "name": "version",
          "type": "uint8"
        }
      ],
      "name": "Initialized",
      "type": "event"
    },
    {
      "anonymous": false,
      "inputs": [
        {
          "indexed": true,
          "internalType": "address",
          "name": "previousOwner",
          "type": "address"
        },
        {
          "indexed": true,
          "internalType": "address",
          "name": "newOwner",
          "type": "address"
        }
      ],
      "name": "OwnershipTransferred",
      "type": "event"
    },
    {
      "anonymous": false,
      "inputs": [
        {
          "indexed": true,
          "internalType": "bytes32",
          "name": "role",
          "type": "bytes32"
        },
        {
          "indexed": true,
          "internalType": "bytes32",
          "name": "previousAdminRole",
          "type": "bytes32"
        },
        {
          "indexed": true,
          "internalType": "bytes32",
          "name": "newAdminRole",
          "type": "bytes32"
        }
      ],
      "name": "RoleAdminChanged",
      "type": "event"
    },
    {
      "anonymous": false,
      "inputs": [
        {
          "indexed": true,
          "internalType": "bytes32",
          "name": "role",
          "type": "bytes32"
        },
        {
          "indexed": true,
          "internalType": "address",
          "name": "account",
          "type": "address"
        },
        {
          "indexed": true,
          "internalType": "address",
          "name": "sender",
          "type": "address"
        }
      ],
      "name": "RoleGranted",
      "type": "event"
    },
    {
      "anonymous": false,
      "inputs": [
        {
          "indexed": true,
          "internalType": "bytes32",
          "name": "role",
          "type": "bytes32"
        },
        {
          "indexed": true,
          "internalType": "address",
          "name": "account",
          "type": "address"
        },
        {
          "indexed": true,
          "internalType": "address",
          "name": "sender",
          "type": "address"
        }
      ],
      "name": "RoleRevoked",
      "type": "event"
    },
    {
      "inputs": [],
      "name": "DEFAULT_ADMIN_ROLE",
      "outputs": [
        {
          "internalType": "bytes32",
          "name": "",
          "type": "bytes32"
        }
      ],
      "stateMutability": "view",
      "type": "function"
    },
    {
      "inputs": [],
      "name": "PLUGIN_GAS_LIMIT",
      "outputs": [
        {
          "internalType": "uint256",
          "name": "",
          "type": "uint256"
        }
      ],
      "stateMutability": "view",
      "type": "function"
    },
    {
      "inputs": [],
      "name": "collateralToken",
      "outputs": [
        {
          "internalType": "address",
          "name": "",
          "type": "address"
        }
      ],
      "stateMutability": "view",
      "type": "function"
    },
    {
      "inputs": [],
      "name": "collateralTokenDigits",
      "outputs": [
        {
          "internalType": "uint8",
          "name": "",
          "type": "uint8"
        }
      ],
      "stateMutability": "view",
      "type": "function"
    },
    {
      "inputs": [
        {
          "components": [
            {
              "internalType": "uint8",
              "name": "version",
              "type": "uint8"
            },
            {
              "internalType": "uint32",
              "name": "updatedAtBlock",
              "type": "uint32"
            },
            {
              "internalType": "uint8",
              "name": "triggerAbove",
              "type": "uint8"
            },
            {
              "internalType": "address",
              "name": "account",
              "type": "address"
            },
            {
              "internalType": "uint48",
              "name": "extra3",
              "type": "uint48"
            },
            {
              "internalType": "uint128",
              "name": "collateral",
              "type": "uint128"
            },
            {
              "internalType": "uint128",
              "name": "size",
              "type": "uint128"
            },
            {
              "internalType": "uint128",
              "name": "price",
              "type": "uint128"
            },
            {
              "internalType": "uint128",
              "name": "extra1",
              "type": "uint128"
            },
            {
              "internalType": "uint64",
              "name": "orderID",
              "type": "uint64"
            },
            {
              "internalType": "uint64",
              "name": "extra2",
              "type": "uint64"
            },
            {
              "internalType": "uint128",
              "name": "extra0",
              "type": "uint128"
            },
            {
              "internalType": "bytes32",
              "name": "refCode",
              "type": "bytes32"
            }
          ],
          "internalType": "struct Order.Props",
          "name": "exeOrder",
          "type": "tuple"
        },
        {
          "components": [
            {
              "internalType": "address",
              "name": "_market",
              "type": "address"
            },
            {
              "internalType": "bool",
              "name": "_isLong",
              "type": "bool"
            },
            {
              "internalType": "uint256",
              "name": "_oraclePrice",
              "type": "uint256"
            },
            {
              "internalType": "bool",
              "name": "isOpen",
              "type": "bool"
            },
            {
              "internalType": "address",
              "name": "_account",
              "type": "address"
            },
            {
              "internalType": "uint256",
              "name": "_sizeDelta",
              "type": "uint256"
            },
            {
              "internalType": "uint256",
              "name": "_price",
              "type": "uint256"
            },
            {
              "internalType": "uint256",
              "name": "_slippage",
              "type": "uint256"
            },
            {
              "internalType": "bool",
              "name": "_isExec",
              "type": "bool"
            },
            {
              "internalType": "uint8",
              "name": "liqState",
              "type": "uint8"
            },
            {
              "internalType": "uint64",
              "name": "_fromOrder",
              "type": "uint64"
            },
            {
              "internalType": "bytes32",
              "name": "_refCode",
              "type": "bytes32"
            },
            {
              "internalType": "uint256",
              "name": "collateralDelta",
              "type": "uint256"
            },
            {
              "internalType": "uint8",
              "name": "execNum",
              "type": "uint8"
            },
            {
              "internalType": "uint256[]",
              "name": "inputs",
              "type": "uint256[]"
            }
          ],
          "internalType": "struct MarketDataTypes.UpdatePositionInputs",
          "name": "_params",
          "type": "tuple"
        }
      ],
      "name": "execOrderKey",
      "outputs": [],
      "stateMutability": "nonpayable",
      "type": "function"
    },
    {
      "inputs": [],
      "name": "feeRouter",
      "outputs": [
        {
          "internalType": "contract IFeeRouter",
          "name": "",
          "type": "address"
        }
      ],
      "stateMutability": "view",
      "type": "function"
    },
    {
      "inputs": [
        {
          "internalType": "bytes32",
          "name": "role",
          "type": "bytes32"
        }
      ],
      "name": "getRoleAdmin",
      "outputs": [
        {
          "internalType": "bytes32",
          "name": "",
          "type": "bytes32"
        }
      ],
      "stateMutability": "view",
      "type": "function"
    },
    {
      "inputs": [],
      "name": "globalValid",
      "outputs": [
        {
          "internalType": "address",
          "name": "",
          "type": "address"
        }
      ],
      "stateMutability": "view",
      "type": "function"
    },
    {
      "inputs": [
        {
          "internalType": "address",
          "name": "_account",
          "type": "address"
        }
      ],
      "name": "grantControllerRoleByMarketManager",
      "outputs": [],
      "stateMutability": "nonpayable",
      "type": "function"
    },
    {
      "inputs": [
        {
          "internalType": "bytes32",
          "name": "role",
          "type": "bytes32"
        },
        {
          "internalType": "address",
          "name": "account",
          "type": "address"
        }
      ],
      "name": "grantRole",
      "outputs": [],
      "stateMutability": "nonpayable",
      "type": "function"
    },
    {
      "inputs": [
        {
          "internalType": "bytes32",
          "name": "role",
          "type": "bytes32"
        },
        {
          "internalType": "address",
          "name": "account",
          "type": "address"
        }
      ],
      "name": "hasRole",
      "outputs": [
        {
          "internalType": "bool",
          "name": "",
          "type": "bool"
        }
      ],
      "stateMutability": "view",
      "type": "function"
    },
    {
      "inputs": [
        {
          "components": [
            {
              "internalType": "address",
              "name": "_market",
              "type": "address"
            },
            {
              "internalType": "bool",
              "name": "_isLong",
              "type": "bool"
            },
            {
              "internalType": "uint256",
              "name": "_oraclePrice",
              "type": "uint256"
            },
            {
              "internalType": "bool",
              "name": "isOpen",
              "type": "bool"
            },
            {
              "internalType": "address",
              "name": "_account",
              "type": "address"
            },
            {
              "internalType": "uint256",
              "name": "_sizeDelta",
              "type": "uint256"
            },
            {
              "internalType": "uint256",
              "name": "_price",
              "type": "uint256"
            },
            {
              "internalType": "uint256",
              "name": "_slippage",
              "type": "uint256"
            },
            {
              "internalType": "bool",
              "name": "_isExec",
              "type": "bool"
            },
            {
              "internalType": "uint8",
              "name": "liqState",
              "type": "uint8"
            },
            {
              "internalType": "uint64",
              "name": "_fromOrder",
              "type": "uint64"
            },
            {
              "internalType": "bytes32",
              "name": "_refCode",
              "type": "bytes32"
            },
            {
              "internalType": "uint256",
              "name": "collateralDelta",
              "type": "uint256"
            },
            {
              "internalType": "uint8",
              "name": "execNum",
              "type": "uint8"
            },
            {
              "internalType": "uint256[]",
              "name": "inputs",
              "type": "uint256[]"
            }
          ],
          "internalType": "struct MarketDataTypes.UpdatePositionInputs",
          "name": "_inputs",
          "type": "tuple"
        }
      ],
      "name": "increasePositionWithOrders",
      "outputs": [],
      "stateMutability": "nonpayable",
      "type": "function"
    },
    {
      "inputs": [],
      "name": "indexToken",
      "outputs": [
        {
          "internalType": "address",
          "name": "",
          "type": "address"
        }
      ],
      "stateMutability": "view",
      "type": "function"
    },
    {
      "inputs": [],
      "name": "marketRouter",
      "outputs": [
        {
          "internalType": "address",
          "name": "",
          "type": "address"
        }
      ],
      "stateMutability": "view",
      "type": "function"
    },
    {
      "inputs": [],
      "name": "marketValid",
      "outputs": [
        {
          "internalType": "address",
          "name": "",
          "type": "address"
        }
      ],
      "stateMutability": "view",
      "type": "function"
    },
    {
      "inputs": [],
      "name": "name",
      "outputs": [
        {
          "internalType": "string",
          "name": "",
          "type": "string"
        }
      ],
      "stateMutability": "view",
      "type": "function"
    },
    {
      "inputs": [],
      "name": "orderBookLong",
      "outputs": [
        {
          "internalType": "contract IOrderBook",
          "name": "",
          "type": "address"
        }
      ],
      "stateMutability": "view",
      "type": "function"
    },
    {
      "inputs": [],
      "name": "orderBookShort",
      "outputs": [
        {
          "internalType": "contract IOrderBook",
          "name": "",
          "type": "address"
        }
      ],
      "stateMutability": "view",
      "type": "function"
    },
    {
      "inputs": [],
      "name": "orderMgr",
      "outputs": [
        {
          "internalType": "address",
          "name": "",
          "type": "address"
        }
      ],
      "stateMutability": "view",
      "type": "function"
    },
    {
      "inputs": [
        {
          "internalType": "bool",
          "name": "isLong",
          "type": "bool"
        },
        {
          "internalType": "bool",
          "name": "isOpen",
          "type": "bool"
        }
      ],
      "name": "orderStore",
      "outputs": [
        {
          "internalType": "contract IOrderStore",
          "name": "",
          "type": "address"
        }
      ],
      "stateMutability": "view",
      "type": "function"
    },
    {
      "inputs": [],
      "name": "owner",
      "outputs": [
        {
          "internalType": "address",
          "name": "",
          "type": "address"
        }
      ],
      "stateMutability": "view",
      "type": "function"
    },
    {
      "inputs": [
        {
          "internalType": "uint256",
          "name": "",
          "type": "uint256"
        }
      ],
      "name": "plugins",
      "outputs": [
        {
          "internalType": "address",
          "name": "",
          "type": "address"
        }
      ],
      "stateMutability": "view",
      "type": "function"
    },
    {
      "inputs": [],
      "name": "positionAddMgr",
      "outputs": [
        {
          "internalType": "address",
          "name": "",
          "type": "address"
        }
      ],
      "stateMutability": "view",
      "type": "function"
    },
    {
      "inputs": [],
      "name": "positionBook",
      "outputs": [
        {
          "internalType": "contract IPositionBook",
          "name": "",
          "type": "address"
        }
      ],
      "stateMutability": "view",
      "type": "function"
    },
    {
      "inputs": [],
      "name": "positionStoreLong",
      "outputs": [
        {
          "internalType": "address",
          "name": "",
          "type": "address"
        }
      ],
      "stateMutability": "view",
      "type": "function"
    },
    {
      "inputs": [],
      "name": "positionStoreShort",
      "outputs": [
        {
          "internalType": "address",
          "name": "",
          "type": "address"
        }
      ],
      "stateMutability": "view",
      "type": "function"
    },
    {
      "inputs": [],
      "name": "positionSubMgr",
      "outputs": [
        {
          "internalType": "address",
          "name": "",
          "type": "address"
        }
      ],
      "stateMutability": "view",
      "type": "function"
    },
    {
      "inputs": [],
      "name": "priceFeed",
      "outputs": [
        {
          "internalType": "address",
          "name": "",
          "type": "address"
        }
      ],
      "stateMutability": "view",
      "type": "function"
    },
    {
      "inputs": [],
      "name": "renounceOwnership",
      "outputs": [],
      "stateMutability": "nonpayable",
      "type": "function"
    },
    {
      "inputs": [
        {
          "internalType": "bytes32",
          "name": "",
          "type": "bytes32"
        },
        {
          "internalType": "address",
          "name": "",
          "type": "address"
        }
      ],
      "name": "renounceRole",
      "outputs": [],
      "stateMutability": "nonpayable",
      "type": "function"
    },
    {
      "inputs": [
        {
          "internalType": "bytes32",
          "name": "role",
          "type": "bytes32"
        },
        {
          "internalType": "address",
          "name": "account",
          "type": "address"
        }
      ],
      "name": "revokeRole",
      "outputs": [],
      "stateMutability": "nonpayable",
      "type": "function"
    },
    {
      "inputs": [
        {
          "internalType": "address",
          "name": "token",
          "type": "address"
        }
      ],
      "name": "setCollateralToken",
      "outputs": [],
      "stateMutability": "nonpayable",
      "type": "function"
    },
    {
      "inputs": [
        {
          "internalType": "address",
          "name": "fr",
          "type": "address"
        }
      ],
      "name": "setFeeRouter",
      "outputs": [],
      "stateMutability": "nonpayable",
      "type": "function"
    },
    {
      "inputs": [
        {
          "internalType": "address",
          "name": "_indexToken",
          "type": "address"
        }
      ],
      "name": "setIndexToken",
      "outputs": [],
      "stateMutability": "nonpayable",
      "type": "function"
    },
    {
      "inputs": [
        {
          "internalType": "address",
          "name": "mr",
          "type": "address"
        }
      ],
      "name": "setMarketRouter",
      "outputs": [],
      "stateMutability": "nonpayable",
      "type": "function"
    },
    {
      "inputs": [
        {
          "internalType": "address",
          "name": "_newMv",
          "type": "address"
        }
      ],
      "name": "setMarketValid",
      "outputs": [],
      "stateMutability": "nonpayable",
      "type": "function"
    },
    {
      "inputs": [
        {
          "internalType": "address",
          "name": "pf",
          "type": "address"
        }
      ],
      "name": "setOraclePrice",
      "outputs": [],
      "stateMutability": "nonpayable",
      "type": "function"
    },
    {
      "inputs": [
        {
          "internalType": "bool",
          "name": "isLong",
          "type": "bool"
        },
        {
          "internalType": "bool",
          "name": "isOpen",
          "type": "bool"
        },
        {
          "internalType": "address",
          "name": "os",
          "type": "address"
        }
      ],
      "name": "setOrderStore",
      "outputs": [],
      "stateMutability": "nonpayable",
      "type": "function"
    },
    {
      "inputs": [
        {
          "internalType": "address",
          "name": "book",
          "type": "address"
        }
      ],
      "name": "setPositionBook",
      "outputs": [],
      "stateMutability": "nonpayable",
      "type": "function"
    },
    {
      "inputs": [
        {
          "internalType": "address",
          "name": "vr",
          "type": "address"
        }
      ],
      "name": "setVaultRouter",
      "outputs": [],
      "stateMutability": "nonpayable",
      "type": "function"
    },
    {
      "inputs": [
        {
          "internalType": "address",
          "name": "orderBook",
          "type": "address"
        }
      ],
      "name": "setorderBookLong",
      "outputs": [],
      "stateMutability": "nonpayable",
      "type": "function"
    },
    {
      "inputs": [
        {
          "internalType": "address",
          "name": "orderBook",
          "type": "address"
        }
      ],
      "name": "setorderBookShort",
      "outputs": [],
      "stateMutability": "nonpayable",
      "type": "function"
    },
    {
      "inputs": [
        {
          "internalType": "bytes4",
          "name": "interfaceId",
          "type": "bytes4"
        }
      ],
      "name": "supportsInterface",
      "outputs": [
        {
          "internalType": "bool",
          "name": "",
          "type": "bool"
        }
      ],
      "stateMutability": "view",
      "type": "function"
    },
    {
      "inputs": [
        {
          "internalType": "address",
          "name": "to",
          "type": "address"
        }
      ],
      "name": "transferAdmin",
      "outputs": [],
      "stateMutability": "nonpayable",
      "type": "function"
    },
    {
      "inputs": [
        {
          "internalType": "address",
          "name": "newOwner",
          "type": "address"
        }
      ],
      "name": "transferOwnership",
      "outputs": [],
      "stateMutability": "nonpayable",
      "type": "function"
    },
    {
      "inputs": [],
      "name": "vaultRouter",
      "outputs": [
        {
          "internalType": "address",
          "name": "",
          "type": "address"
        }
      ],
      "stateMutability": "view",
      "type": "function"
    }
  ],
  "bytecode": {
    "object": "0x60806040523480156200001157600080fd5b5060016046556000620000243362000041565b6200003a816200009360201b62000fec1760201c565b5062000173565b604880546001600160a01b038381166001600160a01b0319831681179093556040519116919082907f8be0079c531659141344cd1fd0a4f28419497f9722a3daafe3b4186f6b6457e090600090a35050565b42604955620000a23362000041565b620000af600033620000bf565b620000bc600082620000bf565b50565b620000cb8282620000cf565b5050565b60008281526047602090815260408083206001600160a01b038516845290915290205460ff16620000cb5760008281526047602090815260408083206001600160a01b03851684529091529020805460ff191660011790556200012f3390565b6001600160a01b0316816001600160a01b0316837f2f8788117e7eff1d82e926ec794901d17c78024a50270940304540a733656f0d60405160405180910390a45050565b6140e980620001836000396000f3fe608060405234801561001057600080fd5b506004361061028a5760003560e01c80638da5cb5b1161015c578063b894300d116100ce578063d547741f11610087578063d547741f1461071d578063d7ec0a6d14610730578063e7d015f214610760578063f0a317eb14610773578063f29ebf6114610786578063f2fde38b1461079957600080fd5b8063b894300d1461068e578063c267ada4146106a1578063c54dc3d6146106d1578063d12dbde4146106e4578063d37c441c146106f7578063d49ff78d1461070a57600080fd5b8063a620eb9311610120578063a620eb931461059f578063ac0b05a6146105e9578063af44f6b6146105fc578063b2016bd41461062c578063b21dc9cb1461063f578063b82a35c51461065e57600080fd5b80638da5cb5b1461052857806391d1485414610539578063a0cbf50c1461054c578063a217fddf1461055f578063a26404541461056757600080fd5b806363cd8dbd11610200578063780e72ff116101b9578063780e72ff1461045f5780637b2fd1e51461048f5780637dd5da8d146104a25780637fe4a698146104d25780638a6ca35d146104e55780638d49701d146104f857600080fd5b806363cd8dbd146103c757806365e26e70146103d1578063666181a914610401578063715018a614610431578063741bef1a1461043957806375829def1461044c57600080fd5b8063248a9ca311610252578063248a9ca31461031f5780632f2ff15d1461035057806336568abe1461036357806339955ed7146103715780633bdef83a146103a157806345ccf5c5146103b457600080fd5b806301ffc9a71461028f57806305ba9ae9146102b757806306fdde03146102e257806307e87545146102f757806312de276c1461030a575b600080fd5b6102a261029d366004612e1a565b6107ac565b60405190151581526020015b60405180910390f35b6006546102ca906001600160a01b031681565b6040516001600160a01b0390911681526020016102ae565b6102ea6107e3565b6040516102ae9190612e94565b600a546102ca906001600160a01b031681565b61031d6103183660046131d2565b610871565b005b61034261032d366004613306565b60009081526047602052604090206001015490565b6040519081526020016102ae565b61031d61035e36600461331f565b6108de565b61031d61028a36600461331f565b61031d61037f36600461334f565b600080546001600160a01b0319166001600160a01b0392909216919091179055565b61031d6103af36600461336c565b610908565b600b546102ca906001600160a01b031681565b610342620a2c2a81565b61031d6103df36600461334f565b600680546001600160a01b0319166001600160a01b0392909216919091179055565b61031d61040f36600461334f565b600480546001600160a01b0319166001600160a01b0392909216919091179055565b61031d610e4b565b6009546102ca906001600160a01b031681565b61031d61045a36600461334f565b610e5f565b61031d61046d36600461334f565b600c80546001600160a01b0319166001600160a01b0392909216919091179055565b6005546102ca906001600160a01b031681565b61031d6104b036600461334f565b601080546001600160a01b0319166001600160a01b0392909216919091179055565b61031d6104e036600461334f565b610ecf565b600e546102ca906001600160a01b031681565b61031d61050636600461334f565b600380546001600160a01b0319166001600160a01b0392909216919091179055565b6048546001600160a01b03166102ca565b6102a261054736600461331f565b610ef9565b600f546102ca906001600160a01b031681565b610342600081565b6102ca6105753660046133a8565b9015156000908152600760209081526040808320931515835292905220546001600160a01b031690565b61031d6105ad3660046133d6565b911515600090815260076020908152604080832093151583529290522080546001600160a01b0319166001600160a01b03909216919091179055565b6003546102ca906001600160a01b031681565b61031d61060a36600461334f565b600980546001600160a01b0319166001600160a01b0392909216919091179055565b6004546102ca906001600160a01b031681565b60135461064c9060ff1681565b60405160ff90911681526020016102ae565b61031d61066c36600461334f565b600280546001600160a01b0319166001600160a01b0392909216919091179055565b6000546102ca906001600160a01b031681565b61031d6106af36600461334f565b600880546001600160a01b0319166001600160a01b0392909216919091179055565b6001546102ca906001600160a01b031681565b6010546102ca906001600160a01b031681565b600c546102ca906001600160a01b031681565b600d546102ca906001600160a01b031681565b61031d61072b36600461331f565b610f24565b61031d61073e36600461334f565b600580546001600160a01b0319166001600160a01b0392909216919091179055565b6002546102ca906001600160a01b031681565b6102ca610781366004613306565b610f49565b6008546102ca906001600160a01b031681565b61031d6107a736600461334f565b610f73565b60006001600160e01b03198216637965db0b60e01b14806107dd57506301ffc9a760e01b6001600160e01b03198316145b92915050565b601180546107f090613421565b80601f016020809104026020016040519081016040528092919081815260200182805461081c90613421565b80156108695780601f1061083e57610100808354040283529160200191610869565b820191906000526020600020905b81548152906001019060200180831161084c57829003601f168201915b505050505081565b61087a8261100f565b80606001516108d05760405162461bcd60e51b815260206004820152601d60248201527f506f736974696f6e4164644d67723a696e76616c69642069736f70656e00000060448201526064015b60405180910390fd5b6108da82826110af565b5050565b6000828152604760205260409020600101546108f9816113c7565b61090383836113d1565b505050565b61091181611457565b151560000361097057806101000151156109285750565b60405162461bcd60e51b815260206004820152601d60248201527f506f736974696f6e4164644d67723a696e76616c696420706172616d7300000060448201526064016108c7565b60005461018082015160405163015fc61360e01b815260048101919091526001600160a01b039091169063015fc6139060240160006040518083038186803b1580156109bb57600080fd5b505afa1580156109cf573d6000803e3d6000fd5b505050508060e0015160001480156109f357506101408101516001600160401b0316155b15610a0057601e60e08201525b610a0d816020015161147c565b6040820152600354608082015160a08301516000926001600160a01b03169163bc95baad9115610a41578460400151610a44565b60005b60208601516040516001600160e01b031960e086901b1681526001600160a01b03909316600484015260248301919091521515604482015260640161018060405180830381865afa158015610a9d573d6000803e3d6000fd5b505050506040513d601f19601f82011682018060405250810190610ac1919061348d565b9050610acd8282611543565b50610ae0826080015183602001516118e2565b1580610aee575060a0820151155b15610af7575050565b6000610b02836119e5565b15801590610b385750826020015115158360c00151610b20856119e5565b111480610b3857508260c00151610b36846119e5565b145b90506000610b4584611a23565b15801590610b7d5750610b5784611a23565b8460c00151111515846020015115151480610b7d5750610b7684611a23565b8460c00151145b905060606000838015610b8d5750825b610bac578380610b9a5750825b610ba5576000610baf565b6001610baf565b60025b60ff1690508015610c9657806001600160401b03811115610bd257610bd2612ea7565b604051908082528060200260200182016040528015610c0b57816020015b610bf8612d7b565b815260200190600190039081610bf05790505b509150610c3686600086610c2757610c2289611a23565b610c30565b610c30896119e5565b87611a53565b82600081518110610c4957610c49613543565b602002602001018190525080600203610c9157610c72866000610c6b89611a23565b6000611a53565b82600181518110610c8557610c85613543565b60200260200101819052505b610c9e565b505050505050565b60008660200151610cba576006546001600160a01b0316610cc7565b6005546001600160a01b03165b6001600160a01b031663b398a842846040518263ffffffff1660e01b8152600401610cf29190613729565b6000604051808303816000875af1158015610d11573d6000803e3d6000fd5b505050506040513d6000823e601f3d908101601f19168201604052610d3991908101906137b7565b604080516000808252602082019092529192505b8251811015610e40576000838281518110610d6a57610d6a613543565b60200260200101519050610e376040518060e00160405280306001600160a01b031681526020018c60200151151581526020018c60400151815260200160001515815260200160011515815260200183815260200185815250620a2c2a6012805480602002602001604051908101604052809291908181526020018280548015610e1d57602002820191906000526020600020905b81546001600160a01b03168152600190910190602001808311610dff575b50506004546001600160a01b03169250309150611b369050565b50600101610d4d565b505050505050505050565b610e53611d83565b610e5d6000611ddd565b565b6000610e6a816113c7565b6001600160a01b038216610eb05760405162461bcd60e51b815260206004820152600d60248201526c217a65726f206164647265737360981b60448201526064016108c7565b610ebb600083611e2f565b610ec482611ddd565b6108da600033611e39565b7f8d1089725c0dc266707fa6207730fb801dcd03108bfed7a21099bd303651d2b761028a816113c7565b60009182526047602090815260408084206001600160a01b0393909316845291905290205460ff1690565b600082815260476020526040902060010154610f3f816113c7565b6109038383611e39565b60128181548110610f5957600080fd5b6000918252602090912001546001600160a01b0316905081565b610f7b611d83565b6001600160a01b038116610fe05760405162461bcd60e51b815260206004820152602660248201527f4f776e61626c653a206e6577206f776e657220697320746865207a65726f206160448201526564647265737360d01b60648201526084016108c7565b610fe981611ddd565b50565b42604955610ff933611ddd565b611004600033611e2f565b610fe9600082611e2f565b60608101516001600160a01b031661105d5760405162461bcd60e51b8152602060048201526011602482015270696e76616c6964206f72646572206b657960781b60448201526064016108c7565b8061012001516001600160401b0316600003610fe95760405162461bcd60e51b8152602060048201526011602482015270696e76616c6964206f72646572206b657960781b60448201526064016108c7565b6110bc816020015161147c565b604082015260608201516001600160a01b031661111b5760405162461bcd60e51b815260206004820152601760248201527f506f736974696f6e4164644d67723a216163636f756e7400000000000000000060448201526064016108c7565b60105460405163039fcb0560e31b81526001600160a01b0390911690631cfe58289061114b908490600401613a33565b60006040518083038186803b15801561116357600080fd5b505afa158015611177573d6000803e3d6000fd5b505050508060200151611195576006546001600160a01b03166111a2565b6005546001600160a01b03165b6001600160a01b03166345824d676111b984611ea0565b6040516001600160e01b031960e084901b1681526004810191909152600160248201526044016000604051808303816000875af11580156111fe573d6000803e3d6000fd5b505050506040513d6000823e601f3d908101601f1916820160405261122691908101906137b7565b506001816101a00181815161123b9190613a5c565b60ff169052506040810151611251908390611f04565b6040518060400160405280601b81526020017f506f736974696f6e4164644d67723a7472696767657261626f76650000000000815250906112a55760405162461bcd60e51b81526004016108c79190612e94565b508160a001516001600160801b0316816101800151146113175760405162461bcd60e51b815260206004820152602760248201527f506f736974696f6e4164644d67723a20696e73756666696369656e7420636f6c6044820152661b185d195c985b60ca1b60648201526084016108c7565b6040805160a081018252838152602081018390526113be918101600360ff16815260408051602081810183526000808352818501929092529282015260128054825181850281018501909352808352620a2c2a938301828280156113a457602002820191906000526020600020905b81546001600160a01b03168152600190910190602001808311611386575b50506004546001600160a01b03169250309150611f429050565b6108da81610908565b610fe981336120c6565b6113db8282610ef9565b6108da5760008281526047602090815260408083206001600160a01b03851684529091529020805460ff191660011790556114133390565b6001600160a01b0316816001600160a01b0316837f2f8788117e7eff1d82e926ec794901d17c78024a50270940304540a733656f0d60405160405180910390a45050565b60808101516000906001600160a01b031661147457506000919050565b506001919050565b6009546002546040516303b6b4bb60e51b81526001600160a01b0391821660048201528315156024820152600092919091169081906376d6976090604401602060405180830381865afa1580156114d7573d6000803e3d6000fd5b505050506040513d601f19601f820116820180604052508101906114fb9190613a75565b91506000821161153d5760405162461bcd60e51b815260206004820152600d60248201526c216f7261636c6520707269636560981b60448201526064016108c7565b50919050565b600354600854600091611562916001600160a01b03918216911661211f565b308352600854604051634151026360e01b81526000916001600160a01b0316906341510263906115989087908790600401613b37565b600060405180830381865afa1580156115b5573d6000803e3d6000fd5b505050506040513d6000823e601f3d908101601f191682016040526115dd9190810190613b5b565b905060006115ea826121f5565b60a0860151909150156116605760005460405163fc54d91d60e01b81526001600160a01b039091169063fc54d91d9061162b90889088908790600401613beb565b60006040518083038186803b15801561164357600080fd5b505afa158015611657573d6000803e3d6000fd5b505050506116fa565b6000546001600160a01b031660a0850151610180870151608087015160405163393ab2bd60e21b8152600260048201526024810193909352604483019190915260648201526000608482015260a481018390526001600160a01b03919091169063e4eacaf49060c40160006040518083038186803b1580156116e157600080fd5b505afa1580156116f5573d6000803e3d6000fd5b505050505b60085460208601516040516334f32e2560e01b815230600482015290151560248201526000916001600160a01b0316906334f32e2590604401602060405180830381865afa158015611750573d6000803e3d6000fd5b505050506040513d601f19601f820116820180604052508101906117749190613a75565b90508161178587610180015161223b565b61178f9190613c21565b935061179c8685836122a9565b506117af866080015187602001516125f5565b6117b882612701565b60085460808701516004805460405163e50f19ef60e01b81526001600160a01b039485169463e50f19ef946117f594909390911691899101613c48565b600060405180830381600087803b15801561180f57600080fd5b505af1158015611823573d6000803e3d6000fd5b50506040805160c08101825289815260208082018a90528183018890526004546001600160a01b03908116606084015260025416608083015260a08201899052601280548451818402810184019095528085526118d99650929450620a2c2a939290918301828280156118bf57602002820191906000526020600020905b81546001600160a01b031681526001909101906020018083116118a1575b50506004546001600160a01b031692503091506128819050565b50505092915050565b6000805482151582526007602090815260408084208480529091528220546001600160a01b039182169163e82956c0911660405163350cffdd60e11b81526001600160a01b0387811660048301529190911690636a19ffba90602401602060405180830381865afa15801561195b573d6000803e3d6000fd5b505050506040513d601f19601f8201168201806040525081019061197f9190613a75565b6040518263ffffffff1660e01b815260040161199d91815260200190565b602060405180830381865afa1580156119ba573d6000803e3d6000fd5b505050506040513d601f19601f820116820180604052508101906119de9190613c74565b9392505050565b60006001826101c001515110156119fd5760006107dd565b816101c00151600081518110611a1557611a15613543565b602002602001015192915050565b60006002826101c00151511015611a3b5760006107dd565b816101c00151600181518110611a1557611a15613543565b611a5b612d7b565b611a66816000612a02565b3081526020808601805115159183019190915251611a84901561147c565b60408201526001608082015261014085015160a0820151611ab1916001600160401b031661016090910152565b608085015160a080830180516001600160a01b039093166060909301929092528601519051611adf91612a2f565b60a08181018051600092019190915260208601519051611b0491151584151514612a4d565b60a0810180516001600160801b0390941660e09094019390935261016090940151915161018001919091525090919050565b6040516370a0823160e01b81526001600160a01b038281166004830152600091908416906370a0823190602401602060405180830381865afa158015611b80573d6000803e3d6000fd5b505050506040513d601f19601f82011682018060405250810190611ba49190613a75565b905060005b8451811015611cba57848181518110611bc457611bc4613543565b60200260200101516001600160a01b031663612c39b76040518163ffffffff1660e01b8152600401606060405180830381865afa158015611c09573d6000803e3d6000fd5b505050506040513d601f19601f82011682018060405250810190611c2d9190613c91565b6020015115611ca857848181518110611c4857611c48613543565b60200260200101516001600160a01b031663cce9a2f3886040518263ffffffff1660e01b8152600401611c7b9190613d02565b600060405180830381600087803b158015611c9557600080fd5b505af1925050508015611ca6575060015b505b80611cb281613d15565b915050611ba9565b506040516370a0823160e01b81526001600160a01b038381166004830152600091908516906370a0823190602401602060405180830381865afa158015611d05573d6000803e3d6000fd5b505050506040513d601f19601f82011682018060405250810190611d299190613a75565b9050818114611d7a5760405162461bcd60e51b815260206004820152601b60248201527f455243323020746f6b656e2062616c616e6365206368616e676564000000000060448201526064016108c7565b50505050505050565b6048546001600160a01b03163314610e5d5760405162461bcd60e51b815260206004820181905260248201527f4f776e61626c653a2063616c6c6572206973206e6f7420746865206f776e657260448201526064016108c7565b604880546001600160a01b038381166001600160a01b0319831681179093556040519116919082907f8be0079c531659141344cd1fd0a4f28419497f9722a3daafe3b4186f6b6457e090600090a35050565b6108da82826113d1565b611e438282610ef9565b156108da5760008281526047602090815260408083206001600160a01b0385168085529252808320805460ff1916905551339285917ff6391f5c32d9c69d2a47ea670b442974b53935d1edc7fd64eb21e047a839171b9190a45050565b60006107dd82606001518361012001516040516bffffffffffffffffffffffff19606084901b1660208201526001600160c01b031960c083901b166034820152600090603c0160405160208183030381529060405280519060200120905092915050565b6000611f0f83612a6b565b15611f2b575060e08201516001600160801b03168110156107dd565b5060e08201516001600160801b03168111156107dd565b6040516370a0823160e01b81526001600160a01b038281166004830152600091908416906370a0823190602401602060405180830381865afa158015611f8c573d6000803e3d6000fd5b505050506040513d601f19601f82011682018060405250810190611fb09190613a75565b905060005b8451811015611cba57848181518110611fd057611fd0613543565b60200260200101516001600160a01b031663612c39b76040518163ffffffff1660e01b8152600401606060405180830381865afa158015612015573d6000803e3d6000fd5b505050506040513d601f19601f820116820180604052508101906120399190613c91565b60400151156120b45784818151811061205457612054613543565b60200260200101516001600160a01b031663718cb58a886040518263ffffffff1660e01b81526004016120879190613d2e565b600060405180830381600087803b1580156120a157600080fd5b505af19250505080156120b2575060015b505b806120be81613d15565b915050611fb5565b6120d08282610ef9565b6108da576120dd81612ae3565b6120e8836020612af5565b6040516020016120f9929190613da2565b60408051601f198184030181529082905262461bcd60e51b82526108c791600401612e94565b600080836001600160a01b0316638749694a6040518163ffffffff1660e01b81526004016040805180830381865afa15801561215f573d6000803e3d6000fd5b505050506040513d601f19601f820116820180604052508101906121839190613e17565b60405163c6f83ad160e01b8152306004820152602481018390526044810182905291935091506001600160a01b0384169063c6f83ad190606401600060405180830381600087803b1580156121d757600080fd5b505af11580156121eb573d6000803e3d6000fd5b5050505050505050565b6000805b825181101561153d5782818151811061221457612214613543565b6020026020010151826122279190613e3b565b91508061223381613d15565b9150506121f9565b60006001600160ff1b038211156122a55760405162461bcd60e51b815260206004820152602860248201527f53616665436173743a2076616c756520646f65736e27742066697420696e2061604482015267371034b73a191a9b60c11b60648201526084016108c7565b5090565b61232760405180610180016040528060006001600160a01b03168152602001600015158152602001600063ffffffff16815260200160006001600160d81b0316815260200160008152602001600081526020016000815260200160008152602001600081526020016000815260200160008152602001600081525090565b60a08401511580156123395750600083125b156123f85760035460808501516001600160a01b039091169063e62c0edf9061236186613e63565b60a088015160208901516040516001600160e01b031960e087901b1681526001600160a01b03909416600485015260248401929092526044830152606482018690521515608482015260a401610180604051808303816000875af11580156123cd573d6000803e3d6000fd5b505050506040513d601f19601f820116820180604052508101906123f1919061348d565b9050612578565b600c5460a0850151600480546040805163313ce56760e01b815290516001600160a01b039586169563c6aee6189561247f9590949091169263313ce56792818301926020928290030181865afa158015612456573d6000803e3d6000fd5b505050506040513d601f19601f8201168201806040525081019061247a9190613e7f565b612c90565b6040518263ffffffff1660e01b815260040161249d91815260200190565b600060405180830381600087803b1580156124b757600080fd5b505af11580156124cb573d6000803e3d6000fd5b5050600354608087015160a08801516040808a015160208b0151915163f115e8b560e01b81526001600160a01b039485166004820152602481018b90526044810193909352606483015260848201889052151560a48201529116925063f115e8b5915060c401610180604051808303816000875af1158015612551573d6000803e3d6000fd5b505050506040513d601f19601f82011682018060405250810190612575919061348d565b90505b6000546001600160a01b0316608082015160a083015160405163056b460360e31b8152600481019290925260248201526001600160a01b039190911690632b5a30189060440160006040518083038186803b1580156125d657600080fd5b505afa1580156125ea573d6000803e3d6000fd5b505050509392505050565b6000546003546008546001600160a01b0392831692631f21756a9286923092879281169116612624831561147c565b60405160e088901b6001600160e01b03191681526001600160a01b039687166004820152948616602486015292151560448501529084166064840152909216608482015260a481019190915260c401602060405180830381865afa158015612690573d6000803e3d6000fd5b505050506040513d601f19601f820116820180604052508101906126b49190613a75565b156108da5760405162461bcd60e51b815260206004820152601c60248201527f506f736974696f6e4164644d67723a73686f756c64276e74206c69710000000060448201526064016108c7565b60008112156127a2576008546004546001600160a01b039182169163d9caed1291163061273861273386600019613e9c565b612cc0565b6040516001600160e01b031960e086901b1681526001600160a01b0393841660048201529290911660248301526044820152606401600060405180830381600087803b15801561278757600080fd5b505af115801561279b573d6000803e3d6000fd5b5050505050565b6000811315610fe95760006128006127b983612cc0565b600480546040805163313ce56760e01b815290516001600160a01b039092169263313ce5679282820192602092908290030181865afa158015612456573d6000803e3d6000fd5b6004805460085460405163095ea7b360e01b81526001600160a01b039182169381019390935260248301849052929350919091169063095ea7b3906044016020604051808303816000875af115801561285d573d6000803e3d6000fd5b505050506040513d601f19601f820116820180604052508101906109039190613c74565b6040516370a0823160e01b81526001600160a01b038281166004830152600091908416906370a0823190602401602060405180830381865afa1580156128cb573d6000803e3d6000fd5b505050506040513d601f19601f820116820180604052508101906128ef9190613a75565b905060005b8451811015611cba5784818151811061290f5761290f613543565b60200260200101516001600160a01b031663612c39b76040518163ffffffff1660e01b8152600401606060405180830381865afa158015612954573d6000803e3d6000fd5b505050506040513d601f19601f820116820180604052508101906129789190613c91565b51156129f05784818151811061299057612990613543565b60200260200101516001600160a01b03166340a542fe886040518263ffffffff1660e01b81526004016129c39190613ecc565b600060405180830381600087803b1580156129dd57600080fd5b505af19250505080156129ee575060015b505b806129fa81613d15565b9150506128f4565b60408051600380825260808201909252906020820160608036833750505060c08301521515606090910152565b612a3881612d12565b6001600160801b031660c09092019190915250565b80612a59576002612a5c565b60015b60ff1660409092019190915250565b6000816040015160ff16600103612a8457506001919050565b816040015160ff16600203612a9b57506000919050565b60405162461bcd60e51b815260206004820152601b60248201527f696e76616c6964206f7264657220747269676765722061626f7665000000000060448201526064016108c7565b60606107dd6001600160a01b03831660145b60606000612b04836002613f51565b612b0f906002613f68565b6001600160401b03811115612b2657612b26612ea7565b6040519080825280601f01601f191660200182016040528015612b50576020820181803683370190505b509050600360fc1b81600081518110612b6b57612b6b613543565b60200101906001600160f81b031916908160001a905350600f60fb1b81600181518110612b9a57612b9a613543565b60200101906001600160f81b031916908160001a9053506000612bbe846002613f51565b612bc9906001613f68565b90505b6001811115612c41576f181899199a1a9b1b9c1cb0b131b232b360811b85600f1660108110612bfd57612bfd613543565b1a60f81b828281518110612c1357612c13613543565b60200101906001600160f81b031916908160001a90535060049490941c93612c3a81613f7b565b9050612bcc565b5083156119de5760405162461bcd60e51b815260206004820181905260248201527f537472696e67733a20686578206c656e67746820696e73756666696369656e7460448201526064016108c7565b6000612c9e6012600a614076565b612cac60ff8416600a614085565b612cb69085613f51565b6119de9190614091565b6000808212156122a55760405162461bcd60e51b815260206004820181905260248201527f53616665436173743a2076616c7565206d75737420626520706f73697469766560448201526064016108c7565b60006001600160801b038211156122a55760405162461bcd60e51b815260206004820152602760248201527f53616665436173743a2076616c756520646f65736e27742066697420696e20316044820152663238206269747360c81b60648201526084016108c7565b6040805160e08082018352600080835260208084018290528385018290526060808501839052608080860184905286516101a081018852848152928301849052958201839052810182905293840181905260a084810182905260c0850182905291840181905261010084018190526101208401819052610140840181905261016084018190526101808401529091908201908152602001606081525090565b600060208284031215612e2c57600080fd5b81356001600160e01b0319811681146119de57600080fd5b60005b83811015612e5f578181015183820152602001612e47565b50506000910152565b60008151808452612e80816020860160208601612e44565b601f01601f19169290920160200192915050565b6020815260006119de6020830184612e68565b634e487b7160e01b600052604160045260246000fd5b6040516101e081016001600160401b0381118282101715612ee057612ee0612ea7565b60405290565b6040516101a081016001600160401b0381118282101715612ee057612ee0612ea7565b60405161018081016001600160401b0381118282101715612ee057612ee0612ea7565b604051601f8201601f191681016001600160401b0381118282101715612f5457612f54612ea7565b604052919050565b60ff81168114610fe957600080fd5b8035612f7681612f5c565b919050565b63ffffffff81168114610fe957600080fd5b8035612f7681612f7b565b6001600160a01b0381168114610fe957600080fd5b8035612f7681612f98565b65ffffffffffff81168114610fe957600080fd5b8035612f7681612fb8565b6001600160801b0381168114610fe957600080fd5b8035612f7681612fd7565b6001600160401b0381168114610fe957600080fd5b8035612f7681612ff7565b8015158114610fe957600080fd5b8035612f7681613017565b60006001600160401b0382111561304957613049612ea7565b5060051b60200190565b600082601f83011261306457600080fd5b8135602061307961307483613030565b612f2c565b82815260059290921b8401810191818101908684111561309857600080fd5b8286015b848110156130b3578035835291830191830161309c565b509695505050505050565b60006101e082840312156130d157600080fd5b6130d9612ebd565b90506130e482612fad565b81526130f260208301613025565b60208201526040820135604082015261310d60608301613025565b606082015261311e60808301612fad565b608082015260a082013560a082015260c082013560c082015260e082013560e082015261010061314f818401613025565b90820152610120613161838201612f6b565b9082015261014061317383820161300c565b90820152610160828101359082015261018080830135908201526101a061319b818401612f6b565b908201526101c0828101356001600160401b038111156131ba57600080fd5b6131c685828601613053565b82840152505092915050565b6000808284036101c08112156131e757600080fd5b6101a0808212156131f757600080fd5b6131ff612ee6565b915061320a85612f6b565b825261321860208601612f8d565b602083015261322960408601612f6b565b604083015261323a60608601612fad565b606083015261324b60808601612fcc565b608083015261325c60a08601612fec565b60a083015261326d60c08601612fec565b60c083015261327e60e08601612fec565b60e0830152610100613291818701612fec565b908301526101206132a386820161300c565b908301526101406132b586820161300c565b908301526101606132c7868201612fec565b9083015261018085810135908301529092508301356001600160401b038111156132f057600080fd5b6132fc858286016130be565b9150509250929050565b60006020828403121561331857600080fd5b5035919050565b6000806040838503121561333257600080fd5b82359150602083013561334481612f98565b809150509250929050565b60006020828403121561336157600080fd5b81356119de81612f98565b60006020828403121561337e57600080fd5b81356001600160401b0381111561339457600080fd5b6133a0848285016130be565b949350505050565b600080604083850312156133bb57600080fd5b82356133c681613017565b9150602083013561334481613017565b6000806000606084860312156133eb57600080fd5b83356133f681613017565b9250602084013561340681613017565b9150604084013561341681612f98565b809150509250925092565b600181811c9082168061343557607f821691505b60208210810361153d57634e487b7160e01b600052602260045260246000fd5b8051612f7681612f98565b8051612f7681613017565b8051612f7681612f7b565b80516001600160d81b0381168114612f7657600080fd5b600061018082840312156134a057600080fd5b6134a8612f09565b6134b183613455565b81526134bf60208401613460565b60208201526134d06040840161346b565b60408201526134e160608401613476565b60608201526080838101519082015260a0808401519082015260c0808401519082015260e08084015190820152610100808401519082015261012080840151908201526101408084015190820152610160928301519281019290925250919050565b634e487b7160e01b600052603260045260246000fd5b805160ff1682526020810151613577602084018263ffffffff169052565b50604081015161358c604084018260ff169052565b5060608101516135a760608401826001600160a01b03169052565b5060808101516135c1608084018265ffffffffffff169052565b5060a08101516135dc60a08401826001600160801b03169052565b5060c08101516135f760c08401826001600160801b03169052565b5060e081015161361260e08401826001600160801b03169052565b50610100818101516001600160801b038116848301525050610120818101516001600160401b038116848301525050610140818101516001600160401b038116848301525050610160818101516001600160801b03811684830152505061018090810151910152565b600081518084526020808501945080840160005b838110156136ab5781518752958201959082019060010161368f565b509495945050505050565b600061026060018060a01b0383511684526020830151151560208501526040830151604085015260608301511515606085015260808301511515608085015260a083015161370760a0860182613559565b5060c0830151816102408601526137208286018261367b565b95945050505050565b6000602080830181845280855180835260408601915060408160051b870101925083870160005b8281101561377e57603f1988860301845261376c8583516136b6565b94509285019290850190600101613750565b5092979650505050505050565b8051612f7681612f5c565b8051612f7681612fb8565b8051612f7681612fd7565b8051612f7681612ff7565b600060208083850312156137ca57600080fd5b82516001600160401b038111156137e057600080fd5b8301601f810185136137f157600080fd5b80516137ff61307482613030565b8181526101a0918202830184019184820191908884111561381f57600080fd5b938501935b838510156139265780858a03121561383c5760008081fd5b613844612ee6565b61384d8661378b565b815261385a87870161346b565b87820152604061386b81880161378b565b90820152606061387c878201613455565b90820152608061388d878201613796565b9082015260a061389e8782016137a1565b9082015260c06138af8782016137a1565b9082015260e06138c08782016137a1565b908201526101006138d28782016137a1565b908201526101206138e48782016137ac565b908201526101406138f68782016137ac565b908201526101606139088782016137a1565b90820152610180868101519082015283529384019391850191613824565b50979650505050505050565b80516001600160a01b0316825260006101e06020830151613957602086018215159052565b50604083015160408501526060830151613975606086018215159052565b50608083015161399060808601826001600160a01b03169052565b5060a083015160a085015260c083015160c085015260e083015160e0850152610100808401516139c38287018215159052565b50506101208381015160ff90811691860191909152610140808501516001600160401b031690860152610160808501519086015261018080850151908601526101a080850151909116908501526101c080840151818601839052613a298387018261367b565b9695505050505050565b6020815260006119de6020830184613932565b634e487b7160e01b600052601160045260246000fd5b60ff81811683821601908111156107dd576107dd613a46565b600060208284031215613a8757600080fd5b5051919050565b80516001600160a01b031682526020810151613aae602084018215159052565b506040810151613ac6604084018263ffffffff169052565b506060810151613ae160608401826001600160d81b03169052565b506080818101519083015260a0808201519083015260c0808201519083015260e0808201519083015261010080820151908301526101208082015190830152610140808201519083015261016090810151910152565b60006101a0808352613b4b81840186613932565b9150506119de6020830184613a8e565b60006020808385031215613b6e57600080fd5b82516001600160401b03811115613b8457600080fd5b8301601f81018513613b9557600080fd5b8051613ba361307482613030565b81815260059190911b82018301908381019087831115613bc257600080fd5b928401925b82841015613be057835182529284019290840190613bc7565b979650505050505050565b60006101c0808352613bff81840187613932565b9050613c0e6020840186613a8e565b8281036101a0840152613a29818561367b565b8181036000831280158383131683831282161715613c4157613c41613a46565b5092915050565b6001600160a01b038481168252831660208201526060604082018190526000906137209083018461367b565b600060208284031215613c8657600080fd5b81516119de81613017565b600060608284031215613ca357600080fd5b604051606081018181106001600160401b0382111715613cc557613cc5612ea7565b6040528251613cd381613017565b81526020830151613ce381613017565b60208201526040830151613cf681613017565b60408201529392505050565b6020815260006119de60208301846136b6565b600060018201613d2757613d27613a46565b5060010190565b60208152613d40602082018351613559565b60006020830151610220806101c0850152613d5f610240850183613932565b915060ff6040860151166101e08501526060850151601f1985840301610200860152613d8b8382612e68565b925050608085015181850152508091505092915050565b7f416363657373436f6e74726f6c3a206163636f756e7420000000000000000000815260008351613dda816017850160208801612e44565b7001034b99036b4b9b9b4b733903937b6329607d1b6017918401918201528351613e0b816028840160208801612e44565b01602801949350505050565b60008060408385031215613e2a57600080fd5b505080516020909101519092909150565b8082018281126000831280158216821582161715613e5b57613e5b613a46565b505092915050565b6000600160ff1b8201613e7857613e78613a46565b5060000390565b600060208284031215613e9157600080fd5b81516119de81612f5c565b80820260008212600160ff1b84141615613eb857613eb8613a46565b81810583148215176107dd576107dd613a46565b6020815260008251610220806020850152613eeb610240850183613932565b91506020850151613eff6040860182613a8e565b506040850151848303601f19016101c0860152613f1c838261367b565b60608701516001600160a01b039081166101e088015260808801511661020087015260a0909601519190940152509192915050565b80820281158282048414176107dd576107dd613a46565b808201808211156107dd576107dd613a46565b600081613f8a57613f8a613a46565b506000190190565b600181815b80851115613fcd578160001904821115613fb357613fb3613a46565b80851615613fc057918102915b93841c9390800290613f97565b509250929050565b600082613fe4575060016107dd565b81613ff1575060006107dd565b816001811461400757600281146140115761402d565b60019150506107dd565b60ff84111561402257614022613a46565b50506001821b6107dd565b5060208310610133831016604e8410600b8410161715614050575081810a6107dd565b61405a8383613f92565b806000190482111561406e5761406e613a46565b029392505050565b60006119de60ff841683613fd5565b60006119de8383613fd5565b6000826140ae57634e487b7160e01b600052601260045260246000fd5b50049056fea264697066735822122094241d2e9082132d7118ca60da87a28425a091bb0a1bb367beefd9abb154b04564736f6c63430008110033",
    "linkReferences": {}
  },
  "methodIdentifiers": {
    "DEFAULT_ADMIN_ROLE()": "a217fddf",
    "PLUGIN_GAS_LIMIT()": "63cd8dbd",
    "collateralToken()": "b2016bd4",
    "collateralTokenDigits()": "b21dc9cb",
    "execOrderKey((uint8,uint32,uint8,address,uint48,uint128,uint128,uint128,uint128,uint64,uint64,uint128,bytes32),(address,bool,uint256,bool,address,uint256,uint256,uint256,bool,uint8,uint64,bytes32,uint256,uint8,uint256[]))": "12de276c",
    "feeRouter()": "f29ebf61",
    "getRoleAdmin(bytes32)": "248a9ca3",
    "globalValid()": "c54dc3d6",
    "grantControllerRoleByMarketManager(address)": "7fe4a698",
    "grantRole(bytes32,address)": "2f2ff15d",
    "hasRole(bytes32,address)": "91d14854",
    "increasePositionWithOrders((address,bool,uint256,bool,address,uint256,uint256,uint256,bool,uint8,uint64,bytes32,uint256,uint8,uint256[]))": "3bdef83a",
    "indexToken()": "e7d015f2",
    "marketRouter()": "d12dbde4",
    "marketValid()": "b894300d",
    "name()": "06fdde03",
    "orderBookLong()": "7b2fd1e5",
    "orderBookShort()": "05ba9ae9",
    "orderMgr()": "a0cbf50c",
    "orderStore(bool,bool)": "a2640454",
    "owner()": "8da5cb5b",
    "plugins(uint256)": "f0a317eb",
    "positionAddMgr()": "d49ff78d",
    "positionBook()": "ac0b05a6",
    "positionStoreLong()": "07e87545",
    "positionStoreShort()": "45ccf5c5",
    "positionSubMgr()": "8a6ca35d",
    "priceFeed()": "741bef1a",
    "renounceOwnership()": "715018a6",
    "renounceRole(bytes32,address)": "36568abe",
    "revokeRole(bytes32,address)": "d547741f",
    "setCollateralToken(address)": "666181a9",
    "setFeeRouter(address)": "c267ada4",
    "setIndexToken(address)": "b82a35c5",
    "setMarketRouter(address)": "7dd5da8d",
    "setMarketValid(address)": "39955ed7",
    "setOraclePrice(address)": "af44f6b6",
    "setOrderStore(bool,bool,address)": "a620eb93",
    "setPositionBook(address)": "8d49701d",
    "setVaultRouter(address)": "780e72ff",
    "setorderBookLong(address)": "d7ec0a6d",
    "setorderBookShort(address)": "65e26e70",
    "supportsInterface(bytes4)": "01ffc9a7",
    "transferAdmin(address)": "75829def",
    "transferOwnership(address)": "f2fde38b",
    "vaultRouter()": "d37c441c"
  },
  "id": 51
}