{
  "abi": [
    {
      "inputs": [],
      "name": "MinOutError",
      "type": "error"
    },
    {
      "inputs": [],
      "name": "MinSharesError",
      "type": "error"
    },
    {
      "anonymous": false,
      "inputs": [
        {
          "indexed": true,
          "internalType": "address",
          "name": "owner",
          "type": "address"
        },
        {
          "indexed": true,
          "internalType": "address",
          "name": "approved",
          "type": "address"
        },
        {
          "indexed": true,
          "internalType": "uint256",
          "name": "tokenId",
          "type": "uint256"
        }
      ],
      "name": "Approval",
      "type": "event"
    },
    {
      "anonymous": false,
      "inputs": [
        {
          "indexed": true,
          "internalType": "address",
          "name": "owner",
          "type": "address"
        },
        {
          "indexed": true,
          "internalType": "address",
          "name": "operator",
          "type": "address"
        },
        {
          "indexed": false,
          "internalType": "bool",
          "name": "approved",
          "type": "bool"
        }
      ],
      "name": "ApprovalForAll",
      "type": "event"
    },
    {
      "anonymous": false,
      "inputs": [
        {
          "indexed": true,
          "internalType": "address",
          "name": "account",
          "type": "address"
        },
        {
          "indexed": false,
          "internalType": "uint256",
          "name": "rev",
          "type": "uint256"
        }
      ],
      "name": "ClaimBPT",
      "type": "event"
    },
    {
      "anonymous": false,
      "inputs": [
        {
          "indexed": true,
          "internalType": "address",
          "name": "account",
          "type": "address"
        },
        {
          "indexed": false,
          "internalType": "uint256",
          "name": "tradeVolume",
          "type": "uint256"
        },
        {
          "indexed": false,
          "internalType": "uint256",
          "name": "rewardAmount",
          "type": "uint256"
        },
        {
          "indexed": false,
          "internalType": "bool",
          "name": "isRef",
          "type": "bool"
        },
        {
          "indexed": false,
          "internalType": "bool",
          "name": "isFromNFT",
          "type": "bool"
        }
      ],
      "name": "Distribute",
      "type": "event"
    },
    {
      "anonymous": false,
      "inputs": [
        {
          "indexed": false,
          "internalType": "address",
          "name": "account",
          "type": "address"
        },
        {
          "indexed": false,
          "internalType": "uint256",
          "name": "amount",
          "type": "uint256"
        }
      ],
      "name": "Harvest",
      "type": "event"
    },
    {
      "anonymous": false,
      "inputs": [
        {
          "indexed": false,
          "internalType": "uint8",
          "name": "version",
          "type": "uint8"
        }
      ],
      "name": "Initialized",
      "type": "event"
    },
    {
      "anonymous": false,
      "inputs": [
        {
          "indexed": false,
          "internalType": "uint256",
          "name": "supply",
          "type": "uint256"
        },
        {
          "indexed": false,
          "internalType": "uint256",
          "name": "cumulativeRewardPerToken",
          "type": "uint256"
        }
      ],
      "name": "LogUpdatePool",
      "type": "event"
    },
    {
      "anonymous": false,
      "inputs": [
        {
          "indexed": true,
          "internalType": "address",
          "name": "previousOwner",
          "type": "address"
        },
        {
          "indexed": true,
          "internalType": "address",
          "name": "newOwner",
          "type": "address"
        }
      ],
      "name": "OwnershipTransferred",
      "type": "event"
    },
    {
      "anonymous": false,
      "inputs": [
        {
          "indexed": true,
          "internalType": "bytes32",
          "name": "role",
          "type": "bytes32"
        },
        {
          "indexed": true,
          "internalType": "bytes32",
          "name": "previousAdminRole",
          "type": "bytes32"
        },
        {
          "indexed": true,
          "internalType": "bytes32",
          "name": "newAdminRole",
          "type": "bytes32"
        }
      ],
      "name": "RoleAdminChanged",
      "type": "event"
    },
    {
      "anonymous": false,
      "inputs": [
        {
          "indexed": true,
          "internalType": "bytes32",
          "name": "role",
          "type": "bytes32"
        },
        {
          "indexed": true,
          "internalType": "address",
          "name": "account",
          "type": "address"
        },
        {
          "indexed": true,
          "internalType": "address",
          "name": "sender",
          "type": "address"
        }
      ],
      "name": "RoleGranted",
      "type": "event"
    },
    {
      "anonymous": false,
      "inputs": [
        {
          "indexed": true,
          "internalType": "bytes32",
          "name": "role",
          "type": "bytes32"
        },
        {
          "indexed": true,
          "internalType": "address",
          "name": "account",
          "type": "address"
        },
        {
          "indexed": true,
          "internalType": "address",
          "name": "sender",
          "type": "address"
        }
      ],
      "name": "RoleRevoked",
      "type": "event"
    },
    {
      "anonymous": false,
      "inputs": [
        {
          "indexed": true,
          "internalType": "address",
          "name": "from",
          "type": "address"
        },
        {
          "indexed": true,
          "internalType": "address",
          "name": "to",
          "type": "address"
        },
        {
          "indexed": true,
          "internalType": "uint256",
          "name": "tokenId",
          "type": "uint256"
        }
      ],
      "name": "Transfer",
      "type": "event"
    },
    {
      "inputs": [],
      "name": "BPTRewardToken",
      "outputs": [
        {
          "internalType": "address",
          "name": "",
          "type": "address"
        }
      ],
      "stateMutability": "view",
      "type": "function"
    },
    {
      "inputs": [],
      "name": "DEFAULT_ADMIN_ROLE",
      "outputs": [
        {
          "internalType": "bytes32",
          "name": "",
          "type": "bytes32"
        }
      ],
      "stateMutability": "view",
      "type": "function"
    },
    {
      "inputs": [],
      "name": "PRECISION",
      "outputs": [
        {
          "internalType": "uint256",
          "name": "",
          "type": "uint256"
        }
      ],
      "stateMutability": "view",
      "type": "function"
    },
    {
      "inputs": [
        {
          "internalType": "address",
          "name": "to",
          "type": "address"
        },
        {
          "internalType": "uint256",
          "name": "tokenId",
          "type": "uint256"
        }
      ],
      "name": "approve",
      "outputs": [],
      "stateMutability": "nonpayable",
      "type": "function"
    },
    {
      "inputs": [
        {
          "internalType": "address",
          "name": "",
          "type": "address"
        }
      ],
      "name": "averageStakedAmounts",
      "outputs": [
        {
          "internalType": "uint256",
          "name": "",
          "type": "uint256"
        }
      ],
      "stateMutability": "view",
      "type": "function"
    },
    {
      "inputs": [
        {
          "internalType": "address",
          "name": "owner",
          "type": "address"
        }
      ],
      "name": "balanceOf",
      "outputs": [
        {
          "internalType": "uint256",
          "name": "",
          "type": "uint256"
        }
      ],
      "stateMutability": "view",
      "type": "function"
    },
    {
      "inputs": [],
      "name": "baseURI",
      "outputs": [
        {
          "internalType": "string",
          "name": "",
          "type": "string"
        }
      ],
      "stateMutability": "view",
      "type": "function"
    },
    {
      "inputs": [
        {
          "internalType": "address",
          "name": "account",
          "type": "address"
        }
      ],
      "name": "claimForAccount",
      "outputs": [],
      "stateMutability": "nonpayable",
      "type": "function"
    },
    {
      "inputs": [],
      "name": "claimLPReward",
      "outputs": [],
      "stateMutability": "nonpayable",
      "type": "function"
    },
    {
      "inputs": [
        {
          "internalType": "address",
          "name": "_account",
          "type": "address"
        }
      ],
      "name": "claimable",
      "outputs": [
        {
          "internalType": "uint256",
          "name": "",
          "type": "uint256"
        }
      ],
      "stateMutability": "view",
      "type": "function"
    },
    {
      "inputs": [
        {
          "internalType": "address",
          "name": "",
          "type": "address"
        }
      ],
      "name": "claimableReward",
      "outputs": [
        {
          "internalType": "uint256",
          "name": "",
          "type": "uint256"
        }
      ],
      "stateMutability": "view",
      "type": "function"
    },
    {
      "inputs": [],
      "name": "cumulativeRewardPerToken",
      "outputs": [
        {
          "internalType": "uint256",
          "name": "",
          "type": "uint256"
        }
      ],
      "stateMutability": "view",
      "type": "function"
    },
    {
      "inputs": [
        {
          "internalType": "address",
          "name": "account",
          "type": "address"
        },
        {
          "internalType": "uint256",
          "name": "_tradeVolume",
          "type": "uint256"
        },
        {
          "internalType": "bool",
          "name": "isRef",
          "type": "bool"
        }
      ],
      "name": "distribute",
      "outputs": [],
      "stateMutability": "nonpayable",
      "type": "function"
    },
    {
      "inputs": [],
      "name": "distributor",
      "outputs": [
        {
          "internalType": "address",
          "name": "",
          "type": "address"
        }
      ],
      "stateMutability": "view",
      "type": "function"
    },
    {
      "inputs": [
        {
          "internalType": "uint256",
          "name": "tokenId",
          "type": "uint256"
        }
      ],
      "name": "getApproved",
      "outputs": [
        {
          "internalType": "address",
          "name": "",
          "type": "address"
        }
      ],
      "stateMutability": "view",
      "type": "function"
    },
    {
      "inputs": [],
      "name": "getLPReward",
      "outputs": [
        {
          "internalType": "uint256",
          "name": "",
          "type": "uint256"
        }
      ],
      "stateMutability": "view",
      "type": "function"
    },
    {
      "inputs": [
        {
          "internalType": "bytes32",
          "name": "role",
          "type": "bytes32"
        }
      ],
      "name": "getRoleAdmin",
      "outputs": [
        {
          "internalType": "bytes32",
          "name": "",
          "type": "bytes32"
        }
      ],
      "stateMutability": "view",
      "type": "function"
    },
    {
      "inputs": [
        {
          "internalType": "address",
          "name": "_user",
          "type": "address"
        }
      ],
      "name": "getUserNFTIds",
      "outputs": [
        {
          "internalType": "uint256[]",
          "name": "_ids",
          "type": "uint256[]"
        },
        {
          "internalType": "uint256[]",
          "name": "_lpAmounts",
          "type": "uint256[]"
        }
      ],
      "stateMutability": "view",
      "type": "function"
    },
    {
      "inputs": [
        {
          "internalType": "address",
          "name": "_account",
          "type": "address"
        }
      ],
      "name": "grantControllerRoleByMarketManager",
      "outputs": [],
      "stateMutability": "nonpayable",
      "type": "function"
    },
    {
      "inputs": [
        {
          "internalType": "bytes32",
          "name": "role",
          "type": "bytes32"
        },
        {
          "internalType": "address",
          "name": "account",
          "type": "address"
        }
      ],
      "name": "grantRole",
      "outputs": [],
      "stateMutability": "nonpayable",
      "type": "function"
    },
    {
      "inputs": [
        {
          "internalType": "bytes32",
          "name": "role",
          "type": "bytes32"
        },
        {
          "internalType": "address",
          "name": "account",
          "type": "address"
        }
      ],
      "name": "hasRole",
      "outputs": [
        {
          "internalType": "bool",
          "name": "",
          "type": "bool"
        }
      ],
      "stateMutability": "view",
      "type": "function"
    },
    {
      "inputs": [
        {
          "internalType": "string",
          "name": "_name",
          "type": "string"
        },
        {
          "internalType": "string",
          "name": "_symbol",
          "type": "string"
        },
        {
          "internalType": "string",
          "name": "_baseU",
          "type": "string"
        },
        {
          "internalType": "address",
          "name": "_BPTRewardToken",
          "type": "address"
        },
        {
          "internalType": "address",
          "name": "_vaultReward",
          "type": "address"
        },
        {
          "internalType": "uint256",
          "name": "_maxNFT",
          "type": "uint256"
        }
      ],
      "name": "initialize",
      "outputs": [],
      "stateMutability": "nonpayable",
      "type": "function"
    },
    {
      "inputs": [
        {
          "internalType": "address",
          "name": "owner",
          "type": "address"
        },
        {
          "internalType": "address",
          "name": "operator",
          "type": "address"
        }
      ],
      "name": "isApprovedForAll",
      "outputs": [
        {
          "internalType": "bool",
          "name": "",
          "type": "bool"
        }
      ],
      "stateMutability": "view",
      "type": "function"
    },
    {
      "inputs": [
        {
          "internalType": "uint256",
          "name": "",
          "type": "uint256"
        }
      ],
      "name": "lpAmount",
      "outputs": [
        {
          "internalType": "uint256",
          "name": "",
          "type": "uint256"
        }
      ],
      "stateMutability": "view",
      "type": "function"
    },
    {
      "inputs": [
        {
          "internalType": "address",
          "name": "",
          "type": "address"
        }
      ],
      "name": "lpEarnedRewards",
      "outputs": [
        {
          "internalType": "uint256",
          "name": "",
          "type": "uint256"
        }
      ],
      "stateMutability": "view",
      "type": "function"
    },
    {
      "inputs": [],
      "name": "maxNFT",
      "outputs": [
        {
          "internalType": "uint256",
          "name": "",
          "type": "uint256"
        }
      ],
      "stateMutability": "view",
      "type": "function"
    },
    {
      "inputs": [],
      "name": "mint",
      "outputs": [],
      "stateMutability": "nonpayable",
      "type": "function"
    },
    {
      "inputs": [],
      "name": "mintAutoIncreaseId",
      "outputs": [
        {
          "internalType": "uint256",
          "name": "",
          "type": "uint256"
        }
      ],
      "stateMutability": "view",
      "type": "function"
    },
    {
      "inputs": [
        {
          "internalType": "address",
          "name": "acc",
          "type": "address"
        }
      ],
      "name": "mintForAccount",
      "outputs": [],
      "stateMutability": "nonpayable",
      "type": "function"
    },
    {
      "inputs": [],
      "name": "name",
      "outputs": [
        {
          "internalType": "string",
          "name": "",
          "type": "string"
        }
      ],
      "stateMutability": "view",
      "type": "function"
    },
    {
      "inputs": [],
      "name": "owner",
      "outputs": [
        {
          "internalType": "address",
          "name": "",
          "type": "address"
        }
      ],
      "stateMutability": "view",
      "type": "function"
    },
    {
      "inputs": [
        {
          "internalType": "uint256",
          "name": "tokenId",
          "type": "uint256"
        }
      ],
      "name": "ownerOf",
      "outputs": [
        {
          "internalType": "address",
          "name": "",
          "type": "address"
        }
      ],
      "stateMutability": "view",
      "type": "function"
    },
    {
      "inputs": [
        {
          "internalType": "address",
          "name": "",
          "type": "address"
        }
      ],
      "name": "pendingBPTReward",
      "outputs": [
        {
          "internalType": "uint256",
          "name": "",
          "type": "uint256"
        }
      ],
      "stateMutability": "view",
      "type": "function"
    },
    {
      "inputs": [],
      "name": "pendingRewards",
      "outputs": [
        {
          "internalType": "uint256",
          "name": "",
          "type": "uint256"
        }
      ],
      "stateMutability": "view",
      "type": "function"
    },
    {
      "inputs": [
        {
          "internalType": "address",
          "name": "",
          "type": "address"
        }
      ],
      "name": "previousCumulatedRewardPerToken",
      "outputs": [
        {
          "internalType": "uint256",
          "name": "",
          "type": "uint256"
        }
      ],
      "stateMutability": "view",
      "type": "function"
    },
    {
      "inputs": [],
      "name": "price",
      "outputs": [
        {
          "internalType": "uint256",
          "name": "",
          "type": "uint256"
        }
      ],
      "stateMutability": "view",
      "type": "function"
    },
    {
      "inputs": [],
      "name": "receiveToken",
      "outputs": [
        {
          "internalType": "address",
          "name": "",
          "type": "address"
        }
      ],
      "stateMutability": "view",
      "type": "function"
    },
    {
      "inputs": [],
      "name": "refVolPct",
      "outputs": [
        {
          "internalType": "uint256",
          "name": "",
          "type": "uint256"
        }
      ],
      "stateMutability": "view",
      "type": "function"
    },
    {
      "inputs": [],
      "name": "renounceOwnership",
      "outputs": [],
      "stateMutability": "nonpayable",
      "type": "function"
    },
    {
      "inputs": [
        {
          "internalType": "bytes32",
          "name": "",
          "type": "bytes32"
        },
        {
          "internalType": "address",
          "name": "",
          "type": "address"
        }
      ],
      "name": "renounceRole",
      "outputs": [],
      "stateMutability": "nonpayable",
      "type": "function"
    },
    {
      "inputs": [
        {
          "internalType": "bytes32",
          "name": "role",
          "type": "bytes32"
        },
        {
          "internalType": "address",
          "name": "account",
          "type": "address"
        }
      ],
      "name": "revokeRole",
      "outputs": [],
      "stateMutability": "nonpayable",
      "type": "function"
    },
    {
      "inputs": [],
      "name": "rewardToken",
      "outputs": [
        {
          "internalType": "address",
          "name": "",
          "type": "address"
        }
      ],
      "stateMutability": "view",
      "type": "function"
    },
    {
      "inputs": [
        {
          "internalType": "address",
          "name": "from",
          "type": "address"
        },
        {
          "internalType": "address",
          "name": "to",
          "type": "address"
        },
        {
          "internalType": "uint256",
          "name": "tokenId",
          "type": "uint256"
        }
      ],
      "name": "safeTransferFrom",
      "outputs": [],
      "stateMutability": "nonpayable",
      "type": "function"
    },
    {
      "inputs": [
        {
          "internalType": "address",
          "name": "from",
          "type": "address"
        },
        {
          "internalType": "address",
          "name": "to",
          "type": "address"
        },
        {
          "internalType": "uint256",
          "name": "tokenId",
          "type": "uint256"
        },
        {
          "internalType": "bytes",
          "name": "data",
          "type": "bytes"
        }
      ],
      "name": "safeTransferFrom",
      "outputs": [],
      "stateMutability": "nonpayable",
      "type": "function"
    },
    {
      "inputs": [
        {
          "internalType": "address",
          "name": "operator",
          "type": "address"
        },
        {
          "internalType": "bool",
          "name": "approved",
          "type": "bool"
        }
      ],
      "name": "setApprovalForAll",
      "outputs": [],
      "stateMutability": "nonpayable",
      "type": "function"
    },
    {
      "inputs": [
        {
          "internalType": "uint256",
          "name": "_p",
          "type": "uint256"
        }
      ],
      "name": "setPrice",
      "outputs": [],
      "stateMutability": "nonpayable",
      "type": "function"
    },
    {
      "inputs": [
        {
          "internalType": "uint256",
          "name": "amount",
          "type": "uint256"
        }
      ],
      "name": "setRefVolPct",
      "outputs": [],
      "stateMutability": "nonpayable",
      "type": "function"
    },
    {
      "inputs": [
        {
          "internalType": "uint256",
          "name": "amount",
          "type": "uint256"
        }
      ],
      "name": "setVolumePerReward",
      "outputs": [],
      "stateMutability": "nonpayable",
      "type": "function"
    },
    {
      "inputs": [
        {
          "internalType": "bytes4",
          "name": "interfaceId",
          "type": "bytes4"
        }
      ],
      "name": "supportsInterface",
      "outputs": [
        {
          "internalType": "bool",
          "name": "",
          "type": "bool"
        }
      ],
      "stateMutability": "view",
      "type": "function"
    },
    {
      "inputs": [],
      "name": "symbol",
      "outputs": [
        {
          "internalType": "string",
          "name": "",
          "type": "string"
        }
      ],
      "stateMutability": "view",
      "type": "function"
    },
    {
      "inputs": [
        {
          "internalType": "uint256",
          "name": "tokenId",
          "type": "uint256"
        }
      ],
      "name": "tokenURI",
      "outputs": [
        {
          "internalType": "string",
          "name": "",
          "type": "string"
        }
      ],
      "stateMutability": "view",
      "type": "function"
    },
    {
      "inputs": [],
      "name": "tokensPerInterval",
      "outputs": [
        {
          "internalType": "uint256",
          "name": "",
          "type": "uint256"
        }
      ],
      "stateMutability": "view",
      "type": "function"
    },
    {
      "inputs": [
        {
          "internalType": "address",
          "name": "to",
          "type": "address"
        }
      ],
      "name": "transferAdmin",
      "outputs": [],
      "stateMutability": "nonpayable",
      "type": "function"
    },
    {
      "inputs": [
        {
          "internalType": "address",
          "name": "from",
          "type": "address"
        },
        {
          "internalType": "address",
          "name": "to",
          "type": "address"
        },
        {
          "internalType": "uint256",
          "name": "tokenId",
          "type": "uint256"
        }
      ],
      "name": "transferFrom",
      "outputs": [],
      "stateMutability": "nonpayable",
      "type": "function"
    },
    {
      "inputs": [
        {
          "internalType": "address",
          "name": "newOwner",
          "type": "address"
        }
      ],
      "name": "transferOwnership",
      "outputs": [],
      "stateMutability": "nonpayable",
      "type": "function"
    },
    {
      "inputs": [],
      "name": "updateRewards",
      "outputs": [],
      "stateMutability": "nonpayable",
      "type": "function"
    },
    {
      "inputs": [],
      "name": "vault",
      "outputs": [
        {
          "internalType": "address",
          "name": "",
          "type": "address"
        }
      ],
      "stateMutability": "view",
      "type": "function"
    },
    {
      "inputs": [],
      "name": "volumePerReward",
      "outputs": [
        {
          "internalType": "uint256",
          "name": "",
          "type": "uint256"
        }
      ],
      "stateMutability": "view",
      "type": "function"
    }
  ],
  "bytecode": {
    "object": "0x60806040523480156200001157600080fd5b506200001d3362000028565b60016009556200007a565b600780546001600160a01b038381166001600160a01b0319831681179093556040519116919082907f8be0079c531659141344cd1fd0a4f28419497f9722a3daafe3b4186f6b6457e090600090a35050565b613a7a806200008a6000396000f3fe608060405234801561001057600080fd5b506004361061038e5760003560e01c8063a035b1fe116101de578063d22da1141161010f578063e985e9c5116100ad578063f2fde38b1161007c578063f2fde38b146107c2578063f5fc5076146107d5578063f7c618c1146107de578063fbfa77cf146107e657600080fd5b8063e985e9c514610758578063e9ba77fb14610794578063eded3fda146107a7578063f16a4c79146107af57600080fd5b8063e456b01c116100e9578063e456b01c14610706578063e547bb911461070f578063e6b1fa2a14610717578063e95034251461073857600080fd5b8063d22da114146106c0578063d547741f146106e0578063de8c339b146106f357600080fd5b8063aaf5eb681161017c578063b88d4fde11610156578063b88d4fde1461067e578063bfe1092814610691578063c87b56dd146106a4578063c9ef247d146106b757600080fd5b8063aaf5eb6814610638578063ae8bcdf81461064b578063afd6a5cc1461066b57600080fd5b8063a3180217116101b8578063a3180217146105f4578063a3b3702d14610614578063a85a8afd1461061d578063a8d936271461063057600080fd5b8063a035b1fe146105d0578063a217fddf146105d9578063a22cb465146105e157600080fd5b806344a08411116102c35780637fe4a6981161026157806391b7f5ed1161023057806391b7f5ed1461058f57806391d14854146105a257806395d89b41146105b557806396e35cea146105bd57600080fd5b80637fe4a698146105505780638da5cb5b146105635780638f089d6514610574578063902745061461057c57600080fd5b80636c0360eb1161029d5780636c0360eb1461051a57806370a0823114610522578063715018a61461053557806375829def1461053d57600080fd5b806344a08411146104de578063546b5e6e146104fe5780636352211e1461050757600080fd5b806323b872dd1161033057806336568abe1161030a57806336568abe146104a25780633e158b0c146104b0578063402914f5146104b857806342842e0e146104cb57600080fd5b806323b872dd14610459578063248a9ca31461046c5780632f2ff15d1461048f57600080fd5b8063081812fc1161036c578063081812fc146103fe578063095ea7b31461042957806311c62de81461043e5780631249c58b1461045157600080fd5b806301ffc9a71461039357806304cbfae5146103bb57806306fdde03146103e9575b600080fd5b6103a66103a1366004613073565b6107f9565b60405190151581526020015b60405180910390f35b6103db6103c9366004613090565b601a6020526000908152604090205481565b6040519081526020016103b2565b6103f161085a565b6040516103b291906130f9565b61041161040c366004613090565b6108ec565b6040516001600160a01b0390911681526020016103b2565b61043c610437366004613121565b610913565b005b61043c61044c366004613090565b601555565b61043c610a2d565b61043c61046736600461314d565b610a4a565b6103db61047a366004613090565b60009081526006602052604090206001015490565b61043c61049d36600461318e565b610a7b565b61043c61038e36600461318e565b61043c610aa0565b6103db6104c63660046131be565b610ab2565b61043c6104d936600461314d565b610ba2565b6103db6104ec3660046131be565b600b6020526000908152604090205481565b6103db60145481565b610411610515366004613090565b610bbd565b6103f1610c1d565b6103db6105303660046131be565b610cab565b61043c610d31565b61043c61054b3660046131be565b610d43565b61043c61055e3660046131be565b610db7565b6007546001600160a01b0316610411565b6103db610de1565b61043c61058a3660046131e9565b610e28565b61043c61059d366004613090565b610fe5565b6103a66105b036600461318e565b611015565b6103f1611040565b61043c6105cb3660046132d7565b61104f565b6103db60165481565b6103db600081565b61043c6105ef36600461338f565b611383565b6103db6106023660046131be565b600e6020526000908152604090205481565b6103db60185481565b601254610411906001600160a01b031681565b6103db61138e565b6103db68327cb2734119d3b7a9601e1b81565b6103db6106593660046131be565b600c6020526000908152604090205481565b61043c6106793660046131be565b6113fc565b61043c61068c3660046133bd565b6114e3565b601354610411906001600160a01b031681565b6103f16106b2366004613090565b611515565b6103db60155481565b6103db6106ce3660046131be565b60196020526000908152604090205481565b61043c6106ee36600461318e565b61157c565b61043c610701366004613090565b601455565b6103db60175481565b61043c6115a1565b61072a6107253660046131be565b6115c7565b6040516103b2929190613478565b6103db6107463660046131be565b600d6020526000908152604090205481565b6103a66107663660046134a6565b6001600160a01b03918216600090815260056020908152604080832093909416825291909152205460ff1690565b601054610411906001600160a01b031681565b6103db6116a3565b61043c6107bd3660046131be565b6116ae565b61043c6107d03660046131be565b6116f2565b6103db600a5481565b610411611768565b601154610411906001600160a01b031681565b60006001600160e01b031982166380ac58cd60e01b148061082a57506001600160e01b03198216635b5e139f60e01b145b8061084557506001600160e01b03198216637965db0b60e01b145b806108545750610854826117d6565b92915050565b606060008054610869906134d4565b80601f0160208091040260200160405190810160405280929190818152602001828054610895906134d4565b80156108e25780601f106108b7576101008083540402835291602001916108e2565b820191906000526020600020905b8154815290600101906020018083116108c557829003601f168201915b5050505050905090565b60006108f7826117fb565b506000908152600460205260409020546001600160a01b031690565b600061091e82610bbd565b9050806001600160a01b0316836001600160a01b0316036109905760405162461bcd60e51b815260206004820152602160248201527f4552433732313a20617070726f76616c20746f2063757272656e74206f776e656044820152603960f91b60648201526084015b60405180910390fd5b336001600160a01b03821614806109ac57506109ac8133610766565b610a1e5760405162461bcd60e51b815260206004820152603d60248201527f4552433732313a20617070726f76652063616c6c6572206973206e6f7420746f60448201527f6b656e206f776e6572206f7220617070726f76656420666f7220616c6c0000006064820152608401610987565b610a28838361185a565b505050565b610a356118c8565b610a3e33611921565b610a486001600955565b565b610a543382611ab0565b610a705760405162461bcd60e51b815260040161098790613508565b610a28838383611b2f565b600082815260066020526040902060010154610a9681611ca8565b610a288383611cb2565b610aa86118c8565b610a3e6000611d38565b600080610abe83611f53565b905080600003610ae55750506001600160a01b03166000908152600d602052604090205490565b6000610aef611fce565b90506000610b1168327cb2734119d3b7a9601e1b610b0b612017565b90612061565b90506000610b2b610b22838561206d565b600a5490612079565b6001600160a01b0387166000908152600b6020526040902054909150610b9890610b799068327cb2734119d3b7a9601e1b90610b7390610b6c908690612085565b8890612061565b9061206d565b6001600160a01b0388166000908152600d602052604090205490612079565b9695505050505050565b610a28838383604051806020016040528060008152506114e3565b6000818152600260205260408120546001600160a01b0316806108545760405162461bcd60e51b8152602060048201526018602482015277115490cdcc8c4e881a5b9d985b1a59081d1bdad95b88125160421b6044820152606401610987565b600f8054610c2a906134d4565b80601f0160208091040260200160405190810160405280929190818152602001828054610c56906134d4565b8015610ca35780601f10610c7857610100808354040283529160200191610ca3565b820191906000526020600020905b815481529060010190602001808311610c8657829003601f168201915b505050505081565b60006001600160a01b038216610d155760405162461bcd60e51b815260206004820152602960248201527f4552433732313a2061646472657373207a65726f206973206e6f7420612076616044820152683634b21037bbb732b960b91b6064820152608401610987565b506001600160a01b031660009081526003602052604090205490565b610d39612091565b610a4860006120eb565b6000610d4e81611ca8565b6001600160a01b038216610d945760405162461bcd60e51b815260206004820152600d60248201526c217a65726f206164647265737360981b6044820152606401610987565b610d9f60008361213d565b610da8826120eb565b610db3600033612147565b5050565b7f8d1089725c0dc266707fa6207730fb801dcd03108bfed7a21099bd303651d2b761038e81611ca8565b336000908152600c60205260408120548103610dfd5750600090565b336000908152600d6020908152604080832054600c90925290912054610e23919061356b565b905090565b816000610e3485610cab565b1115610e4857610e4560028261357e565b90505b8115610e765768327cb2734119d3b7a9601e1b81601454610e69919061357e565b610e739190613595565b90505b601554610e839082613595565b6001600160a01b038516600090815260196020526040812080549293508392909190610eb09084906135b7565b9091555060009050610ec185610cab565b1115610f8a576001600160a01b0384167f5e56901bf1fe881529ada34a9191d8ecd8ffbed2d82726f246b50d564dcaeaf484610efe600285613595565b604080519283526020830191909152851515908201526001606082015260800160405180910390a26001600160a01b0384167f5e56901bf1fe881529ada34a9191d8ecd8ffbed2d82726f246b50d564dcaeaf484610f5d600285613595565b604080519283526020830191909152851515908201526000606082015260800160405180910390a2610fdf565b6040805184815260208101839052831515818301526000606082015290516001600160a01b038616917f5e56901bf1fe881529ada34a9191d8ecd8ffbed2d82726f246b50d564dcaeaf4919081900360800190a25b50505050565b7fcb6bc1c12dd43bca8d7dd46d975f913325437d0dcd5978e99d515e4ad39b977261100f81611ca8565b50601655565b60009182526006602090815260408084206001600160a01b0393909316845291905290205460ff1690565b606060018054610869906134d4565b600754600160a81b900460ff161580801561107757506007546001600160a01b90910460ff16105b806110985750303b1580156110985750600754600160a01b900460ff166001145b6110fb5760405162461bcd60e51b815260206004820152602e60248201527f496e697469616c697a61626c653a20636f6e747261637420697320616c72656160448201526d191e481a5b9a5d1a585b1a5e995960921b6064820152608401610987565b6007805460ff60a01b1916600160a01b1790558015611128576007805460ff60a81b1916600160a81b1790555b6111306121ae565b61113a87876121b7565b600f6111468682613618565b50601280546001600160a01b038087166001600160a01b03199283161790925560138054928616929091168217905560178390556040805163674ce1b560e01b8152905163674ce1b59160048082019260209290919082900301816000875af11580156111b7573d6000803e3d6000fd5b505050506040513d601f19601f820116820180604052508101906111db91906136d8565b601180546001600160a01b0319166001600160a01b03929092169182179055604080516338d52e0f60e01b815290516338d52e0f916004808201926020929091908290030181865afa158015611235573d6000803e3d6000fd5b505050506040513d601f19601f8201168201806040525081019061125991906136d8565b601080546001600160a01b0319166001600160a01b039290921691821790556040805163313ce56760e01b8152905163313ce567916004808201926020929091908290030181865afa1580156112b3573d6000803e3d6000fd5b505050506040513d601f19601f820116820180604052508101906112d791906136f5565b6112e290600a6137fc565b6112ee906104b061357e565b601655606461130a68327cb2734119d3b7a9601e1b600561357e565b6113149190613595565b6014556113236012600a6137fc565b61132f9061271061357e565b601555801561137a576007805460ff60a81b19169055604051600181527f7f26b83ff96e1f2b6a682f133852f6798a09c465da95921460cefb38474024989060200160405180910390a15b50505050505050565b610db33383836121d0565b6013546040805163a8d9362760e01b815290516000926001600160a01b03169163a8d936279160048083019260209291908290030181865afa1580156113d8573d6000803e3d6000fd5b505050506040513d601f19601f82011682018060405250810190610e23919061380b565b6114046118c8565b61140e818261229e565b6001600160a01b03818116600081815260196020526040908190205460125491516340c10f1960e01b81526004810193909352602483018190529216906340c10f1990604401600060405180830381600087803b15801561146e57600080fd5b505af1158015611482573d6000803e3d6000fd5b505050506001600160a01b03821660008181526019602090815260408083209290925590518381527f7c532847007928ea6d5fdfd33ac70ff4411c89e2220b3904727f7e57ccc667b9910160405180910390a2506114e06001600955565b50565b6114ed3383611ab0565b6115095760405162461bcd60e51b815260040161098790613508565b610fdf84848484612315565b6060611520826117fb565b600061152a612348565b9050600081511161154a5760405180602001604052806000815250611575565b8061155484612357565b604051602001611565929190613824565b6040516020818303038152906040525b9392505050565b60008281526006602052604090206001015461159781611ca8565b610a288383612147565b6115a96118c8565b6115b16123ea565b336115bc818061229e565b50610a486001600955565b6001600160a01b0381166000908152601b6020526040902060609081906115ed90612430565b9150815167ffffffffffffffff8111156116095761160961322b565b604051908082528060200260200182016040528015611632578160200160208202803683370190505b50905060005b825181101561169d57601a600084838151811061165757611657613853565b602002602001015181526020019081526020016000205482828151811061168057611680613853565b60209081029190910101528061169581613869565b915050611638565b50915091565b6000610e2333610ab2565b6116b66118c8565b6116df7fcb58d6d985142a614029cdf01861b4fe094d5919a47e69b8310dc4093d9d6ad0611ca8565b6116e881611921565b6114e06001600955565b6116fa612091565b6001600160a01b03811661175f5760405162461bcd60e51b815260206004820152602660248201527f4f776e61626c653a206e6577206f776e657220697320746865207a65726f206160448201526564647265737360d01b6064820152608401610987565b6114e0816120eb565b601154604080516338d52e0f60e01b815290516000926001600160a01b0316916338d52e0f9160048083019260209291908290030181865afa1580156117b2573d6000803e3d6000fd5b505050506040513d601f19601f82011682018060405250810190610e2391906136d8565b60006001600160e01b03198216637965db0b60e01b148061085457506108548261243d565b6000818152600260205260409020546001600160a01b03166114e05760405162461bcd60e51b8152602060048201526018602482015277115490cdcc8c4e881a5b9d985b1a59081d1bdad95b88125160421b6044820152606401610987565b600081815260046020526040902080546001600160a01b0319166001600160a01b038416908117909155819061188f82610bbd565b6001600160a01b03167f8c5be1e5ebec7d5bd14f71427d1e84f3dd0314c0f7b2291e5b200ac8c7c3b92560405160405180910390a45050565b60026009540361191a5760405162461bcd60e51b815260206004820152601f60248201527f5265656e7472616e637947756172643a207265656e7472616e742063616c6c006044820152606401610987565b6002600955565b60016018600082825461193491906135b7565b909155505060185460175481111561197c5760405162461bcd60e51b815260206004820152600b60248201526a1a5b9d985b1a590813919560aa1b6044820152606401610987565b601654601054611997906001600160a01b031684308461248d565b60105460135460405163095ea7b360e01b81526001600160a01b0391821660048201526024810184905291169063095ea7b3906044016020604051808303816000875af11580156119ec573d6000803e3d6000fd5b505050506040513d601f19601f82011682018060405250810190611a109190613882565b506013546011546040516354ea127160e11b81526001600160a01b039182166004820152306024820152604481018490526000606482015291169063a9d424e2906084016020604051808303816000875af1158015611a73573d6000803e3d6000fd5b505050506040513d601f19601f82011682018060405250810190611a97919061380b565b6000838152601a6020526040902055610a2883836124f8565b600080611abc83610bbd565b9050806001600160a01b0316846001600160a01b03161480611b0357506001600160a01b0380821660009081526005602090815260408083209388168352929052205460ff165b80611b275750836001600160a01b0316611b1c846108ec565b6001600160a01b0316145b949350505050565b826001600160a01b0316611b4282610bbd565b6001600160a01b031614611b685760405162461bcd60e51b81526004016109879061389f565b6001600160a01b038216611bca5760405162461bcd60e51b8152602060048201526024808201527f4552433732313a207472616e7366657220746f20746865207a65726f206164646044820152637265737360e01b6064820152608401610987565b611bd7838383600161269b565b826001600160a01b0316611bea82610bbd565b6001600160a01b031614611c105760405162461bcd60e51b81526004016109879061389f565b600081815260046020908152604080832080546001600160a01b03199081169091556001600160a01b0387811680865260038552838620805460001901905590871680865283862080546001019055868652600290945282852080549092168417909155905184937fddf252ad1be2c89b69c2b068fc378daa952ba7f163c4a11628f55a4df523b3ef91a4610a288383836001612723565b6114e0813361276f565b611cbc8282611015565b610db35760008281526006602090815260408083206001600160a01b03851684529091529020805460ff19166001179055611cf43390565b6001600160a01b0316816001600160a01b0316837f2f8788117e7eff1d82e926ec794901d17c78024a50270940304540a733656f0d60405160405180910390a45050565b6000611d426127c8565b90506000611d4e611fce565b600a549091508115801590611d635750600083115b15611dd55781611d7f68327cb2734119d3b7a9601e1b8561357e565b611d899190613595565b611d9390826135b7565b600a81905560408051848152602081018390529192507f055418cabed8a0ec732dd9b1f84e69d3f33a8f9a70d721b7a6962a00c26a4572910160405180910390a15b80600003611de35750505050565b6001600160a01b03841615610fdf576000611dfd85611f53565b6001600160a01b0386166000908152600b60205260408120549192509068327cb2734119d3b7a9601e1b90611e32908561356b565b611e3c908461357e565b611e469190613595565b6001600160a01b0387166000908152600d602052604081205491925090611e6e9083906135b7565b6001600160a01b0388166000908152600d60209081526040808320849055600b909152902085905590508015801590611eaf57506000611ead88611f53565b115b1561137a576001600160a01b0387166000908152600c6020526040812054611ed89084906135b7565b9050611f25611eeb82610b738787612061565b6001600160a01b038a166000908152600c6020908152604080832054600e90925290912054611f1f918591610b7391612061565b90612079565b6001600160a01b0389166000908152600e6020908152604080832093909355600c9052205550505050505050565b6000805b6001600160a01b0383166000908152601b60205260409020611f7890612813565b811015611fc8576001600160a01b0383166000908152601b60205260408120611fa1908361281d565b6000818152601a6020526040902054909150611fbd90846135b7565b925050600101611f57565b50919050565b6011546040516370a0823160e01b81523060048201526000916001600160a01b0316906370a0823190602401602060405180830381865afa1580156113d8573d6000803e3d6000fd5b601354604080516376f69fed60e11b815290516000926001600160a01b03169163eded3fda9160048083019260209291908290030181865afa1580156113d8573d6000803e3d6000fd5b6000611575828461357e565b60006115758284613595565b600061157582846135b7565b6000611575828461356b565b6007546001600160a01b03163314610a485760405162461bcd60e51b815260206004820181905260248201527f4f776e61626c653a2063616c6c6572206973206e6f7420746865206f776e65726044820152606401610987565b600780546001600160a01b038381166001600160a01b0319831681179093556040519116919082907f8be0079c531659141344cd1fd0a4f28419497f9722a3daafe3b4186f6b6457e090600090a35050565b610db38282611cb2565b6121518282611015565b15610db35760008281526006602090815260408083206001600160a01b0385168085529252808320805460ff1916905551339285917ff6391f5c32d9c69d2a47ea670b442974b53935d1edc7fd64eb21e047a839171b9190a45050565b610a4833612829565b60006121c38382613618565b506001610a288282613618565b816001600160a01b0316836001600160a01b0316036122315760405162461bcd60e51b815260206004820152601960248201527f4552433732313a20617070726f766520746f2063616c6c6572000000000000006044820152606401610987565b6001600160a01b03838116600081815260056020908152604080832094871680845294825291829020805460ff191686151590811790915591519182527f17307eab39ab6107e8899845ad3d59bd9653f200f220920489ca2b5937696c31910160405180910390a3505050565b6122a782611d38565b6001600160a01b0382166000908152600d6020526040812080549190556122ce828261284c565b604080516001600160a01b0384168152602081018390527fc9695243a805adb74c91f28311176c65b417e842d5699893cef56d18bfa48cba910160405180910390a1505050565b612320848484611b2f565b61232c84848484612869565b610fdf5760405162461bcd60e51b8152600401610987906138e4565b6060600f8054610869906134d4565b606060006123648361296a565b600101905060008167ffffffffffffffff8111156123845761238461322b565b6040519080825280601f01601f1916602001820160405280156123ae576020820181803683370190505b5090508181016020015b600019016f181899199a1a9b1b9c1cb0b131b232b360811b600a86061a8153600a85049450846123b857509392505050565b60006123f533610cab565b11610a485760405162461bcd60e51b815260206004820152600b60248201526a1b9bdd081bdddb881b999d60aa1b6044820152606401610987565b6060600061157583612a42565b60006001600160e01b031982166380ac58cd60e01b148061246e57506001600160e01b03198216635b5e139f60e01b145b8061085457506301ffc9a760e01b6001600160e01b0319831614610854565b6040516001600160a01b0380851660248301528316604482015260648101829052610fdf9085906323b872dd60e01b906084015b60408051601f198184030181529190526020810180516001600160e01b03166001600160e01b031990931692909217909152612a9e565b6001600160a01b03821661254e5760405162461bcd60e51b815260206004820181905260248201527f4552433732313a206d696e7420746f20746865207a65726f20616464726573736044820152606401610987565b6000818152600260205260409020546001600160a01b0316156125b35760405162461bcd60e51b815260206004820152601c60248201527f4552433732313a20746f6b656e20616c7265616479206d696e746564000000006044820152606401610987565b6125c160008383600161269b565b6000818152600260205260409020546001600160a01b0316156126265760405162461bcd60e51b815260206004820152601c60248201527f4552433732313a20746f6b656e20616c7265616479206d696e746564000000006044820152606401610987565b6001600160a01b038216600081815260036020908152604080832080546001019055848352600290915280822080546001600160a01b0319168417905551839291907fddf252ad1be2c89b69c2b068fc378daa952ba7f163c4a11628f55a4df523b3ef908290a4610db3600083836001612723565b6001811115610fdf576001600160a01b038416156126e1576001600160a01b038416600090815260036020526040812080548392906126db90849061356b565b90915550505b6001600160a01b03831615610fdf576001600160a01b038316600090815260036020526040812080548392906127189084906135b7565b909155505050505050565b6001600160a01b0384166000908152601b602052604090206127459083612b73565b506001600160a01b0383166000908152601b602052604090206127689083612b7f565b5050505050565b6127798282611015565b610db35761278681612b8b565b612791836020612b9d565b6040516020016127a2929190613936565b60408051601f198184030181529082905262461bcd60e51b8252610987916004016130f9565b6013546040805163e547bb9160e01b815290516000926001600160a01b03169163e547bb91916004808301926020929190829003018187875af11580156113d8573d6000803e3d6000fd5b6000610854825490565b60006115758383612d39565b42600855612836336120eb565b61284160003361213d565b6114e060008261213d565b610db38282612859611768565b6001600160a01b03169190612d63565b60006001600160a01b0384163b1561295f57604051630a85bd0160e11b81526001600160a01b0385169063150b7a02906128ad9033908990889088906004016139ab565b6020604051808303816000875af19250505080156128e8575060408051601f3d908101601f191682019092526128e5918101906139de565b60015b612945573d808015612916576040519150601f19603f3d011682016040523d82523d6000602084013e61291b565b606091505b50805160000361293d5760405162461bcd60e51b8152600401610987906138e4565b805181602001fd5b6001600160e01b031916630a85bd0160e11b149050611b27565b506001949350505050565b60008072184f03e93ff9f4daa797ed6e38ed64bf6a1f0160401b83106129a95772184f03e93ff9f4daa797ed6e38ed64bf6a1f0160401b830492506040015b6d04ee2d6d415b85acef810000000083106129d5576d04ee2d6d415b85acef8100000000830492506020015b662386f26fc1000083106129f357662386f26fc10000830492506010015b6305f5e1008310612a0b576305f5e100830492506008015b6127108310612a1f57612710830492506004015b60648310612a31576064830492506002015b600a83106108545760010192915050565b606081600001805480602002602001604051908101604052809291908181526020018280548015612a9257602002820191906000526020600020905b815481526020019060010190808311612a7e575b50505050509050919050565b6000612af3826040518060400160405280602081526020017f5361666545524332303a206c6f772d6c6576656c2063616c6c206661696c6564815250856001600160a01b0316612d939092919063ffffffff16565b9050805160001480612b14575080806020019051810190612b149190613882565b610a285760405162461bcd60e51b815260206004820152602a60248201527f5361666545524332303a204552433230206f7065726174696f6e20646964206e6044820152691bdd081cdd58d8d9595960b21b6064820152608401610987565b60006115758383612da2565b60006115758383612e95565b60606108546001600160a01b03831660145b60606000612bac83600261357e565b612bb79060026135b7565b67ffffffffffffffff811115612bcf57612bcf61322b565b6040519080825280601f01601f191660200182016040528015612bf9576020820181803683370190505b509050600360fc1b81600081518110612c1457612c14613853565b60200101906001600160f81b031916908160001a905350600f60fb1b81600181518110612c4357612c43613853565b60200101906001600160f81b031916908160001a9053506000612c6784600261357e565b612c729060016135b7565b90505b6001811115612cea576f181899199a1a9b1b9c1cb0b131b232b360811b85600f1660108110612ca657612ca6613853565b1a60f81b828281518110612cbc57612cbc613853565b60200101906001600160f81b031916908160001a90535060049490941c93612ce3816139fb565b9050612c75565b5083156115755760405162461bcd60e51b815260206004820181905260248201527f537472696e67733a20686578206c656e67746820696e73756666696369656e746044820152606401610987565b6000826000018281548110612d5057612d50613853565b9060005260206000200154905092915050565b6040516001600160a01b038316602482015260448101829052610a2890849063a9059cbb60e01b906064016124c1565b6060611b278484600085612ee4565b60008181526001830160205260408120548015612e8b576000612dc660018361356b565b8554909150600090612dda9060019061356b565b9050818114612e3f576000866000018281548110612dfa57612dfa613853565b9060005260206000200154905080876000018481548110612e1d57612e1d613853565b6000918252602080832090910192909255918252600188019052604090208390555b8554869080612e5057612e50613a12565b600190038181906000526020600020016000905590558560010160008681526020019081526020016000206000905560019350505050610854565b6000915050610854565b6000818152600183016020526040812054612edc57508154600181810184556000848152602080822090930184905584548482528286019093526040902091909155610854565b506000610854565b606082471015612f455760405162461bcd60e51b815260206004820152602660248201527f416464726573733a20696e73756666696369656e742062616c616e636520666f6044820152651c8818d85b1b60d21b6064820152608401610987565b600080866001600160a01b03168587604051612f619190613a28565b60006040518083038185875af1925050503d8060008114612f9e576040519150601f19603f3d011682016040523d82523d6000602084013e612fa3565b606091505b5091509150612fb487838387612fbf565b979650505050505050565b6060831561302e578251600003613027576001600160a01b0385163b6130275760405162461bcd60e51b815260206004820152601d60248201527f416464726573733a2063616c6c20746f206e6f6e2d636f6e74726163740000006044820152606401610987565b5081611b27565b611b2783838151156130435781518083602001fd5b8060405162461bcd60e51b815260040161098791906130f9565b6001600160e01b0319811681146114e057600080fd5b60006020828403121561308557600080fd5b81356115758161305d565b6000602082840312156130a257600080fd5b5035919050565b60005b838110156130c45781810151838201526020016130ac565b50506000910152565b600081518084526130e58160208601602086016130a9565b601f01601f19169290920160200192915050565b60208152600061157560208301846130cd565b6001600160a01b03811681146114e057600080fd5b6000806040838503121561313457600080fd5b823561313f8161310c565b946020939093013593505050565b60008060006060848603121561316257600080fd5b833561316d8161310c565b9250602084013561317d8161310c565b929592945050506040919091013590565b600080604083850312156131a157600080fd5b8235915060208301356131b38161310c565b809150509250929050565b6000602082840312156131d057600080fd5b81356115758161310c565b80151581146114e057600080fd5b6000806000606084860312156131fe57600080fd5b83356132098161310c565b9250602084013591506040840135613220816131db565b809150509250925092565b634e487b7160e01b600052604160045260246000fd5b600067ffffffffffffffff8084111561325c5761325c61322b565b604051601f8501601f19908116603f011681019082821181831017156132845761328461322b565b8160405280935085815286868601111561329d57600080fd5b858560208301376000602087830101525050509392505050565b600082601f8301126132c857600080fd5b61157583833560208501613241565b60008060008060008060c087890312156132f057600080fd5b863567ffffffffffffffff8082111561330857600080fd5b6133148a838b016132b7565b9750602089013591508082111561332a57600080fd5b6133368a838b016132b7565b9650604089013591508082111561334c57600080fd5b5061335989828a016132b7565b945050606087013561336a8161310c565b9250608087013561337a8161310c565b8092505060a087013590509295509295509295565b600080604083850312156133a257600080fd5b82356133ad8161310c565b915060208301356131b3816131db565b600080600080608085870312156133d357600080fd5b84356133de8161310c565b935060208501356133ee8161310c565b925060408501359150606085013567ffffffffffffffff81111561341157600080fd5b8501601f8101871361342257600080fd5b61343187823560208401613241565b91505092959194509250565b600081518084526020808501945080840160005b8381101561346d57815187529582019590820190600101613451565b509495945050505050565b60408152600061348b604083018561343d565b828103602084015261349d818561343d565b95945050505050565b600080604083850312156134b957600080fd5b82356134c48161310c565b915060208301356131b38161310c565b600181811c908216806134e857607f821691505b602082108103611fc857634e487b7160e01b600052602260045260246000fd5b6020808252602d908201527f4552433732313a2063616c6c6572206973206e6f7420746f6b656e206f776e6560408201526c1c881bdc88185c1c1c9bdd9959609a1b606082015260800190565b634e487b7160e01b600052601160045260246000fd5b8181038181111561085457610854613555565b808202811582820484141761085457610854613555565b6000826135b257634e487b7160e01b600052601260045260246000fd5b500490565b8082018082111561085457610854613555565b601f821115610a2857600081815260208120601f850160051c810160208610156135f15750805b601f850160051c820191505b81811015613610578281556001016135fd565b505050505050565b815167ffffffffffffffff8111156136325761363261322b565b6136468161364084546134d4565b846135ca565b602080601f83116001811461367b57600084156136635750858301515b600019600386901b1c1916600185901b178555613610565b600085815260208120601f198616915b828110156136aa5788860151825594840194600190910190840161368b565b50858210156136c85787850151600019600388901b60f8161c191681555b5050505050600190811b01905550565b6000602082840312156136ea57600080fd5b81516115758161310c565b60006020828403121561370757600080fd5b815160ff8116811461157557600080fd5b600181815b8085111561375357816000190482111561373957613739613555565b8085161561374657918102915b93841c939080029061371d565b509250929050565b60008261376a57506001610854565b8161377757506000610854565b816001811461378d5760028114613797576137b3565b6001915050610854565b60ff8411156137a8576137a8613555565b50506001821b610854565b5060208310610133831016604e8410600b84101617156137d6575081810a610854565b6137e08383613718565b80600019048211156137f4576137f4613555565b029392505050565b600061157560ff84168361375b565b60006020828403121561381d57600080fd5b5051919050565b600083516138368184602088016130a9565b83519083019061384a8183602088016130a9565b01949350505050565b634e487b7160e01b600052603260045260246000fd5b60006001820161387b5761387b613555565b5060010190565b60006020828403121561389457600080fd5b8151611575816131db565b60208082526025908201527f4552433732313a207472616e736665722066726f6d20696e636f72726563742060408201526437bbb732b960d91b606082015260800190565b60208082526032908201527f4552433732313a207472616e7366657220746f206e6f6e20455243373231526560408201527131b2b4bb32b91034b6b83632b6b2b73a32b960711b606082015260800190565b7f416363657373436f6e74726f6c3a206163636f756e742000000000000000000081526000835161396e8160178501602088016130a9565b7001034b99036b4b9b9b4b733903937b6329607d1b601791840191820152835161399f8160288401602088016130a9565b01602801949350505050565b6001600160a01b0385811682528416602082015260408101839052608060608201819052600090610b98908301846130cd565b6000602082840312156139f057600080fd5b81516115758161305d565b600081613a0a57613a0a613555565b506000190190565b634e487b7160e01b600052603160045260246000fd5b60008251613a3a8184602087016130a9565b919091019291505056fea2646970667358221220a62adfd3f2b777fdd52a160336f6e8b1e6064cc600374f7d07d22f512f18a12f64736f6c63430008110033",
    "linkReferences": {}
  },
  "methodIdentifiers": {
    "BPTRewardToken()": "a85a8afd",
    "DEFAULT_ADMIN_ROLE()": "a217fddf",
    "PRECISION()": "aaf5eb68",
    "approve(address,uint256)": "095ea7b3",
    "averageStakedAmounts(address)": "a3180217",
    "balanceOf(address)": "70a08231",
    "baseURI()": "6c0360eb",
    "claimForAccount(address)": "afd6a5cc",
    "claimLPReward()": "e547bb91",
    "claimable(address)": "402914f5",
    "claimableReward(address)": "e9503425",
    "cumulativeRewardPerToken()": "f5fc5076",
    "distribute(address,uint256,bool)": "90274506",
    "distributor()": "bfe10928",
    "getApproved(uint256)": "081812fc",
    "getLPReward()": "8f089d65",
    "getRoleAdmin(bytes32)": "248a9ca3",
    "getUserNFTIds(address)": "e6b1fa2a",
    "grantControllerRoleByMarketManager(address)": "7fe4a698",
    "grantRole(bytes32,address)": "2f2ff15d",
    "hasRole(bytes32,address)": "91d14854",
    "initialize(string,string,string,address,address,uint256)": "96e35cea",
    "isApprovedForAll(address,address)": "e985e9c5",
    "lpAmount(uint256)": "04cbfae5",
    "lpEarnedRewards(address)": "ae8bcdf8",
    "maxNFT()": "e456b01c",
    "mint()": "1249c58b",
    "mintAutoIncreaseId()": "a3b3702d",
    "mintForAccount(address)": "f16a4c79",
    "name()": "06fdde03",
    "owner()": "8da5cb5b",
    "ownerOf(uint256)": "6352211e",
    "pendingBPTReward(address)": "d22da114",
    "pendingRewards()": "eded3fda",
    "previousCumulatedRewardPerToken(address)": "44a08411",
    "price()": "a035b1fe",
    "receiveToken()": "e9ba77fb",
    "refVolPct()": "546b5e6e",
    "renounceOwnership()": "715018a6",
    "renounceRole(bytes32,address)": "36568abe",
    "revokeRole(bytes32,address)": "d547741f",
    "rewardToken()": "f7c618c1",
    "safeTransferFrom(address,address,uint256)": "42842e0e",
    "safeTransferFrom(address,address,uint256,bytes)": "b88d4fde",
    "setApprovalForAll(address,bool)": "a22cb465",
    "setPrice(uint256)": "91b7f5ed",
    "setRefVolPct(uint256)": "de8c339b",
    "setVolumePerReward(uint256)": "11c62de8",
    "supportsInterface(bytes4)": "01ffc9a7",
    "symbol()": "95d89b41",
    "tokenURI(uint256)": "c87b56dd",
    "tokensPerInterval()": "a8d93627",
    "transferAdmin(address)": "75829def",
    "transferFrom(address,address,uint256)": "23b872dd",
    "transferOwnership(address)": "f2fde38b",
    "updateRewards()": "3e158b0c",
    "vault()": "fbfa77cf",
    "volumePerReward()": "c9ef247d"
  },
  "id": 91
}