{
  "abi": [
    {
      "inputs": [],
      "name": "STRUCT_VERSION",
      "outputs": [
        {
          "internalType": "uint8",
          "name": "",
          "type": "uint8"
        }
      ],
      "stateMutability": "view",
      "type": "function"
    }
  ],
  "bytecode": {
    "object": "0x608b610038600b82828239805160001a607314602b57634e487b7160e01b600052600060045260246000fd5b30600052607381538281f3fe730000000000000000000000000000000000000000301460806040526004361060335760003560e01c80639be4ac99146038575b600080fd5b603f600181565b60405160ff909116815260200160405180910390f3fea264697066735822122008d7a6e6cc2fd5066b36fee3af80401e17f8e3e6374539f089c2694cea513b6164736f6c63430008110033",
    "linkReferences": {}
  },
  "methodIdentifiers": {
    "STRUCT_VERSION()": "9be4ac99"
  },
  "id": 79
}