{
  "abi": [
    {
      "inputs": [],
      "name": "getGlobalPnl",
      "outputs": [
        {
          "internalType": "int256",
          "name": "",
          "type": "int256"
        }
      ],
      "stateMutability": "view",
      "type": "function"
    },
    {
      "inputs": [],
      "name": "globalPnl",
      "outputs": [
        {
          "internalType": "int256",
          "name": "",
          "type": "int256"
        }
      ],
      "stateMutability": "view",
      "type": "function"
    },
    {
      "inputs": [
        {
          "internalType": "address",
          "name": "_account",
          "type": "address"
        },
        {
          "internalType": "uint256",
          "name": "_collateralDelta",
          "type": "uint256"
        },
        {
          "internalType": "uint256",
          "name": "_sizeDelta",
          "type": "uint256"
        },
        {
          "internalType": "uint256",
          "name": "_markPrice",
          "type": "uint256"
        },
        {
          "internalType": "int256",
          "name": "_fr",
          "type": "int256"
        },
        {
          "internalType": "bool",
          "name": "_isLong",
          "type": "bool"
        }
      ],
      "name": "increasePosition",
      "outputs": [],
      "stateMutability": "nonpayable",
      "type": "function"
    },
    {
      "inputs": [
        {
          "internalType": "int256",
          "name": "pnl",
          "type": "int256"
        }
      ],
      "name": "setPnl",
      "outputs": [],
      "stateMutability": "nonpayable",
      "type": "function"
    }
  ],
  "bytecode": {
    "object": "0x6080604052633b9aca0060005534801561001857600080fd5b5061015d806100286000396000f3fe608060405234801561001057600080fd5b506004361061004c5760003560e01c80630ee8a9f81461005157806366fa22ad146100665780636f2a14c51461008157806385b384d714610089575b600080fd5b61006461005f36600461009f565b600055565b005b61006f60005481565b60405190815260200160405180910390f35b60005461006f565b6100646100973660046100b8565b505050505050565b6000602082840312156100b157600080fd5b5035919050565b60008060008060008060c087890312156100d157600080fd5b86356001600160a01b03811681146100e857600080fd5b95506020870135945060408701359350606087013592506080870135915060a0870135801515811461011957600080fd5b80915050929550929550929556fea2646970667358221220bb719a06838768137a5ec439113e437b76af145bce284197e4b64d80900336cd64736f6c63430008110033",
    "linkReferences": {}
  },
  "methodIdentifiers": {
    "getGlobalPnl()": "6f2a14c5",
    "globalPnl()": "66fa22ad",
    "increasePosition(address,uint256,uint256,uint256,int256,bool)": "85b384d7",
    "setPnl(int256)": "0ee8a9f8"
  },
  "id": 58
}