{
  "abi": [
    {
      "inputs": [
        {
          "internalType": "address",
          "name": "_f",
          "type": "address"
        }
      ],
      "stateMutability": "nonpayable",
      "type": "constructor"
    },
    {
      "anonymous": false,
      "inputs": [
        {
          "indexed": false,
          "internalType": "uint8",
          "name": "version",
          "type": "uint8"
        }
      ],
      "name": "Initialized",
      "type": "event"
    },
    {
      "anonymous": false,
      "inputs": [
        {
          "indexed": true,
          "internalType": "address",
          "name": "previousOwner",
          "type": "address"
        },
        {
          "indexed": true,
          "internalType": "address",
          "name": "newOwner",
          "type": "address"
        }
      ],
      "name": "OwnershipTransferred",
      "type": "event"
    },
    {
      "anonymous": false,
      "inputs": [
        {
          "indexed": true,
          "internalType": "bytes32",
          "name": "role",
          "type": "bytes32"
        },
        {
          "indexed": true,
          "internalType": "bytes32",
          "name": "previousAdminRole",
          "type": "bytes32"
        },
        {
          "indexed": true,
          "internalType": "bytes32",
          "name": "newAdminRole",
          "type": "bytes32"
        }
      ],
      "name": "RoleAdminChanged",
      "type": "event"
    },
    {
      "anonymous": false,
      "inputs": [
        {
          "indexed": true,
          "internalType": "bytes32",
          "name": "role",
          "type": "bytes32"
        },
        {
          "indexed": true,
          "internalType": "address",
          "name": "account",
          "type": "address"
        },
        {
          "indexed": true,
          "internalType": "address",
          "name": "sender",
          "type": "address"
        }
      ],
      "name": "RoleGranted",
      "type": "event"
    },
    {
      "anonymous": false,
      "inputs": [
        {
          "indexed": true,
          "internalType": "bytes32",
          "name": "role",
          "type": "bytes32"
        },
        {
          "indexed": true,
          "internalType": "address",
          "name": "account",
          "type": "address"
        },
        {
          "indexed": true,
          "internalType": "address",
          "name": "sender",
          "type": "address"
        }
      ],
      "name": "RoleRevoked",
      "type": "event"
    },
    {
      "inputs": [],
      "name": "DEFAULT_ADMIN_ROLE",
      "outputs": [
        {
          "internalType": "bytes32",
          "name": "",
          "type": "bytes32"
        }
      ],
      "stateMutability": "view",
      "type": "function"
    },
    {
      "inputs": [],
      "name": "conf",
      "outputs": [
        {
          "internalType": "uint256",
          "name": "data",
          "type": "uint256"
        }
      ],
      "stateMutability": "view",
      "type": "function"
    },
    {
      "inputs": [
        {
          "internalType": "uint256",
          "name": "decrOrderCount",
          "type": "uint256"
        }
      ],
      "name": "getDecreaseOrderValidation",
      "outputs": [
        {
          "internalType": "bool",
          "name": "isValid",
          "type": "bool"
        }
      ],
      "stateMutability": "view",
      "type": "function"
    },
    {
      "inputs": [
        {
          "internalType": "bytes32",
          "name": "role",
          "type": "bytes32"
        }
      ],
      "name": "getRoleAdmin",
      "outputs": [
        {
          "internalType": "bytes32",
          "name": "",
          "type": "bytes32"
        }
      ],
      "stateMutability": "view",
      "type": "function"
    },
    {
      "inputs": [
        {
          "internalType": "address",
          "name": "_account",
          "type": "address"
        }
      ],
      "name": "grantControllerRoleByMarketManager",
      "outputs": [],
      "stateMutability": "nonpayable",
      "type": "function"
    },
    {
      "inputs": [
        {
          "internalType": "bytes32",
          "name": "role",
          "type": "bytes32"
        },
        {
          "internalType": "address",
          "name": "account",
          "type": "address"
        }
      ],
      "name": "grantRole",
      "outputs": [],
      "stateMutability": "nonpayable",
      "type": "function"
    },
    {
      "inputs": [
        {
          "internalType": "bytes32",
          "name": "role",
          "type": "bytes32"
        },
        {
          "internalType": "address",
          "name": "account",
          "type": "address"
        }
      ],
      "name": "hasRole",
      "outputs": [
        {
          "internalType": "bool",
          "name": "",
          "type": "bool"
        }
      ],
      "stateMutability": "view",
      "type": "function"
    },
    {
      "inputs": [
        {
          "internalType": "address",
          "name": "_account",
          "type": "address"
        },
        {
          "internalType": "address",
          "name": "_market",
          "type": "address"
        },
        {
          "internalType": "bool",
          "name": "_isLong",
          "type": "bool"
        },
        {
          "internalType": "contract IPositionBook",
          "name": "positionBook",
          "type": "address"
        },
        {
          "internalType": "contract IFeeRouter",
          "name": "feeRouter",
          "type": "address"
        },
        {
          "internalType": "uint256",
          "name": "markPrice",
          "type": "uint256"
        }
      ],
      "name": "isLiquidate",
      "outputs": [
        {
          "internalType": "uint256",
          "name": "_state",
          "type": "uint256"
        }
      ],
      "stateMutability": "view",
      "type": "function"
    },
    {
      "inputs": [],
      "name": "owner",
      "outputs": [
        {
          "internalType": "address",
          "name": "",
          "type": "address"
        }
      ],
      "stateMutability": "view",
      "type": "function"
    },
    {
      "inputs": [],
      "name": "renounceOwnership",
      "outputs": [],
      "stateMutability": "nonpayable",
      "type": "function"
    },
    {
      "inputs": [
        {
          "internalType": "bytes32",
          "name": "",
          "type": "bytes32"
        },
        {
          "internalType": "address",
          "name": "",
          "type": "address"
        }
      ],
      "name": "renounceRole",
      "outputs": [],
      "stateMutability": "nonpayable",
      "type": "function"
    },
    {
      "inputs": [
        {
          "internalType": "bytes32",
          "name": "role",
          "type": "bytes32"
        },
        {
          "internalType": "address",
          "name": "account",
          "type": "address"
        }
      ],
      "name": "revokeRole",
      "outputs": [],
      "stateMutability": "nonpayable",
      "type": "function"
    },
    {
      "inputs": [
        {
          "internalType": "uint256",
          "name": "_minSlippage",
          "type": "uint256"
        },
        {
          "internalType": "uint256",
          "name": "_maxSlippage",
          "type": "uint256"
        },
        {
          "internalType": "uint256",
          "name": "_minLeverage",
          "type": "uint256"
        },
        {
          "internalType": "uint256",
          "name": "_maxLeverage",
          "type": "uint256"
        },
        {
          "internalType": "uint256",
          "name": "_maxTradeAmount",
          "type": "uint256"
        },
        {
          "internalType": "uint256",
          "name": "_minPay",
          "type": "uint256"
        },
        {
          "internalType": "uint256",
          "name": "_minCollateral",
          "type": "uint256"
        },
        {
          "internalType": "bool",
          "name": "_allowOpen",
          "type": "bool"
        },
        {
          "internalType": "bool",
          "name": "_allowClose",
          "type": "bool"
        },
        {
          "internalType": "uint256",
          "name": "",
          "type": "uint256"
        }
      ],
      "name": "setConf",
      "outputs": [],
      "stateMutability": "nonpayable",
      "type": "function"
    },
    {
      "inputs": [
        {
          "internalType": "uint256",
          "name": "_data",
          "type": "uint256"
        }
      ],
      "name": "setConfData",
      "outputs": [],
      "stateMutability": "nonpayable",
      "type": "function"
    },
    {
      "inputs": [
        {
          "internalType": "bytes4",
          "name": "interfaceId",
          "type": "bytes4"
        }
      ],
      "name": "supportsInterface",
      "outputs": [
        {
          "internalType": "bool",
          "name": "",
          "type": "bool"
        }
      ],
      "stateMutability": "view",
      "type": "function"
    },
    {
      "inputs": [
        {
          "internalType": "address",
          "name": "to",
          "type": "address"
        }
      ],
      "name": "transferAdmin",
      "outputs": [],
      "stateMutability": "nonpayable",
      "type": "function"
    },
    {
      "inputs": [
        {
          "internalType": "address",
          "name": "newOwner",
          "type": "address"
        }
      ],
      "name": "transferOwnership",
      "outputs": [],
      "stateMutability": "nonpayable",
      "type": "function"
    },
    {
      "inputs": [
        {
          "internalType": "uint256",
          "name": "busType",
          "type": "uint256"
        },
        {
          "internalType": "uint256",
          "name": "_collateral",
          "type": "uint256"
        },
        {
          "internalType": "uint256",
          "name": "_collateralDelta",
          "type": "uint256"
        },
        {
          "internalType": "uint256",
          "name": "_size",
          "type": "uint256"
        },
        {
          "internalType": "uint256",
          "name": "_sizeDelta",
          "type": "uint256"
        },
        {
          "internalType": "int256",
          "name": "_fees",
          "type": "int256"
        }
      ],
      "name": "validCollateralDelta",
      "outputs": [],
      "stateMutability": "view",
      "type": "function"
    },
    {
      "inputs": [
        {
          "internalType": "uint256",
          "name": "_collateral",
          "type": "uint256"
        },
        {
          "internalType": "uint256",
          "name": "_collateralDelta",
          "type": "uint256"
        },
        {
          "internalType": "uint256",
          "name": "_size",
          "type": "uint256"
        },
        {
          "internalType": "uint256",
          "name": "_sizeDelta",
          "type": "uint256"
        },
        {
          "internalType": "int256",
          "name": "fees",
          "type": "int256"
        },
        {
          "internalType": "uint256",
          "name": "decrOrderCount",
          "type": "uint256"
        }
      ],
      "name": "validDecreaseOrder",
      "outputs": [],
      "stateMutability": "view",
      "type": "function"
    },
    {
      "inputs": [
        {
          "components": [
            {
              "internalType": "address",
              "name": "_market",
              "type": "address"
            },
            {
              "internalType": "bool",
              "name": "_isLong",
              "type": "bool"
            },
            {
              "internalType": "uint256",
              "name": "_oraclePrice",
              "type": "uint256"
            },
            {
              "internalType": "bool",
              "name": "isOpen",
              "type": "bool"
            },
            {
              "internalType": "bool",
              "name": "isCreate",
              "type": "bool"
            },
            {
              "components": [
                {
                  "internalType": "uint8",
                  "name": "version",
                  "type": "uint8"
                },
                {
                  "internalType": "uint32",
                  "name": "updatedAtBlock",
                  "type": "uint32"
                },
                {
                  "internalType": "uint8",
                  "name": "triggerAbove",
                  "type": "uint8"
                },
                {
                  "internalType": "address",
                  "name": "account",
                  "type": "address"
                },
                {
                  "internalType": "uint48",
                  "name": "extra3",
                  "type": "uint48"
                },
                {
                  "internalType": "uint128",
                  "name": "collateral",
                  "type": "uint128"
                },
                {
                  "internalType": "uint128",
                  "name": "size",
                  "type": "uint128"
                },
                {
                  "internalType": "uint128",
                  "name": "price",
                  "type": "uint128"
                },
                {
                  "internalType": "uint128",
                  "name": "extra1",
                  "type": "uint128"
                },
                {
                  "internalType": "uint64",
                  "name": "orderID",
                  "type": "uint64"
                },
                {
                  "internalType": "uint64",
                  "name": "extra2",
                  "type": "uint64"
                },
                {
                  "internalType": "uint128",
                  "name": "extra0",
                  "type": "uint128"
                },
                {
                  "internalType": "bytes32",
                  "name": "refCode",
                  "type": "bytes32"
                }
              ],
              "internalType": "struct Order.Props",
              "name": "_order",
              "type": "tuple"
            },
            {
              "internalType": "uint256[]",
              "name": "inputs",
              "type": "uint256[]"
            }
          ],
          "internalType": "struct MarketDataTypes.UpdateOrderInputs",
          "name": "_vars",
          "type": "tuple"
        },
        {
          "internalType": "int256",
          "name": "fees",
          "type": "int256"
        }
      ],
      "name": "validIncreaseOrder",
      "outputs": [],
      "stateMutability": "view",
      "type": "function"
    },
    {
      "inputs": [
        {
          "internalType": "uint256",
          "name": "newSize",
          "type": "uint256"
        },
        {
          "internalType": "uint256",
          "name": "newCollateral",
          "type": "uint256"
        }
      ],
      "name": "validLev",
      "outputs": [],
      "stateMutability": "view",
      "type": "function"
    },
    {
      "inputs": [
        {
          "internalType": "bool",
          "name": "_isLong",
          "type": "bool"
        },
        {
          "internalType": "uint256",
          "name": "_price",
          "type": "uint256"
        },
        {
          "internalType": "bool",
          "name": "_isIncrease",
          "type": "bool"
        },
        {
          "internalType": "bool",
          "name": "_isExec",
          "type": "bool"
        },
        {
          "internalType": "uint256",
          "name": "_markPrice",
          "type": "uint256"
        }
      ],
      "name": "validMarkPrice",
      "outputs": [],
      "stateMutability": "pure",
      "type": "function"
    },
    {
      "inputs": [
        {
          "internalType": "uint256",
          "name": "_pay",
          "type": "uint256"
        }
      ],
      "name": "validPay",
      "outputs": [],
      "stateMutability": "view",
      "type": "function"
    },
    {
      "inputs": [
        {
          "components": [
            {
              "internalType": "address",
              "name": "_market",
              "type": "address"
            },
            {
              "internalType": "bool",
              "name": "_isLong",
              "type": "bool"
            },
            {
              "internalType": "uint256",
              "name": "_oraclePrice",
              "type": "uint256"
            },
            {
              "internalType": "bool",
              "name": "isOpen",
              "type": "bool"
            },
            {
              "internalType": "address",
              "name": "_account",
              "type": "address"
            },
            {
              "internalType": "uint256",
              "name": "_sizeDelta",
              "type": "uint256"
            },
            {
              "internalType": "uint256",
              "name": "_price",
              "type": "uint256"
            },
            {
              "internalType": "uint256",
              "name": "_slippage",
              "type": "uint256"
            },
            {
              "internalType": "bool",
              "name": "_isExec",
              "type": "bool"
            },
            {
              "internalType": "uint8",
              "name": "liqState",
              "type": "uint8"
            },
            {
              "internalType": "uint64",
              "name": "_fromOrder",
              "type": "uint64"
            },
            {
              "internalType": "bytes32",
              "name": "_refCode",
              "type": "bytes32"
            },
            {
              "internalType": "uint256",
              "name": "collateralDelta",
              "type": "uint256"
            },
            {
              "internalType": "uint8",
              "name": "execNum",
              "type": "uint8"
            },
            {
              "internalType": "uint256[]",
              "name": "inputs",
              "type": "uint256[]"
            }
          ],
          "internalType": "struct MarketDataTypes.UpdatePositionInputs",
          "name": "_params",
          "type": "tuple"
        },
        {
          "components": [
            {
              "internalType": "address",
              "name": "market",
              "type": "address"
            },
            {
              "internalType": "bool",
              "name": "isLong",
              "type": "bool"
            },
            {
              "internalType": "uint32",
              "name": "lastTime",
              "type": "uint32"
            },
            {
              "internalType": "uint216",
              "name": "extra3",
              "type": "uint216"
            },
            {
              "internalType": "uint256",
              "name": "size",
              "type": "uint256"
            },
            {
              "internalType": "uint256",
              "name": "collateral",
              "type": "uint256"
            },
            {
              "internalType": "uint256",
              "name": "averagePrice",
              "type": "uint256"
            },
            {
              "internalType": "int256",
              "name": "entryFundingRate",
              "type": "int256"
            },
            {
              "internalType": "int256",
              "name": "realisedPnl",
              "type": "int256"
            },
            {
              "internalType": "uint256",
              "name": "extra0",
              "type": "uint256"
            },
            {
              "internalType": "uint256",
              "name": "extra1",
              "type": "uint256"
            },
            {
              "internalType": "uint256",
              "name": "extra2",
              "type": "uint256"
            }
          ],
          "internalType": "struct Position.Props",
          "name": "_position",
          "type": "tuple"
        },
        {
          "internalType": "int256[]",
          "name": "_fees",
          "type": "int256[]"
        }
      ],
      "name": "validPosition",
      "outputs": [],
      "stateMutability": "view",
      "type": "function"
    },
    {
      "inputs": [
        {
          "internalType": "uint256",
          "name": "_size",
          "type": "uint256"
        },
        {
          "internalType": "uint256",
          "name": "_sizeDelta",
          "type": "uint256"
        },
        {
          "internalType": "bool",
          "name": "_isIncrease",
          "type": "bool"
        }
      ],
      "name": "validSize",
      "outputs": [],
      "stateMutability": "pure",
      "type": "function"
    },
    {
      "inputs": [
        {
          "components": [
            {
              "internalType": "address",
              "name": "_market",
              "type": "address"
            },
            {
              "internalType": "bool",
              "name": "_isLong",
              "type": "bool"
            },
            {
              "internalType": "uint256",
              "name": "_oraclePrice",
              "type": "uint256"
            },
            {
              "internalType": "bool",
              "name": "isOpen",
              "type": "bool"
            },
            {
              "internalType": "address",
              "name": "_account",
              "type": "address"
            },
            {
              "internalType": "uint256",
              "name": "_sizeDelta",
              "type": "uint256"
            },
            {
              "internalType": "uint256",
              "name": "_price",
              "type": "uint256"
            },
            {
              "internalType": "uint256",
              "name": "_slippage",
              "type": "uint256"
            },
            {
              "internalType": "bool",
              "name": "_isExec",
              "type": "bool"
            },
            {
              "internalType": "uint8",
              "name": "liqState",
              "type": "uint8"
            },
            {
              "internalType": "uint64",
              "name": "_fromOrder",
              "type": "uint64"
            },
            {
              "internalType": "bytes32",
              "name": "_refCode",
              "type": "bytes32"
            },
            {
              "internalType": "uint256",
              "name": "collateralDelta",
              "type": "uint256"
            },
            {
              "internalType": "uint8",
              "name": "execNum",
              "type": "uint8"
            },
            {
              "internalType": "uint256[]",
              "name": "inputs",
              "type": "uint256[]"
            }
          ],
          "internalType": "struct MarketDataTypes.UpdatePositionInputs",
          "name": "_inputs",
          "type": "tuple"
        }
      ],
      "name": "validSlippagePrice",
      "outputs": [],
      "stateMutability": "view",
      "type": "function"
    },
    {
      "inputs": [
        {
          "internalType": "int256",
          "name": "pnl",
          "type": "int256"
        },
        {
          "internalType": "int256",
          "name": "fees",
          "type": "int256"
        },
        {
          "internalType": "int256",
          "name": "liquidateFee",
          "type": "int256"
        },
        {
          "internalType": "int256",
          "name": "collateral",
          "type": "int256"
        },
        {
          "internalType": "uint256",
          "name": "size",
          "type": "uint256"
        },
        {
          "internalType": "bool",
          "name": "_raise",
          "type": "bool"
        }
      ],
      "name": "validateLiquidation",
      "outputs": [
        {
          "internalType": "uint8",
          "name": "",
          "type": "uint8"
        }
      ],
      "stateMutability": "view",
      "type": "function"
    }
  ],
  "bytecode": {
    "object": "0x60806040523480156200001157600080fd5b5060405162002da838038062002da883398101604081905262000034916200018c565b8062000040336200005e565b6200005681620000b060201b620013761760201c565b5050620001be565b600180546001600160a01b038381166001600160a01b0319831681179093556040519116919082907f8be0079c531659141344cd1fd0a4f28419497f9722a3daafe3b4186f6b6457e090600090a35050565b42600255620000bf336200005e565b620000cc600033620000dc565b620000d9600082620000dc565b50565b620000e88282620000ec565b5050565b6000828152602081815260408083206001600160a01b038516845290915290205460ff16620000e8576000828152602081815260408083206001600160a01b03851684529091529020805460ff19166001179055620001483390565b6001600160a01b0316816001600160a01b0316837f2f8788117e7eff1d82e926ec794901d17c78024a50270940304540a733656f0d60405160405180910390a45050565b6000602082840312156200019f57600080fd5b81516001600160a01b0381168114620001b757600080fd5b9392505050565b612bda80620001ce6000396000f3fe608060405234801561001057600080fd5b50600436106101a95760003560e01c8063715018a6116100f9578063d04093d511610097578063e82956c011610071578063e82956c01461037c578063f2fde38b1461038f578063f77a91a8146103a2578063fc54d91d146103c757600080fd5b8063d04093d514610343578063d547741f14610356578063e4eacaf41461036957600080fd5b80638da5cb5b116100d35780638da5cb5b146102fa5780638e98ec8d1461031557806391d1485414610328578063a217fddf1461033b57600080fd5b8063715018a6146102cc57806375829def146102d45780637fe4a698146102e757600080fd5b8063248a9ca31161016657806336568abe1161014057806336568abe1461028557806352916b9c14610293578063592b1e2a146102a65780636debc3b3146102b957600080fd5b8063248a9ca31461023c5780632b5a30181461025f5780632f2ff15d1461027257600080fd5b8063015fc613146101ae57806301b8fd7c146101c357806301ffc9a7146101d6578063142d2497146101fe57806317792729146102115780631f21756a14610229575b600080fd5b6101c16101bc366004611c11565b6103da565b005b6101c16101d1366004611c2a565b61044a565b6101e96101e4366004611c6d565b6104fc565b60405190151581526020015b60405180910390f35b6101c161020c366004611f71565b610533565b60035461021b9081565b6040519081526020016101f5565b61021b610237366004611fad565b610617565b61021b61024a366004611c11565b60009081526020819052604090206001015490565b6101c161026d366004612026565b610877565b6101c1610280366004612048565b61090c565b6101c16101a9366004612048565b6101c16102a1366004612078565b610936565b6101c16102b4366004612217565b610a2f565b6101c16102c73660046122ed565b610ac2565b6101c1610b0f565b6101c16102e2366004612326565b610b23565b6101c16102f5366004612326565b610b93565b6001546040516001600160a01b0390911681526020016101f5565b6101c1610323366004611c11565b610bbd565b6101e9610336366004612048565b610c66565b61021b600081565b6101c1610351366004612343565b610c8f565b6101c1610364366004612048565b610daa565b6101c1610377366004611c2a565b610dcf565b6101e961038a366004611c11565b610f5e565b6101c161039d366004612326565b610f8c565b6103b56103b03660046123cb565b611002565b60405160ff90911681526020016101f5565b6101c16103d5366004612440565b61124b565b604080516020810190915260035481526103f390611399565b8111156104475760405162461bcd60e51b815260206004820152601e60248201527f4d61726b657456616c69643a7061793e4d61785472616465416d6f756e74000060448201526064015b60405180910390fd5b50565b61045581600161257b565b6040805160208101909152600354815261046e906113b9565b10156104bc5760405162461bcd60e51b815260206004820152601760248201527f4d6178206f72646572733a636f6e666967206c696d6974000000000000000000604482015260640161043e565b6104c884846000610ac2565b604080516020810190915260035490819052600f60841b16156104f4576104f460038787878787610dcf565b505050505050565b60006001600160e01b03198216637965db0b60e01b148061052d57506301ffc9a760e01b6001600160e01b03198316145b92915050565b604080516020810190915260035490819052600c1c610fff168160e00151111561057657604080516020810190915260035490819052600c1c610fff1660e08201525b60008160600151151582602001511515036105c2576127108260e001518360c001516105a2919061258e565b6105ac91906125a5565b8260c001516105bb919061257b565b90506105f5565b6127108260e001518360c001516105d9919061258e565b6105e391906125a5565b8260c001516105f291906125c7565b90505b61061382602001518284606001518561010001518660400151610936565b5050565b60405163bc95baad60e01b81526001600160a01b038781166004830152602482018390528515156044830152600091829186169063bc95baad9060640161018060405180830381865afa158015610672573d6000803e3d6000fd5b505050506040513d601f19601f820116820180604052508101906106969190612606565b905080608001516000036106ae57600091505061086d565b604080516101e08101825260008082526020820181905291810182905260608082018390526080820183905260a0820183905260c0820183905260e08201839052610100820183905261012082018390526101408201839052610160820183905261018082018390526101a082018390526101c0820152906107319082906113d4565b60408082018590526001600160a01b03808b16608080850191909152600161010085018190528a151560208601529085015160a0808601919091528501516101808501528a821684526101208401529051634151026360e01b81526000918716906341510263906107a890859087906004016127a0565b600060405180830381865afa1580156107c5573d6000803e3d6000fd5b505050506040513d6000823e601f3d908101601f191682016040526107ed91908101906128a7565b90506108648361010001518260028151811061080b5761080b612937565b60200260200101518360018151811061082657610826612937565b6020026020010151610838919061294d565b8360048151811061084b5761084b612937565b60200260200101518660a0015187608001516000611002565b60ff1693505050505b9695505050505050565b811580610882575080155b1561088b575050565b600061089782846125a5565b60408051602081019091526003548082529192509060241c610fff168211806108c75750805160181c610fff1682105b156109065760405162461bcd60e51b815260206004820152600f60248201526e26b0b935b2ba2b30b634b21d2632bb60891b604482015260640161043e565b50505050565b60008281526020819052604090206001015461092781611401565b610931838361140b565b505050565b600084116109865760405162461bcd60e51b815260206004820152601c60248201527f4d61726b657456616c69643a696e707574207072696365207a65726f00000000604482015260640161043e565b600081116109cc5760405162461bcd60e51b81526020600482015260136024820152724d61726b657456616c69643a216f7261636c6560681b604482015260640161043e565b81610a28578415158315151481851114610a285760405162461bcd60e51b815260206004820152601c60248201527f4d61726b657456616c69643a2166726f6e742d656e6420707269636500000000604482015260640161043e565b5050505050565b610a7a8260a0015160e001516001600160801b0316610a5d8460a0015161010001516001600160801b031690565b60a085015161016001516001600160801b0316856020015161148f565b610a9860008360a0015160c001516001600160801b03166001610ac2565b61061360016000610aa88561153b565b60008660a0015160c001516001600160801b031686610dcf565b80151560000361093157818310156109315760405162461bcd60e51b815260206004820152601060248201526f4d61726b657456616c69643a53697a6560801b604482015260640161043e565b610b17611577565b610b2160006115d1565b565b6000610b2e81611401565b6001600160a01b038216610b745760405162461bcd60e51b815260206004820152600d60248201526c217a65726f206164647265737360981b604482015260640161043e565b610b7f600083611623565b610b88826115d1565b61061360003361162d565b7f8d1089725c0dc266707fa6207730fb801dcd03108bfed7a21099bd303651d2b76101a981611401565b7f8d1089725c0dc266707fa6207730fb801dcd03108bfed7a21099bd303651d2b76000610bea8133610c66565b90508015610c47576201518060025442610c0491906125c7565b10610c425760405162461bcd60e51b815260206004820152600e60248201526d1858c81d1a5b59481c185cdcd95960921b604482015260640161043e565b610c51565b610c518233611692565b50506040805160208101909152819052600355565b6000918252602082815260408084206001600160a01b0393909316845291905290205460ff1690565b7f8d1089725c0dc266707fa6207730fb801dcd03108bfed7a21099bd303651d2b76000610cbc8133610c66565b90508015610d19576201518060025442610cd691906125c7565b10610d145760405162461bcd60e51b815260206004820152600e60248201526d1858c81d1a5b59481c185cdcd95960921b604482015260640161043e565b610d23565b610d238233611692565b60408051602081019091526003548152610d3d818b6116eb565b610d47818c61173f565b610d51818e611792565b610d5b818d6117dc565b610d65818a61182d565b610d6f818961188b565b610d7981886118e1565b610d838187611938565b610d8d8186611962565b610d9881601261198c565b51600355505050505050505050505050565b600082815260208190526040902060010154610dc581611401565b610931838361162d565b6040805160208101909152600354808252600f606c1b16158015610df4575060028711155b80610e0f57508051600f60681b16158015610e0f5750600287115b15610e5c5760405162461bcd60e51b815260206004820152601860248201527f4d61726b657456616c69643a4d61726b6574436c6f7365640000000000000000604482015260640161043e565b600287118015610e6b57508383145b15610e7657506104f4565b600060038810610e8f57610e8a86886125c7565b610e99565b610e99868861257b565b9050876003148015610ea9575080155b15610eb55750506104f4565b60028811610eed576000831315610ed757610ed083826125c7565b9050610eed565b610ee083612975565b610eea908261257b565b90505b86158015610efb5750876001145b8015610f0e5750610f0b826119dd565b86105b15610f545760405162461bcd60e51b815260206004820152601660248201527513585c9ad95d15985b1a590e90dbdb1b185d195c985b60521b604482015260640161043e565b5050505050505050565b6000610f6b82600161257b565b60408051602081019091526003548152610f84906113b9565b101592915050565b610f94611577565b6001600160a01b038116610ff95760405162461bcd60e51b815260206004820152602660248201527f4f776e61626c653a206e6577206f776e657220697320746865207a65726f206160448201526564647265737360d01b606482015260840161043e565b610447816115d1565b6000808712801561101c5750600061101a888661294d565b125b1561108357811561107b5760405162461bcd60e51b8152602060048201526024808201527f4d61726b657456616c69643a6c6f737365732065786365656420636f6c6c6174604482015263195c985b60e21b606482015260840161043e565b50600161086d565b83600088121561109a57611097888661294d565b90505b868112156111065782156110fc5760405162461bcd60e51b815260206004820152602360248201527f4d61726b657456616c69643a20666565732065786365656420636f6c6c6174656044820152621c985b60ea1b606482015260840161043e565b600191505061086d565b611110868861294d565b81121561117d5782156110fc5760405162461bcd60e51b815260206004820152602f60248201527f4d61726b657456616c69643a206c69717569646174696f6e206665657320657860448201526e18d959590818dbdb1b185d195c985b608a1b606482015260840161043e565b6111896127108561258e565b6040805160208101909152600354908190526127109060241c610fff1660008a136111b55760006111b7565b895b6111c19085612991565b6111cb919061258e565b6111d5919061258e565b101561123d5782156112335760405162461bcd60e51b815260206004820152602160248201527f4d61726b657456616c69643a206d61784c6576657261676520657863656564656044820152601960fa1b606482015260840161043e565b600291505061086d565b506000979650505050505050565b61126282608001518460a001518560600151610ac2565b8260600151156112ba5761127a8361018001516103da565b6112b5600084610180015111611291576002611294565b60015b60ff168360a0015185610180015185608001518760a00151610377876119fb565b611303565b81608001518360a0015114611303576113036000846101800151116112e0576004611294565b600360ff168360a0015185610180015185608001518760a00151610377876119fb565b60008360a0015111801561131d575061012083015160ff16155b1561093157600083604001511161136d5760405162461bcd60e51b8152602060048201526014602482015273696e76616c6964206f7261636c6520707269636560601b604482015260640161043e565b61093183610533565b42600255611383336115d1565b61138e600033611623565b610447600082611623565b60006113a482611a47565b825161052d919060481c63ffffffff1661258e565b805160781c610fff1660008190036113cf5750600a5b919050565b60408051600280825260608201835290916020830190803683375050506101c08301521515606090910152565b6104478133611692565b6114158282610c66565b610613576000828152602081815260408083206001600160a01b03851684529091529020805460ff1916600117905561144b3390565b6001600160a01b0316816001600160a01b0316837f2f8788117e7eff1d82e926ec794901d17c78024a50270940304540a733656f0d60405160405180910390a45050565b82156114e5578383118115151415806114a757508383145b156114e55760405162461bcd60e51b815260206004820152600e60248201526d04d61726b657456616c69643a54760941b604482015260640161043e565b8115610906578015158285111415806114fd57508382145b156109065760405162461bcd60e51b815260206004820152600e60248201526d13585c9ad95d15985b1a590e94db60921b604482015260640161043e565b600060018260c0015151101561155257600061052d565b8160c0015160008151811061156957611569612937565b602002602001015192915050565b6001546001600160a01b03163314610b215760405162461bcd60e51b815260206004820181905260248201527f4f776e61626c653a2063616c6c6572206973206e6f7420746865206f776e6572604482015260640161043e565b600180546001600160a01b038381166001600160a01b0319831681179093556040519116919082907f8be0079c531659141344cd1fd0a4f28419497f9722a3daafe3b4186f6b6457e090600090a35050565b610613828261140b565b6116378282610c66565b15610613576000828152602081815260408083206001600160a01b0385168085529252808320805460ff1916905551339285917ff6391f5c32d9c69d2a47ea670b442974b53935d1edc7fd64eb21e047a839171b9190a45050565b61169c8282610c66565b610613576116a981611a5d565b6116b4836020611a6f565b6040516020016116c59291906129dc565b60408051601f198184030181529082905262461bcd60e51b825261043e91600401612a51565b610fff81106117295760405162461bcd60e51b815260206004820152600a6024820152696d6c20746f6f2062696760b01b604482015260640161043e565b815165fff000000000191660249190911b179052565b610fff811061177d5760405162461bcd60e51b815260206004820152600a6024820152696d6c20746f6f2062696760b01b604482015260640161043e565b8151640fff000000191660189190911b179052565b610fff81106117d05760405162461bcd60e51b815260206004820152600a602482015269737020746f6f2062696760b01b604482015260640161043e565b8151610fff1916179052565b610fff811061181a5760405162461bcd60e51b815260206004820152600a6024820152696d7320746f6f2062696760b01b604482015260640161043e565b815162fff0001916600c9190911b179052565b63ffffffff811061186e5760405162461bcd60e51b815260206004820152600b60248201526a6d746120746f6f2062696760a81b604482015260640161043e565b81516cffffffff000000000000000000191660489190911b179052565b610fff81106118c95760405162461bcd60e51b815260206004820152600a6024820152696d7020746f6f2062696760b01b604482015260640161043e565b8151670fff000000000000191660309190911b179052565b610fff811061191f5760405162461bcd60e51b815260206004820152600a6024820152696d6320746f6f2062696760b01b604482015260640161043e565b815168fff0000000000000001916603c9190911b179052565b606c81611946576000611949565b60015b8351600f606c1b191660ff9190911690911b1790915250565b606881611970576000611973565b60015b8351600f60681b191660ff9190911690911b1790915250565b60ff81106119c95760405162461bcd60e51b815260206004820152600a602482015269215f646563696d616c7360b01b604482015260640161043e565b815160ff60701b191660709190911b179052565b60006119e882611a47565b825161052d919060301c610fff1661258e565b6000805b8251811015611a4157828181518110611a1a57611a1a612937565b602002602001015182611a2d919061294d565b915080611a3981612a84565b9150506119ff565b50919050565b805160009061052d9060701c60ff16600a612b81565b606061052d6001600160a01b03831660145b60606000611a7e83600261258e565b611a8990600261257b565b6001600160401b03811115611aa057611aa0611c97565b6040519080825280601f01601f191660200182016040528015611aca576020820181803683370190505b509050600360fc1b81600081518110611ae557611ae5612937565b60200101906001600160f81b031916908160001a905350600f60fb1b81600181518110611b1457611b14612937565b60200101906001600160f81b031916908160001a9053506000611b3884600261258e565b611b4390600161257b565b90505b6001811115611bbb576f181899199a1a9b1b9c1cb0b131b232b360811b85600f1660108110611b7757611b77612937565b1a60f81b828281518110611b8d57611b8d612937565b60200101906001600160f81b031916908160001a90535060049490941c93611bb481612b8d565b9050611b46565b508315611c0a5760405162461bcd60e51b815260206004820181905260248201527f537472696e67733a20686578206c656e67746820696e73756666696369656e74604482015260640161043e565b9392505050565b600060208284031215611c2357600080fd5b5035919050565b60008060008060008060c08789031215611c4357600080fd5b505084359660208601359650604086013595606081013595506080810135945060a0013592509050565b600060208284031215611c7f57600080fd5b81356001600160e01b031981168114611c0a57600080fd5b634e487b7160e01b600052604160045260246000fd5b6040516101e081016001600160401b0381118282101715611cd057611cd0611c97565b60405290565b6040516101a081016001600160401b0381118282101715611cd057611cd0611c97565b60405160e081016001600160401b0381118282101715611cd057611cd0611c97565b60405161018081016001600160401b0381118282101715611cd057611cd0611c97565b604051601f8201601f191681016001600160401b0381118282101715611d6657611d66611c97565b604052919050565b6001600160a01b038116811461044757600080fd5b80356113cf81611d6e565b801515811461044757600080fd5b80356113cf81611d8e565b803560ff811681146113cf57600080fd5b80356001600160401b03811681146113cf57600080fd5b60006001600160401b03821115611de857611de8611c97565b5060051b60200190565b600082601f830112611e0357600080fd5b81356020611e18611e1383611dcf565b611d3e565b82815260059290921b84018101918181019086841115611e3757600080fd5b8286015b84811015611e525780358352918301918301611e3b565b509695505050505050565b60006101e08284031215611e7057600080fd5b611e78611cad565b9050611e8382611d83565b8152611e9160208301611d9c565b602082015260408201356040820152611eac60608301611d9c565b6060820152611ebd60808301611d83565b608082015260a082013560a082015260c082013560c082015260e082013560e0820152610100611eee818401611d9c565b90820152610120611f00838201611da7565b90820152610140611f12838201611db8565b90820152610160828101359082015261018080830135908201526101a0611f3a818401611da7565b908201526101c0828101356001600160401b03811115611f5957600080fd5b611f6585828601611df2565b82840152505092915050565b600060208284031215611f8357600080fd5b81356001600160401b03811115611f9957600080fd5b611fa584828501611e5d565b949350505050565b60008060008060008060c08789031215611fc657600080fd5b8635611fd181611d6e565b95506020870135611fe181611d6e565b94506040870135611ff181611d8e565b9350606087013561200181611d6e565b9250608087013561201181611d6e565b8092505060a087013590509295509295509295565b6000806040838503121561203957600080fd5b50508035926020909101359150565b6000806040838503121561205b57600080fd5b82359150602083013561206d81611d6e565b809150509250929050565b600080600080600060a0868803121561209057600080fd5b853561209b81611d8e565b94506020860135935060408601356120b281611d8e565b925060608601356120c281611d8e565b949793965091946080013592915050565b63ffffffff8116811461044757600080fd5b80356113cf816120d3565b803565ffffffffffff811681146113cf57600080fd5b80356001600160801b03811681146113cf57600080fd5b60006101a0828403121561213057600080fd5b612138611cd6565b905061214382611da7565b8152612151602083016120e5565b602082015261216260408301611da7565b604082015261217360608301611d83565b6060820152612184608083016120f0565b608082015261219560a08301612106565b60a08201526121a660c08301612106565b60c08201526121b760e08301612106565b60e08201526101006121ca818401612106565b908201526101206121dc838201611db8565b908201526101406121ee838201611db8565b90820152610160612200838201612106565b818301525061018080830135818301525092915050565b6000806040838503121561222a57600080fd5b82356001600160401b038082111561224157600080fd5b90840190610260828703121561225657600080fd5b61225e611cf9565b61226783611d83565b815261227560208401611d9c565b60208201526040830135604082015261229060608401611d9c565b60608201526122a160808401611d9c565b60808201526122b38760a0850161211d565b60a0820152610240830135828111156122cb57600080fd5b6122d788828601611df2565b60c0830152509660209590950135955050505050565b60008060006060848603121561230257600080fd5b8335925060208401359150604084013561231b81611d8e565b809150509250925092565b60006020828403121561233857600080fd5b8135611c0a81611d6e565b6000806000806000806000806000806101408b8d03121561236357600080fd5b8a35995060208b0135985060408b0135975060608b0135965060808b0135955060a08b0135945060c08b0135935060e08b013561239f81611d8e565b92506101008b01356123b081611d8e565b809250506101208b013590509295989b9194979a5092959850565b60008060008060008060c087890312156123e457600080fd5b863595506020870135945060408701359350606087013592506080870135915060a087013561241281611d8e565b809150509295509295509295565b6001600160d81b038116811461044757600080fd5b80356113cf81612420565b60008060008385036101c081121561245757600080fd5b84356001600160401b038082111561246e57600080fd5b61247a88838901611e5d565b9550610180915081601f198401121561249257600080fd5b61249a611d1b565b92506124a860208801611d83565b83526124b660408801611d9c565b60208401526124c7606088016120e5565b60408401526124d860808801612435565b606084015260a0870135608084015260c087013560a084015260e087013560c08401526101008088013560e0850152610120808901358286015261014091508189013581860152506101608089013582860152838901358186015250508294506101a087013592508083111561254d57600080fd5b505061255b86828701611df2565b9150509250925092565b634e487b7160e01b600052601160045260246000fd5b8082018082111561052d5761052d612565565b808202811582820484141761052d5761052d612565565b6000826125c257634e487b7160e01b600052601260045260246000fd5b500490565b8181038181111561052d5761052d612565565b80516113cf81611d6e565b80516113cf81611d8e565b80516113cf816120d3565b80516113cf81612420565b6000610180828403121561261957600080fd5b612621611d1b565b61262a836125da565b8152612638602084016125e5565b6020820152612649604084016125f0565b604082015261265a606084016125fb565b60608201526080838101519082015260a0808401519082015260c0808401519082015260e08084015190820152610100808401519082015261012080840151908201526101408084015190820152610160928301519281019290925250919050565b600081518084526020808501945080840160005b838110156126ec578151875295820195908201906001016126d0565b509495945050505050565b80516001600160a01b031682526020810151612717602084018215159052565b50604081015161272f604084018263ffffffff169052565b50606081015161274a60608401826001600160d81b03169052565b506080818101519083015260a0808201519083015260c0808201519083015260e0808201519083015261010080820151908301526101208082015190830152610140808201519083015261016090810151910152565b60006101a08083526127bd81840186516001600160a01b03169052565b60208501516101c06127d28186018315159052565b60408701516101e0868101919091526060880151151561020087015260808801516001600160a01b031661022087015260a088015161024087015260c088015161026087015260e088015161028087015261010088015115156102a087015261012088015160ff9081166102c08801526101408901516001600160401b03166102e088015261016089015161030088015261018089015161032088015293880151909316610340860152860151610360850192909252506128976103808401826126bc565b915050611c0a60208301846126f7565b600060208083850312156128ba57600080fd5b82516001600160401b038111156128d057600080fd5b8301601f810185136128e157600080fd5b80516128ef611e1382611dcf565b81815260059190911b8201830190838101908783111561290e57600080fd5b928401925b8284101561292c57835182529284019290840190612913565b979650505050505050565b634e487b7160e01b600052603260045260246000fd5b808201828112600083128015821682158216171561296d5761296d612565565b505092915050565b6000600160ff1b820161298a5761298a612565565b5060000390565b81810360008312801583831316838312821617156129b1576129b1612565565b5092915050565b60005b838110156129d35781810151838201526020016129bb565b50506000910152565b7f416363657373436f6e74726f6c3a206163636f756e7420000000000000000000815260008351612a148160178501602088016129b8565b7001034b99036b4b9b9b4b733903937b6329607d1b6017918401918201528351612a458160288401602088016129b8565b01602801949350505050565b6020815260008251806020840152612a708160408501602087016129b8565b601f01601f19169190910160400192915050565b600060018201612a9657612a96612565565b5060010190565b600181815b80851115612ad8578160001904821115612abe57612abe612565565b80851615612acb57918102915b93841c9390800290612aa2565b509250929050565b600082612aef5750600161052d565b81612afc5750600061052d565b8160018114612b125760028114612b1c57612b38565b600191505061052d565b60ff841115612b2d57612b2d612565565b50506001821b61052d565b5060208310610133831016604e8410600b8410161715612b5b575081810a61052d565b612b658383612a9d565b8060001904821115612b7957612b79612565565b029392505050565b6000611c0a8383612ae0565b600081612b9c57612b9c612565565b50600019019056fea2646970667358221220293f05e74ccac7f03f8fc40ac1fcff92f808f697866dcce0f93fdf6968016bd364736f6c63430008110033",
    "linkReferences": {}
  },
  "methodIdentifiers": {
    "DEFAULT_ADMIN_ROLE()": "a217fddf",
    "conf()": "17792729",
    "getDecreaseOrderValidation(uint256)": "e82956c0",
    "getRoleAdmin(bytes32)": "248a9ca3",
    "grantControllerRoleByMarketManager(address)": "7fe4a698",
    "grantRole(bytes32,address)": "2f2ff15d",
    "hasRole(bytes32,address)": "91d14854",
    "isLiquidate(address,address,bool,address,address,uint256)": "1f21756a",
    "owner()": "8da5cb5b",
    "renounceOwnership()": "715018a6",
    "renounceRole(bytes32,address)": "36568abe",
    "revokeRole(bytes32,address)": "d547741f",
    "setConf(uint256,uint256,uint256,uint256,uint256,uint256,uint256,bool,bool,uint256)": "d04093d5",
    "setConfData(uint256)": "8e98ec8d",
    "supportsInterface(bytes4)": "01ffc9a7",
    "transferAdmin(address)": "75829def",
    "transferOwnership(address)": "f2fde38b",
    "validCollateralDelta(uint256,uint256,uint256,uint256,uint256,int256)": "e4eacaf4",
    "validDecreaseOrder(uint256,uint256,uint256,uint256,int256,uint256)": "01b8fd7c",
    "validIncreaseOrder((address,bool,uint256,bool,bool,(uint8,uint32,uint8,address,uint48,uint128,uint128,uint128,uint128,uint64,uint64,uint128,bytes32),uint256[]),int256)": "592b1e2a",
    "validLev(uint256,uint256)": "2b5a3018",
    "validMarkPrice(bool,uint256,bool,bool,uint256)": "52916b9c",
    "validPay(uint256)": "015fc613",
    "validPosition((address,bool,uint256,bool,address,uint256,uint256,uint256,bool,uint8,uint64,bytes32,uint256,uint8,uint256[]),(address,bool,uint32,uint216,uint256,uint256,uint256,int256,int256,uint256,uint256,uint256),int256[])": "fc54d91d",
    "validSize(uint256,uint256,bool)": "6debc3b3",
    "validSlippagePrice((address,bool,uint256,bool,address,uint256,uint256,uint256,bool,uint8,uint64,bytes32,uint256,uint8,uint256[]))": "142d2497",
    "validateLiquidation(int256,int256,int256,int256,uint256,bool)": "f77a91a8"
  },
  "id": 17
}