{
  "abi": [
    {
      "inputs": [
        {
          "internalType": "address",
          "name": "marketAddr",
          "type": "address"
        },
        {
          "internalType": "bool",
          "name": "isOpen",
          "type": "bool"
        },
        {
          "internalType": "bool",
          "name": "islong",
          "type": "bool"
        }
      ],
      "stateMutability": "nonpayable",
      "type": "constructor"
    },
    {
      "anonymous": false,
      "inputs": [
        {
          "indexed": true,
          "internalType": "address",
          "name": "previousOwner",
          "type": "address"
        },
        {
          "indexed": true,
          "internalType": "address",
          "name": "newOwner",
          "type": "address"
        }
      ],
      "name": "OwnershipTransferred",
      "type": "event"
    },
    {
      "inputs": [
        {
          "internalType": "uint256",
          "name": "lower",
          "type": "uint256"
        },
        {
          "internalType": "uint256",
          "name": "upper",
          "type": "uint256"
        }
      ],
      "name": "checkIndex",
      "outputs": [
        {
          "components": [
            {
              "internalType": "uint8",
              "name": "version",
              "type": "uint8"
            },
            {
              "internalType": "uint32",
              "name": "updatedAtBlock",
              "type": "uint32"
            },
            {
              "internalType": "uint8",
              "name": "triggerAbove",
              "type": "uint8"
            },
            {
              "internalType": "address",
              "name": "account",
              "type": "address"
            },
            {
              "internalType": "uint48",
              "name": "extra3",
              "type": "uint48"
            },
            {
              "internalType": "uint128",
              "name": "collateral",
              "type": "uint128"
            },
            {
              "internalType": "uint128",
              "name": "size",
              "type": "uint128"
            },
            {
              "internalType": "uint128",
              "name": "price",
              "type": "uint128"
            },
            {
              "internalType": "uint128",
              "name": "extra1",
              "type": "uint128"
            },
            {
              "internalType": "uint64",
              "name": "orderID",
              "type": "uint64"
            },
            {
              "internalType": "uint64",
              "name": "extra2",
              "type": "uint64"
            },
            {
              "internalType": "uint128",
              "name": "extra0",
              "type": "uint128"
            },
            {
              "internalType": "bytes32",
              "name": "refCode",
              "type": "bytes32"
            }
          ],
          "internalType": "struct Order.Props[]",
          "name": "ordersForReturn",
          "type": "tuple[]"
        }
      ],
      "stateMutability": "view",
      "type": "function"
    },
    {
      "inputs": [
        {
          "internalType": "bytes",
          "name": "checkData",
          "type": "bytes"
        }
      ],
      "name": "checkUpkeep",
      "outputs": [
        {
          "internalType": "bool",
          "name": "upkeepNeeded",
          "type": "bool"
        },
        {
          "internalType": "bytes",
          "name": "performData",
          "type": "bytes"
        }
      ],
      "stateMutability": "view",
      "type": "function"
    },
    {
      "inputs": [],
      "name": "indexToken",
      "outputs": [
        {
          "internalType": "address",
          "name": "",
          "type": "address"
        }
      ],
      "stateMutability": "view",
      "type": "function"
    },
    {
      "inputs": [],
      "name": "isIncrease",
      "outputs": [
        {
          "internalType": "bool",
          "name": "",
          "type": "bool"
        }
      ],
      "stateMutability": "view",
      "type": "function"
    },
    {
      "inputs": [],
      "name": "isLong",
      "outputs": [
        {
          "internalType": "bool",
          "name": "",
          "type": "bool"
        }
      ],
      "stateMutability": "view",
      "type": "function"
    },
    {
      "inputs": [],
      "name": "market",
      "outputs": [
        {
          "internalType": "address",
          "name": "",
          "type": "address"
        }
      ],
      "stateMutability": "view",
      "type": "function"
    },
    {
      "inputs": [],
      "name": "oracle",
      "outputs": [
        {
          "internalType": "address",
          "name": "",
          "type": "address"
        }
      ],
      "stateMutability": "view",
      "type": "function"
    },
    {
      "inputs": [],
      "name": "orderBook",
      "outputs": [
        {
          "internalType": "address",
          "name": "",
          "type": "address"
        }
      ],
      "stateMutability": "view",
      "type": "function"
    },
    {
      "inputs": [],
      "name": "orderLimit",
      "outputs": [
        {
          "internalType": "uint256",
          "name": "",
          "type": "uint256"
        }
      ],
      "stateMutability": "view",
      "type": "function"
    },
    {
      "inputs": [],
      "name": "owner",
      "outputs": [
        {
          "internalType": "address",
          "name": "",
          "type": "address"
        }
      ],
      "stateMutability": "view",
      "type": "function"
    },
    {
      "inputs": [
        {
          "internalType": "uint256",
          "name": "lower",
          "type": "uint256"
        },
        {
          "internalType": "uint256",
          "name": "upper",
          "type": "uint256"
        }
      ],
      "name": "performIndex",
      "outputs": [],
      "stateMutability": "nonpayable",
      "type": "function"
    },
    {
      "inputs": [
        {
          "internalType": "bytes",
          "name": "performData",
          "type": "bytes"
        }
      ],
      "name": "performUpkeep",
      "outputs": [],
      "stateMutability": "nonpayable",
      "type": "function"
    },
    {
      "inputs": [],
      "name": "renounceOwnership",
      "outputs": [],
      "stateMutability": "nonpayable",
      "type": "function"
    },
    {
      "inputs": [
        {
          "internalType": "uint256",
          "name": "limit",
          "type": "uint256"
        }
      ],
      "name": "setLimit",
      "outputs": [],
      "stateMutability": "nonpayable",
      "type": "function"
    },
    {
      "inputs": [
        {
          "internalType": "address",
          "name": "m",
          "type": "address"
        }
      ],
      "name": "setMarket",
      "outputs": [],
      "stateMutability": "nonpayable",
      "type": "function"
    },
    {
      "inputs": [
        {
          "internalType": "address",
          "name": "newOwner",
          "type": "address"
        }
      ],
      "name": "transferOwnership",
      "outputs": [],
      "stateMutability": "nonpayable",
      "type": "function"
    },
    {
      "inputs": [
        {
          "internalType": "address",
          "name": "token",
          "type": "address"
        },
        {
          "internalType": "address",
          "name": "to",
          "type": "address"
        },
        {
          "internalType": "uint256",
          "name": "amount",
          "type": "uint256"
        }
      ],
      "name": "withdraw",
      "outputs": [],
      "stateMutability": "nonpayable",
      "type": "function"
    }
  ],
  "bytecode": {
    "object": "0x6080604052600580553480156200001557600080fd5b506040516200244a3803806200244a833981016040819052620000389162000394565b828282620000463362000315565b6001600160a01b038316620000925760405162461bcd60e51b815260206004820152600e60248201526d1a5b9d985b1a59081b585c9ad95d60921b604482015260640160405180910390fd5b600180546001600160a01b0319166001600160a01b0385169081179091556004805461ffff60a01b1916600160a01b8515150260ff60a81b191617600160a81b8415150217815560408051633a0df78d60e11b8152905163741bef1a928281019260209291908290030181865afa15801562000112573d6000803e3d6000fd5b505050506040513d601f19601f82011682018060405250810190620001389190620003e0565b600480546001600160a01b0319166001600160a01b03928316178155600154604080516373e80af960e11b81529051919093169263e7d015f292818101926020929091908290030181865afa15801562000196573d6000803e3d6000fd5b505050506040513d601f19601f82011682018060405250810190620001bc9190620003e0565b600280546001600160a01b0319166001600160a01b0392909216919091179055600454600160a81b900460ff166200026e57600160009054906101000a90046001600160a01b03166001600160a01b03166305ba9ae96040518163ffffffff1660e01b8152600401602060405180830381865afa15801562000242573d6000803e3d6000fd5b505050506040513d601f19601f82011682018060405250810190620002689190620003e0565b620002e8565b600160009054906101000a90046001600160a01b03166001600160a01b0316637b2fd1e56040518163ffffffff1660e01b8152600401602060405180830381865afa158015620002c2573d6000803e3d6000fd5b505050506040513d601f19601f82011682018060405250810190620002e89190620003e0565b600380546001600160a01b0319166001600160a01b03929092169190911790555062000407945050505050565b600080546001600160a01b038381166001600160a01b0319831681178455604051919092169283917f8be0079c531659141344cd1fd0a4f28419497f9722a3daafe3b4186f6b6457e09190a35050565b6001600160a01b03811681146200037b57600080fd5b50565b805180151581146200038f57600080fd5b919050565b600080600060608486031215620003aa57600080fd5b8351620003b78162000365565b9250620003c7602085016200037e565b9150620003d7604085016200037e565b90509250925092565b600060208284031215620003f357600080fd5b8151620004008162000365565b9392505050565b61203380620004176000396000f3fe608060405234801561001057600080fd5b506004361061010b5760003560e01c806375c303c9116100a25780638c8f7e57116100715780638c8f7e57146102385780638da5cb5b1461024c578063d9caed121461025d578063e7d015f214610270578063f2fde38b1461028357600080fd5b806375c303c9146101d0578063776af5ba146101e75780637dc0d1d01461021257806380f556051461022557600080fd5b80634585e33b116100de5780634585e33b146101815780636dcea85f146101945780636e04ff0d146101a7578063715018a6146101c857600080fd5b8063202a61a11461011057806327ea6f2b14610139578063289e4f671461014e5780633246b4a61461016e575b600080fd5b60045461012490600160a81b900460ff1681565b60405190151581526020015b60405180910390f35b61014c610147366004611732565b610296565b005b61016161015c36600461174b565b6102e8565b604051610130919061188f565b61014c61017c36600461174b565b61052a565b61014c61018f36600461194d565b61061f565b61014c6101a23660046119f6565b610644565b6101ba6101b536600461194d565b610891565b604051610130929190611a63565b61014c610941565b6101d960055481565b604051908152602001610130565b6003546101fa906001600160a01b031681565b6040516001600160a01b039091168152602001610130565b6004546101fa906001600160a01b031681565b6001546101fa906001600160a01b031681565b60045461012490600160a01b900460ff1681565b6000546001600160a01b03166101fa565b61014c61026b366004611a7e565b610955565b6002546101fa906001600160a01b031681565b61014c6102913660046119f6565b610976565b61029e6109ef565b600081116102e35760405162461bcd60e51b815260206004820152600d60248201526c1a5b9d985b1a59081b1a5b5a5d609a1b60448201526064015b60405180910390fd5b600555565b6003546004546060916000916001600160a01b03909116906314d102a99086908690600160a01b900460ff1661031c610a49565b6040516001600160e01b031960e087901b16815260048101949094526024840192909252151560448301526064820152608401600060405180830381865afa15801561036c573d6000803e3d6000fd5b505050506040513d6000823e601f3d908101601f191682016040526103949190810190611c55565b90506000805b82518110156103ec576103c58382815181106103b8576103b8611cf4565b6020026020010151610ae5565b15156000036103da576103d782611d0a565b91505b806103e481611d0a565b91505061039a565b50806001600160401b03811115610405576104056118de565b60405190808252806020026020018201604052801561049c57816020015b604080516101a08101825260008082526020808301829052928201819052606082018190526080820181905260a0820181905260c0820181905260e08201819052610100820181905261012082018190526101408201819052610160820181905261018082015282526000199092019101816104235790505b5092506000805b8351811015610520576104c18482815181106103b8576103b8611cf4565b151560000361050e578381815181106104dc576104dc611cf4565b60200260200101518583815181106104f6576104f6611cf4565b60200260200101819052508161050b90611d0a565b91505b8061051881611d0a565b9150506104a3565b5050505092915050565b6003546004546000916001600160a01b0316906314d102a99085908590600160a01b900460ff16610559610a49565b6040516001600160e01b031960e087901b16815260048101949094526024840192909252151560448301526064820152608401600060405180830381865afa1580156105a9573d6000803e3d6000fd5b505050506040513d6000823e601f3d908101601f191682016040526105d19190810190611c55565b905060005b81518110156106195760008282815181106105f3576105f3611cf4565b6020026020010151905061060681610e43565b508061061181611d0a565b9150506105d6565b50505050565b6000818060200190518101906106359190611d31565b905061064081611043565b5050565b61064c6109ef565b600180546001600160a01b0319166001600160a01b03831690811790915560408051633a0df78d60e11b8152905163741bef1a916004808201926020929091908290030181865afa1580156106a5573d6000803e3d6000fd5b505050506040513d601f19601f820116820180604052508101906106c99190611db6565b600480546001600160a01b0319166001600160a01b03928316178155600154604080516373e80af960e11b81529051919093169263e7d015f292818101926020929091908290030181865afa158015610726573d6000803e3d6000fd5b505050506040513d601f19601f8201168201806040525081019061074a9190611db6565b600280546001600160a01b0319166001600160a01b0392909216919091179055600454600160a81b900460ff166107f757600160009054906101000a90046001600160a01b03166001600160a01b03166305ba9ae96040518163ffffffff1660e01b8152600401602060405180830381865afa1580156107ce573d6000803e3d6000fd5b505050506040513d601f19601f820116820180604052508101906107f29190611db6565b61086e565b600160009054906101000a90046001600160a01b03166001600160a01b0316637b2fd1e56040518163ffffffff1660e01b8152600401602060405180830381865afa15801561084a573d6000803e3d6000fd5b505050506040513d601f19601f8201168201806040525081019061086e9190611db6565b600380546001600160a01b0319166001600160a01b039290921691909117905550565b60006060600080848060200190518101906108ac9190611dd3565b915091508181116108f05760405162461bcd60e51b815260206004820152600e60248201526d696e76616c696420706172616d7360901b60448201526064016102da565b60006108fc83836111eb565b905080516000036109135760009450505050915091565b806040516020016109249190611df7565b604051602081830303815290604052935060019450505050915091565b6109496109ef565b610953600061120c565b565b61095d6109ef565b6109716001600160a01b038416838361125c565b505050565b61097e6109ef565b6001600160a01b0381166109e35760405162461bcd60e51b815260206004820152602660248201527f4f776e61626c653a206e6577206f776e657220697320746865207a65726f206160448201526564647265737360d01b60648201526084016102da565b6109ec8161120c565b50565b6000546001600160a01b031633146109535760405162461bcd60e51b815260206004820181905260248201527f4f776e61626c653a2063616c6c6572206973206e6f7420746865206f776e657260448201526064016102da565b600480546002546040516303b6b4bb60e51b81526001600160a01b0391821693810193909352600160a01b820460ff9081161515600160a81b84049190911615151460248401526000929116906376d6976090604401602060405180830381865afa158015610abc573d6000803e3d6000fd5b505050506040513d601f19601f82011682018060405250810190610ae09190611e2f565b905090565b6001546040805163b894300d60e01b815290516000926001600160a01b0316918391839163b894300d9160048083019260209291908290030181865afa158015610b33573d6000803e3d6000fd5b505050506040513d601f19601f82011682018060405250810190610b579190611db6565b90506000816001600160a01b0316631f21756a8660600151600160009054906101000a90046001600160a01b0316600460159054906101000a900460ff16876001600160a01b031663ac0b05a66040518163ffffffff1660e01b8152600401602060405180830381865afa158015610bd3573d6000803e3d6000fd5b505050506040513d601f19601f82011682018060405250810190610bf79190611db6565b886001600160a01b031663f29ebf616040518163ffffffff1660e01b8152600401602060405180830381865afa158015610c35573d6000803e3d6000fd5b505050506040513d601f19601f82011682018060405250810190610c599190611db6565b896001600160a01b031663741bef1a6040518163ffffffff1660e01b8152600401602060405180830381865afa158015610c97573d6000803e3d6000fd5b505050506040513d601f19601f82011682018060405250810190610cbb9190611db6565b6001600160a01b03166376d697608b6001600160a01b031663e7d015f26040518163ffffffff1660e01b8152600401602060405180830381865afa158015610d07573d6000803e3d6000fd5b505050506040513d601f19601f82011682018060405250810190610d2b9190611db6565b600480546040516001600160e01b031960e086901b1681526001600160a01b039093169183019190915260ff600160a81b90910416156024820152604401602060405180830381865afa158015610d86573d6000803e3d6000fd5b505050506040513d601f19601f82011682018060405250810190610daa9190611e2f565b60405160e088901b6001600160e01b03191681526001600160a01b039687166004820152948616602486015292151560448501529084166064840152909216608482015260a481019190915260c401602060405180830381865afa158015610e16573d6000803e3d6000fd5b505050506040513d601f19601f82011682018060405250810190610e3a9190611e2f565b11949350505050565b604080516101e08101825260008082526020820181905291810182905260608082018390526080820183905260a0820183905260c0820183905260e08201839052610100820183905261012082018390526101408201839052610160820183905261018082018390526101a08201929092526101c0810191909152600454610ed6908290600160a01b900460ff166112ae565b600180546001600160a01b03908116835260045460ff600160a81b820481161515602086015260c0808701516001600160801b0390811660a08089019190915260e0890151821692880192909252610180808901516101608901526101008801969096526101208801516001600160401b03166101408801526060880151909416608087015286015190921692840192909252600160a01b9091041615610fba57610f96610f8f8361010001516001600160801b031690565b82906112db565b610fb5610fae8361016001516001600160801b031690565b8290611304565b610fdb565b610fd9610fd2836080015165ffffffffffff16151590565b829061131d565b505b6001546040516304b789db60e21b81526001600160a01b03909116906312de276c9061100d9085908590600401611e83565b600060405180830381600087803b15801561102757600080fd5b505af115801561103b573d6000803e3d6000fd5b505050505050565b6003546004546001600160a01b0390911690600090600160a01b900460ff166110cd57816001600160a01b0316636d0785666040518163ffffffff1660e01b8152600401602060405180830381865afa1580156110a4573d6000803e3d6000fd5b505050506040513d601f19601f820116820180604052508101906110c89190611db6565b61112f565b816001600160a01b0316637e1dcaf76040518163ffffffff1660e01b8152600401602060405180830381865afa15801561110b573d6000803e3d6000fd5b505050506040513d601f19601f8201168201806040525081019061112f9190611db6565b835190915060005b818110156111e457600085828151811061115357611153611cf4565b602002602001015190506000846001600160a01b0316639c3f1e90836040518263ffffffff1660e01b815260040161118d91815260200190565b6101a060405180830381865afa1580156111ab573d6000803e3d6000fd5b505050506040513d601f19601f820116820180604052508101906111cf9190611f8f565b90506111da81610e43565b5050600101611137565b5050505050565b606060006111f7610a49565b905061120484848361135c565b949350505050565b600080546001600160a01b038381166001600160a01b0319831681178455604051919092169283917f8be0079c531659141344cd1fd0a4f28419497f9722a3daafe3b4186f6b6457e09190a35050565b604080516001600160a01b038416602482015260448082018490528251808303909101815260649091019091526020810180516001600160e01b031663a9059cbb60e01b1790526109719084906114d0565b60408051600280825260608201835290916020830190803683375050506101c08301521515606090910152565b80826101c001516000815181106112f4576112f4611cf4565b6020026020010181815250505050565b80826101c001516001815181106112f4576112f4611cf4565b60008161132b57600061132e565b60015b60ff16836101c0015160008151811061134957611349611cf4565b6020026020010181815250905092915050565b600354600480546040516314d102a960e01b815291820186905260248201859052600160a01b900460ff1615156044820152606481018390526060916000916001600160a01b03909116906314d102a990608401600060405180830381865afa1580156113cd573d6000803e3d6000fd5b505050506040513d6000823e601f3d908101601f191682016040526113f59190810190611c55565b9050805160000361140657506114c9565b600060055482511161141957815161141d565b6005545b9050806001600160401b03811115611437576114376118de565b604051908082528060200260200182016040528015611460578160200160208202803683370190505b50925060005b818110156114c557600083828151811061148257611482611cf4565b60200260200101519050611495816115a5565b8583815181106114a7576114a7611cf4565b602090810291909101015250806114bd81611d0a565b915050611466565b5050505b9392505050565b6000611525826040518060400160405280602081526020017f5361666545524332303a206c6f772d6c6576656c2063616c6c206661696c6564815250856001600160a01b031661160f9092919063ffffffff16565b90508051600014806115465750808060200190518101906115469190611fac565b6109715760405162461bcd60e51b815260206004820152602a60248201527f5361666545524332303a204552433230206f7065726174696f6e20646964206e6044820152691bdd081cdd58d8d9595960b21b60648201526084016102da565b600061160982606001518361012001516040516bffffffffffffffffffffffff19606084901b1660208201526001600160c01b031960c083901b166034820152600090603c0160405160208183030381529060405280519060200120905092915050565b92915050565b6060611204848460008585600080866001600160a01b031685876040516116369190611fce565b60006040518083038185875af1925050503d8060008114611673576040519150601f19603f3d011682016040523d82523d6000602084013e611678565b606091505b509150915061168987838387611694565b979650505050505050565b606083156117035782516000036116fc576001600160a01b0385163b6116fc5760405162461bcd60e51b815260206004820152601d60248201527f416464726573733a2063616c6c20746f206e6f6e2d636f6e747261637400000060448201526064016102da565b5081611204565b61120483838151156117185781518083602001fd5b8060405162461bcd60e51b81526004016102da9190611fea565b60006020828403121561174457600080fd5b5035919050565b6000806040838503121561175e57600080fd5b50508035926020909101359150565b805160ff168252602081015161178b602084018263ffffffff169052565b5060408101516117a0604084018260ff169052565b5060608101516117bb60608401826001600160a01b03169052565b5060808101516117d5608084018265ffffffffffff169052565b5060a08101516117f060a08401826001600160801b03169052565b5060c081015161180b60c08401826001600160801b03169052565b5060e081015161182660e08401826001600160801b03169052565b50610100818101516001600160801b038116848301525050610120818101516001600160401b038116848301525050610140818101516001600160401b038116848301525050610160818101516001600160801b03811684830152505061018090810151910152565b6020808252825182820181905260009190848201906040850190845b818110156118d2576118be83855161176d565b928401926101a092909201916001016118ab565b50909695505050505050565b634e487b7160e01b600052604160045260246000fd5b6040516101a081016001600160401b0381118282101715611917576119176118de565b60405290565b604051601f8201601f191681016001600160401b0381118282101715611945576119456118de565b604052919050565b6000602080838503121561196057600080fd5b82356001600160401b038082111561197757600080fd5b818501915085601f83011261198b57600080fd5b81358181111561199d5761199d6118de565b6119af601f8201601f1916850161191d565b915080825286848285010111156119c557600080fd5b8084840185840137600090820190930192909252509392505050565b6001600160a01b03811681146109ec57600080fd5b600060208284031215611a0857600080fd5b81356114c9816119e1565b60005b83811015611a2e578181015183820152602001611a16565b50506000910152565b60008151808452611a4f816020860160208601611a13565b601f01601f19169290920160200192915050565b82151581526040602082015260006112046040830184611a37565b600080600060608486031215611a9357600080fd5b8335611a9e816119e1565b92506020840135611aae816119e1565b929592945050506040919091013590565b60006001600160401b03821115611ad857611ad86118de565b5060051b60200190565b805160ff81168114611af357600080fd5b919050565b805163ffffffff81168114611af357600080fd5b8051611af3816119e1565b805165ffffffffffff81168114611af357600080fd5b80516001600160801b0381168114611af357600080fd5b80516001600160401b0381168114611af357600080fd5b60006101a08284031215611b6e57600080fd5b611b766118f4565b9050611b8182611ae2565b8152611b8f60208301611af8565b6020820152611ba060408301611ae2565b6040820152611bb160608301611b0c565b6060820152611bc260808301611b17565b6080820152611bd360a08301611b2d565b60a0820152611be460c08301611b2d565b60c0820152611bf560e08301611b2d565b60e0820152610100611c08818401611b2d565b90820152610120611c1a838201611b44565b90820152610140611c2c838201611b44565b90820152610160611c3e838201611b2d565b818301525061018080830151818301525092915050565b60006020808385031215611c6857600080fd5b82516001600160401b03811115611c7e57600080fd5b8301601f81018513611c8f57600080fd5b8051611ca2611c9d82611abf565b61191d565b8181526101a09182028301840191848201919088841115611cc257600080fd5b938501935b83851015611ce857611cd98986611b5b565b83529384019391850191611cc7565b50979650505050505050565b634e487b7160e01b600052603260045260246000fd5b600060018201611d2a57634e487b7160e01b600052601160045260246000fd5b5060010190565b60006020808385031215611d4457600080fd5b82516001600160401b03811115611d5a57600080fd5b8301601f81018513611d6b57600080fd5b8051611d79611c9d82611abf565b81815260059190911b82018301908381019087831115611d9857600080fd5b928401925b8284101561168957835182529284019290840190611d9d565b600060208284031215611dc857600080fd5b81516114c9816119e1565b60008060408385031215611de657600080fd5b505080516020909101519092909150565b6020808252825182820181905260009190848201906040850190845b818110156118d257835183529284019291840191600101611e13565b600060208284031215611e4157600080fd5b5051919050565b600081518084526020808501945080840160005b83811015611e7857815187529582019590820190600101611e5c565b509495945050505050565b60006101c0611e92838661176d565b6101a08181850152611eaf82850186516001600160a01b03169052565b60208501516101e0611ec48187018315159052565b60408701516102008701526060870151151561022087015260808701516001600160a01b031661024087015260a087015161026087015260c087015161028087015260e08701516102a087015261010087015115156102c087015261012087015160ff9081166102e08801526101408801516001600160401b0316610300880152610160880151610320880152610180880151610340880152928701519092166103608601525090840151610380840191909152611f866103a0840182611e48565b95945050505050565b60006101a08284031215611fa257600080fd5b6114c98383611b5b565b600060208284031215611fbe57600080fd5b815180151581146114c957600080fd5b60008251611fe0818460208701611a13565b9190910192915050565b6020815260006114c96020830184611a3756fea26469706673582212207ee24d154826a5b6502c976a5799ac1e58ab1e06f1c1214db3bb8e1e7f6d0c5e64736f6c63430008110033",
    "linkReferences": {}
  },
  "methodIdentifiers": {
    "checkIndex(uint256,uint256)": "289e4f67",
    "checkUpkeep(bytes)": "6e04ff0d",
    "indexToken()": "e7d015f2",
    "isIncrease()": "8c8f7e57",
    "isLong()": "202a61a1",
    "market()": "80f55605",
    "oracle()": "7dc0d1d0",
    "orderBook()": "776af5ba",
    "orderLimit()": "75c303c9",
    "owner()": "8da5cb5b",
    "performIndex(uint256,uint256)": "3246b4a6",
    "performUpkeep(bytes)": "4585e33b",
    "renounceOwnership()": "715018a6",
    "setLimit(uint256)": "27ea6f2b",
    "setMarket(address)": "6dcea85f",
    "transferOwnership(address)": "f2fde38b",
    "withdraw(address,address,uint256)": "d9caed12"
  },
  "id": 30
}