{
  "abi": [
    {
      "inputs": [
        {
          "internalType": "address",
          "name": "marketAddr",
          "type": "address"
        },
        {
          "internalType": "bool",
          "name": "isOpen",
          "type": "bool"
        },
        {
          "internalType": "bool",
          "name": "islong",
          "type": "bool"
        }
      ],
      "stateMutability": "nonpayable",
      "type": "constructor"
    },
    {
      "anonymous": false,
      "inputs": [
        {
          "indexed": true,
          "internalType": "address",
          "name": "previousOwner",
          "type": "address"
        },
        {
          "indexed": true,
          "internalType": "address",
          "name": "newOwner",
          "type": "address"
        }
      ],
      "name": "OwnershipTransferred",
      "type": "event"
    },
    {
      "inputs": [],
      "name": "indexToken",
      "outputs": [
        {
          "internalType": "address",
          "name": "",
          "type": "address"
        }
      ],
      "stateMutability": "view",
      "type": "function"
    },
    {
      "inputs": [],
      "name": "isIncrease",
      "outputs": [
        {
          "internalType": "bool",
          "name": "",
          "type": "bool"
        }
      ],
      "stateMutability": "view",
      "type": "function"
    },
    {
      "inputs": [],
      "name": "isLong",
      "outputs": [
        {
          "internalType": "bool",
          "name": "",
          "type": "bool"
        }
      ],
      "stateMutability": "view",
      "type": "function"
    },
    {
      "inputs": [],
      "name": "market",
      "outputs": [
        {
          "internalType": "address",
          "name": "",
          "type": "address"
        }
      ],
      "stateMutability": "view",
      "type": "function"
    },
    {
      "inputs": [],
      "name": "oracle",
      "outputs": [
        {
          "internalType": "address",
          "name": "",
          "type": "address"
        }
      ],
      "stateMutability": "view",
      "type": "function"
    },
    {
      "inputs": [],
      "name": "orderBook",
      "outputs": [
        {
          "internalType": "address",
          "name": "",
          "type": "address"
        }
      ],
      "stateMutability": "view",
      "type": "function"
    },
    {
      "inputs": [],
      "name": "orderLimit",
      "outputs": [
        {
          "internalType": "uint256",
          "name": "",
          "type": "uint256"
        }
      ],
      "stateMutability": "view",
      "type": "function"
    },
    {
      "inputs": [],
      "name": "owner",
      "outputs": [
        {
          "internalType": "address",
          "name": "",
          "type": "address"
        }
      ],
      "stateMutability": "view",
      "type": "function"
    },
    {
      "inputs": [],
      "name": "renounceOwnership",
      "outputs": [],
      "stateMutability": "nonpayable",
      "type": "function"
    },
    {
      "inputs": [
        {
          "internalType": "uint256",
          "name": "limit",
          "type": "uint256"
        }
      ],
      "name": "setLimit",
      "outputs": [],
      "stateMutability": "nonpayable",
      "type": "function"
    },
    {
      "inputs": [
        {
          "internalType": "address",
          "name": "m",
          "type": "address"
        }
      ],
      "name": "setMarket",
      "outputs": [],
      "stateMutability": "nonpayable",
      "type": "function"
    },
    {
      "inputs": [
        {
          "internalType": "address",
          "name": "newOwner",
          "type": "address"
        }
      ],
      "name": "transferOwnership",
      "outputs": [],
      "stateMutability": "nonpayable",
      "type": "function"
    },
    {
      "inputs": [
        {
          "internalType": "address",
          "name": "token",
          "type": "address"
        },
        {
          "internalType": "address",
          "name": "to",
          "type": "address"
        },
        {
          "internalType": "uint256",
          "name": "amount",
          "type": "uint256"
        }
      ],
      "name": "withdraw",
      "outputs": [],
      "stateMutability": "nonpayable",
      "type": "function"
    }
  ],
  "bytecode": {
    "object": "0x6080604052600580553480156200001557600080fd5b5060405162000e1638038062000e1683398101604081905262000038916200038e565b62000043336200030f565b6001600160a01b0383166200008f5760405162461bcd60e51b815260206004820152600e60248201526d1a5b9d985b1a59081b585c9ad95d60921b604482015260640160405180910390fd5b600180546001600160a01b0319166001600160a01b0385169081179091556004805461ffff60a01b1916600160a01b8515150260ff60a81b191617600160a81b8415150217815560408051633a0df78d60e11b8152905163741bef1a928281019260209291908290030181865afa1580156200010f573d6000803e3d6000fd5b505050506040513d601f19601f82011682018060405250810190620001359190620003da565b600480546001600160a01b0319166001600160a01b03928316178155600154604080516373e80af960e11b81529051919093169263e7d015f292818101926020929091908290030181865afa15801562000193573d6000803e3d6000fd5b505050506040513d601f19601f82011682018060405250810190620001b99190620003da565b600280546001600160a01b0319166001600160a01b0392909216919091179055600454600160a81b900460ff166200026b57600160009054906101000a90046001600160a01b03166001600160a01b03166305ba9ae96040518163ffffffff1660e01b8152600401602060405180830381865afa1580156200023f573d6000803e3d6000fd5b505050506040513d601f19601f82011682018060405250810190620002659190620003da565b620002e5565b600160009054906101000a90046001600160a01b03166001600160a01b0316637b2fd1e56040518163ffffffff1660e01b8152600401602060405180830381865afa158015620002bf573d6000803e3d6000fd5b505050506040513d601f19601f82011682018060405250810190620002e59190620003da565b600380546001600160a01b0319166001600160a01b03929092169190911790555062000401915050565b600080546001600160a01b038381166001600160a01b0319831681178455604051919092169283917f8be0079c531659141344cd1fd0a4f28419497f9722a3daafe3b4186f6b6457e09190a35050565b6001600160a01b03811681146200037557600080fd5b50565b805180151581146200038957600080fd5b919050565b600080600060608486031215620003a457600080fd5b8351620003b1816200035f565b9250620003c16020850162000378565b9150620003d16040850162000378565b90509250925092565b600060208284031215620003ed57600080fd5b8151620003fa816200035f565b9392505050565b610a0580620004116000396000f3fe608060405234801561001057600080fd5b50600436106100cf5760003560e01c80637dc0d1d01161008c5780638da5cb5b116100665780638da5cb5b146101a9578063d9caed12146101ba578063e7d015f2146101cd578063f2fde38b146101e057600080fd5b80637dc0d1d01461016f57806380f55605146101825780638c8f7e571461019557600080fd5b8063202a61a1146100d457806327ea6f2b146100fd5780636dcea85f14610112578063715018a61461012557806375c303c91461012d578063776af5ba14610144575b600080fd5b6004546100e890600160a81b900460ff1681565b60405190151581526020015b60405180910390f35b61011061010b36600461088a565b6101f3565b005b6101106101203660046108b8565b610245565b610110610492565b61013660055481565b6040519081526020016100f4565b600354610157906001600160a01b031681565b6040516001600160a01b0390911681526020016100f4565b600454610157906001600160a01b031681565b600154610157906001600160a01b031681565b6004546100e890600160a01b900460ff1681565b6000546001600160a01b0316610157565b6101106101c83660046108dc565b6104a6565b600254610157906001600160a01b031681565b6101106101ee3660046108b8565b6104c7565b6101fb610540565b600081116102405760405162461bcd60e51b815260206004820152600d60248201526c1a5b9d985b1a59081b1a5b5a5d609a1b60448201526064015b60405180910390fd5b600555565b61024d610540565b600180546001600160a01b0319166001600160a01b03831690811790915560408051633a0df78d60e11b8152905163741bef1a916004808201926020929091908290030181865afa1580156102a6573d6000803e3d6000fd5b505050506040513d601f19601f820116820180604052508101906102ca919061091d565b600480546001600160a01b0319166001600160a01b03928316178155600154604080516373e80af960e11b81529051919093169263e7d015f292818101926020929091908290030181865afa158015610327573d6000803e3d6000fd5b505050506040513d601f19601f8201168201806040525081019061034b919061091d565b600280546001600160a01b0319166001600160a01b0392909216919091179055600454600160a81b900460ff166103f857600160009054906101000a90046001600160a01b03166001600160a01b03166305ba9ae96040518163ffffffff1660e01b8152600401602060405180830381865afa1580156103cf573d6000803e3d6000fd5b505050506040513d601f19601f820116820180604052508101906103f3919061091d565b61046f565b600160009054906101000a90046001600160a01b03166001600160a01b0316637b2fd1e56040518163ffffffff1660e01b8152600401602060405180830381865afa15801561044b573d6000803e3d6000fd5b505050506040513d601f19601f8201168201806040525081019061046f919061091d565b600380546001600160a01b0319166001600160a01b039290921691909117905550565b61049a610540565b6104a4600061059a565b565b6104ae610540565b6104c26001600160a01b03841683836105ea565b505050565b6104cf610540565b6001600160a01b0381166105345760405162461bcd60e51b815260206004820152602660248201527f4f776e61626c653a206e6577206f776e657220697320746865207a65726f206160448201526564647265737360d01b6064820152608401610237565b61053d8161059a565b50565b6000546001600160a01b031633146104a45760405162461bcd60e51b815260206004820181905260248201527f4f776e61626c653a2063616c6c6572206973206e6f7420746865206f776e65726044820152606401610237565b600080546001600160a01b038381166001600160a01b0319831681178455604051919092169283917f8be0079c531659141344cd1fd0a4f28419497f9722a3daafe3b4186f6b6457e09190a35050565b604080516001600160a01b03848116602483015260448083018590528351808403909101815260649092018352602080830180516001600160e01b031663a9059cbb60e01b17905283518085019094528084527f5361666545524332303a206c6f772d6c6576656c2063616c6c206661696c6564908401526104c29286929160009161067a9185169084906106fa565b905080516000148061069b57508080602001905181019061069b919061093a565b6104c25760405162461bcd60e51b815260206004820152602a60248201527f5361666545524332303a204552433230206f7065726174696f6e20646964206e6044820152691bdd081cdd58d8d9595960b21b6064820152608401610237565b60606107098484600085610711565b949350505050565b6060824710156107725760405162461bcd60e51b815260206004820152602660248201527f416464726573733a20696e73756666696369656e742062616c616e636520666f6044820152651c8818d85b1b60d21b6064820152608401610237565b600080866001600160a01b0316858760405161078e9190610980565b60006040518083038185875af1925050503d80600081146107cb576040519150601f19603f3d011682016040523d82523d6000602084013e6107d0565b606091505b50915091506107e1878383876107ec565b979650505050505050565b6060831561085b578251600003610854576001600160a01b0385163b6108545760405162461bcd60e51b815260206004820152601d60248201527f416464726573733a2063616c6c20746f206e6f6e2d636f6e74726163740000006044820152606401610237565b5081610709565b61070983838151156108705781518083602001fd5b8060405162461bcd60e51b8152600401610237919061099c565b60006020828403121561089c57600080fd5b5035919050565b6001600160a01b038116811461053d57600080fd5b6000602082840312156108ca57600080fd5b81356108d5816108a3565b9392505050565b6000806000606084860312156108f157600080fd5b83356108fc816108a3565b9250602084013561090c816108a3565b929592945050506040919091013590565b60006020828403121561092f57600080fd5b81516108d5816108a3565b60006020828403121561094c57600080fd5b815180151581146108d557600080fd5b60005b8381101561097757818101518382015260200161095f565b50506000910152565b6000825161099281846020870161095c565b9190910192915050565b60208152600082518060208401526109bb81604085016020870161095c565b601f01601f1916919091016040019291505056fea2646970667358221220ee6f584de5c9803308ab876575a9d56a62433a28222f2fdee7f79b8adb84bdc864736f6c63430008110033",
    "linkReferences": {}
  },
  "methodIdentifiers": {
    "indexToken()": "e7d015f2",
    "isIncrease()": "8c8f7e57",
    "isLong()": "202a61a1",
    "market()": "80f55605",
    "oracle()": "7dc0d1d0",
    "orderBook()": "776af5ba",
    "orderLimit()": "75c303c9",
    "owner()": "8da5cb5b",
    "renounceOwnership()": "715018a6",
    "setLimit(uint256)": "27ea6f2b",
    "setMarket(address)": "6dcea85f",
    "transferOwnership(address)": "f2fde38b",
    "withdraw(address,address,uint256)": "d9caed12"
  },
  "id": 30
}