{
  "abi": [
    {
      "inputs": [
        {
          "internalType": "address",
          "name": "_f",
          "type": "address"
        }
      ],
      "stateMutability": "nonpayable",
      "type": "constructor"
    },
    {
      "anonymous": false,
      "inputs": [
        {
          "indexed": false,
          "internalType": "uint8",
          "name": "version",
          "type": "uint8"
        }
      ],
      "name": "Initialized",
      "type": "event"
    },
    {
      "anonymous": false,
      "inputs": [
        {
          "indexed": true,
          "internalType": "address",
          "name": "previousOwner",
          "type": "address"
        },
        {
          "indexed": true,
          "internalType": "address",
          "name": "newOwner",
          "type": "address"
        }
      ],
      "name": "OwnershipTransferred",
      "type": "event"
    },
    {
      "anonymous": false,
      "inputs": [
        {
          "indexed": true,
          "internalType": "bytes32",
          "name": "role",
          "type": "bytes32"
        },
        {
          "indexed": true,
          "internalType": "bytes32",
          "name": "previousAdminRole",
          "type": "bytes32"
        },
        {
          "indexed": true,
          "internalType": "bytes32",
          "name": "newAdminRole",
          "type": "bytes32"
        }
      ],
      "name": "RoleAdminChanged",
      "type": "event"
    },
    {
      "anonymous": false,
      "inputs": [
        {
          "indexed": true,
          "internalType": "bytes32",
          "name": "role",
          "type": "bytes32"
        },
        {
          "indexed": true,
          "internalType": "address",
          "name": "account",
          "type": "address"
        },
        {
          "indexed": true,
          "internalType": "address",
          "name": "sender",
          "type": "address"
        }
      ],
      "name": "RoleGranted",
      "type": "event"
    },
    {
      "anonymous": false,
      "inputs": [
        {
          "indexed": true,
          "internalType": "bytes32",
          "name": "role",
          "type": "bytes32"
        },
        {
          "indexed": true,
          "internalType": "address",
          "name": "account",
          "type": "address"
        },
        {
          "indexed": true,
          "internalType": "address",
          "name": "sender",
          "type": "address"
        }
      ],
      "name": "RoleRevoked",
      "type": "event"
    },
    {
      "inputs": [],
      "name": "DEFAULT_ADMIN_ROLE",
      "outputs": [
        {
          "internalType": "bytes32",
          "name": "",
          "type": "bytes32"
        }
      ],
      "stateMutability": "view",
      "type": "function"
    },
    {
      "inputs": [
        {
          "components": [
            {
              "internalType": "uint8",
              "name": "version",
              "type": "uint8"
            },
            {
              "internalType": "uint32",
              "name": "updatedAtBlock",
              "type": "uint32"
            },
            {
              "internalType": "uint8",
              "name": "triggerAbove",
              "type": "uint8"
            },
            {
              "internalType": "address",
              "name": "account",
              "type": "address"
            },
            {
              "internalType": "uint48",
              "name": "extra3",
              "type": "uint48"
            },
            {
              "internalType": "uint128",
              "name": "collateral",
              "type": "uint128"
            },
            {
              "internalType": "uint128",
              "name": "size",
              "type": "uint128"
            },
            {
              "internalType": "uint128",
              "name": "price",
              "type": "uint128"
            },
            {
              "internalType": "uint128",
              "name": "extra1",
              "type": "uint128"
            },
            {
              "internalType": "uint64",
              "name": "orderID",
              "type": "uint64"
            },
            {
              "internalType": "uint64",
              "name": "extra2",
              "type": "uint64"
            },
            {
              "internalType": "uint128",
              "name": "extra0",
              "type": "uint128"
            },
            {
              "internalType": "bytes32",
              "name": "refCode",
              "type": "bytes32"
            }
          ],
          "internalType": "struct Order.Props",
          "name": "order",
          "type": "tuple"
        }
      ],
      "name": "add",
      "outputs": [],
      "stateMutability": "nonpayable",
      "type": "function"
    },
    {
      "inputs": [
        {
          "internalType": "bytes32",
          "name": "key",
          "type": "bytes32"
        }
      ],
      "name": "containsKey",
      "outputs": [
        {
          "internalType": "bool",
          "name": "",
          "type": "bool"
        }
      ],
      "stateMutability": "view",
      "type": "function"
    },
    {
      "inputs": [
        {
          "internalType": "address",
          "name": "account",
          "type": "address"
        }
      ],
      "name": "delByAccount",
      "outputs": [
        {
          "components": [
            {
              "internalType": "uint8",
              "name": "version",
              "type": "uint8"
            },
            {
              "internalType": "uint32",
              "name": "updatedAtBlock",
              "type": "uint32"
            },
            {
              "internalType": "uint8",
              "name": "triggerAbove",
              "type": "uint8"
            },
            {
              "internalType": "address",
              "name": "account",
              "type": "address"
            },
            {
              "internalType": "uint48",
              "name": "extra3",
              "type": "uint48"
            },
            {
              "internalType": "uint128",
              "name": "collateral",
              "type": "uint128"
            },
            {
              "internalType": "uint128",
              "name": "size",
              "type": "uint128"
            },
            {
              "internalType": "uint128",
              "name": "price",
              "type": "uint128"
            },
            {
              "internalType": "uint128",
              "name": "extra1",
              "type": "uint128"
            },
            {
              "internalType": "uint64",
              "name": "orderID",
              "type": "uint64"
            },
            {
              "internalType": "uint64",
              "name": "extra2",
              "type": "uint64"
            },
            {
              "internalType": "uint128",
              "name": "extra0",
              "type": "uint128"
            },
            {
              "internalType": "bytes32",
              "name": "refCode",
              "type": "bytes32"
            }
          ],
          "internalType": "struct Order.Props[]",
          "name": "_orders",
          "type": "tuple[]"
        }
      ],
      "stateMutability": "nonpayable",
      "type": "function"
    },
    {
      "inputs": [
        {
          "internalType": "address",
          "name": "_acc",
          "type": "address"
        }
      ],
      "name": "generateID",
      "outputs": [
        {
          "internalType": "uint256",
          "name": "retVal",
          "type": "uint256"
        }
      ],
      "stateMutability": "nonpayable",
      "type": "function"
    },
    {
      "inputs": [
        {
          "internalType": "uint256",
          "name": "index",
          "type": "uint256"
        }
      ],
      "name": "getByIndex",
      "outputs": [
        {
          "components": [
            {
              "internalType": "uint8",
              "name": "version",
              "type": "uint8"
            },
            {
              "internalType": "uint32",
              "name": "updatedAtBlock",
              "type": "uint32"
            },
            {
              "internalType": "uint8",
              "name": "triggerAbove",
              "type": "uint8"
            },
            {
              "internalType": "address",
              "name": "account",
              "type": "address"
            },
            {
              "internalType": "uint48",
              "name": "extra3",
              "type": "uint48"
            },
            {
              "internalType": "uint128",
              "name": "collateral",
              "type": "uint128"
            },
            {
              "internalType": "uint128",
              "name": "size",
              "type": "uint128"
            },
            {
              "internalType": "uint128",
              "name": "price",
              "type": "uint128"
            },
            {
              "internalType": "uint128",
              "name": "extra1",
              "type": "uint128"
            },
            {
              "internalType": "uint64",
              "name": "orderID",
              "type": "uint64"
            },
            {
              "internalType": "uint64",
              "name": "extra2",
              "type": "uint64"
            },
            {
              "internalType": "uint128",
              "name": "extra0",
              "type": "uint128"
            },
            {
              "internalType": "bytes32",
              "name": "refCode",
              "type": "bytes32"
            }
          ],
          "internalType": "struct Order.Props",
          "name": "",
          "type": "tuple"
        }
      ],
      "stateMutability": "view",
      "type": "function"
    },
    {
      "inputs": [],
      "name": "getCount",
      "outputs": [
        {
          "internalType": "uint256",
          "name": "",
          "type": "uint256"
        }
      ],
      "stateMutability": "view",
      "type": "function"
    },
    {
      "inputs": [
        {
          "internalType": "uint256",
          "name": "_index",
          "type": "uint256"
        }
      ],
      "name": "getKey",
      "outputs": [
        {
          "internalType": "bytes32",
          "name": "",
          "type": "bytes32"
        }
      ],
      "stateMutability": "view",
      "type": "function"
    },
    {
      "inputs": [
        {
          "internalType": "uint256",
          "name": "start",
          "type": "uint256"
        },
        {
          "internalType": "uint256",
          "name": "end",
          "type": "uint256"
        }
      ],
      "name": "getKeys",
      "outputs": [
        {
          "internalType": "bytes32[]",
          "name": "",
          "type": "bytes32[]"
        }
      ],
      "stateMutability": "view",
      "type": "function"
    },
    {
      "inputs": [
        {
          "internalType": "address",
          "name": "account",
          "type": "address"
        }
      ],
      "name": "getOrderByAccount",
      "outputs": [
        {
          "components": [
            {
              "internalType": "uint8",
              "name": "version",
              "type": "uint8"
            },
            {
              "internalType": "uint32",
              "name": "updatedAtBlock",
              "type": "uint32"
            },
            {
              "internalType": "uint8",
              "name": "triggerAbove",
              "type": "uint8"
            },
            {
              "internalType": "address",
              "name": "account",
              "type": "address"
            },
            {
              "internalType": "uint48",
              "name": "extra3",
              "type": "uint48"
            },
            {
              "internalType": "uint128",
              "name": "collateral",
              "type": "uint128"
            },
            {
              "internalType": "uint128",
              "name": "size",
              "type": "uint128"
            },
            {
              "internalType": "uint128",
              "name": "price",
              "type": "uint128"
            },
            {
              "internalType": "uint128",
              "name": "extra1",
              "type": "uint128"
            },
            {
              "internalType": "uint64",
              "name": "orderID",
              "type": "uint64"
            },
            {
              "internalType": "uint64",
              "name": "extra2",
              "type": "uint64"
            },
            {
              "internalType": "uint128",
              "name": "extra0",
              "type": "uint128"
            },
            {
              "internalType": "bytes32",
              "name": "refCode",
              "type": "bytes32"
            }
          ],
          "internalType": "struct Order.Props[]",
          "name": "_orders",
          "type": "tuple[]"
        }
      ],
      "stateMutability": "view",
      "type": "function"
    },
    {
      "inputs": [
        {
          "internalType": "bytes32",
          "name": "role",
          "type": "bytes32"
        }
      ],
      "name": "getRoleAdmin",
      "outputs": [
        {
          "internalType": "bytes32",
          "name": "",
          "type": "bytes32"
        }
      ],
      "stateMutability": "view",
      "type": "function"
    },
    {
      "inputs": [
        {
          "internalType": "address",
          "name": "_account",
          "type": "address"
        }
      ],
      "name": "grantControllerRoleByMarketManager",
      "outputs": [],
      "stateMutability": "nonpayable",
      "type": "function"
    },
    {
      "inputs": [
        {
          "internalType": "bytes32",
          "name": "role",
          "type": "bytes32"
        },
        {
          "internalType": "address",
          "name": "account",
          "type": "address"
        }
      ],
      "name": "grantRole",
      "outputs": [],
      "stateMutability": "nonpayable",
      "type": "function"
    },
    {
      "inputs": [
        {
          "internalType": "bytes32",
          "name": "role",
          "type": "bytes32"
        },
        {
          "internalType": "address",
          "name": "account",
          "type": "address"
        }
      ],
      "name": "hasRole",
      "outputs": [
        {
          "internalType": "bool",
          "name": "",
          "type": "bool"
        }
      ],
      "stateMutability": "view",
      "type": "function"
    },
    {
      "inputs": [
        {
          "internalType": "bool",
          "name": "_isLong",
          "type": "bool"
        }
      ],
      "name": "initialize",
      "outputs": [],
      "stateMutability": "nonpayable",
      "type": "function"
    },
    {
      "inputs": [],
      "name": "isLong",
      "outputs": [
        {
          "internalType": "bool",
          "name": "",
          "type": "bool"
        }
      ],
      "stateMutability": "view",
      "type": "function"
    },
    {
      "inputs": [
        {
          "internalType": "address",
          "name": "",
          "type": "address"
        }
      ],
      "name": "orderNum",
      "outputs": [
        {
          "internalType": "uint256",
          "name": "",
          "type": "uint256"
        }
      ],
      "stateMutability": "view",
      "type": "function"
    },
    {
      "inputs": [
        {
          "internalType": "bytes32",
          "name": "",
          "type": "bytes32"
        }
      ],
      "name": "orders",
      "outputs": [
        {
          "internalType": "uint8",
          "name": "version",
          "type": "uint8"
        },
        {
          "internalType": "uint32",
          "name": "updatedAtBlock",
          "type": "uint32"
        },
        {
          "internalType": "uint8",
          "name": "triggerAbove",
          "type": "uint8"
        },
        {
          "internalType": "address",
          "name": "account",
          "type": "address"
        },
        {
          "internalType": "uint48",
          "name": "extra3",
          "type": "uint48"
        },
        {
          "internalType": "uint128",
          "name": "collateral",
          "type": "uint128"
        },
        {
          "internalType": "uint128",
          "name": "size",
          "type": "uint128"
        },
        {
          "internalType": "uint128",
          "name": "price",
          "type": "uint128"
        },
        {
          "internalType": "uint128",
          "name": "extra1",
          "type": "uint128"
        },
        {
          "internalType": "uint64",
          "name": "orderID",
          "type": "uint64"
        },
        {
          "internalType": "uint64",
          "name": "extra2",
          "type": "uint64"
        },
        {
          "internalType": "uint128",
          "name": "extra0",
          "type": "uint128"
        },
        {
          "internalType": "bytes32",
          "name": "refCode",
          "type": "bytes32"
        }
      ],
      "stateMutability": "view",
      "type": "function"
    },
    {
      "inputs": [
        {
          "internalType": "address",
          "name": "",
          "type": "address"
        }
      ],
      "name": "ordersIndex",
      "outputs": [
        {
          "internalType": "uint256",
          "name": "",
          "type": "uint256"
        }
      ],
      "stateMutability": "view",
      "type": "function"
    },
    {
      "inputs": [],
      "name": "owner",
      "outputs": [
        {
          "internalType": "address",
          "name": "",
          "type": "address"
        }
      ],
      "stateMutability": "view",
      "type": "function"
    },
    {
      "inputs": [
        {
          "internalType": "bytes32",
          "name": "key",
          "type": "bytes32"
        }
      ],
      "name": "remove",
      "outputs": [
        {
          "components": [
            {
              "internalType": "uint8",
              "name": "version",
              "type": "uint8"
            },
            {
              "internalType": "uint32",
              "name": "updatedAtBlock",
              "type": "uint32"
            },
            {
              "internalType": "uint8",
              "name": "triggerAbove",
              "type": "uint8"
            },
            {
              "internalType": "address",
              "name": "account",
              "type": "address"
            },
            {
              "internalType": "uint48",
              "name": "extra3",
              "type": "uint48"
            },
            {
              "internalType": "uint128",
              "name": "collateral",
              "type": "uint128"
            },
            {
              "internalType": "uint128",
              "name": "size",
              "type": "uint128"
            },
            {
              "internalType": "uint128",
              "name": "price",
              "type": "uint128"
            },
            {
              "internalType": "uint128",
              "name": "extra1",
              "type": "uint128"
            },
            {
              "internalType": "uint64",
              "name": "orderID",
              "type": "uint64"
            },
            {
              "internalType": "uint64",
              "name": "extra2",
              "type": "uint64"
            },
            {
              "internalType": "uint128",
              "name": "extra0",
              "type": "uint128"
            },
            {
              "internalType": "bytes32",
              "name": "refCode",
              "type": "bytes32"
            }
          ],
          "internalType": "struct Order.Props",
          "name": "order",
          "type": "tuple"
        }
      ],
      "stateMutability": "nonpayable",
      "type": "function"
    },
    {
      "inputs": [],
      "name": "renounceOwnership",
      "outputs": [],
      "stateMutability": "nonpayable",
      "type": "function"
    },
    {
      "inputs": [
        {
          "internalType": "bytes32",
          "name": "",
          "type": "bytes32"
        },
        {
          "internalType": "address",
          "name": "",
          "type": "address"
        }
      ],
      "name": "renounceRole",
      "outputs": [],
      "stateMutability": "nonpayable",
      "type": "function"
    },
    {
      "inputs": [
        {
          "internalType": "bytes32",
          "name": "role",
          "type": "bytes32"
        },
        {
          "internalType": "address",
          "name": "account",
          "type": "address"
        }
      ],
      "name": "revokeRole",
      "outputs": [],
      "stateMutability": "nonpayable",
      "type": "function"
    },
    {
      "inputs": [
        {
          "components": [
            {
              "internalType": "uint8",
              "name": "version",
              "type": "uint8"
            },
            {
              "internalType": "uint32",
              "name": "updatedAtBlock",
              "type": "uint32"
            },
            {
              "internalType": "uint8",
              "name": "triggerAbove",
              "type": "uint8"
            },
            {
              "internalType": "address",
              "name": "account",
              "type": "address"
            },
            {
              "internalType": "uint48",
              "name": "extra3",
              "type": "uint48"
            },
            {
              "internalType": "uint128",
              "name": "collateral",
              "type": "uint128"
            },
            {
              "internalType": "uint128",
              "name": "size",
              "type": "uint128"
            },
            {
              "internalType": "uint128",
              "name": "price",
              "type": "uint128"
            },
            {
              "internalType": "uint128",
              "name": "extra1",
              "type": "uint128"
            },
            {
              "internalType": "uint64",
              "name": "orderID",
              "type": "uint64"
            },
            {
              "internalType": "uint64",
              "name": "extra2",
              "type": "uint64"
            },
            {
              "internalType": "uint128",
              "name": "extra0",
              "type": "uint128"
            },
            {
              "internalType": "bytes32",
              "name": "refCode",
              "type": "bytes32"
            }
          ],
          "internalType": "struct Order.Props",
          "name": "order",
          "type": "tuple"
        }
      ],
      "name": "set",
      "outputs": [],
      "stateMutability": "nonpayable",
      "type": "function"
    },
    {
      "inputs": [
        {
          "internalType": "bytes4",
          "name": "interfaceId",
          "type": "bytes4"
        }
      ],
      "name": "supportsInterface",
      "outputs": [
        {
          "internalType": "bool",
          "name": "",
          "type": "bool"
        }
      ],
      "stateMutability": "view",
      "type": "function"
    },
    {
      "inputs": [
        {
          "internalType": "address",
          "name": "to",
          "type": "address"
        }
      ],
      "name": "transferAdmin",
      "outputs": [],
      "stateMutability": "nonpayable",
      "type": "function"
    },
    {
      "inputs": [
        {
          "internalType": "address",
          "name": "newOwner",
          "type": "address"
        }
      ],
      "name": "transferOwnership",
      "outputs": [],
      "stateMutability": "nonpayable",
      "type": "function"
    }
  ],
  "bytecode": {
    "object": "0x60806040523480156200001157600080fd5b506040516200229e3803806200229e83398101604081905262000034916200018c565b8062000040336200005e565b6200005681620000b060201b620011231760201c565b5050620001be565b600180546001600160a01b038381166001600160a01b0319831681179093556040519116919082907f8be0079c531659141344cd1fd0a4f28419497f9722a3daafe3b4186f6b6457e090600090a35050565b42600255620000bf336200005e565b620000cc600033620000dc565b620000d9600082620000dc565b50565b620000e88282620000ec565b5050565b6000828152602081815260408083206001600160a01b038516845290915290205460ff16620000e8576000828152602081815260408083206001600160a01b03851684529091529020805460ff19166001179055620001483390565b6001600160a01b0316816001600160a01b0316837f2f8788117e7eff1d82e926ec794901d17c78024a50270940304540a733656f0d60405160405180910390a45050565b6000602082840312156200019f57600080fd5b81516001600160a01b0381168114620001b757600080fd5b9392505050565b6120d080620001ce6000396000f3fe608060405234801561001057600080fd5b50600436106101c45760003560e01c80637fe4a698116100f9578063b4d1cbad11610097578063d547741f11610071578063d547741f14610526578063f0b3e50214610539578063f2fde38b1461054c578063f6b102a61461055f57600080fd5b8063b4d1cbad146104e0578063bb5b27e114610500578063d53a822f1461051357600080fd5b806395bc2673116100d357806395bc2673146103675780639c3f1e901461037a578063a217fddf146104d0578063a87d942c146104d857600080fd5b80637fe4a698146103265780638da5cb5b1461033957806391d148541461035457600080fd5b80632f2ff15d116101665780635b8d9775116101405780635b8d9775146102cb5780636a19ffba146102eb578063715018a61461030b57806375829def1461031357600080fd5b80632f2ff15d1461029757806336568abe146102aa5780634bbaf8e8146102b857600080fd5b8063202a61a1116101a2578063202a61a114610224578063248a9ca3146102315780632597382b146102625780632d883a731461027757600080fd5b806301ffc9a7146101c95780630fb400e8146101f15780631c1b6fcd14610211575b600080fd5b6101dc6101d7366004611ab3565b610572565b60405190151581526020015b60405180910390f35b6102046101ff366004611af4565b6105a9565b6040516101e89190611c31565b61020461021f366004611af4565b6107a3565b6003546101dc9060ff1681565b61025461023f366004611c80565b60009081526020819052604090206001015490565b6040519081526020016101e8565b610275610270366004611d4f565b610900565b005b61028a610285366004611c80565b610af2565b6040516101e89190611e48565b6102756102a5366004611e57565b610bf8565b6102756101c4366004611e57565b6102756102c6366004611d4f565b610c1d565b6102546102d9366004611af4565b60076020526000908152604090205481565b6102546102f9366004611af4565b60086020526000908152604090205481565b610275610d99565b610275610321366004611af4565b610dad565b610275610334366004611af4565b610e26565b6001546040516001600160a01b0390911681526020016101e8565b6101dc610362366004611e57565b610e50565b61028a610375366004611c80565b610e79565b610433610388366004611c80565b60046020819052600091825260409091208054600182015460028301546003840154939094015460ff80841695610100850463ffffffff1695600160281b860490921694600160301b81046001600160a01b031694600160d01b90910465ffffffffffff16936001600160801b0380831694600160801b9384900482169482811694908190048316936001600160401b0380841694600160401b85049091169392909204909116908d565b6040805160ff9e8f16815263ffffffff909d1660208e01529c909a169b8b019b909b526001600160a01b0390971660608a015265ffffffffffff90951660808901526001600160801b0393841660a089015291831660c0880152821660e087015281166101008601526001600160401b0391821661012086015291166101408401529092166101608201526101808101919091526101a0016101e8565b610254600081565b610254610eb6565b6104f36104ee366004611e83565b610ec7565b6040516101e89190611ea5565b61025461050e366004611c80565b610edc565b610275610521366004611edd565b610ee9565b610275610534366004611e57565b611017565b610254610547366004611af4565b61103c565b61027561055a366004611af4565b61109d565b6101dc61056d366004611c80565b611116565b60006001600160e01b03198216637965db0b60e01b14806105a357506301ffc9a760e01b6001600160e01b03198316145b92915050565b6001600160a01b0381166000908152600960205260408120606091906105ce90611146565b905060006105db82611153565b9050806001600160401b038111156105f5576105f5611c99565b60405190808252806020026020018201604052801561062e57816020015b61061b611a15565b8152602001906001900390816106135790505b508251909350600090815b818110801561064757508383105b1561079957600085828151811061066057610660611eff565b6020026020010151905061067e8160056111c190919063ffffffff16565b156107905760008181526004602081815260409283902083516101a081018552815460ff808216835261010080830463ffffffff1695840195909552600160281b82041695820195909552600160301b85046001600160a01b03166060820152600160d01b90940465ffffffffffff16608085015260018101546001600160801b0380821660a0870152600160801b91829004811660c0870152600283015480821660e088015282900481169386019390935260038201546001600160401b03808216610120880152600160401b8204166101408701520490911661016084015201546101808201528751819089908790811061077d5761077d611eff565b6020026020010181905250846001019450505b50600101610639565b5050505050919050565b60606107bc60008051602061207b8339815191526111d9565b6001600160a01b03821660009081526009602052604081206107dd90611146565b905060006107ea82611153565b8251909150816001600160401b0381111561080757610807611c99565b60405190808252806020026020018201604052801561084057816020015b61082d611a15565b8152602001906001900390816108255790505b5093506000805b828110801561085557508382105b156108cd57600085828151811061086e5761086e611eff565b6020026020010151905061088c8160056111c190919063ffffffff16565b156108c457600061089c826111e3565b9050808885815181106108b1576108b1611eff565b6020908102919091010152506001909201915b50600101610847565b506001600160a01b03861660009081526009602052604081209081816108f38282611a81565b5050505050505050919050565b61091760008051602061207b8339815191526111d9565b4263ffffffff166020820152600061092e82611356565b600081815260046020818152604092839020865181549288015194880151606089015160808a015165ffffffffffff16600160d01b026001600160d01b036001600160a01b03909216600160301b026601000000000000600160d01b031960ff948516600160281b021665010000000000600160d01b031963ffffffff9a8b1661010090810264ffffffffff19909a169690971695909517979097179390931695909517919091171692909217815560a087015160c08801516001600160801b03908116600160801b90810292821692909217600184015560e089015193890151811682029381169390931760028301556101208801516003830180546101408b01516101608c015187169094026001600160401b03948516600160401b026001600160801b03199290921694909316939093179290921790931692909217909155610180860151910155909150610a8b9060059083906113ba16565b5060608201516001600160a01b03166000908152600860205260408120805460019290610ab9908490611f2b565b90915550610aed9050610acb83611356565b60608401516001600160a01b03166000908152600960205260409020906113ba565b505050565b610afa611a15565b60046000610b096005856113c6565b8152602080820192909252604090810160002081516101a081018352815460ff808216835261010080830463ffffffff1696840196909652600160281b82041693820193909352600160301b83046001600160a01b03166060820152600160d01b90920465ffffffffffff16608083015260018101546001600160801b0380821660a0850152600160801b91829004811660c0850152600283015480821660e086015282900481169484019490945260038201546001600160401b03808216610120860152600160401b8204166101408501520490921661016082015260049091015461018082015292915050565b600082815260208190526040902060010154610c13816111d9565b610aed83836113d2565b610c3460008051602061207b8339815191526111d9565b6000610c3f82611356565b4263ffffffff16602084015290506000908152600460208181526040928390208451815492860151948601516060870151608088015160ff93841664ffffffffff199096169590951761010063ffffffff90981688021765010000000000600160d01b031916600160281b93909216929092026601000000000000600160d01b03191617600160301b6001600160a01b0390921691909102176001600160d01b0316600160d01b65ffffffffffff9093169290920291909117815560a084015160c08501516001600160801b03918216600160801b918316820217600184015560e08601519486015194821694821681029490941760028301556101208501516003830180546101408801516101608901516001600160401b039485166001600160801b031990931692909217600160401b9490911693909302929092178316919092169094029390931790925561018090920151910155565b610da1611456565b610dab60006114b0565b565b6000610db8816111d9565b6001600160a01b038216610e035760405162461bcd60e51b815260206004820152600d60248201526c217a65726f206164647265737360981b60448201526064015b60405180910390fd5b610e0e600083611502565b610e17826114b0565b610e2260003361150c565b5050565b7f8d1089725c0dc266707fa6207730fb801dcd03108bfed7a21099bd303651d2b76101c4816111d9565b6000918252602082815260408084206001600160a01b0393909316845291905290205460ff1690565b610e81611a15565b610e9860008051602061207b8339815191526111d9565b610ea36005836111c1565b15610eb1576105a3826111e3565b919050565b6000610ec26005611571565b905090565b6060610ed56005848461157b565b9392505050565b60006105a36005836113c6565b600154600160a81b900460ff1615808015610f0f575060018054600160a01b900460ff16105b80610f2f5750303b158015610f2f575060018054600160a01b900460ff16145b610f925760405162461bcd60e51b815260206004820152602e60248201527f496e697469616c697a61626c653a20636f6e747261637420697320616c72656160448201526d191e481a5b9a5d1a585b1a5e995960921b6064820152608401610dfa565b6001805460ff60a01b1916600160a01b1790558015610fbf576001805460ff60a81b1916600160a81b1790555b6003805460ff19168315151790558015610e22576001805460ff60a81b191681556040519081527f7f26b83ff96e1f2b6a682f133852f6798a09c465da95921460cefb38474024989060200160405180910390a15050565b600082815260208190526040902060010154611032816111d9565b610aed838361150c565b600061105560008051602061207b8339815191526111d9565b506001600160a01b0381166000908152600760205260408120549081900361107b575060015b6001600160a01b03909116600090815260076020526040902060018201905590565b6110a5611456565b6001600160a01b03811661110a5760405162461bcd60e51b815260206004820152602660248201527f4f776e61626c653a206e6577206f776e657220697320746865207a65726f206160448201526564647265737360d01b6064820152608401610dfa565b611113816114b0565b50565b60006105a36005836111c1565b42600255611130336114b0565b61113b600033611502565b611113600082611502565b60606000610ed58361163b565b8051600090815b818110156111ba57600084828151811061117657611176611eff565b602002602001015190506111948160056111c190919063ffffffff16565b156111a757836111a381611f3e565b9450505b50806111b281611f3e565b91505061115a565b5050919050565b60008181526001830160205260408120541515610ed5565b6111138133611697565b6111eb611a15565b50600081815260046020818152604080842081516101a081018352815460ff808216835261010080830463ffffffff1684880152600160281b830490911683860152600160301b82046001600160a01b031660608401819052600160d01b90920465ffffffffffff1660808401526001808501546001600160801b0380821660a0870152600160801b91829004811660c0870152600287015480821660e088015282900481169386019390935260038601546001600160401b03808216610120880152600160401b820416610140870152049091166101608401529290950154610180820152938552600890925283208054929391929091906112ef908490611f57565b90915550506000828152600460208190526040822082815560018101839055600281018390556003810183905501556113296005836116f0565b5060608101516001600160a01b0316600090815260096020526040902061135090836116f0565b50919050565b60006105a382606001518361012001516040516bffffffffffffffffffffffff19606084901b1660208201526001600160c01b031960c083901b166034820152600090603c0160405160208183030381529060405280519060200120905092915050565b6000610ed583836116fc565b6000610ed5838361174b565b6113dc8282610e50565b610e22576000828152602081815260408083206001600160a01b03851684529091529020805460ff191660011790556114123390565b6001600160a01b0316816001600160a01b0316837f2f8788117e7eff1d82e926ec794901d17c78024a50270940304540a733656f0d60405160405180910390a45050565b6001546001600160a01b03163314610dab5760405162461bcd60e51b815260206004820181905260248201527f4f776e61626c653a2063616c6c6572206973206e6f7420746865206f776e65726044820152606401610dfa565b600180546001600160a01b038381166001600160a01b0319831681179093556040519116919082907f8be0079c531659141344cd1fd0a4f28419497f9722a3daafe3b4186f6b6457e090600090a35050565b610e2282826113d2565b6115168282610e50565b15610e22576000828152602081815260408083206001600160a01b0385168085529252808320805460ff1916905551339285917ff6391f5c32d9c69d2a47ea670b442974b53935d1edc7fd64eb21e047a839171b9190a45050565b60006105a3825490565b6060600061158885611571565b905080831115611596578092505b60006115a28585611f57565b6001600160401b038111156115b9576115b9611c99565b6040519080825280602002602001820160405280156115e2578160200160208202803683370190505b509050845b84811015611631576115f987826113c6565b826116048884611f57565b8151811061161457611614611eff565b60209081029190910101528061162981611f3e565b9150506115e7565b5095945050505050565b60608160000180548060200260200160405190810160405280929190818152602001828054801561168b57602002820191906000526020600020905b815481526020019060010190808311611677575b50505050509050919050565b6116a18282610e50565b610e22576116ae81611775565b6116b9836020611787565b6040516020016116ca929190611f8e565b60408051601f198184030181529082905262461bcd60e51b8252610dfa91600401612003565b6000610ed58383611922565b6000818152600183016020526040812054611743575081546001818101845560008481526020808220909301849055845484825282860190935260409020919091556105a3565b5060006105a3565b600082600001828154811061176257611762611eff565b9060005260206000200154905092915050565b60606105a36001600160a01b03831660145b60606000611796836002612036565b6117a1906002611f2b565b6001600160401b038111156117b8576117b8611c99565b6040519080825280601f01601f1916602001820160405280156117e2576020820181803683370190505b509050600360fc1b816000815181106117fd576117fd611eff565b60200101906001600160f81b031916908160001a905350600f60fb1b8160018151811061182c5761182c611eff565b60200101906001600160f81b031916908160001a9053506000611850846002612036565b61185b906001611f2b565b90505b60018111156118d3576f181899199a1a9b1b9c1cb0b131b232b360811b85600f166010811061188f5761188f611eff565b1a60f81b8282815181106118a5576118a5611eff565b60200101906001600160f81b031916908160001a90535060049490941c936118cc8161204d565b905061185e565b508315610ed55760405162461bcd60e51b815260206004820181905260248201527f537472696e67733a20686578206c656e67746820696e73756666696369656e746044820152606401610dfa565b60008181526001830160205260408120548015611a0b576000611946600183611f57565b855490915060009061195a90600190611f57565b90508181146119bf57600086600001828154811061197a5761197a611eff565b906000526020600020015490508087600001848154811061199d5761199d611eff565b6000918252602080832090910192909255918252600188019052604090208390555b85548690806119d0576119d0612064565b6001900381819060005260206000200160009055905585600101600086815260200190815260200160002060009055600193505050506105a3565b60009150506105a3565b604080516101a081018252600080825260208201819052918101829052606081018290526080810182905260a0810182905260c0810182905260e08101829052610100810182905261012081018290526101408101829052610160810182905261018081019190915290565b508054600082559060005260206000209081019061111391905b80821115611aaf5760008155600101611a9b565b5090565b600060208284031215611ac557600080fd5b81356001600160e01b031981168114610ed557600080fd5b80356001600160a01b0381168114610eb157600080fd5b600060208284031215611b0657600080fd5b610ed582611add565b805160ff1682526020810151611b2d602084018263ffffffff169052565b506040810151611b42604084018260ff169052565b506060810151611b5d60608401826001600160a01b03169052565b506080810151611b77608084018265ffffffffffff169052565b5060a0810151611b9260a08401826001600160801b03169052565b5060c0810151611bad60c08401826001600160801b03169052565b5060e0810151611bc860e08401826001600160801b03169052565b50610100818101516001600160801b038116848301525050610120818101516001600160401b038116848301525050610140818101516001600160401b038116848301525050610160818101516001600160801b03811684830152505061018090810151910152565b6020808252825182820181905260009190848201906040850190845b81811015611c7457611c60838551611b0f565b928401926101a09290920191600101611c4d565b50909695505050505050565b600060208284031215611c9257600080fd5b5035919050565b634e487b7160e01b600052604160045260246000fd5b6040516101a081016001600160401b0381118282101715611ce057634e487b7160e01b600052604160045260246000fd5b60405290565b803560ff81168114610eb157600080fd5b803563ffffffff81168114610eb157600080fd5b803565ffffffffffff81168114610eb157600080fd5b80356001600160801b0381168114610eb157600080fd5b80356001600160401b0381168114610eb157600080fd5b60006101a08284031215611d6257600080fd5b611d6a611caf565b611d7383611ce6565b8152611d8160208401611cf7565b6020820152611d9260408401611ce6565b6040820152611da360608401611add565b6060820152611db460808401611d0b565b6080820152611dc560a08401611d21565b60a0820152611dd660c08401611d21565b60c0820152611de760e08401611d21565b60e0820152610100611dfa818501611d21565b90820152610120611e0c848201611d38565b90820152610140611e1e848201611d38565b90820152610160611e30848201611d21565b90820152610180928301359281019290925250919050565b6101a081016105a38284611b0f565b60008060408385031215611e6a57600080fd5b82359150611e7a60208401611add565b90509250929050565b60008060408385031215611e9657600080fd5b50508035926020909101359150565b6020808252825182820181905260009190848201906040850190845b81811015611c7457835183529284019291840191600101611ec1565b600060208284031215611eef57600080fd5b81358015158114610ed557600080fd5b634e487b7160e01b600052603260045260246000fd5b634e487b7160e01b600052601160045260246000fd5b808201808211156105a3576105a3611f15565b600060018201611f5057611f50611f15565b5060010190565b818103818111156105a3576105a3611f15565b60005b83811015611f85578181015183820152602001611f6d565b50506000910152565b7f416363657373436f6e74726f6c3a206163636f756e7420000000000000000000815260008351611fc6816017850160208801611f6a565b7001034b99036b4b9b9b4b733903937b6329607d1b6017918401918201528351611ff7816028840160208801611f6a565b01602801949350505050565b6020815260008251806020840152612022816040850160208701611f6a565b601f01601f19169190910160400192915050565b80820281158282048414176105a3576105a3611f15565b60008161205c5761205c611f15565b506000190190565b634e487b7160e01b600052603160045260246000fdfecb58d6d985142a614029cdf01861b4fe094d5919a47e69b8310dc4093d9d6ad0a26469706673582212205ebbac1cd0aa6ffd5216c9ad20c3a6ac107200b5754f51035c637bbfedf5201b64736f6c63430008110033",
    "linkReferences": {}
  },
  "methodIdentifiers": {
    "DEFAULT_ADMIN_ROLE()": "a217fddf",
    "add((uint8,uint32,uint8,address,uint48,uint128,uint128,uint128,uint128,uint64,uint64,uint128,bytes32))": "2597382b",
    "containsKey(bytes32)": "f6b102a6",
    "delByAccount(address)": "1c1b6fcd",
    "generateID(address)": "f0b3e502",
    "getByIndex(uint256)": "2d883a73",
    "getCount()": "a87d942c",
    "getKey(uint256)": "bb5b27e1",
    "getKeys(uint256,uint256)": "b4d1cbad",
    "getOrderByAccount(address)": "0fb400e8",
    "getRoleAdmin(bytes32)": "248a9ca3",
    "grantControllerRoleByMarketManager(address)": "7fe4a698",
    "grantRole(bytes32,address)": "2f2ff15d",
    "hasRole(bytes32,address)": "91d14854",
    "initialize(bool)": "d53a822f",
    "isLong()": "202a61a1",
    "orderNum(address)": "6a19ffba",
    "orders(bytes32)": "9c3f1e90",
    "ordersIndex(address)": "5b8d9775",
    "owner()": "8da5cb5b",
    "remove(bytes32)": "95bc2673",
    "renounceOwnership()": "715018a6",
    "renounceRole(bytes32,address)": "36568abe",
    "revokeRole(bytes32,address)": "d547741f",
    "set((uint8,uint32,uint8,address,uint48,uint128,uint128,uint128,uint128,uint64,uint64,uint128,bytes32))": "4bbaf8e8",
    "supportsInterface(bytes4)": "01ffc9a7",
    "transferAdmin(address)": "75829def",
    "transferOwnership(address)": "f2fde38b"
  },
  "id": 78
}