{
  "abi": [
    {
      "inputs": [],
      "name": "MinOutError",
      "type": "error"
    },
    {
      "inputs": [],
      "name": "MinSharesError",
      "type": "error"
    },
    {
      "anonymous": false,
      "inputs": [
        {
          "indexed": true,
          "internalType": "address",
          "name": "owner",
          "type": "address"
        },
        {
          "indexed": true,
          "internalType": "address",
          "name": "spender",
          "type": "address"
        },
        {
          "indexed": false,
          "internalType": "uint256",
          "name": "value",
          "type": "uint256"
        }
      ],
      "name": "Approval",
      "type": "event"
    },
    {
      "anonymous": false,
      "inputs": [
        {
          "indexed": false,
          "internalType": "address",
          "name": "account",
          "type": "address"
        },
        {
          "indexed": false,
          "internalType": "uint256",
          "name": "amount",
          "type": "uint256"
        }
      ],
      "name": "Harvest",
      "type": "event"
    },
    {
      "anonymous": false,
      "inputs": [
        {
          "indexed": false,
          "internalType": "uint8",
          "name": "version",
          "type": "uint8"
        }
      ],
      "name": "Initialized",
      "type": "event"
    },
    {
      "anonymous": false,
      "inputs": [
        {
          "indexed": false,
          "internalType": "uint256",
          "name": "supply",
          "type": "uint256"
        },
        {
          "indexed": false,
          "internalType": "uint256",
          "name": "cumulativeRewardPerToken",
          "type": "uint256"
        }
      ],
      "name": "LogUpdatePool",
      "type": "event"
    },
    {
      "anonymous": false,
      "inputs": [
        {
          "indexed": true,
          "internalType": "address",
          "name": "previousOwner",
          "type": "address"
        },
        {
          "indexed": true,
          "internalType": "address",
          "name": "newOwner",
          "type": "address"
        }
      ],
      "name": "OwnershipTransferred",
      "type": "event"
    },
    {
      "anonymous": false,
      "inputs": [
        {
          "indexed": true,
          "internalType": "bytes32",
          "name": "role",
          "type": "bytes32"
        },
        {
          "indexed": true,
          "internalType": "bytes32",
          "name": "previousAdminRole",
          "type": "bytes32"
        },
        {
          "indexed": true,
          "internalType": "bytes32",
          "name": "newAdminRole",
          "type": "bytes32"
        }
      ],
      "name": "RoleAdminChanged",
      "type": "event"
    },
    {
      "anonymous": false,
      "inputs": [
        {
          "indexed": true,
          "internalType": "bytes32",
          "name": "role",
          "type": "bytes32"
        },
        {
          "indexed": true,
          "internalType": "address",
          "name": "account",
          "type": "address"
        },
        {
          "indexed": true,
          "internalType": "address",
          "name": "sender",
          "type": "address"
        }
      ],
      "name": "RoleGranted",
      "type": "event"
    },
    {
      "anonymous": false,
      "inputs": [
        {
          "indexed": true,
          "internalType": "bytes32",
          "name": "role",
          "type": "bytes32"
        },
        {
          "indexed": true,
          "internalType": "address",
          "name": "account",
          "type": "address"
        },
        {
          "indexed": true,
          "internalType": "address",
          "name": "sender",
          "type": "address"
        }
      ],
      "name": "RoleRevoked",
      "type": "event"
    },
    {
      "anonymous": false,
      "inputs": [
        {
          "indexed": true,
          "internalType": "address",
          "name": "from",
          "type": "address"
        },
        {
          "indexed": true,
          "internalType": "address",
          "name": "to",
          "type": "address"
        },
        {
          "indexed": false,
          "internalType": "uint256",
          "name": "value",
          "type": "uint256"
        }
      ],
      "name": "Transfer",
      "type": "event"
    },
    {
      "inputs": [],
      "name": "DEFAULT_ADMIN_ROLE",
      "outputs": [
        {
          "internalType": "bytes32",
          "name": "",
          "type": "bytes32"
        }
      ],
      "stateMutability": "view",
      "type": "function"
    },
    {
      "inputs": [],
      "name": "PRECISION",
      "outputs": [
        {
          "internalType": "uint256",
          "name": "",
          "type": "uint256"
        }
      ],
      "stateMutability": "view",
      "type": "function"
    },
    {
      "inputs": [
        {
          "internalType": "address",
          "name": "owner",
          "type": "address"
        },
        {
          "internalType": "address",
          "name": "spender",
          "type": "address"
        }
      ],
      "name": "allowance",
      "outputs": [
        {
          "internalType": "uint256",
          "name": "",
          "type": "uint256"
        }
      ],
      "stateMutability": "view",
      "type": "function"
    },
    {
      "inputs": [
        {
          "internalType": "address",
          "name": "spender",
          "type": "address"
        },
        {
          "internalType": "uint256",
          "name": "amount",
          "type": "uint256"
        }
      ],
      "name": "approve",
      "outputs": [
        {
          "internalType": "bool",
          "name": "",
          "type": "bool"
        }
      ],
      "stateMutability": "nonpayable",
      "type": "function"
    },
    {
      "inputs": [
        {
          "internalType": "address",
          "name": "",
          "type": "address"
        }
      ],
      "name": "averageStakedAmounts",
      "outputs": [
        {
          "internalType": "uint256",
          "name": "",
          "type": "uint256"
        }
      ],
      "stateMutability": "view",
      "type": "function"
    },
    {
      "inputs": [
        {
          "internalType": "address",
          "name": "account",
          "type": "address"
        }
      ],
      "name": "balanceOf",
      "outputs": [
        {
          "internalType": "uint256",
          "name": "",
          "type": "uint256"
        }
      ],
      "stateMutability": "view",
      "type": "function"
    },
    {
      "inputs": [
        {
          "internalType": "address",
          "name": "_account",
          "type": "address"
        }
      ],
      "name": "claimForAccount",
      "outputs": [],
      "stateMutability": "nonpayable",
      "type": "function"
    },
    {
      "inputs": [],
      "name": "claimLPReward",
      "outputs": [],
      "stateMutability": "nonpayable",
      "type": "function"
    },
    {
      "inputs": [
        {
          "internalType": "address",
          "name": "_account",
          "type": "address"
        }
      ],
      "name": "claimable",
      "outputs": [
        {
          "internalType": "uint256",
          "name": "",
          "type": "uint256"
        }
      ],
      "stateMutability": "view",
      "type": "function"
    },
    {
      "inputs": [
        {
          "internalType": "address",
          "name": "",
          "type": "address"
        }
      ],
      "name": "claimableReward",
      "outputs": [
        {
          "internalType": "uint256",
          "name": "",
          "type": "uint256"
        }
      ],
      "stateMutability": "view",
      "type": "function"
    },
    {
      "inputs": [],
      "name": "cumulativeRewardPerToken",
      "outputs": [
        {
          "internalType": "uint256",
          "name": "",
          "type": "uint256"
        }
      ],
      "stateMutability": "view",
      "type": "function"
    },
    {
      "inputs": [],
      "name": "decimals",
      "outputs": [
        {
          "internalType": "uint8",
          "name": "",
          "type": "uint8"
        }
      ],
      "stateMutability": "view",
      "type": "function"
    },
    {
      "inputs": [
        {
          "internalType": "address",
          "name": "spender",
          "type": "address"
        },
        {
          "internalType": "uint256",
          "name": "subtractedValue",
          "type": "uint256"
        }
      ],
      "name": "decreaseAllowance",
      "outputs": [
        {
          "internalType": "bool",
          "name": "",
          "type": "bool"
        }
      ],
      "stateMutability": "nonpayable",
      "type": "function"
    },
    {
      "inputs": [],
      "name": "distributor",
      "outputs": [
        {
          "internalType": "address",
          "name": "",
          "type": "address"
        }
      ],
      "stateMutability": "view",
      "type": "function"
    },
    {
      "inputs": [],
      "name": "getLPReward",
      "outputs": [
        {
          "internalType": "uint256",
          "name": "",
          "type": "uint256"
        }
      ],
      "stateMutability": "view",
      "type": "function"
    },
    {
      "inputs": [
        {
          "internalType": "bytes32",
          "name": "role",
          "type": "bytes32"
        }
      ],
      "name": "getRoleAdmin",
      "outputs": [
        {
          "internalType": "bytes32",
          "name": "",
          "type": "bytes32"
        }
      ],
      "stateMutability": "view",
      "type": "function"
    },
    {
      "inputs": [
        {
          "internalType": "address",
          "name": "_account",
          "type": "address"
        }
      ],
      "name": "grantControllerRoleByMarketManager",
      "outputs": [],
      "stateMutability": "nonpayable",
      "type": "function"
    },
    {
      "inputs": [
        {
          "internalType": "bytes32",
          "name": "role",
          "type": "bytes32"
        },
        {
          "internalType": "address",
          "name": "account",
          "type": "address"
        }
      ],
      "name": "grantRole",
      "outputs": [],
      "stateMutability": "nonpayable",
      "type": "function"
    },
    {
      "inputs": [
        {
          "internalType": "bytes32",
          "name": "role",
          "type": "bytes32"
        },
        {
          "internalType": "address",
          "name": "account",
          "type": "address"
        }
      ],
      "name": "hasRole",
      "outputs": [
        {
          "internalType": "bool",
          "name": "",
          "type": "bool"
        }
      ],
      "stateMutability": "view",
      "type": "function"
    },
    {
      "inputs": [
        {
          "internalType": "address",
          "name": "spender",
          "type": "address"
        },
        {
          "internalType": "uint256",
          "name": "addedValue",
          "type": "uint256"
        }
      ],
      "name": "increaseAllowance",
      "outputs": [
        {
          "internalType": "bool",
          "name": "",
          "type": "bool"
        }
      ],
      "stateMutability": "nonpayable",
      "type": "function"
    },
    {
      "inputs": [
        {
          "internalType": "string",
          "name": "name_",
          "type": "string"
        },
        {
          "internalType": "string",
          "name": "symbol_",
          "type": "string"
        },
        {
          "internalType": "address",
          "name": "_stakeToken",
          "type": "address"
        },
        {
          "internalType": "address",
          "name": "_distributor",
          "type": "address"
        },
        {
          "internalType": "address",
          "name": "_vaultRewardToken",
          "type": "address"
        }
      ],
      "name": "initialize",
      "outputs": [],
      "stateMutability": "nonpayable",
      "type": "function"
    },
    {
      "inputs": [
        {
          "internalType": "address",
          "name": "",
          "type": "address"
        }
      ],
      "name": "lpEarnedRewards",
      "outputs": [
        {
          "internalType": "uint256",
          "name": "",
          "type": "uint256"
        }
      ],
      "stateMutability": "view",
      "type": "function"
    },
    {
      "inputs": [],
      "name": "name",
      "outputs": [
        {
          "internalType": "string",
          "name": "",
          "type": "string"
        }
      ],
      "stateMutability": "view",
      "type": "function"
    },
    {
      "inputs": [],
      "name": "owner",
      "outputs": [
        {
          "internalType": "address",
          "name": "",
          "type": "address"
        }
      ],
      "stateMutability": "view",
      "type": "function"
    },
    {
      "inputs": [],
      "name": "pendingRewards",
      "outputs": [
        {
          "internalType": "uint256",
          "name": "",
          "type": "uint256"
        }
      ],
      "stateMutability": "view",
      "type": "function"
    },
    {
      "inputs": [
        {
          "internalType": "address",
          "name": "",
          "type": "address"
        }
      ],
      "name": "previousCumulatedRewardPerToken",
      "outputs": [
        {
          "internalType": "uint256",
          "name": "",
          "type": "uint256"
        }
      ],
      "stateMutability": "view",
      "type": "function"
    },
    {
      "inputs": [],
      "name": "renounceOwnership",
      "outputs": [],
      "stateMutability": "nonpayable",
      "type": "function"
    },
    {
      "inputs": [
        {
          "internalType": "bytes32",
          "name": "",
          "type": "bytes32"
        },
        {
          "internalType": "address",
          "name": "",
          "type": "address"
        }
      ],
      "name": "renounceRole",
      "outputs": [],
      "stateMutability": "nonpayable",
      "type": "function"
    },
    {
      "inputs": [
        {
          "internalType": "bytes32",
          "name": "role",
          "type": "bytes32"
        },
        {
          "internalType": "address",
          "name": "account",
          "type": "address"
        }
      ],
      "name": "revokeRole",
      "outputs": [],
      "stateMutability": "nonpayable",
      "type": "function"
    },
    {
      "inputs": [],
      "name": "rewardToken",
      "outputs": [
        {
          "internalType": "address",
          "name": "",
          "type": "address"
        }
      ],
      "stateMutability": "view",
      "type": "function"
    },
    {
      "inputs": [
        {
          "internalType": "uint256",
          "name": "amount",
          "type": "uint256"
        }
      ],
      "name": "stake",
      "outputs": [],
      "stateMutability": "nonpayable",
      "type": "function"
    },
    {
      "inputs": [
        {
          "internalType": "address",
          "name": "account",
          "type": "address"
        },
        {
          "internalType": "uint256",
          "name": "amount",
          "type": "uint256"
        }
      ],
      "name": "stakeForAccount",
      "outputs": [],
      "stateMutability": "nonpayable",
      "type": "function"
    },
    {
      "inputs": [],
      "name": "stakeToken",
      "outputs": [
        {
          "internalType": "address",
          "name": "",
          "type": "address"
        }
      ],
      "stateMutability": "view",
      "type": "function"
    },
    {
      "inputs": [
        {
          "internalType": "bytes4",
          "name": "interfaceId",
          "type": "bytes4"
        }
      ],
      "name": "supportsInterface",
      "outputs": [
        {
          "internalType": "bool",
          "name": "",
          "type": "bool"
        }
      ],
      "stateMutability": "view",
      "type": "function"
    },
    {
      "inputs": [],
      "name": "symbol",
      "outputs": [
        {
          "internalType": "string",
          "name": "",
          "type": "string"
        }
      ],
      "stateMutability": "view",
      "type": "function"
    },
    {
      "inputs": [],
      "name": "tokensPerInterval",
      "outputs": [
        {
          "internalType": "uint256",
          "name": "",
          "type": "uint256"
        }
      ],
      "stateMutability": "view",
      "type": "function"
    },
    {
      "inputs": [],
      "name": "totalSupply",
      "outputs": [
        {
          "internalType": "uint256",
          "name": "",
          "type": "uint256"
        }
      ],
      "stateMutability": "view",
      "type": "function"
    },
    {
      "inputs": [
        {
          "internalType": "address",
          "name": "to",
          "type": "address"
        },
        {
          "internalType": "uint256",
          "name": "amount",
          "type": "uint256"
        }
      ],
      "name": "transfer",
      "outputs": [
        {
          "internalType": "bool",
          "name": "",
          "type": "bool"
        }
      ],
      "stateMutability": "nonpayable",
      "type": "function"
    },
    {
      "inputs": [
        {
          "internalType": "address",
          "name": "to",
          "type": "address"
        }
      ],
      "name": "transferAdmin",
      "outputs": [],
      "stateMutability": "nonpayable",
      "type": "function"
    },
    {
      "inputs": [
        {
          "internalType": "address",
          "name": "from",
          "type": "address"
        },
        {
          "internalType": "address",
          "name": "to",
          "type": "address"
        },
        {
          "internalType": "uint256",
          "name": "amount",
          "type": "uint256"
        }
      ],
      "name": "transferFrom",
      "outputs": [
        {
          "internalType": "bool",
          "name": "",
          "type": "bool"
        }
      ],
      "stateMutability": "nonpayable",
      "type": "function"
    },
    {
      "inputs": [
        {
          "internalType": "address",
          "name": "newOwner",
          "type": "address"
        }
      ],
      "name": "transferOwnership",
      "outputs": [],
      "stateMutability": "nonpayable",
      "type": "function"
    },
    {
      "inputs": [
        {
          "internalType": "uint256",
          "name": "amount",
          "type": "uint256"
        }
      ],
      "name": "unstake",
      "outputs": [],
      "stateMutability": "nonpayable",
      "type": "function"
    },
    {
      "inputs": [
        {
          "internalType": "address",
          "name": "account",
          "type": "address"
        },
        {
          "internalType": "uint256",
          "name": "amount",
          "type": "uint256"
        }
      ],
      "name": "unstakeForAccount",
      "outputs": [],
      "stateMutability": "nonpayable",
      "type": "function"
    },
    {
      "inputs": [],
      "name": "updateRewards",
      "outputs": [],
      "stateMutability": "nonpayable",
      "type": "function"
    },
    {
      "inputs": [],
      "name": "vaultRewardToken",
      "outputs": [
        {
          "internalType": "address",
          "name": "",
          "type": "address"
        }
      ],
      "stateMutability": "view",
      "type": "function"
    }
  ],
  "bytecode": {
    "object": "0x608060405234801561001057600080fd5b5061001a33610024565b6001600855610076565b600680546001600160a01b038381166001600160a01b0319831681179093556040519116919082907f8be0079c531659141344cd1fd0a4f28419497f9722a3daafe3b4186f6b6457e090600090a35050565b612489806100856000396000f3fe608060405234801561001057600080fd5b506004361061027f5760003560e01c80638f089d651161015c578063afd6a5cc116100ce578063e950342511610087578063e95034251461058f578063eded3fda146105af578063eedbc776146105b7578063f2fde38b146105ca578063f5fc5076146105dd578063f7c618c1146105e657600080fd5b8063afd6a5cc14610528578063bfe109281461053b578063d547741f1461054e578063db0ed6a014610561578063dd62ed3e14610574578063e547bb911461058757600080fd5b8063a457c2d711610120578063a457c2d7146104b3578063a694fc3a146104c6578063a8d93627146104d9578063a9059cbb146104e1578063aaf5eb68146104f4578063ae8bcdf81461050857600080fd5b80638f089d651461046857806391d148541461047057806395d89b4114610483578063a217fddf1461048b578063a31802171461049357600080fd5b806339509351116101f557806370a08231116101b957806370a08231146103ed578063715018a61461041657806375829def1461041e5780637fe4a6981461043157806385e04aaa146104445780638da5cb5b1461045757600080fd5b806339509351146103745780633e158b0c14610387578063402914f51461038f57806344a08411146103a257806351ed6a30146103c257600080fd5b8063242831181161024757806324283118146102f9578063248a9ca31461030e5780632e17de78146103315780632f2ff15d14610344578063313ce5671461035757806336568abe1461036657600080fd5b806301ffc9a71461028457806306fdde03146102ac578063095ea7b3146102c157806318160ddd146102d457806323b872dd146102e6575b600080fd5b610297610292366004611edf565b6105f7565b60405190151581526020015b60405180910390f35b6102b461062e565b6040516102a39190611f2d565b6102976102cf366004611f7c565b6106c0565b6002545b6040519081526020016102a3565b6102976102f4366004611fa6565b6106d8565b61030c610307366004611f7c565b6106fc565b005b6102d861031c366004611fe2565b60009081526005602052604090206001015490565b61030c61033f366004611fe2565b610788565b61030c610352366004611ffb565b61080d565b604051601281526020016102a3565b61030c61027f366004611ffb565b610297610382366004611f7c565b610837565b61030c610859565b6102d861039d366004612027565b610877565b6102d86103b0366004612027565b600a6020526000908152604090205481565b600e546103d5906001600160a01b031681565b6040516001600160a01b0390911681526020016102a3565b6102d86103fb366004612027565b6001600160a01b031660009081526020819052604090205490565b61030c610969565b61030c61042c366004612027565b61097b565b61030c61043f366004612027565b6109f0565b6010546103d5906001600160a01b031681565b6006546001600160a01b03166103d5565b6102d8610a1a565b61029761047e366004611ffb565b610a61565b6102b4610a8c565b6102d8600081565b6102d86104a1366004612027565b600d6020526000908152604090205481565b6102976104c1366004611f7c565b610a9b565b61030c6104d4366004611fe2565b610b16565b6102d8610b9f565b6102976104ef366004611f7c565b610c0d565b6102d86c0c9f2c9cd04674edea4000000081565b6102d8610516366004612027565b600b6020526000908152604090205481565b61030c610536366004612027565b610c1b565b600f546103d5906001600160a01b031681565b61030c61055c366004611ffb565b610c25565b61030c61056f3660046120e5565b610c4a565b6102d861058236600461217b565b610dc2565b61030c610ded565b6102d861059d366004612027565b600c6020526000908152604090205481565b6102d8610e13565b61030c6105c5366004611f7c565b610e1e565b61030c6105d8366004612027565b610e9f565b6102d860095481565b6010546001600160a01b03166103d5565b60006001600160e01b03198216637965db0b60e01b148061062857506301ffc9a760e01b6001600160e01b03198316145b92915050565b60606003805461063d906121a5565b80601f0160208091040260200160405190810160405280929190818152602001828054610669906121a5565b80156106b65780601f1061068b576101008083540402835291602001916106b6565b820191906000526020600020905b81548152906001019060200180831161069957829003601f168201915b5050505050905090565b6000336106ce818585610f15565b5060019392505050565b6000336106e6858285611039565b6106f18585856110b3565b506001949350505050565b600e546040516323b872dd60e01b81526001600160a01b03848116600483015230602483015260448201849052909116906323b872dd906064016020604051808303816000875af1158015610755573d6000803e3d6000fd5b505050506040513d601f19601f8201168201806040525081019061077991906121df565b506107848282611257565b5050565b61079233826112c0565b600e546040516323b872dd60e01b8152306004820152336024820152604481018390526001600160a01b03909116906323b872dd906064016020604051808303816000875af11580156107e9573d6000803e3d6000fd5b505050506040513d601f19601f8201168201806040525081019061078491906121df565b600082815260056020526040902060010154610828816113f2565b61083283836113fc565b505050565b6000336106ce81858561084a8383610dc2565b6108549190612217565b610f15565b610861611482565b61086b60006114db565b6108756001600855565b565b600080610883836116f9565b9050806000036108aa5750506001600160a01b03166000908152600c602052604090205490565b60006108b4611717565b905060006108d76c0c9f2c9cd04674edea400000006108d1611722565b9061176c565b905060006108f16108e8838561177f565b6009549061178b565b6001600160a01b0387166000908152600a602052604090205490915061095f90610940906c0c9f2c9cd04674edea400000009061093a90610933908690611797565b889061176c565b9061177f565b6001600160a01b0388166000908152600c60205260409020549061178b565b9695505050505050565b6109716117a3565b61087560006117fd565b6000610986816113f2565b6001600160a01b0382166109d15760405162461bcd60e51b815260206004820152600d60248201526c217a65726f206164647265737360981b60448201526064015b60405180910390fd5b6109dc60008361184f565b6109e5826117fd565b610784600033611859565b7f8d1089725c0dc266707fa6207730fb801dcd03108bfed7a21099bd303651d2b761027f816113f2565b336000908152600b60205260408120548103610a365750600090565b336000908152600c6020908152604080832054600b90925290912054610a5c919061222a565b905090565b60009182526005602090815260408084206001600160a01b0393909316845291905290205460ff1690565b60606004805461063d906121a5565b60003381610aa98286610dc2565b905083811015610b095760405162461bcd60e51b815260206004820152602560248201527f45524332303a2064656372656173656420616c6c6f77616e63652062656c6f77604482015264207a65726f60d81b60648201526084016109c8565b6106f18286868403610f15565b600e546040516323b872dd60e01b8152336004820152306024820152604481018390526001600160a01b03909116906323b872dd906064016020604051808303816000875af1158015610b6d573d6000803e3d6000fd5b505050506040513d601f19601f82011682018060405250810190610b9191906121df565b50610b9c3382611257565b50565b600f546040805163a8d9362760e01b815290516000926001600160a01b03169163a8d936279160048083019260209291908290030181865afa158015610be9573d6000803e3d6000fd5b505050506040513d601f19601f82011682018060405250810190610a5c919061223d565b6000336106ce8185856110b3565b610b9c81826118c0565b600082815260056020526040902060010154610c40816113f2565b6108328383611859565b600654600160a81b900460ff1615808015610c7257506006546001600160a01b90910460ff16105b80610c935750303b158015610c935750600654600160a01b900460ff166001145b610cf65760405162461bcd60e51b815260206004820152602e60248201527f496e697469616c697a61626c653a20636f6e747261637420697320616c72656160448201526d191e481a5b9a5d1a585b1a5e995960921b60648201526084016109c8565b6006805460ff60a01b1916600160a01b1790558015610d23576006805460ff60a81b1916600160a81b1790555b610d2b611937565b610d358686611940565b600e80546001600160a01b038087166001600160a01b031992831617909255600f805486841690831617905560108054928516929091169190911790558015610dba576006805460ff60a81b19169055604051600181527f7f26b83ff96e1f2b6a682f133852f6798a09c465da95921460cefb38474024989060200160405180910390a15b505050505050565b6001600160a01b03918216600090815260016020908152604080832093909416825291909152205490565b610df5611482565b610dfd611959565b33610e0881806118c0565b506108756001600855565b6000610a5c33610877565b610e2882826112c0565b600e5460405163a9059cbb60e01b81526001600160a01b038481166004830152602482018490529091169063a9059cbb906044016020604051808303816000875af1158015610e7b573d6000803e3d6000fd5b505050506040513d601f19601f8201168201806040525081019061083291906121df565b610ea76117a3565b6001600160a01b038116610f0c5760405162461bcd60e51b815260206004820152602660248201527f4f776e61626c653a206e6577206f776e657220697320746865207a65726f206160448201526564647265737360d01b60648201526084016109c8565b610b9c816117fd565b6001600160a01b038316610f775760405162461bcd60e51b8152602060048201526024808201527f45524332303a20617070726f76652066726f6d20746865207a65726f206164646044820152637265737360e01b60648201526084016109c8565b6001600160a01b038216610fd85760405162461bcd60e51b815260206004820152602260248201527f45524332303a20617070726f766520746f20746865207a65726f206164647265604482015261737360f01b60648201526084016109c8565b6001600160a01b0383811660008181526001602090815260408083209487168084529482529182902085905590518481527f8c5be1e5ebec7d5bd14f71427d1e84f3dd0314c0f7b2291e5b200ac8c7c3b925910160405180910390a3505050565b60006110458484610dc2565b905060001981146110ad57818110156110a05760405162461bcd60e51b815260206004820152601d60248201527f45524332303a20696e73756666696369656e7420616c6c6f77616e636500000060448201526064016109c8565b6110ad8484848403610f15565b50505050565b6001600160a01b0383166111175760405162461bcd60e51b815260206004820152602560248201527f45524332303a207472616e736665722066726f6d20746865207a65726f206164604482015264647265737360d81b60648201526084016109c8565b6001600160a01b0382166111795760405162461bcd60e51b815260206004820152602360248201527f45524332303a207472616e7366657220746f20746865207a65726f206164647260448201526265737360e81b60648201526084016109c8565b6001600160a01b038316600090815260208190526040902054818110156111f15760405162461bcd60e51b815260206004820152602660248201527f45524332303a207472616e7366657220616d6f756e7420657863656564732062604482015265616c616e636560d01b60648201526084016109c8565b6001600160a01b03848116600081815260208181526040808320878703905593871680835291849020805487019055925185815290927fddf252ad1be2c89b69c2b068fc378daa952ba7f163c4a11628f55a4df523b3ef910160405180910390a36110ad565b80600260008282546112699190612217565b90915550506001600160a01b038216600081815260208181526040808320805486019055518481527fddf252ad1be2c89b69c2b068fc378daa952ba7f163c4a11628f55a4df523b3ef910160405180910390a35050565b6001600160a01b0382166113205760405162461bcd60e51b815260206004820152602160248201527f45524332303a206275726e2066726f6d20746865207a65726f206164647265736044820152607360f81b60648201526084016109c8565b6001600160a01b038216600090815260208190526040902054818110156113945760405162461bcd60e51b815260206004820152602260248201527f45524332303a206275726e20616d6f756e7420657863656564732062616c616e604482015261636560f01b60648201526084016109c8565b6001600160a01b0383166000818152602081815260408083208686039055600280548790039055518581529192917fddf252ad1be2c89b69c2b068fc378daa952ba7f163c4a11628f55a4df523b3ef910160405180910390a3505050565b610b9c81336119a3565b6114068282610a61565b6107845760008281526005602090815260408083206001600160a01b03851684529091529020805460ff1916600117905561143e3390565b6001600160a01b0316816001600160a01b0316837f2f8788117e7eff1d82e926ec794901d17c78024a50270940304540a733656f0d60405160405180910390a45050565b6002600854036114d45760405162461bcd60e51b815260206004820152601f60248201527f5265656e7472616e637947756172643a207265656e7472616e742063616c6c0060448201526064016109c8565b6002600855565b60006114e56119fc565b905060006114f1611717565b60095490915081158015906115065750600083115b1561157957816115236c0c9f2c9cd04674edea4000000085612256565b61152d919061226d565b6115379082612217565b600981905560408051848152602081018390529192507f055418cabed8a0ec732dd9b1f84e69d3f33a8f9a70d721b7a6962a00c26a4572910160405180910390a15b806000036115875750505050565b6001600160a01b038416156110ad5760006115a1856116f9565b6001600160a01b0386166000908152600a6020526040812054919250906c0c9f2c9cd04674edea40000000906115d7908561222a565b6115e19084612256565b6115eb919061226d565b6001600160a01b0387166000908152600c602052604081205491925090611613908390612217565b6001600160a01b0388166000908152600c60209081526040808320849055600a90915290208590559050801580159061165457506000611652886116f9565b115b156116f0576001600160a01b0387166000908152600b602052604081205461167d908490612217565b90506116ca6116908261093a878761176c565b6001600160a01b038a166000908152600b6020908152604080832054600d909252909120546116c491859161093a9161176c565b9061178b565b6001600160a01b0389166000908152600d6020908152604080832093909355600b905220555b50505050505050565b6001600160a01b038116600090815260208190526040812054610628565b6000610a5c60025490565b600f54604080516376f69fed60e11b815290516000926001600160a01b03169163eded3fda9160048083019260209291908290030181865afa158015610be9573d6000803e3d6000fd5b60006117788284612256565b9392505050565b6000611778828461226d565b60006117788284612217565b6000611778828461222a565b6006546001600160a01b031633146108755760405162461bcd60e51b815260206004820181905260248201527f4f776e61626c653a2063616c6c6572206973206e6f7420746865206f776e657260448201526064016109c8565b600680546001600160a01b038381166001600160a01b0319831681179093556040519116919082907f8be0079c531659141344cd1fd0a4f28419497f9722a3daafe3b4186f6b6457e090600090a35050565b61078482826113fc565b6118638282610a61565b156107845760008281526005602090815260408083206001600160a01b0385168085529252808320805460ff1916905551339285917ff6391f5c32d9c69d2a47ea670b442974b53935d1edc7fd64eb21e047a839171b9190a45050565b6118c9826114db565b6001600160a01b0382166000908152600c6020526040812080549190556118f08282611a47565b604080516001600160a01b0384168152602081018390527fc9695243a805adb74c91f28311176c65b417e842d5699893cef56d18bfa48cba910160405180910390a1505050565b61087533611a6e565b600361194c83826122d5565b50600461083282826122d5565b33600090815260208190526040812054116108755760405162461bcd60e51b815260206004820152600a6024820152693737ba1037bbb73732b960b11b60448201526064016109c8565b6119ad8282610a61565b610784576119ba81611a91565b6119c5836020611aa3565b6040516020016119d6929190612395565b60408051601f198184030181529082905262461bcd60e51b82526109c891600401611f2d565b600f546040805163e4fc6b6d60e01b815290516000926001600160a01b03169163e4fc6b6d916004808301926020929190829003018187875af1158015610be9573d6000803e3d6000fd5b6107848282611a5e6010546001600160a01b031690565b6001600160a01b03169190611c3f565b42600755611a7b336117fd565b611a8660003361184f565b610b9c60008261184f565b60606106286001600160a01b03831660145b60606000611ab2836002612256565b611abd906002612217565b67ffffffffffffffff811115611ad557611ad5612042565b6040519080825280601f01601f191660200182016040528015611aff576020820181803683370190505b509050600360fc1b81600081518110611b1a57611b1a61240a565b60200101906001600160f81b031916908160001a905350600f60fb1b81600181518110611b4957611b4961240a565b60200101906001600160f81b031916908160001a9053506000611b6d846002612256565b611b78906001612217565b90505b6001811115611bf0576f181899199a1a9b1b9c1cb0b131b232b360811b85600f1660108110611bac57611bac61240a565b1a60f81b828281518110611bc257611bc261240a565b60200101906001600160f81b031916908160001a90535060049490941c93611be981612420565b9050611b7b565b5083156117785760405162461bcd60e51b815260206004820181905260248201527f537472696e67733a20686578206c656e67746820696e73756666696369656e7460448201526064016109c8565b604080516001600160a01b03848116602483015260448083018590528351808403909101815260649092018352602080830180516001600160e01b031663a9059cbb60e01b17905283518085019094528084527f5361666545524332303a206c6f772d6c6576656c2063616c6c206661696c65649084015261083292869291600091611ccf918516908490611d4f565b9050805160001480611cf0575080806020019051810190611cf091906121df565b6108325760405162461bcd60e51b815260206004820152602a60248201527f5361666545524332303a204552433230206f7065726174696f6e20646964206e6044820152691bdd081cdd58d8d9595960b21b60648201526084016109c8565b6060611d5e8484600085611d66565b949350505050565b606082471015611dc75760405162461bcd60e51b815260206004820152602660248201527f416464726573733a20696e73756666696369656e742062616c616e636520666f6044820152651c8818d85b1b60d21b60648201526084016109c8565b600080866001600160a01b03168587604051611de39190612437565b60006040518083038185875af1925050503d8060008114611e20576040519150601f19603f3d011682016040523d82523d6000602084013e611e25565b606091505b5091509150611e3687838387611e41565b979650505050505050565b60608315611eb0578251600003611ea9576001600160a01b0385163b611ea95760405162461bcd60e51b815260206004820152601d60248201527f416464726573733a2063616c6c20746f206e6f6e2d636f6e747261637400000060448201526064016109c8565b5081611d5e565b611d5e8383815115611ec55781518083602001fd5b8060405162461bcd60e51b81526004016109c89190611f2d565b600060208284031215611ef157600080fd5b81356001600160e01b03198116811461177857600080fd5b60005b83811015611f24578181015183820152602001611f0c565b50506000910152565b6020815260008251806020840152611f4c816040850160208701611f09565b601f01601f19169190910160400192915050565b80356001600160a01b0381168114611f7757600080fd5b919050565b60008060408385031215611f8f57600080fd5b611f9883611f60565b946020939093013593505050565b600080600060608486031215611fbb57600080fd5b611fc484611f60565b9250611fd260208501611f60565b9150604084013590509250925092565b600060208284031215611ff457600080fd5b5035919050565b6000806040838503121561200e57600080fd5b8235915061201e60208401611f60565b90509250929050565b60006020828403121561203957600080fd5b61177882611f60565b634e487b7160e01b600052604160045260246000fd5b600082601f83011261206957600080fd5b813567ffffffffffffffff8082111561208457612084612042565b604051601f8301601f19908116603f011681019082821181831017156120ac576120ac612042565b816040528381528660208588010111156120c557600080fd5b836020870160208301376000602085830101528094505050505092915050565b600080600080600060a086880312156120fd57600080fd5b853567ffffffffffffffff8082111561211557600080fd5b61212189838a01612058565b9650602088013591508082111561213757600080fd5b5061214488828901612058565b94505061215360408701611f60565b925061216160608701611f60565b915061216f60808701611f60565b90509295509295909350565b6000806040838503121561218e57600080fd5b61219783611f60565b915061201e60208401611f60565b600181811c908216806121b957607f821691505b6020821081036121d957634e487b7160e01b600052602260045260246000fd5b50919050565b6000602082840312156121f157600080fd5b8151801515811461177857600080fd5b634e487b7160e01b600052601160045260246000fd5b8082018082111561062857610628612201565b8181038181111561062857610628612201565b60006020828403121561224f57600080fd5b5051919050565b808202811582820484141761062857610628612201565b60008261228a57634e487b7160e01b600052601260045260246000fd5b500490565b601f82111561083257600081815260208120601f850160051c810160208610156122b65750805b601f850160051c820191505b81811015610dba578281556001016122c2565b815167ffffffffffffffff8111156122ef576122ef612042565b612303816122fd84546121a5565b8461228f565b602080601f83116001811461233857600084156123205750858301515b600019600386901b1c1916600185901b178555610dba565b600085815260208120601f198616915b8281101561236757888601518255948401946001909101908401612348565b50858210156123855787850151600019600388901b60f8161c191681555b5050505050600190811b01905550565b7f416363657373436f6e74726f6c3a206163636f756e74200000000000000000008152600083516123cd816017850160208801611f09565b7001034b99036b4b9b9b4b733903937b6329607d1b60179184019182015283516123fe816028840160208801611f09565b01602801949350505050565b634e487b7160e01b600052603260045260246000fd5b60008161242f5761242f612201565b506000190190565b60008251612449818460208701611f09565b919091019291505056fea2646970667358221220a6347f247788d6136e3f434df3fa69775bbd8e5bd6b9777532ff04826b13f87a64736f6c63430008110033",
    "linkReferences": {}
  },
  "methodIdentifiers": {
    "DEFAULT_ADMIN_ROLE()": "a217fddf",
    "PRECISION()": "aaf5eb68",
    "allowance(address,address)": "dd62ed3e",
    "approve(address,uint256)": "095ea7b3",
    "averageStakedAmounts(address)": "a3180217",
    "balanceOf(address)": "70a08231",
    "claimForAccount(address)": "afd6a5cc",
    "claimLPReward()": "e547bb91",
    "claimable(address)": "402914f5",
    "claimableReward(address)": "e9503425",
    "cumulativeRewardPerToken()": "f5fc5076",
    "decimals()": "313ce567",
    "decreaseAllowance(address,uint256)": "a457c2d7",
    "distributor()": "bfe10928",
    "getLPReward()": "8f089d65",
    "getRoleAdmin(bytes32)": "248a9ca3",
    "grantControllerRoleByMarketManager(address)": "7fe4a698",
    "grantRole(bytes32,address)": "2f2ff15d",
    "hasRole(bytes32,address)": "91d14854",
    "increaseAllowance(address,uint256)": "39509351",
    "initialize(string,string,address,address,address)": "db0ed6a0",
    "lpEarnedRewards(address)": "ae8bcdf8",
    "name()": "06fdde03",
    "owner()": "8da5cb5b",
    "pendingRewards()": "eded3fda",
    "previousCumulatedRewardPerToken(address)": "44a08411",
    "renounceOwnership()": "715018a6",
    "renounceRole(bytes32,address)": "36568abe",
    "revokeRole(bytes32,address)": "d547741f",
    "rewardToken()": "f7c618c1",
    "stake(uint256)": "a694fc3a",
    "stakeForAccount(address,uint256)": "24283118",
    "stakeToken()": "51ed6a30",
    "supportsInterface(bytes4)": "01ffc9a7",
    "symbol()": "95d89b41",
    "tokensPerInterval()": "a8d93627",
    "totalSupply()": "18160ddd",
    "transfer(address,uint256)": "a9059cbb",
    "transferAdmin(address)": "75829def",
    "transferFrom(address,address,uint256)": "23b872dd",
    "transferOwnership(address)": "f2fde38b",
    "unstake(uint256)": "2e17de78",
    "unstakeForAccount(address,uint256)": "eedbc776",
    "updateRewards()": "3e158b0c",
    "vaultRewardToken()": "85e04aaa"
  },
  "id": 89
}