{
  "abi": [
    {
      "anonymous": false,
      "inputs": [
        {
          "indexed": false,
          "internalType": "uint8",
          "name": "version",
          "type": "uint8"
        }
      ],
      "name": "Initialized",
      "type": "event"
    },
    {
      "anonymous": false,
      "inputs": [
        {
          "indexed": true,
          "internalType": "address",
          "name": "previousOwner",
          "type": "address"
        },
        {
          "indexed": true,
          "internalType": "address",
          "name": "newOwner",
          "type": "address"
        }
      ],
      "name": "OwnershipTransferred",
      "type": "event"
    },
    {
      "anonymous": false,
      "inputs": [
        {
          "indexed": true,
          "internalType": "bytes32",
          "name": "role",
          "type": "bytes32"
        },
        {
          "indexed": true,
          "internalType": "bytes32",
          "name": "previousAdminRole",
          "type": "bytes32"
        },
        {
          "indexed": true,
          "internalType": "bytes32",
          "name": "newAdminRole",
          "type": "bytes32"
        }
      ],
      "name": "RoleAdminChanged",
      "type": "event"
    },
    {
      "anonymous": false,
      "inputs": [
        {
          "indexed": true,
          "internalType": "bytes32",
          "name": "role",
          "type": "bytes32"
        },
        {
          "indexed": true,
          "internalType": "address",
          "name": "account",
          "type": "address"
        },
        {
          "indexed": true,
          "internalType": "address",
          "name": "sender",
          "type": "address"
        }
      ],
      "name": "RoleGranted",
      "type": "event"
    },
    {
      "anonymous": false,
      "inputs": [
        {
          "indexed": true,
          "internalType": "bytes32",
          "name": "role",
          "type": "bytes32"
        },
        {
          "indexed": true,
          "internalType": "address",
          "name": "account",
          "type": "address"
        },
        {
          "indexed": true,
          "internalType": "address",
          "name": "sender",
          "type": "address"
        }
      ],
      "name": "RoleRevoked",
      "type": "event"
    },
    {
      "inputs": [],
      "name": "DEFAULT_ADMIN_ROLE",
      "outputs": [
        {
          "internalType": "bytes32",
          "name": "",
          "type": "bytes32"
        }
      ],
      "stateMutability": "view",
      "type": "function"
    },
    {
      "inputs": [],
      "name": "PLUGIN_GAS_LIMIT",
      "outputs": [
        {
          "internalType": "uint256",
          "name": "",
          "type": "uint256"
        }
      ],
      "stateMutability": "view",
      "type": "function"
    },
    {
      "inputs": [
        {
          "internalType": "address",
          "name": "_account",
          "type": "address"
        },
        {
          "internalType": "bool[]",
          "name": "_isIncreaseList",
          "type": "bool[]"
        },
        {
          "internalType": "uint256[]",
          "name": "_orderIDList",
          "type": "uint256[]"
        },
        {
          "internalType": "bool[]",
          "name": "_isLongList",
          "type": "bool[]"
        }
      ],
      "name": "cancelOrderList",
      "outputs": [],
      "stateMutability": "nonpayable",
      "type": "function"
    },
    {
      "inputs": [],
      "name": "collateralToken",
      "outputs": [
        {
          "internalType": "address",
          "name": "",
          "type": "address"
        }
      ],
      "stateMutability": "view",
      "type": "function"
    },
    {
      "inputs": [],
      "name": "collateralTokenDigits",
      "outputs": [
        {
          "internalType": "uint8",
          "name": "",
          "type": "uint8"
        }
      ],
      "stateMutability": "view",
      "type": "function"
    },
    {
      "inputs": [],
      "name": "feeRouter",
      "outputs": [
        {
          "internalType": "contract IFeeRouter",
          "name": "",
          "type": "address"
        }
      ],
      "stateMutability": "view",
      "type": "function"
    },
    {
      "inputs": [
        {
          "internalType": "bytes32",
          "name": "role",
          "type": "bytes32"
        }
      ],
      "name": "getRoleAdmin",
      "outputs": [
        {
          "internalType": "bytes32",
          "name": "",
          "type": "bytes32"
        }
      ],
      "stateMutability": "view",
      "type": "function"
    },
    {
      "inputs": [],
      "name": "globalValid",
      "outputs": [
        {
          "internalType": "address",
          "name": "",
          "type": "address"
        }
      ],
      "stateMutability": "view",
      "type": "function"
    },
    {
      "inputs": [
        {
          "internalType": "address",
          "name": "_account",
          "type": "address"
        }
      ],
      "name": "grantControllerRoleByMarketManager",
      "outputs": [],
      "stateMutability": "nonpayable",
      "type": "function"
    },
    {
      "inputs": [
        {
          "internalType": "bytes32",
          "name": "role",
          "type": "bytes32"
        },
        {
          "internalType": "address",
          "name": "account",
          "type": "address"
        }
      ],
      "name": "grantRole",
      "outputs": [],
      "stateMutability": "nonpayable",
      "type": "function"
    },
    {
      "inputs": [
        {
          "internalType": "bytes32",
          "name": "role",
          "type": "bytes32"
        },
        {
          "internalType": "address",
          "name": "account",
          "type": "address"
        }
      ],
      "name": "hasRole",
      "outputs": [
        {
          "internalType": "bool",
          "name": "",
          "type": "bool"
        }
      ],
      "stateMutability": "view",
      "type": "function"
    },
    {
      "inputs": [],
      "name": "indexToken",
      "outputs": [
        {
          "internalType": "address",
          "name": "",
          "type": "address"
        }
      ],
      "stateMutability": "view",
      "type": "function"
    },
    {
      "inputs": [],
      "name": "marketRouter",
      "outputs": [
        {
          "internalType": "address",
          "name": "",
          "type": "address"
        }
      ],
      "stateMutability": "view",
      "type": "function"
    },
    {
      "inputs": [],
      "name": "marketValid",
      "outputs": [
        {
          "internalType": "address",
          "name": "",
          "type": "address"
        }
      ],
      "stateMutability": "view",
      "type": "function"
    },
    {
      "inputs": [],
      "name": "name",
      "outputs": [
        {
          "internalType": "string",
          "name": "",
          "type": "string"
        }
      ],
      "stateMutability": "view",
      "type": "function"
    },
    {
      "inputs": [],
      "name": "orderBookLong",
      "outputs": [
        {
          "internalType": "contract IOrderBook",
          "name": "",
          "type": "address"
        }
      ],
      "stateMutability": "view",
      "type": "function"
    },
    {
      "inputs": [],
      "name": "orderBookShort",
      "outputs": [
        {
          "internalType": "contract IOrderBook",
          "name": "",
          "type": "address"
        }
      ],
      "stateMutability": "view",
      "type": "function"
    },
    {
      "inputs": [],
      "name": "orderMgr",
      "outputs": [
        {
          "internalType": "address",
          "name": "",
          "type": "address"
        }
      ],
      "stateMutability": "view",
      "type": "function"
    },
    {
      "inputs": [
        {
          "internalType": "bool",
          "name": "isLong",
          "type": "bool"
        },
        {
          "internalType": "bool",
          "name": "isOpen",
          "type": "bool"
        }
      ],
      "name": "orderStore",
      "outputs": [
        {
          "internalType": "contract IOrderStore",
          "name": "",
          "type": "address"
        }
      ],
      "stateMutability": "view",
      "type": "function"
    },
    {
      "inputs": [],
      "name": "owner",
      "outputs": [
        {
          "internalType": "address",
          "name": "",
          "type": "address"
        }
      ],
      "stateMutability": "view",
      "type": "function"
    },
    {
      "inputs": [
        {
          "internalType": "uint256",
          "name": "",
          "type": "uint256"
        }
      ],
      "name": "plugins",
      "outputs": [
        {
          "internalType": "address",
          "name": "",
          "type": "address"
        }
      ],
      "stateMutability": "view",
      "type": "function"
    },
    {
      "inputs": [],
      "name": "positionAddMgr",
      "outputs": [
        {
          "internalType": "address",
          "name": "",
          "type": "address"
        }
      ],
      "stateMutability": "view",
      "type": "function"
    },
    {
      "inputs": [],
      "name": "positionBook",
      "outputs": [
        {
          "internalType": "contract IPositionBook",
          "name": "",
          "type": "address"
        }
      ],
      "stateMutability": "view",
      "type": "function"
    },
    {
      "inputs": [],
      "name": "positionStoreLong",
      "outputs": [
        {
          "internalType": "address",
          "name": "",
          "type": "address"
        }
      ],
      "stateMutability": "view",
      "type": "function"
    },
    {
      "inputs": [],
      "name": "positionStoreShort",
      "outputs": [
        {
          "internalType": "address",
          "name": "",
          "type": "address"
        }
      ],
      "stateMutability": "view",
      "type": "function"
    },
    {
      "inputs": [],
      "name": "positionSubMgr",
      "outputs": [
        {
          "internalType": "address",
          "name": "",
          "type": "address"
        }
      ],
      "stateMutability": "view",
      "type": "function"
    },
    {
      "inputs": [],
      "name": "priceFeed",
      "outputs": [
        {
          "internalType": "address",
          "name": "",
          "type": "address"
        }
      ],
      "stateMutability": "view",
      "type": "function"
    },
    {
      "inputs": [],
      "name": "renounceOwnership",
      "outputs": [],
      "stateMutability": "nonpayable",
      "type": "function"
    },
    {
      "inputs": [
        {
          "internalType": "bytes32",
          "name": "",
          "type": "bytes32"
        },
        {
          "internalType": "address",
          "name": "",
          "type": "address"
        }
      ],
      "name": "renounceRole",
      "outputs": [],
      "stateMutability": "nonpayable",
      "type": "function"
    },
    {
      "inputs": [
        {
          "internalType": "bytes32",
          "name": "role",
          "type": "bytes32"
        },
        {
          "internalType": "address",
          "name": "account",
          "type": "address"
        }
      ],
      "name": "revokeRole",
      "outputs": [],
      "stateMutability": "nonpayable",
      "type": "function"
    },
    {
      "inputs": [
        {
          "internalType": "address",
          "name": "token",
          "type": "address"
        }
      ],
      "name": "setCollateralToken",
      "outputs": [],
      "stateMutability": "nonpayable",
      "type": "function"
    },
    {
      "inputs": [
        {
          "internalType": "address",
          "name": "fr",
          "type": "address"
        }
      ],
      "name": "setFeeRouter",
      "outputs": [],
      "stateMutability": "nonpayable",
      "type": "function"
    },
    {
      "inputs": [
        {
          "internalType": "address",
          "name": "_indexToken",
          "type": "address"
        }
      ],
      "name": "setIndexToken",
      "outputs": [],
      "stateMutability": "nonpayable",
      "type": "function"
    },
    {
      "inputs": [
        {
          "internalType": "address",
          "name": "_newMv",
          "type": "address"
        }
      ],
      "name": "setMarketValid",
      "outputs": [],
      "stateMutability": "nonpayable",
      "type": "function"
    },
    {
      "inputs": [
        {
          "internalType": "address",
          "name": "pf",
          "type": "address"
        }
      ],
      "name": "setOraclePrice",
      "outputs": [],
      "stateMutability": "nonpayable",
      "type": "function"
    },
    {
      "inputs": [
        {
          "internalType": "bool",
          "name": "isLong",
          "type": "bool"
        },
        {
          "internalType": "bool",
          "name": "isOpen",
          "type": "bool"
        },
        {
          "internalType": "address",
          "name": "os",
          "type": "address"
        }
      ],
      "name": "setOrderStore",
      "outputs": [],
      "stateMutability": "nonpayable",
      "type": "function"
    },
    {
      "inputs": [
        {
          "internalType": "address",
          "name": "book",
          "type": "address"
        }
      ],
      "name": "setPositionBook",
      "outputs": [],
      "stateMutability": "nonpayable",
      "type": "function"
    },
    {
      "inputs": [
        {
          "internalType": "address",
          "name": "vr",
          "type": "address"
        }
      ],
      "name": "setVaultRouter",
      "outputs": [],
      "stateMutability": "nonpayable",
      "type": "function"
    },
    {
      "inputs": [
        {
          "internalType": "address",
          "name": "orderBook",
          "type": "address"
        }
      ],
      "name": "setorderBookLong",
      "outputs": [],
      "stateMutability": "nonpayable",
      "type": "function"
    },
    {
      "inputs": [
        {
          "internalType": "address",
          "name": "orderBook",
          "type": "address"
        }
      ],
      "name": "setorderBookShort",
      "outputs": [],
      "stateMutability": "nonpayable",
      "type": "function"
    },
    {
      "inputs": [
        {
          "internalType": "bytes4",
          "name": "interfaceId",
          "type": "bytes4"
        }
      ],
      "name": "supportsInterface",
      "outputs": [
        {
          "internalType": "bool",
          "name": "",
          "type": "bool"
        }
      ],
      "stateMutability": "view",
      "type": "function"
    },
    {
      "inputs": [
        {
          "internalType": "bytes32[]",
          "name": "_orderKey",
          "type": "bytes32[]"
        },
        {
          "internalType": "bool[]",
          "name": "_isLong",
          "type": "bool[]"
        },
        {
          "internalType": "bool[]",
          "name": "_isIncrease",
          "type": "bool[]"
        },
        {
          "internalType": "string[]",
          "name": "reasons",
          "type": "string[]"
        }
      ],
      "name": "sysCancelOrder",
      "outputs": [],
      "stateMutability": "nonpayable",
      "type": "function"
    },
    {
      "inputs": [
        {
          "internalType": "address",
          "name": "to",
          "type": "address"
        }
      ],
      "name": "transferAdmin",
      "outputs": [],
      "stateMutability": "nonpayable",
      "type": "function"
    },
    {
      "inputs": [
        {
          "internalType": "address",
          "name": "newOwner",
          "type": "address"
        }
      ],
      "name": "transferOwnership",
      "outputs": [],
      "stateMutability": "nonpayable",
      "type": "function"
    },
    {
      "inputs": [
        {
          "components": [
            {
              "internalType": "address",
              "name": "_market",
              "type": "address"
            },
            {
              "internalType": "bool",
              "name": "_isLong",
              "type": "bool"
            },
            {
              "internalType": "uint256",
              "name": "_oraclePrice",
              "type": "uint256"
            },
            {
              "internalType": "bool",
              "name": "isOpen",
              "type": "bool"
            },
            {
              "internalType": "bool",
              "name": "isCreate",
              "type": "bool"
            },
            {
              "components": [
                {
                  "internalType": "uint8",
                  "name": "version",
                  "type": "uint8"
                },
                {
                  "internalType": "uint32",
                  "name": "updatedAtBlock",
                  "type": "uint32"
                },
                {
                  "internalType": "uint8",
                  "name": "triggerAbove",
                  "type": "uint8"
                },
                {
                  "internalType": "address",
                  "name": "account",
                  "type": "address"
                },
                {
                  "internalType": "uint48",
                  "name": "extra3",
                  "type": "uint48"
                },
                {
                  "internalType": "uint128",
                  "name": "collateral",
                  "type": "uint128"
                },
                {
                  "internalType": "uint128",
                  "name": "size",
                  "type": "uint128"
                },
                {
                  "internalType": "uint128",
                  "name": "price",
                  "type": "uint128"
                },
                {
                  "internalType": "uint128",
                  "name": "extra1",
                  "type": "uint128"
                },
                {
                  "internalType": "uint64",
                  "name": "orderID",
                  "type": "uint64"
                },
                {
                  "internalType": "uint64",
                  "name": "extra2",
                  "type": "uint64"
                },
                {
                  "internalType": "uint128",
                  "name": "extra0",
                  "type": "uint128"
                },
                {
                  "internalType": "bytes32",
                  "name": "refCode",
                  "type": "bytes32"
                }
              ],
              "internalType": "struct Order.Props",
              "name": "_order",
              "type": "tuple"
            },
            {
              "internalType": "uint256[]",
              "name": "inputs",
              "type": "uint256[]"
            }
          ],
          "internalType": "struct MarketDataTypes.UpdateOrderInputs",
          "name": "_vars",
          "type": "tuple"
        }
      ],
      "name": "updateOrder",
      "outputs": [],
      "stateMutability": "nonpayable",
      "type": "function"
    },
    {
      "inputs": [],
      "name": "vaultRouter",
      "outputs": [
        {
          "internalType": "address",
          "name": "",
          "type": "address"
        }
      ],
      "stateMutability": "view",
      "type": "function"
    }
  ],
  "bytecode": {
    "object": "0x60806040523480156200001157600080fd5b5060016046556000620000243362000041565b6200003a816200009360201b620018f61760201c565b5062000173565b604880546001600160a01b038381166001600160a01b0319831681179093556040519116919082907f8be0079c531659141344cd1fd0a4f28419497f9722a3daafe3b4186f6b6457e090600090a35050565b42604955620000a23362000041565b620000af600033620000bf565b620000bc600082620000bf565b50565b620000cb8282620000cf565b5050565b60008281526047602090815260408083206001600160a01b038516845290915290205460ff16620000cb5760008281526047602090815260408083206001600160a01b03851684529091529020805460ff191660011790556200012f3390565b6001600160a01b0316816001600160a01b0316837f2f8788117e7eff1d82e926ec794901d17c78024a50270940304540a733656f0d60405160405180910390a45050565b613ec380620001836000396000f3fe608060405234801561001057600080fd5b506004361061028a5760003560e01c8063a0cbf50c1161015c578063b894300d116100ce578063d547741f11610087578063d547741f14610700578063d7ec0a6d14610713578063e7d015f214610743578063f0a317eb14610756578063f29ebf6114610769578063f2fde38b1461077c57600080fd5b8063b894300d14610671578063c267ada414610684578063c54dc3d6146106b4578063d12dbde4146106c7578063d37c441c146106da578063d49ff78d146106ed57600080fd5b8063ac0c7aa411610120578063ac0c7aa4146105b9578063af44f6b6146105cc578063b038beb8146105fc578063b2016bd41461060f578063b21dc9cb14610622578063b82a35c51461064157600080fd5b8063a0cbf50c14610509578063a217fddf1461051c578063a264045414610524578063a620eb931461055c578063ac0b05a6146105a657600080fd5b806365e26e70116102005780637b2fd1e5116101b95780637b2fd1e51461047c5780637fe4a6981461048f5780638a6ca35d146104a25780638d49701d146104b55780638da5cb5b146104e557806391d14854146104f657600080fd5b806365e26e70146103be578063666181a9146103ee578063715018a61461041e578063741bef1a1461042657806375829def14610439578063780e72ff1461044c57600080fd5b80632f2ff15d116102525780632f2ff15d1461033b578063301f6fe91461035057806336568abe1461036357806339955ed71461037157806345ccf5c5146103a157806363cd8dbd146103b457600080fd5b806301ffc9a71461028f57806305ba9ae9146102b757806306fdde03146102e257806307e87545146102f7578063248a9ca31461030a575b600080fd5b6102a261029d366004612c11565b61078f565b60405190151581526020015b60405180910390f35b6006546102ca906001600160a01b031681565b6040516001600160a01b0390911681526020016102ae565b6102ea6107c6565b6040516102ae9190612c8b565b600a546102ca906001600160a01b031681565b61032d610318366004612c9e565b60009081526047602052604090206001015490565b6040519081526020016102ae565b61034e610349366004612cdc565b610854565b005b61034e61035e366004612ecb565b61087e565b61034e61028a366004612cdc565b61034e61037f366004612f65565b600080546001600160a01b0319166001600160a01b0392909216919091179055565b600b546102ca906001600160a01b031681565b61032d620a2c2a81565b61034e6103cc366004612f65565b600680546001600160a01b0319166001600160a01b0392909216919091179055565b61034e6103fc366004612f65565b600480546001600160a01b0319166001600160a01b0392909216919091179055565b61034e610b4b565b6009546102ca906001600160a01b031681565b61034e610447366004612f65565b610b5f565b61034e61045a366004612f65565b600c80546001600160a01b0319166001600160a01b0392909216919091179055565b6005546102ca906001600160a01b031681565b61034e61049d366004612f65565b610bd3565b600e546102ca906001600160a01b031681565b61034e6104c3366004612f65565b600380546001600160a01b0319166001600160a01b0392909216919091179055565b6048546001600160a01b03166102ca565b6102a2610504366004612cdc565b610bfd565b600f546102ca906001600160a01b031681565b61032d600081565b6102ca610532366004612f82565b9015156000908152600760209081526040808320931515835292905220546001600160a01b031690565b61034e61056a366004612fb0565b911515600090815260076020908152604080832093151583529290522080546001600160a01b0319166001600160a01b03909216919091179055565b6003546102ca906001600160a01b031681565b61034e6105c73660046130de565b610c28565b61034e6105da366004612f65565b600980546001600160a01b0319166001600160a01b0392909216919091179055565b61034e61060a366004613363565b61101e565b6004546102ca906001600160a01b031681565b60135461062f9060ff1681565b60405160ff90911681526020016102ae565b61034e61064f366004612f65565b600280546001600160a01b0319166001600160a01b0392909216919091179055565b6000546102ca906001600160a01b031681565b61034e610692366004612f65565b600880546001600160a01b0319166001600160a01b0392909216919091179055565b6001546102ca906001600160a01b031681565b6010546102ca906001600160a01b031681565b600c546102ca906001600160a01b031681565b600d546102ca906001600160a01b031681565b61034e61070e366004612cdc565b61182e565b61034e610721366004612f65565b600580546001600160a01b0319166001600160a01b0392909216919091179055565b6002546102ca906001600160a01b031681565b6102ca610764366004612c9e565b611853565b6008546102ca906001600160a01b031681565b61034e61078a366004612f65565b61187d565b60006001600160e01b03198216637965db0b60e01b14806107c057506301ffc9a760e01b6001600160e01b03198316145b92915050565b601180546107d390613431565b80601f01602080910402602001604051908101604052809291908181526020018280546107ff90613431565b801561084c5780601f106108215761010080835404028352916020019161084c565b820191906000526020600020905b81548152906001019060200180831161082f57829003601f168201915b505050505081565b60008281526047602052604090206001015461086f81611919565b6108798383611923565b505050565b81518351146108cc5760405162461bcd60e51b815260206004820152601560248201527409ee4c8cae49acee474d2dce0eae840d8cadccee8d605b1b60448201526064015b60405180910390fd5b81518151146109155760405162461bcd60e51b815260206004820152601560248201527409ee4c8cae49acee474d2dce0eae840d8cadccee8d605b1b60448201526064016108c3565b81516000805b82811015610b2b5760008482815181106109375761093761346b565b6020026020010151610954576006546001600160a01b0316610961565b6005546001600160a01b03165b6001600160a01b0316638f549206898885815181106109825761098261346b565b60200260200101518a868151811061099c5761099c61346b565b60209081029190910101516040516001600160e01b031960e086901b1681526001600160a01b0390931660048401526024830191909152151560448201526064016000604051808303816000875af11580156109fc573d6000803e3d6000fd5b505050506040513d6000823e601f3d908101601f19168201604052610a2491908101906135bd565b905060005b8151811015610b1857818181518110610a4457610a4461346b565b602002602001015161012001516001600160401b031660000315610b0857610afb6040518060c00160405280848481518110610a8257610a8261346b565b60200260200101518152602001888681518110610aa157610aa161346b565b6020026020010151151581526020018a8681518110610ac257610ac261346b565b602002602001015115158152602001600015158152602001600015158152602001604051806020016040528060008152508152506119a9565b610b059085613661565b93505b610b1181613674565b9050610a29565b505080610b2490613674565b905061091b565b50600454610b43906001600160a01b03168783611fbc565b505050505050565b610b5361202c565b610b5d6000612086565b565b6000610b6a81611919565b6001600160a01b038216610bb05760405162461bcd60e51b815260206004820152600d60248201526c217a65726f206164647265737360981b60448201526064016108c3565b610bbb6000836120d8565b610bc482612086565b610bcf6000336120e2565b5050565b7f8d1089725c0dc266707fa6207730fb801dcd03108bfed7a21099bd303651d2b761028a81611919565b60009182526047602090815260408084206001600160a01b0393909316845291905290205460ff1690565b8251845114610c3657600080fd5b8251825114610c4457600080fd5b60005b8451811015611017576000801b858281518110610c6657610c6661346b565b6020026020010151031561100557610c96828281518110610c8957610c8961346b565b6020026020010151612149565b15611005576000848281518110610caf57610caf61346b565b6020026020010151610ccc576006546001600160a01b0316610cd9565b6005546001600160a01b03165b9050838281518110610ced57610ced61346b565b6020026020010151610d6057806001600160a01b0316636d0785666040518163ffffffff1660e01b8152600401602060405180830381865afa158015610d37573d6000803e3d6000fd5b505050506040513d601f19601f82011682018060405250810190610d5b919061368d565b610dc2565b806001600160a01b0316637e1dcaf76040518163ffffffff1660e01b8152600401602060405180830381865afa158015610d9e573d6000803e3d6000fd5b505050506040513d601f19601f82011682018060405250810190610dc2919061368d565b6001600160a01b031663f6b102a6878481518110610de257610de261346b565b60200260200101516040518263ffffffff1660e01b8152600401610e0891815260200190565b602060405180830381865afa158015610e25573d6000803e3d6000fd5b505050506040513d601f19601f82011682018060405250810190610e4991906136b5565b1515600003610e585750611005565b6000816001600160a01b03166345824d67888581518110610e7b57610e7b61346b565b6020026020010151878681518110610e9557610e9561346b565b60200260200101516040518363ffffffff1660e01b8152600401610ec59291909182521515602082015260400190565b6000604051808303816000875af1158015610ee4573d6000803e3d6000fd5b505050506040513d6000823e601f3d908101601f19168201604052610f0c91908101906135bd565b905060005b815181101561100157818181518110610f2c57610f2c61346b565b602002602001015161012001516001600160401b031660000315610fef57610fed6040518060c00160405280848481518110610f6a57610f6a61346b565b60200260200101518152602001898781518110610f8957610f8961346b565b602002602001015115158152602001888781518110610faa57610faa61346b565b602002602001015115158152602001600115158152602001600115158152602001878781518110610fdd57610fdd61346b565b60200260200101518152506119a9565b505b80610ff981613674565b915050610f11565b5050505b8061100f81613674565b915050610c47565b5050505050565b80606001518015611030575080608001515b1561109e576000546001600160a01b031663015fc61361104f8361219f565b6040518263ffffffff1660e01b815260040161106d91815260200190565b60006040518083038186803b15801561108557600080fd5b505afa158015611099573d6000803e3d6000fd5b505050505b6110b58160600151151582602001511515146121db565b60408201526110c381612261565b156111b45780602001511515816060015115150361114c576111316127106110ea8361229c565b8360a0015160e001516001600160801b031661110691906136d2565b61111091906136e9565b8260a0015160e001516001600160801b031661112c9190613661565b6122ca565b60a08201516001600160801b0390911660e0909101526111b4565b61119d61271061115b8361229c565b8360a0015160e001516001600160801b031661117791906136d2565b61118191906136e9565b8260a0015160e001516001600160801b031661112c919061370b565b60a08201516001600160801b0390911660e0909101525b600081602001516111d0576006546001600160a01b03166111dd565b6005546001600160a01b03165b9050816080015180156111f1575081606001515b156112e75760005460085460405163c8830bf560e01b81526001600160a01b039283169263592b1e2a92869291169063c8830bf5906112349084906004016138ee565b602060405180830381865afa158015611251573d6000803e3d6000fd5b505050506040513d601f19601f820116820180604052508101906112759190613901565b6040518363ffffffff1660e01b815260040161129292919061391a565b60006040518083038186803b1580156112aa57600080fd5b505afa1580156112be573d6000803e3d6000fd5b505050506112ce61112c8361219f565b60a0808401516001600160801b039092169101526115bb565b816080015180156112fa57508160600151155b156115bb5760035460a0830151606001516040808501516020860151915163bc95baad60e01b81526001600160a01b03938416600482015260248101919091529015156044820152600092919091169063bc95baad9060640161018060405180830381865afa158015611371573d6000803e3d6000fd5b505050506040513d601f19601f820116820180604052508101906113959190613953565b90506113d261112c60008560a001516080015165ffffffffffff161183608001518660a0015160c001516001600160801b03168560a00151612337565b60a0808501516001600160801b039092169101526113f86000546001600160a01b031690565b60a0808301518582015191820151608085015160c09093015160085460405163c8830bf560e01b81526001600160a01b03968716966301b8fd7c966001600160801b03909516949392169063c8830bf590611457908c906004016138ee565b602060405180830381865afa158015611474573d6000803e3d6000fd5b505050506040513d601f19601f820116820180604052508101906114989190613901565b6114cf8a602001518b606001519015156000908152600760209081526040808320931515835292905220546001600160a01b031690565b60a08b01516060015160405163350cffdd60e11b81526001600160a01b039182166004820152911690636a19ffba90602401602060405180830381865afa15801561151e573d6000803e3d6000fd5b505050506040513d601f19601f820116820180604052508101906115429190613901565b6040516001600160e01b031960e089901b1681526004810196909652602486019490945260448501929092526001600160801b03166064840152608483015260a482015260c40160006040518083038186803b1580156115a157600080fd5b505afa1580156115b5573d6000803e3d6000fd5b50505050505b604080516001808252818301909252600091816020015b6116746040805160e08082018352600080835260208084018290528385018290526060808501839052608080860184905286516101a081018852848152928301849052958201839052810182905293840181905260a084810182905260c0850182905291840181905261010084018190526101208401819052610140840181905261016084018190526101808401529091908201908152602001606081525090565b8152602001906001900390816115d2579050509050828160008151811061169d5761169d61346b565b6020026020010181905250826080015161172657604051630c31673960e01b81526001600160a01b03831690630c316739906116dd9086906004016138ee565b6101a0604051808303816000875af11580156116fd573d6000803e3d6000fd5b505050506040513d601f19601f820116820180604052508101906117219190613a09565b6117b4565b6040516359cc542160e11b81526001600160a01b0383169063b398a84290611752908490600401613a26565b6000604051808303816000875af1158015611771573d6000803e3d6000fd5b505050506040513d6000823e601f3d908101601f1916820160405261179991908101906135bd565b6000815181106117ab576117ab61346b565b60200260200101515b60a08401526012805460408051602080840282018101909252828152610879938793620a2c2a9383018282801561181457602002820191906000526020600020905b81546001600160a01b031681526001909101906020018083116117f6575b50506004546001600160a01b031692503091506123679050565b60008281526047602052604090206001015461184981611919565b61087983836120e2565b6012818154811061186357600080fd5b6000918252602090912001546001600160a01b0316905081565b61188561202c565b6001600160a01b0381166118ea5760405162461bcd60e51b815260206004820152602660248201527f4f776e61626c653a206e6577206f776e657220697320746865207a65726f206160448201526564647265737360d01b60648201526084016108c3565b6118f381612086565b50565b4260495561190333612086565b61190e6000336120d8565b6118f36000826120d8565b6118f381336125b4565b61192d8282610bfd565b610bcf5760008281526047602090815260408083206001600160a01b03851684529091529020805460ff191660011790556119653390565b6001600160a01b0316816001600160a01b0316837f2f8788117e7eff1d82e926ec794901d17c78024a50270940304540a733656f0d60405160405180910390a45050565b60008082608001516119bc576000611a28565b6008546040516309d3989760e01b81523060048201526001600160a01b03909116906309d3989790602401602060405180830381865afa158015611a04573d6000803e3d6000fd5b505050506040513d601f19601f82011682018060405250810190611a289190613901565b835160a001519091506001600160801b0316811115611a4a5750600092915050565b6000611acc82600460009054906101000a90046001600160a01b03166001600160a01b031663313ce5676040518163ffffffff1660e01b8152600401602060405180830381865afa158015611aa3573d6000803e3d6000fd5b505050506040513d601f19601f82011682018060405250810190611ac79190613a88565b61260d565b9050836040015115611c76578115611c0e576004805460085460405163095ea7b360e01b81526001600160a01b039182169381019390935260248301849052169063095ea7b3906044016020604051808303816000875af1158015611b35573d6000803e3d6000fd5b505050506040513d601f19601f82011682018060405250810190611b5991906136b5565b5060408051600480825260a08201909252600091602082016080803683370190505090508281600381518110611b9157611b9161346b565b60209081029190910101526008548551606001516004805460405163e50f19ef60e01b81526001600160a01b039485169463e50f19ef94611bda94909390911691879101613aa5565b600060405180830381600087803b158015611bf457600080fd5b505af1158015611c08573d6000803e3d6000fd5b50505050505b836060015115611c55576004548451606081015160a090910151611c50926001600160a01b03169190611c4b9086906001600160801b031661370b565b611fbc565b611e49565b835160a00151611c6f9083906001600160801b031661370b565b9250611e49565b836080015115611e49576003548451606001516020860151604051635a227c7560e11b81526001600160a01b039283166004820152602481018690529015156044820152600092919091169063b444f8ea906064016020604051808303816000875af1158015611cea573d6000803e3d6000fd5b505050506040513d601f19601f82011682018060405250810190611d0e9190613901565b9050828110611e475760408051600480825260a08201909252600091602082016080803683370190505090508381600381518110611d4e57611d4e61346b565b60209081029190910101526004805460085460405163095ea7b360e01b81526001600160a01b039182169381019390935260248301869052169063095ea7b3906044016020604051808303816000875af1158015611db0573d6000803e3d6000fd5b505050506040513d601f19601f82011682018060405250810190611dd491906136b5565b506008548651606001516004805460405163e50f19ef60e01b81526001600160a01b039485169463e50f19ef94611e1394909390911691879101613aa5565b600060405180830381600087803b158015611e2d57600080fd5b505af1158015611e41573d6000803e3d6000fd5b50505050505b505b604080516101e0810182526000602080830182815293830182905260608084018390526080840183905260a0840183905260c0840183905260e08401839052610100840183905261012084018390526101408401839052610160840183905261018084018390526101a08401929092526101c08301919091523082528601511515909152611ed760016121db565b6040808301919091528581015115156060830152805160a08101825286518152602081018390526080870151611fb492820190611f15576005611f18565b60065b6007811115611f2957611f29613b07565b60ff1681526020018760a0015181526020016000815250620a2c2a6012805480602002602001604051908101604052809291908181526020018280548015611f9a57602002820191906000526020600020905b81546001600160a01b03168152600190910190602001808311611f7c575b50506004546001600160a01b0316925030915061263d9050565b505050919050565b80600003611fc957505050565b600083905061201082856001600160a01b031663313ce5676040518163ffffffff1660e01b8152600401602060405180830381865afa158015611aa3573d6000803e3d6000fd5b91506120266001600160a01b03821684846127c1565b50505050565b6048546001600160a01b03163314610b5d5760405162461bcd60e51b815260206004820181905260248201527f4f776e61626c653a2063616c6c6572206973206e6f7420746865206f776e657260448201526064016108c3565b604880546001600160a01b038381166001600160a01b0319831681179093556040519116919082907f8be0079c531659141344cd1fd0a4f28419497f9722a3daafe3b4186f6b6457e090600090a35050565b610bcf8282611923565b6120ec8282610bfd565b15610bcf5760008281526047602090815260408083206001600160a01b0385168085529252808320805460ff1916905551339285917ff6391f5c32d9c69d2a47ea670b442974b53935d1edc7fd64eb21e047a839171b9190a45050565b600061218a826040518060400160405280601b81526020017f506f736974696f6e4164644d67723a7472696767657261626f76650000000000815250612813565b1561219757506000919050565b506001919050565b600060018260c001515110156121b65760006107c0565b8160c001516000815181106121cd576121cd61346b565b602002602001015192915050565b6009546002546040516303b6b4bb60e51b81526001600160a01b0391821660048201528315156024820152600092919091169081906376d6976090604401602060405180830381865afa158015612236573d6000803e3d6000fd5b505050506040513d601f19601f8201168201806040525081019061225a9190613901565b9392505050565b600060028260c0015151101580156107c0575060008260c0015160018151811061228d5761228d61346b565b60200260200101511192915050565b600060038260c001515110156122b35760006107c0565b8160c001516002815181106121cd576121cd61346b565b60006001600160801b038211156123335760405162461bcd60e51b815260206004820152602760248201527f53616665436173743a2076616c756520646f65736e27742066697420696e20316044820152663238206269747360c81b60648201526084016108c3565b5090565b6000841561235b578361234a84846136d2565b61235491906136e9565b905061235f565b5060005b949350505050565b6040516370a0823160e01b81526001600160a01b038281166004830152600091908416906370a0823190602401602060405180830381865afa1580156123b1573d6000803e3d6000fd5b505050506040513d601f19601f820116820180604052508101906123d59190613901565b905060005b84518110156124eb578481815181106123f5576123f561346b565b60200260200101516001600160a01b031663612c39b76040518163ffffffff1660e01b8152600401606060405180830381865afa15801561243a573d6000803e3d6000fd5b505050506040513d601f19601f8201168201806040525081019061245e9190613b1d565b60200151156124d9578481815181106124795761247961346b565b60200260200101516001600160a01b031663cce9a2f3886040518263ffffffff1660e01b81526004016124ac91906138ee565b600060405180830381600087803b1580156124c657600080fd5b505af19250505080156124d7575060015b505b806124e381613674565b9150506123da565b506040516370a0823160e01b81526001600160a01b038381166004830152600091908516906370a0823190602401602060405180830381865afa158015612536573d6000803e3d6000fd5b505050506040513d601f19601f8201168201806040525081019061255a9190613901565b90508181146125ab5760405162461bcd60e51b815260206004820152601b60248201527f455243323020746f6b656e2062616c616e6365206368616e676564000000000060448201526064016108c3565b50505050505050565b6125be8282610bfd565b610bcf576125cb8161286c565b6125d683602061287e565b6040516020016125e7929190613b8e565b60408051601f198184030181529082905262461bcd60e51b82526108c391600401612c8b565b600061261b6012600a613ce7565b61262960ff8416600a613cf6565b61263390856136d2565b61225a91906136e9565b6040516370a0823160e01b81526001600160a01b038281166004830152600091908416906370a0823190602401602060405180830381865afa158015612687573d6000803e3d6000fd5b505050506040513d601f19601f820116820180604052508101906126ab9190613901565b905060005b84518110156124eb578481815181106126cb576126cb61346b565b60200260200101516001600160a01b031663612c39b76040518163ffffffff1660e01b8152600401606060405180830381865afa158015612710573d6000803e3d6000fd5b505050506040513d601f19601f820116820180604052508101906127349190613b1d565b60400151156127af5784818151811061274f5761274f61346b565b60200260200101516001600160a01b031663718cb58a886040518263ffffffff1660e01b81526004016127829190613d02565b600060405180830381600087803b15801561279c57600080fd5b505af19250505080156127ad575060015b505b806127b981613674565b9150506126b0565b604080516001600160a01b038416602482015260448082018490528251808303909101815260649091019091526020810180516001600160e01b031663a9059cbb60e01b179052610879908490612a19565b6000816040516020016128269190613e5a565b604051602081830303815290604052805190602001208360405160200161284d9190613e5a565b6040516020818303038152906040528051906020012014905092915050565b60606107c06001600160a01b03831660145b6060600061288d8360026136d2565b612898906002613661565b6001600160401b038111156128af576128af612d0c565b6040519080825280601f01601f1916602001820160405280156128d9576020820181803683370190505b509050600360fc1b816000815181106128f4576128f461346b565b60200101906001600160f81b031916908160001a905350600f60fb1b816001815181106129235761292361346b565b60200101906001600160f81b031916908160001a90535060006129478460026136d2565b612952906001613661565b90505b60018111156129ca576f181899199a1a9b1b9c1cb0b131b232b360811b85600f16601081106129865761298661346b565b1a60f81b82828151811061299c5761299c61346b565b60200101906001600160f81b031916908160001a90535060049490941c936129c381613e76565b9050612955565b50831561225a5760405162461bcd60e51b815260206004820181905260248201527f537472696e67733a20686578206c656e67746820696e73756666696369656e7460448201526064016108c3565b6000612a6e826040518060400160405280602081526020017f5361666545524332303a206c6f772d6c6576656c2063616c6c206661696c6564815250856001600160a01b0316612aee9092919063ffffffff16565b9050805160001480612a8f575080806020019051810190612a8f91906136b5565b6108795760405162461bcd60e51b815260206004820152602a60248201527f5361666545524332303a204552433230206f7065726174696f6e20646964206e6044820152691bdd081cdd58d8d9595960b21b60648201526084016108c3565b606061235f848460008585600080866001600160a01b03168587604051612b159190613e5a565b60006040518083038185875af1925050503d8060008114612b52576040519150601f19603f3d011682016040523d82523d6000602084013e612b57565b606091505b5091509150612b6887838387612b73565b979650505050505050565b60608315612be2578251600003612bdb576001600160a01b0385163b612bdb5760405162461bcd60e51b815260206004820152601d60248201527f416464726573733a2063616c6c20746f206e6f6e2d636f6e747261637400000060448201526064016108c3565b508161235f565b61235f8383815115612bf75781518083602001fd5b8060405162461bcd60e51b81526004016108c39190612c8b565b600060208284031215612c2357600080fd5b81356001600160e01b03198116811461225a57600080fd5b60005b83811015612c56578181015183820152602001612c3e565b50506000910152565b60008151808452612c77816020860160208601612c3b565b601f01601f19169290920160200192915050565b60208152600061225a6020830184612c5f565b600060208284031215612cb057600080fd5b5035919050565b6001600160a01b03811681146118f357600080fd5b8035612cd781612cb7565b919050565b60008060408385031215612cef57600080fd5b823591506020830135612d0181612cb7565b809150509250929050565b634e487b7160e01b600052604160045260246000fd5b6040516101a081016001600160401b0381118282101715612d4557612d45612d0c565b60405290565b60405160e081016001600160401b0381118282101715612d4557612d45612d0c565b60405161018081016001600160401b0381118282101715612d4557612d45612d0c565b604051601f8201601f191681016001600160401b0381118282101715612db857612db8612d0c565b604052919050565b60006001600160401b03821115612dd957612dd9612d0c565b5060051b60200190565b80151581146118f357600080fd5b8035612cd781612de3565b600082601f830112612e0d57600080fd5b81356020612e22612e1d83612dc0565b612d90565b82815260059290921b84018101918181019086841115612e4157600080fd5b8286015b84811015612e65578035612e5881612de3565b8352918301918301612e45565b509695505050505050565b600082601f830112612e8157600080fd5b81356020612e91612e1d83612dc0565b82815260059290921b84018101918181019086841115612eb057600080fd5b8286015b84811015612e655780358352918301918301612eb4565b60008060008060808587031215612ee157600080fd5b8435612eec81612cb7565b935060208501356001600160401b0380821115612f0857600080fd5b612f1488838901612dfc565b94506040870135915080821115612f2a57600080fd5b612f3688838901612e70565b93506060870135915080821115612f4c57600080fd5b50612f5987828801612dfc565b91505092959194509250565b600060208284031215612f7757600080fd5b813561225a81612cb7565b60008060408385031215612f9557600080fd5b8235612fa081612de3565b91506020830135612d0181612de3565b600080600060608486031215612fc557600080fd5b8335612fd081612de3565b92506020840135612fe081612de3565b91506040840135612ff081612cb7565b809150509250925092565b6000601f838184011261300d57600080fd5b8235602061301d612e1d83612dc0565b82815260059290921b8501810191818101908784111561303c57600080fd5b8287015b848110156130d25780356001600160401b03808211156130605760008081fd5b818a0191508a603f8301126130755760008081fd5b8582013560408282111561308b5761308b612d0c565b61309c828b01601f19168901612d90565b92508183528c818386010111156130b35760008081fd5b8181850189850137506000908201870152845250918301918301613040565b50979650505050505050565b600080600080608085870312156130f457600080fd5b84356001600160401b038082111561310b57600080fd5b818701915087601f83011261311f57600080fd5b8135602061312f612e1d83612dc0565b82815260059290921b8401810191818101908b84111561314e57600080fd5b948201945b8386101561316c57853582529482019490820190613153565b9850508801359250508082111561318257600080fd5b61318e88838901612dfc565b945060408701359150808211156131a457600080fd5b6131b088838901612dfc565b935060608701359150808211156131c657600080fd5b50612f5987828801612ffb565b60ff811681146118f357600080fd5b8035612cd7816131d3565b63ffffffff811681146118f357600080fd5b8035612cd7816131ed565b65ffffffffffff811681146118f357600080fd5b8035612cd78161320a565b6001600160801b03811681146118f357600080fd5b8035612cd781613229565b6001600160401b03811681146118f357600080fd5b8035612cd781613249565b60006101a0828403121561327c57600080fd5b613284612d22565b905061328f826131e2565b815261329d602083016131ff565b60208201526132ae604083016131e2565b60408201526132bf60608301612ccc565b60608201526132d06080830161321e565b60808201526132e160a0830161323e565b60a08201526132f260c0830161323e565b60c082015261330360e0830161323e565b60e082015261010061331681840161323e565b9082015261012061332883820161325e565b9082015261014061333a83820161325e565b9082015261016061334c83820161323e565b818301525061018080830135818301525092915050565b60006020828403121561337557600080fd5b81356001600160401b038082111561338c57600080fd5b9083019061026082860312156133a157600080fd5b6133a9612d4b565b6133b283612ccc565b81526133c060208401612df1565b6020820152604083013560408201526133db60608401612df1565b60608201526133ec60808401612df1565b60808201526133fe8660a08501613269565b60a08201526102408301358281111561341657600080fd5b61342287828601612e70565b60c08301525095945050505050565b600181811c9082168061344557607f821691505b60208210810361346557634e487b7160e01b600052602260045260246000fd5b50919050565b634e487b7160e01b600052603260045260246000fd5b8051612cd7816131d3565b8051612cd7816131ed565b8051612cd781612cb7565b8051612cd78161320a565b8051612cd781613229565b8051612cd781613249565b60006101a082840312156134d657600080fd5b6134de612d22565b90506134e982613481565b81526134f76020830161348c565b602082015261350860408301613481565b604082015261351960608301613497565b606082015261352a608083016134a2565b608082015261353b60a083016134ad565b60a082015261354c60c083016134ad565b60c082015261355d60e083016134ad565b60e08201526101006135708184016134ad565b908201526101206135828382016134b8565b908201526101406135948382016134b8565b908201526101606135a68382016134ad565b818301525061018080830151818301525092915050565b600060208083850312156135d057600080fd5b82516001600160401b038111156135e657600080fd5b8301601f810185136135f757600080fd5b8051613605612e1d82612dc0565b8181526101a0918202830184019184820191908884111561362557600080fd5b938501935b838510156130d25761363c89866134c3565b8352938401939185019161362a565b634e487b7160e01b600052601160045260246000fd5b808201808211156107c0576107c061364b565b6000600182016136865761368661364b565b5060010190565b60006020828403121561369f57600080fd5b815161225a81612cb7565b8051612cd781612de3565b6000602082840312156136c757600080fd5b815161225a81612de3565b80820281158282048414176107c0576107c061364b565b60008261370657634e487b7160e01b600052601260045260246000fd5b500490565b818103818111156107c0576107c061364b565b805160ff168252602081015161373c602084018263ffffffff169052565b506040810151613751604084018260ff169052565b50606081015161376c60608401826001600160a01b03169052565b506080810151613786608084018265ffffffffffff169052565b5060a08101516137a160a08401826001600160801b03169052565b5060c08101516137bc60c08401826001600160801b03169052565b5060e08101516137d760e08401826001600160801b03169052565b50610100818101516001600160801b038116848301525050610120818101516001600160401b038116848301525050610140818101516001600160401b038116848301525050610160818101516001600160801b03811684830152505061018090810151910152565b600081518084526020808501945080840160005b8381101561387057815187529582019590820190600101613854565b509495945050505050565b600061026060018060a01b0383511684526020830151151560208501526040830151604085015260608301511515606085015260808301511515608085015260a08301516138cc60a086018261371e565b5060c0830151816102408601526138e582860182613840565b95945050505050565b60208152600061225a602083018461387b565b60006020828403121561391357600080fd5b5051919050565b60408152600061392d604083018561387b565b90508260208301529392505050565b80516001600160d81b0381168114612cd757600080fd5b6000610180828403121561396657600080fd5b61396e612d6d565b61397783613497565b8152613985602084016136aa565b60208201526139966040840161348c565b60408201526139a76060840161393c565b60608201526080838101519082015260a0808401519082015260c0808401519082015260e08084015190820152610100808401519082015261012080840151908201526101408084015190820152610160928301519281019290925250919050565b60006101a08284031215613a1c57600080fd5b61225a83836134c3565b6000602080830181845280855180835260408601915060408160051b870101925083870160005b82811015613a7b57603f19888603018452613a6985835161387b565b94509285019290850190600101613a4d565b5092979650505050505050565b600060208284031215613a9a57600080fd5b815161225a816131d3565b6001600160a01b0384811682528316602080830191909152606060408301819052835190830181905260009184810191608085019190845b81811015613af957845184529382019392820192600101613add565b509198975050505050505050565b634e487b7160e01b600052602160045260246000fd5b600060608284031215613b2f57600080fd5b604051606081018181106001600160401b0382111715613b5157613b51612d0c565b6040528251613b5f81612de3565b81526020830151613b6f81612de3565b60208201526040830151613b8281612de3565b60408201529392505050565b7f416363657373436f6e74726f6c3a206163636f756e7420000000000000000000815260008351613bc6816017850160208801612c3b565b7001034b99036b4b9b9b4b733903937b6329607d1b6017918401918201528351613bf7816028840160208801612c3b565b01602801949350505050565b600181815b80851115613c3e578160001904821115613c2457613c2461364b565b80851615613c3157918102915b93841c9390800290613c08565b509250929050565b600082613c55575060016107c0565b81613c62575060006107c0565b8160018114613c785760028114613c8257613c9e565b60019150506107c0565b60ff841115613c9357613c9361364b565b50506001821b6107c0565b5060208310610133831016604e8410600b8410161715613cc1575081810a6107c0565b613ccb8383613c03565b8060001904821115613cdf57613cdf61364b565b029392505050565b600061225a60ff841683613c46565b600061225a8383613c46565b60208152613d1460208201835161371e565b600060208301516102206101c08181860152613d3d610240860184516001600160a01b03169052565b602083015115156102608601526040830151610280860152606083015115156102a086015260808301516001600160a01b03166102c086015260a08301516102e086015260c083015161030086015260e0830151610320860152610100830151151561034086015261012083015160ff9081166103608701526101408401516001600160401b03166103808701526101608401516103a08701526101808401516103c08701526101a0840151166103e0860152909101516101e06104008501819052909190613e10610420860184613840565b92506040860151613e258287018260ff169052565b50506060850151848303601f1901610200860152613e438382612c5f565b925050608085015181850152508091505092915050565b60008251613e6c818460208701612c3b565b9190910192915050565b600081613e8557613e8561364b565b50600019019056fea26469706673582212207c8a61023ffc341e094402f6c2f609f9441248edabd66e930a1dbdab538e297a64736f6c63430008110033",
    "linkReferences": {}
  },
  "methodIdentifiers": {
    "DEFAULT_ADMIN_ROLE()": "a217fddf",
    "PLUGIN_GAS_LIMIT()": "63cd8dbd",
    "cancelOrderList(address,bool[],uint256[],bool[])": "301f6fe9",
    "collateralToken()": "b2016bd4",
    "collateralTokenDigits()": "b21dc9cb",
    "feeRouter()": "f29ebf61",
    "getRoleAdmin(bytes32)": "248a9ca3",
    "globalValid()": "c54dc3d6",
    "grantControllerRoleByMarketManager(address)": "7fe4a698",
    "grantRole(bytes32,address)": "2f2ff15d",
    "hasRole(bytes32,address)": "91d14854",
    "indexToken()": "e7d015f2",
    "marketRouter()": "d12dbde4",
    "marketValid()": "b894300d",
    "name()": "06fdde03",
    "orderBookLong()": "7b2fd1e5",
    "orderBookShort()": "05ba9ae9",
    "orderMgr()": "a0cbf50c",
    "orderStore(bool,bool)": "a2640454",
    "owner()": "8da5cb5b",
    "plugins(uint256)": "f0a317eb",
    "positionAddMgr()": "d49ff78d",
    "positionBook()": "ac0b05a6",
    "positionStoreLong()": "07e87545",
    "positionStoreShort()": "45ccf5c5",
    "positionSubMgr()": "8a6ca35d",
    "priceFeed()": "741bef1a",
    "renounceOwnership()": "715018a6",
    "renounceRole(bytes32,address)": "36568abe",
    "revokeRole(bytes32,address)": "d547741f",
    "setCollateralToken(address)": "666181a9",
    "setFeeRouter(address)": "c267ada4",
    "setIndexToken(address)": "b82a35c5",
    "setMarketValid(address)": "39955ed7",
    "setOraclePrice(address)": "af44f6b6",
    "setOrderStore(bool,bool,address)": "a620eb93",
    "setPositionBook(address)": "8d49701d",
    "setVaultRouter(address)": "780e72ff",
    "setorderBookLong(address)": "d7ec0a6d",
    "setorderBookShort(address)": "65e26e70",
    "supportsInterface(bytes4)": "01ffc9a7",
    "sysCancelOrder(bytes32[],bool[],bool[],string[])": "ac0c7aa4",
    "transferAdmin(address)": "75829def",
    "transferOwnership(address)": "f2fde38b",
    "updateOrder((address,bool,uint256,bool,bool,(uint8,uint32,uint8,address,uint48,uint128,uint128,uint128,uint128,uint64,uint64,uint128,bytes32),uint256[]))": "b038beb8",
    "vaultRouter()": "d37c441c"
  },
  "id": 49
}