{
  "abi": [
    {
      "inputs": [
        {
          "components": [
            {
              "internalType": "address",
              "name": "_market",
              "type": "address"
            },
            {
              "internalType": "bool",
              "name": "_isLong",
              "type": "bool"
            },
            {
              "internalType": "uint256",
              "name": "_oraclePrice",
              "type": "uint256"
            },
            {
              "internalType": "bool",
              "name": "isOpen",
              "type": "bool"
            },
            {
              "internalType": "bool",
              "name": "isCreate",
              "type": "bool"
            },
            {
              "components": [
                {
                  "internalType": "uint8",
                  "name": "version",
                  "type": "uint8"
                },
                {
                  "internalType": "uint32",
                  "name": "updatedAtBlock",
                  "type": "uint32"
                },
                {
                  "internalType": "uint8",
                  "name": "triggerAbove",
                  "type": "uint8"
                },
                {
                  "internalType": "address",
                  "name": "account",
                  "type": "address"
                },
                {
                  "internalType": "uint48",
                  "name": "extra3",
                  "type": "uint48"
                },
                {
                  "internalType": "uint128",
                  "name": "collateral",
                  "type": "uint128"
                },
                {
                  "internalType": "uint128",
                  "name": "size",
                  "type": "uint128"
                },
                {
                  "internalType": "uint128",
                  "name": "price",
                  "type": "uint128"
                },
                {
                  "internalType": "uint128",
                  "name": "extra1",
                  "type": "uint128"
                },
                {
                  "internalType": "uint64",
                  "name": "orderID",
                  "type": "uint64"
                },
                {
                  "internalType": "uint64",
                  "name": "extra2",
                  "type": "uint64"
                },
                {
                  "internalType": "uint128",
                  "name": "extra0",
                  "type": "uint128"
                },
                {
                  "internalType": "bytes32",
                  "name": "refCode",
                  "type": "bytes32"
                }
              ],
              "internalType": "struct Order.Props",
              "name": "_order",
              "type": "tuple"
            },
            {
              "internalType": "uint256[]",
              "name": "inputs",
              "type": "uint256[]"
            }
          ],
          "internalType": "struct MarketDataTypes.UpdateOrderInputs[]",
          "name": "_vars",
          "type": "tuple[]"
        }
      ],
      "name": "add",
      "outputs": [
        {
          "components": [
            {
              "internalType": "uint8",
              "name": "version",
              "type": "uint8"
            },
            {
              "internalType": "uint32",
              "name": "updatedAtBlock",
              "type": "uint32"
            },
            {
              "internalType": "uint8",
              "name": "triggerAbove",
              "type": "uint8"
            },
            {
              "internalType": "address",
              "name": "account",
              "type": "address"
            },
            {
              "internalType": "uint48",
              "name": "extra3",
              "type": "uint48"
            },
            {
              "internalType": "uint128",
              "name": "collateral",
              "type": "uint128"
            },
            {
              "internalType": "uint128",
              "name": "size",
              "type": "uint128"
            },
            {
              "internalType": "uint128",
              "name": "price",
              "type": "uint128"
            },
            {
              "internalType": "uint128",
              "name": "extra1",
              "type": "uint128"
            },
            {
              "internalType": "uint64",
              "name": "orderID",
              "type": "uint64"
            },
            {
              "internalType": "uint64",
              "name": "extra2",
              "type": "uint64"
            },
            {
              "internalType": "uint128",
              "name": "extra0",
              "type": "uint128"
            },
            {
              "internalType": "bytes32",
              "name": "refCode",
              "type": "bytes32"
            }
          ],
          "internalType": "struct Order.Props[]",
          "name": "",
          "type": "tuple[]"
        }
      ],
      "stateMutability": "nonpayable",
      "type": "function"
    },
    {
      "inputs": [],
      "name": "closeStore",
      "outputs": [
        {
          "internalType": "contract IOrderStore",
          "name": "",
          "type": "address"
        }
      ],
      "stateMutability": "view",
      "type": "function"
    },
    {
      "inputs": [
        {
          "internalType": "bool",
          "name": "_isLong",
          "type": "bool"
        },
        {
          "internalType": "address",
          "name": "_openStore",
          "type": "address"
        },
        {
          "internalType": "address",
          "name": "_closeStore",
          "type": "address"
        }
      ],
      "name": "initialize",
      "outputs": [],
      "stateMutability": "nonpayable",
      "type": "function"
    },
    {
      "inputs": [],
      "name": "openStore",
      "outputs": [
        {
          "internalType": "contract IOrderStore",
          "name": "",
          "type": "address"
        }
      ],
      "stateMutability": "view",
      "type": "function"
    },
    {
      "inputs": [
        {
          "internalType": "bytes32",
          "name": "key",
          "type": "bytes32"
        },
        {
          "internalType": "bool",
          "name": "isLong",
          "type": "bool"
        }
      ],
      "name": "remove",
      "outputs": [
        {
          "components": [
            {
              "internalType": "uint8",
              "name": "version",
              "type": "uint8"
            },
            {
              "internalType": "uint32",
              "name": "updatedAtBlock",
              "type": "uint32"
            },
            {
              "internalType": "uint8",
              "name": "triggerAbove",
              "type": "uint8"
            },
            {
              "internalType": "address",
              "name": "account",
              "type": "address"
            },
            {
              "internalType": "uint48",
              "name": "extra3",
              "type": "uint48"
            },
            {
              "internalType": "uint128",
              "name": "collateral",
              "type": "uint128"
            },
            {
              "internalType": "uint128",
              "name": "size",
              "type": "uint128"
            },
            {
              "internalType": "uint128",
              "name": "price",
              "type": "uint128"
            },
            {
              "internalType": "uint128",
              "name": "extra1",
              "type": "uint128"
            },
            {
              "internalType": "uint64",
              "name": "orderID",
              "type": "uint64"
            },
            {
              "internalType": "uint64",
              "name": "extra2",
              "type": "uint64"
            },
            {
              "internalType": "uint128",
              "name": "extra0",
              "type": "uint128"
            },
            {
              "internalType": "bytes32",
              "name": "refCode",
              "type": "bytes32"
            }
          ],
          "internalType": "struct Order.Props[]",
          "name": "_orders",
          "type": "tuple[]"
        }
      ],
      "stateMutability": "nonpayable",
      "type": "function"
    },
    {
      "inputs": [
        {
          "internalType": "address",
          "name": "account",
          "type": "address"
        },
        {
          "internalType": "uint256",
          "name": "orderID",
          "type": "uint256"
        },
        {
          "internalType": "bool",
          "name": "isOpen",
          "type": "bool"
        }
      ],
      "name": "remove",
      "outputs": [
        {
          "components": [
            {
              "internalType": "uint8",
              "name": "version",
              "type": "uint8"
            },
            {
              "internalType": "uint32",
              "name": "updatedAtBlock",
              "type": "uint32"
            },
            {
              "internalType": "uint8",
              "name": "triggerAbove",
              "type": "uint8"
            },
            {
              "internalType": "address",
              "name": "account",
              "type": "address"
            },
            {
              "internalType": "uint48",
              "name": "extra3",
              "type": "uint48"
            },
            {
              "internalType": "uint128",
              "name": "collateral",
              "type": "uint128"
            },
            {
              "internalType": "uint128",
              "name": "size",
              "type": "uint128"
            },
            {
              "internalType": "uint128",
              "name": "price",
              "type": "uint128"
            },
            {
              "internalType": "uint128",
              "name": "extra1",
              "type": "uint128"
            },
            {
              "internalType": "uint64",
              "name": "orderID",
              "type": "uint64"
            },
            {
              "internalType": "uint64",
              "name": "extra2",
              "type": "uint64"
            },
            {
              "internalType": "uint128",
              "name": "extra0",
              "type": "uint128"
            },
            {
              "internalType": "bytes32",
              "name": "refCode",
              "type": "bytes32"
            }
          ],
          "internalType": "struct Order.Props[]",
          "name": "_orders",
          "type": "tuple[]"
        }
      ],
      "stateMutability": "nonpayable",
      "type": "function"
    },
    {
      "inputs": [
        {
          "internalType": "bool",
          "name": "isOpen",
          "type": "bool"
        },
        {
          "internalType": "address",
          "name": "account",
          "type": "address"
        }
      ],
      "name": "removeByAccount",
      "outputs": [
        {
          "components": [
            {
              "internalType": "uint8",
              "name": "version",
              "type": "uint8"
            },
            {
              "internalType": "uint32",
              "name": "updatedAtBlock",
              "type": "uint32"
            },
            {
              "internalType": "uint8",
              "name": "triggerAbove",
              "type": "uint8"
            },
            {
              "internalType": "address",
              "name": "account",
              "type": "address"
            },
            {
              "internalType": "uint48",
              "name": "extra3",
              "type": "uint48"
            },
            {
              "internalType": "uint128",
              "name": "collateral",
              "type": "uint128"
            },
            {
              "internalType": "uint128",
              "name": "size",
              "type": "uint128"
            },
            {
              "internalType": "uint128",
              "name": "price",
              "type": "uint128"
            },
            {
              "internalType": "uint128",
              "name": "extra1",
              "type": "uint128"
            },
            {
              "internalType": "uint64",
              "name": "orderID",
              "type": "uint64"
            },
            {
              "internalType": "uint64",
              "name": "extra2",
              "type": "uint64"
            },
            {
              "internalType": "uint128",
              "name": "extra0",
              "type": "uint128"
            },
            {
              "internalType": "bytes32",
              "name": "refCode",
              "type": "bytes32"
            }
          ],
          "internalType": "struct Order.Props[]",
          "name": "_orders",
          "type": "tuple[]"
        }
      ],
      "stateMutability": "nonpayable",
      "type": "function"
    },
    {
      "inputs": [
        {
          "internalType": "address",
          "name": "close",
          "type": "address"
        }
      ],
      "name": "setCloseStore",
      "outputs": [],
      "stateMutability": "nonpayable",
      "type": "function"
    },
    {
      "inputs": [
        {
          "internalType": "address",
          "name": "open",
          "type": "address"
        }
      ],
      "name": "setOpenStore",
      "outputs": [],
      "stateMutability": "nonpayable",
      "type": "function"
    }
  ],
  "bytecode": {
    "object": "0x608060405234801561001057600080fd5b50610a53806100206000396000f3fe608060405234801561001057600080fd5b50600436106100935760003560e01c80637e1dcaf7116100665780637e1dcaf7146101345780638f54920614610147578063a869e9f21461015e578063b398a8421461018e578063e2545422146101a157600080fd5b80630c379fb11461009857806345824d67146100ca5780636d078566146100f35780637380adf01461011e575b600080fd5b6100c86100a6366004610407565b600180546001600160a01b0319166001600160a01b0392909216919091179055565b005b6100dd6100d8366004610439565b6101b4565b6040516100ea9190610465565b60405180910390f35b600154610106906001600160a01b031681565b6040516001600160a01b0390911681526020016100ea565b6100dd61012c36600461056f565b606092915050565b600054610106906001600160a01b031681565b6100dd610155366004610599565b60609392505050565b6100c861016c366004610407565b600080546001600160a01b0319166001600160a01b0392909216919091179055565b6100dd61019c36600461085c565b610282565b6100c86101af3660046109a6565b505050565b60408051600180825281830190925260609160009190816020015b6101d761037f565b8152602001906001900390816101cf575050604080516101a081018252600181526000602082018190529181018290523360608201526080810182905260a081018290526103e860c0820181905260e0820152610100810182905261012081018290526101408101829052610160810182905266726566436f646560c81b610180820152825192935091839190610270576102706109e0565b60209081029190910101529392505050565b60408051600580825260c0820190925260609160009190816020015b6102a661037f565b81526020019060019003908161029e57905050905060005b600581101561037857604080516101a081018252600181526000602082018190529181018290523360608201526080810182905260a081018290526103e860c0820181905260e0820152610100810182905267ffffffffffffffff8316610120820152610140810182905261016081019190915266726566436f646560c81b61018082015282518190849084908110610359576103596109e0565b6020026020010181905250508080610370906109f6565b9150506102be565b5092915050565b604080516101a081018252600080825260208201819052918101829052606081018290526080810182905260a0810182905260c0810182905260e08101829052610100810182905261012081018290526101408101829052610160810182905261018081019190915290565b80356001600160a01b038116811461040257600080fd5b919050565b60006020828403121561041957600080fd5b610422826103eb565b9392505050565b8035801515811461040257600080fd5b6000806040838503121561044c57600080fd5b8235915061045c60208401610429565b90509250929050565b602080825282518282018190526000919060409081850190868401855b82811015610562578151805160ff90811686528782015163ffffffff16888701528682015116868601526060808201516001600160a01b03169086015260808082015165ffffffffffff169086015260a0808201516001600160801b039081169187019190915260c08083015182169087015260e080830151821690870152610100808301518216908701526101208083015167ffffffffffffffff908116918801919091526101408084015190911690870152610160808301519091169086015261018090810151908501526101a09093019290850190600101610482565b5091979650505050505050565b6000806040838503121561058257600080fd5b61058b83610429565b915061045c602084016103eb565b6000806000606084860312156105ae57600080fd5b6105b7846103eb565b9250602084013591506105cc60408501610429565b90509250925092565b634e487b7160e01b600052604160045260246000fd5b6040516101a0810167ffffffffffffffff8111828210171561060f5761060f6105d5565b60405290565b60405160e0810167ffffffffffffffff8111828210171561060f5761060f6105d5565b604051601f8201601f1916810167ffffffffffffffff81118282101715610661576106616105d5565b604052919050565b600067ffffffffffffffff821115610683576106836105d5565b5060051b60200190565b803560ff8116811461040257600080fd5b803563ffffffff8116811461040257600080fd5b803565ffffffffffff8116811461040257600080fd5b80356001600160801b038116811461040257600080fd5b803567ffffffffffffffff8116811461040257600080fd5b60006101a0828403121561070a57600080fd5b6107126105eb565b905061071d8261068d565b815261072b6020830161069e565b602082015261073c6040830161068d565b604082015261074d606083016103eb565b606082015261075e608083016106b2565b608082015261076f60a083016106c8565b60a082015261078060c083016106c8565b60c082015261079160e083016106c8565b60e08201526101006107a48184016106c8565b908201526101206107b68382016106df565b908201526101406107c88382016106df565b908201526101606107da8382016106c8565b818301525061018080830135818301525092915050565b600082601f83011261080257600080fd5b8135602061081761081283610669565b610638565b82815260059290921b8401810191818101908684111561083657600080fd5b8286015b84811015610851578035835291830191830161083a565b509695505050505050565b6000602080838503121561086f57600080fd5b823567ffffffffffffffff8082111561088757600080fd5b818501915085601f83011261089b57600080fd5b81356108a961081282610669565b81815260059190911b830184019084810190888311156108c857600080fd5b8585015b83811015610999578035858111156108e45760008081fd5b8601610260818c03601f19018113156108fd5760008081fd5b610905610615565b6109108a84016103eb565b8152604061091f818501610429565b8b830152606080850135828401526080915061093c828601610429565b9083015260a061094d858201610429565b8284015260c091506109618f8387016106f7565b908301529183013591888311156109785760008081fd5b6109868e8c858701016107f1565b90820152855250509186019186016108cc565b5098975050505050505050565b6000806000606084860312156109bb57600080fd5b6109c484610429565b92506109d2602085016103eb565b91506105cc604085016103eb565b634e487b7160e01b600052603260045260246000fd5b600060018201610a1657634e487b7160e01b600052601160045260246000fd5b506001019056fea2646970667358221220226c00658c468d13022e08877ba60a402d656cdc382943312aa4b1a232331ac464736f6c63430008110033",
    "linkReferences": {}
  },
  "methodIdentifiers": {
    "add((address,bool,uint256,bool,bool,(uint8,uint32,uint8,address,uint48,uint128,uint128,uint128,uint128,uint64,uint64,uint128,bytes32),uint256[])[])": "b398a842",
    "closeStore()": "6d078566",
    "initialize(bool,address,address)": "e2545422",
    "openStore()": "7e1dcaf7",
    "remove(address,uint256,bool)": "8f549206",
    "remove(bytes32,bool)": "45824d67",
    "removeByAccount(bool,address)": "7380adf0",
    "setCloseStore(address)": "0c379fb1",
    "setOpenStore(address)": "a869e9f2"
  },
  "id": 48
}