{
  "abi": [
    {
      "anonymous": false,
      "inputs": [
        {
          "indexed": false,
          "internalType": "uint8",
          "name": "version",
          "type": "uint8"
        }
      ],
      "name": "Initialized",
      "type": "event"
    },
    {
      "anonymous": false,
      "inputs": [
        {
          "indexed": true,
          "internalType": "address",
          "name": "previousOwner",
          "type": "address"
        },
        {
          "indexed": true,
          "internalType": "address",
          "name": "newOwner",
          "type": "address"
        }
      ],
      "name": "OwnershipTransferred",
      "type": "event"
    },
    {
      "anonymous": false,
      "inputs": [
        {
          "indexed": true,
          "internalType": "bytes32",
          "name": "role",
          "type": "bytes32"
        },
        {
          "indexed": true,
          "internalType": "bytes32",
          "name": "previousAdminRole",
          "type": "bytes32"
        },
        {
          "indexed": true,
          "internalType": "bytes32",
          "name": "newAdminRole",
          "type": "bytes32"
        }
      ],
      "name": "RoleAdminChanged",
      "type": "event"
    },
    {
      "anonymous": false,
      "inputs": [
        {
          "indexed": true,
          "internalType": "bytes32",
          "name": "role",
          "type": "bytes32"
        },
        {
          "indexed": true,
          "internalType": "address",
          "name": "account",
          "type": "address"
        },
        {
          "indexed": true,
          "internalType": "address",
          "name": "sender",
          "type": "address"
        }
      ],
      "name": "RoleGranted",
      "type": "event"
    },
    {
      "anonymous": false,
      "inputs": [
        {
          "indexed": true,
          "internalType": "bytes32",
          "name": "role",
          "type": "bytes32"
        },
        {
          "indexed": true,
          "internalType": "address",
          "name": "account",
          "type": "address"
        },
        {
          "indexed": true,
          "internalType": "address",
          "name": "sender",
          "type": "address"
        }
      ],
      "name": "RoleRevoked",
      "type": "event"
    },
    {
      "inputs": [],
      "name": "DEFAULT_ADMIN_ROLE",
      "outputs": [
        {
          "internalType": "bytes32",
          "name": "",
          "type": "bytes32"
        }
      ],
      "stateMutability": "view",
      "type": "function"
    },
    {
      "inputs": [
        {
          "internalType": "address",
          "name": "_plugin",
          "type": "address"
        }
      ],
      "name": "addPlugin",
      "outputs": [],
      "stateMutability": "nonpayable",
      "type": "function"
    },
    {
      "inputs": [
        {
          "internalType": "uint256",
          "name": "",
          "type": "uint256"
        }
      ],
      "name": "dailyVolumes",
      "outputs": [
        {
          "internalType": "uint256",
          "name": "",
          "type": "uint256"
        }
      ],
      "stateMutability": "view",
      "type": "function"
    },
    {
      "inputs": [],
      "name": "getHooksCalls",
      "outputs": [
        {
          "components": [
            {
              "internalType": "bool",
              "name": "updatePosition",
              "type": "bool"
            },
            {
              "internalType": "bool",
              "name": "updateOrder",
              "type": "bool"
            },
            {
              "internalType": "bool",
              "name": "deleteOrder",
              "type": "bool"
            }
          ],
          "internalType": "struct MarketCallBackIntl.Calls",
          "name": "",
          "type": "tuple"
        }
      ],
      "stateMutability": "pure",
      "type": "function"
    },
    {
      "inputs": [
        {
          "internalType": "bytes32",
          "name": "role",
          "type": "bytes32"
        }
      ],
      "name": "getRoleAdmin",
      "outputs": [
        {
          "internalType": "bytes32",
          "name": "",
          "type": "bytes32"
        }
      ],
      "stateMutability": "view",
      "type": "function"
    },
    {
      "inputs": [
        {
          "internalType": "address",
          "name": "_account",
          "type": "address"
        }
      ],
      "name": "grantControllerRoleByMarketManager",
      "outputs": [],
      "stateMutability": "nonpayable",
      "type": "function"
    },
    {
      "inputs": [
        {
          "internalType": "bytes32",
          "name": "role",
          "type": "bytes32"
        },
        {
          "internalType": "address",
          "name": "account",
          "type": "address"
        }
      ],
      "name": "grantRole",
      "outputs": [],
      "stateMutability": "nonpayable",
      "type": "function"
    },
    {
      "inputs": [
        {
          "internalType": "bytes32",
          "name": "role",
          "type": "bytes32"
        },
        {
          "internalType": "address",
          "name": "account",
          "type": "address"
        }
      ],
      "name": "hasRole",
      "outputs": [
        {
          "internalType": "bool",
          "name": "",
          "type": "bool"
        }
      ],
      "stateMutability": "view",
      "type": "function"
    },
    {
      "inputs": [],
      "name": "initialize",
      "outputs": [],
      "stateMutability": "nonpayable",
      "type": "function"
    },
    {
      "inputs": [
        {
          "internalType": "address",
          "name": "acc",
          "type": "address"
        }
      ],
      "name": "lastDailyVolume",
      "outputs": [
        {
          "internalType": "uint256",
          "name": "",
          "type": "uint256"
        }
      ],
      "stateMutability": "view",
      "type": "function"
    },
    {
      "inputs": [],
      "name": "owner",
      "outputs": [
        {
          "internalType": "address",
          "name": "",
          "type": "address"
        }
      ],
      "stateMutability": "view",
      "type": "function"
    },
    {
      "inputs": [
        {
          "internalType": "address",
          "name": "_plugin",
          "type": "address"
        }
      ],
      "name": "removePlugin",
      "outputs": [],
      "stateMutability": "nonpayable",
      "type": "function"
    },
    {
      "inputs": [],
      "name": "renounceOwnership",
      "outputs": [],
      "stateMutability": "nonpayable",
      "type": "function"
    },
    {
      "inputs": [
        {
          "internalType": "bytes32",
          "name": "",
          "type": "bytes32"
        },
        {
          "internalType": "address",
          "name": "",
          "type": "address"
        }
      ],
      "name": "renounceRole",
      "outputs": [],
      "stateMutability": "nonpayable",
      "type": "function"
    },
    {
      "inputs": [
        {
          "internalType": "bytes32",
          "name": "role",
          "type": "bytes32"
        },
        {
          "internalType": "address",
          "name": "account",
          "type": "address"
        }
      ],
      "name": "revokeRole",
      "outputs": [],
      "stateMutability": "nonpayable",
      "type": "function"
    },
    {
      "inputs": [
        {
          "internalType": "uint256",
          "name": "day",
          "type": "uint256"
        },
        {
          "internalType": "uint256",
          "name": "_v",
          "type": "uint256"
        }
      ],
      "name": "setVolume",
      "outputs": [],
      "stateMutability": "nonpayable",
      "type": "function"
    },
    {
      "inputs": [
        {
          "internalType": "bytes4",
          "name": "interfaceId",
          "type": "bytes4"
        }
      ],
      "name": "supportsInterface",
      "outputs": [
        {
          "internalType": "bool",
          "name": "",
          "type": "bool"
        }
      ],
      "stateMutability": "view",
      "type": "function"
    },
    {
      "inputs": [
        {
          "internalType": "address",
          "name": "to",
          "type": "address"
        }
      ],
      "name": "transferAdmin",
      "outputs": [],
      "stateMutability": "nonpayable",
      "type": "function"
    },
    {
      "inputs": [
        {
          "internalType": "address",
          "name": "newOwner",
          "type": "address"
        }
      ],
      "name": "transferOwnership",
      "outputs": [],
      "stateMutability": "nonpayable",
      "type": "function"
    },
    {
      "inputs": [
        {
          "components": [
            {
              "components": [
                {
                  "internalType": "address",
                  "name": "_market",
                  "type": "address"
                },
                {
                  "internalType": "bool",
                  "name": "_isLong",
                  "type": "bool"
                },
                {
                  "internalType": "uint256",
                  "name": "_oraclePrice",
                  "type": "uint256"
                },
                {
                  "internalType": "bool",
                  "name": "isOpen",
                  "type": "bool"
                },
                {
                  "internalType": "address",
                  "name": "_account",
                  "type": "address"
                },
                {
                  "internalType": "uint256",
                  "name": "_sizeDelta",
                  "type": "uint256"
                },
                {
                  "internalType": "uint256",
                  "name": "_price",
                  "type": "uint256"
                },
                {
                  "internalType": "uint256",
                  "name": "_slippage",
                  "type": "uint256"
                },
                {
                  "internalType": "bool",
                  "name": "_isExec",
                  "type": "bool"
                },
                {
                  "internalType": "uint8",
                  "name": "liqState",
                  "type": "uint8"
                },
                {
                  "internalType": "uint64",
                  "name": "_fromOrder",
                  "type": "uint64"
                },
                {
                  "internalType": "bytes32",
                  "name": "_refCode",
                  "type": "bytes32"
                },
                {
                  "internalType": "uint256",
                  "name": "collateralDelta",
                  "type": "uint256"
                },
                {
                  "internalType": "uint8",
                  "name": "execNum",
                  "type": "uint8"
                },
                {
                  "internalType": "uint256[]",
                  "name": "inputs",
                  "type": "uint256[]"
                }
              ],
              "internalType": "struct MarketDataTypes.UpdatePositionInputs",
              "name": "inputs",
              "type": "tuple"
            },
            {
              "components": [
                {
                  "internalType": "address",
                  "name": "market",
                  "type": "address"
                },
                {
                  "internalType": "bool",
                  "name": "isLong",
                  "type": "bool"
                },
                {
                  "internalType": "uint32",
                  "name": "lastTime",
                  "type": "uint32"
                },
                {
                  "internalType": "uint216",
                  "name": "extra3",
                  "type": "uint216"
                },
                {
                  "internalType": "uint256",
                  "name": "size",
                  "type": "uint256"
                },
                {
                  "internalType": "uint256",
                  "name": "collateral",
                  "type": "uint256"
                },
                {
                  "internalType": "uint256",
                  "name": "averagePrice",
                  "type": "uint256"
                },
                {
                  "internalType": "int256",
                  "name": "entryFundingRate",
                  "type": "int256"
                },
                {
                  "internalType": "int256",
                  "name": "realisedPnl",
                  "type": "int256"
                },
                {
                  "internalType": "uint256",
                  "name": "extra0",
                  "type": "uint256"
                },
                {
                  "internalType": "uint256",
                  "name": "extra1",
                  "type": "uint256"
                },
                {
                  "internalType": "uint256",
                  "name": "extra2",
                  "type": "uint256"
                }
              ],
              "internalType": "struct Position.Props",
              "name": "position",
              "type": "tuple"
            },
            {
              "internalType": "int256[]",
              "name": "fees",
              "type": "int256[]"
            },
            {
              "internalType": "address",
              "name": "collateralToken",
              "type": "address"
            },
            {
              "internalType": "address",
              "name": "indexToken",
              "type": "address"
            },
            {
              "internalType": "int256",
              "name": "collateralDeltaAfter",
              "type": "int256"
            }
          ],
          "internalType": "struct MarketPositionCallBackIntl.UpdatePositionEvent",
          "name": "_event",
          "type": "tuple"
        }
      ],
      "name": "updatePositionCallback",
      "outputs": [],
      "stateMutability": "nonpayable",
      "type": "function"
    },
    {
      "inputs": [
        {
          "internalType": "address",
          "name": "",
          "type": "address"
        }
      ],
      "name": "users",
      "outputs": [
        {
          "internalType": "uint32",
          "name": "lastTransactionTime",
          "type": "uint32"
        },
        {
          "internalType": "uint128",
          "name": "accumulatedVolume",
          "type": "uint128"
        },
        {
          "internalType": "uint64",
          "name": "extra0",
          "type": "uint64"
        },
        {
          "internalType": "uint32",
          "name": "extra1",
          "type": "uint32"
        }
      ],
      "stateMutability": "view",
      "type": "function"
    }
  ],
  "bytecode": {
    "object": "0x608060405234801561001057600080fd5b5061001a3361001f565b610071565b600180546001600160a01b038381166001600160a01b0319831681179093556040519116919082907f8be0079c531659141344cd1fd0a4f28419497f9722a3daafe3b4186f6b6457e090600090a35050565b61168a806100806000396000f3fe608060405234801561001057600080fd5b50600436106101375760003560e01c80638129fc1c116100b8578063a533f84a1161007c578063a533f84a146102c0578063a87430ba146102d3578063ce0e4e151461036a578063d547741f146103a6578063d8867fc8146103b9578063f2fde38b146103cc57600080fd5b80638129fc1c1461026f5780638da5cb5b1461027757806391d1485414610292578063a217fddf146102a5578063a4d95b64146102ad57600080fd5b806340a542fe116100ff57806340a542fe146101d8578063612c39b7146101eb578063715018a61461024157806375829def146102495780637fe4a6981461025c57600080fd5b806301ffc9a71461013c5780631f924d8614610164578063248a9ca3146101925780632f2ff15d146101b557806336568abe146101ca575b600080fd5b61014f61014a366004610fa6565b6103df565b60405190151581526020015b60405180910390f35b610184610172366004610fd0565b60066020526000908152604090205481565b60405190815260200161015b565b6101846101a0366004610fd0565b60009081526020819052604090206001015490565b6101c86101c3366004611005565b610416565b005b6101c8610137366004611005565b6101c86101e6366004611385565b610440565b60408051606080820183526000808352602080840182905292840181905283518083018552600180825281850183815291860192835285519081529051151593810193909352511515928201929092520161015b565b6101c861064d565b6101c861025736600461145a565b610661565b6101c861026a36600461145a565b6106da565b6101c8610704565b6001546040516001600160a01b03909116815260200161015b565b61014f6102a0366004611005565b61082d565b610184600081565b6101c86102bb36600461145a565b610856565b6101c86102ce366004611475565b61088b565b6103286102e136600461145a565b60056020526000908152604090205463ffffffff808216916001600160801b036401000000008204169167ffffffffffffffff600160a01b83041691600160e01b90041684565b6040805163ffffffff95861681526001600160801b03909416602085015267ffffffffffffffff9092169183019190915291909116606082015260800161015b565b61018461037836600461145a565b6001600160a01b031660009081526005602090815260408083205463ffffffff168352600690915290205490565b6101c86103b4366004611005565b6108c8565b6101c86103c736600461145a565b6108ed565b6101c86103da36600461145a565b610922565b60006001600160e01b03198216637965db0b60e01b148061041057506301ffc9a760e01b6001600160e01b03198316145b92915050565b60008281526020819052604090206001015461043181610998565b61043b83836109a2565b505050565b80516080015160005b6104536003610a26565b8110156104d3576000610467600383610a30565b60405163632447c960e01b81526001600160a01b0385811660048301529192509082169063632447c990602401600060405180830381600087803b1580156104ae57600080fd5b505af19250505080156104bf575060015b5050806104cb816114ad565b915050610449565b50815160a001516001600160a01b03821660009081526005602090815260408083208151608081018352905463ffffffff80821683526001600160801b036401000000008304169483019490945267ffffffffffffffff600160a01b82041692820192909252600160e01b909104909116606082015290610552610a43565b825190915063ffffffff168111156105755763ffffffff81168252600060208301525b61057e83610a57565b8260200181815161058f91906114c6565b6001600160801b039081169091526001600160a01b03808716600090815260056020908152604080832088518154848b0151848c015160608d015163ffffffff908116600160e01b026001600160e01b0367ffffffffffffffff909316600160a01b029290921692909a16640100000000026001600160a01b031990931699909316989098171790951695909517939093179093558481526006909252812080548693509091906106419084906114e6565b90915550505050505050565b610655610ac4565b61065f6000610b1e565b565b600061066c81610998565b6001600160a01b0382166106b75760405162461bcd60e51b815260206004820152600d60248201526c217a65726f206164647265737360981b60448201526064015b60405180910390fd5b6106c2600083610b70565b6106cb82610b1e565b6106d6600033610b7a565b5050565b7f8d1089725c0dc266707fa6207730fb801dcd03108bfed7a21099bd303651d2b761013781610998565b600154600160a81b900460ff161580801561072a575060018054600160a01b900460ff16105b8061074a5750303b15801561074a575060018054600160a01b900460ff16145b6107ad5760405162461bcd60e51b815260206004820152602e60248201527f496e697469616c697a61626c653a20636f6e747261637420697320616c72656160448201526d191e481a5b9a5d1a585b1a5e995960921b60648201526084016106ae565b6001805460ff60a01b1916600160a01b17905580156107da576001805460ff60a81b1916600160a81b1790555b6107e333610bdf565b801561082a576001805460ff60a81b191681556040519081527f7f26b83ff96e1f2b6a682f133852f6798a09c465da95921460cefb38474024989060200160405180910390a15b50565b6000918252602082815260408084206001600160a01b0393909316845291905290205460ff1690565b7fcb6bc1c12dd43bca8d7dd46d975f913325437d0dcd5978e99d515e4ad39b977261088081610998565b61043b600383610c02565b7fcb6bc1c12dd43bca8d7dd46d975f913325437d0dcd5978e99d515e4ad39b97726108b581610998565b5060009182526006602052604090912055565b6000828152602081905260409020600101546108e381610998565b61043b8383610b7a565b7fcb6bc1c12dd43bca8d7dd46d975f913325437d0dcd5978e99d515e4ad39b977261091781610998565b61043b600383610c17565b61092a610ac4565b6001600160a01b03811661098f5760405162461bcd60e51b815260206004820152602660248201527f4f776e61626c653a206e6577206f776e657220697320746865207a65726f206160448201526564647265737360d01b60648201526084016106ae565b61082a81610b1e565b61082a8133610c2c565b6109ac828261082d565b6106d6576000828152602081815260408083206001600160a01b03851684529091529020805460ff191660011790556109e23390565b6001600160a01b0316816001600160a01b0316837f2f8788117e7eff1d82e926ec794901d17c78024a50270940304540a733656f0d60405160405180910390a45050565b6000610410825490565b6000610a3c8383610c85565b9392505050565b6000610a5262015180426114f9565b905090565b60006001600160801b03821115610ac05760405162461bcd60e51b815260206004820152602760248201527f53616665436173743a2076616c756520646f65736e27742066697420696e20316044820152663238206269747360c81b60648201526084016106ae565b5090565b6001546001600160a01b0316331461065f5760405162461bcd60e51b815260206004820181905260248201527f4f776e61626c653a2063616c6c6572206973206e6f7420746865206f776e657260448201526064016106ae565b600180546001600160a01b038381166001600160a01b0319831681179093556040519116919082907f8be0079c531659141344cd1fd0a4f28419497f9722a3daafe3b4186f6b6457e090600090a35050565b6106d682826109a2565b610b84828261082d565b156106d6576000828152602081815260408083206001600160a01b0385168085529252808320805460ff1916905551339285917ff6391f5c32d9c69d2a47ea670b442974b53935d1edc7fd64eb21e047a839171b9190a45050565b42600255610bec33610b1e565b610bf7600033610b70565b61082a600082610b70565b6000610a3c836001600160a01b038416610caf565b6000610a3c836001600160a01b038416610da9565b610c36828261082d565b6106d657610c4381610df8565b610c4e836020610e0a565b604051602001610c5f92919061153f565b60408051601f198184030181529082905262461bcd60e51b82526106ae916004016115b4565b6000826000018281548110610c9c57610c9c6115e7565b9060005260206000200154905092915050565b60008181526001830160205260408120548015610d98576000610cd36001836115fd565b8554909150600090610ce7906001906115fd565b9050818114610d4c576000866000018281548110610d0757610d076115e7565b9060005260206000200154905080876000018481548110610d2a57610d2a6115e7565b6000918252602080832090910192909255918252600188019052604090208390555b8554869080610d5d57610d5d611610565b600190038181906000526020600020016000905590558560010160008681526020019081526020016000206000905560019350505050610410565b6000915050610410565b5092915050565b6000818152600183016020526040812054610df057508154600181810184556000848152602080822090930184905584548482528286019093526040902091909155610410565b506000610410565b60606104106001600160a01b03831660145b60606000610e19836002611626565b610e249060026114e6565b67ffffffffffffffff811115610e3c57610e3c611031565b6040519080825280601f01601f191660200182016040528015610e66576020820181803683370190505b509050600360fc1b81600081518110610e8157610e816115e7565b60200101906001600160f81b031916908160001a905350600f60fb1b81600181518110610eb057610eb06115e7565b60200101906001600160f81b031916908160001a9053506000610ed4846002611626565b610edf9060016114e6565b90505b6001811115610f57576f181899199a1a9b1b9c1cb0b131b232b360811b85600f1660108110610f1357610f136115e7565b1a60f81b828281518110610f2957610f296115e7565b60200101906001600160f81b031916908160001a90535060049490941c93610f508161163d565b9050610ee2565b508315610a3c5760405162461bcd60e51b815260206004820181905260248201527f537472696e67733a20686578206c656e67746820696e73756666696369656e7460448201526064016106ae565b600060208284031215610fb857600080fd5b81356001600160e01b031981168114610a3c57600080fd5b600060208284031215610fe257600080fd5b5035919050565b80356001600160a01b038116811461100057600080fd5b919050565b6000806040838503121561101857600080fd5b8235915061102860208401610fe9565b90509250929050565b634e487b7160e01b600052604160045260246000fd5b6040516101e0810167ffffffffffffffff8111828210171561106b5761106b611031565b60405290565b604051610180810167ffffffffffffffff8111828210171561106b5761106b611031565b60405160c0810167ffffffffffffffff8111828210171561106b5761106b611031565b8035801515811461100057600080fd5b803560ff8116811461100057600080fd5b803567ffffffffffffffff8116811461100057600080fd5b600082601f83011261110257600080fd5b8135602067ffffffffffffffff8083111561111f5761111f611031565b8260051b604051601f19603f8301168101818110848211171561114457611144611031565b60405293845285810183019383810192508785111561116257600080fd5b83870191505b8482101561118157813583529183019190830190611168565b979650505050505050565b60006101e0828403121561119f57600080fd5b6111a7611047565b90506111b282610fe9565b81526111c0602083016110b8565b6020820152604082013560408201526111db606083016110b8565b60608201526111ec60808301610fe9565b608082015260a082013560a082015260c082013560c082015260e082013560e082015261010061121d8184016110b8565b9082015261012061122f8382016110c8565b908201526101406112418382016110d9565b90820152610160828101359082015261018080830135908201526101a06112698184016110c8565b908201526101c08281013567ffffffffffffffff81111561128957600080fd5b611295858286016110f1565b82840152505092915050565b803563ffffffff8116811461100057600080fd5b80356001600160d81b038116811461100057600080fd5b600061018082840312156112df57600080fd5b6112e7611071565b90506112f282610fe9565b8152611300602083016110b8565b6020820152611311604083016112a1565b6040820152611322606083016112b5565b60608201526080820135608082015260a082013560a082015260c082013560c082015260e082013560e082015261010080830135818301525061012080830135818301525061014080830135818301525061016080830135818301525092915050565b60006020828403121561139757600080fd5b813567ffffffffffffffff808211156113af57600080fd5b9083019061022082860312156113c457600080fd5b6113cc611095565b8235828111156113db57600080fd5b6113e78782860161118c565b8252506113f786602085016112cc565b60208201526101a08301358281111561140f57600080fd5b61141b878286016110f1565b60408301525061142e6101c08401610fe9565b60608201526114406101e08401610fe9565b6080820152610200929092013560a0830152509392505050565b60006020828403121561146c57600080fd5b610a3c82610fe9565b6000806040838503121561148857600080fd5b50508035926020909101359150565b634e487b7160e01b600052601160045260246000fd5b6000600182016114bf576114bf611497565b5060010190565b6001600160801b03818116838216019080821115610da257610da2611497565b8082018082111561041057610410611497565b60008261151657634e487b7160e01b600052601260045260246000fd5b500490565b60005b8381101561153657818101518382015260200161151e565b50506000910152565b7f416363657373436f6e74726f6c3a206163636f756e742000000000000000000081526000835161157781601785016020880161151b565b7001034b99036b4b9b9b4b733903937b6329607d1b60179184019182015283516115a881602884016020880161151b565b01602801949350505050565b60208152600082518060208401526115d381604085016020870161151b565b601f01601f19169190910160400192915050565b634e487b7160e01b600052603260045260246000fd5b8181038181111561041057610410611497565b634e487b7160e01b600052603160045260246000fd5b808202811582820484141761041057610410611497565b60008161164c5761164c611497565b50600019019056fea264697066735822122073a6239d21ab436b83ee84763f81eb5887348eb18ce60a36b8b0d9e25daf472f64736f6c63430008110033",
    "linkReferences": {}
  },
  "methodIdentifiers": {
    "DEFAULT_ADMIN_ROLE()": "a217fddf",
    "addPlugin(address)": "d8867fc8",
    "dailyVolumes(uint256)": "1f924d86",
    "getHooksCalls()": "612c39b7",
    "getRoleAdmin(bytes32)": "248a9ca3",
    "grantControllerRoleByMarketManager(address)": "7fe4a698",
    "grantRole(bytes32,address)": "2f2ff15d",
    "hasRole(bytes32,address)": "91d14854",
    "initialize()": "8129fc1c",
    "lastDailyVolume(address)": "ce0e4e15",
    "owner()": "8da5cb5b",
    "removePlugin(address)": "a4d95b64",
    "renounceOwnership()": "715018a6",
    "renounceRole(bytes32,address)": "36568abe",
    "revokeRole(bytes32,address)": "d547741f",
    "setVolume(uint256,uint256)": "a533f84a",
    "supportsInterface(bytes4)": "01ffc9a7",
    "transferAdmin(address)": "75829def",
    "transferOwnership(address)": "f2fde38b",
    "updatePositionCallback(((address,bool,uint256,bool,address,uint256,uint256,uint256,bool,uint8,uint64,bytes32,uint256,uint8,uint256[]),(address,bool,uint32,uint216,uint256,uint256,uint256,int256,int256,uint256,uint256,uint256),int256[],address,address,int256))": "40a542fe",
    "users(address)": "a87430ba"
  },
  "id": 95
}