{
  "abi": [
    {
      "anonymous": false,
      "inputs": [
        {
          "indexed": false,
          "internalType": "uint256",
          "name": "amount",
          "type": "uint256"
        }
      ],
      "name": "Distribute",
      "type": "event"
    },
    {
      "anonymous": false,
      "inputs": [
        {
          "indexed": false,
          "internalType": "uint8",
          "name": "version",
          "type": "uint8"
        }
      ],
      "name": "Initialized",
      "type": "event"
    },
    {
      "anonymous": false,
      "inputs": [
        {
          "indexed": true,
          "internalType": "address",
          "name": "previousOwner",
          "type": "address"
        },
        {
          "indexed": true,
          "internalType": "address",
          "name": "newOwner",
          "type": "address"
        }
      ],
      "name": "OwnershipTransferred",
      "type": "event"
    },
    {
      "anonymous": false,
      "inputs": [
        {
          "indexed": true,
          "internalType": "bytes32",
          "name": "role",
          "type": "bytes32"
        },
        {
          "indexed": true,
          "internalType": "bytes32",
          "name": "previousAdminRole",
          "type": "bytes32"
        },
        {
          "indexed": true,
          "internalType": "bytes32",
          "name": "newAdminRole",
          "type": "bytes32"
        }
      ],
      "name": "RoleAdminChanged",
      "type": "event"
    },
    {
      "anonymous": false,
      "inputs": [
        {
          "indexed": true,
          "internalType": "bytes32",
          "name": "role",
          "type": "bytes32"
        },
        {
          "indexed": true,
          "internalType": "address",
          "name": "account",
          "type": "address"
        },
        {
          "indexed": true,
          "internalType": "address",
          "name": "sender",
          "type": "address"
        }
      ],
      "name": "RoleGranted",
      "type": "event"
    },
    {
      "anonymous": false,
      "inputs": [
        {
          "indexed": true,
          "internalType": "bytes32",
          "name": "role",
          "type": "bytes32"
        },
        {
          "indexed": true,
          "internalType": "address",
          "name": "account",
          "type": "address"
        },
        {
          "indexed": true,
          "internalType": "address",
          "name": "sender",
          "type": "address"
        }
      ],
      "name": "RoleRevoked",
      "type": "event"
    },
    {
      "anonymous": false,
      "inputs": [
        {
          "indexed": false,
          "internalType": "uint256",
          "name": "amount",
          "type": "uint256"
        }
      ],
      "name": "TokensPerIntervalChange",
      "type": "event"
    },
    {
      "inputs": [],
      "name": "DEFAULT_ADMIN_ROLE",
      "outputs": [
        {
          "internalType": "bytes32",
          "name": "",
          "type": "bytes32"
        }
      ],
      "stateMutability": "view",
      "type": "function"
    },
    {
      "inputs": [],
      "name": "distribute",
      "outputs": [
        {
          "internalType": "uint256",
          "name": "",
          "type": "uint256"
        }
      ],
      "stateMutability": "nonpayable",
      "type": "function"
    },
    {
      "inputs": [
        {
          "internalType": "bytes32",
          "name": "role",
          "type": "bytes32"
        }
      ],
      "name": "getRoleAdmin",
      "outputs": [
        {
          "internalType": "bytes32",
          "name": "",
          "type": "bytes32"
        }
      ],
      "stateMutability": "view",
      "type": "function"
    },
    {
      "inputs": [
        {
          "internalType": "address",
          "name": "_account",
          "type": "address"
        }
      ],
      "name": "grantControllerRoleByMarketManager",
      "outputs": [],
      "stateMutability": "nonpayable",
      "type": "function"
    },
    {
      "inputs": [
        {
          "internalType": "bytes32",
          "name": "role",
          "type": "bytes32"
        },
        {
          "internalType": "address",
          "name": "account",
          "type": "address"
        }
      ],
      "name": "grantRole",
      "outputs": [],
      "stateMutability": "nonpayable",
      "type": "function"
    },
    {
      "inputs": [
        {
          "internalType": "bytes32",
          "name": "role",
          "type": "bytes32"
        },
        {
          "internalType": "address",
          "name": "account",
          "type": "address"
        }
      ],
      "name": "hasRole",
      "outputs": [
        {
          "internalType": "bool",
          "name": "",
          "type": "bool"
        }
      ],
      "stateMutability": "view",
      "type": "function"
    },
    {
      "inputs": [
        {
          "internalType": "address",
          "name": "_rewardToken",
          "type": "address"
        },
        {
          "internalType": "address",
          "name": "_rewardTracker",
          "type": "address"
        }
      ],
      "name": "initialize",
      "outputs": [],
      "stateMutability": "nonpayable",
      "type": "function"
    },
    {
      "inputs": [],
      "name": "lastDistributionTime",
      "outputs": [
        {
          "internalType": "uint256",
          "name": "",
          "type": "uint256"
        }
      ],
      "stateMutability": "view",
      "type": "function"
    },
    {
      "inputs": [],
      "name": "owner",
      "outputs": [
        {
          "internalType": "address",
          "name": "",
          "type": "address"
        }
      ],
      "stateMutability": "view",
      "type": "function"
    },
    {
      "inputs": [],
      "name": "pendingRewards",
      "outputs": [
        {
          "internalType": "uint256",
          "name": "",
          "type": "uint256"
        }
      ],
      "stateMutability": "view",
      "type": "function"
    },
    {
      "inputs": [],
      "name": "renounceOwnership",
      "outputs": [],
      "stateMutability": "nonpayable",
      "type": "function"
    },
    {
      "inputs": [
        {
          "internalType": "bytes32",
          "name": "",
          "type": "bytes32"
        },
        {
          "internalType": "address",
          "name": "",
          "type": "address"
        }
      ],
      "name": "renounceRole",
      "outputs": [],
      "stateMutability": "nonpayable",
      "type": "function"
    },
    {
      "inputs": [
        {
          "internalType": "bytes32",
          "name": "role",
          "type": "bytes32"
        },
        {
          "internalType": "address",
          "name": "account",
          "type": "address"
        }
      ],
      "name": "revokeRole",
      "outputs": [],
      "stateMutability": "nonpayable",
      "type": "function"
    },
    {
      "inputs": [],
      "name": "rewardToken",
      "outputs": [
        {
          "internalType": "address",
          "name": "",
          "type": "address"
        }
      ],
      "stateMutability": "view",
      "type": "function"
    },
    {
      "inputs": [],
      "name": "rewardTracker",
      "outputs": [
        {
          "internalType": "address",
          "name": "",
          "type": "address"
        }
      ],
      "stateMutability": "view",
      "type": "function"
    },
    {
      "inputs": [
        {
          "internalType": "uint256",
          "name": "_amount",
          "type": "uint256"
        }
      ],
      "name": "setTokensPerInterval",
      "outputs": [],
      "stateMutability": "nonpayable",
      "type": "function"
    },
    {
      "inputs": [
        {
          "internalType": "bytes4",
          "name": "interfaceId",
          "type": "bytes4"
        }
      ],
      "name": "supportsInterface",
      "outputs": [
        {
          "internalType": "bool",
          "name": "",
          "type": "bool"
        }
      ],
      "stateMutability": "view",
      "type": "function"
    },
    {
      "inputs": [],
      "name": "tokensPerInterval",
      "outputs": [
        {
          "internalType": "uint256",
          "name": "",
          "type": "uint256"
        }
      ],
      "stateMutability": "view",
      "type": "function"
    },
    {
      "inputs": [
        {
          "internalType": "address",
          "name": "to",
          "type": "address"
        }
      ],
      "name": "transferAdmin",
      "outputs": [],
      "stateMutability": "nonpayable",
      "type": "function"
    },
    {
      "inputs": [
        {
          "internalType": "address",
          "name": "newOwner",
          "type": "address"
        }
      ],
      "name": "transferOwnership",
      "outputs": [],
      "stateMutability": "nonpayable",
      "type": "function"
    },
    {
      "inputs": [],
      "name": "updateLastDistributionTime",
      "outputs": [],
      "stateMutability": "nonpayable",
      "type": "function"
    },
    {
      "inputs": [
        {
          "internalType": "address",
          "name": "_token",
          "type": "address"
        },
        {
          "internalType": "address",
          "name": "_account",
          "type": "address"
        },
        {
          "internalType": "uint256",
          "name": "_amount",
          "type": "uint256"
        }
      ],
      "name": "withdrawToken",
      "outputs": [],
      "stateMutability": "nonpayable",
      "type": "function"
    }
  ],
  "bytecode": {
    "object": "0x608060405234801561001057600080fd5b5061001a3361001f565b610071565b600180546001600160a01b038381166001600160a01b0319831681179093556040519116919082907f8be0079c531659141344cd1fd0a4f28419497f9722a3daafe3b4186f6b6457e090600090a35050565b6112ff806100806000396000f3fe608060405234801561001057600080fd5b50600436106101425760003560e01c806375b17350116100b8578063a8d936271161007c578063a8d9362714610292578063d547741f1461029b578063e4fc6b6d146102ae578063eded3fda146102b6578063f2fde38b146102be578063f7c618c1146102d157600080fd5b806375b173501461024a5780637fe4a698146102535780638da5cb5b1461026657806391d1485414610277578063a217fddf1461028a57600080fd5b806336568abe1161010a57806336568abe146101db5780633ae6d6eb146101e9578063485cc955146101f15780636bcb411a14610204578063715018a61461022f57806375829def1461023757600080fd5b806301e336671461014757806301ffc9a71461015c57806318e20a0314610184578063248a9ca3146101975780632f2ff15d146101c8575b600080fd5b61015a610155366004611020565b6102e4565b005b61016f61016a36600461105c565b610326565b60405190151581526020015b60405180910390f35b61015a610192366004611086565b61035d565b6101ba6101a5366004611086565b60009081526020819052604090206001015490565b60405190815260200161017b565b61015a6101d636600461109f565b61043a565b61015a61014236600461109f565b61015a61045f565b61015a6101ff3660046110cb565b610490565b600654610217906001600160a01b031681565b6040516001600160a01b03909116815260200161017b565b61015a61066d565b61015a6102453660046110f5565b610681565b6101ba60055481565b61015a6102613660046110f5565b6106f5565b6001546001600160a01b0316610217565b61016f61028536600461109f565b61071f565b6101ba600081565b6101ba60045481565b61015a6102a936600461109f565b610748565b6101ba61076d565b6101ba6108c3565b61015a6102cc3660046110f5565b6108fa565b600354610217906001600160a01b031681565b61030d7f241ecf16d79d0f8dbfb92cbc07fe17840425976cf0667f022fe9877caa831b08610973565b6103216001600160a01b038416838361097d565b505050565b60006001600160e01b03198216637965db0b60e01b148061035757506301ffc9a760e01b6001600160e01b03198316145b92915050565b7fcb6bc1c12dd43bca8d7dd46d975f913325437d0dcd5978e99d515e4ad39b977261038781610973565b60055460000361039657426005555b600660009054906101000a90046001600160a01b03166001600160a01b0316633e158b0c6040518163ffffffff1660e01b8152600401600060405180830381600087803b1580156103e657600080fd5b505af11580156103fa573d6000803e3d6000fd5b5050506004839055506040518281527f98dc76c39aa5a5dcb749f8750a65db3dfa1e14bcc1591a9c16a7420e5da748f89060200160405180910390a15050565b60008281526020819052604090206001015461045581610973565b61032183836109cf565b7fcb6bc1c12dd43bca8d7dd46d975f913325437d0dcd5978e99d515e4ad39b977261048981610973565b5042600555565b600154600160a81b900460ff16158080156104b6575060018054600160a01b900460ff16105b806104d65750303b1580156104d6575060018054600160a01b900460ff16145b61053e5760405162461bcd60e51b815260206004820152602e60248201527f496e697469616c697a61626c653a20636f6e747261637420697320616c72656160448201526d191e481a5b9a5d1a585b1a5e995960921b60648201526084015b60405180910390fd5b6001805460ff60a01b1916600160a01b179055801561056b576001805460ff60a81b1916600160a81b1790555b61057433610a53565b6001600160a01b0383166105b35760405162461bcd60e51b8152600401610535906020808252600490820152637a65726f60e01b604082015260600190565b6001600160a01b0382166105f25760405162461bcd60e51b8152600401610535906020808252600490820152637a65726f60e01b604082015260600190565b600380546001600160a01b038086166001600160a01b03199283161790925560068054928516929091169190911790558015610321576001805460ff60a81b191681556040519081527f7f26b83ff96e1f2b6a682f133852f6798a09c465da95921460cefb38474024989060200160405180910390a1505050565b610675610a76565b61067f6000610ad0565b565b600061068c81610973565b6001600160a01b0382166106d25760405162461bcd60e51b815260206004820152600d60248201526c217a65726f206164647265737360981b6044820152606401610535565b6106dd600083610b22565b6106e682610ad0565b6106f1600033610b2c565b5050565b7f8d1089725c0dc266707fa6207730fb801dcd03108bfed7a21099bd303651d2b761014281610973565b6000918252602082815260408084206001600160a01b0393909316845291905290205460ff1690565b60008281526020819052604090206001015461076381610973565b6103218383610b2c565b6006546000906001600160a01b031633146107d85760405162461bcd60e51b815260206004820152602560248201527f5265776172644469737472696275746f723a20696e76616c6964206d73672e7360448201526432b73232b960d91b6064820152608401610535565b60006107e26108c3565b9050806000036107f457600091505090565b426005556003546040516370a0823160e01b81523060048201526000916001600160a01b0316906370a0823190602401602060405180830381865afa158015610841573d6000803e3d6000fd5b505050506040513d601f19601f820116820180604052508101906108659190611110565b905080821115610873578091505b60035461088a906001600160a01b0316338461097d565b6040518281527f4def474aca53bf221d07d9ab0f675b3f6d8d2494b8427271bcf43c018ef1eead9060200160405180910390a150905090565b600060055442036108d45750600090565b6000600554426108e4919061113f565b9050806004546108f49190611152565b91505090565b610902610a76565b6001600160a01b0381166109675760405162461bcd60e51b815260206004820152602660248201527f4f776e61626c653a206e6577206f776e657220697320746865207a65726f206160448201526564647265737360d01b6064820152608401610535565b61097081610ad0565b50565b6109708133610b91565b604080516001600160a01b038416602482015260448082018490528251808303909101815260649091019091526020810180516001600160e01b031663a9059cbb60e01b179052610321908490610bea565b6109d9828261071f565b6106f1576000828152602081815260408083206001600160a01b03851684529091529020805460ff19166001179055610a0f3390565b6001600160a01b0316816001600160a01b0316837f2f8788117e7eff1d82e926ec794901d17c78024a50270940304540a733656f0d60405160405180910390a45050565b42600255610a6033610ad0565b610a6b600033610b22565b610970600082610b22565b6001546001600160a01b0316331461067f5760405162461bcd60e51b815260206004820181905260248201527f4f776e61626c653a2063616c6c6572206973206e6f7420746865206f776e65726044820152606401610535565b600180546001600160a01b038381166001600160a01b0319831681179093556040519116919082907f8be0079c531659141344cd1fd0a4f28419497f9722a3daafe3b4186f6b6457e090600090a35050565b6106f182826109cf565b610b36828261071f565b156106f1576000828152602081815260408083206001600160a01b0385168085529252808320805460ff1916905551339285917ff6391f5c32d9c69d2a47ea670b442974b53935d1edc7fd64eb21e047a839171b9190a45050565b610b9b828261071f565b6106f157610ba881610cbf565b610bb3836020610cd1565b604051602001610bc492919061118d565b60408051601f198184030181529082905262461bcd60e51b825261053591600401611202565b6000610c3f826040518060400160405280602081526020017f5361666545524332303a206c6f772d6c6576656c2063616c6c206661696c6564815250856001600160a01b0316610e749092919063ffffffff16565b9050805160001480610c60575080806020019051810190610c609190611235565b6103215760405162461bcd60e51b815260206004820152602a60248201527f5361666545524332303a204552433230206f7065726174696f6e20646964206e6044820152691bdd081cdd58d8d9595960b21b6064820152608401610535565b60606103576001600160a01b03831660145b60606000610ce0836002611152565b610ceb906002611257565b67ffffffffffffffff811115610d0357610d0361126a565b6040519080825280601f01601f191660200182016040528015610d2d576020820181803683370190505b509050600360fc1b81600081518110610d4857610d48611280565b60200101906001600160f81b031916908160001a905350600f60fb1b81600181518110610d7757610d77611280565b60200101906001600160f81b031916908160001a9053506000610d9b846002611152565b610da6906001611257565b90505b6001811115610e1e576f181899199a1a9b1b9c1cb0b131b232b360811b85600f1660108110610dda57610dda611280565b1a60f81b828281518110610df057610df0611280565b60200101906001600160f81b031916908160001a90535060049490941c93610e1781611296565b9050610da9565b508315610e6d5760405162461bcd60e51b815260206004820181905260248201527f537472696e67733a20686578206c656e67746820696e73756666696369656e746044820152606401610535565b9392505050565b6060610e838484600085610e8b565b949350505050565b606082471015610eec5760405162461bcd60e51b815260206004820152602660248201527f416464726573733a20696e73756666696369656e742062616c616e636520666f6044820152651c8818d85b1b60d21b6064820152608401610535565b600080866001600160a01b03168587604051610f0891906112ad565b60006040518083038185875af1925050503d8060008114610f45576040519150601f19603f3d011682016040523d82523d6000602084013e610f4a565b606091505b5091509150610f5b87838387610f66565b979650505050505050565b60608315610fd5578251600003610fce576001600160a01b0385163b610fce5760405162461bcd60e51b815260206004820152601d60248201527f416464726573733a2063616c6c20746f206e6f6e2d636f6e74726163740000006044820152606401610535565b5081610e83565b610e838383815115610fea5781518083602001fd5b8060405162461bcd60e51b81526004016105359190611202565b80356001600160a01b038116811461101b57600080fd5b919050565b60008060006060848603121561103557600080fd5b61103e84611004565b925061104c60208501611004565b9150604084013590509250925092565b60006020828403121561106e57600080fd5b81356001600160e01b031981168114610e6d57600080fd5b60006020828403121561109857600080fd5b5035919050565b600080604083850312156110b257600080fd5b823591506110c260208401611004565b90509250929050565b600080604083850312156110de57600080fd5b6110e783611004565b91506110c260208401611004565b60006020828403121561110757600080fd5b610e6d82611004565b60006020828403121561112257600080fd5b5051919050565b634e487b7160e01b600052601160045260246000fd5b8181038181111561035757610357611129565b808202811582820484141761035757610357611129565b60005b8381101561118457818101518382015260200161116c565b50506000910152565b7f416363657373436f6e74726f6c3a206163636f756e74200000000000000000008152600083516111c5816017850160208801611169565b7001034b99036b4b9b9b4b733903937b6329607d1b60179184019182015283516111f6816028840160208801611169565b01602801949350505050565b6020815260008251806020840152611221816040850160208701611169565b601f01601f19169190910160400192915050565b60006020828403121561124757600080fd5b81518015158114610e6d57600080fd5b8082018082111561035757610357611129565b634e487b7160e01b600052604160045260246000fd5b634e487b7160e01b600052603260045260246000fd5b6000816112a5576112a5611129565b506000190190565b600082516112bf818460208701611169565b919091019291505056fea2646970667358221220da1b69a75b32b39941d45918153322ba61f55b6090521df9dd72199222a4937e64736f6c63430008110033",
    "linkReferences": {}
  },
  "methodIdentifiers": {
    "DEFAULT_ADMIN_ROLE()": "a217fddf",
    "distribute()": "e4fc6b6d",
    "getRoleAdmin(bytes32)": "248a9ca3",
    "grantControllerRoleByMarketManager(address)": "7fe4a698",
    "grantRole(bytes32,address)": "2f2ff15d",
    "hasRole(bytes32,address)": "91d14854",
    "initialize(address,address)": "485cc955",
    "lastDistributionTime()": "75b17350",
    "owner()": "8da5cb5b",
    "pendingRewards()": "eded3fda",
    "renounceOwnership()": "715018a6",
    "renounceRole(bytes32,address)": "36568abe",
    "revokeRole(bytes32,address)": "d547741f",
    "rewardToken()": "f7c618c1",
    "rewardTracker()": "6bcb411a",
    "setTokensPerInterval(uint256)": "18e20a03",
    "supportsInterface(bytes4)": "01ffc9a7",
    "tokensPerInterval()": "a8d93627",
    "transferAdmin(address)": "75829def",
    "transferOwnership(address)": "f2fde38b",
    "updateLastDistributionTime()": "3ae6d6eb",
    "withdrawToken(address,address,uint256)": "01e33667"
  },
  "id": 119
}