{
  "abi": [
    {
      "anonymous": false,
      "inputs": [
        {
          "indexed": false,
          "internalType": "address",
          "name": "account",
          "type": "address"
        },
        {
          "indexed": false,
          "internalType": "uint256",
          "name": "amount",
          "type": "uint256"
        }
      ],
      "name": "Harvest",
      "type": "event"
    },
    {
      "anonymous": false,
      "inputs": [
        {
          "indexed": false,
          "internalType": "uint8",
          "name": "version",
          "type": "uint8"
        }
      ],
      "name": "Initialized",
      "type": "event"
    },
    {
      "anonymous": false,
      "inputs": [
        {
          "indexed": false,
          "internalType": "uint256",
          "name": "supply",
          "type": "uint256"
        },
        {
          "indexed": false,
          "internalType": "uint256",
          "name": "cumulativeRewardPerToken",
          "type": "uint256"
        }
      ],
      "name": "LogUpdatePool",
      "type": "event"
    },
    {
      "anonymous": false,
      "inputs": [
        {
          "indexed": true,
          "internalType": "address",
          "name": "previousOwner",
          "type": "address"
        },
        {
          "indexed": true,
          "internalType": "address",
          "name": "newOwner",
          "type": "address"
        }
      ],
      "name": "OwnershipTransferred",
      "type": "event"
    },
    {
      "anonymous": false,
      "inputs": [
        {
          "indexed": true,
          "internalType": "bytes32",
          "name": "role",
          "type": "bytes32"
        },
        {
          "indexed": true,
          "internalType": "bytes32",
          "name": "previousAdminRole",
          "type": "bytes32"
        },
        {
          "indexed": true,
          "internalType": "bytes32",
          "name": "newAdminRole",
          "type": "bytes32"
        }
      ],
      "name": "RoleAdminChanged",
      "type": "event"
    },
    {
      "anonymous": false,
      "inputs": [
        {
          "indexed": true,
          "internalType": "bytes32",
          "name": "role",
          "type": "bytes32"
        },
        {
          "indexed": true,
          "internalType": "address",
          "name": "account",
          "type": "address"
        },
        {
          "indexed": true,
          "internalType": "address",
          "name": "sender",
          "type": "address"
        }
      ],
      "name": "RoleGranted",
      "type": "event"
    },
    {
      "anonymous": false,
      "inputs": [
        {
          "indexed": true,
          "internalType": "bytes32",
          "name": "role",
          "type": "bytes32"
        },
        {
          "indexed": true,
          "internalType": "address",
          "name": "account",
          "type": "address"
        },
        {
          "indexed": true,
          "internalType": "address",
          "name": "sender",
          "type": "address"
        }
      ],
      "name": "RoleRevoked",
      "type": "event"
    },
    {
      "inputs": [],
      "name": "DEFAULT_ADMIN_ROLE",
      "outputs": [
        {
          "internalType": "bytes32",
          "name": "",
          "type": "bytes32"
        }
      ],
      "stateMutability": "view",
      "type": "function"
    },
    {
      "inputs": [],
      "name": "PRECISION",
      "outputs": [
        {
          "internalType": "uint256",
          "name": "",
          "type": "uint256"
        }
      ],
      "stateMutability": "view",
      "type": "function"
    },
    {
      "inputs": [],
      "name": "apr",
      "outputs": [
        {
          "internalType": "uint256",
          "name": "",
          "type": "uint256"
        }
      ],
      "stateMutability": "view",
      "type": "function"
    },
    {
      "inputs": [
        {
          "internalType": "address",
          "name": "",
          "type": "address"
        }
      ],
      "name": "averageStakedAmounts",
      "outputs": [
        {
          "internalType": "uint256",
          "name": "",
          "type": "uint256"
        }
      ],
      "stateMutability": "view",
      "type": "function"
    },
    {
      "inputs": [
        {
          "internalType": "contract IERC4626",
          "name": "vault",
          "type": "address"
        },
        {
          "internalType": "address",
          "name": "to",
          "type": "address"
        },
        {
          "internalType": "uint256",
          "name": "amount",
          "type": "uint256"
        },
        {
          "internalType": "uint256",
          "name": "minSharesOut",
          "type": "uint256"
        }
      ],
      "name": "buy",
      "outputs": [
        {
          "internalType": "uint256",
          "name": "sharesOut",
          "type": "uint256"
        }
      ],
      "stateMutability": "nonpayable",
      "type": "function"
    },
    {
      "inputs": [
        {
          "internalType": "contract ICoreVault",
          "name": "vault",
          "type": "address"
        }
      ],
      "name": "buyLpFee",
      "outputs": [
        {
          "internalType": "uint256",
          "name": "",
          "type": "uint256"
        }
      ],
      "stateMutability": "view",
      "type": "function"
    },
    {
      "inputs": [
        {
          "internalType": "address",
          "name": "account",
          "type": "address"
        }
      ],
      "name": "claimForAccount",
      "outputs": [
        {
          "internalType": "uint256",
          "name": "tokenAmount",
          "type": "uint256"
        }
      ],
      "stateMutability": "nonpayable",
      "type": "function"
    },
    {
      "inputs": [],
      "name": "claimLPReward",
      "outputs": [
        {
          "internalType": "uint256",
          "name": "tokenAmount",
          "type": "uint256"
        }
      ],
      "stateMutability": "nonpayable",
      "type": "function"
    },
    {
      "inputs": [
        {
          "internalType": "address",
          "name": "_account",
          "type": "address"
        }
      ],
      "name": "claimable",
      "outputs": [
        {
          "internalType": "uint256",
          "name": "",
          "type": "uint256"
        }
      ],
      "stateMutability": "view",
      "type": "function"
    },
    {
      "inputs": [
        {
          "internalType": "address",
          "name": "",
          "type": "address"
        }
      ],
      "name": "claimableReward",
      "outputs": [
        {
          "internalType": "uint256",
          "name": "",
          "type": "uint256"
        }
      ],
      "stateMutability": "view",
      "type": "function"
    },
    {
      "inputs": [],
      "name": "coreVault",
      "outputs": [
        {
          "internalType": "contract ICoreVault",
          "name": "",
          "type": "address"
        }
      ],
      "stateMutability": "view",
      "type": "function"
    },
    {
      "inputs": [],
      "name": "cumulativeRewardPerToken",
      "outputs": [
        {
          "internalType": "uint256",
          "name": "",
          "type": "uint256"
        }
      ],
      "stateMutability": "view",
      "type": "function"
    },
    {
      "inputs": [],
      "name": "distributor",
      "outputs": [
        {
          "internalType": "address",
          "name": "",
          "type": "address"
        }
      ],
      "stateMutability": "view",
      "type": "function"
    },
    {
      "inputs": [],
      "name": "feeRouter",
      "outputs": [
        {
          "internalType": "contract IFeeRouter",
          "name": "",
          "type": "address"
        }
      ],
      "stateMutability": "view",
      "type": "function"
    },
    {
      "inputs": [],
      "name": "getAPR",
      "outputs": [
        {
          "internalType": "uint256",
          "name": "",
          "type": "uint256"
        }
      ],
      "stateMutability": "view",
      "type": "function"
    },
    {
      "inputs": [],
      "name": "getAUM",
      "outputs": [
        {
          "internalType": "uint256",
          "name": "",
          "type": "uint256"
        }
      ],
      "stateMutability": "view",
      "type": "function"
    },
    {
      "inputs": [],
      "name": "getLPPrice",
      "outputs": [
        {
          "internalType": "uint256",
          "name": "",
          "type": "uint256"
        }
      ],
      "stateMutability": "view",
      "type": "function"
    },
    {
      "inputs": [],
      "name": "getLPReward",
      "outputs": [
        {
          "internalType": "uint256",
          "name": "",
          "type": "uint256"
        }
      ],
      "stateMutability": "view",
      "type": "function"
    },
    {
      "inputs": [
        {
          "internalType": "bytes32",
          "name": "role",
          "type": "bytes32"
        }
      ],
      "name": "getRoleAdmin",
      "outputs": [
        {
          "internalType": "bytes32",
          "name": "",
          "type": "bytes32"
        }
      ],
      "stateMutability": "view",
      "type": "function"
    },
    {
      "inputs": [],
      "name": "getUSDBalance",
      "outputs": [
        {
          "internalType": "uint256",
          "name": "",
          "type": "uint256"
        }
      ],
      "stateMutability": "view",
      "type": "function"
    },
    {
      "inputs": [
        {
          "internalType": "address",
          "name": "_account",
          "type": "address"
        }
      ],
      "name": "grantControllerRoleByMarketManager",
      "outputs": [],
      "stateMutability": "nonpayable",
      "type": "function"
    },
    {
      "inputs": [
        {
          "internalType": "bytes32",
          "name": "role",
          "type": "bytes32"
        },
        {
          "internalType": "address",
          "name": "account",
          "type": "address"
        }
      ],
      "name": "grantRole",
      "outputs": [],
      "stateMutability": "nonpayable",
      "type": "function"
    },
    {
      "inputs": [
        {
          "internalType": "bytes32",
          "name": "role",
          "type": "bytes32"
        },
        {
          "internalType": "address",
          "name": "account",
          "type": "address"
        }
      ],
      "name": "hasRole",
      "outputs": [
        {
          "internalType": "bool",
          "name": "",
          "type": "bool"
        }
      ],
      "stateMutability": "view",
      "type": "function"
    },
    {
      "inputs": [
        {
          "internalType": "address",
          "name": "_coreVault",
          "type": "address"
        },
        {
          "internalType": "address",
          "name": "_vaultRouter",
          "type": "address"
        },
        {
          "internalType": "address",
          "name": "_feeRouter",
          "type": "address"
        },
        {
          "internalType": "address",
          "name": "_distributor",
          "type": "address"
        }
      ],
      "name": "initialize",
      "outputs": [],
      "stateMutability": "nonpayable",
      "type": "function"
    },
    {
      "inputs": [
        {
          "internalType": "address",
          "name": "",
          "type": "address"
        }
      ],
      "name": "lpEarnedRewards",
      "outputs": [
        {
          "internalType": "uint256",
          "name": "",
          "type": "uint256"
        }
      ],
      "stateMutability": "view",
      "type": "function"
    },
    {
      "inputs": [],
      "name": "owner",
      "outputs": [
        {
          "internalType": "address",
          "name": "",
          "type": "address"
        }
      ],
      "stateMutability": "view",
      "type": "function"
    },
    {
      "inputs": [],
      "name": "pendingRewards",
      "outputs": [
        {
          "internalType": "uint256",
          "name": "",
          "type": "uint256"
        }
      ],
      "stateMutability": "view",
      "type": "function"
    },
    {
      "inputs": [
        {
          "internalType": "uint256",
          "name": "assets",
          "type": "uint256"
        }
      ],
      "name": "previewDeposit",
      "outputs": [
        {
          "internalType": "uint256",
          "name": "",
          "type": "uint256"
        }
      ],
      "stateMutability": "view",
      "type": "function"
    },
    {
      "inputs": [
        {
          "internalType": "uint256",
          "name": "shares",
          "type": "uint256"
        }
      ],
      "name": "previewMint",
      "outputs": [
        {
          "internalType": "uint256",
          "name": "",
          "type": "uint256"
        }
      ],
      "stateMutability": "view",
      "type": "function"
    },
    {
      "inputs": [
        {
          "internalType": "uint256",
          "name": "shares",
          "type": "uint256"
        }
      ],
      "name": "previewRedeem",
      "outputs": [
        {
          "internalType": "uint256",
          "name": "",
          "type": "uint256"
        }
      ],
      "stateMutability": "view",
      "type": "function"
    },
    {
      "inputs": [
        {
          "internalType": "uint256",
          "name": "assets",
          "type": "uint256"
        }
      ],
      "name": "previewWithdraw",
      "outputs": [
        {
          "internalType": "uint256",
          "name": "",
          "type": "uint256"
        }
      ],
      "stateMutability": "view",
      "type": "function"
    },
    {
      "inputs": [
        {
          "internalType": "address",
          "name": "",
          "type": "address"
        }
      ],
      "name": "previousCumulatedRewardPerToken",
      "outputs": [
        {
          "internalType": "uint256",
          "name": "",
          "type": "uint256"
        }
      ],
      "stateMutability": "view",
      "type": "function"
    },
    {
      "inputs": [],
      "name": "priceDecimals",
      "outputs": [
        {
          "internalType": "uint256",
          "name": "",
          "type": "uint256"
        }
      ],
      "stateMutability": "view",
      "type": "function"
    },
    {
      "inputs": [],
      "name": "renounceOwnership",
      "outputs": [],
      "stateMutability": "nonpayable",
      "type": "function"
    },
    {
      "inputs": [
        {
          "internalType": "bytes32",
          "name": "",
          "type": "bytes32"
        },
        {
          "internalType": "address",
          "name": "",
          "type": "address"
        }
      ],
      "name": "renounceRole",
      "outputs": [],
      "stateMutability": "nonpayable",
      "type": "function"
    },
    {
      "inputs": [
        {
          "internalType": "bytes32",
          "name": "role",
          "type": "bytes32"
        },
        {
          "internalType": "address",
          "name": "account",
          "type": "address"
        }
      ],
      "name": "revokeRole",
      "outputs": [],
      "stateMutability": "nonpayable",
      "type": "function"
    },
    {
      "inputs": [],
      "name": "rewardToken",
      "outputs": [
        {
          "internalType": "address",
          "name": "",
          "type": "address"
        }
      ],
      "stateMutability": "view",
      "type": "function"
    },
    {
      "inputs": [
        {
          "internalType": "contract IERC4626",
          "name": "vault",
          "type": "address"
        },
        {
          "internalType": "address",
          "name": "to",
          "type": "address"
        },
        {
          "internalType": "uint256",
          "name": "shares",
          "type": "uint256"
        },
        {
          "internalType": "uint256",
          "name": "minAssetsOut",
          "type": "uint256"
        }
      ],
      "name": "sell",
      "outputs": [
        {
          "internalType": "uint256",
          "name": "assetOut",
          "type": "uint256"
        }
      ],
      "stateMutability": "nonpayable",
      "type": "function"
    },
    {
      "inputs": [
        {
          "internalType": "contract ICoreVault",
          "name": "vault",
          "type": "address"
        }
      ],
      "name": "sellLpFee",
      "outputs": [
        {
          "internalType": "uint256",
          "name": "",
          "type": "uint256"
        }
      ],
      "stateMutability": "view",
      "type": "function"
    },
    {
      "inputs": [
        {
          "internalType": "uint256",
          "name": "_apr",
          "type": "uint256"
        }
      ],
      "name": "setAPR",
      "outputs": [],
      "stateMutability": "nonpayable",
      "type": "function"
    },
    {
      "inputs": [
        {
          "internalType": "bytes4",
          "name": "interfaceId",
          "type": "bytes4"
        }
      ],
      "name": "supportsInterface",
      "outputs": [
        {
          "internalType": "bool",
          "name": "",
          "type": "bool"
        }
      ],
      "stateMutability": "view",
      "type": "function"
    },
    {
      "inputs": [],
      "name": "tokensPerInterval",
      "outputs": [
        {
          "internalType": "uint256",
          "name": "",
          "type": "uint256"
        }
      ],
      "stateMutability": "view",
      "type": "function"
    },
    {
      "inputs": [
        {
          "internalType": "address",
          "name": "to",
          "type": "address"
        }
      ],
      "name": "transferAdmin",
      "outputs": [],
      "stateMutability": "nonpayable",
      "type": "function"
    },
    {
      "inputs": [
        {
          "internalType": "address",
          "name": "newOwner",
          "type": "address"
        }
      ],
      "name": "transferOwnership",
      "outputs": [],
      "stateMutability": "nonpayable",
      "type": "function"
    },
    {
      "inputs": [],
      "name": "updateRewards",
      "outputs": [],
      "stateMutability": "nonpayable",
      "type": "function"
    },
    {
      "inputs": [
        {
          "internalType": "address",
          "name": "_account",
          "type": "address"
        }
      ],
      "name": "updateRewardsByAccount",
      "outputs": [],
      "stateMutability": "nonpayable",
      "type": "function"
    },
    {
      "inputs": [],
      "name": "vaultRouter",
      "outputs": [
        {
          "internalType": "contract IVaultRouter",
          "name": "",
          "type": "address"
        }
      ],
      "stateMutability": "view",
      "type": "function"
    }
  ],
  "bytecode": {
    "object": "0x608060405234801561001057600080fd5b5061001a33610024565b6001600355610076565b600180546001600160a01b038381166001600160a01b0319831681179093556040519116919082907f8be0079c531659141344cd1fd0a4f28419497f9722a3daafe3b4186f6b6457e090600090a35050565b61230a806100856000396000f3fe608060405234801561001057600080fd5b50600436106102955760003560e01c8063a318021711610167578063d53b26ee116100ce578063ef8b30f711610087578063ef8b30f714610592578063f29ebf61146105a5578063f2fde38b146105b8578063f5fc5076146105cb578063f7c618c1146105d4578063f8c8765e146105dc57600080fd5b8063d53b26ee14610529578063d547741f1461053c578063e547bb911461054f578063e950342514610557578063eb4fe81814610577578063eded3fda1461058a57600080fd5b8063b3d7f6b911610120578063b3d7f6b9146104d8578063b77905ae146104eb578063bfe10928146104f3578063c120105414610506578063c89d5b8b1461050e578063d37c441c1461051657600080fd5b8063a318021714610456578063a8d9362714610476578063a9d424e21461047e578063aaf5eb6814610491578063ae8bcdf8146104a5578063afd6a5cc146104c557600080fd5b80634cdad5061161020b5780637fe4a698116101c45780637fe4a698146103fc578063854303cf1461040f5780638da5cb5b146104225780638f089d651461043357806391d148541461043b578063a217fddf1461044e57600080fd5b80634cdad5061461039257806357ded9c9146103a5578063674ce1b5146103ae5780636dc7b0a1146103d9578063715018a6146103e157806375829def146103e957600080fd5b80632f2ff15d1161025d5780632f2ff15d1461032357806331de7d151461033657806336568abe146103495780633e158b0c14610357578063402914f51461035f57806344a084111461037257600080fd5b806301ffc9a71461029a57806305300b28146102c25780630a28a477146102d85780631ee2b0b2146102eb578063248a9ca314610300575b600080fd5b6102ad6102a8366004611ea5565b6105ef565b60405190151581526020015b60405180910390f35b6102ca610626565b6040519081526020016102b9565b6102ca6102e6366004611ecf565b610698565b6102fe6102f9366004611efd565b610707565b005b6102ca61030e366004611ecf565b60009081526020819052604090206001015490565b6102fe610331366004611f1a565b610a00565b6102ca610344366004611f4a565b610a2a565b6102fe610295366004611f1a565b6102fe610b10565b6102ca61036d366004611efd565b610b2e565b6102ca610380366004611efd565b600a6020526000908152604090205481565b6102ca6103a0366004611ecf565b610ced565b6102ca60095481565b6005546103c1906001600160a01b031681565b6040516001600160a01b0390911681526020016102b9565b6102ca610d1f565b6102fe610d69565b6102fe6103f7366004611efd565b610d7b565b6102fe61040a366004611efd565b610def565b6102fe61041d366004611ecf565b610e19565b6001546001600160a01b03166103c1565b6102ca610e49565b6102ad610449366004611f1a565b610e8b565b6102ca600081565b6102ca610464366004611efd565b600d6020526000908152604090205481565b6102ca610eb4565b6102ca61048c366004611f4a565b610efe565b6102ca6c0c9f2c9cd04674edea4000000081565b6102ca6104b3366004611efd565b600b6020526000908152604090205481565b6102ca6104d3366004611efd565b6110ba565b6102ca6104e6366004611ecf565b6110f4565b6102ca611126565b6008546103c1906001600160a01b031681565b6102ca61127a565b6009546102ca565b6006546103c1906001600160a01b031681565b6102ca610537366004611efd565b6112c4565b6102fe61054a366004611f1a565b611304565b6102ca611329565b6102ca610565366004611efd565b600c6020526000908152604090205481565b6102ca610585366004611efd565b61134b565b6102ca61138b565b6102ca6105a0366004611ecf565b611396565b6004546103c1906001600160a01b031681565b6102fe6105c6366004611efd565b6113c8565b6102ca60075481565b6103c1611441565b6102fe6105ea366004611f90565b6114af565b60006001600160e01b03198216637965db0b60e01b148061062057506301ffc9a760e01b6001600160e01b03198316145b92915050565b6006546040805162a6016560e31b815290516000926001600160a01b0316916305300b289160048083019260209291908290030181865afa15801561066f573d6000803e3d6000fd5b505050506040513d601f19601f820116820180604052508101906106939190611fec565b905090565b600554604051630a28a47760e01b8152600481018390526000916001600160a01b031690630a28a477906024015b602060405180830381865afa1580156106e3573d6000803e3d6000fd5b505050506040513d601f19601f820116820180604052508101906106209190611fec565b6008546040805163e4fc6b6d60e01b815290516000926001600160a01b03169163e4fc6b6d916004808301926020929190829003018187875af1158015610752573d6000803e3d6000fd5b505050506040513d601f19601f820116820180604052508101906107769190611fec565b90506000600560009054906101000a90046001600160a01b03166001600160a01b03166318160ddd6040518163ffffffff1660e01b8152600401602060405180830381865afa1580156107cd573d6000803e3d6000fd5b505050506040513d601f19601f820116820180604052508101906107f19190611fec565b60075490915081158015906108065750600083115b1561087957816108236c0c9f2c9cd04674edea400000008561201b565b61082d9190612032565b6108379082612054565b600781905560408051848152602081018390529192507f055418cabed8a0ec732dd9b1f84e69d3f33a8f9a70d721b7a6962a00c26a4572910160405180910390a15b806000036108875750505050565b6001600160a01b038416156109fa5760006108a185611672565b6001600160a01b0386166000908152600a6020526040812054919250906c0c9f2c9cd04674edea40000000906108d79085612067565b6108e1908461201b565b6108eb9190612032565b6001600160a01b0387166000908152600c602052604081205491925090610913908390612054565b6001600160a01b0388166000908152600c60209081526040808320849055600a9091529020859055905080158015906109545750600061095288611672565b115b156109f6576001600160a01b0387166000908152600b602052604081205461097d908490612054565b90506109d06109968261099087876116a5565b906116b8565b6001600160a01b038a166000908152600b6020908152604080832054600d909252909120546109ca918591610990916116a5565b906116c4565b6001600160a01b0389166000908152600d6020908152604080832093909355600b905220555b5050505b50505050565b600082815260208190526040902060010154610a1b816116d0565b610a2583836116da565b505050565b6000610a3461175e565b610a3d33610707565b604051635d043b2960e11b8152600481018490526001600160a01b0385811660248301819052604483015283919087169063ba087652906064016020604051808303816000875af1158015610a96573d6000803e3d6000fd5b505050506040513d601f19601f82011682018060405250810190610aba9190611fec565b9150811015610afe5760405162461bcd60e51b815260206004820152600b60248201526a26b4b727baba22b93937b960a91b60448201526064015b60405180910390fd5b610b086001600355565b949350505050565b610b1861175e565b610b226000610707565b610b2c6001600355565b565b600080610b3a83611672565b905080600003610b615750506001600160a01b03166000908152600c602052604090205490565b600554604080516318160ddd60e01b815290516000926001600160a01b0316916318160ddd9160048083019260209291908290030181865afa158015610bab573d6000803e3d6000fd5b505050506040513d601f19601f82011682018060405250810190610bcf9190611fec565b90506000610c616c0c9f2c9cd04674edea40000000600860009054906101000a90046001600160a01b03166001600160a01b031663eded3fda6040518163ffffffff1660e01b8152600401602060405180830381865afa158015610c37573d6000803e3d6000fd5b505050506040513d601f19601f82011682018060405250810190610c5b9190611fec565b906116a5565b90506000610c7b610c7283856116b8565b600754906116c4565b6001600160a01b0387166000908152600a6020526040902054909150610ce390610cc4906c0c9f2c9cd04674edea400000009061099090610cbd9086906117b7565b88906116a5565b6001600160a01b0388166000908152600c6020526040902054906116c4565b9695505050505050565b60055460405163266d6a8360e11b8152600481018390526000916001600160a01b031690634cdad506906024016106c6565b60065460408051636dc7b0a160e01b815290516000926001600160a01b031691636dc7b0a19160048083019260209291908290030181865afa15801561066f573d6000803e3d6000fd5b610d716117c3565b610b2c600061181d565b6000610d86816116d0565b6001600160a01b038216610dcc5760405162461bcd60e51b815260206004820152600d60248201526c217a65726f206164647265737360981b6044820152606401610af5565b610dd760008361186f565b610de08261181d565b610deb600033611879565b5050565b7f8d1089725c0dc266707fa6207730fb801dcd03108bfed7a21099bd303651d2b7610295816116d0565b7fcb6bc1c12dd43bca8d7dd46d975f913325437d0dcd5978e99d515e4ad39b9772610e43816116d0565b50600955565b336000908152600b60205260408120548103610e655750600090565b336000908152600c6020908152604080832054600b909252909120546106939190612067565b6000918252602082815260408084206001600160a01b0393909316845291905290205460ff1690565b6008546040805163a8d9362760e01b815290516000926001600160a01b03169163a8d936279160048083019260209291908290030181865afa15801561066f573d6000803e3d6000fd5b6000610f0861175e565b610f1133610707565b6000856001600160a01b03166338d52e0f6040518163ffffffff1660e01b8152600401602060405180830381865afa158015610f51573d6000803e3d6000fd5b505050506040513d601f19601f82011682018060405250810190610f75919061207a565b9050610f83813330876118de565b60405163095ea7b360e01b81526001600160a01b0387811660048301526024820186905282169063095ea7b3906044016020604051808303816000875af1158015610fd2573d6000803e3d6000fd5b505050506040513d601f19601f82011682018060405250810190610ff69190612097565b50604051636e553f6560e01b8152600481018590526001600160a01b038681166024830152849190881690636e553f65906044016020604051808303816000875af1158015611049573d6000803e3d6000fd5b505050506040513d601f19601f8201168201806040525081019061106d9190611fec565b92508210156110af5760405162461bcd60e51b815260206004820152600e60248201526d26b4b729b430b932b9a2b93937b960911b6044820152606401610af5565b50610b086001600355565b60006110e57fcb58d6d985142a614029cdf01861b4fe094d5919a47e69b8310dc4093d9d6ad06116d0565b6110ee82611949565b50919050565b60055460405163b3d7f6b960e01b8152600481018390526000916001600160a01b03169063b3d7f6b9906024016106c6565b600080600560009054906101000a90046001600160a01b03166001600160a01b03166301e1d1146040518163ffffffff1660e01b8152600401602060405180830381865afa15801561117c573d6000803e3d6000fd5b505050506040513d601f19601f820116820180604052508101906111a09190611fec565b90506000600560009054906101000a90046001600160a01b03166001600160a01b03166318160ddd6040518163ffffffff1660e01b8152600401602060405180830381865afa1580156111f7573d6000803e3d6000fd5b505050506040513d601f19601f8201168201806040525081019061121b9190611fec565b9050811580611228575080155b1561125257611235610626565b61124090600a61219d565b61124b90600161201b565b9250505090565b8061125b610626565b61126690600a61219d565b611270908461201b565b61124b9190612032565b60065460408051633048041560e21b815290516000926001600160a01b03169163c12010549160048083019260209291908290030181865afa15801561066f573d6000803e3d6000fd5b6000816001600160a01b0316636fd3acb46040518163ffffffff1660e01b8152600401602060405180830381865afa1580156106e3573d6000803e3d6000fd5b60008281526020819052604090206001015461131f816116d0565b610a258383611879565b600061133361175e565b61133c33611949565b90506113486001600355565b90565b6000816001600160a01b031663c7b8b46d6040518163ffffffff1660e01b8152600401602060405180830381865afa1580156106e3573d6000803e3d6000fd5b600061069333610b2e565b60055460405163ef8b30f760e01b8152600481018390526000916001600160a01b03169063ef8b30f7906024016106c6565b6113d06117c3565b6001600160a01b0381166114355760405162461bcd60e51b815260206004820152602660248201527f4f776e61626c653a206e6577206f776e657220697320746865207a65726f206160448201526564647265737360d01b6064820152608401610af5565b61143e8161181d565b50565b600554604080516338d52e0f60e01b815290516000926001600160a01b0316916338d52e0f9160048083019260209291908290030181865afa15801561148b573d6000803e3d6000fd5b505050506040513d601f19601f82011682018060405250810190610693919061207a565b600154600160a81b900460ff16158080156114d5575060018054600160a01b900460ff16105b806114f55750303b1580156114f5575060018054600160a01b900460ff16145b6115585760405162461bcd60e51b815260206004820152602e60248201527f496e697469616c697a61626c653a20636f6e747261637420697320616c72656160448201526d191e481a5b9a5d1a585b1a5e995960921b6064820152608401610af5565b6001805460ff60a01b1916600160a01b1790558015611585576001805460ff60a81b1916600160a81b1790555b6001600160a01b03851661159857600080fd5b6001600160a01b0384166115ab57600080fd5b6001600160a01b0383166115be57600080fd5b6001600160a01b0382166115d157600080fd5b6115da33611a53565b600680546001600160a01b038087166001600160a01b03199283161790925560058054888416908316179055600480548684169083161790556008805492851692909116919091179055801561166b576001805460ff60a81b191681556040519081527f7f26b83ff96e1f2b6a682f133852f6798a09c465da95921460cefb38474024989060200160405180910390a15b5050505050565b6005546040516370a0823160e01b81526001600160a01b03838116600483015260009216906370a08231906024016106c6565b60006116b1828461201b565b9392505050565b60006116b18284612032565b60006116b18284612054565b61143e8133611a76565b6116e48282610e8b565b610deb576000828152602081815260408083206001600160a01b03851684529091529020805460ff1916600117905561171a3390565b6001600160a01b0316816001600160a01b0316837f2f8788117e7eff1d82e926ec794901d17c78024a50270940304540a733656f0d60405160405180910390a45050565b6002600354036117b05760405162461bcd60e51b815260206004820152601f60248201527f5265656e7472616e637947756172643a207265656e7472616e742063616c6c006044820152606401610af5565b6002600355565b60006116b18284612067565b6001546001600160a01b03163314610b2c5760405162461bcd60e51b815260206004820181905260248201527f4f776e61626c653a2063616c6c6572206973206e6f7420746865206f776e65726044820152606401610af5565b600180546001600160a01b038381166001600160a01b0319831681179093556040519116919082907f8be0079c531659141344cd1fd0a4f28419497f9722a3daafe3b4186f6b6457e090600090a35050565b610deb82826116da565b6118838282610e8b565b15610deb576000828152602081815260408083206001600160a01b0385168085529252808320805460ff1916905551339285917ff6391f5c32d9c69d2a47ea670b442974b53935d1edc7fd64eb21e047a839171b9190a45050565b6040516001600160a01b03808516602483015283166044820152606481018290526109fa9085906323b872dd60e01b906084015b60408051601f198184030181529190526020810180516001600160e01b03166001600160e01b031990931692909217909152611acf565b6005546040516370a0823160e01b81526001600160a01b03838116600483015260009283929116906370a0823190602401602060405180830381865afa158015611997573d6000803e3d6000fd5b505050506040513d601f19601f820116820180604052508101906119bb9190611fec565b116119c857506000919050565b6119d182610707565b506001600160a01b0381166000908152600c602052604081208054919055611a0c82826119fc611441565b6001600160a01b03169190611ba4565b604080516001600160a01b0384168152602081018390527fc9695243a805adb74c91f28311176c65b417e842d5699893cef56d18bfa48cba910160405180910390a1919050565b42600255611a603361181d565b611a6b60003361186f565b61143e60008261186f565b611a808282610e8b565b610deb57611a8d81611bd4565b611a98836020611be6565b604051602001611aa99291906121cd565b60408051601f198184030181529082905262461bcd60e51b8252610af591600401612242565b6000611b24826040518060400160405280602081526020017f5361666545524332303a206c6f772d6c6576656c2063616c6c206661696c6564815250856001600160a01b0316611d829092919063ffffffff16565b9050805160001480611b45575080806020019051810190611b459190612097565b610a255760405162461bcd60e51b815260206004820152602a60248201527f5361666545524332303a204552433230206f7065726174696f6e20646964206e6044820152691bdd081cdd58d8d9595960b21b6064820152608401610af5565b6040516001600160a01b038316602482015260448101829052610a2590849063a9059cbb60e01b90606401611912565b60606106206001600160a01b03831660145b60606000611bf583600261201b565b611c00906002612054565b67ffffffffffffffff811115611c1857611c18612275565b6040519080825280601f01601f191660200182016040528015611c42576020820181803683370190505b509050600360fc1b81600081518110611c5d57611c5d61228b565b60200101906001600160f81b031916908160001a905350600f60fb1b81600181518110611c8c57611c8c61228b565b60200101906001600160f81b031916908160001a9053506000611cb084600261201b565b611cbb906001612054565b90505b6001811115611d33576f181899199a1a9b1b9c1cb0b131b232b360811b85600f1660108110611cef57611cef61228b565b1a60f81b828281518110611d0557611d0561228b565b60200101906001600160f81b031916908160001a90535060049490941c93611d2c816122a1565b9050611cbe565b5083156116b15760405162461bcd60e51b815260206004820181905260248201527f537472696e67733a20686578206c656e67746820696e73756666696369656e746044820152606401610af5565b6060610b08848460008585600080866001600160a01b03168587604051611da991906122b8565b60006040518083038185875af1925050503d8060008114611de6576040519150601f19603f3d011682016040523d82523d6000602084013e611deb565b606091505b5091509150611dfc87838387611e07565b979650505050505050565b60608315611e76578251600003611e6f576001600160a01b0385163b611e6f5760405162461bcd60e51b815260206004820152601d60248201527f416464726573733a2063616c6c20746f206e6f6e2d636f6e74726163740000006044820152606401610af5565b5081610b08565b610b088383815115611e8b5781518083602001fd5b8060405162461bcd60e51b8152600401610af59190612242565b600060208284031215611eb757600080fd5b81356001600160e01b0319811681146116b157600080fd5b600060208284031215611ee157600080fd5b5035919050565b6001600160a01b038116811461143e57600080fd5b600060208284031215611f0f57600080fd5b81356116b181611ee8565b60008060408385031215611f2d57600080fd5b823591506020830135611f3f81611ee8565b809150509250929050565b60008060008060808587031215611f6057600080fd5b8435611f6b81611ee8565b93506020850135611f7b81611ee8565b93969395505050506040820135916060013590565b60008060008060808587031215611fa657600080fd5b8435611fb181611ee8565b93506020850135611fc181611ee8565b92506040850135611fd181611ee8565b91506060850135611fe181611ee8565b939692955090935050565b600060208284031215611ffe57600080fd5b5051919050565b634e487b7160e01b600052601160045260246000fd5b808202811582820484141761062057610620612005565b60008261204f57634e487b7160e01b600052601260045260246000fd5b500490565b8082018082111561062057610620612005565b8181038181111561062057610620612005565b60006020828403121561208c57600080fd5b81516116b181611ee8565b6000602082840312156120a957600080fd5b815180151581146116b157600080fd5b600181815b808511156120f45781600019048211156120da576120da612005565b808516156120e757918102915b93841c93908002906120be565b509250929050565b60008261210b57506001610620565b8161211857506000610620565b816001811461212e576002811461213857612154565b6001915050610620565b60ff84111561214957612149612005565b50506001821b610620565b5060208310610133831016604e8410600b8410161715612177575081810a610620565b61218183836120b9565b806000190482111561219557612195612005565b029392505050565b60006116b183836120fc565b60005b838110156121c45781810151838201526020016121ac565b50506000910152565b7f416363657373436f6e74726f6c3a206163636f756e74200000000000000000008152600083516122058160178501602088016121a9565b7001034b99036b4b9b9b4b733903937b6329607d1b60179184019182015283516122368160288401602088016121a9565b01602801949350505050565b60208152600082518060208401526122618160408501602087016121a9565b601f01601f19169190910160400192915050565b634e487b7160e01b600052604160045260246000fd5b634e487b7160e01b600052603260045260246000fd5b6000816122b0576122b0612005565b506000190190565b600082516122ca8184602087016121a9565b919091019291505056fea26469706673582212208b1e52d7051e3c30e677f72fc8f1fdc739be1d30dfa56742f49f8ec34406245764736f6c63430008110033",
    "linkReferences": {}
  },
  "methodIdentifiers": {
    "DEFAULT_ADMIN_ROLE()": "a217fddf",
    "PRECISION()": "aaf5eb68",
    "apr()": "57ded9c9",
    "averageStakedAmounts(address)": "a3180217",
    "buy(address,address,uint256,uint256)": "a9d424e2",
    "buyLpFee(address)": "d53b26ee",
    "claimForAccount(address)": "afd6a5cc",
    "claimLPReward()": "e547bb91",
    "claimable(address)": "402914f5",
    "claimableReward(address)": "e9503425",
    "coreVault()": "674ce1b5",
    "cumulativeRewardPerToken()": "f5fc5076",
    "distributor()": "bfe10928",
    "feeRouter()": "f29ebf61",
    "getAPR()": "c89d5b8b",
    "getAUM()": "6dc7b0a1",
    "getLPPrice()": "b77905ae",
    "getLPReward()": "8f089d65",
    "getRoleAdmin(bytes32)": "248a9ca3",
    "getUSDBalance()": "c1201054",
    "grantControllerRoleByMarketManager(address)": "7fe4a698",
    "grantRole(bytes32,address)": "2f2ff15d",
    "hasRole(bytes32,address)": "91d14854",
    "initialize(address,address,address,address)": "f8c8765e",
    "lpEarnedRewards(address)": "ae8bcdf8",
    "owner()": "8da5cb5b",
    "pendingRewards()": "eded3fda",
    "previewDeposit(uint256)": "ef8b30f7",
    "previewMint(uint256)": "b3d7f6b9",
    "previewRedeem(uint256)": "4cdad506",
    "previewWithdraw(uint256)": "0a28a477",
    "previousCumulatedRewardPerToken(address)": "44a08411",
    "priceDecimals()": "05300b28",
    "renounceOwnership()": "715018a6",
    "renounceRole(bytes32,address)": "36568abe",
    "revokeRole(bytes32,address)": "d547741f",
    "rewardToken()": "f7c618c1",
    "sell(address,address,uint256,uint256)": "31de7d15",
    "sellLpFee(address)": "eb4fe818",
    "setAPR(uint256)": "854303cf",
    "supportsInterface(bytes4)": "01ffc9a7",
    "tokensPerInterval()": "a8d93627",
    "transferAdmin(address)": "75829def",
    "transferOwnership(address)": "f2fde38b",
    "updateRewards()": "3e158b0c",
    "updateRewardsByAccount(address)": "1ee2b0b2",
    "vaultRouter()": "d37c441c"
  },
  "id": 120
}