{
  "abi": [
    {
      "inputs": [],
      "stateMutability": "nonpayable",
      "type": "constructor"
    },
    {
      "anonymous": false,
      "inputs": [
        {
          "indexed": false,
          "internalType": "uint8",
          "name": "version",
          "type": "uint8"
        }
      ],
      "name": "Initialized",
      "type": "event"
    },
    {
      "anonymous": false,
      "inputs": [
        {
          "indexed": true,
          "internalType": "address",
          "name": "previousOwner",
          "type": "address"
        },
        {
          "indexed": true,
          "internalType": "address",
          "name": "newOwner",
          "type": "address"
        }
      ],
      "name": "OwnershipTransferred",
      "type": "event"
    },
    {
      "anonymous": false,
      "inputs": [
        {
          "indexed": true,
          "internalType": "bytes32",
          "name": "role",
          "type": "bytes32"
        },
        {
          "indexed": true,
          "internalType": "bytes32",
          "name": "previousAdminRole",
          "type": "bytes32"
        },
        {
          "indexed": true,
          "internalType": "bytes32",
          "name": "newAdminRole",
          "type": "bytes32"
        }
      ],
      "name": "RoleAdminChanged",
      "type": "event"
    },
    {
      "anonymous": false,
      "inputs": [
        {
          "indexed": true,
          "internalType": "bytes32",
          "name": "role",
          "type": "bytes32"
        },
        {
          "indexed": true,
          "internalType": "address",
          "name": "account",
          "type": "address"
        },
        {
          "indexed": true,
          "internalType": "address",
          "name": "sender",
          "type": "address"
        }
      ],
      "name": "RoleGranted",
      "type": "event"
    },
    {
      "anonymous": false,
      "inputs": [
        {
          "indexed": true,
          "internalType": "bytes32",
          "name": "role",
          "type": "bytes32"
        },
        {
          "indexed": true,
          "internalType": "address",
          "name": "account",
          "type": "address"
        },
        {
          "indexed": true,
          "internalType": "address",
          "name": "sender",
          "type": "address"
        }
      ],
      "name": "RoleRevoked",
      "type": "event"
    },
    {
      "inputs": [],
      "name": "BASIS_POINTS_DIVISOR",
      "outputs": [
        {
          "internalType": "uint256",
          "name": "",
          "type": "uint256"
        }
      ],
      "stateMutability": "view",
      "type": "function"
    },
    {
      "inputs": [],
      "name": "DEFAULT_ADMIN_ROLE",
      "outputs": [
        {
          "internalType": "bytes32",
          "name": "",
          "type": "bytes32"
        }
      ],
      "stateMutability": "view",
      "type": "function"
    },
    {
      "inputs": [],
      "name": "MAX_ADJUSTMENT_BASIS_POINTS",
      "outputs": [
        {
          "internalType": "uint256",
          "name": "",
          "type": "uint256"
        }
      ],
      "stateMutability": "view",
      "type": "function"
    },
    {
      "inputs": [],
      "name": "MAX_ADJUSTMENT_INTERVAL",
      "outputs": [
        {
          "internalType": "uint256",
          "name": "",
          "type": "uint256"
        }
      ],
      "stateMutability": "view",
      "type": "function"
    },
    {
      "inputs": [],
      "name": "MAX_SPREAD_BASIS_POINTS",
      "outputs": [
        {
          "internalType": "uint256",
          "name": "",
          "type": "uint256"
        }
      ],
      "stateMutability": "view",
      "type": "function"
    },
    {
      "inputs": [],
      "name": "ONE_USD",
      "outputs": [
        {
          "internalType": "uint256",
          "name": "",
          "type": "uint256"
        }
      ],
      "stateMutability": "view",
      "type": "function"
    },
    {
      "inputs": [],
      "name": "PRICE_PRECISION",
      "outputs": [
        {
          "internalType": "uint256",
          "name": "",
          "type": "uint256"
        }
      ],
      "stateMutability": "view",
      "type": "function"
    },
    {
      "inputs": [
        {
          "internalType": "address",
          "name": "",
          "type": "address"
        }
      ],
      "name": "adjustmentBasisPoints",
      "outputs": [
        {
          "internalType": "uint256",
          "name": "",
          "type": "uint256"
        }
      ],
      "stateMutability": "view",
      "type": "function"
    },
    {
      "inputs": [],
      "name": "chainPriceFeed",
      "outputs": [
        {
          "internalType": "address",
          "name": "",
          "type": "address"
        }
      ],
      "stateMutability": "view",
      "type": "function"
    },
    {
      "inputs": [],
      "name": "fastPriceFeed",
      "outputs": [
        {
          "internalType": "address",
          "name": "",
          "type": "address"
        }
      ],
      "stateMutability": "view",
      "type": "function"
    },
    {
      "inputs": [
        {
          "internalType": "address",
          "name": "_token",
          "type": "address"
        },
        {
          "internalType": "bool",
          "name": "_maximise",
          "type": "bool"
        }
      ],
      "name": "getChainPrice",
      "outputs": [
        {
          "internalType": "uint256",
          "name": "",
          "type": "uint256"
        }
      ],
      "stateMutability": "view",
      "type": "function"
    },
    {
      "inputs": [
        {
          "internalType": "address",
          "name": "_token",
          "type": "address"
        },
        {
          "internalType": "uint256",
          "name": "_referencePrice",
          "type": "uint256"
        },
        {
          "internalType": "bool",
          "name": "_maximise",
          "type": "bool"
        }
      ],
      "name": "getFastPrice",
      "outputs": [
        {
          "internalType": "uint256",
          "name": "",
          "type": "uint256"
        }
      ],
      "stateMutability": "view",
      "type": "function"
    },
    {
      "inputs": [
        {
          "internalType": "address",
          "name": "_token",
          "type": "address"
        },
        {
          "internalType": "bool",
          "name": "_maximise",
          "type": "bool"
        }
      ],
      "name": "getGmxPrice",
      "outputs": [
        {
          "internalType": "uint256",
          "name": "",
          "type": "uint256"
        }
      ],
      "stateMutability": "view",
      "type": "function"
    },
    {
      "inputs": [
        {
          "internalType": "address",
          "name": "_token",
          "type": "address"
        },
        {
          "internalType": "bool",
          "name": "_maximise",
          "type": "bool"
        }
      ],
      "name": "getPrice",
      "outputs": [
        {
          "internalType": "uint256",
          "name": "",
          "type": "uint256"
        }
      ],
      "stateMutability": "view",
      "type": "function"
    },
    {
      "inputs": [
        {
          "internalType": "bytes32",
          "name": "role",
          "type": "bytes32"
        }
      ],
      "name": "getRoleAdmin",
      "outputs": [
        {
          "internalType": "bytes32",
          "name": "",
          "type": "bytes32"
        }
      ],
      "stateMutability": "view",
      "type": "function"
    },
    {
      "inputs": [],
      "name": "gmxPriceFeed",
      "outputs": [
        {
          "internalType": "address",
          "name": "",
          "type": "address"
        }
      ],
      "stateMutability": "view",
      "type": "function"
    },
    {
      "inputs": [
        {
          "internalType": "address",
          "name": "_account",
          "type": "address"
        }
      ],
      "name": "grantControllerRoleByMarketManager",
      "outputs": [],
      "stateMutability": "nonpayable",
      "type": "function"
    },
    {
      "inputs": [
        {
          "internalType": "bytes32",
          "name": "role",
          "type": "bytes32"
        },
        {
          "internalType": "address",
          "name": "account",
          "type": "address"
        }
      ],
      "name": "grantRole",
      "outputs": [],
      "stateMutability": "nonpayable",
      "type": "function"
    },
    {
      "inputs": [
        {
          "internalType": "bytes32",
          "name": "role",
          "type": "bytes32"
        },
        {
          "internalType": "address",
          "name": "account",
          "type": "address"
        }
      ],
      "name": "hasRole",
      "outputs": [
        {
          "internalType": "bool",
          "name": "",
          "type": "bool"
        }
      ],
      "stateMutability": "view",
      "type": "function"
    },
    {
      "inputs": [
        {
          "internalType": "address",
          "name": "",
          "type": "address"
        }
      ],
      "name": "isAdjustmentAdditive",
      "outputs": [
        {
          "internalType": "bool",
          "name": "",
          "type": "bool"
        }
      ],
      "stateMutability": "view",
      "type": "function"
    },
    {
      "inputs": [],
      "name": "isFastPriceEnabled",
      "outputs": [
        {
          "internalType": "bool",
          "name": "",
          "type": "bool"
        }
      ],
      "stateMutability": "view",
      "type": "function"
    },
    {
      "inputs": [],
      "name": "isGmxPriceEnabled",
      "outputs": [
        {
          "internalType": "bool",
          "name": "",
          "type": "bool"
        }
      ],
      "stateMutability": "view",
      "type": "function"
    },
    {
      "inputs": [
        {
          "internalType": "address",
          "name": "",
          "type": "address"
        }
      ],
      "name": "lastAdjustmentTimings",
      "outputs": [
        {
          "internalType": "uint256",
          "name": "",
          "type": "uint256"
        }
      ],
      "stateMutability": "view",
      "type": "function"
    },
    {
      "inputs": [],
      "name": "maxStrictPriceDeviation",
      "outputs": [
        {
          "internalType": "uint256",
          "name": "",
          "type": "uint256"
        }
      ],
      "stateMutability": "view",
      "type": "function"
    },
    {
      "inputs": [],
      "name": "owner",
      "outputs": [
        {
          "internalType": "address",
          "name": "",
          "type": "address"
        }
      ],
      "stateMutability": "view",
      "type": "function"
    },
    {
      "inputs": [],
      "name": "renounceOwnership",
      "outputs": [],
      "stateMutability": "nonpayable",
      "type": "function"
    },
    {
      "inputs": [
        {
          "internalType": "bytes32",
          "name": "",
          "type": "bytes32"
        },
        {
          "internalType": "address",
          "name": "",
          "type": "address"
        }
      ],
      "name": "renounceRole",
      "outputs": [],
      "stateMutability": "nonpayable",
      "type": "function"
    },
    {
      "inputs": [
        {
          "internalType": "bytes32",
          "name": "role",
          "type": "bytes32"
        },
        {
          "internalType": "address",
          "name": "account",
          "type": "address"
        }
      ],
      "name": "revokeRole",
      "outputs": [],
      "stateMutability": "nonpayable",
      "type": "function"
    },
    {
      "inputs": [
        {
          "internalType": "address",
          "name": "_token",
          "type": "address"
        },
        {
          "internalType": "bool",
          "name": "_isAdditive",
          "type": "bool"
        },
        {
          "internalType": "uint256",
          "name": "_adjustmentBps",
          "type": "uint256"
        }
      ],
      "name": "setAdjustment",
      "outputs": [],
      "stateMutability": "nonpayable",
      "type": "function"
    },
    {
      "inputs": [
        {
          "internalType": "address",
          "name": "_feed",
          "type": "address"
        }
      ],
      "name": "setChainPriceFeed",
      "outputs": [],
      "stateMutability": "nonpayable",
      "type": "function"
    },
    {
      "inputs": [
        {
          "internalType": "bool",
          "name": "_isEnabled",
          "type": "bool"
        }
      ],
      "name": "setFastPriceEnabled",
      "outputs": [],
      "stateMutability": "nonpayable",
      "type": "function"
    },
    {
      "inputs": [
        {
          "internalType": "address",
          "name": "_feed",
          "type": "address"
        }
      ],
      "name": "setFastPriceFeed",
      "outputs": [],
      "stateMutability": "nonpayable",
      "type": "function"
    },
    {
      "inputs": [
        {
          "internalType": "address",
          "name": "feed",
          "type": "address"
        }
      ],
      "name": "setGmxPriceFeed",
      "outputs": [],
      "stateMutability": "nonpayable",
      "type": "function"
    },
    {
      "inputs": [
        {
          "internalType": "bool",
          "name": "enable",
          "type": "bool"
        }
      ],
      "name": "setIsGmxPriceEnabled",
      "outputs": [],
      "stateMutability": "nonpayable",
      "type": "function"
    },
    {
      "inputs": [
        {
          "internalType": "uint256",
          "name": "_maxStrictPriceDeviation",
          "type": "uint256"
        }
      ],
      "name": "setMaxStrictPriceDeviation",
      "outputs": [],
      "stateMutability": "nonpayable",
      "type": "function"
    },
    {
      "inputs": [
        {
          "internalType": "address",
          "name": "_token",
          "type": "address"
        },
        {
          "internalType": "uint256",
          "name": "_spreadBasisPoints",
          "type": "uint256"
        }
      ],
      "name": "setSpreadBasisPoints",
      "outputs": [],
      "stateMutability": "nonpayable",
      "type": "function"
    },
    {
      "inputs": [
        {
          "internalType": "address",
          "name": "_token",
          "type": "address"
        },
        {
          "internalType": "bool",
          "name": "_stable",
          "type": "bool"
        }
      ],
      "name": "setStableTokens",
      "outputs": [],
      "stateMutability": "nonpayable",
      "type": "function"
    },
    {
      "inputs": [
        {
          "internalType": "address",
          "name": "",
          "type": "address"
        }
      ],
      "name": "spreadBasisPoints",
      "outputs": [
        {
          "internalType": "uint256",
          "name": "",
          "type": "uint256"
        }
      ],
      "stateMutability": "view",
      "type": "function"
    },
    {
      "inputs": [],
      "name": "spreadThresholdBasisPoints",
      "outputs": [
        {
          "internalType": "uint256",
          "name": "",
          "type": "uint256"
        }
      ],
      "stateMutability": "view",
      "type": "function"
    },
    {
      "inputs": [
        {
          "internalType": "address",
          "name": "",
          "type": "address"
        }
      ],
      "name": "strictStableTokens",
      "outputs": [
        {
          "internalType": "bool",
          "name": "",
          "type": "bool"
        }
      ],
      "stateMutability": "view",
      "type": "function"
    },
    {
      "inputs": [
        {
          "internalType": "bytes4",
          "name": "interfaceId",
          "type": "bytes4"
        }
      ],
      "name": "supportsInterface",
      "outputs": [
        {
          "internalType": "bool",
          "name": "",
          "type": "bool"
        }
      ],
      "stateMutability": "view",
      "type": "function"
    },
    {
      "inputs": [
        {
          "internalType": "address",
          "name": "to",
          "type": "address"
        }
      ],
      "name": "transferAdmin",
      "outputs": [],
      "stateMutability": "nonpayable",
      "type": "function"
    },
    {
      "inputs": [
        {
          "internalType": "address",
          "name": "newOwner",
          "type": "address"
        }
      ],
      "name": "transferOwnership",
      "outputs": [],
      "stateMutability": "nonpayable",
      "type": "function"
    }
  ],
  "bytecode": {
    "object": "0x60806040526000600355601e6004553480156200001b57600080fd5b5033620000288162000045565b6200003e816200009760201b6200103c1760201c565b5062000173565b600180546001600160a01b038381166001600160a01b0319831681179093556040519116919082907f8be0079c531659141344cd1fd0a4f28419497f9722a3daafe3b4186f6b6457e090600090a35050565b42600255620000a63362000045565b620000b3600033620000c3565b620000c0600082620000c3565b50565b620000cf8282620000d3565b5050565b6000828152602081815260408083206001600160a01b038516845290915290205460ff16620000cf576000828152602081815260408083206001600160a01b03851684529091529020805460ff191660011790556200012f3390565b6001600160a01b0316816001600160a01b0316837f2f8788117e7eff1d82e926ec794901d17c78024a50270940304540a733656f0d60405160405180910390a45050565b6119a080620001836000396000f3fe608060405234801561001057600080fd5b50600436106102695760003560e01c806375829def11610151578063a217fddf116100c3578063b8f6110511610087578063b8f6110514610542578063d547741f14610565578063d694376c14610578578063f2fde38b1461058b578063fc437c031461059e578063fe90cc0e146105b157600080fd5b8063a217fddf146104eb578063a27ea386146104f3578063a39c73a314610513578063add37b7b1461051c578063b51de18e1461052f57600080fd5b80638da5cb5b116101155780638da5cb5b1461049857806391d14854146104a957806395082d25146103e15780639b18dc47146104bc5780639b889380146104c5578063a14316be146104d857600080fd5b806375829def1461043f57806376d6976014610452578063791accfe146104655780637fe4a69814610478578063830a27ac1461048b57600080fd5b806333206f19116101ea5780634a4b1f4f116101ae5780634a4b1f4f146103c657806361e4ca78146103ce57806367781c0e146103e15780636ce8a44b146103f4578063715018a614610417578063717cfe7a1461041f57600080fd5b806333206f191461034b57806336568abe1461035e578063378e7bf71461036c5780633a849c211461037557806348cac277146103a657600080fd5b80631706c08c116102315780631706c08c146102dd578063171e7721146102ef578063248a9ca3146103025780632f2ff15d146103255780632fbfe3d31461033857600080fd5b806301ffc9a71461026e5780630957aed914610296578063104c2f1a146102ac578063126082cf146102c157806314b7a451146102ca575b600080fd5b61028161027c3660046115c2565b6105c4565b60405190151581526020015b60405180910390f35b61029e603281565b60405190815260200161028d565b6102bf6102ba366004611608565b6105fb565b005b61029e61271081565b6102bf6102d8366004611633565b6106af565b60055461028190610100900460ff1681565b6102bf6102fd366004611608565b610725565b61029e61031036600461164e565b60009081526020819052604090206001015490565b6102bf610333366004611667565b6107d8565b6102bf61034636600461164e565b610802565b6102bf610359366004611608565b61086a565b6102bf610269366004611667565b61029e60035481565b60055461038e906201000090046001600160a01b031681565b6040516001600160a01b03909116815260200161028d565b61029e6103b4366004611608565b600a6020526000908152604090205481565b61029e601481565b61029e6103dc366004611693565b610915565b61029e68327cb2734119d3b7a9601e1b81565b610281610402366004611608565b600b6020526000908152604090205460ff1681565b6102bf6109c3565b61029e61042d366004611608565b600c6020526000908152604090205481565b6102bf61044d366004611608565b6109d7565b61029e6104603660046116cf565b610a4b565b6102bf610473366004611633565b610ada565b6102bf610486366004611608565b610b57565b6005546102819060ff1681565b6001546001600160a01b031661038e565b6102816104b7366004611667565b610b81565b61029e611c2081565b6102bf6104d33660046116f9565b610baa565b61029e6104e63660046116cf565b610c88565b61029e600081565b61029e610501366004611608565b60086020526000908152604090205481565b61029e60045481565b60065461038e906001600160a01b031681565b60075461038e906001600160a01b031681565b610281610550366004611608565b60096020526000908152604090205460ff1681565b6102bf610573366004611667565b610d50565b6102bf610586366004611723565b610d75565b6102bf610599366004611608565b610eec565b6102bf6105ac3660046116cf565b610f65565b61029e6105bf3660046116cf565b610ff3565b60006001600160e01b03198216637965db0b60e01b14806105f557506301ffc9a760e01b6001600160e01b03198316145b92915050565b60008051602061194b83398151915260006106168133610b81565b9050801561065b5762015180600254426106309190611775565b106106565760405162461bcd60e51b815260040161064d90611788565b60405180910390fd5b610665565b610665823361105f565b6001600160a01b03831661068b5760405162461bcd60e51b815260040161064d906117b0565b5050600780546001600160a01b0319166001600160a01b0392909216919091179055565b60008051602061194b83398151915260006106ca8133610b81565b905080156107065762015180600254426106e49190611775565b106107015760405162461bcd60e51b815260040161064d90611788565b610710565b610710823361105f565b50506005805460ff1916911515919091179055565b60008051602061194b83398151915260006107408133610b81565b9050801561077c57620151806002544261075a9190611775565b106107775760405162461bcd60e51b815260040161064d90611788565b610786565b610786823361105f565b6001600160a01b0383166107ac5760405162461bcd60e51b815260040161064d906117b0565b5050600580546001600160a01b03909216620100000262010000600160b01b0319909216919091179055565b6000828152602081905260409020600101546107f3816110b8565b6107fd83836110c2565b505050565b60008051602061194b833981519152600061081d8133610b81565b905080156108595762015180600254426108379190611775565b106108545760405162461bcd60e51b815260040161064d90611788565b610863565b610863823361105f565b5050600355565b60008051602061194b83398151915260006108858133610b81565b905080156108c157620151806002544261089f9190611775565b106108bc5760405162461bcd60e51b815260040161064d90611788565b6108cb565b6108cb823361105f565b6001600160a01b0383166108f15760405162461bcd60e51b815260040161064d906117b0565b5050600680546001600160a01b0319166001600160a01b0392909216919091179055565b6005546000906201000090046001600160a01b03166109355750816109bc565b600554604051630ffd9c6d60e31b81526001600160a01b0386811660048301526024820186905284151560448301526201000090920490911690637fece36890606401602060405180830381865afa158015610995573d6000803e3d6000fd5b505050506040513d601f19601f820116820180604052508101906109b991906117d6565b90505b9392505050565b6109cb611146565b6109d560006111a0565b565b60006109e2816110b8565b6001600160a01b038216610a285760405162461bcd60e51b815260206004820152600d60248201526c217a65726f206164647265737360981b604482015260640161064d565b610a336000836111f2565b610a3c826111a0565b610a476000336111fc565b5050565b600080610a588484611261565b6001600160a01b0385166000908152600a60205260409020549091508015610ad2576001600160a01b0385166000908152600b602052604090205460ff1615610ac557612710610aa882826117ef565b610ab29084611802565b610abc9190611819565b925050506105f5565b612710610aa88282611775565b509392505050565b60008051602061194b8339815191526000610af58133610b81565b90508015610b31576201518060025442610b0f9190611775565b10610b2c5760405162461bcd60e51b815260040161064d90611788565b610b3b565b610b3b823361105f565b5050600580549115156101000261ff0019909216919091179055565b7f8d1089725c0dc266707fa6207730fb801dcd03108bfed7a21099bd303651d2b7610269816110b8565b6000918252602082815260408084206001600160a01b0393909316845291905290205460ff1690565b60008051602061194b8339815191526000610bc58133610b81565b90508015610c01576201518060025442610bdf9190611775565b10610bfc5760405162461bcd60e51b815260040161064d90611788565b610c0b565b610c0b823361105f565b6032831115610c6a5760405162461bcd60e51b815260206004820152602560248201527f5072696365466565643a20696e76616c6964205f7370726561644261736973506044820152646f696e747360d81b606482015260840161064d565b50506001600160a01b03909116600090815260086020526040902055565b6006546000906001600160a01b0316610cd95760405162461bcd60e51b8152602060048201526013602482015272636861696e507269636546656564207a65726f60681b604482015260640161064d565b6006546040516303b6b4bb60e51b81526001600160a01b0385811660048301528415156024830152909116906376d69760906044015b602060405180830381865afa158015610d2c573d6000803e3d6000fd5b505050506040513d601f19601f820116820180604052508101906109bc91906117d6565b600082815260208190526040902060010154610d6b816110b8565b6107fd83836111fc565b60008051602061194b8339815191526000610d908133610b81565b90508015610dcc576201518060025442610daa9190611775565b10610dc75760405162461bcd60e51b815260040161064d90611788565b610dd6565b610dd6823361105f565b6001600160a01b0385166000908152600c60205260409020544290610dfe90611c20906117ef565b10610e5c5760405162461bcd60e51b815260206004820152602860248201527f5072696365466565643a2061646a7573746d656e74206672657175656e637920604482015267195e18d95959195960c21b606482015260840161064d565b6014831115610ea65760405162461bcd60e51b8152602060048201526016602482015275696e76616c6964205f61646a7573746d656e7442707360501b604482015260640161064d565b50506001600160a01b03929092166000908152600b60209081526040808320805460ff191694151594909417909355600a815282822093909355600c9092529020429055565b610ef4611146565b6001600160a01b038116610f595760405162461bcd60e51b815260206004820152602660248201527f4f776e61626c653a206e6577206f776e657220697320746865207a65726f206160448201526564647265737360d01b606482015260840161064d565b610f62816111a0565b50565b60008051602061194b8339815191526000610f808133610b81565b90508015610fbc576201518060025442610f9a9190611775565b10610fb75760405162461bcd60e51b815260040161064d90611788565b610fc6565b610fc6823361105f565b50506001600160a01b03919091166000908152600960205260409020805460ff1916911515919091179055565b6007546040516317e1d38560e11b81526001600160a01b038481166004830152831515602483015260006044830181905260648301819052921690632fc3a70a90608401610d0f565b42600255611049336111a0565b6110546000336111f2565b610f626000826111f2565b6110698282610b81565b610a475761107681611414565b611081836020611426565b60405160200161109292919061185f565b60408051601f198184030181529082905262461bcd60e51b825261064d916004016118d4565b610f62813361105f565b6110cc8282610b81565b610a47576000828152602081815260408083206001600160a01b03851684529091529020805460ff191660011790556111023390565b6001600160a01b0316816001600160a01b0316837f2f8788117e7eff1d82e926ec794901d17c78024a50270940304540a733656f0d60405160405180910390a45050565b6001546001600160a01b031633146109d55760405162461bcd60e51b815260206004820181905260248201527f4f776e61626c653a2063616c6c6572206973206e6f7420746865206f776e6572604482015260640161064d565b600180546001600160a01b038381166001600160a01b0319831681179093556040519116919082907f8be0079c531659141344cd1fd0a4f28419497f9722a3daafe3b4186f6b6457e090600090a35050565b610a4782826110c2565b6112068282610b81565b15610a47576000828152602081815260408083206001600160a01b0385168085529252808320805460ff1916905551339285917ff6391f5c32d9c69d2a47ea670b442974b53935d1edc7fd64eb21e047a839171b9190a45050565b60008061126e8484610c88565b60055490915060ff161561128a57611287848285610915565b90505b600554610100900460ff16156112d55760006112a68585610ff3565b90508380156112b457508181115b156112bd578091505b831580156112ca57508082115b156112d3578091505b505b6001600160a01b03841660009081526009602052604090205460ff16156113be57600068327cb2734119d3b7a9601e1b8211611326576113218268327cb2734119d3b7a9601e1b611775565b61133c565b61133c68327cb2734119d3b7a9601e1b83611775565b9050600354811161135d5768327cb2734119d3b7a9601e1b925050506105f5565b838015611375575068327cb2734119d3b7a9601e1b82115b15611382575090506105f5565b8315801561139b575068327cb2734119d3b7a9601e1b82105b156113a8575090506105f5565b68327cb2734119d3b7a9601e1b925050506105f5565b6001600160a01b03841660009081526008602052604090205483156113ea57612710610aa882826117ef565b6127106113f78282611775565b6114019084611802565b61140b9190611819565b95945050505050565b60606105f56001600160a01b03831660145b60606000611435836002611802565b6114409060026117ef565b67ffffffffffffffff81111561145857611458611907565b6040519080825280601f01601f191660200182016040528015611482576020820181803683370190505b509050600360fc1b8160008151811061149d5761149d61191d565b60200101906001600160f81b031916908160001a905350600f60fb1b816001815181106114cc576114cc61191d565b60200101906001600160f81b031916908160001a90535060006114f0846002611802565b6114fb9060016117ef565b90505b6001811115611573576f181899199a1a9b1b9c1cb0b131b232b360811b85600f166010811061152f5761152f61191d565b1a60f81b8282815181106115455761154561191d565b60200101906001600160f81b031916908160001a90535060049490941c9361156c81611933565b90506114fe565b5083156109bc5760405162461bcd60e51b815260206004820181905260248201527f537472696e67733a20686578206c656e67746820696e73756666696369656e74604482015260640161064d565b6000602082840312156115d457600080fd5b81356001600160e01b0319811681146109bc57600080fd5b80356001600160a01b038116811461160357600080fd5b919050565b60006020828403121561161a57600080fd5b6109bc826115ec565b8035801515811461160357600080fd5b60006020828403121561164557600080fd5b6109bc82611623565b60006020828403121561166057600080fd5b5035919050565b6000806040838503121561167a57600080fd5b8235915061168a602084016115ec565b90509250929050565b6000806000606084860312156116a857600080fd5b6116b1846115ec565b9250602084013591506116c660408501611623565b90509250925092565b600080604083850312156116e257600080fd5b6116eb836115ec565b915061168a60208401611623565b6000806040838503121561170c57600080fd5b611715836115ec565b946020939093013593505050565b60008060006060848603121561173857600080fd5b611741846115ec565b925061174f60208501611623565b9150604084013590509250925092565b634e487b7160e01b600052601160045260246000fd5b818103818111156105f5576105f561175f565b6020808252600e908201526d1858c81d1a5b59481c185cdcd95960921b604082015260600190565b6020808252600c908201526b1a5b9d985b1a59081999595960a21b604082015260600190565b6000602082840312156117e857600080fd5b5051919050565b808201808211156105f5576105f561175f565b80820281158282048414176105f5576105f561175f565b60008261183657634e487b7160e01b600052601260045260246000fd5b500490565b60005b8381101561185657818101518382015260200161183e565b50506000910152565b7f416363657373436f6e74726f6c3a206163636f756e742000000000000000000081526000835161189781601785016020880161183b565b7001034b99036b4b9b9b4b733903937b6329607d1b60179184019182015283516118c881602884016020880161183b565b01602801949350505050565b60208152600082518060208401526118f381604085016020870161183b565b601f01601f19169190910160400192915050565b634e487b7160e01b600052604160045260246000fd5b634e487b7160e01b600052603260045260246000fd5b6000816119425761194261175f565b50600019019056fe241ecf16d79d0f8dbfb92cbc07fe17840425976cf0667f022fe9877caa831b08a2646970667358221220dc45724c78a550fa1524b0ce631c21bcd91588729f41bc5dfd2e4f1cadedaf5964736f6c63430008110033",
    "linkReferences": {}
  },
  "methodIdentifiers": {
    "BASIS_POINTS_DIVISOR()": "126082cf",
    "DEFAULT_ADMIN_ROLE()": "a217fddf",
    "MAX_ADJUSTMENT_BASIS_POINTS()": "4a4b1f4f",
    "MAX_ADJUSTMENT_INTERVAL()": "9b18dc47",
    "MAX_SPREAD_BASIS_POINTS()": "0957aed9",
    "ONE_USD()": "67781c0e",
    "PRICE_PRECISION()": "95082d25",
    "adjustmentBasisPoints(address)": "48cac277",
    "chainPriceFeed()": "add37b7b",
    "fastPriceFeed()": "3a849c21",
    "getChainPrice(address,bool)": "a14316be",
    "getFastPrice(address,uint256,bool)": "61e4ca78",
    "getGmxPrice(address,bool)": "fe90cc0e",
    "getPrice(address,bool)": "76d69760",
    "getRoleAdmin(bytes32)": "248a9ca3",
    "gmxPriceFeed()": "b51de18e",
    "grantControllerRoleByMarketManager(address)": "7fe4a698",
    "grantRole(bytes32,address)": "2f2ff15d",
    "hasRole(bytes32,address)": "91d14854",
    "isAdjustmentAdditive(address)": "6ce8a44b",
    "isFastPriceEnabled()": "830a27ac",
    "isGmxPriceEnabled()": "1706c08c",
    "lastAdjustmentTimings(address)": "717cfe7a",
    "maxStrictPriceDeviation()": "378e7bf7",
    "owner()": "8da5cb5b",
    "renounceOwnership()": "715018a6",
    "renounceRole(bytes32,address)": "36568abe",
    "revokeRole(bytes32,address)": "d547741f",
    "setAdjustment(address,bool,uint256)": "d694376c",
    "setChainPriceFeed(address)": "33206f19",
    "setFastPriceEnabled(bool)": "14b7a451",
    "setFastPriceFeed(address)": "171e7721",
    "setGmxPriceFeed(address)": "104c2f1a",
    "setIsGmxPriceEnabled(bool)": "791accfe",
    "setMaxStrictPriceDeviation(uint256)": "2fbfe3d3",
    "setSpreadBasisPoints(address,uint256)": "9b889380",
    "setStableTokens(address,bool)": "fc437c03",
    "spreadBasisPoints(address)": "a27ea386",
    "spreadThresholdBasisPoints()": "a39c73a3",
    "strictStableTokens(address)": "b8f61105",
    "supportsInterface(bytes4)": "01ffc9a7",
    "transferAdmin(address)": "75829def",
    "transferOwnership(address)": "f2fde38b"
  },
  "id": 70
}