{
  "abi": [
    {
      "anonymous": false,
      "inputs": [
        {
          "indexed": true,
          "internalType": "address",
          "name": "market",
          "type": "address"
        },
        {
          "indexed": false,
          "internalType": "uint256",
          "name": "amount",
          "type": "uint256"
        },
        {
          "indexed": false,
          "internalType": "uint256",
          "name": "totalFundsUsed",
          "type": "uint256"
        }
      ],
      "name": "FundsUsedUpdated",
      "type": "event"
    },
    {
      "anonymous": false,
      "inputs": [
        {
          "indexed": false,
          "internalType": "uint8",
          "name": "version",
          "type": "uint8"
        }
      ],
      "name": "Initialized",
      "type": "event"
    },
    {
      "anonymous": false,
      "inputs": [
        {
          "indexed": false,
          "internalType": "bool",
          "name": "isFreeze",
          "type": "bool"
        },
        {
          "indexed": false,
          "internalType": "uint256",
          "name": "freezeType",
          "type": "uint256"
        }
      ],
      "name": "LogIsFreeze",
      "type": "event"
    },
    {
      "anonymous": false,
      "inputs": [
        {
          "indexed": false,
          "internalType": "address",
          "name": "market",
          "type": "address"
        },
        {
          "indexed": false,
          "internalType": "address",
          "name": "vault",
          "type": "address"
        }
      ],
      "name": "MarketRemoved",
      "type": "event"
    },
    {
      "anonymous": false,
      "inputs": [
        {
          "indexed": false,
          "internalType": "address",
          "name": "market",
          "type": "address"
        },
        {
          "indexed": false,
          "internalType": "address",
          "name": "vault",
          "type": "address"
        }
      ],
      "name": "MarketSetted",
      "type": "event"
    },
    {
      "anonymous": false,
      "inputs": [
        {
          "indexed": true,
          "internalType": "address",
          "name": "previousOwner",
          "type": "address"
        },
        {
          "indexed": true,
          "internalType": "address",
          "name": "newOwner",
          "type": "address"
        }
      ],
      "name": "OwnershipTransferred",
      "type": "event"
    },
    {
      "anonymous": false,
      "inputs": [
        {
          "indexed": true,
          "internalType": "bytes32",
          "name": "role",
          "type": "bytes32"
        },
        {
          "indexed": true,
          "internalType": "bytes32",
          "name": "previousAdminRole",
          "type": "bytes32"
        },
        {
          "indexed": true,
          "internalType": "bytes32",
          "name": "newAdminRole",
          "type": "bytes32"
        }
      ],
      "name": "RoleAdminChanged",
      "type": "event"
    },
    {
      "anonymous": false,
      "inputs": [
        {
          "indexed": true,
          "internalType": "bytes32",
          "name": "role",
          "type": "bytes32"
        },
        {
          "indexed": true,
          "internalType": "address",
          "name": "account",
          "type": "address"
        },
        {
          "indexed": true,
          "internalType": "address",
          "name": "sender",
          "type": "address"
        }
      ],
      "name": "RoleGranted",
      "type": "event"
    },
    {
      "anonymous": false,
      "inputs": [
        {
          "indexed": true,
          "internalType": "bytes32",
          "name": "role",
          "type": "bytes32"
        },
        {
          "indexed": true,
          "internalType": "address",
          "name": "account",
          "type": "address"
        },
        {
          "indexed": true,
          "internalType": "address",
          "name": "sender",
          "type": "address"
        }
      ],
      "name": "RoleRevoked",
      "type": "event"
    },
    {
      "inputs": [],
      "name": "DEFAULT_ADMIN_ROLE",
      "outputs": [
        {
          "internalType": "bytes32",
          "name": "",
          "type": "bytes32"
        }
      ],
      "stateMutability": "view",
      "type": "function"
    },
    {
      "inputs": [
        {
          "internalType": "uint256",
          "name": "amount",
          "type": "uint256"
        }
      ],
      "name": "borrowFromVault",
      "outputs": [],
      "stateMutability": "nonpayable",
      "type": "function"
    },
    {
      "inputs": [
        {
          "internalType": "contract ICoreVault",
          "name": "vault",
          "type": "address"
        }
      ],
      "name": "buyLpFee",
      "outputs": [
        {
          "internalType": "uint256",
          "name": "",
          "type": "uint256"
        }
      ],
      "stateMutability": "view",
      "type": "function"
    },
    {
      "inputs": [],
      "name": "coreVault",
      "outputs": [
        {
          "internalType": "contract ICoreVault",
          "name": "",
          "type": "address"
        }
      ],
      "stateMutability": "view",
      "type": "function"
    },
    {
      "inputs": [],
      "name": "feeRouter",
      "outputs": [
        {
          "internalType": "contract IFeeRouter",
          "name": "",
          "type": "address"
        }
      ],
      "stateMutability": "view",
      "type": "function"
    },
    {
      "inputs": [
        {
          "internalType": "address",
          "name": "",
          "type": "address"
        }
      ],
      "name": "fundsUsed",
      "outputs": [
        {
          "internalType": "uint256",
          "name": "",
          "type": "uint256"
        }
      ],
      "stateMutability": "view",
      "type": "function"
    },
    {
      "inputs": [],
      "name": "getAUM",
      "outputs": [
        {
          "internalType": "uint256",
          "name": "",
          "type": "uint256"
        }
      ],
      "stateMutability": "view",
      "type": "function"
    },
    {
      "inputs": [],
      "name": "getGlobalPnl",
      "outputs": [
        {
          "internalType": "int256",
          "name": "",
          "type": "int256"
        }
      ],
      "stateMutability": "view",
      "type": "function"
    },
    {
      "inputs": [
        {
          "internalType": "bytes32",
          "name": "role",
          "type": "bytes32"
        }
      ],
      "name": "getRoleAdmin",
      "outputs": [
        {
          "internalType": "bytes32",
          "name": "",
          "type": "bytes32"
        }
      ],
      "stateMutability": "view",
      "type": "function"
    },
    {
      "inputs": [],
      "name": "getUSDBalance",
      "outputs": [
        {
          "internalType": "uint256",
          "name": "",
          "type": "uint256"
        }
      ],
      "stateMutability": "view",
      "type": "function"
    },
    {
      "inputs": [
        {
          "internalType": "address",
          "name": "_account",
          "type": "address"
        }
      ],
      "name": "grantControllerRoleByMarketManager",
      "outputs": [],
      "stateMutability": "nonpayable",
      "type": "function"
    },
    {
      "inputs": [
        {
          "internalType": "bytes32",
          "name": "role",
          "type": "bytes32"
        },
        {
          "internalType": "address",
          "name": "account",
          "type": "address"
        }
      ],
      "name": "grantRole",
      "outputs": [],
      "stateMutability": "nonpayable",
      "type": "function"
    },
    {
      "inputs": [
        {
          "internalType": "bytes32",
          "name": "role",
          "type": "bytes32"
        },
        {
          "internalType": "address",
          "name": "account",
          "type": "address"
        }
      ],
      "name": "hasRole",
      "outputs": [
        {
          "internalType": "bool",
          "name": "",
          "type": "bool"
        }
      ],
      "stateMutability": "view",
      "type": "function"
    },
    {
      "inputs": [
        {
          "internalType": "address",
          "name": "_coreVault",
          "type": "address"
        },
        {
          "internalType": "address",
          "name": "_feeRouter",
          "type": "address"
        }
      ],
      "name": "initialize",
      "outputs": [],
      "stateMutability": "nonpayable",
      "type": "function"
    },
    {
      "inputs": [],
      "name": "isFreezeAccouting",
      "outputs": [
        {
          "internalType": "bool",
          "name": "",
          "type": "bool"
        }
      ],
      "stateMutability": "view",
      "type": "function"
    },
    {
      "inputs": [],
      "name": "isFreezeTransfer",
      "outputs": [
        {
          "internalType": "bool",
          "name": "",
          "type": "bool"
        }
      ],
      "stateMutability": "view",
      "type": "function"
    },
    {
      "inputs": [
        {
          "internalType": "address",
          "name": "",
          "type": "address"
        }
      ],
      "name": "marketVaults",
      "outputs": [
        {
          "internalType": "contract ICoreVault",
          "name": "",
          "type": "address"
        }
      ],
      "stateMutability": "view",
      "type": "function"
    },
    {
      "inputs": [],
      "name": "owner",
      "outputs": [
        {
          "internalType": "address",
          "name": "",
          "type": "address"
        }
      ],
      "stateMutability": "view",
      "type": "function"
    },
    {
      "inputs": [],
      "name": "priceDecimals",
      "outputs": [
        {
          "internalType": "uint256",
          "name": "",
          "type": "uint256"
        }
      ],
      "stateMutability": "pure",
      "type": "function"
    },
    {
      "inputs": [
        {
          "internalType": "address",
          "name": "market",
          "type": "address"
        }
      ],
      "name": "removeMarket",
      "outputs": [],
      "stateMutability": "nonpayable",
      "type": "function"
    },
    {
      "inputs": [],
      "name": "renounceOwnership",
      "outputs": [],
      "stateMutability": "nonpayable",
      "type": "function"
    },
    {
      "inputs": [
        {
          "internalType": "bytes32",
          "name": "",
          "type": "bytes32"
        },
        {
          "internalType": "address",
          "name": "",
          "type": "address"
        }
      ],
      "name": "renounceRole",
      "outputs": [],
      "stateMutability": "nonpayable",
      "type": "function"
    },
    {
      "inputs": [
        {
          "internalType": "uint256",
          "name": "amount",
          "type": "uint256"
        }
      ],
      "name": "repayToVault",
      "outputs": [],
      "stateMutability": "nonpayable",
      "type": "function"
    },
    {
      "inputs": [
        {
          "internalType": "bytes32",
          "name": "role",
          "type": "bytes32"
        },
        {
          "internalType": "address",
          "name": "account",
          "type": "address"
        }
      ],
      "name": "revokeRole",
      "outputs": [],
      "stateMutability": "nonpayable",
      "type": "function"
    },
    {
      "inputs": [
        {
          "internalType": "contract ICoreVault",
          "name": "vault",
          "type": "address"
        }
      ],
      "name": "sellLpFee",
      "outputs": [
        {
          "internalType": "uint256",
          "name": "",
          "type": "uint256"
        }
      ],
      "stateMutability": "view",
      "type": "function"
    },
    {
      "inputs": [
        {
          "internalType": "bool",
          "name": "f",
          "type": "bool"
        },
        {
          "internalType": "uint256",
          "name": "freezeType",
          "type": "uint256"
        }
      ],
      "name": "setIsFreeze",
      "outputs": [],
      "stateMutability": "nonpayable",
      "type": "function"
    },
    {
      "inputs": [
        {
          "internalType": "address",
          "name": "market",
          "type": "address"
        },
        {
          "internalType": "address",
          "name": "vault",
          "type": "address"
        }
      ],
      "name": "setMarket",
      "outputs": [],
      "stateMutability": "nonpayable",
      "type": "function"
    },
    {
      "inputs": [
        {
          "internalType": "bytes4",
          "name": "interfaceId",
          "type": "bytes4"
        }
      ],
      "name": "supportsInterface",
      "outputs": [
        {
          "internalType": "bool",
          "name": "",
          "type": "bool"
        }
      ],
      "stateMutability": "view",
      "type": "function"
    },
    {
      "inputs": [],
      "name": "totalFundsUsed",
      "outputs": [
        {
          "internalType": "uint256",
          "name": "",
          "type": "uint256"
        }
      ],
      "stateMutability": "view",
      "type": "function"
    },
    {
      "inputs": [
        {
          "internalType": "address",
          "name": "to",
          "type": "address"
        }
      ],
      "name": "transferAdmin",
      "outputs": [],
      "stateMutability": "nonpayable",
      "type": "function"
    },
    {
      "inputs": [
        {
          "internalType": "address",
          "name": "to",
          "type": "address"
        },
        {
          "internalType": "uint256",
          "name": "amount",
          "type": "uint256"
        }
      ],
      "name": "transferFromVault",
      "outputs": [],
      "stateMutability": "nonpayable",
      "type": "function"
    },
    {
      "inputs": [
        {
          "internalType": "address",
          "name": "newOwner",
          "type": "address"
        }
      ],
      "name": "transferOwnership",
      "outputs": [],
      "stateMutability": "nonpayable",
      "type": "function"
    },
    {
      "inputs": [
        {
          "internalType": "address",
          "name": "account",
          "type": "address"
        },
        {
          "internalType": "uint256",
          "name": "amount",
          "type": "uint256"
        }
      ],
      "name": "transferToVault",
      "outputs": [],
      "stateMutability": "nonpayable",
      "type": "function"
    },
    {
      "inputs": [
        {
          "internalType": "contract ICoreVault",
          "name": "",
          "type": "address"
        }
      ],
      "name": "vaultMarkets",
      "outputs": [
        {
          "internalType": "address",
          "name": "",
          "type": "address"
        }
      ],
      "stateMutability": "view",
      "type": "function"
    }
  ],
  "bytecode": {
    "object": "0x6080604052600a805460ff19908116909155600f8054909116905534801561002657600080fd5b506100303361003a565b600160035561008c565b600180546001600160a01b038381166001600160a01b0319831681179093556040519116919082907f8be0079c531659141344cd1fd0a4f28419497f9722a3daafe3b4186f6b6457e090600090a35050565b611d5c8061009b6000396000f3fe608060405234801561001057600080fd5b50600436106102065760003560e01c806389a71faa1161011a578063c6aee618116100ad578063db9132361161007c578063db91323614610454578063e108262f14610467578063eb4fe8181461047a578063f29ebf611461048d578063f2fde38b146104a057600080fd5b8063c6aee61814610408578063d53b26ee1461041b578063d547741f1461042e578063da8ddc741461044157600080fd5b8063a217fddf116100e9578063a217fddf146103d8578063a59e73e8146103e0578063a7c1daa4146103ed578063c12010541461040057600080fd5b806389a71faa146103785780638da5cb5b1461038b57806391d148541461039c57806392106cbb146103af57600080fd5b806336568abe1161019d5780636dc7b0a11161016c5780636dc7b0a11461033a5780636f2a14c514610342578063715018a61461034a57806375829def146103525780637fe4a6981461036557600080fd5b806336568abe146102c5578063485cc955146102d357806361b314cb146102e6578063674ce1b51461032757600080fd5b8063290f5e49116101d9578063290f5e49146102705780632b8a0012146102855780632f2ff15d146102a55780633001a9a2146102b857600080fd5b806301ffc9a71461020b57806305300b281461023357806311a2ad4914610244578063248a9ca31461024d575b600080fd5b61021e61021936600461196b565b6104b3565b60405190151581526020015b60405180910390f35b60085b60405190815260200161022a565b610236600b5481565b61023661025b366004611995565b60009081526020819052604090206001015490565b61028361027e3660046119bc565b6104ea565b005b6102366102933660046119fd565b600c6020526000908152604090205481565b6102836102b3366004611a1a565b610633565b600f5461021e9060ff1681565b610283610206366004611a1a565b6102836102e1366004611a4a565b61065d565b61030f6102f43660046119fd565b600e602052600090815260409020546001600160a01b031681565b6040516001600160a01b03909116815260200161022a565b60055461030f906001600160a01b031681565b6102366107b8565b610236610809565b6102836108c5565b6102836103603660046119fd565b6108d9565b6102836103733660046119fd565b61094d565b610283610386366004611a78565b610977565b6001546001600160a01b031661030f565b61021e6103aa366004611a1a565b610a38565b61030f6103bd3660046119fd565b600d602052600090815260409020546001600160a01b031681565b610236600081565b600a5461021e9060ff1681565b6102836103fb366004611a4a565b610a61565b610236610b46565b610283610416366004611995565b610c6e565b6102366104293660046119fd565b610ced565b61028361043c366004611a1a565b610d5a565b61028361044f366004611a78565b610d7f565b6102836104623660046119fd565b610e34565b610283610475366004611995565b610f2e565b6102366104883660046119fd565b610faa565b60045461030f906001600160a01b031681565b6102836104ae3660046119fd565b610fda565b60006001600160e01b03198216637965db0b60e01b14806104e457506301ffc9a760e01b6001600160e01b03198316145b92915050565b6105137f92de27771f92d6942691d73358b3a4673e4880de8356f8f2cf452be87e02d363611050565b600381106105565760405162461bcd60e51b815260206004820152600b60248201526a21667265657a655479706560a81b60448201526064015b60405180910390fd5b806000036105c25760055460405163c4cc8bbb60e01b815283151560048201526001600160a01b039091169063c4cc8bbb90602401600060405180830381600087803b1580156105a557600080fd5b505af11580156105b9573d6000803e3d6000fd5b505050506105f4565b806001036105dd57600a805460ff19168315151790556105f4565b806002036105f457600f805460ff19168315151790555b604080518315158152602081018390527f32a2e913e263febe3421a6e85924137ecf50c1aaec4f37b3deec772651f21fcd910160405180910390a15050565b60008281526020819052604090206001015461064e81611050565b610658838361105a565b505050565b600154600160a81b900460ff1615808015610683575060018054600160a01b900460ff16105b806106a35750303b1580156106a3575060018054600160a01b900460ff16145b6107065760405162461bcd60e51b815260206004820152602e60248201527f496e697469616c697a61626c653a20636f6e747261637420697320616c72656160448201526d191e481a5b9a5d1a585b1a5e995960921b606482015260840161054d565b6001805460ff60a01b1916600160a01b1790558015610733576001805460ff60a81b1916600160a81b1790555b61073c336110de565b600580546001600160a01b038086166001600160a01b03199283161790925560048054928516929091169190911790558015610658576001805460ff60a81b191681556040519081527f7f26b83ff96e1f2b6a682f133852f6798a09c465da95921460cefb3847402498906020015b60405180910390a1505050565b6000806107c3610809565b905060006107cf610b46565b90506000808313156107ec576107e58383611aac565b9050610802565b6107f583611abf565b6107ff9083611adb565b90505b9392505050565b6000806108166006611101565b90506000805b82518110156108be5782818151811061083757610837611aee565b60200260200101516001600160a01b03166393a98e6c6040518163ffffffff1660e01b8152600401602060405180830381865afa15801561087c573d6000803e3d6000fd5b505050506040513d601f19601f820116820180604052508101906108a09190611b04565b6108aa9083611b1d565b9150806108b681611b45565b91505061081c565b5092915050565b6108cd61110e565b6108d76000611168565b565b60006108e481611050565b6001600160a01b03821661092a5760405162461bcd60e51b815260206004820152600d60248201526c217a65726f206164647265737360981b604482015260640161054d565b6109356000836111ba565b61093e82611168565b6109496000336111c4565b5050565b7f8d1089725c0dc266707fa6207730fb801dcd03108bfed7a21099bd303651d2b761020681611050565b61098e600080516020611d07833981519152611050565b600a5460ff16156109b15760405162461bcd60e51b815260040161054d90611b5e565b336000908152600d60209081526040918290205482516338d52e0f60e01b815292516001600160a01b03909116926106589284926338d52e0f9260048082019392918290030181865afa158015610a0c573d6000803e3d6000fd5b505050506040513d601f19601f82011682018060405250810190610a309190611b8a565b848385611229565b6000918252602082815260408084206001600160a01b0393909316845291905290205460ff1690565b7fde57aa0116fb656e0ab30962f03bb7a49dccfb8fac7bf6a5cf94d0d56d0e7337610a8b81611050565b610a96600684611289565b610a9f57600080fd5b6001600160a01b038084166000818152600d6020908152604080832080549588166001600160a01b031996871681179091558352600e90915290208054909216179055610aed600883611289565b50610b06600080516020611d078339815191528461105a565b604080516001600160a01b038086168252841660208201527f4dd2648b8febf05ec183e673f430b81feb098c55a6622cae1d6ab6a495b38c7591016107ab565b600080610b536008611101565b90506000805b82518110156108be576000838281518110610b7657610b76611aee565b60200260200101519050806001600160a01b03166338d52e0f6040518163ffffffff1660e01b8152600401602060405180830381865afa158015610bbe573d6000803e3d6000fd5b505050506040513d601f19601f82011682018060405250810190610be29190611b8a565b6040516370a0823160e01b81526001600160a01b03838116600483015291909116906370a0823190602401602060405180830381865afa158015610c2a573d6000803e3d6000fd5b505050506040513d601f19601f82011682018060405250810190610c4e9190611b04565b610c589084611adb565b9250508080610c6690611b45565b915050610b59565b610c7960063361129e565b610cbb5760405162461bcd60e51b815260206004820152601360248201527215985d5b1d149bdd5d195c8e885b585c9ad95d606a1b604482015260640161054d565b600f5460ff1615610cde5760405162461bcd60e51b815260040161054d90611b5e565b610cea338260016112c0565b50565b604051632e7e841560e01b8152600160048201526000906001600160a01b03831690632e7e8415906024015b602060405180830381865afa158015610d36573d6000803e3d6000fd5b505050506040513d601f19601f820116820180604052508101906104e49190611b04565b600082815260208190526040902060010154610d7581611050565b61065883836111c4565b610d96600080516020611d07833981519152611050565b600a5460ff1615610db95760405162461bcd60e51b815260040161054d90611b5e565b336000908152600d60205260409081902054905163061d86f960e11b81526001600160a01b03848116600483015260248201849052909116908190630c3b0df290604401600060405180830381600087803b158015610e1757600080fd5b505af1158015610e2b573d6000803e3d6000fd5b50505050505050565b7fcb6bc1c12dd43bca8d7dd46d975f913325437d0dcd5978e99d515e4ad39b9772610e5e81611050565b610e696006836113b7565b506001600160a01b038083166000908152600d602052604090205416610e906008826113b7565b506001600160a01b038084166000818152600d6020818152604080842080549096168452600e8252832080546001600160a01b03199081169091559390925290528154169055610eee600080516020611d07833981519152846111c4565b604080516001600160a01b038086168252831660208201527fe53458cf1e128fd9dd751ec85180c9b93f69b6b6add116d5238cb46f90268d6791016107ab565b610f3960063361129e565b610f7b5760405162461bcd60e51b815260206004820152601360248201527215985d5b1d149bdd5d195c8e885b585c9ad95d606a1b604482015260640161054d565b600f5460ff1615610f9e5760405162461bcd60e51b815260040161054d90611b5e565b610cea338260006112c0565b604051632e7e841560e01b8152600060048201819052906001600160a01b03831690632e7e841590602401610d19565b610fe261110e565b6001600160a01b0381166110475760405162461bcd60e51b815260206004820152602660248201527f4f776e61626c653a206e6577206f776e657220697320746865207a65726f206160448201526564647265737360d01b606482015260840161054d565b610cea81611168565b610cea81336113cc565b6110648282610a38565b610949576000828152602081815260408083206001600160a01b03851684529091529020805460ff1916600117905561109a3390565b6001600160a01b0316816001600160a01b0316837f2f8788117e7eff1d82e926ec794901d17c78024a50270940304540a733656f0d60405160405180910390a45050565b426002556110eb33611168565b6110f66000336111ba565b610cea6000826111ba565b6060600061080283611425565b6001546001600160a01b031633146108d75760405162461bcd60e51b815260206004820181905260248201527f4f776e61626c653a2063616c6c6572206973206e6f7420746865206f776e6572604482015260640161054d565b600180546001600160a01b038381166001600160a01b0319831681179093556040519116919082907f8be0079c531659141344cd1fd0a4f28419497f9722a3daafe3b4186f6b6457e090600090a35050565b610949828261105a565b6111ce8282610a38565b15610949576000828152602081815260408083206001600160a01b0385168085529252808320805460ff1916905551339285917ff6391f5c32d9c69d2a47ea670b442974b53935d1edc7fd64eb21e047a839171b9190a45050565b604080516001600160a01b0385811660248301528416604482015260648082018490528251808303909101815260849091019091526020810180516001600160e01b03166323b872dd60e01b179052611283908590611481565b50505050565b6000610802836001600160a01b038416611556565b6001600160a01b03811660009081526001830160205260408120541515610802565b801561131057600082600b546112d69190611adb565b6001600160a01b0385166000908152600c6020526040812080549293508592909190611303908490611adb565b9091555050600b55611357565b6001600160a01b0383166000908152600c602052604081208054849290611338908490611aac565b9250508190555081600b60008282546113519190611aac565b90915550505b6001600160a01b0383166000818152600c60205260409081902054600b5491517f128f29b8f021c76a97203bea2d9fa18e1a05034b92c6232990dd75a7e447f649926113aa928252602082015260400190565b60405180910390a2505050565b6000610802836001600160a01b0384166115a5565b6113d68282610a38565b610949576113e381611698565b6113ee8360206116aa565b6040516020016113ff929190611bcb565b60408051601f198184030181529082905262461bcd60e51b825261054d91600401611c40565b60608160000180548060200260200160405190810160405280929190818152602001828054801561147557602002820191906000526020600020905b815481526020019060010190808311611461575b50505050509050919050565b60006114d6826040518060400160405280602081526020017f5361666545524332303a206c6f772d6c6576656c2063616c6c206661696c6564815250856001600160a01b03166118469092919063ffffffff16565b90508051600014806114f75750808060200190518101906114f79190611c73565b6106585760405162461bcd60e51b815260206004820152602a60248201527f5361666545524332303a204552433230206f7065726174696f6e20646964206e6044820152691bdd081cdd58d8d9595960b21b606482015260840161054d565b600081815260018301602052604081205461159d575081546001818101845560008481526020808220909301849055845484825282860190935260409020919091556104e4565b5060006104e4565b6000818152600183016020526040812054801561168e5760006115c9600183611aac565b85549091506000906115dd90600190611aac565b90508181146116425760008660000182815481106115fd576115fd611aee565b906000526020600020015490508087600001848154811061162057611620611aee565b6000918252602080832090910192909255918252600188019052604090208390555b855486908061165357611653611c90565b6001900381819060005260206000200160009055905585600101600086815260200190815260200160002060009055600193505050506104e4565b60009150506104e4565b60606104e46001600160a01b03831660145b606060006116b9836002611ca6565b6116c4906002611adb565b67ffffffffffffffff8111156116dc576116dc611cbd565b6040519080825280601f01601f191660200182016040528015611706576020820181803683370190505b509050600360fc1b8160008151811061172157611721611aee565b60200101906001600160f81b031916908160001a905350600f60fb1b8160018151811061175057611750611aee565b60200101906001600160f81b031916908160001a9053506000611774846002611ca6565b61177f906001611adb565b90505b60018111156117f7576f181899199a1a9b1b9c1cb0b131b232b360811b85600f16601081106117b3576117b3611aee565b1a60f81b8282815181106117c9576117c9611aee565b60200101906001600160f81b031916908160001a90535060049490941c936117f081611cd3565b9050611782565b5083156108025760405162461bcd60e51b815260206004820181905260248201527f537472696e67733a20686578206c656e67746820696e73756666696369656e74604482015260640161054d565b60606107ff848460008585600080866001600160a01b0316858760405161186d9190611cea565b60006040518083038185875af1925050503d80600081146118aa576040519150601f19603f3d011682016040523d82523d6000602084013e6118af565b606091505b50915091506118c0878383876118cd565b925050505b949350505050565b6060831561193c578251600003611935576001600160a01b0385163b6119355760405162461bcd60e51b815260206004820152601d60248201527f416464726573733a2063616c6c20746f206e6f6e2d636f6e7472616374000000604482015260640161054d565b50816118c5565b6118c583838151156119515781518083602001fd5b8060405162461bcd60e51b815260040161054d9190611c40565b60006020828403121561197d57600080fd5b81356001600160e01b03198116811461080257600080fd5b6000602082840312156119a757600080fd5b5035919050565b8015158114610cea57600080fd5b600080604083850312156119cf57600080fd5b82356119da816119ae565b946020939093013593505050565b6001600160a01b0381168114610cea57600080fd5b600060208284031215611a0f57600080fd5b8135610802816119e8565b60008060408385031215611a2d57600080fd5b823591506020830135611a3f816119e8565b809150509250929050565b60008060408385031215611a5d57600080fd5b8235611a68816119e8565b91506020830135611a3f816119e8565b60008060408385031215611a8b57600080fd5b82356119da816119e8565b634e487b7160e01b600052601160045260246000fd5b818103818111156104e4576104e4611a96565b6000600160ff1b8201611ad457611ad4611a96565b5060000390565b808201808211156104e4576104e4611a96565b634e487b7160e01b600052603260045260246000fd5b600060208284031215611b1657600080fd5b5051919050565b8082018281126000831280158216821582161715611b3d57611b3d611a96565b505092915050565b600060018201611b5757611b57611a96565b5060010190565b6020808252601290820152715661756c74526f757465723a667265657a6560701b604082015260600190565b600060208284031215611b9c57600080fd5b8151610802816119e8565b60005b83811015611bc2578181015183820152602001611baa565b50506000910152565b7f416363657373436f6e74726f6c3a206163636f756e7420000000000000000000815260008351611c03816017850160208801611ba7565b7001034b99036b4b9b9b4b733903937b6329607d1b6017918401918201528351611c34816028840160208801611ba7565b01602801949350505050565b6020815260008251806020840152611c5f816040850160208701611ba7565b601f01601f19169190910160400192915050565b600060208284031215611c8557600080fd5b8151610802816119ae565b634e487b7160e01b600052603160045260246000fd5b80820281158282048414176104e4576104e4611a96565b634e487b7160e01b600052604160045260246000fd5b600081611ce257611ce2611a96565b506000190190565b60008251611cfc818460208701611ba7565b919091019291505056fecb58d6d985142a614029cdf01861b4fe094d5919a47e69b8310dc4093d9d6ad0a2646970667358221220a1b228d342b23cf895dd4d12ee135359730447315bf574aec0568fd2584be18164736f6c63430008110033",
    "linkReferences": {}
  },
  "methodIdentifiers": {
    "DEFAULT_ADMIN_ROLE()": "a217fddf",
    "borrowFromVault(uint256)": "c6aee618",
    "buyLpFee(address)": "d53b26ee",
    "coreVault()": "674ce1b5",
    "feeRouter()": "f29ebf61",
    "fundsUsed(address)": "2b8a0012",
    "getAUM()": "6dc7b0a1",
    "getGlobalPnl()": "6f2a14c5",
    "getRoleAdmin(bytes32)": "248a9ca3",
    "getUSDBalance()": "c1201054",
    "grantControllerRoleByMarketManager(address)": "7fe4a698",
    "grantRole(bytes32,address)": "2f2ff15d",
    "hasRole(bytes32,address)": "91d14854",
    "initialize(address,address)": "485cc955",
    "isFreezeAccouting()": "3001a9a2",
    "isFreezeTransfer()": "a59e73e8",
    "marketVaults(address)": "92106cbb",
    "owner()": "8da5cb5b",
    "priceDecimals()": "05300b28",
    "removeMarket(address)": "db913236",
    "renounceOwnership()": "715018a6",
    "renounceRole(bytes32,address)": "36568abe",
    "repayToVault(uint256)": "e108262f",
    "revokeRole(bytes32,address)": "d547741f",
    "sellLpFee(address)": "eb4fe818",
    "setIsFreeze(bool,uint256)": "290f5e49",
    "setMarket(address,address)": "a7c1daa4",
    "supportsInterface(bytes4)": "01ffc9a7",
    "totalFundsUsed()": "11a2ad49",
    "transferAdmin(address)": "75829def",
    "transferFromVault(address,uint256)": "da8ddc74",
    "transferOwnership(address)": "f2fde38b",
    "transferToVault(address,uint256)": "89a71faa",
    "vaultMarkets(address)": "61b314cb"
  },
  "id": 121
}