{
  "abi": [
    {
      "inputs": [],
      "stateMutability": "nonpayable",
      "type": "constructor"
    },
    {
      "anonymous": false,
      "inputs": [
        {
          "indexed": false,
          "internalType": "uint8",
          "name": "version",
          "type": "uint8"
        }
      ],
      "name": "Initialized",
      "type": "event"
    },
    {
      "anonymous": false,
      "inputs": [
        {
          "indexed": true,
          "internalType": "address",
          "name": "previousOwner",
          "type": "address"
        },
        {
          "indexed": true,
          "internalType": "address",
          "name": "newOwner",
          "type": "address"
        }
      ],
      "name": "OwnershipTransferred",
      "type": "event"
    },
    {
      "anonymous": false,
      "inputs": [
        {
          "indexed": true,
          "internalType": "bytes32",
          "name": "role",
          "type": "bytes32"
        },
        {
          "indexed": true,
          "internalType": "bytes32",
          "name": "previousAdminRole",
          "type": "bytes32"
        },
        {
          "indexed": true,
          "internalType": "bytes32",
          "name": "newAdminRole",
          "type": "bytes32"
        }
      ],
      "name": "RoleAdminChanged",
      "type": "event"
    },
    {
      "anonymous": false,
      "inputs": [
        {
          "indexed": true,
          "internalType": "bytes32",
          "name": "role",
          "type": "bytes32"
        },
        {
          "indexed": true,
          "internalType": "address",
          "name": "account",
          "type": "address"
        },
        {
          "indexed": true,
          "internalType": "address",
          "name": "sender",
          "type": "address"
        }
      ],
      "name": "RoleGranted",
      "type": "event"
    },
    {
      "anonymous": false,
      "inputs": [
        {
          "indexed": true,
          "internalType": "bytes32",
          "name": "role",
          "type": "bytes32"
        },
        {
          "indexed": true,
          "internalType": "address",
          "name": "account",
          "type": "address"
        },
        {
          "indexed": true,
          "internalType": "address",
          "name": "sender",
          "type": "address"
        }
      ],
      "name": "RoleRevoked",
      "type": "event"
    },
    {
      "inputs": [],
      "name": "BASIS_POINTS_DIVISOR",
      "outputs": [
        {
          "internalType": "uint256",
          "name": "",
          "type": "uint256"
        }
      ],
      "stateMutability": "view",
      "type": "function"
    },
    {
      "inputs": [],
      "name": "DEFAULT_ADMIN_ROLE",
      "outputs": [
        {
          "internalType": "bytes32",
          "name": "",
          "type": "bytes32"
        }
      ],
      "stateMutability": "view",
      "type": "function"
    },
    {
      "inputs": [
        {
          "components": [
            {
              "internalType": "address",
              "name": "market",
              "type": "address"
            },
            {
              "internalType": "uint256",
              "name": "sizeDelta",
              "type": "uint256"
            },
            {
              "internalType": "bool",
              "name": "isLong",
              "type": "bool"
            },
            {
              "internalType": "uint256",
              "name": "globalLongSizes",
              "type": "uint256"
            },
            {
              "internalType": "uint256",
              "name": "globalShortSizes",
              "type": "uint256"
            },
            {
              "internalType": "uint256",
              "name": "userLongSizes",
              "type": "uint256"
            },
            {
              "internalType": "uint256",
              "name": "userShortSizes",
              "type": "uint256"
            },
            {
              "internalType": "uint256",
              "name": "marketLongSizes",
              "type": "uint256"
            },
            {
              "internalType": "uint256",
              "name": "marketShortSizes",
              "type": "uint256"
            },
            {
              "internalType": "uint256",
              "name": "aum",
              "type": "uint256"
            }
          ],
          "internalType": "struct IGlobalValid.ValidParams",
          "name": "params",
          "type": "tuple"
        }
      ],
      "name": "getMaxIncreasePositionSize",
      "outputs": [
        {
          "internalType": "uint256",
          "name": "",
          "type": "uint256"
        }
      ],
      "stateMutability": "view",
      "type": "function"
    },
    {
      "inputs": [
        {
          "internalType": "bytes32",
          "name": "role",
          "type": "bytes32"
        }
      ],
      "name": "getRoleAdmin",
      "outputs": [
        {
          "internalType": "bytes32",
          "name": "",
          "type": "bytes32"
        }
      ],
      "stateMutability": "view",
      "type": "function"
    },
    {
      "inputs": [
        {
          "internalType": "address",
          "name": "_account",
          "type": "address"
        }
      ],
      "name": "grantControllerRoleByMarketManager",
      "outputs": [],
      "stateMutability": "nonpayable",
      "type": "function"
    },
    {
      "inputs": [
        {
          "internalType": "bytes32",
          "name": "role",
          "type": "bytes32"
        },
        {
          "internalType": "address",
          "name": "account",
          "type": "address"
        }
      ],
      "name": "grantRole",
      "outputs": [],
      "stateMutability": "nonpayable",
      "type": "function"
    },
    {
      "inputs": [
        {
          "internalType": "bytes32",
          "name": "role",
          "type": "bytes32"
        },
        {
          "internalType": "address",
          "name": "account",
          "type": "address"
        }
      ],
      "name": "hasRole",
      "outputs": [
        {
          "internalType": "bool",
          "name": "",
          "type": "bool"
        }
      ],
      "stateMutability": "view",
      "type": "function"
    },
    {
      "inputs": [
        {
          "components": [
            {
              "internalType": "address",
              "name": "market",
              "type": "address"
            },
            {
              "internalType": "uint256",
              "name": "sizeDelta",
              "type": "uint256"
            },
            {
              "internalType": "bool",
              "name": "isLong",
              "type": "bool"
            },
            {
              "internalType": "uint256",
              "name": "globalLongSizes",
              "type": "uint256"
            },
            {
              "internalType": "uint256",
              "name": "globalShortSizes",
              "type": "uint256"
            },
            {
              "internalType": "uint256",
              "name": "userLongSizes",
              "type": "uint256"
            },
            {
              "internalType": "uint256",
              "name": "userShortSizes",
              "type": "uint256"
            },
            {
              "internalType": "uint256",
              "name": "marketLongSizes",
              "type": "uint256"
            },
            {
              "internalType": "uint256",
              "name": "marketShortSizes",
              "type": "uint256"
            },
            {
              "internalType": "uint256",
              "name": "aum",
              "type": "uint256"
            }
          ],
          "internalType": "struct IGlobalValid.ValidParams",
          "name": "params",
          "type": "tuple"
        }
      ],
      "name": "isIncreasePosition",
      "outputs": [
        {
          "internalType": "bool",
          "name": "",
          "type": "bool"
        }
      ],
      "stateMutability": "view",
      "type": "function"
    },
    {
      "inputs": [
        {
          "internalType": "address",
          "name": "",
          "type": "address"
        }
      ],
      "name": "maxMarketSizeLimit",
      "outputs": [
        {
          "internalType": "uint256",
          "name": "",
          "type": "uint256"
        }
      ],
      "stateMutability": "view",
      "type": "function"
    },
    {
      "inputs": [],
      "name": "maxNetSizeLimit",
      "outputs": [
        {
          "internalType": "uint256",
          "name": "",
          "type": "uint256"
        }
      ],
      "stateMutability": "view",
      "type": "function"
    },
    {
      "inputs": [],
      "name": "maxSizeLimit",
      "outputs": [
        {
          "internalType": "uint256",
          "name": "",
          "type": "uint256"
        }
      ],
      "stateMutability": "view",
      "type": "function"
    },
    {
      "inputs": [],
      "name": "maxUserNetSizeLimit",
      "outputs": [
        {
          "internalType": "uint256",
          "name": "",
          "type": "uint256"
        }
      ],
      "stateMutability": "view",
      "type": "function"
    },
    {
      "inputs": [],
      "name": "owner",
      "outputs": [
        {
          "internalType": "address",
          "name": "",
          "type": "address"
        }
      ],
      "stateMutability": "view",
      "type": "function"
    },
    {
      "inputs": [],
      "name": "renounceOwnership",
      "outputs": [],
      "stateMutability": "nonpayable",
      "type": "function"
    },
    {
      "inputs": [
        {
          "internalType": "bytes32",
          "name": "",
          "type": "bytes32"
        },
        {
          "internalType": "address",
          "name": "",
          "type": "address"
        }
      ],
      "name": "renounceRole",
      "outputs": [],
      "stateMutability": "nonpayable",
      "type": "function"
    },
    {
      "inputs": [
        {
          "internalType": "bytes32",
          "name": "role",
          "type": "bytes32"
        },
        {
          "internalType": "address",
          "name": "account",
          "type": "address"
        }
      ],
      "name": "revokeRole",
      "outputs": [],
      "stateMutability": "nonpayable",
      "type": "function"
    },
    {
      "inputs": [
        {
          "internalType": "address",
          "name": "market",
          "type": "address"
        },
        {
          "internalType": "uint256",
          "name": "limit",
          "type": "uint256"
        }
      ],
      "name": "setMaxMarketSizeLimit",
      "outputs": [],
      "stateMutability": "nonpayable",
      "type": "function"
    },
    {
      "inputs": [
        {
          "internalType": "uint256",
          "name": "limit",
          "type": "uint256"
        }
      ],
      "name": "setMaxNetSizeLimit",
      "outputs": [],
      "stateMutability": "nonpayable",
      "type": "function"
    },
    {
      "inputs": [
        {
          "internalType": "uint256",
          "name": "limit",
          "type": "uint256"
        }
      ],
      "name": "setMaxSizeLimit",
      "outputs": [],
      "stateMutability": "nonpayable",
      "type": "function"
    },
    {
      "inputs": [
        {
          "internalType": "uint256",
          "name": "limit",
          "type": "uint256"
        }
      ],
      "name": "setMaxUserNetSizeLimit",
      "outputs": [],
      "stateMutability": "nonpayable",
      "type": "function"
    },
    {
      "inputs": [
        {
          "internalType": "bytes4",
          "name": "interfaceId",
          "type": "bytes4"
        }
      ],
      "name": "supportsInterface",
      "outputs": [
        {
          "internalType": "bool",
          "name": "",
          "type": "bool"
        }
      ],
      "stateMutability": "view",
      "type": "function"
    },
    {
      "inputs": [
        {
          "internalType": "address",
          "name": "to",
          "type": "address"
        }
      ],
      "name": "transferAdmin",
      "outputs": [],
      "stateMutability": "nonpayable",
      "type": "function"
    },
    {
      "inputs": [
        {
          "internalType": "address",
          "name": "newOwner",
          "type": "address"
        }
      ],
      "name": "transferOwnership",
      "outputs": [],
      "stateMutability": "nonpayable",
      "type": "function"
    }
  ],
  "bytecode": {
    "object": "0x60806040526127106003556127106004556127106005553480156200002357600080fd5b503362000030816200004d565b62000046816200009f60201b6200080a1760201c565b506200017b565b600180546001600160a01b038381166001600160a01b0319831681179093556040519116919082907f8be0079c531659141344cd1fd0a4f28419497f9722a3daafe3b4186f6b6457e090600090a35050565b42600255620000ae336200004d565b620000bb600033620000cb565b620000c8600082620000cb565b50565b620000d78282620000db565b5050565b6000828152602081815260408083206001600160a01b038516845290915290205460ff16620000d7576000828152602081815260408083206001600160a01b03851684529091529020805460ff19166001179055620001373390565b6001600160a01b0316816001600160a01b0316837f2f8788117e7eff1d82e926ec794901d17c78024a50270940304540a733656f0d60405160405180910390a45050565b6111b4806200018b6000396000f3fe608060405234801561001057600080fd5b506004361061014d5760003560e01c8063715018a6116100c35780639835b9af1161007c5780639835b9af146102bb578063a217fddf146102c4578063c6cc354f146102cc578063d547741f146102d5578063f075fd0f146102e8578063f2fde38b146102fb57600080fd5b8063715018a61461024c57806375829def146102545780637fe4a698146102675780638050e32f1461027a5780638da5cb5b1461028d57806391d14854146102a857600080fd5b80632f2ff15d116101155780632f2ff15d146101dc57806336568abe146101ef57806345e58978146101fd57806345f304fd1461020657806366447cb4146102265780636b2feea21461023957600080fd5b806301ffc9a714610152578063126082cf1461017a578063248a9ca31461019157806328c7b510146101b45780632e3d1499146101c7575b600080fd5b610165610160366004610dd8565b61030e565b60405190151581526020015b60405180910390f35b61018361271081565b604051908152602001610171565b61018361019f366004610e02565b60009081526020819052604090206001015490565b6101656101c2366004610e95565b610345565b6101da6101d5366004610f2a565b610376565b005b6101da6101ea366004610f54565b61049a565b6101da61014d366004610f54565b61018360055481565b610183610214366004610f80565b60066020526000908152604090205481565b6101da610234366004610e02565b6104c4565b6101da610247366004610e02565b61055a565b6101da6105f0565b6101da610262366004610f80565b610604565b6101da610275366004610f80565b610678565b610183610288366004610e95565b6106a2565b6001546040516001600160a01b039091168152602001610171565b6101656102b6366004610f54565b6106ad565b61018360035481565b610183600081565b61018360045481565b6101da6102e3366004610f54565b6106d6565b6101da6102f6366004610e02565b6106fb565b6101da610309366004610f80565b610791565b60006001600160e01b03198216637965db0b60e01b148061033f57506301ffc9a760e01b6001600160e01b03198316145b92915050565b6000816020015160000361035b57506001919050565b60006103668361082d565b6020909301519092101592915050565b60008051602061115f833981519152600061039181336106ad565b905080156103d65762015180600254426103ab9190610fb1565b106103d15760405162461bcd60e51b81526004016103c890610fc4565b60405180910390fd5b6103e0565b6103e0823361090e565b6001600160a01b03841661042c5760405162461bcd60e51b815260206004820152601360248201527211db1bd8985b15985b1a590e885b585c9ad95d606a1b60448201526064016103c8565b6000831161047c5760405162461bcd60e51b815260206004820152601760248201527f476c6f62616c56616c69643a2173697a65206c696d697400000000000000000060448201526064016103c8565b50506001600160a01b03909116600090815260066020526040902055565b6000828152602081905260409020600101546104b581610967565b6104bf8383610971565b505050565b60008051602061115f83398151915260006104df81336106ad565b9050801561051b5762015180600254426104f99190610fb1565b106105165760405162461bcd60e51b81526004016103c890610fc4565b610525565b610525823361090e565b60008311801561053757506127108311155b6105535760405162461bcd60e51b81526004016103c890610fec565b5050600355565b60008051602061115f833981519152600061057581336106ad565b905080156105b157620151806002544261058f9190610fb1565b106105ac5760405162461bcd60e51b81526004016103c890610fc4565b6105bb565b6105bb823361090e565b6000831180156105cd57506127108311155b6105e95760405162461bcd60e51b81526004016103c890610fec565b5050600455565b6105f86109f5565b6106026000610a4f565b565b600061060f81610967565b6001600160a01b0382166106555760405162461bcd60e51b815260206004820152600d60248201526c217a65726f206164647265737360981b60448201526064016103c8565b610660600083610aa1565b61066982610a4f565b610674600033610aab565b5050565b7f8d1089725c0dc266707fa6207730fb801dcd03108bfed7a21099bd303651d2b761014d81610967565b600061033f8261082d565b6000918252602082815260408084206001600160a01b0393909316845291905290205460ff1690565b6000828152602081905260409020600101546106f181610967565b6104bf8383610aab565b60008051602061115f833981519152600061071681336106ad565b905080156107525762015180600254426107309190610fb1565b1061074d5760405162461bcd60e51b81526004016103c890610fc4565b61075c565b61075c823361090e565b60008311801561076e57506127108311155b61078a5760405162461bcd60e51b81526004016103c890610fec565b5050600555565b6107996109f5565b6001600160a01b0381166107fe5760405162461bcd60e51b815260206004820152602660248201527f4f776e61626c653a206e6577206f776e657220697320746865207a65726f206160448201526564647265737360d01b60648201526084016103c8565b61080781610a4f565b50565b4260025561081733610a4f565b610822600033610aa1565b610807600082610aa1565b60008061084d836060015184608001518561012001518660400151610b10565b9050806000036108605750600092915050565b600061087f846060015185608001518661012001518760400151610b6a565b905080600003610893575060009392505050565b8181101561089f578091505b6108bc8460a001518560c001518661012001518760400151610bb9565b9050806000036108d0575060009392505050565b818110156108dc578091505b6108f9846000015185604001518660e00151876101000151610bde565b905081811015610907578091505b5092915050565b61091882826106ad565b6106745761092581610c23565b610930836020610c35565b60405160200161094192919061103d565b60408051601f198184030181529082905262461bcd60e51b82526103c8916004016110b2565b610807813361090e565b61097b82826106ad565b610674576000828152602081815260408083206001600160a01b03851684529091529020805460ff191660011790556109b13390565b6001600160a01b0316816001600160a01b0316837f2f8788117e7eff1d82e926ec794901d17c78024a50270940304540a733656f0d60405160405180910390a45050565b6001546001600160a01b031633146106025760405162461bcd60e51b815260206004820181905260248201527f4f776e61626c653a2063616c6c6572206973206e6f7420746865206f776e657260448201526064016103c8565b600180546001600160a01b038381166001600160a01b0319831681179093556040519116919082907f8be0079c531659141344cd1fd0a4f28419497f9722a3daafe3b4186f6b6457e090600090a35050565b6106748282610971565b610ab582826106ad565b15610674576000828152602081815260408083206001600160a01b0385168085529252808320805460ff1916905551339285917ff6391f5c32d9c69d2a47ea670b442974b53935d1edc7fd64eb21e047a839171b9190a45050565b60008082610b1e5784610b20565b855b9050600061271060035486610b3591906110e5565b610b3f91906110fc565b9050808210610b5357600092505050610b62565b610b5d8282610fb1565b925050505b949350505050565b60008082610b785784610b7a565b855b9050600061271060045486610b8f91906110e5565b610b9991906110fc565b905083610baf57610baa878261111e565b610b3f565b610b3f868261111e565b60008082610bc75784610bc9565b855b9050600061271060055486610b8f91906110e5565b6001600160a01b0384166000908152600660205260408120548185610c035783610c05565b845b9050818110610c1957600092505050610b62565b610b5d8183610fb1565b606061033f6001600160a01b03831660145b60606000610c448360026110e5565b610c4f90600261111e565b67ffffffffffffffff811115610c6757610c67610e1b565b6040519080825280601f01601f191660200182016040528015610c91576020820181803683370190505b509050600360fc1b81600081518110610cac57610cac611131565b60200101906001600160f81b031916908160001a905350600f60fb1b81600181518110610cdb57610cdb611131565b60200101906001600160f81b031916908160001a9053506000610cff8460026110e5565b610d0a90600161111e565b90505b6001811115610d82576f181899199a1a9b1b9c1cb0b131b232b360811b85600f1660108110610d3e57610d3e611131565b1a60f81b828281518110610d5457610d54611131565b60200101906001600160f81b031916908160001a90535060049490941c93610d7b81611147565b9050610d0d565b508315610dd15760405162461bcd60e51b815260206004820181905260248201527f537472696e67733a20686578206c656e67746820696e73756666696369656e7460448201526064016103c8565b9392505050565b600060208284031215610dea57600080fd5b81356001600160e01b031981168114610dd157600080fd5b600060208284031215610e1457600080fd5b5035919050565b634e487b7160e01b600052604160045260246000fd5b604051610140810167ffffffffffffffff81118282101715610e6357634e487b7160e01b600052604160045260246000fd5b60405290565b80356001600160a01b0381168114610e8057600080fd5b919050565b80358015158114610e8057600080fd5b60006101408284031215610ea857600080fd5b610eb0610e31565b610eb983610e69565b815260208301356020820152610ed160408401610e85565b6040820152606083013560608201526080830135608082015260a083013560a082015260c083013560c082015260e083013560e08201526101008084013581830152506101208084013581830152508091505092915050565b60008060408385031215610f3d57600080fd5b610f4683610e69565b946020939093013593505050565b60008060408385031215610f6757600080fd5b82359150610f7760208401610e69565b90509250929050565b600060208284031215610f9257600080fd5b610dd182610e69565b634e487b7160e01b600052601160045260246000fd5b8181038181111561033f5761033f610f9b565b6020808252600e908201526d1858c81d1a5b59481c185cdcd95960921b604082015260600190565b602080825260139082015272476c6f62616c56616c69643a21706172616d7360681b604082015260600190565b60005b8381101561103457818101518382015260200161101c565b50506000910152565b7f416363657373436f6e74726f6c3a206163636f756e7420000000000000000000815260008351611075816017850160208801611019565b7001034b99036b4b9b9b4b733903937b6329607d1b60179184019182015283516110a6816028840160208801611019565b01602801949350505050565b60208152600082518060208401526110d1816040850160208701611019565b601f01601f19169190910160400192915050565b808202811582820484141761033f5761033f610f9b565b60008261111957634e487b7160e01b600052601260045260246000fd5b500490565b8082018082111561033f5761033f610f9b565b634e487b7160e01b600052603260045260246000fd5b60008161115657611156610f9b565b50600019019056fe275a642cf55cb12407e505ec86398168f240e88df6e66d1649bd09de9071c5dba2646970667358221220bfc05a5df111900a2f3564ee79aabf17f6b311c6c83065ad87c657c7e639247964736f6c63430008110033",
    "linkReferences": {}
  },
  "methodIdentifiers": {
    "BASIS_POINTS_DIVISOR()": "126082cf",
    "DEFAULT_ADMIN_ROLE()": "a217fddf",
    "getMaxIncreasePositionSize((address,uint256,bool,uint256,uint256,uint256,uint256,uint256,uint256,uint256))": "8050e32f",
    "getRoleAdmin(bytes32)": "248a9ca3",
    "grantControllerRoleByMarketManager(address)": "7fe4a698",
    "grantRole(bytes32,address)": "2f2ff15d",
    "hasRole(bytes32,address)": "91d14854",
    "isIncreasePosition((address,uint256,bool,uint256,uint256,uint256,uint256,uint256,uint256,uint256))": "28c7b510",
    "maxMarketSizeLimit(address)": "45f304fd",
    "maxNetSizeLimit()": "c6cc354f",
    "maxSizeLimit()": "9835b9af",
    "maxUserNetSizeLimit()": "45e58978",
    "owner()": "8da5cb5b",
    "renounceOwnership()": "715018a6",
    "renounceRole(bytes32,address)": "36568abe",
    "revokeRole(bytes32,address)": "d547741f",
    "setMaxMarketSizeLimit(address,uint256)": "2e3d1499",
    "setMaxNetSizeLimit(uint256)": "6b2feea2",
    "setMaxSizeLimit(uint256)": "66447cb4",
    "setMaxUserNetSizeLimit(uint256)": "f075fd0f",
    "supportsInterface(bytes4)": "01ffc9a7",
    "transferAdmin(address)": "75829def",
    "transferOwnership(address)": "f2fde38b"
  },
  "id": 8
}