{
  "abi": [
    {
      "inputs": [],
      "name": "BASIS_POINTS_DIVISOR",
      "outputs": [
        {
          "internalType": "uint256",
          "name": "",
          "type": "uint256"
        }
      ],
      "stateMutability": "view",
      "type": "function"
    },
    {
      "inputs": [],
      "name": "BOOSTER_PRICE_PRECISION_DECIMALS",
      "outputs": [
        {
          "internalType": "uint256",
          "name": "",
          "type": "uint256"
        }
      ],
      "stateMutability": "view",
      "type": "function"
    },
    {
      "inputs": [],
      "name": "FEE_RATE_PRECISION",
      "outputs": [
        {
          "internalType": "uint256",
          "name": "",
          "type": "uint256"
        }
      ],
      "stateMutability": "view",
      "type": "function"
    },
    {
      "inputs": [],
      "name": "FEE_RATE_PRECISION_DECIMALS",
      "outputs": [
        {
          "internalType": "uint256",
          "name": "",
          "type": "uint256"
        }
      ],
      "stateMutability": "view",
      "type": "function"
    },
    {
      "inputs": [],
      "name": "VAULR_REWARD_BASE_PRECISION",
      "outputs": [
        {
          "internalType": "uint256",
          "name": "",
          "type": "uint256"
        }
      ],
      "stateMutability": "view",
      "type": "function"
    }
  ],
  "bytecode": {
    "object": "0x6101f661003a600b82828239805160001a60731461002d57634e487b7160e01b600052600060045260246000fd5b30600052607381538281f3fe73000000000000000000000000000000000000000030146080604052600436106100615760003560e01c8063126082cf1461006657806349f387de14610083578063728e60c214610097578063dd30ba9114610097578063f4ca4d1d1461009f575b600080fd5b6100716305f5e10081565b60405190815260200160405180910390f35b6100716c0c9f2c9cd04674edea4000000081565b610071600881565b6100716100ae6008600a6101ad565b81565b634e487b7160e01b600052601160045260246000fd5b600181815b808511156101025781600019048211156100e8576100e86100b1565b808516156100f557918102915b93841c93908002906100cc565b509250929050565b600082610119575060016101a7565b81610126575060006101a7565b816001811461013c576002811461014657610162565b60019150506101a7565b60ff841115610157576101576100b1565b50506001821b6101a7565b5060208310610133831016604e8410600b8410161715610185575081810a6101a7565b61018f83836100c7565b80600019048211156101a3576101a36100b1565b0290505b92915050565b60006101b9838361010a565b939250505056fea2646970667358221220024c3f943f9b8d45dd4f9db44845a8d2c1212ee6bb8f956c294a01af2dc095bd64736f6c63430008110033",
    "linkReferences": {}
  },
  "methodIdentifiers": {
    "BASIS_POINTS_DIVISOR()": "126082cf",
    "BOOSTER_PRICE_PRECISION_DECIMALS()": "728e60c2",
    "FEE_RATE_PRECISION()": "f4ca4d1d",
    "FEE_RATE_PRECISION_DECIMALS()": "dd30ba91",
    "VAULR_REWARD_BASE_PRECISION()": "49f387de"
  },
  "id": 114
}