{
  "abi": [
    {
      "anonymous": false,
      "inputs": [
        {
          "indexed": false,
          "internalType": "uint256",
          "name": "amount",
          "type": "uint256"
        }
      ],
      "name": "Distribute",
      "type": "event"
    },
    {
      "anonymous": false,
      "inputs": [
        {
          "indexed": false,
          "internalType": "uint256",
          "name": "amount",
          "type": "uint256"
        }
      ],
      "name": "TokensPerIntervalChange",
      "type": "event"
    },
    {
      "inputs": [],
      "name": "distribute",
      "outputs": [
        {
          "internalType": "uint256",
          "name": "",
          "type": "uint256"
        }
      ],
      "stateMutability": "nonpayable",
      "type": "function"
    },
    {
      "inputs": [],
      "name": "lastDistributionTime",
      "outputs": [
        {
          "internalType": "uint256",
          "name": "",
          "type": "uint256"
        }
      ],
      "stateMutability": "view",
      "type": "function"
    },
    {
      "inputs": [],
      "name": "pendingRewards",
      "outputs": [
        {
          "internalType": "uint256",
          "name": "",
          "type": "uint256"
        }
      ],
      "stateMutability": "view",
      "type": "function"
    },
    {
      "inputs": [],
      "name": "rewardToken",
      "outputs": [
        {
          "internalType": "address",
          "name": "",
          "type": "address"
        }
      ],
      "stateMutability": "view",
      "type": "function"
    },
    {
      "inputs": [],
      "name": "rewardTracker",
      "outputs": [
        {
          "internalType": "address",
          "name": "",
          "type": "address"
        }
      ],
      "stateMutability": "view",
      "type": "function"
    },
    {
      "inputs": [
        {
          "internalType": "uint256",
          "name": "_amount",
          "type": "uint256"
        }
      ],
      "name": "setTokensPerInterval",
      "outputs": [],
      "stateMutability": "nonpayable",
      "type": "function"
    },
    {
      "inputs": [],
      "name": "tokensPerInterval",
      "outputs": [
        {
          "internalType": "uint256",
          "name": "",
          "type": "uint256"
        }
      ],
      "stateMutability": "view",
      "type": "function"
    },
    {
      "inputs": [],
      "name": "updateLastDistributionTime",
      "outputs": [],
      "stateMutability": "nonpayable",
      "type": "function"
    }
  ],
  "bytecode": {
    "object": "0x608060405234801561001057600080fd5b50610266806100206000396000f3fe608060405234801561001057600080fd5b50600436106100885760003560e01c8063a8d936271161005b578063a8d93627146100f2578063e4fc6b6d146100fb578063eded3fda14610103578063f7c618c11461010b57600080fd5b806318e20a031461008d5780633ae6d6eb146100a25780636bcb411a146100ab57806375b17350146100db575b600080fd5b6100a061009b3660046101d1565b61011e565b005b6100a042600255565b6003546100be906001600160a01b031681565b6040516001600160a01b0390911681526020015b60405180910390f35b6100e460025481565b6040519081526020016100d2565b6100e460015481565b6100e4610154565b6100e461019a565b6000546100be906001600160a01b031681565b6040518181527f98dc76c39aa5a5dcb749f8750a65db3dfa1e14bcc1591a9c16a7420e5da748f89060200160405180910390a150565b60405169d3c21bcecceda10000008082526000917f4def474aca53bf221d07d9ab0f675b3f6d8d2494b8427271bcf43c018ef1eead9060200160405180910390a1919050565b600060025442036101ab5750600090565b6000600254426101bb9190610200565b9050806001546101cb9190610219565b91505090565b6000602082840312156101e357600080fd5b5035919050565b634e487b7160e01b600052601160045260246000fd5b81810381811115610213576102136101ea565b92915050565b8082028115828204841417610213576102136101ea56fea26469706673582212207c04e99ad10dd68bed541747380ea03ca07d4470287d793148647b27d757db8264736f6c63430008110033",
    "linkReferences": {}
  },
  "methodIdentifiers": {
    "distribute()": "e4fc6b6d",
    "lastDistributionTime()": "75b17350",
    "pendingRewards()": "eded3fda",
    "rewardToken()": "f7c618c1",
    "rewardTracker()": "6bcb411a",
    "setTokensPerInterval(uint256)": "18e20a03",
    "tokensPerInterval()": "a8d93627",
    "updateLastDistributionTime()": "3ae6d6eb"
  },
  "id": 55
}