{
  "abi": [
    {
      "inputs": [
        {
          "internalType": "address",
          "name": "",
          "type": "address"
        }
      ],
      "name": "addMarket",
      "outputs": [],
      "stateMutability": "nonpayable",
      "type": "function"
    },
    {
      "inputs": [
        {
          "components": [
            {
              "components": [
                {
                  "internalType": "uint8",
                  "name": "version",
                  "type": "uint8"
                },
                {
                  "internalType": "uint32",
                  "name": "updatedAtBlock",
                  "type": "uint32"
                },
                {
                  "internalType": "uint8",
                  "name": "triggerAbove",
                  "type": "uint8"
                },
                {
                  "internalType": "address",
                  "name": "account",
                  "type": "address"
                },
                {
                  "internalType": "uint48",
                  "name": "extra3",
                  "type": "uint48"
                },
                {
                  "internalType": "uint128",
                  "name": "collateral",
                  "type": "uint128"
                },
                {
                  "internalType": "uint128",
                  "name": "size",
                  "type": "uint128"
                },
                {
                  "internalType": "uint128",
                  "name": "price",
                  "type": "uint128"
                },
                {
                  "internalType": "uint128",
                  "name": "extra1",
                  "type": "uint128"
                },
                {
                  "internalType": "uint64",
                  "name": "orderID",
                  "type": "uint64"
                },
                {
                  "internalType": "uint64",
                  "name": "extra2",
                  "type": "uint64"
                },
                {
                  "internalType": "uint128",
                  "name": "extra0",
                  "type": "uint128"
                },
                {
                  "internalType": "bytes32",
                  "name": "refCode",
                  "type": "bytes32"
                }
              ],
              "internalType": "struct Order.Props",
              "name": "order",
              "type": "tuple"
            },
            {
              "components": [
                {
                  "internalType": "address",
                  "name": "_market",
                  "type": "address"
                },
                {
                  "internalType": "bool",
                  "name": "_isLong",
                  "type": "bool"
                },
                {
                  "internalType": "uint256",
                  "name": "_oraclePrice",
                  "type": "uint256"
                },
                {
                  "internalType": "bool",
                  "name": "isOpen",
                  "type": "bool"
                },
                {
                  "internalType": "address",
                  "name": "_account",
                  "type": "address"
                },
                {
                  "internalType": "uint256",
                  "name": "_sizeDelta",
                  "type": "uint256"
                },
                {
                  "internalType": "uint256",
                  "name": "_price",
                  "type": "uint256"
                },
                {
                  "internalType": "uint256",
                  "name": "_slippage",
                  "type": "uint256"
                },
                {
                  "internalType": "bool",
                  "name": "_isExec",
                  "type": "bool"
                },
                {
                  "internalType": "uint8",
                  "name": "liqState",
                  "type": "uint8"
                },
                {
                  "internalType": "uint64",
                  "name": "_fromOrder",
                  "type": "uint64"
                },
                {
                  "internalType": "bytes32",
                  "name": "_refCode",
                  "type": "bytes32"
                },
                {
                  "internalType": "uint256",
                  "name": "collateralDelta",
                  "type": "uint256"
                },
                {
                  "internalType": "uint8",
                  "name": "execNum",
                  "type": "uint8"
                },
                {
                  "internalType": "uint256[]",
                  "name": "inputs",
                  "type": "uint256[]"
                }
              ],
              "internalType": "struct MarketDataTypes.UpdatePositionInputs",
              "name": "inputs",
              "type": "tuple"
            },
            {
              "internalType": "uint8",
              "name": "reason",
              "type": "uint8"
            },
            {
              "internalType": "string",
              "name": "reasonStr",
              "type": "string"
            },
            {
              "internalType": "int256",
              "name": "dPNL",
              "type": "int256"
            }
          ],
          "internalType": "struct MarketOrderCallBackIntl.DeleteOrderEvent",
          "name": "e",
          "type": "tuple"
        }
      ],
      "name": "deleteOrderCallback",
      "outputs": [],
      "stateMutability": "nonpayable",
      "type": "function"
    },
    {
      "inputs": [
        {
          "internalType": "address",
          "name": "account",
          "type": "address"
        }
      ],
      "name": "getAccountSize",
      "outputs": [
        {
          "internalType": "uint256",
          "name": "sizesL",
          "type": "uint256"
        },
        {
          "internalType": "uint256",
          "name": "sizesS",
          "type": "uint256"
        }
      ],
      "stateMutability": "view",
      "type": "function"
    },
    {
      "inputs": [],
      "name": "getGlobalPNL",
      "outputs": [
        {
          "internalType": "int256",
          "name": "pnl",
          "type": "int256"
        }
      ],
      "stateMutability": "view",
      "type": "function"
    },
    {
      "inputs": [],
      "name": "getGlobalSize",
      "outputs": [
        {
          "internalType": "uint256",
          "name": "sizesLong",
          "type": "uint256"
        },
        {
          "internalType": "uint256",
          "name": "sizesShort",
          "type": "uint256"
        }
      ],
      "stateMutability": "view",
      "type": "function"
    },
    {
      "inputs": [],
      "name": "getHooksCalls",
      "outputs": [
        {
          "components": [
            {
              "internalType": "bool",
              "name": "updatePosition",
              "type": "bool"
            },
            {
              "internalType": "bool",
              "name": "updateOrder",
              "type": "bool"
            },
            {
              "internalType": "bool",
              "name": "deleteOrder",
              "type": "bool"
            }
          ],
          "internalType": "struct MarketCallBackIntl.Calls",
          "name": "",
          "type": "tuple"
        }
      ],
      "stateMutability": "pure",
      "type": "function"
    },
    {
      "inputs": [
        {
          "internalType": "address",
          "name": "",
          "type": "address"
        }
      ],
      "name": "removeMarket",
      "outputs": [],
      "stateMutability": "nonpayable",
      "type": "function"
    },
    {
      "inputs": [
        {
          "components": [
            {
              "internalType": "address",
              "name": "_market",
              "type": "address"
            },
            {
              "internalType": "bool",
              "name": "_isLong",
              "type": "bool"
            },
            {
              "internalType": "uint256",
              "name": "_oraclePrice",
              "type": "uint256"
            },
            {
              "internalType": "bool",
              "name": "isOpen",
              "type": "bool"
            },
            {
              "internalType": "bool",
              "name": "isCreate",
              "type": "bool"
            },
            {
              "components": [
                {
                  "internalType": "uint8",
                  "name": "version",
                  "type": "uint8"
                },
                {
                  "internalType": "uint32",
                  "name": "updatedAtBlock",
                  "type": "uint32"
                },
                {
                  "internalType": "uint8",
                  "name": "triggerAbove",
                  "type": "uint8"
                },
                {
                  "internalType": "address",
                  "name": "account",
                  "type": "address"
                },
                {
                  "internalType": "uint48",
                  "name": "extra3",
                  "type": "uint48"
                },
                {
                  "internalType": "uint128",
                  "name": "collateral",
                  "type": "uint128"
                },
                {
                  "internalType": "uint128",
                  "name": "size",
                  "type": "uint128"
                },
                {
                  "internalType": "uint128",
                  "name": "price",
                  "type": "uint128"
                },
                {
                  "internalType": "uint128",
                  "name": "extra1",
                  "type": "uint128"
                },
                {
                  "internalType": "uint64",
                  "name": "orderID",
                  "type": "uint64"
                },
                {
                  "internalType": "uint64",
                  "name": "extra2",
                  "type": "uint64"
                },
                {
                  "internalType": "uint128",
                  "name": "extra0",
                  "type": "uint128"
                },
                {
                  "internalType": "bytes32",
                  "name": "refCode",
                  "type": "bytes32"
                }
              ],
              "internalType": "struct Order.Props",
              "name": "_order",
              "type": "tuple"
            },
            {
              "internalType": "uint256[]",
              "name": "inputs",
              "type": "uint256[]"
            }
          ],
          "internalType": "struct MarketDataTypes.UpdateOrderInputs",
          "name": "_event",
          "type": "tuple"
        }
      ],
      "name": "updateOrderCallback",
      "outputs": [],
      "stateMutability": "nonpayable",
      "type": "function"
    },
    {
      "inputs": [
        {
          "internalType": "address",
          "name": "newA",
          "type": "address"
        }
      ],
      "name": "updatePositionBook",
      "outputs": [],
      "stateMutability": "nonpayable",
      "type": "function"
    },
    {
      "inputs": [
        {
          "components": [
            {
              "components": [
                {
                  "internalType": "address",
                  "name": "_market",
                  "type": "address"
                },
                {
                  "internalType": "bool",
                  "name": "_isLong",
                  "type": "bool"
                },
                {
                  "internalType": "uint256",
                  "name": "_oraclePrice",
                  "type": "uint256"
                },
                {
                  "internalType": "bool",
                  "name": "isOpen",
                  "type": "bool"
                },
                {
                  "internalType": "address",
                  "name": "_account",
                  "type": "address"
                },
                {
                  "internalType": "uint256",
                  "name": "_sizeDelta",
                  "type": "uint256"
                },
                {
                  "internalType": "uint256",
                  "name": "_price",
                  "type": "uint256"
                },
                {
                  "internalType": "uint256",
                  "name": "_slippage",
                  "type": "uint256"
                },
                {
                  "internalType": "bool",
                  "name": "_isExec",
                  "type": "bool"
                },
                {
                  "internalType": "uint8",
                  "name": "liqState",
                  "type": "uint8"
                },
                {
                  "internalType": "uint64",
                  "name": "_fromOrder",
                  "type": "uint64"
                },
                {
                  "internalType": "bytes32",
                  "name": "_refCode",
                  "type": "bytes32"
                },
                {
                  "internalType": "uint256",
                  "name": "collateralDelta",
                  "type": "uint256"
                },
                {
                  "internalType": "uint8",
                  "name": "execNum",
                  "type": "uint8"
                },
                {
                  "internalType": "uint256[]",
                  "name": "inputs",
                  "type": "uint256[]"
                }
              ],
              "internalType": "struct MarketDataTypes.UpdatePositionInputs",
              "name": "inputs",
              "type": "tuple"
            },
            {
              "components": [
                {
                  "internalType": "address",
                  "name": "market",
                  "type": "address"
                },
                {
                  "internalType": "bool",
                  "name": "isLong",
                  "type": "bool"
                },
                {
                  "internalType": "uint32",
                  "name": "lastTime",
                  "type": "uint32"
                },
                {
                  "internalType": "uint216",
                  "name": "extra3",
                  "type": "uint216"
                },
                {
                  "internalType": "uint256",
                  "name": "size",
                  "type": "uint256"
                },
                {
                  "internalType": "uint256",
                  "name": "collateral",
                  "type": "uint256"
                },
                {
                  "internalType": "uint256",
                  "name": "averagePrice",
                  "type": "uint256"
                },
                {
                  "internalType": "int256",
                  "name": "entryFundingRate",
                  "type": "int256"
                },
                {
                  "internalType": "int256",
                  "name": "realisedPnl",
                  "type": "int256"
                },
                {
                  "internalType": "uint256",
                  "name": "extra0",
                  "type": "uint256"
                },
                {
                  "internalType": "uint256",
                  "name": "extra1",
                  "type": "uint256"
                },
                {
                  "internalType": "uint256",
                  "name": "extra2",
                  "type": "uint256"
                }
              ],
              "internalType": "struct Position.Props",
              "name": "position",
              "type": "tuple"
            },
            {
              "internalType": "int256[]",
              "name": "fees",
              "type": "int256[]"
            },
            {
              "internalType": "address",
              "name": "collateralToken",
              "type": "address"
            },
            {
              "internalType": "address",
              "name": "indexToken",
              "type": "address"
            },
            {
              "internalType": "int256",
              "name": "collateralDeltaAfter",
              "type": "int256"
            }
          ],
          "internalType": "struct MarketPositionCallBackIntl.UpdatePositionEvent",
          "name": "_event",
          "type": "tuple"
        }
      ],
      "name": "updatePositionCallback",
      "outputs": [],
      "stateMutability": "nonpayable",
      "type": "function"
    },
    {
      "inputs": [
        {
          "components": [
            {
              "internalType": "address",
              "name": "_market",
              "type": "address"
            },
            {
              "internalType": "bool",
              "name": "_isLong",
              "type": "bool"
            },
            {
              "internalType": "uint256",
              "name": "_oraclePrice",
              "type": "uint256"
            },
            {
              "internalType": "bool",
              "name": "isOpen",
              "type": "bool"
            },
            {
              "internalType": "address",
              "name": "_account",
              "type": "address"
            },
            {
              "internalType": "uint256",
              "name": "_sizeDelta",
              "type": "uint256"
            },
            {
              "internalType": "uint256",
              "name": "_price",
              "type": "uint256"
            },
            {
              "internalType": "uint256",
              "name": "_slippage",
              "type": "uint256"
            },
            {
              "internalType": "bool",
              "name": "_isExec",
              "type": "bool"
            },
            {
              "internalType": "uint8",
              "name": "liqState",
              "type": "uint8"
            },
            {
              "internalType": "uint64",
              "name": "_fromOrder",
              "type": "uint64"
            },
            {
              "internalType": "bytes32",
              "name": "_refCode",
              "type": "bytes32"
            },
            {
              "internalType": "uint256",
              "name": "collateralDelta",
              "type": "uint256"
            },
            {
              "internalType": "uint8",
              "name": "execNum",
              "type": "uint8"
            },
            {
              "internalType": "uint256[]",
              "name": "inputs",
              "type": "uint256[]"
            }
          ],
          "internalType": "struct MarketDataTypes.UpdatePositionInputs",
          "name": "_inputs",
          "type": "tuple"
        }
      ],
      "name": "validateIncreasePosition",
      "outputs": [],
      "stateMutability": "view",
      "type": "function"
    },
    {
      "inputs": [],
      "name": "vaultRouter",
      "outputs": [
        {
          "internalType": "address",
          "name": "",
          "type": "address"
        }
      ],
      "stateMutability": "view",
      "type": "function"
    }
  ],
  "bytecode": {
    "object": "0x608060405234801561001057600080fd5b50610a39806100206000396000f3fe608060405234801561001057600080fd5b50600436106100b45760003560e01c8063718cb58a11610071578063718cb58a1461017457806393e3063314610182578063cce9a2f314610190578063cd6ebf6614610182578063d37c441c1461019e578063db9132361461018257600080fd5b80630799f55f146100b95780631cfe5828146100d85780632073b0ce146100eb5780632ca6d2c0146100fb57806340a542fe14610112578063612c39b714610120575b600080fd5b612710805b604080519283526020830191909152015b60405180910390f35b6100e96100e63660046104bd565b50565b005b60405161271081526020016100cf565b6100be6101093660046104f9565b50612710908190565b6100e96100e63660046105ff565b604080516060808201835260008083526020808401829052928401528251808201845260018082528184018181529185018181528551918252915115159381019390935251151592820192909252016100cf565b6100e96100e6366004610872565b6100e96100e63660046104f9565b6100e96100e6366004610935565b6040513081526020016100cf565b634e487b7160e01b600052604160045260246000fd5b6040516101e081016001600160401b03811182821017156101e5576101e56101ac565b60405290565b60405161018081016001600160401b03811182821017156101e5576101e56101ac565b60405160c081016001600160401b03811182821017156101e5576101e56101ac565b6040516101a081016001600160401b03811182821017156101e5576101e56101ac565b60405160a081016001600160401b03811182821017156101e5576101e56101ac565b60405160e081016001600160401b03811182821017156101e5576101e56101ac565b604051601f8201601f191681016001600160401b03811182821017156102bf576102bf6101ac565b604052919050565b80356001600160a01b03811681146102de57600080fd5b919050565b803580151581146102de57600080fd5b803560ff811681146102de57600080fd5b80356001600160401b03811681146102de57600080fd5b60006001600160401b03821115610334576103346101ac565b5060051b60200190565b600082601f83011261034f57600080fd5b8135602061036461035f8361031b565b610297565b82815260059290921b8401810191818101908684111561038357600080fd5b8286015b8481101561039e5780358352918301918301610387565b509695505050505050565b60006101e082840312156103bc57600080fd5b6103c46101c2565b90506103cf826102c7565b81526103dd602083016102e3565b6020820152604082013560408201526103f8606083016102e3565b6060820152610409608083016102c7565b608082015260a082013560a082015260c082013560c082015260e082013560e082015261010061043a8184016102e3565b9082015261012061044c8382016102f3565b9082015261014061045e838201610304565b90820152610160828101359082015261018080830135908201526101a06104868184016102f3565b908201526101c0828101356001600160401b038111156104a557600080fd5b6104b18582860161033e565b82840152505092915050565b6000602082840312156104cf57600080fd5b81356001600160401b038111156104e557600080fd5b6104f1848285016103a9565b949350505050565b60006020828403121561050b57600080fd5b610514826102c7565b9392505050565b803563ffffffff811681146102de57600080fd5b80356001600160d81b03811681146102de57600080fd5b6000610180828403121561055957600080fd5b6105616101eb565b905061056c826102c7565b815261057a602083016102e3565b602082015261058b6040830161051b565b604082015261059c6060830161052f565b60608201526080820135608082015260a082013560a082015260c082013560c082015260e082013560e082015261010080830135818301525061012080830135818301525061014080830135818301525061016080830135818301525092915050565b60006020828403121561061157600080fd5b81356001600160401b038082111561062857600080fd5b90830190610220828603121561063d57600080fd5b61064561020e565b82358281111561065457600080fd5b610660878286016103a9565b8252506106708660208501610546565b60208201526101a08301358281111561068857600080fd5b6106948782860161033e565b6040830152506106a76101c084016102c7565b60608201526106b96101e084016102c7565b6080820152610200929092013560a0830152509392505050565b803565ffffffffffff811681146102de57600080fd5b80356fffffffffffffffffffffffffffffffff811681146102de57600080fd5b60006101a0828403121561071c57600080fd5b610724610230565b905061072f826102f3565b815261073d6020830161051b565b602082015261074e604083016102f3565b604082015261075f606083016102c7565b6060820152610770608083016106d3565b608082015261078160a083016106e9565b60a082015261079260c083016106e9565b60c08201526107a360e083016106e9565b60e08201526101006107b68184016106e9565b908201526101206107c8838201610304565b908201526101406107da838201610304565b908201526101606107ec8382016106e9565b818301525061018080830135818301525092915050565b600082601f83011261081457600080fd5b81356001600160401b0381111561082d5761082d6101ac565b610840601f8201601f1916602001610297565b81815284602083860101111561085557600080fd5b816020850160208301376000918101602001919091529392505050565b60006020828403121561088457600080fd5b81356001600160401b038082111561089b57600080fd5b9083019061022082860312156108b057600080fd5b6108b8610253565b6108c28684610709565b81526101a0830135828111156108d757600080fd5b6108e3878286016103a9565b6020830152506108f66101c084016102f3565b60408201526101e08301358281111561090e57600080fd5b61091a87828601610803565b60608301525061020092909201356080830152509392505050565b60006020828403121561094757600080fd5b81356001600160401b038082111561095e57600080fd5b90830190610260828603121561097357600080fd5b61097b610275565b610984836102c7565b8152610992602084016102e3565b6020820152604083013560408201526109ad606084016102e3565b60608201526109be608084016102e3565b60808201526109d08660a08501610709565b60a0820152610240830135828111156109e857600080fd5b6109f48782860161033e565b60c0830152509594505050505056fea2646970667358221220b94b800d7a7e8cc5bcdd8a73c199219d71384d7dc4b3ae54d0a9d492afc820bf64736f6c63430008110033",
    "linkReferences": {}
  },
  "methodIdentifiers": {
    "addMarket(address)": "93e30633",
    "deleteOrderCallback(((uint8,uint32,uint8,address,uint48,uint128,uint128,uint128,uint128,uint64,uint64,uint128,bytes32),(address,bool,uint256,bool,address,uint256,uint256,uint256,bool,uint8,uint64,bytes32,uint256,uint8,uint256[]),uint8,string,int256))": "718cb58a",
    "getAccountSize(address)": "2ca6d2c0",
    "getGlobalPNL()": "2073b0ce",
    "getGlobalSize()": "0799f55f",
    "getHooksCalls()": "612c39b7",
    "removeMarket(address)": "db913236",
    "updateOrderCallback((address,bool,uint256,bool,bool,(uint8,uint32,uint8,address,uint48,uint128,uint128,uint128,uint128,uint64,uint64,uint128,bytes32),uint256[]))": "cce9a2f3",
    "updatePositionBook(address)": "cd6ebf66",
    "updatePositionCallback(((address,bool,uint256,bool,address,uint256,uint256,uint256,bool,uint8,uint64,bytes32,uint256,uint8,uint256[]),(address,bool,uint32,uint216,uint256,uint256,uint256,int256,int256,uint256,uint256,uint256),int256[],address,address,int256))": "40a542fe",
    "validateIncreasePosition((address,bool,uint256,bool,address,uint256,uint256,uint256,bool,uint8,uint64,bytes32,uint256,uint8,uint256[]))": "1cfe5828",
    "vaultRouter()": "d37c441c"
  },
  "id": 44
}