{
  "abi": [
    {
      "inputs": [
        {
          "internalType": "address",
          "name": "account",
          "type": "address"
        },
        {
          "internalType": "address",
          "name": "token",
          "type": "address"
        },
        {
          "internalType": "int256[]",
          "name": "fees",
          "type": "int256[]"
        }
      ],
      "name": "collectFees",
      "outputs": [],
      "stateMutability": "nonpayable",
      "type": "function"
    },
    {
      "inputs": [
        {
          "internalType": "address",
          "name": "",
          "type": "address"
        },
        {
          "internalType": "bool",
          "name": "",
          "type": "bool"
        }
      ],
      "name": "cumulativeFundingRates",
      "outputs": [
        {
          "internalType": "int256",
          "name": "",
          "type": "int256"
        }
      ],
      "stateMutability": "view",
      "type": "function"
    },
    {
      "inputs": [
        {
          "internalType": "address",
          "name": "_market",
          "type": "address"
        },
        {
          "internalType": "uint256",
          "name": "_sizeDelta",
          "type": "uint256"
        }
      ],
      "name": "getCloseFee",
      "outputs": [
        {
          "internalType": "uint256",
          "name": "",
          "type": "uint256"
        }
      ],
      "stateMutability": "view",
      "type": "function"
    },
    {
      "inputs": [
        {
          "internalType": "address",
          "name": "_account",
          "type": "address"
        },
        {
          "internalType": "address",
          "name": "_market",
          "type": "address"
        },
        {
          "internalType": "bool",
          "name": "_isLong",
          "type": "bool"
        }
      ],
      "name": "getCollateralFees",
      "outputs": [
        {
          "internalType": "int256",
          "name": "",
          "type": "int256"
        }
      ],
      "stateMutability": "view",
      "type": "function"
    },
    {
      "inputs": [
        {
          "internalType": "address",
          "name": "_market",
          "type": "address"
        }
      ],
      "name": "getExecFee",
      "outputs": [
        {
          "internalType": "uint256",
          "name": "",
          "type": "uint256"
        }
      ],
      "stateMutability": "view",
      "type": "function"
    },
    {
      "inputs": [
        {
          "components": [
            {
              "internalType": "address",
              "name": "_market",
              "type": "address"
            },
            {
              "internalType": "bool",
              "name": "_isLong",
              "type": "bool"
            },
            {
              "internalType": "uint256",
              "name": "_oraclePrice",
              "type": "uint256"
            },
            {
              "internalType": "bool",
              "name": "isOpen",
              "type": "bool"
            },
            {
              "internalType": "address",
              "name": "_account",
              "type": "address"
            },
            {
              "internalType": "uint256",
              "name": "_sizeDelta",
              "type": "uint256"
            },
            {
              "internalType": "uint256",
              "name": "_price",
              "type": "uint256"
            },
            {
              "internalType": "uint256",
              "name": "_slippage",
              "type": "uint256"
            },
            {
              "internalType": "bool",
              "name": "_isExec",
              "type": "bool"
            },
            {
              "internalType": "uint8",
              "name": "liqState",
              "type": "uint8"
            },
            {
              "internalType": "uint64",
              "name": "_fromOrder",
              "type": "uint64"
            },
            {
              "internalType": "bytes32",
              "name": "_refCode",
              "type": "bytes32"
            },
            {
              "internalType": "uint256",
              "name": "collateralDelta",
              "type": "uint256"
            },
            {
              "internalType": "uint8",
              "name": "execNum",
              "type": "uint8"
            },
            {
              "internalType": "uint256[]",
              "name": "inputs",
              "type": "uint256[]"
            }
          ],
          "internalType": "struct MarketDataTypes.UpdatePositionInputs",
          "name": "_params",
          "type": "tuple"
        },
        {
          "components": [
            {
              "internalType": "address",
              "name": "market",
              "type": "address"
            },
            {
              "internalType": "bool",
              "name": "isLong",
              "type": "bool"
            },
            {
              "internalType": "uint32",
              "name": "lastTime",
              "type": "uint32"
            },
            {
              "internalType": "uint216",
              "name": "extra3",
              "type": "uint216"
            },
            {
              "internalType": "uint256",
              "name": "size",
              "type": "uint256"
            },
            {
              "internalType": "uint256",
              "name": "collateral",
              "type": "uint256"
            },
            {
              "internalType": "uint256",
              "name": "averagePrice",
              "type": "uint256"
            },
            {
              "internalType": "int256",
              "name": "entryFundingRate",
              "type": "int256"
            },
            {
              "internalType": "int256",
              "name": "realisedPnl",
              "type": "int256"
            },
            {
              "internalType": "uint256",
              "name": "extra0",
              "type": "uint256"
            },
            {
              "internalType": "uint256",
              "name": "extra1",
              "type": "uint256"
            },
            {
              "internalType": "uint256",
              "name": "extra2",
              "type": "uint256"
            }
          ],
          "internalType": "struct Position.Props",
          "name": "_position",
          "type": "tuple"
        }
      ],
      "name": "getFees",
      "outputs": [
        {
          "internalType": "int256[]",
          "name": "",
          "type": "int256[]"
        }
      ],
      "stateMutability": "view",
      "type": "function"
    },
    {
      "inputs": [
        {
          "internalType": "address",
          "name": "_account",
          "type": "address"
        },
        {
          "internalType": "address",
          "name": "_market",
          "type": "address"
        },
        {
          "internalType": "bool",
          "name": "_isLong",
          "type": "bool"
        },
        {
          "internalType": "uint256",
          "name": "_size",
          "type": "uint256"
        },
        {
          "internalType": "bool",
          "name": "_isExec",
          "type": "bool"
        },
        {
          "internalType": "bool",
          "name": "_isOpen",
          "type": "bool"
        }
      ],
      "name": "getFees",
      "outputs": [
        {
          "internalType": "int256",
          "name": "",
          "type": "int256"
        }
      ],
      "stateMutability": "view",
      "type": "function"
    },
    {
      "inputs": [
        {
          "internalType": "address",
          "name": "_account",
          "type": "address"
        },
        {
          "internalType": "address",
          "name": "_market",
          "type": "address"
        },
        {
          "internalType": "bool",
          "name": "_isLong",
          "type": "bool"
        }
      ],
      "name": "getFundingFee",
      "outputs": [
        {
          "internalType": "int256",
          "name": "",
          "type": "int256"
        }
      ],
      "stateMutability": "view",
      "type": "function"
    },
    {
      "inputs": [
        {
          "internalType": "address",
          "name": "_market",
          "type": "address"
        }
      ],
      "name": "getLiquidateFee",
      "outputs": [
        {
          "internalType": "uint256",
          "name": "",
          "type": "uint256"
        }
      ],
      "stateMutability": "view",
      "type": "function"
    },
    {
      "inputs": [
        {
          "internalType": "address",
          "name": "_account",
          "type": "address"
        },
        {
          "internalType": "address",
          "name": "_market",
          "type": "address"
        },
        {
          "internalType": "bool",
          "name": "_isLong",
          "type": "bool"
        },
        {
          "internalType": "uint256",
          "name": "_size",
          "type": "uint256"
        }
      ],
      "name": "getLiquidateFees",
      "outputs": [
        {
          "internalType": "int256",
          "name": "",
          "type": "int256"
        }
      ],
      "stateMutability": "view",
      "type": "function"
    },
    {
      "inputs": [
        {
          "internalType": "address",
          "name": "_market",
          "type": "address"
        },
        {
          "internalType": "uint256",
          "name": "_sizeDelta",
          "type": "uint256"
        }
      ],
      "name": "getOpenFee",
      "outputs": [
        {
          "internalType": "uint256",
          "name": "",
          "type": "uint256"
        }
      ],
      "stateMutability": "view",
      "type": "function"
    },
    {
      "inputs": [
        {
          "components": [
            {
              "internalType": "address",
              "name": "_market",
              "type": "address"
            },
            {
              "internalType": "bool",
              "name": "_isLong",
              "type": "bool"
            },
            {
              "internalType": "uint256",
              "name": "_oraclePrice",
              "type": "uint256"
            },
            {
              "internalType": "bool",
              "name": "isOpen",
              "type": "bool"
            },
            {
              "internalType": "bool",
              "name": "isCreate",
              "type": "bool"
            },
            {
              "components": [
                {
                  "internalType": "uint8",
                  "name": "version",
                  "type": "uint8"
                },
                {
                  "internalType": "uint32",
                  "name": "updatedAtBlock",
                  "type": "uint32"
                },
                {
                  "internalType": "uint8",
                  "name": "triggerAbove",
                  "type": "uint8"
                },
                {
                  "internalType": "address",
                  "name": "account",
                  "type": "address"
                },
                {
                  "internalType": "uint48",
                  "name": "extra3",
                  "type": "uint48"
                },
                {
                  "internalType": "uint128",
                  "name": "collateral",
                  "type": "uint128"
                },
                {
                  "internalType": "uint128",
                  "name": "size",
                  "type": "uint128"
                },
                {
                  "internalType": "uint128",
                  "name": "price",
                  "type": "uint128"
                },
                {
                  "internalType": "uint128",
                  "name": "extra1",
                  "type": "uint128"
                },
                {
                  "internalType": "uint64",
                  "name": "orderID",
                  "type": "uint64"
                },
                {
                  "internalType": "uint64",
                  "name": "extra2",
                  "type": "uint64"
                },
                {
                  "internalType": "uint128",
                  "name": "extra0",
                  "type": "uint128"
                },
                {
                  "internalType": "bytes32",
                  "name": "refCode",
                  "type": "bytes32"
                }
              ],
              "internalType": "struct Order.Props",
              "name": "_order",
              "type": "tuple"
            },
            {
              "internalType": "uint256[]",
              "name": "inputs",
              "type": "uint256[]"
            }
          ],
          "internalType": "struct MarketDataTypes.UpdateOrderInputs",
          "name": "params",
          "type": "tuple"
        }
      ],
      "name": "getOrderFees",
      "outputs": [
        {
          "internalType": "int256",
          "name": "fees",
          "type": "int256"
        }
      ],
      "stateMutability": "view",
      "type": "function"
    },
    {
      "inputs": [
        {
          "internalType": "address",
          "name": "market",
          "type": "address"
        },
        {
          "internalType": "bool",
          "name": "isLong",
          "type": "bool"
        },
        {
          "internalType": "int256",
          "name": "rate",
          "type": "int256"
        }
      ],
      "name": "setCumulativeFundingRates",
      "outputs": [],
      "stateMutability": "nonpayable",
      "type": "function"
    },
    {
      "inputs": [
        {
          "internalType": "uint256",
          "name": "_execFee",
          "type": "uint256"
        },
        {
          "internalType": "uint256",
          "name": "_liquidateFee",
          "type": "uint256"
        }
      ],
      "name": "setExecAndLiquidateFees",
      "outputs": [],
      "stateMutability": "nonpayable",
      "type": "function"
    },
    {
      "inputs": [
        {
          "internalType": "int256",
          "name": "_fee",
          "type": "int256"
        }
      ],
      "name": "setFundFee",
      "outputs": [],
      "stateMutability": "nonpayable",
      "type": "function"
    },
    {
      "inputs": [
        {
          "internalType": "uint256",
          "name": "_openFeeRate",
          "type": "uint256"
        },
        {
          "internalType": "uint256",
          "name": "_closeFeeRate",
          "type": "uint256"
        }
      ],
      "name": "setOpenCloseFeeRate",
      "outputs": [],
      "stateMutability": "nonpayable",
      "type": "function"
    },
    {
      "inputs": [
        {
          "internalType": "address",
          "name": "market",
          "type": "address"
        },
        {
          "internalType": "uint256",
          "name": "longSize",
          "type": "uint256"
        },
        {
          "internalType": "uint256",
          "name": "shortSize",
          "type": "uint256"
        }
      ],
      "name": "updateCumulativeFundingRate",
      "outputs": [],
      "stateMutability": "nonpayable",
      "type": "function"
    }
  ],
  "bytecode": {
    "object": "0x6080604052620186a060005534801561001757600080fd5b50610e3e806100276000396000f3fe608060405234801561001057600080fd5b506004361061010b5760003560e01c806382d84fac116100a2578063c6f83ad111610071578063c6f83ad114610243578063c8830bf514610256578063ddb3d1a71461026a578063e50f19ef14610282578063fbbf57f91461029057600080fd5b806382d84fac146101f2578063889be285146102055780638dfc0f341461021d5780639cfd59cd1461023057600080fd5b806334f32e25116100de57806334f32e251461018157806341510263146101ac57806347a994e9146101cc5780635d88f246146101df57600080fd5b806309d3989714610110578063114300fc146101385780631cdedb761461014d5780632a45ab8414610168575b600080fd5b61012561011e36600461046c565b5060015490565b6040519081526020015b60405180910390f35b61012561014636600461046c565b5060025490565b61016661015b36600461048e565b600191909155600255565b005b61016661017636600461048e565b600391909155600455565b61012561018f3660046104c0565b600560209081526000928352604080842090915290825290205481565b6101bf6101ba36600461076b565b6102c6565b60405161012f91906108b1565b6101256101da3660046108f5565b610335565b6101256101ed366004610962565b6103af565b610125610200366004610962565b6103fe565b61012561021336600461098c565b6000549392505050565b61016661022b3660046109cf565b600055565b61012561023e3660046109e8565b610424565b610166610251366004610a33565b505050565b610125610264366004610b96565b50600a90565b61012561027836600461098c565b5050600054919050565b610166610251366004610c65565b61016661029e366004610d19565b6001600160a01b03909216600090815260056020908152604080832093151583529290522055565b6040805160028082526060808301845292600092919060208301908036833701905050905060148160008151811061030057610300610d55565b602002602001018181525050601e8160018151811061032157610321610d55565b602090810291909101015290505b92915050565b6000806000831561035b5761034a88876103fe565b6103549082610d81565b9050610382565b61036588876103af565b61036f9082610d81565b60005490915061037f9083610d94565b91505b8415610398576001546103959083610d94565b91505b6103a28183610d94565b9998505050505050505050565b6000816000036103c15750600061032f565b60045460006305f5e1006103d58382610dbc565b6103df9086610dcf565b6103e99190610de6565b90506103f58185610dbc565b95945050505050565b6000816000036104105750600061032f565b60035460006305f5e1006103d58382610dbc565b60008061043686868686600080610335565b9050600254816104469190610d94565b9695505050505050565b80356001600160a01b038116811461046757600080fd5b919050565b60006020828403121561047e57600080fd5b61048782610450565b9392505050565b600080604083850312156104a157600080fd5b50508035926020909101359150565b8035801515811461046757600080fd5b600080604083850312156104d357600080fd5b6104dc83610450565b91506104ea602084016104b0565b90509250929050565b634e487b7160e01b600052604160045260246000fd5b604051610180810167ffffffffffffffff8111828210171561052d5761052d6104f3565b60405290565b6040516101e0810167ffffffffffffffff8111828210171561052d5761052d6104f3565b6040516101a0810167ffffffffffffffff8111828210171561052d5761052d6104f3565b60405160e0810167ffffffffffffffff8111828210171561052d5761052d6104f3565b604051601f8201601f1916810167ffffffffffffffff811182821017156105c7576105c76104f3565b604052919050565b803560ff8116811461046757600080fd5b803567ffffffffffffffff8116811461046757600080fd5b600067ffffffffffffffff821115610612576106126104f3565b5060051b60200190565b600082601f83011261062d57600080fd5b8135602061064261063d836105f8565b61059e565b82815260059290921b8401810191818101908684111561066157600080fd5b8286015b8481101561067c5780358352918301918301610665565b509695505050505050565b803563ffffffff8116811461046757600080fd5b80356001600160d81b038116811461046757600080fd5b600061018082840312156106c557600080fd5b6106cd610509565b90506106d882610450565b81526106e6602083016104b0565b60208201526106f760408301610687565b60408201526107086060830161069b565b60608201526080820135608082015260a082013560a082015260c082013560c082015260e082013560e082015261010080830135818301525061012080830135818301525061014080830135818301525061016080830135818301525092915050565b6000806101a080848603121561078057600080fd5b833567ffffffffffffffff8082111561079857600080fd5b908501906101e082880312156107ad57600080fd5b6107b5610533565b6107be83610450565b81526107cc602084016104b0565b6020820152604083013560408201526107e7606084016104b0565b60608201526107f860808401610450565b608082015260a083013560a082015260c083013560c082015260e083013560e08201526101006108298185016104b0565b9082015261012061083b8482016105cf565b9082015261014061084d8482016105e0565b90820152610160838101359082015261018080840135908201526108728484016105cf565b848201526101c09350838301358281111561088c57600080fd5b6108988982860161061c565b8583015250809550505050506104ea84602085016106b2565b6020808252825182820181905260009190848201906040850190845b818110156108e9578351835292840192918401916001016108cd565b50909695505050505050565b60008060008060008060c0878903121561090e57600080fd5b61091787610450565b955061092560208801610450565b9450610933604088016104b0565b935060608701359250610948608088016104b0565b915061095660a088016104b0565b90509295509295509295565b6000806040838503121561097557600080fd5b61097e83610450565b946020939093013593505050565b6000806000606084860312156109a157600080fd5b6109aa84610450565b92506109b860208501610450565b91506109c6604085016104b0565b90509250925092565b6000602082840312156109e157600080fd5b5035919050565b600080600080608085870312156109fe57600080fd5b610a0785610450565b9350610a1560208601610450565b9250610a23604086016104b0565b9396929550929360600135925050565b600080600060608486031215610a4857600080fd5b610a5184610450565b95602085013595506040909401359392505050565b803565ffffffffffff8116811461046757600080fd5b80356fffffffffffffffffffffffffffffffff8116811461046757600080fd5b60006101a08284031215610aaf57600080fd5b610ab7610557565b9050610ac2826105cf565b8152610ad060208301610687565b6020820152610ae1604083016105cf565b6040820152610af260608301610450565b6060820152610b0360808301610a66565b6080820152610b1460a08301610a7c565b60a0820152610b2560c08301610a7c565b60c0820152610b3660e08301610a7c565b60e0820152610100610b49818401610a7c565b90820152610120610b5b8382016105e0565b90820152610140610b6d8382016105e0565b90820152610160610b7f838201610a7c565b818301525061018080830135818301525092915050565b600060208284031215610ba857600080fd5b813567ffffffffffffffff80821115610bc057600080fd5b908301906102608286031215610bd557600080fd5b610bdd61057b565b610be683610450565b8152610bf4602084016104b0565b602082015260408301356040820152610c0f606084016104b0565b6060820152610c20608084016104b0565b6080820152610c328660a08501610a9c565b60a082015261024083013582811115610c4a57600080fd5b610c568782860161061c565b60c08301525095945050505050565b600080600060608486031215610c7a57600080fd5b610c8384610450565b92506020610c92818601610450565b9250604085013567ffffffffffffffff811115610cae57600080fd5b8501601f81018713610cbf57600080fd5b8035610ccd61063d826105f8565b81815260059190911b82018301908381019089831115610cec57600080fd5b928401925b82841015610d0a57833582529284019290840190610cf1565b80955050505050509250925092565b600080600060608486031215610d2e57600080fd5b610d3784610450565b9250610d45602085016104b0565b9150604084013590509250925092565b634e487b7160e01b600052603260045260246000fd5b634e487b7160e01b600052601160045260246000fd5b8082018082111561032f5761032f610d6b565b8082018281126000831280158216821582161715610db457610db4610d6b565b505092915050565b8181038181111561032f5761032f610d6b565b808202811582820484141761032f5761032f610d6b565b600082610e0357634e487b7160e01b600052601260045260246000fd5b50049056fea264697066735822122009d21fee894e20e35a38bf1c26b41d586310acfde7872727e330a4c84cc0211e64736f6c63430008110033",
    "linkReferences": {}
  },
  "methodIdentifiers": {
    "collectFees(address,address,int256[])": "e50f19ef",
    "cumulativeFundingRates(address,bool)": "34f32e25",
    "getCloseFee(address,uint256)": "5d88f246",
    "getCollateralFees(address,address,bool)": "ddb3d1a7",
    "getExecFee(address)": "09d39897",
    "getFees((address,bool,uint256,bool,address,uint256,uint256,uint256,bool,uint8,uint64,bytes32,uint256,uint8,uint256[]),(address,bool,uint32,uint216,uint256,uint256,uint256,int256,int256,uint256,uint256,uint256))": "41510263",
    "getFees(address,address,bool,uint256,bool,bool)": "47a994e9",
    "getFundingFee(address,address,bool)": "889be285",
    "getLiquidateFee(address)": "114300fc",
    "getLiquidateFees(address,address,bool,uint256)": "9cfd59cd",
    "getOpenFee(address,uint256)": "82d84fac",
    "getOrderFees((address,bool,uint256,bool,bool,(uint8,uint32,uint8,address,uint48,uint128,uint128,uint128,uint128,uint64,uint64,uint128,bytes32),uint256[]))": "c8830bf5",
    "setCumulativeFundingRates(address,bool,int256)": "fbbf57f9",
    "setExecAndLiquidateFees(uint256,uint256)": "1cdedb76",
    "setFundFee(int256)": "8dfc0f34",
    "setOpenCloseFeeRate(uint256,uint256)": "2a45ab84",
    "updateCumulativeFundingRate(address,uint256,uint256)": "c6f83ad1"
  },
  "id": 38
}