{
  "abi": [
    {
      "anonymous": false,
      "inputs": [
        {
          "indexed": true,
          "internalType": "address",
          "name": "account",
          "type": "address"
        },
        {
          "indexed": false,
          "internalType": "uint256",
          "name": "amount0",
          "type": "uint256"
        },
        {
          "indexed": false,
          "internalType": "uint256",
          "name": "amount1",
          "type": "uint256"
        }
      ],
      "name": "Boost",
      "type": "event"
    },
    {
      "anonymous": false,
      "inputs": [
        {
          "indexed": false,
          "internalType": "uint8",
          "name": "version",
          "type": "uint8"
        }
      ],
      "name": "Initialized",
      "type": "event"
    },
    {
      "anonymous": false,
      "inputs": [
        {
          "indexed": true,
          "internalType": "address",
          "name": "previousOwner",
          "type": "address"
        },
        {
          "indexed": true,
          "internalType": "address",
          "name": "newOwner",
          "type": "address"
        }
      ],
      "name": "OwnershipTransferred",
      "type": "event"
    },
    {
      "anonymous": false,
      "inputs": [
        {
          "indexed": true,
          "internalType": "bytes32",
          "name": "role",
          "type": "bytes32"
        },
        {
          "indexed": true,
          "internalType": "bytes32",
          "name": "previousAdminRole",
          "type": "bytes32"
        },
        {
          "indexed": true,
          "internalType": "bytes32",
          "name": "newAdminRole",
          "type": "bytes32"
        }
      ],
      "name": "RoleAdminChanged",
      "type": "event"
    },
    {
      "anonymous": false,
      "inputs": [
        {
          "indexed": true,
          "internalType": "bytes32",
          "name": "role",
          "type": "bytes32"
        },
        {
          "indexed": true,
          "internalType": "address",
          "name": "account",
          "type": "address"
        },
        {
          "indexed": true,
          "internalType": "address",
          "name": "sender",
          "type": "address"
        }
      ],
      "name": "RoleGranted",
      "type": "event"
    },
    {
      "anonymous": false,
      "inputs": [
        {
          "indexed": true,
          "internalType": "bytes32",
          "name": "role",
          "type": "bytes32"
        },
        {
          "indexed": true,
          "internalType": "address",
          "name": "account",
          "type": "address"
        },
        {
          "indexed": true,
          "internalType": "address",
          "name": "sender",
          "type": "address"
        }
      ],
      "name": "RoleRevoked",
      "type": "event"
    },
    {
      "inputs": [],
      "name": "DEFAULT_ADMIN_ROLE",
      "outputs": [
        {
          "internalType": "bytes32",
          "name": "",
          "type": "bytes32"
        }
      ],
      "stateMutability": "view",
      "type": "function"
    },
    {
      "inputs": [
        {
          "internalType": "uint256",
          "name": "_amount",
          "type": "uint256"
        }
      ],
      "name": "boost",
      "outputs": [],
      "stateMutability": "nonpayable",
      "type": "function"
    },
    {
      "inputs": [
        {
          "internalType": "address",
          "name": "_account",
          "type": "address"
        },
        {
          "internalType": "uint256",
          "name": "_amount",
          "type": "uint256"
        }
      ],
      "name": "boostForAccount",
      "outputs": [],
      "stateMutability": "nonpayable",
      "type": "function"
    },
    {
      "inputs": [],
      "name": "claimable",
      "outputs": [
        {
          "internalType": "uint256",
          "name": "",
          "type": "uint256"
        }
      ],
      "stateMutability": "view",
      "type": "function"
    },
    {
      "inputs": [],
      "name": "claimableToken",
      "outputs": [
        {
          "internalType": "address",
          "name": "",
          "type": "address"
        }
      ],
      "stateMutability": "view",
      "type": "function"
    },
    {
      "inputs": [],
      "name": "cumulativeReward",
      "outputs": [
        {
          "internalType": "uint256",
          "name": "",
          "type": "uint256"
        }
      ],
      "stateMutability": "view",
      "type": "function"
    },
    {
      "inputs": [],
      "name": "dailyEstokenLimit",
      "outputs": [
        {
          "internalType": "uint256",
          "name": "",
          "type": "uint256"
        }
      ],
      "stateMutability": "view",
      "type": "function"
    },
    {
      "inputs": [],
      "name": "esToken",
      "outputs": [
        {
          "internalType": "address",
          "name": "",
          "type": "address"
        }
      ],
      "stateMutability": "view",
      "type": "function"
    },
    {
      "inputs": [],
      "name": "esTokenPrice",
      "outputs": [
        {
          "internalType": "uint256",
          "name": "",
          "type": "uint256"
        }
      ],
      "stateMutability": "view",
      "type": "function"
    },
    {
      "inputs": [
        {
          "internalType": "bytes32",
          "name": "role",
          "type": "bytes32"
        }
      ],
      "name": "getRoleAdmin",
      "outputs": [
        {
          "internalType": "bytes32",
          "name": "",
          "type": "bytes32"
        }
      ],
      "stateMutability": "view",
      "type": "function"
    },
    {
      "inputs": [
        {
          "internalType": "address",
          "name": "_account",
          "type": "address"
        }
      ],
      "name": "grantControllerRoleByMarketManager",
      "outputs": [],
      "stateMutability": "nonpayable",
      "type": "function"
    },
    {
      "inputs": [
        {
          "internalType": "bytes32",
          "name": "role",
          "type": "bytes32"
        },
        {
          "internalType": "address",
          "name": "account",
          "type": "address"
        }
      ],
      "name": "grantRole",
      "outputs": [],
      "stateMutability": "nonpayable",
      "type": "function"
    },
    {
      "inputs": [
        {
          "internalType": "bytes32",
          "name": "role",
          "type": "bytes32"
        },
        {
          "internalType": "address",
          "name": "account",
          "type": "address"
        }
      ],
      "name": "hasRole",
      "outputs": [
        {
          "internalType": "bool",
          "name": "",
          "type": "bool"
        }
      ],
      "stateMutability": "view",
      "type": "function"
    },
    {
      "inputs": [
        {
          "internalType": "string",
          "name": "_name",
          "type": "string"
        },
        {
          "internalType": "string",
          "name": "_symbol",
          "type": "string"
        },
        {
          "internalType": "address",
          "name": "_esToken",
          "type": "address"
        },
        {
          "internalType": "address",
          "name": "_pairToken",
          "type": "address"
        },
        {
          "internalType": "address",
          "name": "_claimableToken",
          "type": "address"
        },
        {
          "internalType": "uint256",
          "name": "_startTime",
          "type": "uint256"
        }
      ],
      "name": "initialize",
      "outputs": [],
      "stateMutability": "nonpayable",
      "type": "function"
    },
    {
      "inputs": [],
      "name": "name",
      "outputs": [
        {
          "internalType": "string",
          "name": "",
          "type": "string"
        }
      ],
      "stateMutability": "view",
      "type": "function"
    },
    {
      "inputs": [],
      "name": "owner",
      "outputs": [
        {
          "internalType": "address",
          "name": "",
          "type": "address"
        }
      ],
      "stateMutability": "view",
      "type": "function"
    },
    {
      "inputs": [],
      "name": "pairToken",
      "outputs": [
        {
          "internalType": "address",
          "name": "",
          "type": "address"
        }
      ],
      "stateMutability": "view",
      "type": "function"
    },
    {
      "inputs": [],
      "name": "priceDecimals",
      "outputs": [
        {
          "internalType": "uint256",
          "name": "",
          "type": "uint256"
        }
      ],
      "stateMutability": "view",
      "type": "function"
    },
    {
      "inputs": [],
      "name": "renounceOwnership",
      "outputs": [],
      "stateMutability": "nonpayable",
      "type": "function"
    },
    {
      "inputs": [
        {
          "internalType": "bytes32",
          "name": "",
          "type": "bytes32"
        },
        {
          "internalType": "address",
          "name": "",
          "type": "address"
        }
      ],
      "name": "renounceRole",
      "outputs": [],
      "stateMutability": "nonpayable",
      "type": "function"
    },
    {
      "inputs": [
        {
          "internalType": "bytes32",
          "name": "role",
          "type": "bytes32"
        },
        {
          "internalType": "address",
          "name": "account",
          "type": "address"
        }
      ],
      "name": "revokeRole",
      "outputs": [],
      "stateMutability": "nonpayable",
      "type": "function"
    },
    {
      "inputs": [
        {
          "internalType": "uint256",
          "name": "amount",
          "type": "uint256"
        }
      ],
      "name": "setDailyEsTokenLimit",
      "outputs": [],
      "stateMutability": "nonpayable",
      "type": "function"
    },
    {
      "inputs": [
        {
          "internalType": "uint256",
          "name": "amount",
          "type": "uint256"
        }
      ],
      "name": "setEsTokenPrice",
      "outputs": [],
      "stateMutability": "nonpayable",
      "type": "function"
    },
    {
      "inputs": [],
      "name": "startDate",
      "outputs": [
        {
          "internalType": "uint256",
          "name": "",
          "type": "uint256"
        }
      ],
      "stateMutability": "view",
      "type": "function"
    },
    {
      "inputs": [
        {
          "internalType": "bytes4",
          "name": "interfaceId",
          "type": "bytes4"
        }
      ],
      "name": "supportsInterface",
      "outputs": [
        {
          "internalType": "bool",
          "name": "",
          "type": "bool"
        }
      ],
      "stateMutability": "view",
      "type": "function"
    },
    {
      "inputs": [],
      "name": "symbol",
      "outputs": [
        {
          "internalType": "string",
          "name": "",
          "type": "string"
        }
      ],
      "stateMutability": "view",
      "type": "function"
    },
    {
      "inputs": [
        {
          "internalType": "address",
          "name": "to",
          "type": "address"
        }
      ],
      "name": "transferAdmin",
      "outputs": [],
      "stateMutability": "nonpayable",
      "type": "function"
    },
    {
      "inputs": [
        {
          "internalType": "address",
          "name": "newOwner",
          "type": "address"
        }
      ],
      "name": "transferOwnership",
      "outputs": [],
      "stateMutability": "nonpayable",
      "type": "function"
    }
  ],
  "bytecode": {
    "object": "0x608060405234801561001057600080fd5b50600160005561001f33610024565b610076565b600280546001600160a01b038381166001600160a01b0319831681179093556040519116919082907f8be0079c531659141344cd1fd0a4f28419497f9722a3daafe3b4186f6b6457e090600090a35050565b6117c2806100856000396000f3fe608060405234801561001057600080fd5b50600436106101c45760003560e01c8063715018a6116100f9578063a217fddf11610097578063d547741f11610071578063d547741f1461037b578063edf3e29e1461038e578063f2fde38b146103a1578063f6d6d5aa146103b457600080fd5b8063a217fddf14610362578063af38d7571461036a578063c1e4db561461037257600080fd5b806389e9b26c116100d357806389e9b26c146103235780638da5cb5b1461033657806391d148541461034757806395d89b411461035a57600080fd5b8063715018a6146102f557806375829def146102fd5780637fe4a6981461031057600080fd5b80631b55d19e1161016657806336568abe1161014057806336568abe146102b85780633de35b79146102c657806349cdeba4146102d957806356df1fcd146102ec57600080fd5b80631b55d19e1461026e578063248a9ca3146102815780632f2ff15d146102a557600080fd5b806306fdde03116101a257806306fdde03146102105780630b97bc861461022557806313e293d81461022e57806316ca05c51461024357600080fd5b806301ffc9a7146101c957806305300b28146101f1578063057c63ef14610207575b600080fd5b6101dc6101d7366004611188565b6103c7565b60405190151581526020015b60405180910390f35b6101f9600881565b6040519081526020016101e8565b6101f960085481565b6102186103fe565b6040516101e891906111d6565b6101f960075481565b61024161023c366004611209565b61048c565b005b600454610256906001600160a01b031681565b6040516001600160a01b0390911681526020016101e8565b61024161027c366004611209565b6104bc565b6101f961028f366004611209565b6000908152600160208190526040909120015490565b6102416102b336600461123e565b6104db565b6102416101c436600461123e565b600554610256906001600160a01b031681565b6102416102e736600461126a565b610506565b6101f960095481565b610241610526565b61024161030b366004611294565b61053a565b61024161031e366004611294565b6105af565b610241610331366004611209565b6105d9565b6002546001600160a01b0316610256565b6101dc61035536600461123e565b610609565b610218610634565b6101f9600081565b6101f9610641565b6101f9600a5481565b61024161038936600461123e565b610691565b61024161039c366004611352565b6106b7565b6102416103af366004611294565b61087d565b600654610256906001600160a01b031681565b60006001600160e01b03198216637965db0b60e01b14806103f857506301ffc9a760e01b6001600160e01b03198316145b92915050565b600c805461040b906113f0565b80601f0160208091040260200160405190810160405280929190818152602001828054610437906113f0565b80156104845780601f1061045957610100808354040283529160200191610484565b820191906000526020600020905b81548152906001019060200180831161046757829003601f168201915b505050505081565b7fcb6bc1c12dd43bca8d7dd46d975f913325437d0dcd5978e99d515e4ad39b97726104b6816108f3565b50600955565b6104c46108fd565b6104ce3382610956565b6104d86001600055565b50565b600082815260016020819052604090912001546104f7816108f3565b6105018383610b11565b505050565b61050e6108fd565b6105188282610956565b6105226001600055565b5050565b61052e610b7c565b6105386000610bd6565b565b6000610545816108f3565b6001600160a01b0382166105905760405162461bcd60e51b815260206004820152600d60248201526c217a65726f206164647265737360981b60448201526064015b60405180910390fd5b61059b600083610c28565b6105a482610bd6565b610522600033610c32565b7f8d1089725c0dc266707fa6207730fb801dcd03108bfed7a21099bd303651d2b76101c4816108f3565b7fcb6bc1c12dd43bca8d7dd46d975f913325437d0dcd5978e99d515e4ad39b9772610603816108f3565b50600855565b60009182526001602090815260408084206001600160a01b0393909316845291905290205460ff1690565b600b805461040b906113f0565b600080600754426106529190611440565b90506000600a54610e1060186008548561066c9190611453565b610676919061146a565b610680919061146a565b61068a9190611440565b9392505050565b600082815260016020819052604090912001546106ad816108f3565b6105018383610c32565b600254600160a81b900460ff16158080156106df57506002546001600160a01b90910460ff16105b806107005750303b1580156107005750600254600160a01b900460ff166001145b6107635760405162461bcd60e51b815260206004820152602e60248201527f496e697469616c697a61626c653a20636f6e747261637420697320616c72656160448201526d191e481a5b9a5d1a585b1a5e995960921b6064820152608401610587565b6002805460ff60a01b1916600160a01b1790558015610790576002805460ff60a81b1916600160a81b1790555b61079933610c99565b600c6107a588826114da565b50600b6107b287826114da565b50600480546001600160a01b038088166001600160a01b03199283161790925560058054878416908316179055600680549286169290911691909117905560078290556108016012600a61167e565b61080d90611388611453565b600890815561081d90600a61168d565b6108299061016d611453565b6009558015610874576002805460ff60a81b19169055604051600181527f7f26b83ff96e1f2b6a682f133852f6798a09c465da95921460cefb38474024989060200160405180910390a15b50505050505050565b610885610b7c565b6001600160a01b0381166108ea5760405162461bcd60e51b815260206004820152602660248201527f4f776e61626c653a206e6577206f776e657220697320746865207a65726f206160448201526564647265737360d01b6064820152608401610587565b6104d881610bd6565b6104d88133610cbc565b60026000540361094f5760405162461bcd60e51b815260206004820152601f60248201527f5265656e7472616e637947756172643a207265656e7472616e742063616c6c006044820152606401610587565b6002600055565b600081116109a65760405162461bcd60e51b815260206004820152601760248201527f5665737465723a20696e76616c6964205f616d6f756e740000000000000000006044820152606401610587565b6109ae610641565b8111156109f35760405162461bcd60e51b81526020600482015260136024820152721d1bd9185e481b1a5b5a5d081c995858da1959606a1b6044820152606401610587565b600454610a0b906001600160a01b0316833084610d15565b6000610a196008600a61168d565b600954610a269084611453565b610a30919061146a565b600554909150610a4b906001600160a01b0316843084610d15565b6006546040516340c10f1960e01b81526001600160a01b03858116600483015260248201859052909116906340c10f1990604401600060405180830381600087803b158015610a9957600080fd5b505af1158015610aad573d6000803e3d6000fd5b5050505081600a6000828254610ac39190611699565b909155505060408051838152602081018390526001600160a01b038516917faadc628cb4fd3bb7a62795eb460290459458bdc6f387ffde727c740f42c18337910160405180910390a2505050565b610b1b8282610609565b6105225760008281526001602081815260408084206001600160a01b0386168086529252808420805460ff19169093179092559051339285917f2f8788117e7eff1d82e926ec794901d17c78024a50270940304540a733656f0d9190a45050565b6002546001600160a01b031633146105385760405162461bcd60e51b815260206004820181905260248201527f4f776e61626c653a2063616c6c6572206973206e6f7420746865206f776e65726044820152606401610587565b600280546001600160a01b038381166001600160a01b0319831681179093556040519116919082907f8be0079c531659141344cd1fd0a4f28419497f9722a3daafe3b4186f6b6457e090600090a35050565b6105228282610b11565b610c3c8282610609565b156105225760008281526001602090815260408083206001600160a01b0385168085529252808320805460ff1916905551339285917ff6391f5c32d9c69d2a47ea670b442974b53935d1edc7fd64eb21e047a839171b9190a45050565b42600355610ca633610bd6565b610cb1600033610c28565b6104d8600082610c28565b610cc68282610609565b61052257610cd381610d75565b610cde836020610d87565b604051602001610cef9291906116ac565b60408051601f198184030181529082905262461bcd60e51b8252610587916004016111d6565b604080516001600160a01b0385811660248301528416604482015260648082018490528251808303909101815260849091019091526020810180516001600160e01b03166323b872dd60e01b179052610d6f908590610f23565b50505050565b60606103f86001600160a01b03831660145b60606000610d96836002611453565b610da1906002611699565b67ffffffffffffffff811115610db957610db96112af565b6040519080825280601f01601f191660200182016040528015610de3576020820181803683370190505b509050600360fc1b81600081518110610dfe57610dfe611721565b60200101906001600160f81b031916908160001a905350600f60fb1b81600181518110610e2d57610e2d611721565b60200101906001600160f81b031916908160001a9053506000610e51846002611453565b610e5c906001611699565b90505b6001811115610ed4576f181899199a1a9b1b9c1cb0b131b232b360811b85600f1660108110610e9057610e90611721565b1a60f81b828281518110610ea657610ea6611721565b60200101906001600160f81b031916908160001a90535060049490941c93610ecd81611737565b9050610e5f565b50831561068a5760405162461bcd60e51b815260206004820181905260248201527f537472696e67733a20686578206c656e67746820696e73756666696369656e746044820152606401610587565b6000610f78826040518060400160405280602081526020017f5361666545524332303a206c6f772d6c6576656c2063616c6c206661696c6564815250856001600160a01b0316610ff89092919063ffffffff16565b9050805160001480610f99575080806020019051810190610f99919061174e565b6105015760405162461bcd60e51b815260206004820152602a60248201527f5361666545524332303a204552433230206f7065726174696f6e20646964206e6044820152691bdd081cdd58d8d9595960b21b6064820152608401610587565b6060611007848460008561100f565b949350505050565b6060824710156110705760405162461bcd60e51b815260206004820152602660248201527f416464726573733a20696e73756666696369656e742062616c616e636520666f6044820152651c8818d85b1b60d21b6064820152608401610587565b600080866001600160a01b0316858760405161108c9190611770565b60006040518083038185875af1925050503d80600081146110c9576040519150601f19603f3d011682016040523d82523d6000602084013e6110ce565b606091505b50915091506110df878383876110ea565b979650505050505050565b60608315611159578251600003611152576001600160a01b0385163b6111525760405162461bcd60e51b815260206004820152601d60248201527f416464726573733a2063616c6c20746f206e6f6e2d636f6e74726163740000006044820152606401610587565b5081611007565b611007838381511561116e5781518083602001fd5b8060405162461bcd60e51b815260040161058791906111d6565b60006020828403121561119a57600080fd5b81356001600160e01b03198116811461068a57600080fd5b60005b838110156111cd5781810151838201526020016111b5565b50506000910152565b60208152600082518060208401526111f58160408501602087016111b2565b601f01601f19169190910160400192915050565b60006020828403121561121b57600080fd5b5035919050565b80356001600160a01b038116811461123957600080fd5b919050565b6000806040838503121561125157600080fd5b8235915061126160208401611222565b90509250929050565b6000806040838503121561127d57600080fd5b61128683611222565b946020939093013593505050565b6000602082840312156112a657600080fd5b61068a82611222565b634e487b7160e01b600052604160045260246000fd5b600082601f8301126112d657600080fd5b813567ffffffffffffffff808211156112f1576112f16112af565b604051601f8301601f19908116603f01168101908282118183101715611319576113196112af565b8160405283815286602085880101111561133257600080fd5b836020870160208301376000602085830101528094505050505092915050565b60008060008060008060c0878903121561136b57600080fd5b863567ffffffffffffffff8082111561138357600080fd5b61138f8a838b016112c5565b975060208901359150808211156113a557600080fd5b506113b289828a016112c5565b9550506113c160408801611222565b93506113cf60608801611222565b92506113dd60808801611222565b915060a087013590509295509295509295565b600181811c9082168061140457607f821691505b60208210810361142457634e487b7160e01b600052602260045260246000fd5b50919050565b634e487b7160e01b600052601160045260246000fd5b818103818111156103f8576103f861142a565b80820281158282048414176103f8576103f861142a565b60008261148757634e487b7160e01b600052601260045260246000fd5b500490565b601f82111561050157600081815260208120601f850160051c810160208610156114b35750805b601f850160051c820191505b818110156114d2578281556001016114bf565b505050505050565b815167ffffffffffffffff8111156114f4576114f46112af565b6115088161150284546113f0565b8461148c565b602080601f83116001811461153d57600084156115255750858301515b600019600386901b1c1916600185901b1785556114d2565b600085815260208120601f198616915b8281101561156c5788860151825594840194600190910190840161154d565b508582101561158a5787850151600019600388901b60f8161c191681555b5050505050600190811b01905550565b600181815b808511156115d55781600019048211156115bb576115bb61142a565b808516156115c857918102915b93841c939080029061159f565b509250929050565b6000826115ec575060016103f8565b816115f9575060006103f8565b816001811461160f576002811461161957611635565b60019150506103f8565b60ff84111561162a5761162a61142a565b50506001821b6103f8565b5060208310610133831016604e8410600b8410161715611658575081810a6103f8565b611662838361159a565b80600019048211156116765761167661142a565b029392505050565b600061068a60ff8416836115dd565b600061068a83836115dd565b808201808211156103f8576103f861142a565b7f416363657373436f6e74726f6c3a206163636f756e74200000000000000000008152600083516116e48160178501602088016111b2565b7001034b99036b4b9b9b4b733903937b6329607d1b60179184019182015283516117158160288401602088016111b2565b01602801949350505050565b634e487b7160e01b600052603260045260246000fd5b6000816117465761174661142a565b506000190190565b60006020828403121561176057600080fd5b8151801515811461068a57600080fd5b600082516117828184602087016111b2565b919091019291505056fea26469706673582212205336b629d0782e9fba2d9091ee06679ea7e7ca27ad16ef9acc2e0a0728f0867d64736f6c63430008110033",
    "linkReferences": {}
  },
  "methodIdentifiers": {
    "DEFAULT_ADMIN_ROLE()": "a217fddf",
    "boost(uint256)": "1b55d19e",
    "boostForAccount(address,uint256)": "49cdeba4",
    "claimable()": "af38d757",
    "claimableToken()": "f6d6d5aa",
    "cumulativeReward()": "c1e4db56",
    "dailyEstokenLimit()": "057c63ef",
    "esToken()": "16ca05c5",
    "esTokenPrice()": "56df1fcd",
    "getRoleAdmin(bytes32)": "248a9ca3",
    "grantControllerRoleByMarketManager(address)": "7fe4a698",
    "grantRole(bytes32,address)": "2f2ff15d",
    "hasRole(bytes32,address)": "91d14854",
    "initialize(string,string,address,address,address,uint256)": "edf3e29e",
    "name()": "06fdde03",
    "owner()": "8da5cb5b",
    "pairToken()": "3de35b79",
    "priceDecimals()": "05300b28",
    "renounceOwnership()": "715018a6",
    "renounceRole(bytes32,address)": "36568abe",
    "revokeRole(bytes32,address)": "d547741f",
    "setDailyEsTokenLimit(uint256)": "89e9b26c",
    "setEsTokenPrice(uint256)": "13e293d8",
    "startDate()": "0b97bc86",
    "supportsInterface(bytes4)": "01ffc9a7",
    "symbol()": "95d89b41",
    "transferAdmin(address)": "75829def",
    "transferOwnership(address)": "f2fde38b"
  },
  "id": 92
}