{
  "abi": [
    {
      "anonymous": false,
      "inputs": [
        {
          "indexed": false,
          "internalType": "address",
          "name": "account",
          "type": "address"
        },
        {
          "indexed": false,
          "internalType": "uint256",
          "name": "sizeDelta",
          "type": "uint256"
        },
        {
          "indexed": false,
          "internalType": "uint256",
          "name": "marginFeeBasisPoints",
          "type": "uint256"
        },
        {
          "indexed": false,
          "internalType": "bytes32",
          "name": "referralCode",
          "type": "bytes32"
        },
        {
          "indexed": false,
          "internalType": "address",
          "name": "referrer",
          "type": "address"
        }
      ],
      "name": "DecreasePositionReferral",
      "type": "event"
    },
    {
      "anonymous": false,
      "inputs": [
        {
          "indexed": false,
          "internalType": "bytes32",
          "name": "code",
          "type": "bytes32"
        },
        {
          "indexed": false,
          "internalType": "address",
          "name": "newAccount",
          "type": "address"
        }
      ],
      "name": "GovSetCodeOwner",
      "type": "event"
    },
    {
      "anonymous": false,
      "inputs": [
        {
          "indexed": false,
          "internalType": "address",
          "name": "account",
          "type": "address"
        },
        {
          "indexed": false,
          "internalType": "uint256",
          "name": "sizeDelta",
          "type": "uint256"
        },
        {
          "indexed": false,
          "internalType": "uint256",
          "name": "marginFeeBasisPoints",
          "type": "uint256"
        },
        {
          "indexed": false,
          "internalType": "bytes32",
          "name": "referralCode",
          "type": "bytes32"
        },
        {
          "indexed": false,
          "internalType": "address",
          "name": "referrer",
          "type": "address"
        }
      ],
      "name": "IncreasePositionReferral",
      "type": "event"
    },
    {
      "anonymous": false,
      "inputs": [
        {
          "indexed": false,
          "internalType": "uint8",
          "name": "version",
          "type": "uint8"
        }
      ],
      "name": "Initialized",
      "type": "event"
    },
    {
      "anonymous": false,
      "inputs": [
        {
          "indexed": true,
          "internalType": "address",
          "name": "previousOwner",
          "type": "address"
        },
        {
          "indexed": true,
          "internalType": "address",
          "name": "newOwner",
          "type": "address"
        }
      ],
      "name": "OwnershipTransferred",
      "type": "event"
    },
    {
      "anonymous": false,
      "inputs": [
        {
          "indexed": false,
          "internalType": "address",
          "name": "account",
          "type": "address"
        },
        {
          "indexed": false,
          "internalType": "bytes32",
          "name": "code",
          "type": "bytes32"
        }
      ],
      "name": "RegisterCode",
      "type": "event"
    },
    {
      "anonymous": false,
      "inputs": [
        {
          "indexed": true,
          "internalType": "bytes32",
          "name": "role",
          "type": "bytes32"
        },
        {
          "indexed": true,
          "internalType": "bytes32",
          "name": "previousAdminRole",
          "type": "bytes32"
        },
        {
          "indexed": true,
          "internalType": "bytes32",
          "name": "newAdminRole",
          "type": "bytes32"
        }
      ],
      "name": "RoleAdminChanged",
      "type": "event"
    },
    {
      "anonymous": false,
      "inputs": [
        {
          "indexed": true,
          "internalType": "bytes32",
          "name": "role",
          "type": "bytes32"
        },
        {
          "indexed": true,
          "internalType": "address",
          "name": "account",
          "type": "address"
        },
        {
          "indexed": true,
          "internalType": "address",
          "name": "sender",
          "type": "address"
        }
      ],
      "name": "RoleGranted",
      "type": "event"
    },
    {
      "anonymous": false,
      "inputs": [
        {
          "indexed": true,
          "internalType": "bytes32",
          "name": "role",
          "type": "bytes32"
        },
        {
          "indexed": true,
          "internalType": "address",
          "name": "account",
          "type": "address"
        },
        {
          "indexed": true,
          "internalType": "address",
          "name": "sender",
          "type": "address"
        }
      ],
      "name": "RoleRevoked",
      "type": "event"
    },
    {
      "anonymous": false,
      "inputs": [
        {
          "indexed": false,
          "internalType": "address",
          "name": "account",
          "type": "address"
        },
        {
          "indexed": false,
          "internalType": "address",
          "name": "newAccount",
          "type": "address"
        },
        {
          "indexed": false,
          "internalType": "bytes32",
          "name": "code",
          "type": "bytes32"
        }
      ],
      "name": "SetCodeOwner",
      "type": "event"
    },
    {
      "anonymous": false,
      "inputs": [
        {
          "indexed": false,
          "internalType": "address",
          "name": "referrer",
          "type": "address"
        },
        {
          "indexed": false,
          "internalType": "uint256",
          "name": "discountShare",
          "type": "uint256"
        }
      ],
      "name": "SetReferrerDiscountShare",
      "type": "event"
    },
    {
      "anonymous": false,
      "inputs": [
        {
          "indexed": false,
          "internalType": "address",
          "name": "referrer",
          "type": "address"
        },
        {
          "indexed": false,
          "internalType": "uint256",
          "name": "tierId",
          "type": "uint256"
        }
      ],
      "name": "SetReferrerTier",
      "type": "event"
    },
    {
      "anonymous": false,
      "inputs": [
        {
          "indexed": false,
          "internalType": "uint256",
          "name": "tierId",
          "type": "uint256"
        },
        {
          "indexed": false,
          "internalType": "uint256",
          "name": "totalRebate",
          "type": "uint256"
        },
        {
          "indexed": false,
          "internalType": "uint256",
          "name": "discountShare",
          "type": "uint256"
        }
      ],
      "name": "SetTier",
      "type": "event"
    },
    {
      "anonymous": false,
      "inputs": [
        {
          "indexed": false,
          "internalType": "address",
          "name": "account",
          "type": "address"
        },
        {
          "indexed": false,
          "internalType": "bytes32",
          "name": "code",
          "type": "bytes32"
        }
      ],
      "name": "SetTraderReferralCode",
      "type": "event"
    },
    {
      "inputs": [],
      "name": "BASIS_POINTS",
      "outputs": [
        {
          "internalType": "uint256",
          "name": "",
          "type": "uint256"
        }
      ],
      "stateMutability": "view",
      "type": "function"
    },
    {
      "inputs": [],
      "name": "DEFAULT_ADMIN_ROLE",
      "outputs": [
        {
          "internalType": "bytes32",
          "name": "",
          "type": "bytes32"
        }
      ],
      "stateMutability": "view",
      "type": "function"
    },
    {
      "inputs": [],
      "name": "DEFAULT_CODE",
      "outputs": [
        {
          "internalType": "bytes32",
          "name": "",
          "type": "bytes32"
        }
      ],
      "stateMutability": "view",
      "type": "function"
    },
    {
      "inputs": [
        {
          "internalType": "bytes32",
          "name": "",
          "type": "bytes32"
        }
      ],
      "name": "codeOwners",
      "outputs": [
        {
          "internalType": "address",
          "name": "",
          "type": "address"
        }
      ],
      "stateMutability": "view",
      "type": "function"
    },
    {
      "inputs": [
        {
          "internalType": "bytes32[]",
          "name": "_codes",
          "type": "bytes32[]"
        }
      ],
      "name": "getCodeOwners",
      "outputs": [
        {
          "internalType": "address[]",
          "name": "",
          "type": "address[]"
        }
      ],
      "stateMutability": "view",
      "type": "function"
    },
    {
      "inputs": [],
      "name": "getHooksCalls",
      "outputs": [
        {
          "components": [
            {
              "internalType": "bool",
              "name": "updatePosition",
              "type": "bool"
            },
            {
              "internalType": "bool",
              "name": "updateOrder",
              "type": "bool"
            },
            {
              "internalType": "bool",
              "name": "deleteOrder",
              "type": "bool"
            }
          ],
          "internalType": "struct MarketCallBackIntl.Calls",
          "name": "",
          "type": "tuple"
        }
      ],
      "stateMutability": "pure",
      "type": "function"
    },
    {
      "inputs": [
        {
          "internalType": "bytes32",
          "name": "role",
          "type": "bytes32"
        }
      ],
      "name": "getRoleAdmin",
      "outputs": [
        {
          "internalType": "bytes32",
          "name": "",
          "type": "bytes32"
        }
      ],
      "stateMutability": "view",
      "type": "function"
    },
    {
      "inputs": [
        {
          "internalType": "address",
          "name": "_account",
          "type": "address"
        }
      ],
      "name": "getTraderReferralInfo",
      "outputs": [
        {
          "internalType": "bytes32",
          "name": "",
          "type": "bytes32"
        },
        {
          "internalType": "address",
          "name": "",
          "type": "address"
        }
      ],
      "stateMutability": "view",
      "type": "function"
    },
    {
      "inputs": [
        {
          "internalType": "bytes32",
          "name": "_code",
          "type": "bytes32"
        },
        {
          "internalType": "address",
          "name": "_newAccount",
          "type": "address"
        }
      ],
      "name": "govSetCodeOwner",
      "outputs": [],
      "stateMutability": "nonpayable",
      "type": "function"
    },
    {
      "inputs": [
        {
          "internalType": "address",
          "name": "_account",
          "type": "address"
        }
      ],
      "name": "grantControllerRoleByMarketManager",
      "outputs": [],
      "stateMutability": "nonpayable",
      "type": "function"
    },
    {
      "inputs": [
        {
          "internalType": "bytes32",
          "name": "role",
          "type": "bytes32"
        },
        {
          "internalType": "address",
          "name": "account",
          "type": "address"
        }
      ],
      "name": "grantRole",
      "outputs": [],
      "stateMutability": "nonpayable",
      "type": "function"
    },
    {
      "inputs": [
        {
          "internalType": "bytes32",
          "name": "role",
          "type": "bytes32"
        },
        {
          "internalType": "address",
          "name": "account",
          "type": "address"
        }
      ],
      "name": "hasRole",
      "outputs": [
        {
          "internalType": "bool",
          "name": "",
          "type": "bool"
        }
      ],
      "stateMutability": "view",
      "type": "function"
    },
    {
      "inputs": [],
      "name": "initialize",
      "outputs": [],
      "stateMutability": "nonpayable",
      "type": "function"
    },
    {
      "inputs": [],
      "name": "owner",
      "outputs": [
        {
          "internalType": "address",
          "name": "",
          "type": "address"
        }
      ],
      "stateMutability": "view",
      "type": "function"
    },
    {
      "inputs": [
        {
          "internalType": "address",
          "name": "",
          "type": "address"
        }
      ],
      "name": "referrerDiscountShares",
      "outputs": [
        {
          "internalType": "uint256",
          "name": "",
          "type": "uint256"
        }
      ],
      "stateMutability": "view",
      "type": "function"
    },
    {
      "inputs": [
        {
          "internalType": "address",
          "name": "",
          "type": "address"
        }
      ],
      "name": "referrerTiers",
      "outputs": [
        {
          "internalType": "uint256",
          "name": "",
          "type": "uint256"
        }
      ],
      "stateMutability": "view",
      "type": "function"
    },
    {
      "inputs": [
        {
          "internalType": "bytes32",
          "name": "_code",
          "type": "bytes32"
        }
      ],
      "name": "registerCode",
      "outputs": [],
      "stateMutability": "nonpayable",
      "type": "function"
    },
    {
      "inputs": [],
      "name": "renounceOwnership",
      "outputs": [],
      "stateMutability": "nonpayable",
      "type": "function"
    },
    {
      "inputs": [
        {
          "internalType": "bytes32",
          "name": "",
          "type": "bytes32"
        },
        {
          "internalType": "address",
          "name": "",
          "type": "address"
        }
      ],
      "name": "renounceRole",
      "outputs": [],
      "stateMutability": "nonpayable",
      "type": "function"
    },
    {
      "inputs": [
        {
          "internalType": "bytes32",
          "name": "role",
          "type": "bytes32"
        },
        {
          "internalType": "address",
          "name": "account",
          "type": "address"
        }
      ],
      "name": "revokeRole",
      "outputs": [],
      "stateMutability": "nonpayable",
      "type": "function"
    },
    {
      "inputs": [],
      "name": "rewarder",
      "outputs": [
        {
          "internalType": "address",
          "name": "",
          "type": "address"
        }
      ],
      "stateMutability": "view",
      "type": "function"
    },
    {
      "inputs": [
        {
          "internalType": "bytes32",
          "name": "_code",
          "type": "bytes32"
        },
        {
          "internalType": "address",
          "name": "_newAccount",
          "type": "address"
        }
      ],
      "name": "setCodeOwner",
      "outputs": [],
      "stateMutability": "nonpayable",
      "type": "function"
    },
    {
      "inputs": [
        {
          "internalType": "address",
          "name": "_account",
          "type": "address"
        },
        {
          "internalType": "uint256",
          "name": "_discountShare",
          "type": "uint256"
        }
      ],
      "name": "setReferrerDiscountShare",
      "outputs": [],
      "stateMutability": "nonpayable",
      "type": "function"
    },
    {
      "inputs": [
        {
          "internalType": "address",
          "name": "_referrer",
          "type": "address"
        },
        {
          "internalType": "uint256",
          "name": "_tierId",
          "type": "uint256"
        }
      ],
      "name": "setReferrerTier",
      "outputs": [],
      "stateMutability": "nonpayable",
      "type": "function"
    },
    {
      "inputs": [
        {
          "internalType": "uint256",
          "name": "_tierId",
          "type": "uint256"
        },
        {
          "internalType": "uint256",
          "name": "_totalRebate",
          "type": "uint256"
        },
        {
          "internalType": "uint256",
          "name": "_discountShare",
          "type": "uint256"
        }
      ],
      "name": "setTier",
      "outputs": [],
      "stateMutability": "nonpayable",
      "type": "function"
    },
    {
      "inputs": [
        {
          "internalType": "address",
          "name": "_account",
          "type": "address"
        },
        {
          "internalType": "bytes32",
          "name": "_code",
          "type": "bytes32"
        }
      ],
      "name": "setTraderReferralCode",
      "outputs": [],
      "stateMutability": "nonpayable",
      "type": "function"
    },
    {
      "inputs": [
        {
          "internalType": "bytes32",
          "name": "_code",
          "type": "bytes32"
        }
      ],
      "name": "setTraderReferralCodeByUser",
      "outputs": [],
      "stateMutability": "nonpayable",
      "type": "function"
    },
    {
      "inputs": [
        {
          "internalType": "bytes4",
          "name": "interfaceId",
          "type": "bytes4"
        }
      ],
      "name": "supportsInterface",
      "outputs": [
        {
          "internalType": "bool",
          "name": "",
          "type": "bool"
        }
      ],
      "stateMutability": "view",
      "type": "function"
    },
    {
      "inputs": [
        {
          "internalType": "uint256",
          "name": "",
          "type": "uint256"
        }
      ],
      "name": "tiers",
      "outputs": [
        {
          "internalType": "uint256",
          "name": "totalRebate",
          "type": "uint256"
        },
        {
          "internalType": "uint256",
          "name": "discountShare",
          "type": "uint256"
        }
      ],
      "stateMutability": "view",
      "type": "function"
    },
    {
      "inputs": [
        {
          "internalType": "address",
          "name": "",
          "type": "address"
        }
      ],
      "name": "traderReferralCodes",
      "outputs": [
        {
          "internalType": "bytes32",
          "name": "",
          "type": "bytes32"
        }
      ],
      "stateMutability": "view",
      "type": "function"
    },
    {
      "inputs": [
        {
          "internalType": "address",
          "name": "to",
          "type": "address"
        }
      ],
      "name": "transferAdmin",
      "outputs": [],
      "stateMutability": "nonpayable",
      "type": "function"
    },
    {
      "inputs": [
        {
          "internalType": "address",
          "name": "newOwner",
          "type": "address"
        }
      ],
      "name": "transferOwnership",
      "outputs": [],
      "stateMutability": "nonpayable",
      "type": "function"
    },
    {
      "inputs": [
        {
          "components": [
            {
              "components": [
                {
                  "internalType": "address",
                  "name": "_market",
                  "type": "address"
                },
                {
                  "internalType": "bool",
                  "name": "_isLong",
                  "type": "bool"
                },
                {
                  "internalType": "uint256",
                  "name": "_oraclePrice",
                  "type": "uint256"
                },
                {
                  "internalType": "bool",
                  "name": "isOpen",
                  "type": "bool"
                },
                {
                  "internalType": "address",
                  "name": "_account",
                  "type": "address"
                },
                {
                  "internalType": "uint256",
                  "name": "_sizeDelta",
                  "type": "uint256"
                },
                {
                  "internalType": "uint256",
                  "name": "_price",
                  "type": "uint256"
                },
                {
                  "internalType": "uint256",
                  "name": "_slippage",
                  "type": "uint256"
                },
                {
                  "internalType": "bool",
                  "name": "_isExec",
                  "type": "bool"
                },
                {
                  "internalType": "uint8",
                  "name": "liqState",
                  "type": "uint8"
                },
                {
                  "internalType": "uint64",
                  "name": "_fromOrder",
                  "type": "uint64"
                },
                {
                  "internalType": "bytes32",
                  "name": "_refCode",
                  "type": "bytes32"
                },
                {
                  "internalType": "uint256",
                  "name": "collateralDelta",
                  "type": "uint256"
                },
                {
                  "internalType": "uint8",
                  "name": "execNum",
                  "type": "uint8"
                },
                {
                  "internalType": "uint256[]",
                  "name": "inputs",
                  "type": "uint256[]"
                }
              ],
              "internalType": "struct MarketDataTypes.UpdatePositionInputs",
              "name": "inputs",
              "type": "tuple"
            },
            {
              "components": [
                {
                  "internalType": "address",
                  "name": "market",
                  "type": "address"
                },
                {
                  "internalType": "bool",
                  "name": "isLong",
                  "type": "bool"
                },
                {
                  "internalType": "uint32",
                  "name": "lastTime",
                  "type": "uint32"
                },
                {
                  "internalType": "uint216",
                  "name": "extra3",
                  "type": "uint216"
                },
                {
                  "internalType": "uint256",
                  "name": "size",
                  "type": "uint256"
                },
                {
                  "internalType": "uint256",
                  "name": "collateral",
                  "type": "uint256"
                },
                {
                  "internalType": "uint256",
                  "name": "averagePrice",
                  "type": "uint256"
                },
                {
                  "internalType": "int256",
                  "name": "entryFundingRate",
                  "type": "int256"
                },
                {
                  "internalType": "int256",
                  "name": "realisedPnl",
                  "type": "int256"
                },
                {
                  "internalType": "uint256",
                  "name": "extra0",
                  "type": "uint256"
                },
                {
                  "internalType": "uint256",
                  "name": "extra1",
                  "type": "uint256"
                },
                {
                  "internalType": "uint256",
                  "name": "extra2",
                  "type": "uint256"
                }
              ],
              "internalType": "struct Position.Props",
              "name": "position",
              "type": "tuple"
            },
            {
              "internalType": "int256[]",
              "name": "fees",
              "type": "int256[]"
            },
            {
              "internalType": "address",
              "name": "collateralToken",
              "type": "address"
            },
            {
              "internalType": "address",
              "name": "indexToken",
              "type": "address"
            },
            {
              "internalType": "int256",
              "name": "collateralDeltaAfter",
              "type": "int256"
            }
          ],
          "internalType": "struct MarketPositionCallBackIntl.UpdatePositionEvent",
          "name": "_event",
          "type": "tuple"
        }
      ],
      "name": "updatePositionCallback",
      "outputs": [],
      "stateMutability": "nonpayable",
      "type": "function"
    }
  ],
  "bytecode": {
    "object": "0x608060405234801561001057600080fd5b5061001a3361001f565b610071565b600180546001600160a01b038381166001600160a01b0319831681179093556040519116919082907f8be0079c531659141344cd1fd0a4f28419497f9722a3daafe3b4186f6b6457e090600090a35050565b611fba806100806000396000f3fe608060405234801561001057600080fd5b50600436106101fb5760003560e01c8063766238db1161011a578063c8b3c460116100ad578063dfcfa2501161007c578063dfcfa25014610502578063e1e01bf314610515578063e1f1c4a714610528578063ed84313414610531578063f2fde38b1461054457600080fd5b8063c8b3c46014610493578063d547741f146104bc578063d7897320146104cf578063dcc3e06e146104ef57600080fd5b806385725b58116100e957806385725b58146104335780638da5cb5b1461045357806391d1485414610478578063a217fddf1461048b57600080fd5b8063766238db146103f25780637fe4a698146104055780638129fc1c14610418578063836a01871461042057600080fd5b806340a542fe11610192578063612c39b711610161578063612c39b714610361578063715018a6146103b757806371a6a790146103bf57806375829def146103df57600080fd5b806340a542fe146102fe578063534ef88314610311578063544210d81461034157806356b4b2ad1461034e57600080fd5b80632f2ff15d116101ce5780632f2ff15d146102b557806336568abe146102ca57806336def2c8146102d85780633fb8b323146102eb57600080fd5b806301ffc9a714610200578063039af9eb146102285780631582a01814610264578063248a9ca314610292575b600080fd5b61021361020e36600461176c565b610557565b60405190151581526020015b60405180910390f35b61024f610236366004611796565b6005602052600090815260409020805460019091015482565b6040805192835260208301919091520161021f565b6102846102723660046117d4565b60046020526000908152604090205481565b60405190815260200161021f565b6102846102a0366004611796565b60009081526020819052604090206001015490565b6102c86102c33660046117f1565b61058e565b005b6102c86101fb3660046117f1565b6102c86102e6366004611796565b6105b8565b6102c86102f9366004611821565b6106a2565b6102c861030c366004611bc6565b610712565b61032461031f3660046117d4565b610b4b565b604080519283526001600160a01b0390911660208301520161021f565b6102846264656960e81b81565b6102c861035c366004611821565b610b91565b60408051606080820183526000808352602080840182905292840181905283518083018552600180825281850183815291860192835285519081529051151593810193909352511515928201929092520161021f565b6102c8610bb6565b6102846103cd3660046117d4565b60036020526000908152604090205481565b6102c86103ed3660046117d4565b610bca565b6102c8610400366004611821565b610c3a565b6102c86104133660046117d4565b610cf4565b6102c8610d8e565b6102c861042e366004611c9b565b610ef0565b6102846104413660046117d4565b60076020526000908152604090205481565b6001546001600160a01b03165b6040516001600160a01b03909116815260200161021f565b6102136104863660046117f1565b61101e565b610284600081565b6104606104a1366004611796565b6006602052600090815260409020546001600160a01b031681565b6102c86104ca3660046117f1565b611047565b6104e26104dd366004611cc7565b61106c565b60405161021f9190611d58565b600854610460906001600160a01b031681565b6102c86105103660046117f1565b61114b565b6102c8610523366004611796565b6111de565b61028461271081565b6102c861053f3660046117f1565b6111e8565b6102c86105523660046117d4565b6112cb565b60006001600160e01b03198216637965db0b60e01b148061058857506301ffc9a760e01b6001600160e01b03198316145b92915050565b6000828152602081905260409020600101546105a981611341565b6105b3838361134b565b505050565b806105de5760405162461bcd60e51b81526004016105d590611da5565b60405180910390fd5b6000818152600660205260409020546001600160a01b0316156106435760405162461bcd60e51b815260206004820152601d60248201527f526566657272616c3a20636f646520616c72656164792065786973747300000060448201526064016105d5565b60008181526006602090815260409182902080546001600160a01b0319163390811790915582519081529081018390527f04f82286a2a3b2ee5c8555de8304dfe2ea70991613213184b73a9e408d2d802991015b60405180910390a150565b6106b9600080516020611f65833981519152611341565b6001600160a01b038216600081815260046020908152604091829020849055815192835282018390527f7696855cdbb94bb5a44cb0a95caff6f29173aa1cbfba193834b12b90827ce2bc91015b60405180910390a15050565b61073b7fcb58d6d985142a614029cdf01861b4fe094d5919a47e69b8310dc4093d9d6ad0611341565b60008061074f836000015160800151610b4b565b845161016001519193509150826107a857835161016001516000908152600660205260409020546001600160a01b031691508161078c5750505050565b83516080810151610160909101516107a491906113cf565b8092505b6008546001600160a01b0316156108aa576008548451608081015160a090910151604051634813a28360e11b81526001600160a01b039283166004820152602481019190915260006044820152911690639027450690606401600060405180830381600087803b15801561081b57600080fd5b505af192505050801561082c575060015b506001600160a01b038216156108aa57600854845160a00151604051634813a28360e11b81526001600160a01b038581166004830152602482019290925260016044820152911690639027450690606401600060405180830381600087803b15801561089757600080fd5b505af19250505080156108a8575060015b505b835160600151156109fe577fc2414023ce7002ee98557d1e7be21e5559073336f2217ee5f9b2e50fd85f71ee846000015160800151856000015160a00151336001600160a01b031663f29ebf616040518163ffffffff1660e01b8152600401602060405180830381865afa158015610926573d6000803e3d6000fd5b505050506040513d601f19601f8201168201806040525081019061094a9190611ddc565b604051631b0ef00d60e31b8152336004820152600060248201526001600160a01b03919091169063d877806890604401602060405180830381865afa158015610997573d6000803e3d6000fd5b505050506040513d601f19601f820116820180604052508101906109bb9190611df9565b87516101600151604080516001600160a01b03958616815260208101949094528301919091526060820152908416608082015260a00160405180910390a1610b44565b7f474c763ff84bf2c2039a6d9fea955ecd0f724030e3c365b91169c6a16fe751b7846000015160800151856000015160a00151336001600160a01b031663f29ebf616040518163ffffffff1660e01b8152600401602060405180830381865afa158015610a6f573d6000803e3d6000fd5b505050506040513d601f19601f82011682018060405250810190610a939190611ddc565b604051631b0ef00d60e31b8152336004820152600160248201526001600160a01b03919091169063d877806890604401602060405180830381865afa158015610ae0573d6000803e3d6000fd5b505050506040513d601f19601f82011682018060405250810190610b049190611df9565b87516101600151604080516001600160a01b03958616815260208101949094528301919091526060820152908416608082015260a0015b60405180910390a15b5050505b50565b6001600160a01b0381166000908152600760205260408120548190818115610b8757506000818152600660205260409020546001600160a01b03165b9094909350915050565b610ba8600080516020611f65833981519152611341565b610bb282826113cf565b5050565b610bbe611420565b610bc8600061147a565b565b6000610bd581611341565b6001600160a01b038216610c1b5760405162461bcd60e51b815260206004820152600d60248201526c217a65726f206164647265737360981b60448201526064016105d5565b610c266000836114cc565b610c2f8261147a565b610bb26000336114d6565b610c51600080516020611f65833981519152611341565b612710811115610ca35760405162461bcd60e51b815260206004820152601f60248201527f526566657272616c3a20696e76616c696420646973636f756e7453686172650060448201526064016105d5565b6001600160a01b038216600081815260036020908152604091829020849055815192835282018390527fbd224f3917462b0fa80805fe3ec29be3a37f664955aad6224e5ece036224c4299101610706565b7f8d1089725c0dc266707fa6207730fb801dcd03108bfed7a21099bd303651d2b7610d1e81611341565b6001600160a01b038216610d645760405162461bcd60e51b815260206004820152600d60248201526c217a65726f206164647265737360981b60448201526064016105d5565b610bb27fcb58d6d985142a614029cdf01861b4fe094d5919a47e69b8310dc4093d9d6ad08361134b565b600154600160a81b900460ff1615808015610db4575060018054600160a01b900460ff16105b80610dd45750303b158015610dd4575060018054600160a01b900460ff16145b610e375760405162461bcd60e51b815260206004820152602e60248201527f496e697469616c697a61626c653a20636f6e747261637420697320616c72656160448201526d191e481a5b9a5d1a585b1a5e995960921b60648201526084016105d5565b6001805460ff60a01b1916600160a01b1790558015610e64576001805460ff60a81b1916600160a81b1790555b610e6d3361153b565b6264656960e81b60005260066020527fde1e4f22c0daf720ff22ad02f927876864de7c1cb91180aa6f578afdf6ac939a80546001600160a01b031916301790558015610b48576001805460ff60a81b191681556040519081527f7f26b83ff96e1f2b6a682f133852f6798a09c465da95921460cefb384740249890602001610697565b610f07600080516020611f65833981519152611341565b612710821115610f595760405162461bcd60e51b815260206004820152601d60248201527f526566657272616c3a20696e76616c696420746f74616c52656261746500000060448201526064016105d5565b612710811115610fab5760405162461bcd60e51b815260206004820152601f60248201527f526566657272616c3a20696e76616c696420646973636f756e7453686172650060448201526064016105d5565b600083815260056020818152604080842081518083018352878152808401878152958990529383528351815593516001909401939093558251868152908101859052918201839052907f4ebd23a492b2bd79586cb57cae40d7793408265f20320f68b478b971e696f4c790606001610b3b565b6000918252602082815260408084206001600160a01b0393909316845291905290205460ff1690565b60008281526020819052604090206001015461106281611341565b6105b383836114d6565b60606000825167ffffffffffffffff81111561108a5761108a61184d565b6040519080825280602002602001820160405280156110b3578160200160208202803683370190505b50905060005b83518110156111445760008482815181106110d6576110d6611e12565b602002602001015190506006600082815260200190815260200160002060009054906101000a90046001600160a01b031683838151811061111957611119611e12565b6001600160a01b0390921660209283029190910190910152508061113c81611e3e565b9150506110b9565b5092915050565b611162600080516020611f65833981519152611341565b8161117f5760405162461bcd60e51b81526004016105d590611da5565b60008281526006602090815260409182902080546001600160a01b0319166001600160a01b0385169081179091558251858152918201527f6431f88c655dd0e2b8d09b6405c007c515c66d67f2998e69c902873a8c8f3e979101610706565b610b4833826113cf565b60008281526006602052604090205482906001600160a01b03163381146112475760405162461bcd60e51b81526020600482015260136024820152722932b332b93930b61d103337b93134b23232b760691b60448201526064016105d5565b836112645760405162461bcd60e51b81526004016105d590611da5565b60008481526006602090815260409182902080546001600160a01b0319166001600160a01b0387169081179091558251338152918201529081018590527f5640856798d41ce9ca0a109b54c20a06eb99ba9c36ab4547115dafb8473cf39790606001610b3b565b6112d3611420565b6001600160a01b0381166113385760405162461bcd60e51b815260206004820152602660248201527f4f776e61626c653a206e6577206f776e657220697320746865207a65726f206160448201526564647265737360d01b60648201526084016105d5565b610b488161147a565b610b48813361155e565b611355828261101e565b610bb2576000828152602081815260408083206001600160a01b03851684529091529020805460ff1916600117905561138b3390565b6001600160a01b0316816001600160a01b0316837f2f8788117e7eff1d82e926ec794901d17c78024a50270940304540a733656f0d60405160405180910390a45050565b6001600160a01b038216600081815260076020908152604091829020849055815192835282018390527f43825f14567dda057e821be2e51a5aa79aa51f3907a647e3ed2bd486a01050f19101610706565b6001546001600160a01b03163314610bc85760405162461bcd60e51b815260206004820181905260248201527f4f776e61626c653a2063616c6c6572206973206e6f7420746865206f776e657260448201526064016105d5565b600180546001600160a01b038381166001600160a01b0319831681179093556040519116919082907f8be0079c531659141344cd1fd0a4f28419497f9722a3daafe3b4186f6b6457e090600090a35050565b610bb2828261134b565b6114e0828261101e565b15610bb2576000828152602081815260408083206001600160a01b0385168085529252808320805460ff1916905551339285917ff6391f5c32d9c69d2a47ea670b442974b53935d1edc7fd64eb21e047a839171b9190a45050565b426002556115483361147a565b6115536000336114cc565b610b486000826114cc565b611568828261101e565b610bb257611575816115b7565b6115808360206115c9565b604051602001611591929190611e7b565b60408051601f198184030181529082905262461bcd60e51b82526105d591600401611ef0565b60606105886001600160a01b03831660145b606060006115d8836002611f23565b6115e3906002611f3a565b67ffffffffffffffff8111156115fb576115fb61184d565b6040519080825280601f01601f191660200182016040528015611625576020820181803683370190505b509050600360fc1b8160008151811061164057611640611e12565b60200101906001600160f81b031916908160001a905350600f60fb1b8160018151811061166f5761166f611e12565b60200101906001600160f81b031916908160001a9053506000611693846002611f23565b61169e906001611f3a565b90505b6001811115611716576f181899199a1a9b1b9c1cb0b131b232b360811b85600f16601081106116d2576116d2611e12565b1a60f81b8282815181106116e8576116e8611e12565b60200101906001600160f81b031916908160001a90535060049490941c9361170f81611f4d565b90506116a1565b5083156117655760405162461bcd60e51b815260206004820181905260248201527f537472696e67733a20686578206c656e67746820696e73756666696369656e7460448201526064016105d5565b9392505050565b60006020828403121561177e57600080fd5b81356001600160e01b03198116811461176557600080fd5b6000602082840312156117a857600080fd5b5035919050565b6001600160a01b0381168114610b4857600080fd5b80356117cf816117af565b919050565b6000602082840312156117e657600080fd5b8135611765816117af565b6000806040838503121561180457600080fd5b823591506020830135611816816117af565b809150509250929050565b6000806040838503121561183457600080fd5b823561183f816117af565b946020939093013593505050565b634e487b7160e01b600052604160045260246000fd5b6040516101e0810167ffffffffffffffff811182821017156118875761188761184d565b60405290565b604051610180810167ffffffffffffffff811182821017156118875761188761184d565b60405160c0810167ffffffffffffffff811182821017156118875761188761184d565b604051601f8201601f1916810167ffffffffffffffff811182821017156118fd576118fd61184d565b604052919050565b803580151581146117cf57600080fd5b803560ff811681146117cf57600080fd5b803567ffffffffffffffff811681146117cf57600080fd5b600067ffffffffffffffff8211156119585761195861184d565b5060051b60200190565b600082601f83011261197357600080fd5b813560206119886119838361193e565b6118d4565b82815260059290921b840181019181810190868411156119a757600080fd5b8286015b848110156119c257803583529183019183016119ab565b509695505050505050565b60006101e082840312156119e057600080fd5b6119e8611863565b90506119f3826117c4565b8152611a0160208301611905565b602082015260408201356040820152611a1c60608301611905565b6060820152611a2d608083016117c4565b608082015260a082013560a082015260c082013560c082015260e082013560e0820152610100611a5e818401611905565b90820152610120611a70838201611915565b90820152610140611a82838201611926565b90820152610160828101359082015261018080830135908201526101a0611aaa818401611915565b908201526101c08281013567ffffffffffffffff811115611aca57600080fd5b611ad685828601611962565b82840152505092915050565b803563ffffffff811681146117cf57600080fd5b80356001600160d81b03811681146117cf57600080fd5b60006101808284031215611b2057600080fd5b611b2861188d565b9050611b33826117c4565b8152611b4160208301611905565b6020820152611b5260408301611ae2565b6040820152611b6360608301611af6565b60608201526080820135608082015260a082013560a082015260c082013560c082015260e082013560e082015261010080830135818301525061012080830135818301525061014080830135818301525061016080830135818301525092915050565b600060208284031215611bd857600080fd5b813567ffffffffffffffff80821115611bf057600080fd5b908301906102208286031215611c0557600080fd5b611c0d6118b1565b823582811115611c1c57600080fd5b611c28878286016119cd565b825250611c388660208501611b0d565b60208201526101a083013582811115611c5057600080fd5b611c5c87828601611962565b604083015250611c6f6101c084016117c4565b6060820152611c816101e084016117c4565b6080820152610200929092013560a0830152509392505050565b600080600060608486031215611cb057600080fd5b505081359360208301359350604090920135919050565b60006020808385031215611cda57600080fd5b823567ffffffffffffffff811115611cf157600080fd5b8301601f81018513611d0257600080fd5b8035611d106119838261193e565b81815260059190911b82018301908381019087831115611d2f57600080fd5b928401925b82841015611d4d57833582529284019290840190611d34565b979650505050505050565b6020808252825182820181905260009190848201906040850190845b81811015611d995783516001600160a01b031683529284019291840191600101611d74565b50909695505050505050565b60208082526017908201527f526566657272616c3a20696e76616c6964205f636f6465000000000000000000604082015260600190565b600060208284031215611dee57600080fd5b8151611765816117af565b600060208284031215611e0b57600080fd5b5051919050565b634e487b7160e01b600052603260045260246000fd5b634e487b7160e01b600052601160045260246000fd5b600060018201611e5057611e50611e28565b5060010190565b60005b83811015611e72578181015183820152602001611e5a565b50506000910152565b7f416363657373436f6e74726f6c3a206163636f756e7420000000000000000000815260008351611eb3816017850160208801611e57565b7001034b99036b4b9b9b4b733903937b6329607d1b6017918401918201528351611ee4816028840160208801611e57565b01602801949350505050565b6020815260008251806020840152611f0f816040850160208701611e57565b601f01601f19169190910160400192915050565b808202811582820484141761058857610588611e28565b8082018082111561058857610588611e28565b600081611f5c57611f5c611e28565b50600019019056fe241ecf16d79d0f8dbfb92cbc07fe17840425976cf0667f022fe9877caa831b08a2646970667358221220a282a1a67b9c32fa15c37b6f021bcccd9a9b9d1459a7ac226bf798aff967de3864736f6c63430008110033",
    "linkReferences": {}
  },
  "methodIdentifiers": {
    "BASIS_POINTS()": "e1f1c4a7",
    "DEFAULT_ADMIN_ROLE()": "a217fddf",
    "DEFAULT_CODE()": "544210d8",
    "codeOwners(bytes32)": "c8b3c460",
    "getCodeOwners(bytes32[])": "d7897320",
    "getHooksCalls()": "612c39b7",
    "getRoleAdmin(bytes32)": "248a9ca3",
    "getTraderReferralInfo(address)": "534ef883",
    "govSetCodeOwner(bytes32,address)": "dfcfa250",
    "grantControllerRoleByMarketManager(address)": "7fe4a698",
    "grantRole(bytes32,address)": "2f2ff15d",
    "hasRole(bytes32,address)": "91d14854",
    "initialize()": "8129fc1c",
    "owner()": "8da5cb5b",
    "referrerDiscountShares(address)": "71a6a790",
    "referrerTiers(address)": "1582a018",
    "registerCode(bytes32)": "36def2c8",
    "renounceOwnership()": "715018a6",
    "renounceRole(bytes32,address)": "36568abe",
    "revokeRole(bytes32,address)": "d547741f",
    "rewarder()": "dcc3e06e",
    "setCodeOwner(bytes32,address)": "ed843134",
    "setReferrerDiscountShare(address,uint256)": "766238db",
    "setReferrerTier(address,uint256)": "3fb8b323",
    "setTier(uint256,uint256,uint256)": "836a0187",
    "setTraderReferralCode(address,bytes32)": "56b4b2ad",
    "setTraderReferralCodeByUser(bytes32)": "e1e01bf3",
    "supportsInterface(bytes4)": "01ffc9a7",
    "tiers(uint256)": "039af9eb",
    "traderReferralCodes(address)": "85725b58",
    "transferAdmin(address)": "75829def",
    "transferOwnership(address)": "f2fde38b",
    "updatePositionCallback(((address,bool,uint256,bool,address,uint256,uint256,uint256,bool,uint8,uint64,bytes32,uint256,uint8,uint256[]),(address,bool,uint32,uint216,uint256,uint256,uint256,int256,int256,uint256,uint256,uint256),int256[],address,address,int256))": "40a542fe"
  },
  "id": 87
}