{
  "abi": [
    {
      "inputs": [
        {
          "internalType": "address",
          "name": "_f",
          "type": "address"
        }
      ],
      "stateMutability": "nonpayable",
      "type": "constructor"
    },
    {
      "anonymous": false,
      "inputs": [
        {
          "indexed": false,
          "internalType": "uint8",
          "name": "version",
          "type": "uint8"
        }
      ],
      "name": "Initialized",
      "type": "event"
    },
    {
      "anonymous": false,
      "inputs": [
        {
          "indexed": true,
          "internalType": "address",
          "name": "previousOwner",
          "type": "address"
        },
        {
          "indexed": true,
          "internalType": "address",
          "name": "newOwner",
          "type": "address"
        }
      ],
      "name": "OwnershipTransferred",
      "type": "event"
    },
    {
      "anonymous": false,
      "inputs": [
        {
          "indexed": true,
          "internalType": "bytes32",
          "name": "role",
          "type": "bytes32"
        },
        {
          "indexed": true,
          "internalType": "bytes32",
          "name": "previousAdminRole",
          "type": "bytes32"
        },
        {
          "indexed": true,
          "internalType": "bytes32",
          "name": "newAdminRole",
          "type": "bytes32"
        }
      ],
      "name": "RoleAdminChanged",
      "type": "event"
    },
    {
      "anonymous": false,
      "inputs": [
        {
          "indexed": true,
          "internalType": "bytes32",
          "name": "role",
          "type": "bytes32"
        },
        {
          "indexed": true,
          "internalType": "address",
          "name": "account",
          "type": "address"
        },
        {
          "indexed": true,
          "internalType": "address",
          "name": "sender",
          "type": "address"
        }
      ],
      "name": "RoleGranted",
      "type": "event"
    },
    {
      "anonymous": false,
      "inputs": [
        {
          "indexed": true,
          "internalType": "bytes32",
          "name": "role",
          "type": "bytes32"
        },
        {
          "indexed": true,
          "internalType": "address",
          "name": "account",
          "type": "address"
        },
        {
          "indexed": true,
          "internalType": "address",
          "name": "sender",
          "type": "address"
        }
      ],
      "name": "RoleRevoked",
      "type": "event"
    },
    {
      "stateMutability": "payable",
      "type": "fallback"
    },
    {
      "inputs": [],
      "name": "DEFAULT_ADMIN_ROLE",
      "outputs": [
        {
          "internalType": "bytes32",
          "name": "",
          "type": "bytes32"
        }
      ],
      "stateMutability": "view",
      "type": "function"
    },
    {
      "inputs": [],
      "name": "PLUGIN_GAS_LIMIT",
      "outputs": [
        {
          "internalType": "uint256",
          "name": "",
          "type": "uint256"
        }
      ],
      "stateMutability": "view",
      "type": "function"
    },
    {
      "inputs": [],
      "name": "USDDecimals",
      "outputs": [
        {
          "internalType": "uint8",
          "name": "",
          "type": "uint8"
        }
      ],
      "stateMutability": "pure",
      "type": "function"
    },
    {
      "inputs": [
        {
          "internalType": "address",
          "name": "_addr",
          "type": "address"
        }
      ],
      "name": "addPlugin",
      "outputs": [],
      "stateMutability": "nonpayable",
      "type": "function"
    },
    {
      "inputs": [],
      "name": "collateralToken",
      "outputs": [
        {
          "internalType": "address",
          "name": "",
          "type": "address"
        }
      ],
      "stateMutability": "view",
      "type": "function"
    },
    {
      "inputs": [],
      "name": "collateralTokenDigits",
      "outputs": [
        {
          "internalType": "uint8",
          "name": "",
          "type": "uint8"
        }
      ],
      "stateMutability": "view",
      "type": "function"
    },
    {
      "inputs": [
        {
          "components": [
            {
              "internalType": "address",
              "name": "_market",
              "type": "address"
            },
            {
              "internalType": "bool",
              "name": "_isLong",
              "type": "bool"
            },
            {
              "internalType": "uint256",
              "name": "_oraclePrice",
              "type": "uint256"
            },
            {
              "internalType": "bool",
              "name": "isOpen",
              "type": "bool"
            },
            {
              "internalType": "address",
              "name": "_account",
              "type": "address"
            },
            {
              "internalType": "uint256",
              "name": "_sizeDelta",
              "type": "uint256"
            },
            {
              "internalType": "uint256",
              "name": "_price",
              "type": "uint256"
            },
            {
              "internalType": "uint256",
              "name": "_slippage",
              "type": "uint256"
            },
            {
              "internalType": "bool",
              "name": "_isExec",
              "type": "bool"
            },
            {
              "internalType": "uint8",
              "name": "liqState",
              "type": "uint8"
            },
            {
              "internalType": "uint64",
              "name": "_fromOrder",
              "type": "uint64"
            },
            {
              "internalType": "bytes32",
              "name": "_refCode",
              "type": "bytes32"
            },
            {
              "internalType": "uint256",
              "name": "collateralDelta",
              "type": "uint256"
            },
            {
              "internalType": "uint8",
              "name": "execNum",
              "type": "uint8"
            },
            {
              "internalType": "uint256[]",
              "name": "inputs",
              "type": "uint256[]"
            }
          ],
          "internalType": "struct MarketDataTypes.UpdatePositionInputs",
          "name": "",
          "type": "tuple"
        }
      ],
      "name": "decreasePosition",
      "outputs": [],
      "stateMutability": "nonpayable",
      "type": "function"
    },
    {
      "inputs": [
        {
          "components": [
            {
              "internalType": "uint8",
              "name": "version",
              "type": "uint8"
            },
            {
              "internalType": "uint32",
              "name": "updatedAtBlock",
              "type": "uint32"
            },
            {
              "internalType": "uint8",
              "name": "triggerAbove",
              "type": "uint8"
            },
            {
              "internalType": "address",
              "name": "account",
              "type": "address"
            },
            {
              "internalType": "uint48",
              "name": "extra3",
              "type": "uint48"
            },
            {
              "internalType": "uint128",
              "name": "collateral",
              "type": "uint128"
            },
            {
              "internalType": "uint128",
              "name": "size",
              "type": "uint128"
            },
            {
              "internalType": "uint128",
              "name": "price",
              "type": "uint128"
            },
            {
              "internalType": "uint128",
              "name": "extra1",
              "type": "uint128"
            },
            {
              "internalType": "uint64",
              "name": "orderID",
              "type": "uint64"
            },
            {
              "internalType": "uint64",
              "name": "extra2",
              "type": "uint64"
            },
            {
              "internalType": "uint128",
              "name": "extra0",
              "type": "uint128"
            },
            {
              "internalType": "bytes32",
              "name": "refCode",
              "type": "bytes32"
            }
          ],
          "internalType": "struct Order.Props",
          "name": "exeOrder",
          "type": "tuple"
        },
        {
          "components": [
            {
              "internalType": "address",
              "name": "_market",
              "type": "address"
            },
            {
              "internalType": "bool",
              "name": "_isLong",
              "type": "bool"
            },
            {
              "internalType": "uint256",
              "name": "_oraclePrice",
              "type": "uint256"
            },
            {
              "internalType": "bool",
              "name": "isOpen",
              "type": "bool"
            },
            {
              "internalType": "address",
              "name": "_account",
              "type": "address"
            },
            {
              "internalType": "uint256",
              "name": "_sizeDelta",
              "type": "uint256"
            },
            {
              "internalType": "uint256",
              "name": "_price",
              "type": "uint256"
            },
            {
              "internalType": "uint256",
              "name": "_slippage",
              "type": "uint256"
            },
            {
              "internalType": "bool",
              "name": "_isExec",
              "type": "bool"
            },
            {
              "internalType": "uint8",
              "name": "liqState",
              "type": "uint8"
            },
            {
              "internalType": "uint64",
              "name": "_fromOrder",
              "type": "uint64"
            },
            {
              "internalType": "bytes32",
              "name": "_refCode",
              "type": "bytes32"
            },
            {
              "internalType": "uint256",
              "name": "collateralDelta",
              "type": "uint256"
            },
            {
              "internalType": "uint8",
              "name": "execNum",
              "type": "uint8"
            },
            {
              "internalType": "uint256[]",
              "name": "inputs",
              "type": "uint256[]"
            }
          ],
          "internalType": "struct MarketDataTypes.UpdatePositionInputs",
          "name": "_params",
          "type": "tuple"
        }
      ],
      "name": "execOrderKey",
      "outputs": [],
      "stateMutability": "nonpayable",
      "type": "function"
    },
    {
      "inputs": [],
      "name": "feeRouter",
      "outputs": [
        {
          "internalType": "contract IFeeRouter",
          "name": "",
          "type": "address"
        }
      ],
      "stateMutability": "view",
      "type": "function"
    },
    {
      "inputs": [],
      "name": "getPNL",
      "outputs": [
        {
          "internalType": "int256",
          "name": "pnl",
          "type": "int256"
        }
      ],
      "stateMutability": "view",
      "type": "function"
    },
    {
      "inputs": [
        {
          "internalType": "address",
          "name": "account",
          "type": "address"
        }
      ],
      "name": "getPositions",
      "outputs": [
        {
          "components": [
            {
              "internalType": "address",
              "name": "market",
              "type": "address"
            },
            {
              "internalType": "bool",
              "name": "isLong",
              "type": "bool"
            },
            {
              "internalType": "uint32",
              "name": "lastTime",
              "type": "uint32"
            },
            {
              "internalType": "uint216",
              "name": "extra3",
              "type": "uint216"
            },
            {
              "internalType": "uint256",
              "name": "size",
              "type": "uint256"
            },
            {
              "internalType": "uint256",
              "name": "collateral",
              "type": "uint256"
            },
            {
              "internalType": "uint256",
              "name": "averagePrice",
              "type": "uint256"
            },
            {
              "internalType": "int256",
              "name": "entryFundingRate",
              "type": "int256"
            },
            {
              "internalType": "int256",
              "name": "realisedPnl",
              "type": "int256"
            },
            {
              "internalType": "uint256",
              "name": "extra0",
              "type": "uint256"
            },
            {
              "internalType": "uint256",
              "name": "extra1",
              "type": "uint256"
            },
            {
              "internalType": "uint256",
              "name": "extra2",
              "type": "uint256"
            }
          ],
          "internalType": "struct Position.Props[]",
          "name": "_poss",
          "type": "tuple[]"
        }
      ],
      "stateMutability": "view",
      "type": "function"
    },
    {
      "inputs": [
        {
          "internalType": "bytes32",
          "name": "role",
          "type": "bytes32"
        }
      ],
      "name": "getRoleAdmin",
      "outputs": [
        {
          "internalType": "bytes32",
          "name": "",
          "type": "bytes32"
        }
      ],
      "stateMutability": "view",
      "type": "function"
    },
    {
      "inputs": [],
      "name": "globalValid",
      "outputs": [
        {
          "internalType": "address",
          "name": "",
          "type": "address"
        }
      ],
      "stateMutability": "view",
      "type": "function"
    },
    {
      "inputs": [
        {
          "internalType": "address",
          "name": "_account",
          "type": "address"
        }
      ],
      "name": "grantControllerRoleByMarketManager",
      "outputs": [],
      "stateMutability": "nonpayable",
      "type": "function"
    },
    {
      "inputs": [
        {
          "internalType": "bytes32",
          "name": "role",
          "type": "bytes32"
        },
        {
          "internalType": "address",
          "name": "account",
          "type": "address"
        }
      ],
      "name": "grantRole",
      "outputs": [],
      "stateMutability": "nonpayable",
      "type": "function"
    },
    {
      "inputs": [
        {
          "internalType": "bytes32",
          "name": "role",
          "type": "bytes32"
        },
        {
          "internalType": "address",
          "name": "account",
          "type": "address"
        }
      ],
      "name": "hasRole",
      "outputs": [
        {
          "internalType": "bool",
          "name": "",
          "type": "bool"
        }
      ],
      "stateMutability": "view",
      "type": "function"
    },
    {
      "inputs": [
        {
          "components": [
            {
              "internalType": "address",
              "name": "_market",
              "type": "address"
            },
            {
              "internalType": "bool",
              "name": "_isLong",
              "type": "bool"
            },
            {
              "internalType": "uint256",
              "name": "_oraclePrice",
              "type": "uint256"
            },
            {
              "internalType": "bool",
              "name": "isOpen",
              "type": "bool"
            },
            {
              "internalType": "address",
              "name": "_account",
              "type": "address"
            },
            {
              "internalType": "uint256",
              "name": "_sizeDelta",
              "type": "uint256"
            },
            {
              "internalType": "uint256",
              "name": "_price",
              "type": "uint256"
            },
            {
              "internalType": "uint256",
              "name": "_slippage",
              "type": "uint256"
            },
            {
              "internalType": "bool",
              "name": "_isExec",
              "type": "bool"
            },
            {
              "internalType": "uint8",
              "name": "liqState",
              "type": "uint8"
            },
            {
              "internalType": "uint64",
              "name": "_fromOrder",
              "type": "uint64"
            },
            {
              "internalType": "bytes32",
              "name": "_refCode",
              "type": "bytes32"
            },
            {
              "internalType": "uint256",
              "name": "collateralDelta",
              "type": "uint256"
            },
            {
              "internalType": "uint8",
              "name": "execNum",
              "type": "uint8"
            },
            {
              "internalType": "uint256[]",
              "name": "inputs",
              "type": "uint256[]"
            }
          ],
          "internalType": "struct MarketDataTypes.UpdatePositionInputs",
          "name": "",
          "type": "tuple"
        }
      ],
      "name": "increasePositionWithOrders",
      "outputs": [],
      "stateMutability": "nonpayable",
      "type": "function"
    },
    {
      "inputs": [],
      "name": "indexToken",
      "outputs": [
        {
          "internalType": "address",
          "name": "",
          "type": "address"
        }
      ],
      "stateMutability": "view",
      "type": "function"
    },
    {
      "inputs": [
        {
          "internalType": "address[]",
          "name": "addrs",
          "type": "address[]"
        },
        {
          "internalType": "string",
          "name": "_name",
          "type": "string"
        }
      ],
      "name": "initialize",
      "outputs": [],
      "stateMutability": "nonpayable",
      "type": "function"
    },
    {
      "inputs": [
        {
          "internalType": "address[]",
          "name": "",
          "type": "address[]"
        },
        {
          "internalType": "bool",
          "name": "",
          "type": "bool"
        }
      ],
      "name": "liquidatePositions",
      "outputs": [],
      "stateMutability": "nonpayable",
      "type": "function"
    },
    {
      "inputs": [],
      "name": "marketRouter",
      "outputs": [
        {
          "internalType": "address",
          "name": "",
          "type": "address"
        }
      ],
      "stateMutability": "view",
      "type": "function"
    },
    {
      "inputs": [],
      "name": "marketValid",
      "outputs": [
        {
          "internalType": "address",
          "name": "",
          "type": "address"
        }
      ],
      "stateMutability": "view",
      "type": "function"
    },
    {
      "inputs": [],
      "name": "name",
      "outputs": [
        {
          "internalType": "string",
          "name": "",
          "type": "string"
        }
      ],
      "stateMutability": "view",
      "type": "function"
    },
    {
      "inputs": [],
      "name": "orderBookLong",
      "outputs": [
        {
          "internalType": "contract IOrderBook",
          "name": "",
          "type": "address"
        }
      ],
      "stateMutability": "view",
      "type": "function"
    },
    {
      "inputs": [],
      "name": "orderBookShort",
      "outputs": [
        {
          "internalType": "contract IOrderBook",
          "name": "",
          "type": "address"
        }
      ],
      "stateMutability": "view",
      "type": "function"
    },
    {
      "inputs": [],
      "name": "orderMgr",
      "outputs": [
        {
          "internalType": "address",
          "name": "",
          "type": "address"
        }
      ],
      "stateMutability": "view",
      "type": "function"
    },
    {
      "inputs": [
        {
          "internalType": "bool",
          "name": "isLong",
          "type": "bool"
        },
        {
          "internalType": "bool",
          "name": "isOpen",
          "type": "bool"
        }
      ],
      "name": "orderStore",
      "outputs": [
        {
          "internalType": "contract IOrderStore",
          "name": "",
          "type": "address"
        }
      ],
      "stateMutability": "view",
      "type": "function"
    },
    {
      "inputs": [],
      "name": "owner",
      "outputs": [
        {
          "internalType": "address",
          "name": "",
          "type": "address"
        }
      ],
      "stateMutability": "view",
      "type": "function"
    },
    {
      "inputs": [
        {
          "internalType": "uint256",
          "name": "",
          "type": "uint256"
        }
      ],
      "name": "plugins",
      "outputs": [
        {
          "internalType": "address",
          "name": "",
          "type": "address"
        }
      ],
      "stateMutability": "view",
      "type": "function"
    },
    {
      "inputs": [],
      "name": "positionAddMgr",
      "outputs": [
        {
          "internalType": "address",
          "name": "",
          "type": "address"
        }
      ],
      "stateMutability": "view",
      "type": "function"
    },
    {
      "inputs": [],
      "name": "positionBook",
      "outputs": [
        {
          "internalType": "contract IPositionBook",
          "name": "",
          "type": "address"
        }
      ],
      "stateMutability": "view",
      "type": "function"
    },
    {
      "inputs": [],
      "name": "positionStoreLong",
      "outputs": [
        {
          "internalType": "address",
          "name": "",
          "type": "address"
        }
      ],
      "stateMutability": "view",
      "type": "function"
    },
    {
      "inputs": [],
      "name": "positionStoreShort",
      "outputs": [
        {
          "internalType": "address",
          "name": "",
          "type": "address"
        }
      ],
      "stateMutability": "view",
      "type": "function"
    },
    {
      "inputs": [],
      "name": "positionSubMgr",
      "outputs": [
        {
          "internalType": "address",
          "name": "",
          "type": "address"
        }
      ],
      "stateMutability": "view",
      "type": "function"
    },
    {
      "inputs": [],
      "name": "priceFeed",
      "outputs": [
        {
          "internalType": "address",
          "name": "",
          "type": "address"
        }
      ],
      "stateMutability": "view",
      "type": "function"
    },
    {
      "inputs": [
        {
          "internalType": "address",
          "name": "_addr",
          "type": "address"
        }
      ],
      "name": "removePlugin",
      "outputs": [],
      "stateMutability": "nonpayable",
      "type": "function"
    },
    {
      "inputs": [],
      "name": "renounceOwnership",
      "outputs": [],
      "stateMutability": "nonpayable",
      "type": "function"
    },
    {
      "inputs": [
        {
          "internalType": "bytes32",
          "name": "",
          "type": "bytes32"
        },
        {
          "internalType": "address",
          "name": "",
          "type": "address"
        }
      ],
      "name": "renounceRole",
      "outputs": [],
      "stateMutability": "nonpayable",
      "type": "function"
    },
    {
      "inputs": [
        {
          "internalType": "bytes32",
          "name": "role",
          "type": "bytes32"
        },
        {
          "internalType": "address",
          "name": "account",
          "type": "address"
        }
      ],
      "name": "revokeRole",
      "outputs": [],
      "stateMutability": "nonpayable",
      "type": "function"
    },
    {
      "inputs": [
        {
          "internalType": "address",
          "name": "_newMv",
          "type": "address"
        }
      ],
      "name": "setMarketValid",
      "outputs": [],
      "stateMutability": "nonpayable",
      "type": "function"
    },
    {
      "inputs": [
        {
          "internalType": "address",
          "name": "obl",
          "type": "address"
        },
        {
          "internalType": "address",
          "name": "obs",
          "type": "address"
        }
      ],
      "name": "setOrderBooks",
      "outputs": [],
      "stateMutability": "nonpayable",
      "type": "function"
    },
    {
      "inputs": [
        {
          "internalType": "address",
          "name": "_m",
          "type": "address"
        }
      ],
      "name": "setOrderMgr",
      "outputs": [],
      "stateMutability": "nonpayable",
      "type": "function"
    },
    {
      "inputs": [
        {
          "internalType": "address",
          "name": "pb",
          "type": "address"
        }
      ],
      "name": "setPositionBook",
      "outputs": [],
      "stateMutability": "nonpayable",
      "type": "function"
    },
    {
      "inputs": [
        {
          "internalType": "address",
          "name": "_m",
          "type": "address"
        },
        {
          "internalType": "bool",
          "name": "add",
          "type": "bool"
        }
      ],
      "name": "setPositionMgr",
      "outputs": [],
      "stateMutability": "nonpayable",
      "type": "function"
    },
    {
      "inputs": [
        {
          "internalType": "bytes4",
          "name": "interfaceId",
          "type": "bytes4"
        }
      ],
      "name": "supportsInterface",
      "outputs": [
        {
          "internalType": "bool",
          "name": "",
          "type": "bool"
        }
      ],
      "stateMutability": "view",
      "type": "function"
    },
    {
      "inputs": [
        {
          "internalType": "address",
          "name": "to",
          "type": "address"
        }
      ],
      "name": "transferAdmin",
      "outputs": [],
      "stateMutability": "nonpayable",
      "type": "function"
    },
    {
      "inputs": [
        {
          "internalType": "address",
          "name": "newOwner",
          "type": "address"
        }
      ],
      "name": "transferOwnership",
      "outputs": [],
      "stateMutability": "nonpayable",
      "type": "function"
    },
    {
      "inputs": [],
      "name": "updateCumulativeFundingRate",
      "outputs": [],
      "stateMutability": "nonpayable",
      "type": "function"
    },
    {
      "inputs": [],
      "name": "vaultRouter",
      "outputs": [
        {
          "internalType": "address",
          "name": "",
          "type": "address"
        }
      ],
      "stateMutability": "view",
      "type": "function"
    },
    {
      "stateMutability": "payable",
      "type": "receive"
    }
  ],
  "bytecode": {
    "object": "0x60806040523480156200001157600080fd5b506040516200446538038062004465833981016040819052620000349162000195565b600160465580620000453362000063565b6200005b81620000b560201b620026d41760201c565b5050620001c7565b604880546001600160a01b038381166001600160a01b0319831681179093556040519116919082907f8be0079c531659141344cd1fd0a4f28419497f9722a3daafe3b4186f6b6457e090600090a35050565b42604955620000c43362000063565b620000d1600033620000e1565b620000de600082620000e1565b50565b620000ed8282620000f1565b5050565b60008281526047602090815260408083206001600160a01b038516845290915290205460ff16620000ed5760008281526047602090815260408083206001600160a01b03851684529091529020805460ff19166001179055620001513390565b6001600160a01b0316816001600160a01b0316837f2f8788117e7eff1d82e926ec794901d17c78024a50270940304540a733656f0d60405160405180910390a45050565b600060208284031215620001a857600080fd5b81516001600160a01b0381168114620001c057600080fd5b9392505050565b61428e80620001d76000396000f3fe6080604052600436106102b25760003560e01c80638d49701d11610175578063b21dc9cb116100dc578063d547741f11610095578063e84254671161006f578063e84254671461097d578063f0a317eb14610991578063f29ebf61146109b1578063f2fde38b146109d1576102f3565b8063d547741f1461091d578063d8867fc81461093d578063e7d015f21461095d576102f3565b8063b21dc9cb14610851578063b894300d1461087d578063c54dc3d61461089d578063d12dbde4146108bd578063d37c441c146108dd578063d49ff78d146108fd576102f3565b8063a217fddf1161012e578063a217fddf14610777578063a26404541461078c578063a4d95b64146107d1578063abed9618146107f1578063ac0b05a614610811578063b2016bd414610831576102f3565b80638d49701d146106c45780638da5cb5b146106e45780638dcbb54d1461070257806391d148541461072257806393a98e6c14610742578063a0cbf50c14610757576102f3565b806339955ed711610219578063715018a6116101d2578063715018a61461060f578063741bef1a1461062457806375829def146106445780637b2fd1e5146106645780637fe4a698146106845780638a6ca35d146106a4576102f3565b806339955ed7146105565780633bdef83a146105765780633eeb530e146105965780633f70d442146105c357806345ccf5c5146105d857806363cd8dbd146105f8576102f3565b80631afd89c71161026b5780631afd89c714610478578063248a9ca3146104985780632b0b0662146104d65780632f2ff15d146104f65780633233efe51461051657806336568abe14610536576102f3565b806301ffc9a71461038957806305ba9ae9146103be57806306fdde03146103f657806307e875451461041857806312de276c1461043857806312ec5d0014610458576102f3565b366102f35760405162461bcd60e51b815260206004820152600c60248201526b756e61636365707461626c6560a01b60448201526064015b60405180910390fd5b61031c7fcb58d6d985142a614029cdf01861b4fe094d5919a47e69b8310dc4093d9d6ad06109f1565b600f5460408051602036601f8101829004820283018201909352828252610387936001600160a01b03169260009181908401838280828437600092019190915250506040805180820190915260078152663ab735b737bbb760c91b60208201529150600190506109fe565b005b34801561039557600080fd5b506103a96103a4366004612f25565b610acc565b60405190151581526020015b60405180910390f35b3480156103ca57600080fd5b506006546103de906001600160a01b031681565b6040516001600160a01b0390911681526020016103b5565b34801561040257600080fd5b5061040b610b03565b6040516103b59190612f9f565b34801561042457600080fd5b50600a546103de906001600160a01b031681565b34801561044457600080fd5b506103876104533660046132c2565b610b91565b34801561046457600080fd5b5061038761047336600461345a565b610e3a565b34801561048457600080fd5b506103876104933660046134ab565b610ed9565b3480156104a457600080fd5b506104c86104b33660046134d9565b60009081526047602052604090206001015490565b6040519081526020016103b5565b3480156104e257600080fd5b506103876104f13660046134f2565b610f60565b34801561050257600080fd5b5061038761051136600461350f565b610fc1565b34801561052257600080fd5b5061038761053136600461355b565b610fe6565b34801561054257600080fd5b5061038761055136600461350f565b600080fd5b34801561056257600080fd5b506103876105713660046134f2565b611986565b34801561058257600080fd5b506103876105913660046135fc565b611acf565b3480156105a257600080fd5b506105b66105b13660046134f2565b611b79565b6040516103b59190613638565b3480156105cf57600080fd5b50610387611c3d565b3480156105e457600080fd5b50600b546103de906001600160a01b031681565b34801561060457600080fd5b506104c8620a2c2a81565b34801561061b57600080fd5b50610387611c5b565b34801561063057600080fd5b506009546103de906001600160a01b031681565b34801561065057600080fd5b5061038761065f3660046134f2565b611c6d565b34801561067057600080fd5b506005546103de906001600160a01b031681565b34801561069057600080fd5b5061038761069f3660046134f2565b611ce1565b3480156106b057600080fd5b50600e546103de906001600160a01b031681565b3480156106d057600080fd5b506103876106df3660046134f2565b611cf9565b3480156106f057600080fd5b506048546001600160a01b03166103de565b34801561070e57600080fd5b5061038761071d36600461370b565b61200a565b34801561072e57600080fd5b506103a961073d36600461350f565b6120ba565b34801561074e57600080fd5b506104c86120e5565b34801561076357600080fd5b50600f546103de906001600160a01b031681565b34801561078357600080fd5b506104c8600081565b34801561079857600080fd5b506103de6107a7366004613739565b9015156000908152600760209081526040808320931515835292905220546001600160a01b031690565b3480156107dd57600080fd5b506103876107ec3660046134f2565b61226a565b3480156107fd57600080fd5b5061038761080c3660046135fc565b61239a565b34801561081d57600080fd5b506003546103de906001600160a01b031681565b34801561083d57600080fd5b506004546103de906001600160a01b031681565b34801561085d57600080fd5b5060135461086b9060ff1681565b60405160ff90911681526020016103b5565b34801561088957600080fd5b506000546103de906001600160a01b031681565b3480156108a957600080fd5b506001546103de906001600160a01b031681565b3480156108c957600080fd5b506010546103de906001600160a01b031681565b3480156108e957600080fd5b50600c546103de906001600160a01b031681565b34801561090957600080fd5b50600d546103de906001600160a01b031681565b34801561092957600080fd5b5061038761093836600461350f565b612437565b34801561094957600080fd5b506103876109583660046134f2565b61245c565b34801561096957600080fd5b506002546103de906001600160a01b031681565b34801561098957600080fd5b50601261086b565b34801561099d57600080fd5b506103de6109ac3660046134d9565b612634565b3480156109bd57600080fd5b506008546103de906001600160a01b031681565b3480156109dd57600080fd5b506103876109ec3660046134f2565b61265e565b6109fb81336126f7565b50565b606060006060866001600160a01b031686604051610a1c9190613757565b600060405180830381855af49150503d8060008114610a57576040519150601f19603f3d011682016040523d82523d6000602084013e610a5c565b606091505b50909250905081610ac257604481511015610a7957849250610aa2565b60048101905080806020019051810190610a939190613773565b92508251600003610aa2578492505b8315610ac2578260405162461bcd60e51b81526004016102ea9190612f9f565b5094509492505050565b60006001600160e01b03198216637965db0b60e01b1480610afd57506301ffc9a760e01b6001600160e01b03198316145b92915050565b60118054610b10906137e9565b80601f0160208091040260200160405190810160405280929190818152602001828054610b3c906137e9565b8015610b895780601f10610b5e57610100808354040283529160200191610b89565b820191906000526020600020905b815481529060010190602001808311610b6c57829003601f168201915b505050505081565b610bba7ffb248bbb6ca5a799a6bb9ba79f58aa5cdbe0e5979238a967315e7ffbfd119d1a6109f1565b600080610c7a8360600151610bda57600e546001600160a01b0316610be7565b600d546001600160a01b03165b60405180610100016040528060dd815260200161415c60dd9139805190602001208686604051602401610c1b929190613959565b604051602081830303815290604052906001600160e01b0319166020820180516001600160e01b0383818316178352505050506040518060400160405280600c81526020016b657865634f726465724b657960a01b81525060006109fe565b9150915080610e345760408051600180825281830190925260009160208083019080368337019050509050610cae85612750565b81600081518110610cc157610cc1613a93565b6020908102919091010152604080516001808252818301909252600091816020016020820280368337019050509050846020015181600081518110610d0857610d08613a93565b91151560209283029190910190910152604080516001808252818301909252600091816020016020820280368337019050509050856060015181600081518110610d5457610d54613a93565b91151560209283029190910190910152604080516001808252818301909252600091816020015b6060815260200190600190039081610d7b5790505090508581600081518110610da657610da6613a93565b6020908102919091010152600f54604051610e2d916001600160a01b031690610dd9908790879087908790602401613adb565b60408051601f19818403018152918152602080830180516001600160e01b0316632b031ea960e21b1790528151808301909252600e82526d39bcb9a1b0b731b2b627b93232b960911b9082015260016109fe565b5050505050505b50505050565b610e637ffb248bbb6ca5a799a6bb9ba79f58aa5cdbe0e5979238a967315e7ffbfd119d1a6109f1565b600e5460408051602036601f8101829004820283018201909352828252610e34936001600160a01b03169260009181908401838280828437600092019190915250506040805180820190915260128152716c6971756964617465506f736974696f6e7360701b60208201529150600190506109fe565b600080516020614239833981519152610ef1816109f1565b6001600160a01b038316610f175760405162461bcd60e51b81526004016102ea90613b9e565b8115610f3f57600d80546001600160a01b0385166001600160a01b0319909116179055505050565b600e80546001600160a01b0319166001600160a01b0385161790555b505050565b600080516020614239833981519152610f78816109f1565b6001600160a01b038216610f9e5760405162461bcd60e51b81526004016102ea90613b9e565b50600f80546001600160a01b0319166001600160a01b0392909216919091179055565b600082815260476020526040902060010154610fdc816109f1565b610f5b83836127b4565b604854600160a81b900460ff161580801561100e57506048546001600160a01b90910460ff16105b8061102f5750303b15801561102f5750604854600160a01b900460ff166001145b6110925760405162461bcd60e51b815260206004820152602e60248201527f496e697469616c697a61626c653a20636f6e747261637420697320616c72656160448201526d191e481a5b9a5d1a585b1a5e995960921b60648201526084016102ea565b6048805460ff60a01b1916600160a01b17905580156110bf576048805460ff60a81b1916600160a81b1790555b60116110cb8382613c0a565b50826000815181106110df576110df613a93565b6020026020010151600360006101000a8154816001600160a01b0302191690836001600160a01b031602179055508260018151811061112057611120613a93565b6020026020010151600560006101000a8154816001600160a01b0302191690836001600160a01b031602179055508260028151811061116157611161613a93565b6020026020010151600660006101000a8154816001600160a01b0302191690836001600160a01b03160217905550826003815181106111a2576111a2613a93565b60200260200101516000806101000a8154816001600160a01b0302191690836001600160a01b03160217905550826004815181106111e2576111e2613a93565b6020026020010151600960006101000a8154816001600160a01b0302191690836001600160a01b031602179055508260058151811061122357611223613a93565b6020026020010151600e60006101000a8154816001600160a01b0302191690836001600160a01b031602179055508260068151811061126457611264613a93565b6020026020010151600d60006101000a8154816001600160a01b0302191690836001600160a01b03160217905550826007815181106112a5576112a5613a93565b6020026020010151600260006101000a8154816001600160a01b0302191690836001600160a01b03160217905550826008815181106112e6576112e6613a93565b6020026020010151600860006101000a8154816001600160a01b0302191690836001600160a01b031602179055508260098151811061132757611327613a93565b6020026020010151601060006101000a8154816001600160a01b0302191690836001600160a01b0316021790555082600a8151811061136857611368613a93565b6020026020010151600c60006101000a8154816001600160a01b0302191690836001600160a01b0316021790555082600b815181106113a9576113a9613a93565b6020026020010151600460006101000a8154816001600160a01b0302191690836001600160a01b0316021790555082600c815181106113ea576113ea613a93565b6020026020010151600160006101000a8154816001600160a01b0302191690836001600160a01b0316021790555082600d8151811061142b5761142b613a93565b602090810291909101810151600f80546001600160a01b0319166001600160a01b0392831617905560055460408051637e1dcaf760e01b815290519190921692637e1dcaf792600480820193918290030181865afa158015611491573d6000803e3d6000fd5b505050506040513d601f19601f820116820180604052508101906114b59190613cc9565b60016000527fb39221ace053465ec3453ce2b36430bd138b997ecea25c1043da0c366812b82860209081527f7e3f8087768dd46afafd904b64320d27e506312b937487e59f767c7732ae8f6e80546001600160a01b0319166001600160a01b0393841617905560055460408051633683c2b360e11b815290519190931692636d0785669260048083019391928290030181865afa15801561155a573d6000803e3d6000fd5b505050506040513d601f19601f8201168201806040525081019061157e9190613cc9565b600080527fb39221ace053465ec3453ce2b36430bd138b997ecea25c1043da0c366812b82860209081527fdab972c909d3e9becdfd720143424fd6fe2ef53f3b2f9c4b45f582e7e83b39bb80546001600160a01b0319166001600160a01b0393841617905560065460408051637e1dcaf760e01b815290519190931692637e1dcaf79260048083019391928290030181865afa158015611622573d6000803e3d6000fd5b505050506040513d601f19601f820116820180604052508101906116469190613cc9565b60016000527f6d5257204ebe7d88fd91ae87941cb2dd9d8062b64ae5a2bd2d28ec40b9fbf6df60209081527ffa778a20fba1b88d7c7b188dc1c4eb115a1fb0693025fb44b92eb4ffe9dbb68e80546001600160a01b0319166001600160a01b0393841617905560065460408051633683c2b360e11b815290519190931692636d0785669260048083019391928290030181865afa1580156116eb573d6000803e3d6000fd5b505050506040513d601f19601f8201168201806040525081019061170f9190613cc9565b600080527f6d5257204ebe7d88fd91ae87941cb2dd9d8062b64ae5a2bd2d28ec40b9fbf6df60209081527fc65916d663d52b0a18b63681e34ad6e3e8bb58d57f662b8e7e045ab09fab038580546001600160a01b0319166001600160a01b03938416179055600480546040805163313ce56760e01b81529051919094169363313ce56793818401939092918290030181865afa1580156117b3573d6000803e3d6000fd5b505050506040513d601f19601f820116820180604052508101906117d79190613ce6565b6013805460ff191660ff92909216919091179055600354604080516350c1c30960e11b815290516001600160a01b039092169163a1838612916004808201926020929091908290030181865afa158015611835573d6000803e3d6000fd5b505050506040513d601f19601f820116820180604052508101906118599190613cc9565b600a80546001600160a01b0319166001600160a01b0392831617905560035460408051630a302a3960e11b81529051919092169163146054729160048083019260209291908290030181865afa1580156118b7573d6000803e3d6000fd5b505050506040513d601f19601f820116820180604052508101906118db9190613cc9565b600b80546001600160a01b03199081166001600160a01b0393841617909155601054601280546001810182556000919091527fbb8a6a4669ba250d26cd7a459eca9d215f8307e33aebe50379bc5a3617ec34440180549190931691161790558015610f5b576048805460ff60a81b19169055604051600181527f7f26b83ff96e1f2b6a682f133852f6798a09c465da95921460cefb38474024989060200160405180910390a1505050565b60008051602061423983398151915261199e816109f1565b6001600160a01b0382166119c45760405162461bcd60e51b81526004016102ea90613b9e565b6000546001600160a01b031615611aac57816001600160a01b0316638e98ec8d60008054906101000a90046001600160a01b03166001600160a01b031663177927296040518163ffffffff1660e01b8152600401602060405180830381865afa158015611a35573d6000803e3d6000fd5b505050506040513d601f19601f82011682018060405250810190611a599190613d0e565b5160405160e083901b6001600160e01b03191681526004810191909152602401600060405180830381600087803b158015611a9357600080fd5b505af1158015611aa7573d6000803e3d6000fd5b505050505b50600080546001600160a01b0319166001600160a01b0392909216919091179055565b611af87fcb58d6d985142a614029cdf01861b4fe094d5919a47e69b8310dc4093d9d6ad06109f1565b600d5460408051602036601f8101829004820283018201909352828252610f5b936001600160a01b031692600091819084018382808284376000920191909152505060408051808201909152601a81527f696e637265617365506f736974696f6e576974684f726465727300000000000060208201529150600190506109fe565b600354604051631f75a98760e11b81526001600160a01b0383811660048301526060921690633eeb530e90602401600060405180830381865afa158015611bc4573d6000803e3d6000fd5b505050506040513d6000823e601f3d908101601f19168201604052611bec9190810190613d7c565b905060005b8151811015611c375730828281518110611c0d57611c0d613a93565b60209081029190910101516001600160a01b03909116905280611c2f81613eca565b915050611bf1565b50919050565b600354600854611c59916001600160a01b03908116911661283a565b565b611c63612910565b611c59600061296a565b6000611c78816109f1565b6001600160a01b038216611cbe5760405162461bcd60e51b815260206004820152600d60248201526c217a65726f206164647265737360981b60448201526064016102ea565b611cc96000836129bc565b611cd28261296a565b611cdd6000336129c6565b5050565b600080516020614239833981519152610551816109f1565b600080516020614239833981519152611d11816109f1565b6001600160a01b038216611d375760405162461bcd60e51b81526004016102ea90613b9e565b816001600160a01b031663a18386126040518163ffffffff1660e01b8152600401602060405180830381865afa158015611d75573d6000803e3d6000fd5b505050506040513d601f19601f82011682018060405250810190611d999190613cc9565b6001600160a01b0316600360009054906101000a90046001600160a01b03166001600160a01b031663a18386126040518163ffffffff1660e01b8152600401602060405180830381865afa158015611df5573d6000803e3d6000fd5b505050506040513d601f19601f82011682018060405250810190611e199190613cc9565b6001600160a01b031614611e5f5760405162461bcd60e51b815260206004820152600d60248201526c696e76616c69642073746f726560981b60448201526064016102ea565b816001600160a01b031663146054726040518163ffffffff1660e01b8152600401602060405180830381865afa158015611e9d573d6000803e3d6000fd5b505050506040513d601f19601f82011682018060405250810190611ec19190613cc9565b6001600160a01b0316600360009054906101000a90046001600160a01b03166001600160a01b031663146054726040518163ffffffff1660e01b8152600401602060405180830381865afa158015611f1d573d6000803e3d6000fd5b505050506040513d601f19601f82011682018060405250810190611f419190613cc9565b6001600160a01b031614611f875760405162461bcd60e51b815260206004820152600d60248201526c696e76616c69642073746f726560981b60448201526064016102ea565b6010546040516366b75fb360e11b81526001600160a01b0384811660048301529091169063cd6ebf6690602401600060405180830381600087803b158015611fce57600080fd5b505af1158015611fe2573d6000803e3d6000fd5b5050600380546001600160a01b0319166001600160a01b039590951694909417909355505050565b600080516020614239833981519152612022816109f1565b6001600160a01b0383166120635760405162461bcd60e51b81526020600482015260086024820152676f626c207a65726f60c01b60448201526064016102ea565b6001600160a01b0382166120a45760405162461bcd60e51b81526020600482015260086024820152676f6273207a65726f60c01b60448201526064016102ea565b6120af600184612a2d565b610f5b600083612a2d565b60009182526047602090815260408084206001600160a01b0393909316845291905290205460ff1690565b6009546002546040516303b6b4bb60e51b81526001600160a01b03918216600482015260006024820181905292839216906376d6976090604401602060405180830381865afa15801561213c573d6000803e3d6000fd5b505050506040513d601f19601f820116820180604052508101906121609190613ee3565b6009546002546040516303b6b4bb60e51b81526001600160a01b039182166004820152600160248201529293506000929116906376d6976090604401602060405180830381865afa1580156121b9573d6000803e3d6000fd5b505050506040513d601f19601f820116820180604052508101906121dd9190613ee3565b6003546040516301aa2e3960e41b81526004810185905260248101839052919250612263916001600160a01b0390911690631aa2e39090604401602060405180830381865afa158015612234573d6000803e3d6000fd5b505050506040513d601f19601f820116820180604052508101906122589190613ee3565b60135460ff16612d41565b9250505090565b6122937f241ecf16d79d0f8dbfb92cbc07fe17840425976cf0667f022fe9877caa831b086109f1565b60005b601254811015611cdd57816001600160a01b0316601282815481106122bd576122bd613a93565b6000918252602090912001546001600160a01b03160361238857601280546122e790600190613efc565b815481106122f7576122f7613a93565b600091825260209091200154601280546001600160a01b03909216918390811061232357612323613a93565b9060005260206000200160006101000a8154816001600160a01b0302191690836001600160a01b03160217905550601280548061236257612362613f0f565b600082815260209020810160001990810180546001600160a01b03191690550190555050565b8061239281613eca565b915050612296565b6123c37fcb58d6d985142a614029cdf01861b4fe094d5919a47e69b8310dc4093d9d6ad06109f1565b600e5460408051602036601f8101829004820283018201909352828252610f5b936001600160a01b031692600091819084018382808284376000920191909152505060408051808201909152601081526f3232b1b932b0b9b2a837b9b4ba34b7b760811b60208201529150600190506109fe565b600082815260476020526040902060010154612452816109f1565b610f5b83836129c6565b7f241ecf16d79d0f8dbfb92cbc07fe17840425976cf0667f022fe9877caa831b08600061248981336120ba565b905080156124e65762015180604954426124a39190613efc565b106124e15760405162461bcd60e51b815260206004820152600e60248201526d1858c81d1a5b59481c185cdcd95960921b60448201526064016102ea565b6124f0565b6124f082336126f7565b6000601280548060200260200160405190810160405280929190818152602001828054801561254857602002820191906000526020600020905b81546001600160a01b0316815260019091019060200180831161252a575b5050505050905060005b81518110156125dd57846001600160a01b031682828151811061257757612577613a93565b60200260200101516001600160a01b0316036125cb5760405162461bcd60e51b81526020600482015260136024820152724d61726b65743a73616d65206164647265737360681b60448201526064016102ea565b806125d581613eca565b915050612552565b5050601280546001810182556000919091527fbb8a6a4669ba250d26cd7a459eca9d215f8307e33aebe50379bc5a3617ec34440180546001600160a01b0319166001600160a01b0394909416939093179092555050565b6012818154811061264457600080fd5b6000918252602090912001546001600160a01b0316905081565b612666612910565b6001600160a01b0381166126cb5760405162461bcd60e51b815260206004820152602660248201527f4f776e61626c653a206e6577206f776e657220697320746865207a65726f206160448201526564647265737360d01b60648201526084016102ea565b6109fb8161296a565b426049556126e13361296a565b6126ec6000336129bc565b6109fb6000826129bc565b61270182826120ba565b611cdd5761270e81612d78565b612719836020612d8a565b60405160200161272a929190613f25565b60408051601f198184030181529082905262461bcd60e51b82526102ea91600401612f9f565b6000610afd82606001518361012001516040516bffffffffffffffffffffffff19606084901b1660208201526001600160c01b031960c083901b166034820152600090603c0160405160208183030381529060405280519060200120905092915050565b6127be82826120ba565b611cdd5760008281526047602090815260408083206001600160a01b03851684529091529020805460ff191660011790556127f63390565b6001600160a01b0316816001600160a01b0316837f2f8788117e7eff1d82e926ec794901d17c78024a50270940304540a733656f0d60405160405180910390a45050565b600080836001600160a01b0316638749694a6040518163ffffffff1660e01b81526004016040805180830381865afa15801561287a573d6000803e3d6000fd5b505050506040513d601f19601f8201168201806040525081019061289e9190613f9a565b60405163c6f83ad160e01b8152306004820152602481018390526044810182905291935091506001600160a01b0384169063c6f83ad190606401600060405180830381600087803b1580156128f257600080fd5b505af1158015612906573d6000803e3d6000fd5b5050505050505050565b6048546001600160a01b03163314611c595760405162461bcd60e51b815260206004820181905260248201527f4f776e61626c653a2063616c6c6572206973206e6f7420746865206f776e657260448201526064016102ea565b604880546001600160a01b038381166001600160a01b0319831681179093556040519116919082907f8be0079c531659141344cd1fd0a4f28419497f9722a3daafe3b4186f6b6457e090600090a35050565b611cdd82826127b4565b6129d082826120ba565b15611cdd5760008281526047602090815260408083206001600160a01b0385168085529252808320805460ff1916905551339285917ff6391f5c32d9c69d2a47ea670b442974b53935d1edc7fd64eb21e047a839171b9190a45050565b808215612bba57806001600160a01b031663e254542284600560009054906101000a90046001600160a01b03166001600160a01b0316637e1dcaf76040518163ffffffff1660e01b8152600401602060405180830381865afa158015612a97573d6000803e3d6000fd5b505050506040513d601f19601f82011682018060405250810190612abb9190613cc9565b600560009054906101000a90046001600160a01b03166001600160a01b0316636d0785666040518163ffffffff1660e01b8152600401602060405180830381865afa158015612b0e573d6000803e3d6000fd5b505050506040513d601f19601f82011682018060405250810190612b329190613cc9565b6040516001600160e01b031960e086901b16815292151560048401526001600160a01b039182166024840152166044820152606401600060405180830381600087803b158015612b8157600080fd5b505af1158015612b95573d6000803e3d6000fd5b5050600580546001600160a01b0319166001600160a01b03851617905550610f5b9050565b806001600160a01b031663e254542284600660009054906101000a90046001600160a01b03166001600160a01b0316637e1dcaf76040518163ffffffff1660e01b8152600401602060405180830381865afa158015612c1d573d6000803e3d6000fd5b505050506040513d601f19601f82011682018060405250810190612c419190613cc9565b600660009054906101000a90046001600160a01b03166001600160a01b0316636d0785666040518163ffffffff1660e01b8152600401602060405180830381865afa158015612c94573d6000803e3d6000fd5b505050506040513d601f19601f82011682018060405250810190612cb89190613cc9565b6040516001600160e01b031960e086901b16815292151560048401526001600160a01b039182166024840152166044820152606401600060405180830381600087803b158015612d0757600080fd5b505af1158015612d1b573d6000803e3d6000fd5b5050600680546001600160a01b0385166001600160a01b03199091161790555050505050565b6000612d4f6012600a6140a2565b612d5d60ff8416600a6140a2565b612d6790856140ae565b612d7191906140de565b9392505050565b6060610afd6001600160a01b03831660145b60606000612d9983600261411a565b612da4906002614131565b6001600160401b03811115612dbb57612dbb612fb2565b6040519080825280601f01601f191660200182016040528015612de5576020820181803683370190505b509050600360fc1b81600081518110612e0057612e00613a93565b60200101906001600160f81b031916908160001a905350600f60fb1b81600181518110612e2f57612e2f613a93565b60200101906001600160f81b031916908160001a9053506000612e5384600261411a565b612e5e906001614131565b90505b6001811115612ed6576f181899199a1a9b1b9c1cb0b131b232b360811b85600f1660108110612e9257612e92613a93565b1a60f81b828281518110612ea857612ea8613a93565b60200101906001600160f81b031916908160001a90535060049490941c93612ecf81614144565b9050612e61565b508315612d715760405162461bcd60e51b815260206004820181905260248201527f537472696e67733a20686578206c656e67746820696e73756666696369656e7460448201526064016102ea565b600060208284031215612f3757600080fd5b81356001600160e01b031981168114612d7157600080fd5b60005b83811015612f6a578181015183820152602001612f52565b50506000910152565b60008151808452612f8b816020860160208601612f4f565b601f01601f19169290920160200192915050565b602081526000612d716020830184612f73565b634e487b7160e01b600052604160045260246000fd5b6040516101e081016001600160401b0381118282101715612feb57612feb612fb2565b60405290565b6040516101a081016001600160401b0381118282101715612feb57612feb612fb2565b60405161018081016001600160401b0381118282101715612feb57612feb612fb2565b604051601f8201601f191681016001600160401b038111828210171561305f5761305f612fb2565b604052919050565b60ff811681146109fb57600080fd5b803561308181613067565b919050565b63ffffffff811681146109fb57600080fd5b803561308181613086565b6001600160a01b03811681146109fb57600080fd5b8035613081816130a3565b803565ffffffffffff8116811461308157600080fd5b80356001600160801b038116811461308157600080fd5b80356001600160401b038116811461308157600080fd5b80151581146109fb57600080fd5b803561308181613107565b60006001600160401b0382111561313957613139612fb2565b5060051b60200190565b600082601f83011261315457600080fd5b8135602061316961316483613120565b613037565b82815260059290921b8401810191818101908684111561318857600080fd5b8286015b848110156131a3578035835291830191830161318c565b509695505050505050565b60006101e082840312156131c157600080fd5b6131c9612fc8565b90506131d4826130b8565b81526131e260208301613115565b6020820152604082013560408201526131fd60608301613115565b606082015261320e608083016130b8565b608082015260a082013560a082015260c082013560c082015260e082013560e082015261010061323f818401613115565b90820152610120613251838201613076565b908201526101406132638382016130f0565b90820152610160828101359082015261018080830135908201526101a061328b818401613076565b908201526101c0828101356001600160401b038111156132aa57600080fd5b6132b685828601613143565b82840152505092915050565b6000808284036101c08112156132d757600080fd5b6101a0808212156132e757600080fd5b6132ef612ff1565b91506132fa85613076565b825261330860208601613098565b602083015261331960408601613076565b604083015261332a606086016130b8565b606083015261333b608086016130c3565b608083015261334c60a086016130d9565b60a083015261335d60c086016130d9565b60c083015261336e60e086016130d9565b60e08301526101006133818187016130d9565b908301526101206133938682016130f0565b908301526101406133a58682016130f0565b908301526101606133b78682016130d9565b9083015261018085810135908301529092508301356001600160401b038111156133e057600080fd5b6133ec858286016131ae565b9150509250929050565b600082601f83011261340757600080fd5b8135602061341761316483613120565b82815260059290921b8401810191818101908684111561343657600080fd5b8286015b848110156131a357803561344d816130a3565b835291830191830161343a565b6000806040838503121561346d57600080fd5b82356001600160401b0381111561348357600080fd5b61348f858286016133f6565b92505060208301356134a081613107565b809150509250929050565b600080604083850312156134be57600080fd5b82356134c9816130a3565b915060208301356134a081613107565b6000602082840312156134eb57600080fd5b5035919050565b60006020828403121561350457600080fd5b8135612d71816130a3565b6000806040838503121561352257600080fd5b8235915060208301356134a0816130a3565b60006001600160401b0382111561354d5761354d612fb2565b50601f01601f191660200190565b6000806040838503121561356e57600080fd5b82356001600160401b038082111561358557600080fd5b613591868387016133f6565b935060208501359150808211156135a757600080fd5b508301601f810185136135b957600080fd5b80356135c761316482613534565b8181528660208385010111156135dc57600080fd5b816020840160208301376000602083830101528093505050509250929050565b60006020828403121561360e57600080fd5b81356001600160401b0381111561362457600080fd5b613630848285016131ae565b949350505050565b602080825282518282018190526000919060409081850190868401855b828110156136fe57815180516001600160a01b03168552868101511515878601528581015163ffffffff16868601526060808201516001600160d81b0316908601526080808201519086015260a0808201519086015260c0808201519086015260e0808201519086015261010080820151908601526101208082015190860152610140808201519086015261016090810151908501526101809093019290850190600101613655565b5091979650505050505050565b6000806040838503121561371e57600080fd5b8235613729816130a3565b915060208301356134a0816130a3565b6000806040838503121561374c57600080fd5b82356134c981613107565b60008251613769818460208701612f4f565b9190910192915050565b60006020828403121561378557600080fd5b81516001600160401b0381111561379b57600080fd5b8201601f810184136137ac57600080fd5b80516137ba61316482613534565b8181528560208385010111156137cf57600080fd5b6137e0826020830160208601612f4f565b95945050505050565b600181811c908216806137fd57607f821691505b602082108103611c3757634e487b7160e01b600052602260045260246000fd5b600081518084526020808501945080840160005b8381101561384d57815187529582019590820190600101613831565b509495945050505050565b80516001600160a01b0316825260006101e0602083015161387d602086018215159052565b5060408301516040850152606083015161389b606086018215159052565b5060808301516138b660808601826001600160a01b03169052565b5060a083015160a085015260c083015160c085015260e083015160e0850152610100808401516138e98287018215159052565b50506101208381015160ff90811691860191909152610140808501516001600160401b031690860152610160808501519086015261018080850151908601526101a080850151909116908501526101c08084015181860183905261394f8387018261381d565b9695505050505050565b825160ff16815260006101c0602085015161397c602085018263ffffffff169052565b506040850151613991604085018260ff169052565b5060608501516139ac60608501826001600160a01b03169052565b5060808501516139c6608085018265ffffffffffff169052565b5060a08501516139e160a08501826001600160801b03169052565b5060c08501516139fc60c08501826001600160801b03169052565b5060e0850151613a1760e08501826001600160801b03169052565b50610100858101516001600160801b038116858301525050610120858101516001600160401b038116858301525050610140858101516001600160401b038116858301525050610160858101516001600160801b038116858301525050610180808601518185015250806101a08401526137e081840185613858565b634e487b7160e01b600052603260045260246000fd5b600081518084526020808501945080840160005b8381101561384d578151151587529582019590820190600101613abd565b6080808252855190820181905260009060209060a0840190828901845b82811015613b1457815184529284019290840190600101613af8565b50505083810382850152613b288188613aa9565b90508381036040850152613b3c8187613aa9565b905083810360608501528085518083528383019150838160051b84010184880160005b83811015613b8d57601f19868403018552613b7b838351612f73565b94870194925090860190600101613b5f565b50909b9a5050505050505050505050565b6020808252600490820152637a65726f60e01b604082015260600190565b601f821115610f5b57600081815260208120601f850160051c81016020861015613be35750805b601f850160051c820191505b81811015613c0257828155600101613bef565b505050505050565b81516001600160401b03811115613c2357613c23612fb2565b613c3781613c3184546137e9565b84613bbc565b602080601f831160018114613c6c5760008415613c545750858301515b600019600386901b1c1916600185901b178555613c02565b600085815260208120601f198616915b82811015613c9b57888601518255948401946001909101908401613c7c565b5085821015613cb95787850151600019600388901b60f8161c191681555b5050505050600190811b01905550565b600060208284031215613cdb57600080fd5b8151612d71816130a3565b600060208284031215613cf857600080fd5b8151612d7181613067565b8051613081816130a3565b600060208284031215613d2057600080fd5b604051602081018181106001600160401b0382111715613d4257613d42612fb2565b6040529151825250919050565b805161308181613107565b805161308181613086565b80516001600160d81b038116811461308157600080fd5b60006020808385031215613d8f57600080fd5b82516001600160401b03811115613da557600080fd5b8301601f81018513613db657600080fd5b8051613dc461316482613120565b8181526101809182028301840191848201919088841115613de457600080fd5b938501935b83851015613ea85780858a031215613e015760008081fd5b613e09613014565b613e1286613d03565b8152613e1f878701613d4f565b878201526040613e30818801613d5a565b908201526060613e41878201613d65565b908201526080868101519082015260a0808701519082015260c0808701519082015260e08087015190820152610100808701519082015261012080870151908201526101408087015190820152610160808701519082015283529384019391850191613de9565b50979650505050505050565b634e487b7160e01b600052601160045260246000fd5b600060018201613edc57613edc613eb4565b5060010190565b600060208284031215613ef557600080fd5b5051919050565b81810381811115610afd57610afd613eb4565b634e487b7160e01b600052603160045260246000fd5b7f416363657373436f6e74726f6c3a206163636f756e7420000000000000000000815260008351613f5d816017850160208801612f4f565b7001034b99036b4b9b9b4b733903937b6329607d1b6017918401918201528351613f8e816028840160208801612f4f565b01602801949350505050565b60008060408385031215613fad57600080fd5b505080516020909101519092909150565b600181815b80851115613ff9578160001904821115613fdf57613fdf613eb4565b80851615613fec57918102915b93841c9390800290613fc3565b509250929050565b60008261401057506001610afd565b8161401d57506000610afd565b8160018114614033576002811461403d57614059565b6001915050610afd565b60ff84111561404e5761404e613eb4565b50506001821b610afd565b5060208310610133831016604e8410600b841016171561407c575081810a610afd565b6140868383613fbe565b806000190482111561409a5761409a613eb4565b029392505050565b6000612d718383614001565b80820260008212600160ff1b841416156140ca576140ca613eb4565b8181058314821517610afd57610afd613eb4565b6000826140fb57634e487b7160e01b600052601260045260246000fd5b600160ff1b82146000198414161561411557614115613eb4565b500590565b8082028115828204841417610afd57610afd613eb4565b80820180821115610afd57610afd613eb4565b60008161415357614153613eb4565b50600019019056fe657865634f726465724b6579282875696e74382c75696e7433322c75696e74382c616464726573732c75696e7434382c75696e743132382c75696e743132382c75696e743132382c75696e743132382c75696e7436342c75696e7436342c75696e743132382c62797465733332292c28616464726573732c626f6f6c2c75696e743235362c626f6f6c2c616464726573732c75696e743235362c75696e743235362c75696e743235362c626f6f6c2c75696e74382c75696e7436342c627974657333322c75696e743235362c75696e74382c75696e743235365b5d29298d1089725c0dc266707fa6207730fb801dcd03108bfed7a21099bd303651d2b7a2646970667358221220fe6672af8ef28e9eff1f6cc9a0dc48c379b97e7eae897338effe17212e89b38964736f6c63430008110033",
    "linkReferences": {}
  },
  "methodIdentifiers": {
    "DEFAULT_ADMIN_ROLE()": "a217fddf",
    "PLUGIN_GAS_LIMIT()": "63cd8dbd",
    "USDDecimals()": "e8425467",
    "addPlugin(address)": "d8867fc8",
    "collateralToken()": "b2016bd4",
    "collateralTokenDigits()": "b21dc9cb",
    "decreasePosition((address,bool,uint256,bool,address,uint256,uint256,uint256,bool,uint8,uint64,bytes32,uint256,uint8,uint256[]))": "abed9618",
    "execOrderKey((uint8,uint32,uint8,address,uint48,uint128,uint128,uint128,uint128,uint64,uint64,uint128,bytes32),(address,bool,uint256,bool,address,uint256,uint256,uint256,bool,uint8,uint64,bytes32,uint256,uint8,uint256[]))": "12de276c",
    "feeRouter()": "f29ebf61",
    "getPNL()": "93a98e6c",
    "getPositions(address)": "3eeb530e",
    "getRoleAdmin(bytes32)": "248a9ca3",
    "globalValid()": "c54dc3d6",
    "grantControllerRoleByMarketManager(address)": "7fe4a698",
    "grantRole(bytes32,address)": "2f2ff15d",
    "hasRole(bytes32,address)": "91d14854",
    "increasePositionWithOrders((address,bool,uint256,bool,address,uint256,uint256,uint256,bool,uint8,uint64,bytes32,uint256,uint8,uint256[]))": "3bdef83a",
    "indexToken()": "e7d015f2",
    "initialize(address[],string)": "3233efe5",
    "liquidatePositions(address[],bool)": "12ec5d00",
    "marketRouter()": "d12dbde4",
    "marketValid()": "b894300d",
    "name()": "06fdde03",
    "orderBookLong()": "7b2fd1e5",
    "orderBookShort()": "05ba9ae9",
    "orderMgr()": "a0cbf50c",
    "orderStore(bool,bool)": "a2640454",
    "owner()": "8da5cb5b",
    "plugins(uint256)": "f0a317eb",
    "positionAddMgr()": "d49ff78d",
    "positionBook()": "ac0b05a6",
    "positionStoreLong()": "07e87545",
    "positionStoreShort()": "45ccf5c5",
    "positionSubMgr()": "8a6ca35d",
    "priceFeed()": "741bef1a",
    "removePlugin(address)": "a4d95b64",
    "renounceOwnership()": "715018a6",
    "renounceRole(bytes32,address)": "36568abe",
    "revokeRole(bytes32,address)": "d547741f",
    "setMarketValid(address)": "39955ed7",
    "setOrderBooks(address,address)": "8dcbb54d",
    "setOrderMgr(address)": "2b0b0662",
    "setPositionBook(address)": "8d49701d",
    "setPositionMgr(address,bool)": "1afd89c7",
    "supportsInterface(bytes4)": "01ffc9a7",
    "transferAdmin(address)": "75829def",
    "transferOwnership(address)": "f2fde38b",
    "updateCumulativeFundingRate()": "3f70d442",
    "vaultRouter()": "d37c441c"
  },
  "id": 9
}