{
  "abi": [
    {
      "anonymous": false,
      "inputs": [
        {
          "indexed": false,
          "internalType": "uint8",
          "name": "version",
          "type": "uint8"
        }
      ],
      "name": "Initialized",
      "type": "event"
    },
    {
      "anonymous": false,
      "inputs": [
        {
          "indexed": true,
          "internalType": "address",
          "name": "previousOwner",
          "type": "address"
        },
        {
          "indexed": true,
          "internalType": "address",
          "name": "newOwner",
          "type": "address"
        }
      ],
      "name": "OwnershipTransferred",
      "type": "event"
    },
    {
      "anonymous": false,
      "inputs": [
        {
          "indexed": true,
          "internalType": "bytes32",
          "name": "role",
          "type": "bytes32"
        },
        {
          "indexed": true,
          "internalType": "bytes32",
          "name": "previousAdminRole",
          "type": "bytes32"
        },
        {
          "indexed": true,
          "internalType": "bytes32",
          "name": "newAdminRole",
          "type": "bytes32"
        }
      ],
      "name": "RoleAdminChanged",
      "type": "event"
    },
    {
      "anonymous": false,
      "inputs": [
        {
          "indexed": true,
          "internalType": "bytes32",
          "name": "role",
          "type": "bytes32"
        },
        {
          "indexed": true,
          "internalType": "address",
          "name": "account",
          "type": "address"
        },
        {
          "indexed": true,
          "internalType": "address",
          "name": "sender",
          "type": "address"
        }
      ],
      "name": "RoleGranted",
      "type": "event"
    },
    {
      "anonymous": false,
      "inputs": [
        {
          "indexed": true,
          "internalType": "bytes32",
          "name": "role",
          "type": "bytes32"
        },
        {
          "indexed": true,
          "internalType": "address",
          "name": "account",
          "type": "address"
        },
        {
          "indexed": true,
          "internalType": "address",
          "name": "sender",
          "type": "address"
        }
      ],
      "name": "RoleRevoked",
      "type": "event"
    },
    {
      "inputs": [],
      "name": "DEFAULT_ADMIN_ROLE",
      "outputs": [
        {
          "internalType": "bytes32",
          "name": "",
          "type": "bytes32"
        }
      ],
      "stateMutability": "view",
      "type": "function"
    },
    {
      "inputs": [
        {
          "internalType": "bytes32",
          "name": "role",
          "type": "bytes32"
        }
      ],
      "name": "getRoleAdmin",
      "outputs": [
        {
          "internalType": "bytes32",
          "name": "",
          "type": "bytes32"
        }
      ],
      "stateMutability": "view",
      "type": "function"
    },
    {
      "inputs": [
        {
          "internalType": "address",
          "name": "_account",
          "type": "address"
        }
      ],
      "name": "grantControllerRoleByMarketManager",
      "outputs": [],
      "stateMutability": "nonpayable",
      "type": "function"
    },
    {
      "inputs": [
        {
          "internalType": "bytes32",
          "name": "role",
          "type": "bytes32"
        },
        {
          "internalType": "address",
          "name": "account",
          "type": "address"
        }
      ],
      "name": "grantRole",
      "outputs": [],
      "stateMutability": "nonpayable",
      "type": "function"
    },
    {
      "inputs": [
        {
          "internalType": "bytes32",
          "name": "role",
          "type": "bytes32"
        },
        {
          "internalType": "address",
          "name": "account",
          "type": "address"
        }
      ],
      "name": "hasRole",
      "outputs": [
        {
          "internalType": "bool",
          "name": "",
          "type": "bool"
        }
      ],
      "stateMutability": "view",
      "type": "function"
    },
    {
      "inputs": [],
      "name": "owner",
      "outputs": [
        {
          "internalType": "address",
          "name": "",
          "type": "address"
        }
      ],
      "stateMutability": "view",
      "type": "function"
    },
    {
      "inputs": [],
      "name": "renounceOwnership",
      "outputs": [],
      "stateMutability": "nonpayable",
      "type": "function"
    },
    {
      "inputs": [
        {
          "internalType": "bytes32",
          "name": "",
          "type": "bytes32"
        },
        {
          "internalType": "address",
          "name": "",
          "type": "address"
        }
      ],
      "name": "renounceRole",
      "outputs": [],
      "stateMutability": "nonpayable",
      "type": "function"
    },
    {
      "inputs": [
        {
          "internalType": "bytes32",
          "name": "role",
          "type": "bytes32"
        },
        {
          "internalType": "address",
          "name": "account",
          "type": "address"
        }
      ],
      "name": "revokeRole",
      "outputs": [],
      "stateMutability": "nonpayable",
      "type": "function"
    },
    {
      "inputs": [
        {
          "internalType": "bytes4",
          "name": "interfaceId",
          "type": "bytes4"
        }
      ],
      "name": "supportsInterface",
      "outputs": [
        {
          "internalType": "bool",
          "name": "",
          "type": "bool"
        }
      ],
      "stateMutability": "view",
      "type": "function"
    },
    {
      "inputs": [
        {
          "internalType": "address",
          "name": "to",
          "type": "address"
        }
      ],
      "name": "transferAdmin",
      "outputs": [],
      "stateMutability": "nonpayable",
      "type": "function"
    },
    {
      "inputs": [
        {
          "internalType": "address",
          "name": "newOwner",
          "type": "address"
        }
      ],
      "name": "transferOwnership",
      "outputs": [],
      "stateMutability": "nonpayable",
      "type": "function"
    }
  ],
  "bytecode": {
    "object": "0x608060405234801561001057600080fd5b5061001a3361001f565b610071565b600180546001600160a01b038381166001600160a01b0319831681179093556040519116919082907f8be0079c531659141344cd1fd0a4f28419497f9722a3daafe3b4186f6b6457e090600090a35050565b610980806100806000396000f3fe608060405234801561001057600080fd5b50600436106100b45760003560e01c80637fe4a698116100715780637fe4a698146101505780638da5cb5b1461016357806391d148541461017e578063a217fddf14610191578063d547741f14610199578063f2fde38b146101ac57600080fd5b806301ffc9a7146100b9578063248a9ca3146100e15780632f2ff15d1461011257806336568abe14610127578063715018a61461013557806375829def1461013d575b600080fd5b6100cc6100c7366004610755565b6101bf565b60405190151581526020015b60405180910390f35b6101046100ef36600461077f565b60009081526020819052604090206001015490565b6040519081526020016100d8565b6101256101203660046107b4565b6101f6565b005b6101256100b43660046107b4565b610125610220565b61012561014b3660046107e0565b610234565b61012561015e3660046107e0565b6102ad565b6001546040516001600160a01b0390911681526020016100d8565b6100cc61018c3660046107b4565b6102d7565b610104600081565b6101256101a73660046107b4565b610300565b6101256101ba3660046107e0565b610325565b60006001600160e01b03198216637965db0b60e01b14806101f057506301ffc9a760e01b6001600160e01b03198316145b92915050565b6000828152602081905260409020600101546102118161039e565b61021b83836103a8565b505050565b61022861042c565b6102326000610486565b565b600061023f8161039e565b6001600160a01b03821661028a5760405162461bcd60e51b815260206004820152600d60248201526c217a65726f206164647265737360981b60448201526064015b60405180910390fd5b6102956000836104d8565b61029e82610486565b6102a96000336104e2565b5050565b7f8d1089725c0dc266707fa6207730fb801dcd03108bfed7a21099bd303651d2b76100b48161039e565b6000918252602082815260408084206001600160a01b0393909316845291905290205460ff1690565b60008281526020819052604090206001015461031b8161039e565b61021b83836104e2565b61032d61042c565b6001600160a01b0381166103925760405162461bcd60e51b815260206004820152602660248201527f4f776e61626c653a206e6577206f776e657220697320746865207a65726f206160448201526564647265737360d01b6064820152608401610281565b61039b81610486565b50565b61039b8133610547565b6103b282826102d7565b6102a9576000828152602081815260408083206001600160a01b03851684529091529020805460ff191660011790556103e83390565b6001600160a01b0316816001600160a01b0316837f2f8788117e7eff1d82e926ec794901d17c78024a50270940304540a733656f0d60405160405180910390a45050565b6001546001600160a01b031633146102325760405162461bcd60e51b815260206004820181905260248201527f4f776e61626c653a2063616c6c6572206973206e6f7420746865206f776e65726044820152606401610281565b600180546001600160a01b038381166001600160a01b0319831681179093556040519116919082907f8be0079c531659141344cd1fd0a4f28419497f9722a3daafe3b4186f6b6457e090600090a35050565b6102a982826103a8565b6104ec82826102d7565b156102a9576000828152602081815260408083206001600160a01b0385168085529252808320805460ff1916905551339285917ff6391f5c32d9c69d2a47ea670b442974b53935d1edc7fd64eb21e047a839171b9190a45050565b61055182826102d7565b6102a95761055e816105a0565b6105698360206105b2565b60405160200161057a92919061081f565b60408051601f198184030181529082905262461bcd60e51b825261028191600401610894565b60606101f06001600160a01b03831660145b606060006105c18360026108dd565b6105cc9060026108f4565b67ffffffffffffffff8111156105e4576105e4610907565b6040519080825280601f01601f19166020018201604052801561060e576020820181803683370190505b509050600360fc1b816000815181106106295761062961091d565b60200101906001600160f81b031916908160001a905350600f60fb1b816001815181106106585761065861091d565b60200101906001600160f81b031916908160001a905350600061067c8460026108dd565b6106879060016108f4565b90505b60018111156106ff576f181899199a1a9b1b9c1cb0b131b232b360811b85600f16601081106106bb576106bb61091d565b1a60f81b8282815181106106d1576106d161091d565b60200101906001600160f81b031916908160001a90535060049490941c936106f881610933565b905061068a565b50831561074e5760405162461bcd60e51b815260206004820181905260248201527f537472696e67733a20686578206c656e67746820696e73756666696369656e746044820152606401610281565b9392505050565b60006020828403121561076757600080fd5b81356001600160e01b03198116811461074e57600080fd5b60006020828403121561079157600080fd5b5035919050565b80356001600160a01b03811681146107af57600080fd5b919050565b600080604083850312156107c757600080fd5b823591506107d760208401610798565b90509250929050565b6000602082840312156107f257600080fd5b61074e82610798565b60005b838110156108165781810151838201526020016107fe565b50506000910152565b7f416363657373436f6e74726f6c3a206163636f756e74200000000000000000008152600083516108578160178501602088016107fb565b7001034b99036b4b9b9b4b733903937b6329607d1b60179184019182015283516108888160288401602088016107fb565b01602801949350505050565b60208152600082518060208401526108b38160408501602087016107fb565b601f01601f19169190910160400192915050565b634e487b7160e01b600052601160045260246000fd5b80820281158282048414176101f0576101f06108c7565b808201808211156101f0576101f06108c7565b634e487b7160e01b600052604160045260246000fd5b634e487b7160e01b600052603260045260246000fd5b600081610942576109426108c7565b50600019019056fea2646970667358221220bd2e99ec1ef387cec6946abcefe6477963252909202ab29bd42d63eddbdd322a64736f6c63430008110033",
    "linkReferences": {}
  },
  "methodIdentifiers": {
    "DEFAULT_ADMIN_ROLE()": "a217fddf",
    "getRoleAdmin(bytes32)": "248a9ca3",
    "grantControllerRoleByMarketManager(address)": "7fe4a698",
    "grantRole(bytes32,address)": "2f2ff15d",
    "hasRole(bytes32,address)": "91d14854",
    "owner()": "8da5cb5b",
    "renounceOwnership()": "715018a6",
    "renounceRole(bytes32,address)": "36568abe",
    "revokeRole(bytes32,address)": "d547741f",
    "supportsInterface(bytes4)": "01ffc9a7",
    "transferAdmin(address)": "75829def",
    "transferOwnership(address)": "f2fde38b"
  },
  "id": 1
}