{
  "abi": [
    {
      "inputs": [
        {
          "internalType": "uint256",
          "name": "shares",
          "type": "uint256"
        },
        {
          "internalType": "uint256",
          "name": "supply",
          "type": "uint256"
        },
        {
          "internalType": "uint256",
          "name": "totalAssets",
          "type": "uint256"
        },
        {
          "internalType": "bool",
          "name": "up",
          "type": "bool"
        }
      ],
      "name": "convertToAssets",
      "outputs": [
        {
          "internalType": "uint256",
          "name": "",
          "type": "uint256"
        }
      ],
      "stateMutability": "pure",
      "type": "function"
    },
    {
      "inputs": [
        {
          "internalType": "uint256",
          "name": "assets",
          "type": "uint256"
        },
        {
          "internalType": "uint256",
          "name": "supply",
          "type": "uint256"
        },
        {
          "internalType": "uint256",
          "name": "totalAssets",
          "type": "uint256"
        },
        {
          "internalType": "bool",
          "name": "up",
          "type": "bool"
        }
      ],
      "name": "convertToShares",
      "outputs": [
        {
          "internalType": "uint256",
          "name": "shares",
          "type": "uint256"
        }
      ],
      "stateMutability": "pure",
      "type": "function"
    }
  ],
  "bytecode": {
    "object": "0x61031d61003a600b82828239805160001a60731461002d57634e487b7160e01b600052600060045260246000fd5b30600052607381538281f3fe73000000000000000000000000000000000000000030146080604052600436106100405760003560e01c806311ee1bb114610045578063ce855d291461006a575b600080fd5b61005861005336600461024e565b61007d565b60405190815260200160405180910390f35b61005861007836600461024e565b6100c1565b600081156100a657831561009d5761009885848660016100fd565b61009f565b845b90506100b9565b831561009d5761009885848660006100fd565b949350505050565b600081156100e5578415806100d4575083155b61009d5761009885858560016100fd565b8415806100f0575083155b61009d5761009885858560005b60008061010b86868661015a565b9050600183600281111561012157610121610294565b14801561013e575060008480610139576101396102aa565b868809115b156101515761014e6001826102c0565b90505b95945050505050565b60008080600019858709858702925082811083820303915050806000036101945783828161018a5761018a6102aa565b0492505050610247565b8084116101df5760405162461bcd60e51b81526020600482015260156024820152744d6174683a206d756c446976206f766572666c6f7760581b604482015260640160405180910390fd5b600084868809851960019081018716968790049682860381900495909211909303600082900391909104909201919091029190911760038402600290811880860282030280860282030280860282030280860282030280860282030280860290910302029150505b9392505050565b6000806000806080858703121561026457600080fd5b8435935060208501359250604085013591506060850135801515811461028957600080fd5b939692955090935050565b634e487b7160e01b600052602160045260246000fd5b634e487b7160e01b600052601260045260246000fd5b808201808211156102e157634e487b7160e01b600052601160045260246000fd5b9291505056fea26469706673582212206467a7b419ead7f4319c2cd1e8d3dc83918b87c120d8ea80cdf8124a9ae4c4e664736f6c63430008110033",
    "linkReferences": {}
  },
  "methodIdentifiers": {
    "convertToAssets(uint256,uint256,uint256,bool)": "11ee1bb1",
    "convertToShares(uint256,uint256,uint256,bool)": "ce855d29"
  },
  "id": 130
}