{
  "abi": [
    {
      "inputs": [],
      "stateMutability": "nonpayable",
      "type": "constructor"
    },
    {
      "anonymous": false,
      "inputs": [
        {
          "indexed": true,
          "internalType": "address",
          "name": "owner",
          "type": "address"
        },
        {
          "indexed": true,
          "internalType": "address",
          "name": "spender",
          "type": "address"
        },
        {
          "indexed": false,
          "internalType": "uint256",
          "name": "value",
          "type": "uint256"
        }
      ],
      "name": "Approval",
      "type": "event"
    },
    {
      "anonymous": false,
      "inputs": [
        {
          "indexed": false,
          "internalType": "uint8",
          "name": "version",
          "type": "uint8"
        }
      ],
      "name": "Initialized",
      "type": "event"
    },
    {
      "anonymous": false,
      "inputs": [
        {
          "indexed": true,
          "internalType": "address",
          "name": "previousOwner",
          "type": "address"
        },
        {
          "indexed": true,
          "internalType": "address",
          "name": "newOwner",
          "type": "address"
        }
      ],
      "name": "OwnershipTransferred",
      "type": "event"
    },
    {
      "anonymous": false,
      "inputs": [
        {
          "indexed": true,
          "internalType": "bytes32",
          "name": "role",
          "type": "bytes32"
        },
        {
          "indexed": true,
          "internalType": "bytes32",
          "name": "previousAdminRole",
          "type": "bytes32"
        },
        {
          "indexed": true,
          "internalType": "bytes32",
          "name": "newAdminRole",
          "type": "bytes32"
        }
      ],
      "name": "RoleAdminChanged",
      "type": "event"
    },
    {
      "anonymous": false,
      "inputs": [
        {
          "indexed": true,
          "internalType": "bytes32",
          "name": "role",
          "type": "bytes32"
        },
        {
          "indexed": true,
          "internalType": "address",
          "name": "account",
          "type": "address"
        },
        {
          "indexed": true,
          "internalType": "address",
          "name": "sender",
          "type": "address"
        }
      ],
      "name": "RoleGranted",
      "type": "event"
    },
    {
      "anonymous": false,
      "inputs": [
        {
          "indexed": true,
          "internalType": "bytes32",
          "name": "role",
          "type": "bytes32"
        },
        {
          "indexed": true,
          "internalType": "address",
          "name": "account",
          "type": "address"
        },
        {
          "indexed": true,
          "internalType": "address",
          "name": "sender",
          "type": "address"
        }
      ],
      "name": "RoleRevoked",
      "type": "event"
    },
    {
      "anonymous": false,
      "inputs": [
        {
          "indexed": true,
          "internalType": "address",
          "name": "from",
          "type": "address"
        },
        {
          "indexed": true,
          "internalType": "address",
          "name": "to",
          "type": "address"
        },
        {
          "indexed": false,
          "internalType": "uint256",
          "name": "value",
          "type": "uint256"
        }
      ],
      "name": "Transfer",
      "type": "event"
    },
    {
      "inputs": [],
      "name": "DEFAULT_ADMIN_ROLE",
      "outputs": [
        {
          "internalType": "bytes32",
          "name": "",
          "type": "bytes32"
        }
      ],
      "stateMutability": "view",
      "type": "function"
    },
    {
      "inputs": [
        {
          "internalType": "address",
          "name": "_account",
          "type": "address"
        }
      ],
      "name": "addAdmin",
      "outputs": [],
      "stateMutability": "nonpayable",
      "type": "function"
    },
    {
      "inputs": [
        {
          "internalType": "address",
          "name": "_account",
          "type": "address"
        }
      ],
      "name": "addNonStakingAccount",
      "outputs": [],
      "stateMutability": "nonpayable",
      "type": "function"
    },
    {
      "inputs": [
        {
          "internalType": "address",
          "name": "",
          "type": "address"
        }
      ],
      "name": "admins",
      "outputs": [
        {
          "internalType": "bool",
          "name": "",
          "type": "bool"
        }
      ],
      "stateMutability": "view",
      "type": "function"
    },
    {
      "inputs": [
        {
          "internalType": "address",
          "name": "_owner",
          "type": "address"
        },
        {
          "internalType": "address",
          "name": "_spender",
          "type": "address"
        }
      ],
      "name": "allowance",
      "outputs": [
        {
          "internalType": "uint256",
          "name": "",
          "type": "uint256"
        }
      ],
      "stateMutability": "view",
      "type": "function"
    },
    {
      "inputs": [
        {
          "internalType": "address",
          "name": "",
          "type": "address"
        },
        {
          "internalType": "address",
          "name": "",
          "type": "address"
        }
      ],
      "name": "allowances",
      "outputs": [
        {
          "internalType": "uint256",
          "name": "",
          "type": "uint256"
        }
      ],
      "stateMutability": "view",
      "type": "function"
    },
    {
      "inputs": [
        {
          "internalType": "address",
          "name": "_spender",
          "type": "address"
        },
        {
          "internalType": "uint256",
          "name": "_amount",
          "type": "uint256"
        }
      ],
      "name": "approve",
      "outputs": [
        {
          "internalType": "bool",
          "name": "",
          "type": "bool"
        }
      ],
      "stateMutability": "nonpayable",
      "type": "function"
    },
    {
      "inputs": [
        {
          "internalType": "address",
          "name": "_account",
          "type": "address"
        }
      ],
      "name": "balanceOf",
      "outputs": [
        {
          "internalType": "uint256",
          "name": "",
          "type": "uint256"
        }
      ],
      "stateMutability": "view",
      "type": "function"
    },
    {
      "inputs": [
        {
          "internalType": "address",
          "name": "",
          "type": "address"
        }
      ],
      "name": "balances",
      "outputs": [
        {
          "internalType": "uint256",
          "name": "",
          "type": "uint256"
        }
      ],
      "stateMutability": "view",
      "type": "function"
    },
    {
      "inputs": [
        {
          "internalType": "address",
          "name": "_account",
          "type": "address"
        },
        {
          "internalType": "uint256",
          "name": "_amount",
          "type": "uint256"
        }
      ],
      "name": "burn",
      "outputs": [],
      "stateMutability": "nonpayable",
      "type": "function"
    },
    {
      "inputs": [
        {
          "internalType": "address",
          "name": "_receiver",
          "type": "address"
        }
      ],
      "name": "claim",
      "outputs": [],
      "stateMutability": "nonpayable",
      "type": "function"
    },
    {
      "inputs": [],
      "name": "decimals",
      "outputs": [
        {
          "internalType": "uint8",
          "name": "",
          "type": "uint8"
        }
      ],
      "stateMutability": "view",
      "type": "function"
    },
    {
      "inputs": [
        {
          "internalType": "bytes32",
          "name": "role",
          "type": "bytes32"
        }
      ],
      "name": "getRoleAdmin",
      "outputs": [
        {
          "internalType": "bytes32",
          "name": "",
          "type": "bytes32"
        }
      ],
      "stateMutability": "view",
      "type": "function"
    },
    {
      "inputs": [
        {
          "internalType": "address",
          "name": "_account",
          "type": "address"
        }
      ],
      "name": "grantControllerRoleByMarketManager",
      "outputs": [],
      "stateMutability": "nonpayable",
      "type": "function"
    },
    {
      "inputs": [
        {
          "internalType": "bytes32",
          "name": "role",
          "type": "bytes32"
        },
        {
          "internalType": "address",
          "name": "account",
          "type": "address"
        }
      ],
      "name": "grantRole",
      "outputs": [],
      "stateMutability": "nonpayable",
      "type": "function"
    },
    {
      "inputs": [
        {
          "internalType": "bytes32",
          "name": "role",
          "type": "bytes32"
        },
        {
          "internalType": "address",
          "name": "account",
          "type": "address"
        }
      ],
      "name": "hasRole",
      "outputs": [
        {
          "internalType": "bool",
          "name": "",
          "type": "bool"
        }
      ],
      "stateMutability": "view",
      "type": "function"
    },
    {
      "inputs": [],
      "name": "id",
      "outputs": [
        {
          "internalType": "string",
          "name": "_name",
          "type": "string"
        }
      ],
      "stateMutability": "pure",
      "type": "function"
    },
    {
      "inputs": [],
      "name": "inPrivateTransferMode",
      "outputs": [
        {
          "internalType": "bool",
          "name": "",
          "type": "bool"
        }
      ],
      "stateMutability": "view",
      "type": "function"
    },
    {
      "inputs": [
        {
          "internalType": "address",
          "name": "",
          "type": "address"
        }
      ],
      "name": "isHandler",
      "outputs": [
        {
          "internalType": "bool",
          "name": "",
          "type": "bool"
        }
      ],
      "stateMutability": "view",
      "type": "function"
    },
    {
      "inputs": [
        {
          "internalType": "address",
          "name": "",
          "type": "address"
        }
      ],
      "name": "isMinter",
      "outputs": [
        {
          "internalType": "bool",
          "name": "",
          "type": "bool"
        }
      ],
      "stateMutability": "view",
      "type": "function"
    },
    {
      "inputs": [
        {
          "internalType": "address",
          "name": "_account",
          "type": "address"
        },
        {
          "internalType": "uint256",
          "name": "_amount",
          "type": "uint256"
        }
      ],
      "name": "mint",
      "outputs": [],
      "stateMutability": "nonpayable",
      "type": "function"
    },
    {
      "inputs": [],
      "name": "name",
      "outputs": [
        {
          "internalType": "string",
          "name": "",
          "type": "string"
        }
      ],
      "stateMutability": "view",
      "type": "function"
    },
    {
      "inputs": [
        {
          "internalType": "address",
          "name": "",
          "type": "address"
        }
      ],
      "name": "nonStakingAccounts",
      "outputs": [
        {
          "internalType": "bool",
          "name": "",
          "type": "bool"
        }
      ],
      "stateMutability": "view",
      "type": "function"
    },
    {
      "inputs": [],
      "name": "nonStakingSupply",
      "outputs": [
        {
          "internalType": "uint256",
          "name": "",
          "type": "uint256"
        }
      ],
      "stateMutability": "view",
      "type": "function"
    },
    {
      "inputs": [],
      "name": "owner",
      "outputs": [
        {
          "internalType": "address",
          "name": "",
          "type": "address"
        }
      ],
      "stateMutability": "view",
      "type": "function"
    },
    {
      "inputs": [
        {
          "internalType": "address",
          "name": "_account",
          "type": "address"
        },
        {
          "internalType": "address",
          "name": "_receiver",
          "type": "address"
        }
      ],
      "name": "recoverClaim",
      "outputs": [],
      "stateMutability": "nonpayable",
      "type": "function"
    },
    {
      "inputs": [
        {
          "internalType": "address",
          "name": "_account",
          "type": "address"
        }
      ],
      "name": "removeAdmin",
      "outputs": [],
      "stateMutability": "nonpayable",
      "type": "function"
    },
    {
      "inputs": [
        {
          "internalType": "address",
          "name": "_account",
          "type": "address"
        }
      ],
      "name": "removeNonStakingAccount",
      "outputs": [],
      "stateMutability": "nonpayable",
      "type": "function"
    },
    {
      "inputs": [],
      "name": "renounceOwnership",
      "outputs": [],
      "stateMutability": "nonpayable",
      "type": "function"
    },
    {
      "inputs": [
        {
          "internalType": "bytes32",
          "name": "",
          "type": "bytes32"
        },
        {
          "internalType": "address",
          "name": "",
          "type": "address"
        }
      ],
      "name": "renounceRole",
      "outputs": [],
      "stateMutability": "nonpayable",
      "type": "function"
    },
    {
      "inputs": [
        {
          "internalType": "bytes32",
          "name": "role",
          "type": "bytes32"
        },
        {
          "internalType": "address",
          "name": "account",
          "type": "address"
        }
      ],
      "name": "revokeRole",
      "outputs": [],
      "stateMutability": "nonpayable",
      "type": "function"
    },
    {
      "inputs": [
        {
          "internalType": "address",
          "name": "_handler",
          "type": "address"
        },
        {
          "internalType": "bool",
          "name": "_isActive",
          "type": "bool"
        }
      ],
      "name": "setHandler",
      "outputs": [],
      "stateMutability": "nonpayable",
      "type": "function"
    },
    {
      "inputs": [
        {
          "internalType": "bool",
          "name": "_inPrivateTransferMode",
          "type": "bool"
        }
      ],
      "name": "setInPrivateTransferMode",
      "outputs": [],
      "stateMutability": "nonpayable",
      "type": "function"
    },
    {
      "inputs": [
        {
          "internalType": "string",
          "name": "_name",
          "type": "string"
        },
        {
          "internalType": "string",
          "name": "_symbol",
          "type": "string"
        }
      ],
      "name": "setInfo",
      "outputs": [],
      "stateMutability": "nonpayable",
      "type": "function"
    },
    {
      "inputs": [
        {
          "internalType": "address",
          "name": "_minter",
          "type": "address"
        },
        {
          "internalType": "bool",
          "name": "_isActive",
          "type": "bool"
        }
      ],
      "name": "setMinter",
      "outputs": [],
      "stateMutability": "nonpayable",
      "type": "function"
    },
    {
      "inputs": [
        {
          "internalType": "address[]",
          "name": "_yieldTrackers",
          "type": "address[]"
        }
      ],
      "name": "setYieldTrackers",
      "outputs": [],
      "stateMutability": "nonpayable",
      "type": "function"
    },
    {
      "inputs": [
        {
          "internalType": "address",
          "name": "_account",
          "type": "address"
        }
      ],
      "name": "stakedBalance",
      "outputs": [
        {
          "internalType": "uint256",
          "name": "",
          "type": "uint256"
        }
      ],
      "stateMutability": "view",
      "type": "function"
    },
    {
      "inputs": [
        {
          "internalType": "bytes4",
          "name": "interfaceId",
          "type": "bytes4"
        }
      ],
      "name": "supportsInterface",
      "outputs": [
        {
          "internalType": "bool",
          "name": "",
          "type": "bool"
        }
      ],
      "stateMutability": "view",
      "type": "function"
    },
    {
      "inputs": [],
      "name": "symbol",
      "outputs": [
        {
          "internalType": "string",
          "name": "",
          "type": "string"
        }
      ],
      "stateMutability": "view",
      "type": "function"
    },
    {
      "inputs": [],
      "name": "totalStaked",
      "outputs": [
        {
          "internalType": "uint256",
          "name": "",
          "type": "uint256"
        }
      ],
      "stateMutability": "view",
      "type": "function"
    },
    {
      "inputs": [],
      "name": "totalSupply",
      "outputs": [
        {
          "internalType": "uint256",
          "name": "",
          "type": "uint256"
        }
      ],
      "stateMutability": "view",
      "type": "function"
    },
    {
      "inputs": [
        {
          "internalType": "address",
          "name": "_recipient",
          "type": "address"
        },
        {
          "internalType": "uint256",
          "name": "_amount",
          "type": "uint256"
        }
      ],
      "name": "transfer",
      "outputs": [
        {
          "internalType": "bool",
          "name": "",
          "type": "bool"
        }
      ],
      "stateMutability": "nonpayable",
      "type": "function"
    },
    {
      "inputs": [
        {
          "internalType": "address",
          "name": "to",
          "type": "address"
        }
      ],
      "name": "transferAdmin",
      "outputs": [],
      "stateMutability": "nonpayable",
      "type": "function"
    },
    {
      "inputs": [
        {
          "internalType": "address",
          "name": "_sender",
          "type": "address"
        },
        {
          "internalType": "address",
          "name": "_recipient",
          "type": "address"
        },
        {
          "internalType": "uint256",
          "name": "_amount",
          "type": "uint256"
        }
      ],
      "name": "transferFrom",
      "outputs": [
        {
          "internalType": "bool",
          "name": "",
          "type": "bool"
        }
      ],
      "stateMutability": "nonpayable",
      "type": "function"
    },
    {
      "inputs": [
        {
          "internalType": "address",
          "name": "newOwner",
          "type": "address"
        }
      ],
      "name": "transferOwnership",
      "outputs": [],
      "stateMutability": "nonpayable",
      "type": "function"
    },
    {
      "inputs": [
        {
          "internalType": "address",
          "name": "_token",
          "type": "address"
        },
        {
          "internalType": "address",
          "name": "_account",
          "type": "address"
        },
        {
          "internalType": "uint256",
          "name": "_amount",
          "type": "uint256"
        }
      ],
      "name": "withdrawToken",
      "outputs": [],
      "stateMutability": "nonpayable",
      "type": "function"
    },
    {
      "inputs": [
        {
          "internalType": "uint256",
          "name": "",
          "type": "uint256"
        }
      ],
      "name": "yieldTrackers",
      "outputs": [
        {
          "internalType": "address",
          "name": "",
          "type": "address"
        }
      ],
      "stateMutability": "view",
      "type": "function"
    }
  ],
  "bytecode": {
    "object": "0x60806040523480156200001157600080fd5b506040518060400160405280600a8152602001691093115608141bda5b9d60b21b8152506040518060400160405280600381526020016210941560ea1b81525060008282826000620000726200006c620000bf60201b60201c565b620000c3565b62000088816200011560201b620010071760201c565b50600362000097848262000485565b506004620000a6838262000485565b50620000b3338262000141565b505050505050620005af565b3390565b600180546001600160a01b038381166001600160a01b0319831681179093556040519116919082907f8be0079c531659141344cd1fd0a4f28419497f9722a3daafe3b4186f6b6457e090600090a35050565b426002556200012433620000c3565b6200013160003362000273565b6200013e60008262000273565b50565b6001600160a01b038216620001a85760405162461bcd60e51b815260206004820152602360248201527f42617365546f6b656e3a206d696e7420746f20746865207a65726f206164647260448201526265737360e81b606482015260840160405180910390fd5b620001b38262000283565b80600554620001c3919062000567565b6005556001600160a01b038216600090815260076020526040902054620001ec90829062000567565b6001600160a01b038316600090815260076020908152604080832093909355600a9052205460ff16156200022e57806006546200022a919062000567565b6006555b6040518181526001600160a01b038316906000907fddf252ad1be2c89b69c2b068fc378daa952ba7f163c4a11628f55a4df523b3ef9060200160405180910390a35050565b6200027f82826200032d565b5050565b60005b6009548110156200027f57600060098281548110620002a957620002a96200057d565b600091825260209091200154604051635fd6196560e01b81526001600160a01b03858116600483015290911691508190635fd6196590602401600060405180830381600087803b158015620002fd57600080fd5b505af115801562000312573d6000803e3d6000fd5b50505050508080620003249062000593565b91505062000286565b620003398282620003b5565b6200027f576000828152602081815260408083206001600160a01b03851684529091529020805460ff19166001179055620003713390565b6001600160a01b0316816001600160a01b0316837f2f8788117e7eff1d82e926ec794901d17c78024a50270940304540a733656f0d60405160405180910390a45050565b6000828152602081815260408083206001600160a01b038516845290915290205460ff165b92915050565b634e487b7160e01b600052604160045260246000fd5b600181811c908216806200040b57607f821691505b6020821081036200042c57634e487b7160e01b600052602260045260246000fd5b50919050565b601f8211156200048057600081815260208120601f850160051c810160208610156200045b5750805b601f850160051c820191505b818110156200047c5782815560010162000467565b5050505b505050565b81516001600160401b03811115620004a157620004a1620003e0565b620004b981620004b28454620003f6565b8462000432565b602080601f831160018114620004f15760008415620004d85750858301515b600019600386901b1c1916600185901b1785556200047c565b600085815260208120601f198616915b82811015620005225788860151825594840194600190910190840162000501565b5085821015620005415787850151600019600388901b60f8161c191681555b5050505050600190811b01905550565b634e487b7160e01b600052601160045260246000fd5b80820180821115620003da57620003da62000551565b634e487b7160e01b600052603260045260246000fd5b600060018201620005a857620005a862000551565b5060010190565b61244a80620005bf6000396000f3fe608060405234801561001057600080fd5b50600436106102955760003560e01c806370a0823111610167578063a217fddf116100ce578063cf456ae711610087578063cf456ae71461063b578063d547741f1461064e578063dd62ed3e14610661578063dfbaefb11461069a578063f2fde38b146106a7578063fb30d916146106ba57600080fd5b8063a217fddf146105c2578063a9059cbb146105ca578063a923fc40146105dd578063aa271e1a146105f0578063af640d0f14610613578063c93be6361461063257600080fd5b806391d148541161012057806391d148541461054b5780639554381a1461055e57806395d89b4114610581578063996f11ee146105895780639cb7de4b1461059c5780639dc29fac146105af57600080fd5b806370a08231146104db578063715018a61461050457806375829def1461050c5780637fe4a6981461051f578063817b1cd2146105325780638da5cb5b1461053a57600080fd5b80632f2ff15d1161020b57806352cd38d9116101c457806352cd38d91461043957806355b6ed5c146104645780635a47a1a71461048f57806360217267146104a257806362289077146104b557806370480275146104c857600080fd5b80632f2ff15d146103a5578063313ce567146103b857806336568abe146103d257806340c10f19146103e0578063429b62e5146103f357806346ea87af1461041657600080fd5b806318160ddd1161025d57806318160ddd146103125780631e83409a1461032957806323b872dd1461033c578063248a9ca31461034f578063276eab4e1461037257806327e235e31461038557600080fd5b806301e336671461029a57806301ffc9a7146102af57806306fdde03146102d7578063095ea7b3146102ec5780631785f53c146102ff575b600080fd5b6102ad6102a8366004611db1565b6106cd565b005b6102c26102bd366004611ded565b6106fd565b60405190151581526020015b60405180910390f35b6102df610734565b6040516102ce9190611e3b565b6102c26102fa366004611e6e565b6107c2565b6102ad61030d366004611e98565b6107d8565b61031b60055481565b6040519081526020016102ce565b6102ad610337366004611e98565b610810565b6102c261034a366004611db1565b6108cd565b61031b61035d366004611eb3565b60009081526020819052604090206001015490565b6102ad610380366004611f13565b61094c565b61031b610393366004611e98565b60076020526000908152604090205481565b6102ad6103b3366004611fc0565b610976565b6103c0601281565b60405160ff90911681526020016102ce565b6102ad610295366004611fc0565b6102ad6103ee366004611e6e565b61099b565b6102c2610401366004611e98565b600b6020526000908152604090205460ff1681565b6102c2610424366004611e98565b600d6020526000908152604090205460ff1681565b61044c610447366004611eb3565b610a09565b6040516001600160a01b0390911681526020016102ce565b61031b610472366004611fec565b600860209081526000928352604080842090915290825290205481565b6102ad61049d366004612024565b610a33565b61031b6104b0366004611e98565b610a5d565b6102ad6104c3366004611e98565b610aa2565b6102ad6104d6366004611e98565b610b77565b61031b6104e9366004611e98565b6001600160a01b031660009081526007602052604090205490565b6102ad610bb2565b6102ad61051a366004611e98565b610bc6565b6102ad61052d366004611e98565b610c36565b61031b610c60565b6001546001600160a01b031661044c565b6102c2610559366004611fc0565b610c77565b6102c261056c366004611e98565b600a6020526000908152604090205460ff1681565b6102df610ca0565b6102ad610597366004611fec565b610cad565b6102ad6105aa366004612041565b610d7f565b6102ad6105bd366004611e6e565b610dc1565b61031b600081565b6102c26105d8366004611e6e565b610e2a565b6102ad6105eb3660046120e8565b610e37565b6102c26105fe366004611e98565b600e6020526000908152604090205460ff1681565b60408051808201909152600381526210941560ea1b60208201526102df565b61031b60065481565b6102ad610649366004612041565b610e67565b6102ad61065c366004611fc0565b610ea9565b61031b61066f366004611fec565b6001600160a01b03918216600090815260086020908152604080832093909416825291909152205490565b600c546102c29060ff1681565b6102ad6106b5366004611e98565b610ece565b6102ad6106c8366004611e98565b610f47565b6106e46000805160206123f583398151915261102a565b6106f86001600160a01b0384168383611034565b505050565b60006001600160e01b03198216637965db0b60e01b148061072e57506301ffc9a760e01b6001600160e01b03198316145b92915050565b600380546107419061214c565b80601f016020809104026020016040519081016040528092919081815260200182805461076d9061214c565b80156107ba5780601f1061078f576101008083540402835291602001916107ba565b820191906000526020600020905b81548152906001019060200180831161079d57829003601f168201915b505050505081565b60006107cf338484611086565b50600192915050565b6107ef6000805160206123f583398151915261102a565b6001600160a01b03166000908152600b60205260409020805460ff19169055565b60005b6009548110156108c95760006009828154811061083257610832612186565b6000918252602090912001546040516310e059a160e11b81523360048201526001600160a01b038581166024830152909116915081906321c0b342906044016020604051808303816000875af1158015610890573d6000803e3d6000fd5b505050506040513d601f19601f820116820180604052508101906108b4919061219c565b505080806108c1906121cb565b915050610813565b5050565b336000908152600d602052604081205460ff16156108f8576108f08484846111b4565b506001610945565b6001600160a01b03841660009081526008602090815260408083203384529091528120546109279084906121e4565b9050610934853383611086565b61093f8585856111b4565b60019150505b9392505050565b6109636000805160206123f583398151915261102a565b80516108c9906009906020840190611d1b565b6000828152602081905260409020600101546109918161102a565b6106f8838361141e565b336000908152600e602052604090205460ff166109ff5760405162461bcd60e51b815260206004820152601c60248201527f4d696e7461626c6542617365546f6b656e3a20666f7262696464656e0000000060448201526064015b60405180910390fd5b6108c982826114a2565b60098181548110610a1957600080fd5b6000918252602090912001546001600160a01b0316905081565b610a4a6000805160206123f583398151915261102a565b600c805460ff1916911515919091179055565b6001600160a01b0381166000908152600a602052604081205460ff1615610a8657506000919050565b506001600160a01b031660009081526007602052604090205490565b610ab96000805160206123f583398151915261102a565b6001600160a01b0381166000908152600a602052604090205460ff1615610b2d5760405162461bcd60e51b815260206004820152602260248201527f42617365546f6b656e3a205f6163636f756e7420616c7265616479206d61726b604482015261195960f21b60648201526084016109f6565b610b36816115c7565b6001600160a01b0381166000908152600a60209081526040808320805460ff191660011790556007909152902054600654610b7191906121f7565b60065550565b610b8e6000805160206123f583398151915261102a565b6001600160a01b03166000908152600b60205260409020805460ff19166001179055565b610bba611668565b610bc460006116c2565b565b6000610bd18161102a565b6001600160a01b038216610c175760405162461bcd60e51b815260206004820152600d60248201526c217a65726f206164647265737360981b60448201526064016109f6565b610c22600083611714565b610c2b826116c2565b6108c960003361171e565b7f8d1089725c0dc266707fa6207730fb801dcd03108bfed7a21099bd303651d2b76102958161102a565b6000600654600554610c7291906121e4565b905090565b6000918252602082815260408084206001600160a01b0393909316845291905290205460ff1690565b600480546107419061214c565b610cc46000805160206123f583398151915261102a565b60005b6009548110156106f857600060098281548110610ce657610ce6612186565b6000918252602090912001546040516310e059a160e11b81526001600160a01b0386811660048301528581166024830152909116915081906321c0b342906044016020604051808303816000875af1158015610d46573d6000803e3d6000fd5b505050506040513d601f19601f82011682018060405250810190610d6a919061219c565b50508080610d77906121cb565b915050610cc7565b610d966000805160206123f583398151915261102a565b6001600160a01b03919091166000908152600d60205260409020805460ff1916911515919091179055565b336000908152600e602052604090205460ff16610e205760405162461bcd60e51b815260206004820152601c60248201527f4d696e7461626c6542617365546f6b656e3a20666f7262696464656e0000000060448201526064016109f6565b6108c98282611783565b60006107cf3384846111b4565b610e4e6000805160206123f583398151915261102a565b6003610e5a8382612258565b5060046106f88282612258565b610e7e6000805160206123f583398151915261102a565b6001600160a01b03919091166000908152600e60205260409020805460ff1916911515919091179055565b600082815260208190526040902060010154610ec48161102a565b6106f8838361171e565b610ed6611668565b6001600160a01b038116610f3b5760405162461bcd60e51b815260206004820152602660248201527f4f776e61626c653a206e6577206f776e657220697320746865207a65726f206160448201526564647265737360d01b60648201526084016109f6565b610f44816116c2565b50565b610f5e6000805160206123f583398151915261102a565b6001600160a01b0381166000908152600a602052604090205460ff16610fc65760405162461bcd60e51b815260206004820152601e60248201527f42617365546f6b656e3a205f6163636f756e74206e6f74206d61726b6564000060448201526064016109f6565b610fcf816115c7565b6001600160a01b0381166000908152600a60209081526040808320805460ff191690556007909152902054600654610b7191906121e4565b42600255611014336116c2565b61101f600033611714565b610f44600082611714565b610f4481336118af565b604080516001600160a01b038416602482015260448082018490528251808303909101815260649091019091526020810180516001600160e01b031663a9059cbb60e01b1790526106f8908490611908565b6001600160a01b0383166110ed5760405162461bcd60e51b815260206004820152602860248201527f42617365546f6b656e3a20617070726f76652066726f6d20746865207a65726f604482015267206164647265737360c01b60648201526084016109f6565b6001600160a01b0382166111525760405162461bcd60e51b815260206004820152602660248201527f42617365546f6b656e3a20617070726f766520746f20746865207a65726f206160448201526564647265737360d01b60648201526084016109f6565b6001600160a01b0383811660008181526008602090815260408083209487168084529482529182902085905590518481527f8c5be1e5ebec7d5bd14f71427d1e84f3dd0314c0f7b2291e5b200ac8c7c3b92591015b60405180910390a3505050565b6001600160a01b03831661121c5760405162461bcd60e51b815260206004820152602960248201527f42617365546f6b656e3a207472616e736665722066726f6d20746865207a65726044820152686f206164647265737360b81b60648201526084016109f6565b6001600160a01b0382166112825760405162461bcd60e51b815260206004820152602760248201527f42617365546f6b656e3a207472616e7366657220746f20746865207a65726f206044820152666164647265737360c81b60648201526084016109f6565b600c5460ff16156112fa57336000908152600d602052604090205460ff166112fa5760405162461bcd60e51b815260206004820152602560248201527f42617365546f6b656e3a206d73672e73656e646572206e6f742077686974656c6044820152641a5cdd195960da1b60648201526084016109f6565b611303836115c7565b61130c826115c7565b6001600160a01b0383166000908152600760205260409020546113309082906121e4565b6001600160a01b0380851660009081526007602052604080822093909355908416815220546113609082906121f7565b6001600160a01b038084166000908152600760209081526040808320949094559186168152600a909152205460ff16156113a657806006546113a291906121e4565b6006555b6001600160a01b0382166000908152600a602052604090205460ff16156113d957806006546113d591906121f7565b6006555b816001600160a01b0316836001600160a01b03167fddf252ad1be2c89b69c2b068fc378daa952ba7f163c4a11628f55a4df523b3ef836040516111a791815260200190565b6114288282610c77565b6108c9576000828152602081815260408083206001600160a01b03851684529091529020805460ff1916600117905561145e3390565b6001600160a01b0316816001600160a01b0316837f2f8788117e7eff1d82e926ec794901d17c78024a50270940304540a733656f0d60405160405180910390a45050565b6001600160a01b0382166115045760405162461bcd60e51b815260206004820152602360248201527f42617365546f6b656e3a206d696e7420746f20746865207a65726f206164647260448201526265737360e81b60648201526084016109f6565b61150d826115c7565b8060055461151b91906121f7565b6005556001600160a01b0382166000908152600760205260409020546115429082906121f7565b6001600160a01b038316600090815260076020908152604080832093909355600a9052205460ff1615611581578060065461157d91906121f7565b6006555b6040518181526001600160a01b038316906000907fddf252ad1be2c89b69c2b068fc378daa952ba7f163c4a11628f55a4df523b3ef906020015b60405180910390a35050565b60005b6009548110156108c9576000600982815481106115e9576115e9612186565b600091825260209091200154604051635fd6196560e01b81526001600160a01b03858116600483015290911691508190635fd6196590602401600060405180830381600087803b15801561163c57600080fd5b505af1158015611650573d6000803e3d6000fd5b50505050508080611660906121cb565b9150506115ca565b6001546001600160a01b03163314610bc45760405162461bcd60e51b815260206004820181905260248201527f4f776e61626c653a2063616c6c6572206973206e6f7420746865206f776e657260448201526064016109f6565b600180546001600160a01b038381166001600160a01b0319831681179093556040519116919082907f8be0079c531659141344cd1fd0a4f28419497f9722a3daafe3b4186f6b6457e090600090a35050565b6108c9828261141e565b6117288282610c77565b156108c9576000828152602081815260408083206001600160a01b0385168085529252808320805460ff1916905551339285917ff6391f5c32d9c69d2a47ea670b442974b53935d1edc7fd64eb21e047a839171b9190a45050565b6001600160a01b0382166117e75760405162461bcd60e51b815260206004820152602560248201527f42617365546f6b656e3a206275726e2066726f6d20746865207a65726f206164604482015264647265737360d81b60648201526084016109f6565b6117f0826115c7565b6001600160a01b0382166000908152600760205260409020546118149082906121e4565b6001600160a01b03831660009081526007602052604090205560055461183b9082906121e4565b6005556001600160a01b0382166000908152600a602052604090205460ff1615611871578060065461186d91906121e4565b6006555b6040518181526000906001600160a01b038416907fddf252ad1be2c89b69c2b068fc378daa952ba7f163c4a11628f55a4df523b3ef906020016115bb565b6118b98282610c77565b6108c9576118c6816119dd565b6118d18360206119ef565b6040516020016118e2929190612318565b60408051601f198184030181529082905262461bcd60e51b82526109f691600401611e3b565b600061195d826040518060400160405280602081526020017f5361666545524332303a206c6f772d6c6576656c2063616c6c206661696c6564815250856001600160a01b0316611b8b9092919063ffffffff16565b905080516000148061197e57508080602001905181019061197e919061238d565b6106f85760405162461bcd60e51b815260206004820152602a60248201527f5361666545524332303a204552433230206f7065726174696f6e20646964206e6044820152691bdd081cdd58d8d9595960b21b60648201526084016109f6565b606061072e6001600160a01b03831660145b606060006119fe8360026123aa565b611a099060026121f7565b67ffffffffffffffff811115611a2157611a21611ecc565b6040519080825280601f01601f191660200182016040528015611a4b576020820181803683370190505b509050600360fc1b81600081518110611a6657611a66612186565b60200101906001600160f81b031916908160001a905350600f60fb1b81600181518110611a9557611a95612186565b60200101906001600160f81b031916908160001a9053506000611ab98460026123aa565b611ac49060016121f7565b90505b6001811115611b3c576f181899199a1a9b1b9c1cb0b131b232b360811b85600f1660108110611af857611af8612186565b1a60f81b828281518110611b0e57611b0e612186565b60200101906001600160f81b031916908160001a90535060049490941c93611b35816123c1565b9050611ac7565b5083156109455760405162461bcd60e51b815260206004820181905260248201527f537472696e67733a20686578206c656e67746820696e73756666696369656e7460448201526064016109f6565b6060611b9a8484600085611ba2565b949350505050565b606082471015611c035760405162461bcd60e51b815260206004820152602660248201527f416464726573733a20696e73756666696369656e742062616c616e636520666f6044820152651c8818d85b1b60d21b60648201526084016109f6565b600080866001600160a01b03168587604051611c1f91906123d8565b60006040518083038185875af1925050503d8060008114611c5c576040519150601f19603f3d011682016040523d82523d6000602084013e611c61565b606091505b5091509150611c7287838387611c7d565b979650505050505050565b60608315611cec578251600003611ce5576001600160a01b0385163b611ce55760405162461bcd60e51b815260206004820152601d60248201527f416464726573733a2063616c6c20746f206e6f6e2d636f6e747261637400000060448201526064016109f6565b5081611b9a565b611b9a8383815115611d015781518083602001fd5b8060405162461bcd60e51b81526004016109f69190611e3b565b828054828255906000526020600020908101928215611d70579160200282015b82811115611d7057825182546001600160a01b0319166001600160a01b03909116178255602090920191600190910190611d3b565b50611d7c929150611d80565b5090565b5b80821115611d7c5760008155600101611d81565b80356001600160a01b0381168114611dac57600080fd5b919050565b600080600060608486031215611dc657600080fd5b611dcf84611d95565b9250611ddd60208501611d95565b9150604084013590509250925092565b600060208284031215611dff57600080fd5b81356001600160e01b03198116811461094557600080fd5b60005b83811015611e32578181015183820152602001611e1a565b50506000910152565b6020815260008251806020840152611e5a816040850160208701611e17565b601f01601f19169190910160400192915050565b60008060408385031215611e8157600080fd5b611e8a83611d95565b946020939093013593505050565b600060208284031215611eaa57600080fd5b61094582611d95565b600060208284031215611ec557600080fd5b5035919050565b634e487b7160e01b600052604160045260246000fd5b604051601f8201601f1916810167ffffffffffffffff81118282101715611f0b57611f0b611ecc565b604052919050565b60006020808385031215611f2657600080fd5b823567ffffffffffffffff80821115611f3e57600080fd5b818501915085601f830112611f5257600080fd5b813581811115611f6457611f64611ecc565b8060051b9150611f75848301611ee2565b8181529183018401918481019088841115611f8f57600080fd5b938501935b83851015611fb457611fa585611d95565b82529385019390850190611f94565b98975050505050505050565b60008060408385031215611fd357600080fd5b82359150611fe360208401611d95565b90509250929050565b60008060408385031215611fff57600080fd5b61200883611d95565b9150611fe360208401611d95565b8015158114610f4457600080fd5b60006020828403121561203657600080fd5b813561094581612016565b6000806040838503121561205457600080fd5b61205d83611d95565b9150602083013561206d81612016565b809150509250929050565b600082601f83011261208957600080fd5b813567ffffffffffffffff8111156120a3576120a3611ecc565b6120b6601f8201601f1916602001611ee2565b8181528460208386010111156120cb57600080fd5b816020850160208301376000918101602001919091529392505050565b600080604083850312156120fb57600080fd5b823567ffffffffffffffff8082111561211357600080fd5b61211f86838701612078565b9350602085013591508082111561213557600080fd5b5061214285828601612078565b9150509250929050565b600181811c9082168061216057607f821691505b60208210810361218057634e487b7160e01b600052602260045260246000fd5b50919050565b634e487b7160e01b600052603260045260246000fd5b6000602082840312156121ae57600080fd5b5051919050565b634e487b7160e01b600052601160045260246000fd5b6000600182016121dd576121dd6121b5565b5060010190565b8181038181111561072e5761072e6121b5565b8082018082111561072e5761072e6121b5565b601f8211156106f857600081815260208120601f850160051c810160208610156122315750805b601f850160051c820191505b818110156122505782815560010161223d565b505050505050565b815167ffffffffffffffff81111561227257612272611ecc565b61228681612280845461214c565b8461220a565b602080601f8311600181146122bb57600084156122a35750858301515b600019600386901b1c1916600185901b178555612250565b600085815260208120601f198616915b828110156122ea578886015182559484019460019091019084016122cb565b50858210156123085787850151600019600388901b60f8161c191681555b5050505050600190811b01905550565b7f416363657373436f6e74726f6c3a206163636f756e7420000000000000000000815260008351612350816017850160208801611e17565b7001034b99036b4b9b9b4b733903937b6329607d1b6017918401918201528351612381816028840160208801611e17565b01602801949350505050565b60006020828403121561239f57600080fd5b815161094581612016565b808202811582820484141761072e5761072e6121b5565b6000816123d0576123d06121b5565b506000190190565b600082516123ea818460208701611e17565b919091019291505056fe241ecf16d79d0f8dbfb92cbc07fe17840425976cf0667f022fe9877caa831b08a264697066735822122037d3007ad400c6a818151822f4849449ee807d6fc20a4e93a55aa2310ec686ba64736f6c63430008110033",
    "linkReferences": {}
  },
  "methodIdentifiers": {
    "DEFAULT_ADMIN_ROLE()": "a217fddf",
    "addAdmin(address)": "70480275",
    "addNonStakingAccount(address)": "62289077",
    "admins(address)": "429b62e5",
    "allowance(address,address)": "dd62ed3e",
    "allowances(address,address)": "55b6ed5c",
    "approve(address,uint256)": "095ea7b3",
    "balanceOf(address)": "70a08231",
    "balances(address)": "27e235e3",
    "burn(address,uint256)": "9dc29fac",
    "claim(address)": "1e83409a",
    "decimals()": "313ce567",
    "getRoleAdmin(bytes32)": "248a9ca3",
    "grantControllerRoleByMarketManager(address)": "7fe4a698",
    "grantRole(bytes32,address)": "2f2ff15d",
    "hasRole(bytes32,address)": "91d14854",
    "id()": "af640d0f",
    "inPrivateTransferMode()": "dfbaefb1",
    "isHandler(address)": "46ea87af",
    "isMinter(address)": "aa271e1a",
    "mint(address,uint256)": "40c10f19",
    "name()": "06fdde03",
    "nonStakingAccounts(address)": "9554381a",
    "nonStakingSupply()": "c93be636",
    "owner()": "8da5cb5b",
    "recoverClaim(address,address)": "996f11ee",
    "removeAdmin(address)": "1785f53c",
    "removeNonStakingAccount(address)": "fb30d916",
    "renounceOwnership()": "715018a6",
    "renounceRole(bytes32,address)": "36568abe",
    "revokeRole(bytes32,address)": "d547741f",
    "setHandler(address,bool)": "9cb7de4b",
    "setInPrivateTransferMode(bool)": "5a47a1a7",
    "setInfo(string,string)": "a923fc40",
    "setMinter(address,bool)": "cf456ae7",
    "setYieldTrackers(address[])": "276eab4e",
    "stakedBalance(address)": "60217267",
    "supportsInterface(bytes4)": "01ffc9a7",
    "symbol()": "95d89b41",
    "totalStaked()": "817b1cd2",
    "totalSupply()": "18160ddd",
    "transfer(address,uint256)": "a9059cbb",
    "transferAdmin(address)": "75829def",
    "transferFrom(address,address,uint256)": "23b872dd",
    "transferOwnership(address)": "f2fde38b",
    "withdrawToken(address,address,uint256)": "01e33667",
    "yieldTrackers(uint256)": "52cd38d9"
  },
  "id": 106
}