{
  "abi": [
    {
      "anonymous": false,
      "inputs": [
        {
          "indexed": true,
          "internalType": "address",
          "name": "owner",
          "type": "address"
        },
        {
          "indexed": true,
          "internalType": "address",
          "name": "spender",
          "type": "address"
        },
        {
          "indexed": false,
          "internalType": "uint256",
          "name": "value",
          "type": "uint256"
        }
      ],
      "name": "Approval",
      "type": "event"
    },
    {
      "anonymous": false,
      "inputs": [
        {
          "indexed": false,
          "internalType": "uint256",
          "name": "duration",
          "type": "uint256"
        }
      ],
      "name": "CoolDownDurationUpdated",
      "type": "event"
    },
    {
      "anonymous": false,
      "inputs": [
        {
          "indexed": true,
          "internalType": "address",
          "name": "sender",
          "type": "address"
        },
        {
          "indexed": true,
          "internalType": "address",
          "name": "owner",
          "type": "address"
        },
        {
          "indexed": false,
          "internalType": "uint256",
          "name": "assets",
          "type": "uint256"
        },
        {
          "indexed": false,
          "internalType": "uint256",
          "name": "shares",
          "type": "uint256"
        }
      ],
      "name": "Deposit",
      "type": "event"
    },
    {
      "anonymous": false,
      "inputs": [
        {
          "indexed": true,
          "internalType": "address",
          "name": "sender",
          "type": "address"
        },
        {
          "indexed": true,
          "internalType": "address",
          "name": "owner",
          "type": "address"
        },
        {
          "indexed": false,
          "internalType": "uint256",
          "name": "assets",
          "type": "uint256"
        },
        {
          "indexed": false,
          "internalType": "uint256",
          "name": "shares",
          "type": "uint256"
        },
        {
          "indexed": false,
          "internalType": "uint256",
          "name": "fee",
          "type": "uint256"
        }
      ],
      "name": "DepositAsset",
      "type": "event"
    },
    {
      "anonymous": false,
      "inputs": [
        {
          "indexed": false,
          "internalType": "uint8",
          "name": "version",
          "type": "uint8"
        }
      ],
      "name": "Initialized",
      "type": "event"
    },
    {
      "anonymous": false,
      "inputs": [
        {
          "indexed": false,
          "internalType": "bool",
          "name": "isBuy",
          "type": "bool"
        },
        {
          "indexed": false,
          "internalType": "uint256",
          "name": "fee",
          "type": "uint256"
        }
      ],
      "name": "LPFeeUpdated",
      "type": "event"
    },
    {
      "anonymous": false,
      "inputs": [
        {
          "indexed": false,
          "internalType": "bool",
          "name": "isFreeze",
          "type": "bool"
        }
      ],
      "name": "LogIsFreeze",
      "type": "event"
    },
    {
      "anonymous": false,
      "inputs": [
        {
          "indexed": true,
          "internalType": "address",
          "name": "previousOwner",
          "type": "address"
        },
        {
          "indexed": true,
          "internalType": "address",
          "name": "newOwner",
          "type": "address"
        }
      ],
      "name": "OwnershipTransferred",
      "type": "event"
    },
    {
      "anonymous": false,
      "inputs": [
        {
          "indexed": true,
          "internalType": "bytes32",
          "name": "role",
          "type": "bytes32"
        },
        {
          "indexed": true,
          "internalType": "bytes32",
          "name": "previousAdminRole",
          "type": "bytes32"
        },
        {
          "indexed": true,
          "internalType": "bytes32",
          "name": "newAdminRole",
          "type": "bytes32"
        }
      ],
      "name": "RoleAdminChanged",
      "type": "event"
    },
    {
      "anonymous": false,
      "inputs": [
        {
          "indexed": true,
          "internalType": "bytes32",
          "name": "role",
          "type": "bytes32"
        },
        {
          "indexed": true,
          "internalType": "address",
          "name": "account",
          "type": "address"
        },
        {
          "indexed": true,
          "internalType": "address",
          "name": "sender",
          "type": "address"
        }
      ],
      "name": "RoleGranted",
      "type": "event"
    },
    {
      "anonymous": false,
      "inputs": [
        {
          "indexed": true,
          "internalType": "bytes32",
          "name": "role",
          "type": "bytes32"
        },
        {
          "indexed": true,
          "internalType": "address",
          "name": "account",
          "type": "address"
        },
        {
          "indexed": true,
          "internalType": "address",
          "name": "sender",
          "type": "address"
        }
      ],
      "name": "RoleRevoked",
      "type": "event"
    },
    {
      "anonymous": false,
      "inputs": [
        {
          "indexed": true,
          "internalType": "address",
          "name": "from",
          "type": "address"
        },
        {
          "indexed": true,
          "internalType": "address",
          "name": "to",
          "type": "address"
        },
        {
          "indexed": false,
          "internalType": "uint256",
          "name": "value",
          "type": "uint256"
        }
      ],
      "name": "Transfer",
      "type": "event"
    },
    {
      "anonymous": false,
      "inputs": [
        {
          "indexed": true,
          "internalType": "address",
          "name": "sender",
          "type": "address"
        },
        {
          "indexed": true,
          "internalType": "address",
          "name": "receiver",
          "type": "address"
        },
        {
          "indexed": true,
          "internalType": "address",
          "name": "owner",
          "type": "address"
        },
        {
          "indexed": false,
          "internalType": "uint256",
          "name": "assets",
          "type": "uint256"
        },
        {
          "indexed": false,
          "internalType": "uint256",
          "name": "shares",
          "type": "uint256"
        }
      ],
      "name": "Withdraw",
      "type": "event"
    },
    {
      "anonymous": false,
      "inputs": [
        {
          "indexed": true,
          "internalType": "address",
          "name": "sender",
          "type": "address"
        },
        {
          "indexed": true,
          "internalType": "address",
          "name": "receiver",
          "type": "address"
        },
        {
          "indexed": true,
          "internalType": "address",
          "name": "owner",
          "type": "address"
        },
        {
          "indexed": false,
          "internalType": "uint256",
          "name": "assets",
          "type": "uint256"
        },
        {
          "indexed": false,
          "internalType": "uint256",
          "name": "shares",
          "type": "uint256"
        },
        {
          "indexed": false,
          "internalType": "uint256",
          "name": "fee",
          "type": "uint256"
        }
      ],
      "name": "WithdrawAsset",
      "type": "event"
    },
    {
      "inputs": [],
      "name": "DEFAULT_ADMIN_ROLE",
      "outputs": [
        {
          "internalType": "bytes32",
          "name": "",
          "type": "bytes32"
        }
      ],
      "stateMutability": "view",
      "type": "function"
    },
    {
      "inputs": [],
      "name": "FEE_RATE_PRECISION",
      "outputs": [
        {
          "internalType": "uint256",
          "name": "",
          "type": "uint256"
        }
      ],
      "stateMutability": "view",
      "type": "function"
    },
    {
      "inputs": [
        {
          "internalType": "address",
          "name": "owner",
          "type": "address"
        },
        {
          "internalType": "address",
          "name": "spender",
          "type": "address"
        }
      ],
      "name": "allowance",
      "outputs": [
        {
          "internalType": "uint256",
          "name": "",
          "type": "uint256"
        }
      ],
      "stateMutability": "view",
      "type": "function"
    },
    {
      "inputs": [
        {
          "internalType": "address",
          "name": "spender",
          "type": "address"
        },
        {
          "internalType": "uint256",
          "name": "amount",
          "type": "uint256"
        }
      ],
      "name": "approve",
      "outputs": [
        {
          "internalType": "bool",
          "name": "",
          "type": "bool"
        }
      ],
      "stateMutability": "nonpayable",
      "type": "function"
    },
    {
      "inputs": [],
      "name": "asset",
      "outputs": [
        {
          "internalType": "address",
          "name": "",
          "type": "address"
        }
      ],
      "stateMutability": "view",
      "type": "function"
    },
    {
      "inputs": [
        {
          "internalType": "address",
          "name": "account",
          "type": "address"
        }
      ],
      "name": "balanceOf",
      "outputs": [
        {
          "internalType": "uint256",
          "name": "",
          "type": "uint256"
        }
      ],
      "stateMutability": "view",
      "type": "function"
    },
    {
      "inputs": [],
      "name": "buyLpFee",
      "outputs": [
        {
          "internalType": "uint256",
          "name": "",
          "type": "uint256"
        }
      ],
      "stateMutability": "view",
      "type": "function"
    },
    {
      "inputs": [
        {
          "internalType": "bool",
          "name": "isBuy",
          "type": "bool"
        },
        {
          "internalType": "uint256",
          "name": "amount",
          "type": "uint256"
        }
      ],
      "name": "computationalCosts",
      "outputs": [
        {
          "internalType": "uint256",
          "name": "",
          "type": "uint256"
        }
      ],
      "stateMutability": "view",
      "type": "function"
    },
    {
      "inputs": [
        {
          "internalType": "uint256",
          "name": "shares",
          "type": "uint256"
        }
      ],
      "name": "convertToAssets",
      "outputs": [
        {
          "internalType": "uint256",
          "name": "assets",
          "type": "uint256"
        }
      ],
      "stateMutability": "view",
      "type": "function"
    },
    {
      "inputs": [
        {
          "internalType": "uint256",
          "name": "assets",
          "type": "uint256"
        }
      ],
      "name": "convertToShares",
      "outputs": [
        {
          "internalType": "uint256",
          "name": "shares",
          "type": "uint256"
        }
      ],
      "stateMutability": "view",
      "type": "function"
    },
    {
      "inputs": [],
      "name": "cooldownDuration",
      "outputs": [
        {
          "internalType": "uint256",
          "name": "",
          "type": "uint256"
        }
      ],
      "stateMutability": "view",
      "type": "function"
    },
    {
      "inputs": [],
      "name": "decimals",
      "outputs": [
        {
          "internalType": "uint8",
          "name": "",
          "type": "uint8"
        }
      ],
      "stateMutability": "view",
      "type": "function"
    },
    {
      "inputs": [
        {
          "internalType": "address",
          "name": "spender",
          "type": "address"
        },
        {
          "internalType": "uint256",
          "name": "subtractedValue",
          "type": "uint256"
        }
      ],
      "name": "decreaseAllowance",
      "outputs": [
        {
          "internalType": "bool",
          "name": "",
          "type": "bool"
        }
      ],
      "stateMutability": "nonpayable",
      "type": "function"
    },
    {
      "inputs": [
        {
          "internalType": "uint256",
          "name": "assets",
          "type": "uint256"
        },
        {
          "internalType": "address",
          "name": "receiver",
          "type": "address"
        }
      ],
      "name": "deposit",
      "outputs": [
        {
          "internalType": "uint256",
          "name": "",
          "type": "uint256"
        }
      ],
      "stateMutability": "nonpayable",
      "type": "function"
    },
    {
      "inputs": [],
      "name": "feeRouter",
      "outputs": [
        {
          "internalType": "contract IFeeRouter",
          "name": "",
          "type": "address"
        }
      ],
      "stateMutability": "view",
      "type": "function"
    },
    {
      "inputs": [
        {
          "internalType": "bool",
          "name": "isBuy",
          "type": "bool"
        }
      ],
      "name": "getLPFee",
      "outputs": [
        {
          "internalType": "uint256",
          "name": "",
          "type": "uint256"
        }
      ],
      "stateMutability": "view",
      "type": "function"
    },
    {
      "inputs": [
        {
          "internalType": "bytes32",
          "name": "role",
          "type": "bytes32"
        }
      ],
      "name": "getRoleAdmin",
      "outputs": [
        {
          "internalType": "bytes32",
          "name": "",
          "type": "bytes32"
        }
      ],
      "stateMutability": "view",
      "type": "function"
    },
    {
      "inputs": [
        {
          "internalType": "address",
          "name": "_account",
          "type": "address"
        }
      ],
      "name": "grantControllerRoleByMarketManager",
      "outputs": [],
      "stateMutability": "nonpayable",
      "type": "function"
    },
    {
      "inputs": [
        {
          "internalType": "bytes32",
          "name": "role",
          "type": "bytes32"
        },
        {
          "internalType": "address",
          "name": "account",
          "type": "address"
        }
      ],
      "name": "grantRole",
      "outputs": [],
      "stateMutability": "nonpayable",
      "type": "function"
    },
    {
      "inputs": [
        {
          "internalType": "bytes32",
          "name": "role",
          "type": "bytes32"
        },
        {
          "internalType": "address",
          "name": "account",
          "type": "address"
        }
      ],
      "name": "hasRole",
      "outputs": [
        {
          "internalType": "bool",
          "name": "",
          "type": "bool"
        }
      ],
      "stateMutability": "view",
      "type": "function"
    },
    {
      "inputs": [
        {
          "internalType": "address",
          "name": "spender",
          "type": "address"
        },
        {
          "internalType": "uint256",
          "name": "addedValue",
          "type": "uint256"
        }
      ],
      "name": "increaseAllowance",
      "outputs": [
        {
          "internalType": "bool",
          "name": "",
          "type": "bool"
        }
      ],
      "stateMutability": "nonpayable",
      "type": "function"
    },
    {
      "inputs": [
        {
          "internalType": "address",
          "name": "_asset",
          "type": "address"
        },
        {
          "internalType": "string",
          "name": "_name",
          "type": "string"
        },
        {
          "internalType": "string",
          "name": "_symbol",
          "type": "string"
        },
        {
          "internalType": "address",
          "name": "_vaultRouter",
          "type": "address"
        },
        {
          "internalType": "address",
          "name": "_feeRouter",
          "type": "address"
        },
        {
          "internalType": "address",
          "name": "_vaultReward",
          "type": "address"
        }
      ],
      "name": "initialize",
      "outputs": [],
      "stateMutability": "nonpayable",
      "type": "function"
    },
    {
      "inputs": [],
      "name": "isFreeze",
      "outputs": [
        {
          "internalType": "bool",
          "name": "",
          "type": "bool"
        }
      ],
      "stateMutability": "view",
      "type": "function"
    },
    {
      "inputs": [
        {
          "internalType": "address",
          "name": "",
          "type": "address"
        }
      ],
      "name": "lastDepositAt",
      "outputs": [
        {
          "internalType": "uint256",
          "name": "",
          "type": "uint256"
        }
      ],
      "stateMutability": "view",
      "type": "function"
    },
    {
      "inputs": [
        {
          "internalType": "address",
          "name": "",
          "type": "address"
        }
      ],
      "name": "maxDeposit",
      "outputs": [
        {
          "internalType": "uint256",
          "name": "",
          "type": "uint256"
        }
      ],
      "stateMutability": "view",
      "type": "function"
    },
    {
      "inputs": [
        {
          "internalType": "address",
          "name": "",
          "type": "address"
        }
      ],
      "name": "maxMint",
      "outputs": [
        {
          "internalType": "uint256",
          "name": "",
          "type": "uint256"
        }
      ],
      "stateMutability": "view",
      "type": "function"
    },
    {
      "inputs": [
        {
          "internalType": "address",
          "name": "owner",
          "type": "address"
        }
      ],
      "name": "maxRedeem",
      "outputs": [
        {
          "internalType": "uint256",
          "name": "",
          "type": "uint256"
        }
      ],
      "stateMutability": "view",
      "type": "function"
    },
    {
      "inputs": [
        {
          "internalType": "address",
          "name": "owner",
          "type": "address"
        }
      ],
      "name": "maxWithdraw",
      "outputs": [
        {
          "internalType": "uint256",
          "name": "",
          "type": "uint256"
        }
      ],
      "stateMutability": "view",
      "type": "function"
    },
    {
      "inputs": [
        {
          "internalType": "uint256",
          "name": "shares",
          "type": "uint256"
        },
        {
          "internalType": "address",
          "name": "receiver",
          "type": "address"
        }
      ],
      "name": "mint",
      "outputs": [
        {
          "internalType": "uint256",
          "name": "",
          "type": "uint256"
        }
      ],
      "stateMutability": "nonpayable",
      "type": "function"
    },
    {
      "inputs": [],
      "name": "name",
      "outputs": [
        {
          "internalType": "string",
          "name": "",
          "type": "string"
        }
      ],
      "stateMutability": "view",
      "type": "function"
    },
    {
      "inputs": [],
      "name": "owner",
      "outputs": [
        {
          "internalType": "address",
          "name": "",
          "type": "address"
        }
      ],
      "stateMutability": "view",
      "type": "function"
    },
    {
      "inputs": [
        {
          "internalType": "uint256",
          "name": "assets",
          "type": "uint256"
        }
      ],
      "name": "previewDeposit",
      "outputs": [
        {
          "internalType": "uint256",
          "name": "",
          "type": "uint256"
        }
      ],
      "stateMutability": "view",
      "type": "function"
    },
    {
      "inputs": [
        {
          "internalType": "uint256",
          "name": "shares",
          "type": "uint256"
        }
      ],
      "name": "previewMint",
      "outputs": [
        {
          "internalType": "uint256",
          "name": "",
          "type": "uint256"
        }
      ],
      "stateMutability": "view",
      "type": "function"
    },
    {
      "inputs": [
        {
          "internalType": "uint256",
          "name": "shares",
          "type": "uint256"
        }
      ],
      "name": "previewRedeem",
      "outputs": [
        {
          "internalType": "uint256",
          "name": "",
          "type": "uint256"
        }
      ],
      "stateMutability": "view",
      "type": "function"
    },
    {
      "inputs": [
        {
          "internalType": "uint256",
          "name": "assets",
          "type": "uint256"
        }
      ],
      "name": "previewWithdraw",
      "outputs": [
        {
          "internalType": "uint256",
          "name": "",
          "type": "uint256"
        }
      ],
      "stateMutability": "view",
      "type": "function"
    },
    {
      "inputs": [
        {
          "internalType": "uint256",
          "name": "shares",
          "type": "uint256"
        },
        {
          "internalType": "address",
          "name": "receiver",
          "type": "address"
        },
        {
          "internalType": "address",
          "name": "owner",
          "type": "address"
        }
      ],
      "name": "redeem",
      "outputs": [
        {
          "internalType": "uint256",
          "name": "",
          "type": "uint256"
        }
      ],
      "stateMutability": "nonpayable",
      "type": "function"
    },
    {
      "inputs": [],
      "name": "renounceOwnership",
      "outputs": [],
      "stateMutability": "nonpayable",
      "type": "function"
    },
    {
      "inputs": [
        {
          "internalType": "bytes32",
          "name": "",
          "type": "bytes32"
        },
        {
          "internalType": "address",
          "name": "",
          "type": "address"
        }
      ],
      "name": "renounceRole",
      "outputs": [],
      "stateMutability": "nonpayable",
      "type": "function"
    },
    {
      "inputs": [
        {
          "internalType": "bytes32",
          "name": "role",
          "type": "bytes32"
        },
        {
          "internalType": "address",
          "name": "account",
          "type": "address"
        }
      ],
      "name": "revokeRole",
      "outputs": [],
      "stateMutability": "nonpayable",
      "type": "function"
    },
    {
      "inputs": [],
      "name": "sellLpFee",
      "outputs": [
        {
          "internalType": "uint256",
          "name": "",
          "type": "uint256"
        }
      ],
      "stateMutability": "view",
      "type": "function"
    },
    {
      "inputs": [
        {
          "internalType": "uint256",
          "name": "_duration",
          "type": "uint256"
        }
      ],
      "name": "setCooldownDuration",
      "outputs": [],
      "stateMutability": "nonpayable",
      "type": "function"
    },
    {
      "inputs": [
        {
          "internalType": "bool",
          "name": "f",
          "type": "bool"
        }
      ],
      "name": "setIsFreeze",
      "outputs": [],
      "stateMutability": "nonpayable",
      "type": "function"
    },
    {
      "inputs": [
        {
          "internalType": "bool",
          "name": "isBuy",
          "type": "bool"
        },
        {
          "internalType": "uint256",
          "name": "fee",
          "type": "uint256"
        }
      ],
      "name": "setLpFee",
      "outputs": [],
      "stateMutability": "nonpayable",
      "type": "function"
    },
    {
      "inputs": [
        {
          "internalType": "address",
          "name": "_vaultRouter",
          "type": "address"
        }
      ],
      "name": "setVaultRouter",
      "outputs": [],
      "stateMutability": "nonpayable",
      "type": "function"
    },
    {
      "inputs": [
        {
          "internalType": "bytes4",
          "name": "interfaceId",
          "type": "bytes4"
        }
      ],
      "name": "supportsInterface",
      "outputs": [
        {
          "internalType": "bool",
          "name": "",
          "type": "bool"
        }
      ],
      "stateMutability": "view",
      "type": "function"
    },
    {
      "inputs": [],
      "name": "symbol",
      "outputs": [
        {
          "internalType": "string",
          "name": "",
          "type": "string"
        }
      ],
      "stateMutability": "view",
      "type": "function"
    },
    {
      "inputs": [],
      "name": "totalAssets",
      "outputs": [
        {
          "internalType": "uint256",
          "name": "",
          "type": "uint256"
        }
      ],
      "stateMutability": "view",
      "type": "function"
    },
    {
      "inputs": [],
      "name": "totalSupply",
      "outputs": [
        {
          "internalType": "uint256",
          "name": "",
          "type": "uint256"
        }
      ],
      "stateMutability": "view",
      "type": "function"
    },
    {
      "inputs": [
        {
          "internalType": "address",
          "name": "to",
          "type": "address"
        },
        {
          "internalType": "uint256",
          "name": "amount",
          "type": "uint256"
        }
      ],
      "name": "transfer",
      "outputs": [
        {
          "internalType": "bool",
          "name": "",
          "type": "bool"
        }
      ],
      "stateMutability": "nonpayable",
      "type": "function"
    },
    {
      "inputs": [
        {
          "internalType": "address",
          "name": "to",
          "type": "address"
        }
      ],
      "name": "transferAdmin",
      "outputs": [],
      "stateMutability": "nonpayable",
      "type": "function"
    },
    {
      "inputs": [
        {
          "internalType": "address",
          "name": "from",
          "type": "address"
        },
        {
          "internalType": "address",
          "name": "to",
          "type": "address"
        },
        {
          "internalType": "uint256",
          "name": "amount",
          "type": "uint256"
        }
      ],
      "name": "transferFrom",
      "outputs": [
        {
          "internalType": "bool",
          "name": "",
          "type": "bool"
        }
      ],
      "stateMutability": "nonpayable",
      "type": "function"
    },
    {
      "inputs": [
        {
          "internalType": "address",
          "name": "to",
          "type": "address"
        },
        {
          "internalType": "uint256",
          "name": "amount",
          "type": "uint256"
        }
      ],
      "name": "transferOutAssets",
      "outputs": [],
      "stateMutability": "nonpayable",
      "type": "function"
    },
    {
      "inputs": [
        {
          "internalType": "address",
          "name": "newOwner",
          "type": "address"
        }
      ],
      "name": "transferOwnership",
      "outputs": [],
      "stateMutability": "nonpayable",
      "type": "function"
    },
    {
      "inputs": [],
      "name": "vaultReward",
      "outputs": [
        {
          "internalType": "address",
          "name": "",
          "type": "address"
        }
      ],
      "stateMutability": "view",
      "type": "function"
    },
    {
      "inputs": [],
      "name": "vaultRouter",
      "outputs": [
        {
          "internalType": "contract IVaultRouter",
          "name": "",
          "type": "address"
        }
      ],
      "stateMutability": "view",
      "type": "function"
    },
    {
      "inputs": [
        {
          "internalType": "uint256",
          "name": "assets",
          "type": "uint256"
        },
        {
          "internalType": "address",
          "name": "receiver",
          "type": "address"
        },
        {
          "internalType": "address",
          "name": "owner",
          "type": "address"
        }
      ],
      "name": "withdraw",
      "outputs": [
        {
          "internalType": "uint256",
          "name": "",
          "type": "uint256"
        }
      ],
      "stateMutability": "nonpayable",
      "type": "function"
    }
  ],
  "bytecode": {
    "object": "0x60806040526009805460ff60a01b1916905534801561001d57600080fd5b506100273361002c565b61007e565b600780546001600160a01b038381166001600160a01b0319831681179093556040519116919082907f8be0079c531659141344cd1fd0a4f28419497f9722a3daafe3b4186f6b6457e090600090a35050565b6131c0806200008e6000396000f3fe608060405234801561001057600080fd5b50600436106103785760003560e01c80637fe4a698116101d3578063c4cc8bbb11610104578063d905777e116100a2578063ef8b30f71161007c578063ef8b30f7146106d7578063f29ebf6114610765578063f2fde38b14610778578063f4ca4d1d1461078b57600080fd5b8063d905777e1461072c578063db8d8fc61461073f578063dd62ed3e1461075257600080fd5b8063c7b8b46d116100de578063c7b8b46d146106ea578063ce96cb77146106f3578063d37c441c14610706578063d547741f1461071957600080fd5b8063c4cc8bbb146106af578063c63d75b6146106c2578063c6e6f592146106d757600080fd5b8063a457c2d711610171578063b460af941161014b578063b460af9414610655578063ba08765214610668578063c154d6ca1461067b578063c31295d41461068f57600080fd5b8063a457c2d71461061c578063a9059cbb1461062f578063b3d7f6b91461064257600080fd5b806394bf804d116101ad57806394bf804d146105e657806395d89b41146105f9578063966be07514610601578063a217fddf1461061457600080fd5b80637fe4a698146105af5780638da5cb5b146105c257806391d14854146105d357600080fd5b806335269315116102ad5780634cdad5061161024b57806370a082311161022557806370a0823114610558578063715018a61461058157806375829def14610589578063780e72ff1461059c57600080fd5b80634cdad506146103d05780636e553f651461053c5780636fd3acb41461054f57600080fd5b8063395093511161028757806339509351146104f0578063402d267d1461050357806345be08da146105165780634b313b811461052957600080fd5b806335269315146104b457806336568abe146104bd57806338d52e0f146104cb57600080fd5b806318160ddd1161031a5780632e7e8415116102f45780632e7e84151461045c5780632f2ff15d1461046f578063313ce56714610482578063315c1e08146104a157600080fd5b806318160ddd1461041e57806323b872dd14610426578063248a9ca31461043957600080fd5b806307a2d13a1161035657806307a2d13a146103d0578063095ea7b3146103e35780630a28a477146103f65780630c3b0df21461040957600080fd5b806301e1d1141461037d57806301ffc9a71461039857806306fdde03146103bb575b600080fd5b610385610793565b6040519081526020015b60405180910390f35b6103ab6103a636600461294f565b610806565b604051901515815260200161038f565b6103c361083d565b60405161038f919061299d565b6103856103de3660046129d0565b6108cf565b6103ab6103f1366004612a05565b6108dc565b6103856104043660046129d0565b6108f4565b61041c610417366004612a05565b610901565b005b600254610385565b6103ab610434366004612a2f565b610938565b6103856104473660046129d0565b60009081526006602052604090206001015490565b61038561046a366004612a79565b61095e565b61041c61047d366004612a96565b610975565b600554600160a01b900460ff1660405160ff909116815260200161038f565b6103856104af366004612ac2565b61099f565b610385600c5481565b61041c610378366004612a96565b6005546001600160a01b03165b6040516001600160a01b03909116815260200161038f565b6103ab6104fe366004612a05565b6109ea565b610385610511366004612ae0565b610a0c565b61041c610524366004612ac2565b610a2a565b600f546104d8906001600160a01b031681565b61038561054a366004612a96565b610aaa565b610385600d5481565b610385610566366004612ae0565b6001600160a01b031660009081526020819052604090205490565b61041c610b22565b61041c610597366004612ae0565b610b36565b61041c6105aa366004612ae0565b610b86565b61041c6105bd366004612ae0565b610c7e565b6007546001600160a01b03166104d8565b6103ab6105e1366004612a96565b610ca8565b6103856105f4366004612a96565b610cd3565b6103c3610ced565b61041c61060f3660046129d0565b610cfc565b610385600081565b6103ab61062a366004612a05565b610d61565b6103ab61063d366004612a05565b610de7565b6103856106503660046129d0565b610df5565b610385610663366004612afb565b610e02565b610385610676366004612afb565b610e7e565b6009546103ab90600160a01b900460ff1681565b61038561069d366004612ae0565b600b6020526000908152604090205481565b61041c6106bd366004612a79565b610ef2565b6103856106d0366004612ae0565b5060001990565b6103856106e53660046129d0565b610f56565b610385600e5481565b610385610701366004612ae0565b610f63565b6009546104d8906001600160a01b031681565b61041c610727366004612a96565b610f87565b61038561073a366004612ae0565b610fac565b61041c61074d366004612bda565b610fca565b610385610760366004612c7f565b61124b565b600a546104d8906001600160a01b031681565b61041c610786366004612ae0565b611276565b6103856112ec565b60095460408051636dc7b0a160e01b815290516000926001600160a01b031691636dc7b0a19160048083019260209291908290030181865afa1580156107dd573d6000803e3d6000fd5b505050506040513d601f19601f820116820180604052508101906108019190612ca9565b905090565b60006001600160e01b03198216637965db0b60e01b148061083757506301ffc9a760e01b6001600160e01b03198316145b92915050565b60606003805461084c90612cc2565b80601f016020809104026020016040519081016040528092919081815260200182805461087890612cc2565b80156108c55780601f1061089a576101008083540402835291602001916108c5565b820191906000526020600020905b8154815290600101906020018083116108a857829003601f168201915b5050505050905090565b60006108378260006112fb565b6000336108ea81858561137d565b5060019392505050565b60006108378260016114a1565b61091860008051602061316b8339815191526114e6565b61093461092d6005546001600160a01b031690565b83836114f0565b5050565b600033610946858285611553565b6109518585856115cd565b60019150505b9392505050565b60008161096d57600e54610837565b5050600d5490565b600082815260066020526040902060010154610990816114e6565b61099a8383611771565b505050565b600082156109d1576109b36008600a612df6565b600d546109c09084612e02565b6109ca9190612e2f565b9050610837565b6109dd6008600a612df6565b600e546109c09084612e02565b6000336108ea8185856109fd838361124b565b610a079190612e51565b61137d565b6000610a166117f7565b610a21576000610837565b60001992915050565b610a537f241ecf16d79d0f8dbfb92cbc07fe17840425976cf0667f022fe9877caa831b086114e6565b81610a635780600e819055610a6a565b80600d8190555b50604080518315158152602081018390527f7f7f1bc207db1b3f896247af386fe2184613f48428c0d500cbc9f4d0ac5acfab910160405180910390a15050565b6000610ab582610a0c565b831115610b095760405162461bcd60e51b815260206004820152601e60248201527f455243343632363a206465706f736974206d6f7265207468616e206d6178000060448201526064015b60405180910390fd5b6000610b1484610f56565b905061095733848684611811565b610b2a6119c8565b610b346000611a22565b565b6000610b41816114e6565b6001600160a01b038216610b675760405162461bcd60e51b8152600401610b0090612e64565b610b72600083611a74565b610b7b82611a22565b610934600033611a7e565b610baf7f241ecf16d79d0f8dbfb92cbc07fe17840425976cf0667f022fe9877caa831b086114e6565b6001600160a01b038116610bd55760405162461bcd60e51b8152600401610b0090612e64565b6009546001600160a01b031615610c3057600954610c0b9060008051602061316b833981519152906001600160a01b0316611a7e565b600954610c309060008051602061314b833981519152906001600160a01b0316611a7e565b600980546001600160a01b0319166001600160a01b038316179055610c6360008051602061316b83398151915282611771565b610c7b60008051602061314b83398151915282611771565b50565b7f8d1089725c0dc266707fa6207730fb801dcd03108bfed7a21099bd303651d2b7610378816114e6565b60009182526006602090815260408084206001600160a01b0393909316845291905290205460ff1690565b600080610cdf84610df5565b905061095733848387611811565b60606004805461084c90612cc2565b610d257f241ecf16d79d0f8dbfb92cbc07fe17840425976cf0667f022fe9877caa831b086114e6565b600c8190556040518181527f57309e54eb3c050199477e2c187a12eec0088a1f1722c43a9178d621edf39e98906020015b60405180910390a150565b60003381610d6f828661124b565b905083811015610dcf5760405162461bcd60e51b815260206004820152602560248201527f45524332303a2064656372656173656420616c6c6f77616e63652062656c6f77604482015264207a65726f60d81b6064820152608401610b00565b610ddc828686840361137d565b506001949350505050565b6000336108ea8185856115cd565b60006108378260016112fb565b6000610e0d82610f63565b841115610e5c5760405162461bcd60e51b815260206004820152601f60248201527f455243343632363a207769746864726177206d6f7265207468616e206d6178006044820152606401610b00565b6000610e67856108f4565b9050610e763385858885611ae5565b949350505050565b6000610e8982610fac565b841115610ed85760405162461bcd60e51b815260206004820152601d60248201527f455243343632363a2072656465656d206d6f7265207468616e206d61780000006044820152606401610b00565b6000610ee3856108cf565b9050610e763385858489611ae5565b610f0960008051602061314b8339815191526114e6565b60098054821515600160a01b0260ff60a01b199091161790556040517f304980e7a98cd251f25e85dbe838e498ece26e6aeba1e9912871343633eea86c90610d5690831515815260200190565b60006108378260006114a1565b6001600160a01b0381166000908152602081905260408120546108379060006112fb565b600082815260066020526040902060010154610fa2816114e6565b61099a8383611a7e565b6001600160a01b038116600090815260208190526040812054610837565b600754600160a81b900460ff1615808015610ff257506007546001600160a01b90910460ff16105b806110135750303b1580156110135750600754600160a01b900460ff166001145b6110765760405162461bcd60e51b815260206004820152602e60248201527f496e697469616c697a61626c653a20636f6e747261637420697320616c72656160448201526d191e481a5b9a5d1a585b1a5e995960921b6064820152608401610b00565b6007805460ff60a01b1916600160a01b17905580156110a3576007805460ff60a81b1916600160a81b1790555b6001600160a01b0387166110c95760405162461bcd60e51b8152600401610b0090612e64565b6001600160a01b0384166110ef5760405162461bcd60e51b8152600401610b0090612e64565b6001600160a01b0383166111155760405162461bcd60e51b8152600401610b0090612e64565b6001600160a01b03821661113b5760405162461bcd60e51b8152600401610b0090612e64565b6111458686611cc1565b61114e87611cda565b61115733611d38565b600980546001600160a01b0319166001600160a01b03861617905561118a60008051602061316b83398151915285611771565b6111a260008051602061314b83398151915285611771565b600a80546001600160a01b0319166001600160a01b038516178155610384600c556064906111d290600890612df6565b6111dc9190612e2f565b600e55600f80546001600160a01b0319166001600160a01b0384161790558015611242576007805460ff60a81b19169055604051600181527f7f26b83ff96e1f2b6a682f133852f6798a09c465da95921460cefb38474024989060200160405180910390a15b50505050505050565b6001600160a01b03918216600090815260016020908152604080832093909416825291909152205490565b61127e6119c8565b6001600160a01b0381166112e35760405162461bcd60e51b815260206004820152602660248201527f4f776e61626c653a206e6577206f776e657220697320746865207a65726f206160448201526564647265737360d01b6064820152608401610b00565b610c7b81611a22565b6112f86008600a612df6565b81565b60006113078383611d5b565b90506000600183600281111561131f5761131f612e8b565b149050801561136957600d546113376008600a612df6565b6113419190612ea1565b61134d6008600a612df6565b6113579084612e02565b6113619190612e2f565b915050610837565b611373818361099f565b6113619083612ea1565b6001600160a01b0383166113df5760405162461bcd60e51b8152602060048201526024808201527f45524332303a20617070726f76652066726f6d20746865207a65726f206164646044820152637265737360e01b6064820152608401610b00565b6001600160a01b0382166114405760405162461bcd60e51b815260206004820152602260248201527f45524332303a20617070726f766520746f20746865207a65726f206164647265604482015261737360f01b6064820152608401610b00565b6001600160a01b0383811660008181526001602090815260408083209487168084529482529182902085905590518481527f8c5be1e5ebec7d5bd14f71427d1e84f3dd0314c0f7b2291e5b200ac8c7c3b925910160405180910390a3505050565b60006114ad8383611d8e565b90506000808360028111156114c4576114c4612e8b565b14905080156114d757611373818361099f565b600e546113376008600a612df6565b610c7b8133611dc0565b6040516001600160a01b03831660248201526044810182905261099a90849063a9059cbb60e01b906064015b60408051601f198184030181529190526020810180516001600160e01b03166001600160e01b031990931692909217909152611e19565b600061155f848461124b565b905060001981146115c757818110156115ba5760405162461bcd60e51b815260206004820152601d60248201527f45524332303a20696e73756666696369656e7420616c6c6f77616e63650000006044820152606401610b00565b6115c7848484840361137d565b50505050565b6001600160a01b0383166116315760405162461bcd60e51b815260206004820152602560248201527f45524332303a207472616e736665722066726f6d20746865207a65726f206164604482015264647265737360d81b6064820152608401610b00565b6001600160a01b0382166116935760405162461bcd60e51b815260206004820152602360248201527f45524332303a207472616e7366657220746f20746865207a65726f206164647260448201526265737360e81b6064820152608401610b00565b6001600160a01b0383166000908152602081905260409020548181101561170b5760405162461bcd60e51b815260206004820152602660248201527f45524332303a207472616e7366657220616d6f756e7420657863656564732062604482015265616c616e636560d01b6064820152608401610b00565b6001600160a01b03848116600081815260208181526040808320878703905593871680835291849020805487019055925185815290927fddf252ad1be2c89b69c2b068fc378daa952ba7f163c4a11628f55a4df523b3ef910160405180910390a36115c7565b61177b8282610ca8565b6109345760008281526006602090815260408083206001600160a01b03851684529091529020805460ff191660011790556117b33390565b6001600160a01b0316816001600160a01b0316837f2f8788117e7eff1d82e926ec794901d17c78024a50270940304540a733656f0d60405160405180910390a45050565b600080611802610793565b11806108015750506002541590565b600954600160a01b900460ff161561185a5760405162461bcd60e51b815260206004820152600c60248201526b7661756c743a667265657a6560a01b6044820152606401610b00565b600f54604051630f71585960e11b81526001600160a01b03868116600483015290911690631ee2b0b290602401600060405180830381600087803b1580156118a157600080fd5b505af11580156118b5573d6000803e3d6000fd5b505050506001600160a01b0383166000908152600b602052604081204290556118df826001611d5b565b905060008184116118f9576118f48483612ea1565b611903565b6119038285612ea1565b905060008285116119145782611916565b845b905061192160025490565b6000036119445761193560006103e8611eee565b6119416103e885612ea1565b93505b61195087878387611f57565b61196e866119666005546001600160a01b031690565b846001611fd5565b60408051868152602081018690529081018390526001600160a01b0380881691908916907f502b1539e5ec91b2596d2d64d20b1f89c28d2e11fc7d74961c930cd221669e329060600160405180910390a350505050505050565b6007546001600160a01b03163314610b345760405162461bcd60e51b815260206004820181905260248201527f4f776e61626c653a2063616c6c6572206973206e6f7420746865206f776e65726044820152606401610b00565b600780546001600160a01b038381166001600160a01b0319831681179093556040519116919082907f8be0079c531659141344cd1fd0a4f28419497f9722a3daafe3b4186f6b6457e090600090a35050565b6109348282611771565b611a888282610ca8565b156109345760008281526006602090815260408083206001600160a01b0385168085529252808320805460ff1916905551339285917ff6391f5c32d9c69d2a47ea670b442974b53935d1edc7fd64eb21e047a839171b9190a45050565b600954600160a01b900460ff1615611b2e5760405162461bcd60e51b815260206004820152600c60248201526b7661756c743a667265657a6560a01b6044820152606401610b00565b6001600160a01b0383166000908152600b6020526040902054600c54611b549190612e51565b4211611b935760405162461bcd60e51b815260206004820152600e60248201526d3b30bab63a1d31b7b7b63237bbb760911b6044820152606401610b00565b600f54604051630f71585960e11b81526001600160a01b03878116600483015290911690631ee2b0b290602401600060405180830381600087803b158015611bda57600080fd5b505af1158015611bee573d6000803e3d6000fd5b505050506000611bff826000611d5b565b9050828111600081611c115782611c13565b845b9050611c2288888884886121b3565b600082611c3857611c338487612ea1565b611c42565b611c428685612ea1565b9050611c6287611c5a6005546001600160a01b031690565b836000611fd5565b60408051878152602081018790529081018290526001600160a01b03808916918a8216918c16907fbd93a9fa352132d84f0041011cee9c7891c834f670c204950c0310d49be30edf9060600160405180910390a4505050505050505050565b6003611ccd8382612f02565b50600461099a8282612f02565b600080611ce68361225f565b9150915081611cf6576012611cf8565b805b600580546001600160a01b039095166001600160a01b031960ff93909316600160a01b02929092166001600160a81b031990951694909417179092555050565b42600855611d4533611a22565b611d50600033611a74565b610c7b600082611a74565b600080611d6760025490565b90508015611d8857611d83611d7a610793565b8590838661233b565b610e76565b83610e76565b600080611d9a60025490565b9050831580611da7575080155b611d8857611d8381611db7610793565b8691908661233b565b611dca8282610ca8565b61093457611dd781612398565b611de28360206123aa565b604051602001611df3929190612fc2565b60408051601f198184030181529082905262461bcd60e51b8252610b009160040161299d565b6000611e6e826040518060400160405280602081526020017f5361666545524332303a206c6f772d6c6576656c2063616c6c206661696c6564815250856001600160a01b03166125469092919063ffffffff16565b9050805160001480611e8f575080806020019051810190611e8f9190613037565b61099a5760405162461bcd60e51b815260206004820152602a60248201527f5361666545524332303a204552433230206f7065726174696f6e20646964206e6044820152691bdd081cdd58d8d9595960b21b6064820152608401610b00565b8060026000828254611f009190612e51565b90915550506001600160a01b038216600081815260208181526040808320805486019055518481527fddf252ad1be2c89b69c2b068fc378daa952ba7f163c4a11628f55a4df523b3ef910160405180910390a35050565b600554611f6f906001600160a01b0316853085612555565b611f798382611eee565b826001600160a01b0316846001600160a01b03167fdcbc1c05240f31ff3ad067ef1ee35ce4997762752e3a095284754544f4c709d78484604051611fc7929190918252602082015260400190565b60405180910390a350505050565b81156115c757600081611fe9576006611fec565b60055b90506000611ffb826001613054565b60ff1667ffffffffffffffff81111561201657612016612b37565b60405190808252806020026020018201604052801561203f578160200160208202803683370190505b50600a5460405163095ea7b360e01b81526001600160a01b0391821660048201526024810187905291925086169063095ea7b3906044016020604051808303816000875af1158015612095573d6000803e3d6000fd5b505050506040513d601f19601f820116820180604052508101906120b99190613037565b5061212584866001600160a01b031663313ce5676040518163ffffffff1660e01b8152600401602060405180830381865afa1580156120fc573d6000803e3d6000fd5b505050506040513d601f19601f82011682018060405250810190612120919061306d565b61258d565b818360ff168151811061213a5761213a613090565b6020908102919091010152600a5460405163e50f19ef60e01b81526001600160a01b039091169063e50f19ef90612179908990899086906004016130a6565b600060405180830381600087803b15801561219357600080fd5b505af11580156121a7573d6000803e3d6000fd5b50505050505050505050565b826001600160a01b0316856001600160a01b0316146121d7576121d7838683611553565b6121e183826125ba565b6005546121f8906001600160a01b031685846114f0565b826001600160a01b0316846001600160a01b0316866001600160a01b03167ffbde797d201c681b91056529119e0b02407c7bb96a4a2c75c01fc9667232c8db8585604051612250929190918252602082015260400190565b60405180910390a45050505050565b60408051600481526024810182526020810180516001600160e01b031663313ce56760e01b17905290516000918291829182916001600160a01b038716916122a691613108565b600060405180830381855afa9150503d80600081146122e1576040519150601f19603f3d011682016040523d82523d6000602084013e6122e6565b606091505b50915091508180156122fa57506020815110155b1561232e576000818060200190518101906123159190612ca9565b905060ff811161232c576001969095509350505050565b505b5060009485945092505050565b6000806123498686866126ec565b9050600183600281111561235f5761235f612e8b565b14801561237c57506000848061237757612377612e19565b868809115b1561238f5761238c600182612e51565b90505b95945050505050565b60606108376001600160a01b03831660145b606060006123b9836002612e02565b6123c4906002612e51565b67ffffffffffffffff8111156123dc576123dc612b37565b6040519080825280601f01601f191660200182016040528015612406576020820181803683370190505b509050600360fc1b8160008151811061242157612421613090565b60200101906001600160f81b031916908160001a905350600f60fb1b8160018151811061245057612450613090565b60200101906001600160f81b031916908160001a9053506000612474846002612e02565b61247f906001612e51565b90505b60018111156124f7576f181899199a1a9b1b9c1cb0b131b232b360811b85600f16601081106124b3576124b3613090565b1a60f81b8282815181106124c9576124c9613090565b60200101906001600160f81b031916908160001a90535060049490941c936124f081613124565b9050612482565b5083156109575760405162461bcd60e51b815260206004820181905260248201527f537472696e67733a20686578206c656e67746820696e73756666696369656e746044820152606401610b00565b6060610e7684846000856127d6565b6040516001600160a01b03808516602483015283166044820152606481018290526115c79085906323b872dd60e01b9060840161151c565b600061259a82600a61313b565b6125a66012600a612df6565b6125b09085612e02565b6109579190612e2f565b6001600160a01b03821661261a5760405162461bcd60e51b815260206004820152602160248201527f45524332303a206275726e2066726f6d20746865207a65726f206164647265736044820152607360f81b6064820152608401610b00565b6001600160a01b0382166000908152602081905260409020548181101561268e5760405162461bcd60e51b815260206004820152602260248201527f45524332303a206275726e20616d6f756e7420657863656564732062616c616e604482015261636560f01b6064820152608401610b00565b6001600160a01b0383166000818152602081815260408083208686039055600280548790039055518581529192917fddf252ad1be2c89b69c2b068fc378daa952ba7f163c4a11628f55a4df523b3ef910160405180910390a3505050565b60008080600019858709858702925082811083820303915050806000036127265783828161271c5761271c612e19565b0492505050610957565b80841161276d5760405162461bcd60e51b81526020600482015260156024820152744d6174683a206d756c446976206f766572666c6f7760581b6044820152606401610b00565b60008486880960026001871981018816978890046003810283188082028403028082028403028082028403028082028403028082028403029081029092039091026000889003889004909101858311909403939093029303949094049190911702949350505050565b6060824710156128375760405162461bcd60e51b815260206004820152602660248201527f416464726573733a20696e73756666696369656e742062616c616e636520666f6044820152651c8818d85b1b60d21b6064820152608401610b00565b600080866001600160a01b031685876040516128539190613108565b60006040518083038185875af1925050503d8060008114612890576040519150601f19603f3d011682016040523d82523d6000602084013e612895565b606091505b50915091506128a6878383876128b1565b979650505050505050565b60608315612920578251600003612919576001600160a01b0385163b6129195760405162461bcd60e51b815260206004820152601d60248201527f416464726573733a2063616c6c20746f206e6f6e2d636f6e74726163740000006044820152606401610b00565b5081610e76565b610e7683838151156129355781518083602001fd5b8060405162461bcd60e51b8152600401610b00919061299d565b60006020828403121561296157600080fd5b81356001600160e01b03198116811461095757600080fd5b60005b8381101561299457818101518382015260200161297c565b50506000910152565b60208152600082518060208401526129bc816040850160208701612979565b601f01601f19169190910160400192915050565b6000602082840312156129e257600080fd5b5035919050565b80356001600160a01b0381168114612a0057600080fd5b919050565b60008060408385031215612a1857600080fd5b612a21836129e9565b946020939093013593505050565b600080600060608486031215612a4457600080fd5b612a4d846129e9565b9250612a5b602085016129e9565b9150604084013590509250925092565b8015158114610c7b57600080fd5b600060208284031215612a8b57600080fd5b813561095781612a6b565b60008060408385031215612aa957600080fd5b82359150612ab9602084016129e9565b90509250929050565b60008060408385031215612ad557600080fd5b8235612a2181612a6b565b600060208284031215612af257600080fd5b610957826129e9565b600080600060608486031215612b1057600080fd5b83359250612b20602085016129e9565b9150612b2e604085016129e9565b90509250925092565b634e487b7160e01b600052604160045260246000fd5b600082601f830112612b5e57600080fd5b813567ffffffffffffffff80821115612b7957612b79612b37565b604051601f8301601f19908116603f01168101908282118183101715612ba157612ba1612b37565b81604052838152866020858801011115612bba57600080fd5b836020870160208301376000602085830101528094505050505092915050565b60008060008060008060c08789031215612bf357600080fd5b612bfc876129e9565b9550602087013567ffffffffffffffff80821115612c1957600080fd5b612c258a838b01612b4d565b96506040890135915080821115612c3b57600080fd5b50612c4889828a01612b4d565b945050612c57606088016129e9565b9250612c65608088016129e9565b9150612c7360a088016129e9565b90509295509295509295565b60008060408385031215612c9257600080fd5b612c9b836129e9565b9150612ab9602084016129e9565b600060208284031215612cbb57600080fd5b5051919050565b600181811c90821680612cd657607f821691505b602082108103612cf657634e487b7160e01b600052602260045260246000fd5b50919050565b634e487b7160e01b600052601160045260246000fd5b600181815b80851115612d4d578160001904821115612d3357612d33612cfc565b80851615612d4057918102915b93841c9390800290612d17565b509250929050565b600082612d6457506001610837565b81612d7157506000610837565b8160018114612d875760028114612d9157612dad565b6001915050610837565b60ff841115612da257612da2612cfc565b50506001821b610837565b5060208310610133831016604e8410600b8410161715612dd0575081810a610837565b612dda8383612d12565b8060001904821115612dee57612dee612cfc565b029392505050565b60006109578383612d55565b808202811582820484141761083757610837612cfc565b634e487b7160e01b600052601260045260246000fd5b600082612e4c57634e487b7160e01b600052601260045260246000fd5b500490565b8082018082111561083757610837612cfc565b6020808252600d908201526c217a65726f206164647265737360981b604082015260600190565b634e487b7160e01b600052602160045260246000fd5b8181038181111561083757610837612cfc565b601f82111561099a57600081815260208120601f850160051c81016020861015612edb5750805b601f850160051c820191505b81811015612efa57828155600101612ee7565b505050505050565b815167ffffffffffffffff811115612f1c57612f1c612b37565b612f3081612f2a8454612cc2565b84612eb4565b602080601f831160018114612f655760008415612f4d5750858301515b600019600386901b1c1916600185901b178555612efa565b600085815260208120601f198616915b82811015612f9457888601518255948401946001909101908401612f75565b5085821015612fb25787850151600019600388901b60f8161c191681555b5050505050600190811b01905550565b7f416363657373436f6e74726f6c3a206163636f756e7420000000000000000000815260008351612ffa816017850160208801612979565b7001034b99036b4b9b9b4b733903937b6329607d1b601791840191820152835161302b816028840160208801612979565b01602801949350505050565b60006020828403121561304957600080fd5b815161095781612a6b565b60ff818116838216019081111561083757610837612cfc565b60006020828403121561307f57600080fd5b815160ff8116811461095757600080fd5b634e487b7160e01b600052603260045260246000fd5b6001600160a01b0384811682528316602080830191909152606060408301819052835190830181905260009184810191608085019190845b818110156130fa578451845293820193928201926001016130de565b509198975050505050505050565b6000825161311a818460208701612979565b9190910192915050565b60008161313357613133612cfc565b506000190190565b600061095760ff841683612d5556fe92de27771f92d6942691d73358b3a4673e4880de8356f8f2cf452be87e02d363cb58d6d985142a614029cdf01861b4fe094d5919a47e69b8310dc4093d9d6ad0a264697066735822122038f7e090488f41353f5d87e1b51193ae6454a0b41d9e369bbb714fe78508adec64736f6c63430008110033",
    "linkReferences": {}
  },
  "methodIdentifiers": {
    "DEFAULT_ADMIN_ROLE()": "a217fddf",
    "FEE_RATE_PRECISION()": "f4ca4d1d",
    "allowance(address,address)": "dd62ed3e",
    "approve(address,uint256)": "095ea7b3",
    "asset()": "38d52e0f",
    "balanceOf(address)": "70a08231",
    "buyLpFee()": "6fd3acb4",
    "computationalCosts(bool,uint256)": "315c1e08",
    "convertToAssets(uint256)": "07a2d13a",
    "convertToShares(uint256)": "c6e6f592",
    "cooldownDuration()": "35269315",
    "decimals()": "313ce567",
    "decreaseAllowance(address,uint256)": "a457c2d7",
    "deposit(uint256,address)": "6e553f65",
    "feeRouter()": "f29ebf61",
    "getLPFee(bool)": "2e7e8415",
    "getRoleAdmin(bytes32)": "248a9ca3",
    "grantControllerRoleByMarketManager(address)": "7fe4a698",
    "grantRole(bytes32,address)": "2f2ff15d",
    "hasRole(bytes32,address)": "91d14854",
    "increaseAllowance(address,uint256)": "39509351",
    "initialize(address,string,string,address,address,address)": "db8d8fc6",
    "isFreeze()": "c154d6ca",
    "lastDepositAt(address)": "c31295d4",
    "maxDeposit(address)": "402d267d",
    "maxMint(address)": "c63d75b6",
    "maxRedeem(address)": "d905777e",
    "maxWithdraw(address)": "ce96cb77",
    "mint(uint256,address)": "94bf804d",
    "name()": "06fdde03",
    "owner()": "8da5cb5b",
    "previewDeposit(uint256)": "ef8b30f7",
    "previewMint(uint256)": "b3d7f6b9",
    "previewRedeem(uint256)": "4cdad506",
    "previewWithdraw(uint256)": "0a28a477",
    "redeem(uint256,address,address)": "ba087652",
    "renounceOwnership()": "715018a6",
    "renounceRole(bytes32,address)": "36568abe",
    "revokeRole(bytes32,address)": "d547741f",
    "sellLpFee()": "c7b8b46d",
    "setCooldownDuration(uint256)": "966be075",
    "setIsFreeze(bool)": "c4cc8bbb",
    "setLpFee(bool,uint256)": "45be08da",
    "setVaultRouter(address)": "780e72ff",
    "supportsInterface(bytes4)": "01ffc9a7",
    "symbol()": "95d89b41",
    "totalAssets()": "01e1d114",
    "totalSupply()": "18160ddd",
    "transfer(address,uint256)": "a9059cbb",
    "transferAdmin(address)": "75829def",
    "transferFrom(address,address,uint256)": "23b872dd",
    "transferOutAssets(address,uint256)": "0c3b0df2",
    "transferOwnership(address)": "f2fde38b",
    "vaultReward()": "4b313b81",
    "vaultRouter()": "d37c441c",
    "withdraw(uint256,address,address)": "b460af94"
  },
  "id": 115
}