{
  "abi": [
    {
      "inputs": [
        {
          "internalType": "string",
          "name": "_name",
          "type": "string"
        },
        {
          "internalType": "string",
          "name": "_symbol",
          "type": "string"
        },
        {
          "internalType": "uint256",
          "name": "initialSupply",
          "type": "uint256"
        }
      ],
      "stateMutability": "nonpayable",
      "type": "constructor"
    },
    {
      "inputs": [],
      "name": "InvalidShortString",
      "type": "error"
    },
    {
      "inputs": [
        {
          "internalType": "string",
          "name": "str",
          "type": "string"
        }
      ],
      "name": "StringTooLong",
      "type": "error"
    },
    {
      "anonymous": false,
      "inputs": [
        {
          "indexed": true,
          "internalType": "address",
          "name": "owner",
          "type": "address"
        },
        {
          "indexed": true,
          "internalType": "address",
          "name": "spender",
          "type": "address"
        },
        {
          "indexed": false,
          "internalType": "uint256",
          "name": "value",
          "type": "uint256"
        }
      ],
      "name": "Approval",
      "type": "event"
    },
    {
      "anonymous": false,
      "inputs": [],
      "name": "EIP712DomainChanged",
      "type": "event"
    },
    {
      "anonymous": false,
      "inputs": [
        {
          "indexed": true,
          "internalType": "bytes32",
          "name": "role",
          "type": "bytes32"
        },
        {
          "indexed": true,
          "internalType": "bytes32",
          "name": "previousAdminRole",
          "type": "bytes32"
        },
        {
          "indexed": true,
          "internalType": "bytes32",
          "name": "newAdminRole",
          "type": "bytes32"
        }
      ],
      "name": "RoleAdminChanged",
      "type": "event"
    },
    {
      "anonymous": false,
      "inputs": [
        {
          "indexed": true,
          "internalType": "bytes32",
          "name": "role",
          "type": "bytes32"
        },
        {
          "indexed": true,
          "internalType": "address",
          "name": "account",
          "type": "address"
        },
        {
          "indexed": true,
          "internalType": "address",
          "name": "sender",
          "type": "address"
        }
      ],
      "name": "RoleGranted",
      "type": "event"
    },
    {
      "anonymous": false,
      "inputs": [
        {
          "indexed": true,
          "internalType": "bytes32",
          "name": "role",
          "type": "bytes32"
        },
        {
          "indexed": true,
          "internalType": "address",
          "name": "account",
          "type": "address"
        },
        {
          "indexed": true,
          "internalType": "address",
          "name": "sender",
          "type": "address"
        }
      ],
      "name": "RoleRevoked",
      "type": "event"
    },
    {
      "anonymous": false,
      "inputs": [
        {
          "indexed": true,
          "internalType": "address",
          "name": "from",
          "type": "address"
        },
        {
          "indexed": true,
          "internalType": "address",
          "name": "to",
          "type": "address"
        },
        {
          "indexed": false,
          "internalType": "uint256",
          "name": "value",
          "type": "uint256"
        }
      ],
      "name": "Transfer",
      "type": "event"
    },
    {
      "inputs": [],
      "name": "DEFAULT_ADMIN_ROLE",
      "outputs": [
        {
          "internalType": "bytes32",
          "name": "",
          "type": "bytes32"
        }
      ],
      "stateMutability": "view",
      "type": "function"
    },
    {
      "inputs": [],
      "name": "DOMAIN_SEPARATOR",
      "outputs": [
        {
          "internalType": "bytes32",
          "name": "",
          "type": "bytes32"
        }
      ],
      "stateMutability": "view",
      "type": "function"
    },
    {
      "inputs": [],
      "name": "MINTER_ROLE",
      "outputs": [
        {
          "internalType": "bytes32",
          "name": "",
          "type": "bytes32"
        }
      ],
      "stateMutability": "view",
      "type": "function"
    },
    {
      "inputs": [
        {
          "internalType": "address",
          "name": "owner",
          "type": "address"
        },
        {
          "internalType": "address",
          "name": "spender",
          "type": "address"
        }
      ],
      "name": "allowance",
      "outputs": [
        {
          "internalType": "uint256",
          "name": "",
          "type": "uint256"
        }
      ],
      "stateMutability": "view",
      "type": "function"
    },
    {
      "inputs": [
        {
          "internalType": "address",
          "name": "spender",
          "type": "address"
        },
        {
          "internalType": "uint256",
          "name": "amount",
          "type": "uint256"
        }
      ],
      "name": "approve",
      "outputs": [
        {
          "internalType": "bool",
          "name": "",
          "type": "bool"
        }
      ],
      "stateMutability": "nonpayable",
      "type": "function"
    },
    {
      "inputs": [
        {
          "internalType": "address",
          "name": "account",
          "type": "address"
        }
      ],
      "name": "balanceOf",
      "outputs": [
        {
          "internalType": "uint256",
          "name": "",
          "type": "uint256"
        }
      ],
      "stateMutability": "view",
      "type": "function"
    },
    {
      "inputs": [
        {
          "internalType": "address[]",
          "name": "tos",
          "type": "address[]"
        },
        {
          "internalType": "uint256",
          "name": "amount",
          "type": "uint256"
        }
      ],
      "name": "batchMint",
      "outputs": [],
      "stateMutability": "nonpayable",
      "type": "function"
    },
    {
      "inputs": [
        {
          "internalType": "uint256",
          "name": "amount",
          "type": "uint256"
        }
      ],
      "name": "burn",
      "outputs": [],
      "stateMutability": "nonpayable",
      "type": "function"
    },
    {
      "inputs": [
        {
          "internalType": "address",
          "name": "to",
          "type": "address"
        },
        {
          "internalType": "uint256",
          "name": "amount",
          "type": "uint256"
        }
      ],
      "name": "burn",
      "outputs": [],
      "stateMutability": "nonpayable",
      "type": "function"
    },
    {
      "inputs": [
        {
          "internalType": "address",
          "name": "account",
          "type": "address"
        },
        {
          "internalType": "uint256",
          "name": "amount",
          "type": "uint256"
        }
      ],
      "name": "burnFrom",
      "outputs": [],
      "stateMutability": "nonpayable",
      "type": "function"
    },
    {
      "inputs": [],
      "name": "decimals",
      "outputs": [
        {
          "internalType": "uint8",
          "name": "",
          "type": "uint8"
        }
      ],
      "stateMutability": "view",
      "type": "function"
    },
    {
      "inputs": [
        {
          "internalType": "address",
          "name": "spender",
          "type": "address"
        },
        {
          "internalType": "uint256",
          "name": "subtractedValue",
          "type": "uint256"
        }
      ],
      "name": "decreaseAllowance",
      "outputs": [
        {
          "internalType": "bool",
          "name": "",
          "type": "bool"
        }
      ],
      "stateMutability": "nonpayable",
      "type": "function"
    },
    {
      "inputs": [],
      "name": "eip712Domain",
      "outputs": [
        {
          "internalType": "bytes1",
          "name": "fields",
          "type": "bytes1"
        },
        {
          "internalType": "string",
          "name": "name",
          "type": "string"
        },
        {
          "internalType": "string",
          "name": "version",
          "type": "string"
        },
        {
          "internalType": "uint256",
          "name": "chainId",
          "type": "uint256"
        },
        {
          "internalType": "address",
          "name": "verifyingContract",
          "type": "address"
        },
        {
          "internalType": "bytes32",
          "name": "salt",
          "type": "bytes32"
        },
        {
          "internalType": "uint256[]",
          "name": "extensions",
          "type": "uint256[]"
        }
      ],
      "stateMutability": "view",
      "type": "function"
    },
    {
      "inputs": [],
      "name": "faucet",
      "outputs": [],
      "stateMutability": "nonpayable",
      "type": "function"
    },
    {
      "inputs": [
        {
          "internalType": "bytes32",
          "name": "role",
          "type": "bytes32"
        }
      ],
      "name": "getRoleAdmin",
      "outputs": [
        {
          "internalType": "bytes32",
          "name": "",
          "type": "bytes32"
        }
      ],
      "stateMutability": "view",
      "type": "function"
    },
    {
      "inputs": [
        {
          "internalType": "bytes32",
          "name": "role",
          "type": "bytes32"
        },
        {
          "internalType": "address",
          "name": "account",
          "type": "address"
        }
      ],
      "name": "grantRole",
      "outputs": [],
      "stateMutability": "nonpayable",
      "type": "function"
    },
    {
      "inputs": [
        {
          "internalType": "bytes32",
          "name": "role",
          "type": "bytes32"
        },
        {
          "internalType": "address",
          "name": "account",
          "type": "address"
        }
      ],
      "name": "hasRole",
      "outputs": [
        {
          "internalType": "bool",
          "name": "",
          "type": "bool"
        }
      ],
      "stateMutability": "view",
      "type": "function"
    },
    {
      "inputs": [
        {
          "internalType": "address",
          "name": "spender",
          "type": "address"
        },
        {
          "internalType": "uint256",
          "name": "addedValue",
          "type": "uint256"
        }
      ],
      "name": "increaseAllowance",
      "outputs": [
        {
          "internalType": "bool",
          "name": "",
          "type": "bool"
        }
      ],
      "stateMutability": "nonpayable",
      "type": "function"
    },
    {
      "inputs": [
        {
          "internalType": "address",
          "name": "",
          "type": "address"
        }
      ],
      "name": "lastFaucetAt",
      "outputs": [
        {
          "internalType": "uint256",
          "name": "",
          "type": "uint256"
        }
      ],
      "stateMutability": "view",
      "type": "function"
    },
    {
      "inputs": [
        {
          "internalType": "address",
          "name": "to",
          "type": "address"
        },
        {
          "internalType": "uint256",
          "name": "amount",
          "type": "uint256"
        }
      ],
      "name": "mint",
      "outputs": [],
      "stateMutability": "nonpayable",
      "type": "function"
    },
    {
      "inputs": [],
      "name": "name",
      "outputs": [
        {
          "internalType": "string",
          "name": "",
          "type": "string"
        }
      ],
      "stateMutability": "view",
      "type": "function"
    },
    {
      "inputs": [
        {
          "internalType": "address",
          "name": "owner",
          "type": "address"
        }
      ],
      "name": "nonces",
      "outputs": [
        {
          "internalType": "uint256",
          "name": "",
          "type": "uint256"
        }
      ],
      "stateMutability": "view",
      "type": "function"
    },
    {
      "inputs": [
        {
          "internalType": "address",
          "name": "owner",
          "type": "address"
        },
        {
          "internalType": "address",
          "name": "spender",
          "type": "address"
        },
        {
          "internalType": "uint256",
          "name": "value",
          "type": "uint256"
        },
        {
          "internalType": "uint256",
          "name": "deadline",
          "type": "uint256"
        },
        {
          "internalType": "uint8",
          "name": "v",
          "type": "uint8"
        },
        {
          "internalType": "bytes32",
          "name": "r",
          "type": "bytes32"
        },
        {
          "internalType": "bytes32",
          "name": "s",
          "type": "bytes32"
        }
      ],
      "name": "permit",
      "outputs": [],
      "stateMutability": "nonpayable",
      "type": "function"
    },
    {
      "inputs": [
        {
          "internalType": "bytes32",
          "name": "role",
          "type": "bytes32"
        },
        {
          "internalType": "address",
          "name": "account",
          "type": "address"
        }
      ],
      "name": "renounceRole",
      "outputs": [],
      "stateMutability": "nonpayable",
      "type": "function"
    },
    {
      "inputs": [
        {
          "internalType": "bytes32",
          "name": "role",
          "type": "bytes32"
        },
        {
          "internalType": "address",
          "name": "account",
          "type": "address"
        }
      ],
      "name": "revokeRole",
      "outputs": [],
      "stateMutability": "nonpayable",
      "type": "function"
    },
    {
      "inputs": [
        {
          "internalType": "bytes4",
          "name": "interfaceId",
          "type": "bytes4"
        }
      ],
      "name": "supportsInterface",
      "outputs": [
        {
          "internalType": "bool",
          "name": "",
          "type": "bool"
        }
      ],
      "stateMutability": "view",
      "type": "function"
    },
    {
      "inputs": [],
      "name": "symbol",
      "outputs": [
        {
          "internalType": "string",
          "name": "",
          "type": "string"
        }
      ],
      "stateMutability": "view",
      "type": "function"
    },
    {
      "inputs": [],
      "name": "totalSupply",
      "outputs": [
        {
          "internalType": "uint256",
          "name": "",
          "type": "uint256"
        }
      ],
      "stateMutability": "view",
      "type": "function"
    },
    {
      "inputs": [
        {
          "internalType": "address",
          "name": "to",
          "type": "address"
        },
        {
          "internalType": "uint256",
          "name": "amount",
          "type": "uint256"
        }
      ],
      "name": "transfer",
      "outputs": [
        {
          "internalType": "bool",
          "name": "",
          "type": "bool"
        }
      ],
      "stateMutability": "nonpayable",
      "type": "function"
    },
    {
      "inputs": [
        {
          "internalType": "address",
          "name": "from",
          "type": "address"
        },
        {
          "internalType": "address",
          "name": "to",
          "type": "address"
        },
        {
          "internalType": "uint256",
          "name": "amount",
          "type": "uint256"
        }
      ],
      "name": "transferFrom",
      "outputs": [
        {
          "internalType": "bool",
          "name": "",
          "type": "bool"
        }
      ],
      "stateMutability": "nonpayable",
      "type": "function"
    }
  ],
  "bytecode": {
    "object": "0x6101606040523480156200001257600080fd5b506040516200255638038062002556833981016040819052620000359162000465565b6040805180820190915260018152603160f81b6020820152839081908185600362000061838262000566565b50600462000070828262000566565b5050506200008e6006836200019160201b62000a981790919060201c565b61012052620000ab81600762000191602090811b62000a9817901c565b61014052815160208084019190912060e052815190820120610100524660a0526200013960e05161010051604080517f8b73c3c69bb8fe3d512ecc4cf759cc79239f7b179b0ffacaa9a75d522b39400f60208201529081019290925260608201524660808201523060a082015260009060c00160405160208183030381529060405280519060200120905090565b60805250503060c052506200014f3382620001e1565b6200015c600033620002a9565b620001887f9f2df0fed2c77648de5860a4cc508cd0818c85b8b8a1ab4ceeef8d981c8956a633620002a9565b505050620006ae565b6000602083511015620001b157620001a9836200034d565b9050620001db565b82620001c8836200039060201b62000ac91760201c565b90620001d5908262000566565b5060ff90505b92915050565b6001600160a01b0382166200023d5760405162461bcd60e51b815260206004820152601f60248201527f45524332303a206d696e7420746f20746865207a65726f20616464726573730060448201526064015b60405180910390fd5b806002600082825462000251919062000632565b90915550506001600160a01b038216600081815260208181526040808320805486019055518481527fddf252ad1be2c89b69c2b068fc378daa952ba7f163c4a11628f55a4df523b3ef910160405180910390a35b5050565b60008281526005602090815260408083206001600160a01b038516845290915290205460ff16620002a55760008281526005602090815260408083206001600160a01b03851684529091529020805460ff19166001179055620003093390565b6001600160a01b0316816001600160a01b0316837f2f8788117e7eff1d82e926ec794901d17c78024a50270940304540a733656f0d60405160405180910390a45050565b600080829050601f815111156200037b578260405163305a27a960e01b815260040162000234919062000654565b8051620003888262000689565b179392505050565b90565b505050565b634e487b7160e01b600052604160045260246000fd5b60005b83811015620003cb578181015183820152602001620003b1565b50506000910152565b600082601f830112620003e657600080fd5b81516001600160401b038082111562000403576200040362000398565b604051601f8301601f19908116603f011681019082821181831017156200042e576200042e62000398565b816040528381528660208588010111156200044857600080fd5b6200045b846020830160208901620003ae565b9695505050505050565b6000806000606084860312156200047b57600080fd5b83516001600160401b03808211156200049357600080fd5b620004a187838801620003d4565b94506020860151915080821115620004b857600080fd5b50620004c786828701620003d4565b925050604084015190509250925092565b600181811c90821680620004ed57607f821691505b6020821081036200050e57634e487b7160e01b600052602260045260246000fd5b50919050565b601f8211156200039357600081815260208120601f850160051c810160208610156200053d5750805b601f850160051c820191505b818110156200055e5782815560010162000549565b505050505050565b81516001600160401b0381111562000582576200058262000398565b6200059a81620005938454620004d8565b8462000514565b602080601f831160018114620005d25760008415620005b95750858301515b600019600386901b1c1916600185901b1785556200055e565b600085815260208120601f198616915b828110156200060357888601518255948401946001909101908401620005e2565b5085821015620006225787850151600019600388901b60f8161c191681555b5050505050600190811b01905550565b80820180821115620001db57634e487b7160e01b600052601160045260246000fd5b602081526000825180602084015262000675816040850160208701620003ae565b601f01601f19169190910160400192915050565b805160208083015191908110156200050e5760001960209190910360031b1b16919050565b60805160a05160c05160e051610100516101205161014051611e4d620007096000396000610721015260006106f601526000610f7201526000610f4a01526000610ea501526000610ecf01526000610ef90152611e4d6000f3fe608060405234801561001057600080fd5b50600436106101da5760003560e01c806379cc679011610104578063a217fddf116100a2578063d539139311610071578063d5391393146103fb578063d547741f14610410578063dd62ed3e14610423578063de5f72fd1461043657600080fd5b8063a217fddf146103ba578063a457c2d7146103c2578063a9059cbb146103d5578063d505accf146103e857600080fd5b806384b0196e116100de57806384b0196e1461037157806391d148541461038c57806395d89b411461039f5780639dc29fac146103a757600080fd5b806379cc6790146103385780637ecebe001461034b57806383b74baa1461035e57600080fd5b80632f2ff15d1161017c578063395093511161014b57806339509351146102d657806340c10f19146102e957806342966c68146102fc57806370a082311461030f57600080fd5b80632f2ff15d14610297578063313ce567146102ac5780633644e515146102bb57806336568abe146102c357600080fd5b806318160ddd116101b857806318160ddd1461022f57806323b872dd14610241578063248a9ca3146102545780632681616e1461027757600080fd5b806301ffc9a7146101df57806306fdde0314610207578063095ea7b31461021c575b600080fd5b6101f26101ed3660046117fd565b61043e565b60405190151581526020015b60405180910390f35b61020f610475565b6040516101fe9190611877565b6101f261022a3660046118a6565b610507565b6002545b6040519081526020016101fe565b6101f261024f3660046118d0565b61051f565b61023361026236600461190c565b60009081526005602052604090206001015490565b610233610285366004611925565b600a6020526000908152604090205481565b6102aa6102a5366004611940565b610543565b005b604051600681526020016101fe565b61023361056d565b6102aa6102d1366004611940565b61057c565b6101f26102e43660046118a6565b6105ff565b6102aa6102f73660046118a6565b610621565b6102aa61030a36600461190c565b610643565b61023361031d366004611925565b6001600160a01b031660009081526020819052604090205490565b6102aa6103463660046118a6565b610650565b610233610359366004611925565b610665565b6102aa61036c366004611982565b610683565b6103796106e8565b6040516101fe9796959493929190611a4d565b6101f261039a366004611940565b610771565b61020f61079c565b6102aa6103b53660046118a6565b6107ab565b610233600081565b6101f26103d03660046118a6565b6107cd565b6101f26103e33660046118a6565b610848565b6102aa6103f6366004611ae3565b610856565b610233600080516020611df883398151915281565b6102aa61041e366004611940565b6109ba565b610233610431366004611b56565b6109df565b6102aa610a0a565b60006001600160e01b03198216637965db0b60e01b148061046f57506301ffc9a760e01b6001600160e01b03198316145b92915050565b60606003805461048490611b80565b80601f01602080910402602001604051908101604052809291908181526020018280546104b090611b80565b80156104fd5780601f106104d2576101008083540402835291602001916104fd565b820191906000526020600020905b8154815290600101906020018083116104e057829003601f168201915b5050505050905090565b600033610515818585610acc565b5060019392505050565b60003361052d858285610bf0565b610538858585610c64565b506001949350505050565b60008281526005602052604090206001015461055e81610e08565b6105688383610e12565b505050565b6000610577610e98565b905090565b6001600160a01b03811633146105f15760405162461bcd60e51b815260206004820152602f60248201527f416363657373436f6e74726f6c3a2063616e206f6e6c792072656e6f756e636560448201526e103937b632b9903337b91039b2b63360891b60648201526084015b60405180910390fd5b6105fb8282610fc3565b5050565b60003361051581858561061283836109df565b61061c9190611bca565b610acc565b600080516020611df883398151915261063981610e08565b610568838361102a565b61064d33826110e9565b50565b61065b823383610bf0565b6105fb82826110e9565b6001600160a01b03811660009081526008602052604081205461046f565b600080516020611df883398151915261069b81610e08565b60005b83518110156106e25760008482815181106106bb576106bb611bdd565b602002602001015190506106cf818561102a565b50806106da81611bf3565b91505061069e565b50505050565b60006060808280808361071c7f0000000000000000000000000000000000000000000000000000000000000000600661121b565b6107477f0000000000000000000000000000000000000000000000000000000000000000600761121b565b60408051600080825260208201909252600f60f81b9b939a50919850469750309650945092509050565b60009182526005602090815260408084206001600160a01b0393909316845291905290205460ff1690565b60606004805461048490611b80565b600080516020611df88339815191526107c381610e08565b61056883836110e9565b600033816107db82866109df565b90508381101561083b5760405162461bcd60e51b815260206004820152602560248201527f45524332303a2064656372656173656420616c6c6f77616e63652062656c6f77604482015264207a65726f60d81b60648201526084016105e8565b6105388286868403610acc565b600033610515818585610c64565b834211156108a65760405162461bcd60e51b815260206004820152601d60248201527f45524332305065726d69743a206578706972656420646561646c696e6500000060448201526064016105e8565b60007f6e71edae12b1b97f4d1f60370fef10105fa2faae0126114a169c64845d6126c98888886108d58c6112bf565b6040805160208101969096526001600160a01b0394851690860152929091166060840152608083015260a082015260c0810186905260e0016040516020818303038152906040528051906020012090506000610930826112e7565b9050600061094082878787611314565b9050896001600160a01b0316816001600160a01b0316146109a35760405162461bcd60e51b815260206004820152601e60248201527f45524332305065726d69743a20696e76616c6964207369676e6174757265000060448201526064016105e8565b6109ae8a8a8a610acc565b50505050505050505050565b6000828152600560205260409020600101546109d581610e08565b6105688383610fc3565b6001600160a01b03918216600090815260016020908152604080832093909416825291909152205490565b336000908152600a60205260409020544290610a2890617080611bca565b10610a755760405162461bcd60e51b815260206004820152601c60248201527f636f6f6c646f776e206475726174696f6e206e6f74207061737365640000000060448201526064016105e8565b336000818152600a60205260409020429055610a96906402540be40061102a565b565b6000602083511015610ab457610aad8361133c565b905061046f565b81610abf8482611c5a565b5060ff905061046f565b90565b6001600160a01b038316610b2e5760405162461bcd60e51b8152602060048201526024808201527f45524332303a20617070726f76652066726f6d20746865207a65726f206164646044820152637265737360e01b60648201526084016105e8565b6001600160a01b038216610b8f5760405162461bcd60e51b815260206004820152602260248201527f45524332303a20617070726f766520746f20746865207a65726f206164647265604482015261737360f01b60648201526084016105e8565b6001600160a01b0383811660008181526001602090815260408083209487168084529482529182902085905590518481527f8c5be1e5ebec7d5bd14f71427d1e84f3dd0314c0f7b2291e5b200ac8c7c3b925910160405180910390a3505050565b6000610bfc84846109df565b905060001981146106e25781811015610c575760405162461bcd60e51b815260206004820152601d60248201527f45524332303a20696e73756666696369656e7420616c6c6f77616e636500000060448201526064016105e8565b6106e28484848403610acc565b6001600160a01b038316610cc85760405162461bcd60e51b815260206004820152602560248201527f45524332303a207472616e736665722066726f6d20746865207a65726f206164604482015264647265737360d81b60648201526084016105e8565b6001600160a01b038216610d2a5760405162461bcd60e51b815260206004820152602360248201527f45524332303a207472616e7366657220746f20746865207a65726f206164647260448201526265737360e81b60648201526084016105e8565b6001600160a01b03831660009081526020819052604090205481811015610da25760405162461bcd60e51b815260206004820152602660248201527f45524332303a207472616e7366657220616d6f756e7420657863656564732062604482015265616c616e636560d01b60648201526084016105e8565b6001600160a01b03848116600081815260208181526040808320878703905593871680835291849020805487019055925185815290927fddf252ad1be2c89b69c2b068fc378daa952ba7f163c4a11628f55a4df523b3ef910160405180910390a36106e2565b61064d813361137a565b610e1c8282610771565b6105fb5760008281526005602090815260408083206001600160a01b03851684529091529020805460ff19166001179055610e543390565b6001600160a01b0316816001600160a01b0316837f2f8788117e7eff1d82e926ec794901d17c78024a50270940304540a733656f0d60405160405180910390a45050565b6000306001600160a01b037f000000000000000000000000000000000000000000000000000000000000000016148015610ef157507f000000000000000000000000000000000000000000000000000000000000000046145b15610f1b57507f000000000000000000000000000000000000000000000000000000000000000090565b610577604080517f8b73c3c69bb8fe3d512ecc4cf759cc79239f7b179b0ffacaa9a75d522b39400f60208201527f0000000000000000000000000000000000000000000000000000000000000000918101919091527f000000000000000000000000000000000000000000000000000000000000000060608201524660808201523060a082015260009060c00160405160208183030381529060405280519060200120905090565b610fcd8282610771565b156105fb5760008281526005602090815260408083206001600160a01b0385168085529252808320805460ff1916905551339285917ff6391f5c32d9c69d2a47ea670b442974b53935d1edc7fd64eb21e047a839171b9190a45050565b6001600160a01b0382166110805760405162461bcd60e51b815260206004820152601f60248201527f45524332303a206d696e7420746f20746865207a65726f20616464726573730060448201526064016105e8565b80600260008282546110929190611bca565b90915550506001600160a01b038216600081815260208181526040808320805486019055518481527fddf252ad1be2c89b69c2b068fc378daa952ba7f163c4a11628f55a4df523b3ef910160405180910390a35050565b6001600160a01b0382166111495760405162461bcd60e51b815260206004820152602160248201527f45524332303a206275726e2066726f6d20746865207a65726f206164647265736044820152607360f81b60648201526084016105e8565b6001600160a01b038216600090815260208190526040902054818110156111bd5760405162461bcd60e51b815260206004820152602260248201527f45524332303a206275726e20616d6f756e7420657863656564732062616c616e604482015261636560f01b60648201526084016105e8565b6001600160a01b0383166000818152602081815260408083208686039055600280548790039055518581529192917fddf252ad1be2c89b69c2b068fc378daa952ba7f163c4a11628f55a4df523b3ef910160405180910390a3505050565b606060ff831461122e57610aad836113d3565b81805461123a90611b80565b80601f016020809104026020016040519081016040528092919081815260200182805461126690611b80565b80156112b35780601f10611288576101008083540402835291602001916112b3565b820191906000526020600020905b81548152906001019060200180831161129657829003601f168201915b5050505050905061046f565b6001600160a01b03811660009081526008602052604090208054600181018255905b50919050565b600061046f6112f4610e98565b8360405161190160f01b8152600281019290925260228201526042902090565b600080600061132587878787611412565b91509150611332816114d6565b5095945050505050565b600080829050601f81511115611367578260405163305a27a960e01b81526004016105e89190611877565b805161137282611d1a565b179392505050565b6113848282610771565b6105fb5761139181611620565b61139c836020611632565b6040516020016113ad929190611d3e565b60408051601f198184030181529082905262461bcd60e51b82526105e891600401611877565b606060006113e0836117d5565b604080516020808252818301909252919250600091906020820181803683375050509182525060208101929092525090565b6000807f7fffffffffffffffffffffffffffffff5d576e7357a4501ddfe92f46681b20a083111561144957506000905060036114cd565b6040805160008082526020820180845289905260ff881692820192909252606081018690526080810185905260019060a0016020604051602081039080840390855afa15801561149d573d6000803e3d6000fd5b5050604051601f1901519150506001600160a01b0381166114c6576000600192509250506114cd565b9150600090505b94509492505050565b60008160048111156114ea576114ea611db3565b036114f25750565b600181600481111561150657611506611db3565b036115535760405162461bcd60e51b815260206004820152601860248201527f45434453413a20696e76616c6964207369676e6174757265000000000000000060448201526064016105e8565b600281600481111561156757611567611db3565b036115b45760405162461bcd60e51b815260206004820152601f60248201527f45434453413a20696e76616c6964207369676e6174757265206c656e6774680060448201526064016105e8565b60038160048111156115c8576115c8611db3565b0361064d5760405162461bcd60e51b815260206004820152602260248201527f45434453413a20696e76616c6964207369676e6174757265202773272076616c604482015261756560f01b60648201526084016105e8565b606061046f6001600160a01b03831660145b60606000611641836002611dc9565b61164c906002611bca565b67ffffffffffffffff8111156116645761166461196c565b6040519080825280601f01601f19166020018201604052801561168e576020820181803683370190505b509050600360fc1b816000815181106116a9576116a9611bdd565b60200101906001600160f81b031916908160001a905350600f60fb1b816001815181106116d8576116d8611bdd565b60200101906001600160f81b031916908160001a90535060006116fc846002611dc9565b611707906001611bca565b90505b600181111561177f576f181899199a1a9b1b9c1cb0b131b232b360811b85600f166010811061173b5761173b611bdd565b1a60f81b82828151811061175157611751611bdd565b60200101906001600160f81b031916908160001a90535060049490941c9361177881611de0565b905061170a565b5083156117ce5760405162461bcd60e51b815260206004820181905260248201527f537472696e67733a20686578206c656e67746820696e73756666696369656e7460448201526064016105e8565b9392505050565b600060ff8216601f81111561046f57604051632cd44ac360e21b815260040160405180910390fd5b60006020828403121561180f57600080fd5b81356001600160e01b0319811681146117ce57600080fd5b60005b8381101561184257818101518382015260200161182a565b50506000910152565b60008151808452611863816020860160208601611827565b601f01601f19169290920160200192915050565b6020815260006117ce602083018461184b565b80356001600160a01b03811681146118a157600080fd5b919050565b600080604083850312156118b957600080fd5b6118c28361188a565b946020939093013593505050565b6000806000606084860312156118e557600080fd5b6118ee8461188a565b92506118fc6020850161188a565b9150604084013590509250925092565b60006020828403121561191e57600080fd5b5035919050565b60006020828403121561193757600080fd5b6117ce8261188a565b6000806040838503121561195357600080fd5b823591506119636020840161188a565b90509250929050565b634e487b7160e01b600052604160045260246000fd5b6000806040838503121561199557600080fd5b823567ffffffffffffffff808211156119ad57600080fd5b818501915085601f8301126119c157600080fd5b81356020828211156119d5576119d561196c565b8160051b604051601f19603f830116810181811086821117156119fa576119fa61196c565b604052928352818301935084810182019289841115611a1857600080fd5b948201945b83861015611a3d57611a2e8661188a565b85529482019493820193611a1d565b9997909101359750505050505050565b60ff60f81b881681526000602060e081840152611a6d60e084018a61184b565b8381036040850152611a7f818a61184b565b606085018990526001600160a01b038816608086015260a0850187905284810360c0860152855180825283870192509083019060005b81811015611ad157835183529284019291840191600101611ab5565b50909c9b505050505050505050505050565b600080600080600080600060e0888a031215611afe57600080fd5b611b078861188a565b9650611b156020890161188a565b95506040880135945060608801359350608088013560ff81168114611b3957600080fd5b9699959850939692959460a0840135945060c09093013592915050565b60008060408385031215611b6957600080fd5b611b728361188a565b91506119636020840161188a565b600181811c90821680611b9457607f821691505b6020821081036112e157634e487b7160e01b600052602260045260246000fd5b634e487b7160e01b600052601160045260246000fd5b8082018082111561046f5761046f611bb4565b634e487b7160e01b600052603260045260246000fd5b600060018201611c0557611c05611bb4565b5060010190565b601f82111561056857600081815260208120601f850160051c81016020861015611c335750805b601f850160051c820191505b81811015611c5257828155600101611c3f565b505050505050565b815167ffffffffffffffff811115611c7457611c7461196c565b611c8881611c828454611b80565b84611c0c565b602080601f831160018114611cbd5760008415611ca55750858301515b600019600386901b1c1916600185901b178555611c52565b600085815260208120601f198616915b82811015611cec57888601518255948401946001909101908401611ccd565b5085821015611d0a5787850151600019600388901b60f8161c191681555b5050505050600190811b01905550565b805160208083015191908110156112e15760001960209190910360031b1b16919050565b7f416363657373436f6e74726f6c3a206163636f756e7420000000000000000000815260008351611d76816017850160208801611827565b7001034b99036b4b9b9b4b733903937b6329607d1b6017918401918201528351611da7816028840160208801611827565b01602801949350505050565b634e487b7160e01b600052602160045260246000fd5b808202811582820484141761046f5761046f611bb4565b600081611def57611def611bb4565b50600019019056fe9f2df0fed2c77648de5860a4cc508cd0818c85b8b8a1ab4ceeef8d981c8956a6a2646970667358221220fab3b011aaa0b5346184978b65b07bc1d230e15ebbce801276571d8f1b6391e564736f6c63430008110033",
    "linkReferences": {}
  },
  "methodIdentifiers": {
    "DEFAULT_ADMIN_ROLE()": "a217fddf",
    "DOMAIN_SEPARATOR()": "3644e515",
    "MINTER_ROLE()": "d5391393",
    "allowance(address,address)": "dd62ed3e",
    "approve(address,uint256)": "095ea7b3",
    "balanceOf(address)": "70a08231",
    "batchMint(address[],uint256)": "83b74baa",
    "burn(address,uint256)": "9dc29fac",
    "burn(uint256)": "42966c68",
    "burnFrom(address,uint256)": "79cc6790",
    "decimals()": "313ce567",
    "decreaseAllowance(address,uint256)": "a457c2d7",
    "eip712Domain()": "84b0196e",
    "faucet()": "de5f72fd",
    "getRoleAdmin(bytes32)": "248a9ca3",
    "grantRole(bytes32,address)": "2f2ff15d",
    "hasRole(bytes32,address)": "91d14854",
    "increaseAllowance(address,uint256)": "39509351",
    "lastFaucetAt(address)": "2681616e",
    "mint(address,uint256)": "40c10f19",
    "name()": "06fdde03",
    "nonces(address)": "7ecebe00",
    "permit(address,address,uint256,uint256,uint8,bytes32,bytes32)": "d505accf",
    "renounceRole(bytes32,address)": "36568abe",
    "revokeRole(bytes32,address)": "d547741f",
    "supportsInterface(bytes4)": "01ffc9a7",
    "symbol()": "95d89b41",
    "totalSupply()": "18160ddd",
    "transfer(address,uint256)": "a9059cbb",
    "transferFrom(address,address,uint256)": "23b872dd"
  },
  "id": 59
}