{
  "abi": [
    {
      "inputs": [],
      "stateMutability": "nonpayable",
      "type": "constructor"
    },
    {
      "anonymous": false,
      "inputs": [
        {
          "indexed": true,
          "internalType": "address",
          "name": "market",
          "type": "address"
        },
        {
          "indexed": false,
          "internalType": "address",
          "name": "marketValid",
          "type": "address"
        },
        {
          "indexed": false,
          "internalType": "address",
          "name": "orderBookLong",
          "type": "address"
        },
        {
          "indexed": false,
          "internalType": "address",
          "name": "orderBookShort",
          "type": "address"
        }
      ],
      "name": "Create",
      "type": "event"
    },
    {
      "anonymous": false,
      "inputs": [
        {
          "indexed": false,
          "internalType": "uint8",
          "name": "version",
          "type": "uint8"
        }
      ],
      "name": "Initialized",
      "type": "event"
    },
    {
      "anonymous": false,
      "inputs": [
        {
          "indexed": true,
          "internalType": "address",
          "name": "previousOwner",
          "type": "address"
        },
        {
          "indexed": true,
          "internalType": "address",
          "name": "newOwner",
          "type": "address"
        }
      ],
      "name": "OwnershipTransferred",
      "type": "event"
    },
    {
      "anonymous": false,
      "inputs": [
        {
          "indexed": true,
          "internalType": "bytes32",
          "name": "role",
          "type": "bytes32"
        },
        {
          "indexed": true,
          "internalType": "bytes32",
          "name": "previousAdminRole",
          "type": "bytes32"
        },
        {
          "indexed": true,
          "internalType": "bytes32",
          "name": "newAdminRole",
          "type": "bytes32"
        }
      ],
      "name": "RoleAdminChanged",
      "type": "event"
    },
    {
      "anonymous": false,
      "inputs": [
        {
          "indexed": true,
          "internalType": "bytes32",
          "name": "role",
          "type": "bytes32"
        },
        {
          "indexed": true,
          "internalType": "address",
          "name": "account",
          "type": "address"
        },
        {
          "indexed": true,
          "internalType": "address",
          "name": "sender",
          "type": "address"
        }
      ],
      "name": "RoleGranted",
      "type": "event"
    },
    {
      "anonymous": false,
      "inputs": [
        {
          "indexed": true,
          "internalType": "bytes32",
          "name": "role",
          "type": "bytes32"
        },
        {
          "indexed": true,
          "internalType": "address",
          "name": "account",
          "type": "address"
        },
        {
          "indexed": true,
          "internalType": "address",
          "name": "sender",
          "type": "address"
        }
      ],
      "name": "RoleRevoked",
      "type": "event"
    },
    {
      "inputs": [],
      "name": "DEFAULT_ADMIN_ROLE",
      "outputs": [
        {
          "internalType": "bytes32",
          "name": "",
          "type": "bytes32"
        }
      ],
      "stateMutability": "view",
      "type": "function"
    },
    {
      "inputs": [],
      "name": "allMarketsLength",
      "outputs": [
        {
          "internalType": "uint256",
          "name": "",
          "type": "uint256"
        }
      ],
      "stateMutability": "view",
      "type": "function"
    },
    {
      "inputs": [
        {
          "components": [
            {
              "internalType": "string",
              "name": "_name",
              "type": "string"
            },
            {
              "internalType": "address",
              "name": "_marketAddress",
              "type": "address"
            },
            {
              "internalType": "address[]",
              "name": "addrs",
              "type": "address[]"
            },
            {
              "internalType": "address",
              "name": "_openStoreLong",
              "type": "address"
            },
            {
              "internalType": "address",
              "name": "_closeStoreLong",
              "type": "address"
            },
            {
              "internalType": "address",
              "name": "_openStoreShort",
              "type": "address"
            },
            {
              "internalType": "address",
              "name": "_closeStoreShort",
              "type": "address"
            },
            {
              "internalType": "uint256",
              "name": "_minSlippage",
              "type": "uint256"
            },
            {
              "internalType": "uint256",
              "name": "_maxSlippage",
              "type": "uint256"
            },
            {
              "internalType": "uint256",
              "name": "_minLeverage",
              "type": "uint256"
            },
            {
              "internalType": "uint256",
              "name": "_maxLeverage",
              "type": "uint256"
            },
            {
              "internalType": "uint256",
              "name": "_maxTradeAmount",
              "type": "uint256"
            },
            {
              "internalType": "uint256",
              "name": "_minPay",
              "type": "uint256"
            },
            {
              "internalType": "uint256",
              "name": "_minCollateral",
              "type": "uint256"
            },
            {
              "internalType": "bool",
              "name": "_allowOpen",
              "type": "bool"
            },
            {
              "internalType": "bool",
              "name": "_allowClose",
              "type": "bool"
            },
            {
              "internalType": "uint256",
              "name": "_tokenDigits",
              "type": "uint256"
            }
          ],
          "internalType": "struct IMarketFactory.CreateInputs",
          "name": "_inputs",
          "type": "tuple"
        }
      ],
      "name": "create",
      "outputs": [],
      "stateMutability": "nonpayable",
      "type": "function"
    },
    {
      "inputs": [
        {
          "internalType": "address",
          "name": "_marketAddr",
          "type": "address"
        }
      ],
      "name": "getMarket",
      "outputs": [
        {
          "components": [
            {
              "internalType": "string",
              "name": "name",
              "type": "string"
            },
            {
              "internalType": "address",
              "name": "addr",
              "type": "address"
            },
            {
              "components": [
                {
                  "internalType": "string",
                  "name": "_name",
                  "type": "string"
                },
                {
                  "internalType": "address",
                  "name": "_marketAddress",
                  "type": "address"
                },
                {
                  "internalType": "address[]",
                  "name": "addrs",
                  "type": "address[]"
                },
                {
                  "internalType": "address",
                  "name": "_openStoreLong",
                  "type": "address"
                },
                {
                  "internalType": "address",
                  "name": "_closeStoreLong",
                  "type": "address"
                },
                {
                  "internalType": "address",
                  "name": "_openStoreShort",
                  "type": "address"
                },
                {
                  "internalType": "address",
                  "name": "_closeStoreShort",
                  "type": "address"
                },
                {
                  "internalType": "uint256",
                  "name": "_minSlippage",
                  "type": "uint256"
                },
                {
                  "internalType": "uint256",
                  "name": "_maxSlippage",
                  "type": "uint256"
                },
                {
                  "internalType": "uint256",
                  "name": "_minLeverage",
                  "type": "uint256"
                },
                {
                  "internalType": "uint256",
                  "name": "_maxLeverage",
                  "type": "uint256"
                },
                {
                  "internalType": "uint256",
                  "name": "_maxTradeAmount",
                  "type": "uint256"
                },
                {
                  "internalType": "uint256",
                  "name": "_minPay",
                  "type": "uint256"
                },
                {
                  "internalType": "uint256",
                  "name": "_minCollateral",
                  "type": "uint256"
                },
                {
                  "internalType": "bool",
                  "name": "_allowOpen",
                  "type": "bool"
                },
                {
                  "internalType": "bool",
                  "name": "_allowClose",
                  "type": "bool"
                },
                {
                  "internalType": "uint256",
                  "name": "_tokenDigits",
                  "type": "uint256"
                }
              ],
              "internalType": "struct IMarketFactory.CreateInputs",
              "name": "inputs",
              "type": "tuple"
            }
          ],
          "internalType": "struct IMarketFactory.Props",
          "name": "",
          "type": "tuple"
        }
      ],
      "stateMutability": "view",
      "type": "function"
    },
    {
      "inputs": [],
      "name": "getMarkets",
      "outputs": [
        {
          "components": [
            {
              "internalType": "string",
              "name": "name",
              "type": "string"
            },
            {
              "internalType": "address",
              "name": "addr",
              "type": "address"
            },
            {
              "internalType": "uint256",
              "name": "minPay",
              "type": "uint256"
            },
            {
              "internalType": "bool",
              "name": "allowOpen",
              "type": "bool"
            },
            {
              "internalType": "bool",
              "name": "allowClose",
              "type": "bool"
            }
          ],
          "internalType": "struct IMarketFactory.Outs[]",
          "name": "_outs",
          "type": "tuple[]"
        }
      ],
      "stateMutability": "view",
      "type": "function"
    },
    {
      "inputs": [
        {
          "internalType": "bytes32",
          "name": "role",
          "type": "bytes32"
        }
      ],
      "name": "getRoleAdmin",
      "outputs": [
        {
          "internalType": "bytes32",
          "name": "",
          "type": "bytes32"
        }
      ],
      "stateMutability": "view",
      "type": "function"
    },
    {
      "inputs": [
        {
          "internalType": "address",
          "name": "_account",
          "type": "address"
        }
      ],
      "name": "grantControllerRoleByMarketManager",
      "outputs": [],
      "stateMutability": "nonpayable",
      "type": "function"
    },
    {
      "inputs": [
        {
          "internalType": "bytes32",
          "name": "role",
          "type": "bytes32"
        },
        {
          "internalType": "address",
          "name": "account",
          "type": "address"
        }
      ],
      "name": "grantRole",
      "outputs": [],
      "stateMutability": "nonpayable",
      "type": "function"
    },
    {
      "inputs": [
        {
          "internalType": "bytes32",
          "name": "role",
          "type": "bytes32"
        },
        {
          "internalType": "address",
          "name": "account",
          "type": "address"
        }
      ],
      "name": "hasRole",
      "outputs": [
        {
          "internalType": "bool",
          "name": "",
          "type": "bool"
        }
      ],
      "stateMutability": "view",
      "type": "function"
    },
    {
      "inputs": [
        {
          "internalType": "address",
          "name": "",
          "type": "address"
        }
      ],
      "name": "marketIndexes",
      "outputs": [
        {
          "internalType": "uint256",
          "name": "",
          "type": "uint256"
        }
      ],
      "stateMutability": "view",
      "type": "function"
    },
    {
      "inputs": [
        {
          "internalType": "uint256",
          "name": "",
          "type": "uint256"
        }
      ],
      "name": "markets",
      "outputs": [
        {
          "internalType": "string",
          "name": "name",
          "type": "string"
        },
        {
          "internalType": "address",
          "name": "addr",
          "type": "address"
        },
        {
          "components": [
            {
              "internalType": "string",
              "name": "_name",
              "type": "string"
            },
            {
              "internalType": "address",
              "name": "_marketAddress",
              "type": "address"
            },
            {
              "internalType": "address[]",
              "name": "addrs",
              "type": "address[]"
            },
            {
              "internalType": "address",
              "name": "_openStoreLong",
              "type": "address"
            },
            {
              "internalType": "address",
              "name": "_closeStoreLong",
              "type": "address"
            },
            {
              "internalType": "address",
              "name": "_openStoreShort",
              "type": "address"
            },
            {
              "internalType": "address",
              "name": "_closeStoreShort",
              "type": "address"
            },
            {
              "internalType": "uint256",
              "name": "_minSlippage",
              "type": "uint256"
            },
            {
              "internalType": "uint256",
              "name": "_maxSlippage",
              "type": "uint256"
            },
            {
              "internalType": "uint256",
              "name": "_minLeverage",
              "type": "uint256"
            },
            {
              "internalType": "uint256",
              "name": "_maxLeverage",
              "type": "uint256"
            },
            {
              "internalType": "uint256",
              "name": "_maxTradeAmount",
              "type": "uint256"
            },
            {
              "internalType": "uint256",
              "name": "_minPay",
              "type": "uint256"
            },
            {
              "internalType": "uint256",
              "name": "_minCollateral",
              "type": "uint256"
            },
            {
              "internalType": "bool",
              "name": "_allowOpen",
              "type": "bool"
            },
            {
              "internalType": "bool",
              "name": "_allowClose",
              "type": "bool"
            },
            {
              "internalType": "uint256",
              "name": "_tokenDigits",
              "type": "uint256"
            }
          ],
          "internalType": "struct IMarketFactory.CreateInputs",
          "name": "inputs",
          "type": "tuple"
        }
      ],
      "stateMutability": "view",
      "type": "function"
    },
    {
      "inputs": [],
      "name": "owner",
      "outputs": [
        {
          "internalType": "address",
          "name": "",
          "type": "address"
        }
      ],
      "stateMutability": "view",
      "type": "function"
    },
    {
      "inputs": [
        {
          "internalType": "address",
          "name": "_addr",
          "type": "address"
        }
      ],
      "name": "remove",
      "outputs": [],
      "stateMutability": "nonpayable",
      "type": "function"
    },
    {
      "inputs": [],
      "name": "renounceOwnership",
      "outputs": [],
      "stateMutability": "nonpayable",
      "type": "function"
    },
    {
      "inputs": [
        {
          "internalType": "bytes32",
          "name": "",
          "type": "bytes32"
        },
        {
          "internalType": "address",
          "name": "",
          "type": "address"
        }
      ],
      "name": "renounceRole",
      "outputs": [],
      "stateMutability": "nonpayable",
      "type": "function"
    },
    {
      "inputs": [
        {
          "internalType": "bytes32",
          "name": "role",
          "type": "bytes32"
        },
        {
          "internalType": "address",
          "name": "account",
          "type": "address"
        }
      ],
      "name": "revokeRole",
      "outputs": [],
      "stateMutability": "nonpayable",
      "type": "function"
    },
    {
      "inputs": [
        {
          "internalType": "bytes4",
          "name": "interfaceId",
          "type": "bytes4"
        }
      ],
      "name": "supportsInterface",
      "outputs": [
        {
          "internalType": "bool",
          "name": "",
          "type": "bool"
        }
      ],
      "stateMutability": "view",
      "type": "function"
    },
    {
      "inputs": [
        {
          "internalType": "address",
          "name": "to",
          "type": "address"
        }
      ],
      "name": "transferAdmin",
      "outputs": [],
      "stateMutability": "nonpayable",
      "type": "function"
    },
    {
      "inputs": [
        {
          "internalType": "address",
          "name": "newOwner",
          "type": "address"
        }
      ],
      "name": "transferOwnership",
      "outputs": [],
      "stateMutability": "nonpayable",
      "type": "function"
    }
  ],
  "bytecode": {
    "object": "0x60806040523480156200001157600080fd5b50336200001e816200003b565b62000034816200008d60201b62001e431760201c565b5062000169565b600180546001600160a01b038381166001600160a01b0319831681179093556040519116919082907f8be0079c531659141344cd1fd0a4f28419497f9722a3daafe3b4186f6b6457e090600090a35050565b426002556200009c336200003b565b620000a9600033620000b9565b620000b6600082620000b9565b50565b620000c58282620000c9565b5050565b6000828152602081815260408083206001600160a01b038516845290915290205460ff16620000c5576000828152602081815260408083206001600160a01b03851684529091529020805460ff19166001179055620001253390565b6001600160a01b0316816001600160a01b0316837f2f8788117e7eff1d82e926ec794901d17c78024a50270940304540a733656f0d60405160405180910390a45050565b612ffa80620001796000396000f3fe608060405234801561001057600080fd5b50600436106101215760003560e01c80637fe4a698116100ad578063b1283e7711610071578063b1283e7714610254578063d4dfadbf14610276578063d547741f14610296578063ec2c9016146102a9578063f2fde38b146102be57600080fd5b80637fe4a6981461020357806388dd46a1146102165780638da5cb5b1461021e57806391d1485414610239578063a217fddf1461024c57600080fd5b806329092d0e116100f457806329092d0e146101b45780632f2ff15d146101c757806336568abe146101da578063715018a6146101e857806375829def146101f057600080fd5b806301ffc9a714610126578063174009a41461014e5780631d532fed1461017c578063248a9ca314610191575b600080fd5b61013961013436600461243e565b6102d1565b60405190151581526020015b60405180910390f35b61016e61015c36600461248d565b60046020526000908152604090205481565b604051908152602001610145565b61018f61018a366004612624565b610308565b005b61016e61019f36600461278e565b60009081526020819052604090206001015490565b61018f6101c236600461248d565b610e4d565b61018f6101d53660046127a7565b61125c565b61018f6101213660046127a7565b61018f611281565b61018f6101fe36600461248d565b611295565b61018f61021136600461248d565b611309565b60035461016e565b6001546040516001600160a01b039091168152602001610145565b6101396102473660046127a7565b611333565b61016e600081565b61026761026236600461278e565b61135c565b6040516101459392919061299e565b61028961028436600461248d565b6115f0565b60405161014591906129dc565b61018f6102a43660046127a7565b6118c2565b6102b16118e7565b6040516101459190612a34565b61018f6102cc36600461248d565b611dca565b60006001600160e01b03198216637965db0b60e01b148061030257506301ffc9a760e01b6001600160e01b03198316145b92915050565b7f8d1089725c0dc266707fa6207730fb801dcd03108bfed7a21099bd303651d2b760006103358133611333565b9050801561039757620151806002544261034f9190612aec565b106103925760405162461bcd60e51b815260206004820152600e60248201526d1858c81d1a5b59481c185cdcd95960921b60448201526064015b60405180910390fd5b6103a1565b6103a18233611e66565b600083604001516003815181106103ba576103ba612aff565b602090810291909101015160e08501516101008601516101208701516101408801516101608901516101808a01516101a08b01516101c08c01516101e08d015160405163d04093d560e01b81526004810199909952602489019790975260448801959095526064870193909352608486019190915260a485015260c4840152151560e4830152151561010482015260126101248201529091506001600160a01b0382169063d04093d59061014401600060405180830381600087803b15801561048257600080fd5b505af1158015610496573d6000803e3d6000fd5b50505050600084604001516001815181106104b3576104b3612aff565b60209081029190910101516060860151608087015160405163712a2a1160e11b8152600160048201526001600160a01b039283166024820152908216604482015291925082169063e254542290606401600060405180830381600087803b15801561051d57600080fd5b505af1158015610531573d6000803e3d6000fd5b505050506000856040015160028151811061054e5761054e612aff565b602090810291909101015160a087015160c088015160405163712a2a1160e11b8152600060048201526001600160a01b039283166024820152908216604482015291925082169063e254542290606401600060405180830381600087803b1580156105b857600080fd5b505af11580156105cc573d6000803e3d6000fd5b5050505085604001516000815181106105e7576105e7612aff565b6020908102919091018101519087015160405163189acdbd60e31b81526001600160a01b03918216600482015291169063c4d66de890602401600060405180830381600087803b15801561063a57600080fd5b505af115801561064e573d6000803e3d6000fd5b505050602087015160408089015189519151633233efe560e01b81526001600160a01b039093169350633233efe59261068a9290600401612b15565b600060405180830381600087803b1580156106a457600080fd5b505af11580156106b8573d6000803e3d6000fd5b505050506106c4612251565b865181526020808801516001600160a01b03169082015260038054600181018255600091909152815182916012027fc2575a0e9e593c00f959f8c92f12db2869c3395a3b0502d05e2516446f71f85b019081906107219082612bc2565b5060208201516001820180546001600160a01b0319166001600160a01b0390921691909117905560408201518051600283019081906107609082612bc2565b506020828101516001830180546001600160a01b0319166001600160a01b039092169190911790556040830151805161079f9260028501920190612330565b5060608201516003820180546001600160a01b03199081166001600160a01b03938416179091556080840151600484018054831691841691909117905560a0840151600584018054831691841691909117905560c0840151600684018054909216921691909117905560e08201516007820155610100808301516008830155610120830151600980840191909155610140840151600a840155610160840151600b840155610180840151600c8401556101a0840151600d8401556101c0840151600e840180546101e087015161ffff1990911692151561ff001916929092179115159093021790915561020090920151600f9091015560408a0151805190935090915081106108b0576108b0612aff565b60209081029190910181015190880151604051630de1f44360e41b81526001600160a01b0391821660048201526000602482015291169063de1f443090604401600060405180830381600087803b15801561090a57600080fd5b505af115801561091e573d6000803e3d6000fd5b5050506060880151604051632f2ff15d60e01b8152600080516020612fa583398151915260048201526001600160a01b0386811660248301529091169150632f2ff15d90604401600060405180830381600087803b15801561097f57600080fd5b505af1158015610993573d6000803e3d6000fd5b5050506080880151604051632f2ff15d60e01b8152600080516020612fa583398151915260048201526001600160a01b0386811660248301529091169150632f2ff15d90604401600060405180830381600087803b1580156109f457600080fd5b505af1158015610a08573d6000803e3d6000fd5b50505060a0880151604051632f2ff15d60e01b8152600080516020612fa583398151915260048201526001600160a01b0385811660248301529091169150632f2ff15d90604401600060405180830381600087803b158015610a6957600080fd5b505af1158015610a7d573d6000803e3d6000fd5b50505060c0880151604051632f2ff15d60e01b8152600080516020612fa583398151915260048201526001600160a01b0385811660248301529091169150632f2ff15d90604401600060405180830381600087803b158015610ade57600080fd5b505af1158015610af2573d6000803e3d6000fd5b505050508660400151600181518110610b0d57610b0d612aff565b60200260200101516001600160a01b0316632f2ff15d600080516020612fa583398151915289602001516040518363ffffffff1660e01b8152600401610b669291909182526001600160a01b0316602082015260400190565b600060405180830381600087803b158015610b8057600080fd5b505af1158015610b94573d6000803e3d6000fd5b505050508660400151600281518110610baf57610baf612aff565b60200260200101516001600160a01b0316632f2ff15d600080516020612fa583398151915289602001516040518363ffffffff1660e01b8152600401610c089291909182526001600160a01b0316602082015260400190565b600060405180830381600087803b158015610c2257600080fd5b505af1158015610c36573d6000803e3d6000fd5b505050508660400151600081518110610c5157610c51612aff565b60200260200101516001600160a01b0316632f2ff15d600080516020612fa583398151915289602001516040518363ffffffff1660e01b8152600401610caa9291909182526001600160a01b0316602082015260400190565b600060405180830381600087803b158015610cc457600080fd5b505af1158015610cd8573d6000803e3d6000fd5b5050505086602001516001600160a01b0316632f2ff15d600080516020612fa58339815191528960400151600981518110610d1557610d15612aff565b60200260200101516040518363ffffffff1660e01b8152600401610d4c9291909182526001600160a01b0316602082015260400190565b600060405180830381600087803b158015610d6657600080fd5b505af1158015610d7a573d6000803e3d6000fd5b505050508660400151600881518110610d9557610d95612aff565b60200260200101516001600160a01b0316632f2ff15d600080516020612fa583398151915289602001516040518363ffffffff1660e01b8152600401610dee9291909182526001600160a01b0316602082015260400190565b600060405180830381600087803b158015610e0857600080fd5b505af1158015610e1c573d6000803e3d6000fd5b50506003546020998a01516001600160a01b031660009081526004909a526040909920989098555050505050505050565b7f8d1089725c0dc266707fa6207730fb801dcd03108bfed7a21099bd303651d2b7610e7781611ebf565b60005b60035481101561125757826001600160a01b031660038281548110610ea157610ea1612aff565b60009182526020909120600160129092020101546001600160a01b03160361124557600354610ed290600190612aec565b8110156110a75760038054610ee990600190612aec565b81548110610ef957610ef9612aff565b906000526020600020906012020160038281548110610f1a57610f1a612aff565b6000918252602090912060129091020180610f358382612c82565b5060018281015490820180546001600160a01b0319166001600160a01b03909216919091179055600280830190820180610f6f8382612c82565b5060018281015490820180546001600160a01b0319166001600160a01b0390921691909117905560028083018054610faa9284019190612395565b5060038281015490820180546001600160a01b03199081166001600160a01b0393841617909155600480850154908401805483169184169190911790556005808501549084018054831691841691909117905560068085015490840180549092169216919091179055600780830154908201556008808301549082015560098083015490820155600a8083015490820155600b8083015490820155600c8083015490820155600d8083015490820155600e8083018054918301805460ff938416151560ff19821681178355925461010090819004909416151590930261ff001990921661ffff1990931692909217179055600f9182015491015550505b6000600382815481106110bc576110bc612aff565b90600052602060002090601202016002016002016009815481106110e2576110e2612aff565b600091825260209091200154604051636dc8991b60e11b81526001600160a01b0386811660048301529091169150819063db91323690602401600060405180830381600087803b15801561113557600080fd5b505af1158015611149573d6000803e3d6000fd5b50505050600380548061115e5761115e612d5d565b6000828152602081206000199092019160128302019061117e82826123d5565b6001820180546001600160a01b03191690556002820160006111a082826123d5565b6001820180546001600160a01b03191690556111c060028301600061240f565b506003810180546001600160a01b0319908116909155600482018054821690556005820180548216905560068201805490911690556000600782018190556008820181905560098201819055600a8201819055600b8201819055600c8201819055600d8201819055600e8201805461ffff19169055600f909101555050905550505050565b8061124f81612d73565b915050610e7a565b505050565b60008281526020819052604090206001015461127781611ebf565b6112578383611ec9565b611289611f4d565b6112936000611fa7565b565b60006112a081611ebf565b6001600160a01b0382166112e65760405162461bcd60e51b815260206004820152600d60248201526c217a65726f206164647265737360981b6044820152606401610389565b6112f1600083611ff9565b6112fa82611fa7565b611305600033612003565b5050565b7f8d1089725c0dc266707fa6207730fb801dcd03108bfed7a21099bd303651d2b761012181611ebf565b6000918252602082815260408084206001600160a01b0393909316845291905290205460ff1690565b6003818154811061136c57600080fd5b906000526020600020906012020160009150905080600001805461138f90612b3a565b80601f01602080910402602001604051908101604052809291908181526020018280546113bb90612b3a565b80156114085780601f106113dd57610100808354040283529160200191611408565b820191906000526020600020905b8154815290600101906020018083116113eb57829003601f168201915b5050505050908060010160009054906101000a90046001600160a01b031690806002016040518061022001604052908160008201805461144790612b3a565b80601f016020809104026020016040519081016040528092919081815260200182805461147390612b3a565b80156114c05780601f10611495576101008083540402835291602001916114c0565b820191906000526020600020905b8154815290600101906020018083116114a357829003601f168201915b505050918352505060018201546001600160a01b0316602080830191909152600283018054604080518285028101850182528281529401939283018282801561153257602002820191906000526020600020905b81546001600160a01b03168152600190910190602001808311611514575b505050918352505060038201546001600160a01b0390811660208301526004830154811660408301526005830154811660608301526006830154166080820152600782015460a0820152600882015460c0820152600982015460e0820152600a82015461010080830191909152600b830154610120830152600c830154610140830152600d830154610160830152600e83015460ff80821615156101808501529190041615156101a0820152600f909101546101c090910152905083565b6115f8612251565b6001600160a01b03821660009081526004602052604081205461161d90600190612aec565b90506003818154811061163257611632612aff565b906000526020600020906012020160405180606001604052908160008201805461165b90612b3a565b80601f016020809104026020016040519081016040528092919081815260200182805461168790612b3a565b80156116d45780601f106116a9576101008083540402835291602001916116d4565b820191906000526020600020905b8154815290600101906020018083116116b757829003601f168201915b505050918352505060018201546001600160a01b031660208201526040805161022081018252600284018054929093019290918290829061171490612b3a565b80601f016020809104026020016040519081016040528092919081815260200182805461174090612b3a565b801561178d5780601f106117625761010080835404028352916020019161178d565b820191906000526020600020905b81548152906001019060200180831161177057829003601f168201915b505050918352505060018201546001600160a01b031660208083019190915260028301805460408051828502810185018252828152940193928301828280156117ff57602002820191906000526020600020905b81546001600160a01b031681526001909101906020018083116117e1575b505050918352505060038201546001600160a01b0390811660208301526004830154811660408301526005830154811660608301526006830154166080820152600782015460a0820152600882015460c0820152600982015460e0820152600a82015461010080830191909152600b830154610120830152600c830154610140830152600d830154610160830152600e83015460ff80821615156101808501529190041615156101a0820152600f909101546101c0909101529052509392505050565b6000828152602081905260409020600101546118dd81611ebf565b6112578383612003565b606060006003805480602002602001604051908101604052809291908181526020016000905b82821015611bb6578382906000526020600020906012020160405180606001604052908160008201805461194090612b3a565b80601f016020809104026020016040519081016040528092919081815260200182805461196c90612b3a565b80156119b95780601f1061198e576101008083540402835291602001916119b9565b820191906000526020600020905b81548152906001019060200180831161199c57829003601f168201915b505050918352505060018201546001600160a01b03166020820152604080516102208101825260028401805492909301929091829082906119f990612b3a565b80601f0160208091040260200160405190810160405280929190818152602001828054611a2590612b3a565b8015611a725780601f10611a4757610100808354040283529160200191611a72565b820191906000526020600020905b815481529060010190602001808311611a5557829003601f168201915b505050918352505060018201546001600160a01b03166020808301919091526002830180546040805182850281018501825282815294019392830182828015611ae457602002820191906000526020600020905b81546001600160a01b03168152600190910190602001808311611ac6575b505050918352505060038201546001600160a01b0390811660208084019190915260048401548216604084015260058401548216606084015260068401549091166080830152600783015460a0830152600883015460c0830152600983015460e0830152600a83015461010080840191909152600b840154610120840152600c840154610140840152600d840154610160840152600e84015460ff80821615156101808601529190041615156101a0830152600f909201546101c090910152915291835250600192909201910161190d565b505082519293508291505067ffffffffffffffff811115611bd957611bd96124aa565b604051908082528060200260200182016040528015611c3357816020015b6040805160a08101825260608082526000602080840182905293830181905290820181905260808201528252600019909201910181611bf75790505b50925060005b81811015611dc4576000838281518110611c5557611c55612aff565b602002602001015190506000816020015190506000816001600160a01b031663b894300d6040518163ffffffff1660e01b8152600401602060405180830381865afa158015611ca8573d6000803e3d6000fd5b505050506040513d601f19601f82011682018060405250810190611ccc9190612d8c565b6001600160a01b031663177927296040518163ffffffff1660e01b8152600401602060405180830381865afa158015611d09573d6000803e3d6000fd5b505050506040513d601f19601f82011682018060405250810190611d2d9190612da9565b90506040518060a001604052808460000151815260200184602001516001600160a01b03168152602001611d6083612068565b8152602001611d758351600f606c1b16151590565b15158152602001611d8c8351600f60681b16151590565b1515815250878581518110611da357611da3612aff565b60200260200101819052505050508080611dbc90612d73565b915050611c39565b50505090565b611dd2611f4d565b6001600160a01b038116611e375760405162461bcd60e51b815260206004820152602660248201527f4f776e61626c653a206e6577206f776e657220697320746865207a65726f206160448201526564647265737360d01b6064820152608401610389565b611e4081611fa7565b50565b42600255611e5033611fa7565b611e5b600033611ff9565b611e40600082611ff9565b611e708282611333565b61130557611e7d81612086565b611e88836020612098565b604051602001611e99929190612deb565b60408051601f198184030181529082905262461bcd60e51b825261038991600401612e60565b611e408133611e66565b611ed38282611333565b611305576000828152602081815260408083206001600160a01b03851684529091529020805460ff19166001179055611f093390565b6001600160a01b0316816001600160a01b0316837f2f8788117e7eff1d82e926ec794901d17c78024a50270940304540a733656f0d60405160405180910390a45050565b6001546001600160a01b031633146112935760405162461bcd60e51b815260206004820181905260248201527f4f776e61626c653a2063616c6c6572206973206e6f7420746865206f776e65726044820152606401610389565b600180546001600160a01b038381166001600160a01b0319831681179093556040519116919082907f8be0079c531659141344cd1fd0a4f28419497f9722a3daafe3b4186f6b6457e090600090a35050565b6113058282611ec9565b61200d8282611333565b15611305576000828152602081815260408083206001600160a01b0385168085529252808320805460ff1916905551339285917ff6391f5c32d9c69d2a47ea670b442974b53935d1edc7fd64eb21e047a839171b9190a45050565b60006120738261223b565b8251610302919060301c610fff16612e73565b60606103026001600160a01b03831660145b606060006120a7836002612e73565b6120b2906002612e8a565b67ffffffffffffffff8111156120ca576120ca6124aa565b6040519080825280601f01601f1916602001820160405280156120f4576020820181803683370190505b509050600360fc1b8160008151811061210f5761210f612aff565b60200101906001600160f81b031916908160001a905350600f60fb1b8160018151811061213e5761213e612aff565b60200101906001600160f81b031916908160001a9053506000612162846002612e73565b61216d906001612e8a565b90505b60018111156121e5576f181899199a1a9b1b9c1cb0b131b232b360811b85600f16601081106121a1576121a1612aff565b1a60f81b8282815181106121b7576121b7612aff565b60200101906001600160f81b031916908160001a90535060049490941c936121de81612e9d565b9050612170565b5083156122345760405162461bcd60e51b815260206004820181905260248201527f537472696e67733a20686578206c656e67746820696e73756666696369656e746044820152606401610389565b9392505050565b80516000906103029060701c60ff16600a612f98565b60405180606001604052806060815260200160006001600160a01b0316815260200161232b6040518061022001604052806060815260200160006001600160a01b031681526020016060815260200160006001600160a01b0316815260200160006001600160a01b0316815260200160006001600160a01b0316815260200160006001600160a01b0316815260200160008152602001600081526020016000815260200160008152602001600081526020016000815260200160008152602001600015158152602001600015158152602001600081525090565b905290565b828054828255906000526020600020908101928215612385579160200282015b8281111561238557825182546001600160a01b0319166001600160a01b03909116178255602090920191600190910190612350565b50612391929150612429565b5090565b8280548282559060005260206000209081019282156123855760005260206000209182015b828111156123855782548255916001019190600101906123ba565b5080546123e190612b3a565b6000825580601f106123f1575050565b601f016020900490600052602060002090810190611e409190612429565b5080546000825590600052602060002090810190611e4091905b5b80821115612391576000815560010161242a565b60006020828403121561245057600080fd5b81356001600160e01b03198116811461223457600080fd5b6001600160a01b0381168114611e4057600080fd5b803561248881612468565b919050565b60006020828403121561249f57600080fd5b813561223481612468565b634e487b7160e01b600052604160045260246000fd5b604051610220810167ffffffffffffffff811182821017156124e4576124e46124aa565b60405290565b604051601f8201601f1916810167ffffffffffffffff81118282101715612513576125136124aa565b604052919050565b600082601f83011261252c57600080fd5b813567ffffffffffffffff811115612546576125466124aa565b612559601f8201601f19166020016124ea565b81815284602083860101111561256e57600080fd5b816020850160208301376000918101602001919091529392505050565b600082601f83011261259c57600080fd5b8135602067ffffffffffffffff8211156125b8576125b86124aa565b8160051b6125c78282016124ea565b92835284810182019282810190878511156125e157600080fd5b83870192505b848310156126095782356125fa81612468565b825291830191908301906125e7565b979650505050505050565b8035801515811461248857600080fd5b60006020828403121561263657600080fd5b813567ffffffffffffffff8082111561264e57600080fd5b90830190610220828603121561266357600080fd5b61266b6124c0565b82358281111561267a57600080fd5b6126868782860161251b565b8252506126956020840161247d565b60208201526040830135828111156126ac57600080fd5b6126b88782860161258b565b6040830152506126ca6060840161247d565b60608201526126db6080840161247d565b60808201526126ec60a0840161247d565b60a08201526126fd60c0840161247d565b60c082015260e08381013590820152610100808401359082015261012080840135908201526101408084013590820152610160808401359082015261018080840135908201526101a080840135908201526101c0915061275e828401612614565b828201526101e09150612772828401612614565b9181019190915261020091820135918101919091529392505050565b6000602082840312156127a057600080fd5b5035919050565b600080604083850312156127ba57600080fd5b8235915060208301356127cc81612468565b809150509250929050565b60005b838110156127f25781810151838201526020016127da565b50506000910152565b600081518084526128138160208601602086016127d7565b601f01601f19169290920160200192915050565b600081518084526020808501945080840160005b838110156128605781516001600160a01b03168752958201959082019060010161283b565b509495945050505050565b60006102208251818552612881828601826127fb565b915050602083015161289e60208601826001600160a01b03169052565b50604083015184820360408601526128b68282612827565b91505060608301516128d360608601826001600160a01b03169052565b5060808301516128ee60808601826001600160a01b03169052565b5060a083015161290960a08601826001600160a01b03169052565b5060c083015161292460c08601826001600160a01b03169052565b5060e08381015190850152610100808401519085015261012080840151908501526101408084015190850152610160808401519085015261018080840151908501526101a080840151908501526101c0808401511515908501526101e0808401511515908501526102009283015192909301919091525090565b6060815260006129b160608301866127fb565b6001600160a01b038516602084015282810360408401526129d2818561286b565b9695505050505050565b6020815260008251606060208401526129f860808401826127fb565b60208501516001600160a01b0316604085810191909152850151848203601f19016060860152909150612a2b828261286b565b95945050505050565b60006020808301818452808551808352604092508286019150828160051b87010184880160005b83811015612ac857603f19898403018552815160a08151818652612a81828701826127fb565b838b01516001600160a01b0316878c0152898401518a8801526060808501511515908801526080938401511515939096019290925250509386019390860190600101612a5b565b509098975050505050505050565b634e487b7160e01b600052601160045260246000fd5b8181038181111561030257610302612ad6565b634e487b7160e01b600052603260045260246000fd5b604081526000612b286040830185612827565b8281036020840152612a2b81856127fb565b600181811c90821680612b4e57607f821691505b602082108103612b6e57634e487b7160e01b600052602260045260246000fd5b50919050565b601f82111561125757600081815260208120601f850160051c81016020861015612b9b5750805b601f850160051c820191505b81811015612bba57828155600101612ba7565b505050505050565b815167ffffffffffffffff811115612bdc57612bdc6124aa565b612bf081612bea8454612b3a565b84612b74565b602080601f831160018114612c255760008415612c0d5750858301515b600019600386901b1c1916600185901b178555612bba565b600085815260208120601f198616915b82811015612c5457888601518255948401946001909101908401612c35565b5085821015612c725787850151600019600388901b60f8161c191681555b5050505050600190811b01905550565b818103612c8d575050565b612c978254612b3a565b67ffffffffffffffff811115612caf57612caf6124aa565b612cbd81612bea8454612b3a565b6000601f821160018114612cf15760008315612cd95750848201545b600019600385901b1c1916600184901b178455612d56565b600085815260209020601f19841690600086815260209020845b83811015612d2b5782860154825560019586019590910190602001612d0b565b5085831015612d495781850154600019600388901b60f8161c191681555b50505060018360011b0184555b5050505050565b634e487b7160e01b600052603160045260246000fd5b600060018201612d8557612d85612ad6565b5060010190565b600060208284031215612d9e57600080fd5b815161223481612468565b600060208284031215612dbb57600080fd5b6040516020810181811067ffffffffffffffff82111715612dde57612dde6124aa565b6040529151825250919050565b7f416363657373436f6e74726f6c3a206163636f756e7420000000000000000000815260008351612e238160178501602088016127d7565b7001034b99036b4b9b9b4b733903937b6329607d1b6017918401918201528351612e548160288401602088016127d7565b01602801949350505050565b60208152600061223460208301846127fb565b808202811582820484141761030257610302612ad6565b8082018082111561030257610302612ad6565b600081612eac57612eac612ad6565b506000190190565b600181815b80851115612eef578160001904821115612ed557612ed5612ad6565b80851615612ee257918102915b93841c9390800290612eb9565b509250929050565b600082612f0657506001610302565b81612f1357506000610302565b8160018114612f295760028114612f3357612f4f565b6001915050610302565b60ff841115612f4457612f44612ad6565b50506001821b610302565b5060208310610133831016604e8410600b8410161715612f72575081810a610302565b612f7c8383612eb4565b8060001904821115612f9057612f90612ad6565b029392505050565b60006122348383612ef756fecb58d6d985142a614029cdf01861b4fe094d5919a47e69b8310dc4093d9d6ad0a264697066735822122090ad5dedcdf42ed4c1c66fbf939fb5e34e5de1fa8d0d9b67c0dee29e3fd0419b64736f6c63430008110033",
    "linkReferences": {}
  },
  "methodIdentifiers": {
    "DEFAULT_ADMIN_ROLE()": "a217fddf",
    "allMarketsLength()": "88dd46a1",
    "create((string,address,address[],address,address,address,address,uint256,uint256,uint256,uint256,uint256,uint256,uint256,bool,bool,uint256))": "1d532fed",
    "getMarket(address)": "d4dfadbf",
    "getMarkets()": "ec2c9016",
    "getRoleAdmin(bytes32)": "248a9ca3",
    "grantControllerRoleByMarketManager(address)": "7fe4a698",
    "grantRole(bytes32,address)": "2f2ff15d",
    "hasRole(bytes32,address)": "91d14854",
    "marketIndexes(address)": "174009a4",
    "markets(uint256)": "b1283e77",
    "owner()": "8da5cb5b",
    "remove(address)": "29092d0e",
    "renounceOwnership()": "715018a6",
    "renounceRole(bytes32,address)": "36568abe",
    "revokeRole(bytes32,address)": "d547741f",
    "supportsInterface(bytes4)": "01ffc9a7",
    "transferAdmin(address)": "75829def",
    "transferOwnership(address)": "f2fde38b"
  },
  "id": 12
}