{
  "abi": [
    {
      "anonymous": false,
      "inputs": [
        {
          "indexed": true,
          "internalType": "address",
          "name": "account",
          "type": "address"
        },
        {
          "indexed": false,
          "internalType": "bool",
          "name": "isLong",
          "type": "bool"
        },
        {
          "indexed": false,
          "internalType": "bool",
          "name": "isIncrease",
          "type": "bool"
        },
        {
          "indexed": false,
          "internalType": "uint256",
          "name": "orderID",
          "type": "uint256"
        },
        {
          "indexed": false,
          "internalType": "address",
          "name": "market",
          "type": "address"
        },
        {
          "indexed": false,
          "internalType": "uint8",
          "name": "reason",
          "type": "uint8"
        },
        {
          "indexed": false,
          "internalType": "string",
          "name": "reasonStr",
          "type": "string"
        },
        {
          "indexed": false,
          "internalType": "uint256",
          "name": "price",
          "type": "uint256"
        },
        {
          "indexed": false,
          "internalType": "int256",
          "name": "dPNL",
          "type": "int256"
        }
      ],
      "name": "DeleteOrder",
      "type": "event"
    },
    {
      "anonymous": false,
      "inputs": [
        {
          "indexed": false,
          "internalType": "uint8",
          "name": "version",
          "type": "uint8"
        }
      ],
      "name": "Initialized",
      "type": "event"
    },
    {
      "anonymous": false,
      "inputs": [
        {
          "indexed": true,
          "internalType": "address",
          "name": "previousOwner",
          "type": "address"
        },
        {
          "indexed": true,
          "internalType": "address",
          "name": "newOwner",
          "type": "address"
        }
      ],
      "name": "OwnershipTransferred",
      "type": "event"
    },
    {
      "anonymous": false,
      "inputs": [
        {
          "indexed": true,
          "internalType": "bytes32",
          "name": "role",
          "type": "bytes32"
        },
        {
          "indexed": true,
          "internalType": "bytes32",
          "name": "previousAdminRole",
          "type": "bytes32"
        },
        {
          "indexed": true,
          "internalType": "bytes32",
          "name": "newAdminRole",
          "type": "bytes32"
        }
      ],
      "name": "RoleAdminChanged",
      "type": "event"
    },
    {
      "anonymous": false,
      "inputs": [
        {
          "indexed": true,
          "internalType": "bytes32",
          "name": "role",
          "type": "bytes32"
        },
        {
          "indexed": true,
          "internalType": "address",
          "name": "account",
          "type": "address"
        },
        {
          "indexed": true,
          "internalType": "address",
          "name": "sender",
          "type": "address"
        }
      ],
      "name": "RoleGranted",
      "type": "event"
    },
    {
      "anonymous": false,
      "inputs": [
        {
          "indexed": true,
          "internalType": "bytes32",
          "name": "role",
          "type": "bytes32"
        },
        {
          "indexed": true,
          "internalType": "address",
          "name": "account",
          "type": "address"
        },
        {
          "indexed": true,
          "internalType": "address",
          "name": "sender",
          "type": "address"
        }
      ],
      "name": "RoleRevoked",
      "type": "event"
    },
    {
      "anonymous": false,
      "inputs": [
        {
          "indexed": true,
          "internalType": "address",
          "name": "account",
          "type": "address"
        },
        {
          "indexed": false,
          "internalType": "bool",
          "name": "isLong",
          "type": "bool"
        },
        {
          "indexed": false,
          "internalType": "bool",
          "name": "isIncrease",
          "type": "bool"
        },
        {
          "indexed": false,
          "internalType": "uint256",
          "name": "orderID",
          "type": "uint256"
        },
        {
          "indexed": false,
          "internalType": "address",
          "name": "market",
          "type": "address"
        },
        {
          "indexed": false,
          "internalType": "uint256",
          "name": "size",
          "type": "uint256"
        },
        {
          "indexed": false,
          "internalType": "uint256",
          "name": "collateral",
          "type": "uint256"
        },
        {
          "indexed": false,
          "internalType": "uint256",
          "name": "triggerPrice",
          "type": "uint256"
        },
        {
          "indexed": false,
          "internalType": "bool",
          "name": "triggerAbove",
          "type": "bool"
        },
        {
          "indexed": false,
          "internalType": "uint256",
          "name": "tp",
          "type": "uint256"
        },
        {
          "indexed": false,
          "internalType": "uint256",
          "name": "sl",
          "type": "uint256"
        },
        {
          "indexed": false,
          "internalType": "uint128",
          "name": "fromOrder",
          "type": "uint128"
        },
        {
          "indexed": false,
          "internalType": "bool",
          "name": "isKeepLev",
          "type": "bool"
        },
        {
          "components": [
            {
              "internalType": "address",
              "name": "_market",
              "type": "address"
            },
            {
              "internalType": "bool",
              "name": "_isLong",
              "type": "bool"
            },
            {
              "internalType": "uint256",
              "name": "_oraclePrice",
              "type": "uint256"
            },
            {
              "internalType": "bool",
              "name": "isOpen",
              "type": "bool"
            },
            {
              "internalType": "bool",
              "name": "isCreate",
              "type": "bool"
            },
            {
              "components": [
                {
                  "internalType": "uint8",
                  "name": "version",
                  "type": "uint8"
                },
                {
                  "internalType": "uint32",
                  "name": "updatedAtBlock",
                  "type": "uint32"
                },
                {
                  "internalType": "uint8",
                  "name": "triggerAbove",
                  "type": "uint8"
                },
                {
                  "internalType": "address",
                  "name": "account",
                  "type": "address"
                },
                {
                  "internalType": "uint48",
                  "name": "extra3",
                  "type": "uint48"
                },
                {
                  "internalType": "uint128",
                  "name": "collateral",
                  "type": "uint128"
                },
                {
                  "internalType": "uint128",
                  "name": "size",
                  "type": "uint128"
                },
                {
                  "internalType": "uint128",
                  "name": "price",
                  "type": "uint128"
                },
                {
                  "internalType": "uint128",
                  "name": "extra1",
                  "type": "uint128"
                },
                {
                  "internalType": "uint64",
                  "name": "orderID",
                  "type": "uint64"
                },
                {
                  "internalType": "uint64",
                  "name": "extra2",
                  "type": "uint64"
                },
                {
                  "internalType": "uint128",
                  "name": "extra0",
                  "type": "uint128"
                },
                {
                  "internalType": "bytes32",
                  "name": "refCode",
                  "type": "bytes32"
                }
              ],
              "internalType": "struct Order.Props",
              "name": "_order",
              "type": "tuple"
            },
            {
              "internalType": "uint256[]",
              "name": "inputs",
              "type": "uint256[]"
            }
          ],
          "indexed": false,
          "internalType": "struct MarketDataTypes.UpdateOrderInputs",
          "name": "params",
          "type": "tuple"
        }
      ],
      "name": "UpdateOrder",
      "type": "event"
    },
    {
      "anonymous": false,
      "inputs": [
        {
          "indexed": true,
          "internalType": "address",
          "name": "account",
          "type": "address"
        },
        {
          "indexed": false,
          "internalType": "uint256",
          "name": "collateralDelta",
          "type": "uint256"
        },
        {
          "indexed": false,
          "internalType": "int256",
          "name": "collateralDeltaAfter",
          "type": "int256"
        },
        {
          "indexed": false,
          "internalType": "uint256",
          "name": "sizeDelta",
          "type": "uint256"
        },
        {
          "indexed": false,
          "internalType": "bool",
          "name": "isLong",
          "type": "bool"
        },
        {
          "indexed": false,
          "internalType": "uint256",
          "name": "price",
          "type": "uint256"
        },
        {
          "indexed": false,
          "internalType": "int256",
          "name": "pnl",
          "type": "int256"
        },
        {
          "indexed": false,
          "internalType": "int256[]",
          "name": "fees",
          "type": "int256[]"
        },
        {
          "indexed": false,
          "internalType": "address",
          "name": "market",
          "type": "address"
        },
        {
          "indexed": false,
          "internalType": "address",
          "name": "collateralToken",
          "type": "address"
        },
        {
          "indexed": false,
          "internalType": "address",
          "name": "indexToken",
          "type": "address"
        },
        {
          "indexed": false,
          "internalType": "uint256",
          "name": "category",
          "type": "uint256"
        },
        {
          "indexed": false,
          "internalType": "uint64",
          "name": "fromOrder",
          "type": "uint64"
        }
      ],
      "name": "UpdatePosition",
      "type": "event"
    },
    {
      "inputs": [],
      "name": "DEFAULT_ADMIN_ROLE",
      "outputs": [
        {
          "internalType": "bytes32",
          "name": "",
          "type": "bytes32"
        }
      ],
      "stateMutability": "view",
      "type": "function"
    },
    {
      "inputs": [
        {
          "internalType": "address",
          "name": "_market",
          "type": "address"
        },
        {
          "internalType": "address",
          "name": "vault",
          "type": "address"
        }
      ],
      "name": "addMarket",
      "outputs": [],
      "stateMutability": "nonpayable",
      "type": "function"
    },
    {
      "inputs": [
        {
          "internalType": "address[]",
          "name": "_markets",
          "type": "address[]"
        },
        {
          "internalType": "bool[]",
          "name": "_isIncreaseList",
          "type": "bool[]"
        },
        {
          "internalType": "uint256[]",
          "name": "_orderIDList",
          "type": "uint256[]"
        },
        {
          "internalType": "bool[]",
          "name": "_isLongList",
          "type": "bool[]"
        }
      ],
      "name": "cancelOrderList",
      "outputs": [],
      "stateMutability": "nonpayable",
      "type": "function"
    },
    {
      "inputs": [
        {
          "components": [
            {
              "internalType": "address",
              "name": "_market",
              "type": "address"
            },
            {
              "internalType": "bool",
              "name": "_isLong",
              "type": "bool"
            },
            {
              "internalType": "uint256",
              "name": "_oraclePrice",
              "type": "uint256"
            },
            {
              "internalType": "bool",
              "name": "isOpen",
              "type": "bool"
            },
            {
              "internalType": "address",
              "name": "_account",
              "type": "address"
            },
            {
              "internalType": "uint256",
              "name": "_sizeDelta",
              "type": "uint256"
            },
            {
              "internalType": "uint256",
              "name": "_price",
              "type": "uint256"
            },
            {
              "internalType": "uint256",
              "name": "_slippage",
              "type": "uint256"
            },
            {
              "internalType": "bool",
              "name": "_isExec",
              "type": "bool"
            },
            {
              "internalType": "uint8",
              "name": "liqState",
              "type": "uint8"
            },
            {
              "internalType": "uint64",
              "name": "_fromOrder",
              "type": "uint64"
            },
            {
              "internalType": "bytes32",
              "name": "_refCode",
              "type": "bytes32"
            },
            {
              "internalType": "uint256",
              "name": "collateralDelta",
              "type": "uint256"
            },
            {
              "internalType": "uint8",
              "name": "execNum",
              "type": "uint8"
            },
            {
              "internalType": "uint256[]",
              "name": "inputs",
              "type": "uint256[]"
            }
          ],
          "internalType": "struct MarketDataTypes.UpdatePositionInputs",
          "name": "_vars",
          "type": "tuple"
        }
      ],
      "name": "decreasePosition",
      "outputs": [],
      "stateMutability": "nonpayable",
      "type": "function"
    },
    {
      "inputs": [
        {
          "components": [
            {
              "components": [
                {
                  "internalType": "uint8",
                  "name": "version",
                  "type": "uint8"
                },
                {
                  "internalType": "uint32",
                  "name": "updatedAtBlock",
                  "type": "uint32"
                },
                {
                  "internalType": "uint8",
                  "name": "triggerAbove",
                  "type": "uint8"
                },
                {
                  "internalType": "address",
                  "name": "account",
                  "type": "address"
                },
                {
                  "internalType": "uint48",
                  "name": "extra3",
                  "type": "uint48"
                },
                {
                  "internalType": "uint128",
                  "name": "collateral",
                  "type": "uint128"
                },
                {
                  "internalType": "uint128",
                  "name": "size",
                  "type": "uint128"
                },
                {
                  "internalType": "uint128",
                  "name": "price",
                  "type": "uint128"
                },
                {
                  "internalType": "uint128",
                  "name": "extra1",
                  "type": "uint128"
                },
                {
                  "internalType": "uint64",
                  "name": "orderID",
                  "type": "uint64"
                },
                {
                  "internalType": "uint64",
                  "name": "extra2",
                  "type": "uint64"
                },
                {
                  "internalType": "uint128",
                  "name": "extra0",
                  "type": "uint128"
                },
                {
                  "internalType": "bytes32",
                  "name": "refCode",
                  "type": "bytes32"
                }
              ],
              "internalType": "struct Order.Props",
              "name": "order",
              "type": "tuple"
            },
            {
              "components": [
                {
                  "internalType": "address",
                  "name": "_market",
                  "type": "address"
                },
                {
                  "internalType": "bool",
                  "name": "_isLong",
                  "type": "bool"
                },
                {
                  "internalType": "uint256",
                  "name": "_oraclePrice",
                  "type": "uint256"
                },
                {
                  "internalType": "bool",
                  "name": "isOpen",
                  "type": "bool"
                },
                {
                  "internalType": "address",
                  "name": "_account",
                  "type": "address"
                },
                {
                  "internalType": "uint256",
                  "name": "_sizeDelta",
                  "type": "uint256"
                },
                {
                  "internalType": "uint256",
                  "name": "_price",
                  "type": "uint256"
                },
                {
                  "internalType": "uint256",
                  "name": "_slippage",
                  "type": "uint256"
                },
                {
                  "internalType": "bool",
                  "name": "_isExec",
                  "type": "bool"
                },
                {
                  "internalType": "uint8",
                  "name": "liqState",
                  "type": "uint8"
                },
                {
                  "internalType": "uint64",
                  "name": "_fromOrder",
                  "type": "uint64"
                },
                {
                  "internalType": "bytes32",
                  "name": "_refCode",
                  "type": "bytes32"
                },
                {
                  "internalType": "uint256",
                  "name": "collateralDelta",
                  "type": "uint256"
                },
                {
                  "internalType": "uint8",
                  "name": "execNum",
                  "type": "uint8"
                },
                {
                  "internalType": "uint256[]",
                  "name": "inputs",
                  "type": "uint256[]"
                }
              ],
              "internalType": "struct MarketDataTypes.UpdatePositionInputs",
              "name": "inputs",
              "type": "tuple"
            },
            {
              "internalType": "uint8",
              "name": "reason",
              "type": "uint8"
            },
            {
              "internalType": "string",
              "name": "reasonStr",
              "type": "string"
            },
            {
              "internalType": "int256",
              "name": "dPNL",
              "type": "int256"
            }
          ],
          "internalType": "struct MarketOrderCallBackIntl.DeleteOrderEvent",
          "name": "e",
          "type": "tuple"
        }
      ],
      "name": "deleteOrderCallback",
      "outputs": [],
      "stateMutability": "nonpayable",
      "type": "function"
    },
    {
      "inputs": [
        {
          "internalType": "address",
          "name": "account",
          "type": "address"
        }
      ],
      "name": "getAccountSize",
      "outputs": [
        {
          "internalType": "uint256",
          "name": "sizesL",
          "type": "uint256"
        },
        {
          "internalType": "uint256",
          "name": "sizesS",
          "type": "uint256"
        }
      ],
      "stateMutability": "view",
      "type": "function"
    },
    {
      "inputs": [],
      "name": "getGlobalPNL",
      "outputs": [
        {
          "internalType": "int256",
          "name": "pnl",
          "type": "int256"
        }
      ],
      "stateMutability": "view",
      "type": "function"
    },
    {
      "inputs": [],
      "name": "getGlobalSize",
      "outputs": [
        {
          "internalType": "uint256",
          "name": "sizesLong",
          "type": "uint256"
        },
        {
          "internalType": "uint256",
          "name": "sizesShort",
          "type": "uint256"
        }
      ],
      "stateMutability": "view",
      "type": "function"
    },
    {
      "inputs": [],
      "name": "getHooksCalls",
      "outputs": [
        {
          "components": [
            {
              "internalType": "bool",
              "name": "updatePosition",
              "type": "bool"
            },
            {
              "internalType": "bool",
              "name": "updateOrder",
              "type": "bool"
            },
            {
              "internalType": "bool",
              "name": "deleteOrder",
              "type": "bool"
            }
          ],
          "internalType": "struct MarketCallBackIntl.Calls",
          "name": "",
          "type": "tuple"
        }
      ],
      "stateMutability": "pure",
      "type": "function"
    },
    {
      "inputs": [],
      "name": "getMarkets",
      "outputs": [
        {
          "internalType": "address[]",
          "name": "",
          "type": "address[]"
        }
      ],
      "stateMutability": "view",
      "type": "function"
    },
    {
      "inputs": [
        {
          "internalType": "bytes32",
          "name": "role",
          "type": "bytes32"
        }
      ],
      "name": "getRoleAdmin",
      "outputs": [
        {
          "internalType": "bytes32",
          "name": "",
          "type": "bytes32"
        }
      ],
      "stateMutability": "view",
      "type": "function"
    },
    {
      "inputs": [
        {
          "internalType": "address",
          "name": "_account",
          "type": "address"
        }
      ],
      "name": "grantControllerRoleByMarketManager",
      "outputs": [],
      "stateMutability": "nonpayable",
      "type": "function"
    },
    {
      "inputs": [
        {
          "internalType": "bytes32",
          "name": "role",
          "type": "bytes32"
        },
        {
          "internalType": "address",
          "name": "account",
          "type": "address"
        }
      ],
      "name": "grantRole",
      "outputs": [],
      "stateMutability": "nonpayable",
      "type": "function"
    },
    {
      "inputs": [],
      "name": "gv",
      "outputs": [
        {
          "internalType": "address",
          "name": "",
          "type": "address"
        }
      ],
      "stateMutability": "view",
      "type": "function"
    },
    {
      "inputs": [
        {
          "internalType": "bytes32",
          "name": "role",
          "type": "bytes32"
        },
        {
          "internalType": "address",
          "name": "account",
          "type": "address"
        }
      ],
      "name": "hasRole",
      "outputs": [
        {
          "internalType": "bool",
          "name": "",
          "type": "bool"
        }
      ],
      "stateMutability": "view",
      "type": "function"
    },
    {
      "inputs": [
        {
          "components": [
            {
              "internalType": "address",
              "name": "_market",
              "type": "address"
            },
            {
              "internalType": "bool",
              "name": "_isLong",
              "type": "bool"
            },
            {
              "internalType": "uint256",
              "name": "_oraclePrice",
              "type": "uint256"
            },
            {
              "internalType": "bool",
              "name": "isOpen",
              "type": "bool"
            },
            {
              "internalType": "address",
              "name": "_account",
              "type": "address"
            },
            {
              "internalType": "uint256",
              "name": "_sizeDelta",
              "type": "uint256"
            },
            {
              "internalType": "uint256",
              "name": "_price",
              "type": "uint256"
            },
            {
              "internalType": "uint256",
              "name": "_slippage",
              "type": "uint256"
            },
            {
              "internalType": "bool",
              "name": "_isExec",
              "type": "bool"
            },
            {
              "internalType": "uint8",
              "name": "liqState",
              "type": "uint8"
            },
            {
              "internalType": "uint64",
              "name": "_fromOrder",
              "type": "uint64"
            },
            {
              "internalType": "bytes32",
              "name": "_refCode",
              "type": "bytes32"
            },
            {
              "internalType": "uint256",
              "name": "collateralDelta",
              "type": "uint256"
            },
            {
              "internalType": "uint8",
              "name": "execNum",
              "type": "uint8"
            },
            {
              "internalType": "uint256[]",
              "name": "inputs",
              "type": "uint256[]"
            }
          ],
          "internalType": "struct MarketDataTypes.UpdatePositionInputs",
          "name": "_inputs",
          "type": "tuple"
        }
      ],
      "name": "increasePosition",
      "outputs": [],
      "stateMutability": "nonpayable",
      "type": "function"
    },
    {
      "inputs": [
        {
          "internalType": "address",
          "name": "_f",
          "type": "address"
        },
        {
          "internalType": "address",
          "name": "_gv",
          "type": "address"
        },
        {
          "internalType": "address",
          "name": "vr",
          "type": "address"
        }
      ],
      "name": "initialize",
      "outputs": [],
      "stateMutability": "nonpayable",
      "type": "function"
    },
    {
      "inputs": [],
      "name": "isEnableMarketConvertToOrder",
      "outputs": [
        {
          "internalType": "bool",
          "name": "",
          "type": "bool"
        }
      ],
      "stateMutability": "view",
      "type": "function"
    },
    {
      "inputs": [],
      "name": "owner",
      "outputs": [
        {
          "internalType": "address",
          "name": "",
          "type": "address"
        }
      ],
      "stateMutability": "view",
      "type": "function"
    },
    {
      "inputs": [
        {
          "internalType": "address",
          "name": "_market",
          "type": "address"
        }
      ],
      "name": "removeMarket",
      "outputs": [],
      "stateMutability": "nonpayable",
      "type": "function"
    },
    {
      "inputs": [],
      "name": "renounceOwnership",
      "outputs": [],
      "stateMutability": "nonpayable",
      "type": "function"
    },
    {
      "inputs": [
        {
          "internalType": "bytes32",
          "name": "",
          "type": "bytes32"
        },
        {
          "internalType": "address",
          "name": "",
          "type": "address"
        }
      ],
      "name": "renounceRole",
      "outputs": [],
      "stateMutability": "nonpayable",
      "type": "function"
    },
    {
      "inputs": [
        {
          "internalType": "bytes32",
          "name": "role",
          "type": "bytes32"
        },
        {
          "internalType": "address",
          "name": "account",
          "type": "address"
        }
      ],
      "name": "revokeRole",
      "outputs": [],
      "stateMutability": "nonpayable",
      "type": "function"
    },
    {
      "inputs": [
        {
          "internalType": "bool",
          "name": "_isEnableMarketConvertToOrder",
          "type": "bool"
        }
      ],
      "name": "setIsEnableMarketConvertToOrder",
      "outputs": [],
      "stateMutability": "nonpayable",
      "type": "function"
    },
    {
      "inputs": [
        {
          "internalType": "bytes4",
          "name": "interfaceId",
          "type": "bytes4"
        }
      ],
      "name": "supportsInterface",
      "outputs": [
        {
          "internalType": "bool",
          "name": "",
          "type": "bool"
        }
      ],
      "stateMutability": "view",
      "type": "function"
    },
    {
      "inputs": [
        {
          "internalType": "address",
          "name": "to",
          "type": "address"
        }
      ],
      "name": "transferAdmin",
      "outputs": [],
      "stateMutability": "nonpayable",
      "type": "function"
    },
    {
      "inputs": [
        {
          "internalType": "address",
          "name": "newOwner",
          "type": "address"
        }
      ],
      "name": "transferOwnership",
      "outputs": [],
      "stateMutability": "nonpayable",
      "type": "function"
    },
    {
      "inputs": [
        {
          "components": [
            {
              "internalType": "address",
              "name": "_market",
              "type": "address"
            },
            {
              "internalType": "bool",
              "name": "_isLong",
              "type": "bool"
            },
            {
              "internalType": "uint256",
              "name": "_oraclePrice",
              "type": "uint256"
            },
            {
              "internalType": "bool",
              "name": "isOpen",
              "type": "bool"
            },
            {
              "internalType": "bool",
              "name": "isCreate",
              "type": "bool"
            },
            {
              "components": [
                {
                  "internalType": "uint8",
                  "name": "version",
                  "type": "uint8"
                },
                {
                  "internalType": "uint32",
                  "name": "updatedAtBlock",
                  "type": "uint32"
                },
                {
                  "internalType": "uint8",
                  "name": "triggerAbove",
                  "type": "uint8"
                },
                {
                  "internalType": "address",
                  "name": "account",
                  "type": "address"
                },
                {
                  "internalType": "uint48",
                  "name": "extra3",
                  "type": "uint48"
                },
                {
                  "internalType": "uint128",
                  "name": "collateral",
                  "type": "uint128"
                },
                {
                  "internalType": "uint128",
                  "name": "size",
                  "type": "uint128"
                },
                {
                  "internalType": "uint128",
                  "name": "price",
                  "type": "uint128"
                },
                {
                  "internalType": "uint128",
                  "name": "extra1",
                  "type": "uint128"
                },
                {
                  "internalType": "uint64",
                  "name": "orderID",
                  "type": "uint64"
                },
                {
                  "internalType": "uint64",
                  "name": "extra2",
                  "type": "uint64"
                },
                {
                  "internalType": "uint128",
                  "name": "extra0",
                  "type": "uint128"
                },
                {
                  "internalType": "bytes32",
                  "name": "refCode",
                  "type": "bytes32"
                }
              ],
              "internalType": "struct Order.Props",
              "name": "_order",
              "type": "tuple"
            },
            {
              "internalType": "uint256[]",
              "name": "inputs",
              "type": "uint256[]"
            }
          ],
          "internalType": "struct MarketDataTypes.UpdateOrderInputs",
          "name": "_vars",
          "type": "tuple"
        }
      ],
      "name": "updateOrder",
      "outputs": [],
      "stateMutability": "nonpayable",
      "type": "function"
    },
    {
      "inputs": [
        {
          "components": [
            {
              "internalType": "address",
              "name": "_market",
              "type": "address"
            },
            {
              "internalType": "bool",
              "name": "_isLong",
              "type": "bool"
            },
            {
              "internalType": "uint256",
              "name": "_oraclePrice",
              "type": "uint256"
            },
            {
              "internalType": "bool",
              "name": "isOpen",
              "type": "bool"
            },
            {
              "internalType": "bool",
              "name": "isCreate",
              "type": "bool"
            },
            {
              "components": [
                {
                  "internalType": "uint8",
                  "name": "version",
                  "type": "uint8"
                },
                {
                  "internalType": "uint32",
                  "name": "updatedAtBlock",
                  "type": "uint32"
                },
                {
                  "internalType": "uint8",
                  "name": "triggerAbove",
                  "type": "uint8"
                },
                {
                  "internalType": "address",
                  "name": "account",
                  "type": "address"
                },
                {
                  "internalType": "uint48",
                  "name": "extra3",
                  "type": "uint48"
                },
                {
                  "internalType": "uint128",
                  "name": "collateral",
                  "type": "uint128"
                },
                {
                  "internalType": "uint128",
                  "name": "size",
                  "type": "uint128"
                },
                {
                  "internalType": "uint128",
                  "name": "price",
                  "type": "uint128"
                },
                {
                  "internalType": "uint128",
                  "name": "extra1",
                  "type": "uint128"
                },
                {
                  "internalType": "uint64",
                  "name": "orderID",
                  "type": "uint64"
                },
                {
                  "internalType": "uint64",
                  "name": "extra2",
                  "type": "uint64"
                },
                {
                  "internalType": "uint128",
                  "name": "extra0",
                  "type": "uint128"
                },
                {
                  "internalType": "bytes32",
                  "name": "refCode",
                  "type": "bytes32"
                }
              ],
              "internalType": "struct Order.Props",
              "name": "_order",
              "type": "tuple"
            },
            {
              "internalType": "uint256[]",
              "name": "inputs",
              "type": "uint256[]"
            }
          ],
          "internalType": "struct MarketDataTypes.UpdateOrderInputs",
          "name": "_event",
          "type": "tuple"
        }
      ],
      "name": "updateOrderCallback",
      "outputs": [],
      "stateMutability": "nonpayable",
      "type": "function"
    },
    {
      "inputs": [
        {
          "internalType": "address",
          "name": "newA",
          "type": "address"
        }
      ],
      "name": "updatePositionBook",
      "outputs": [],
      "stateMutability": "nonpayable",
      "type": "function"
    },
    {
      "inputs": [
        {
          "components": [
            {
              "components": [
                {
                  "internalType": "address",
                  "name": "_market",
                  "type": "address"
                },
                {
                  "internalType": "bool",
                  "name": "_isLong",
                  "type": "bool"
                },
                {
                  "internalType": "uint256",
                  "name": "_oraclePrice",
                  "type": "uint256"
                },
                {
                  "internalType": "bool",
                  "name": "isOpen",
                  "type": "bool"
                },
                {
                  "internalType": "address",
                  "name": "_account",
                  "type": "address"
                },
                {
                  "internalType": "uint256",
                  "name": "_sizeDelta",
                  "type": "uint256"
                },
                {
                  "internalType": "uint256",
                  "name": "_price",
                  "type": "uint256"
                },
                {
                  "internalType": "uint256",
                  "name": "_slippage",
                  "type": "uint256"
                },
                {
                  "internalType": "bool",
                  "name": "_isExec",
                  "type": "bool"
                },
                {
                  "internalType": "uint8",
                  "name": "liqState",
                  "type": "uint8"
                },
                {
                  "internalType": "uint64",
                  "name": "_fromOrder",
                  "type": "uint64"
                },
                {
                  "internalType": "bytes32",
                  "name": "_refCode",
                  "type": "bytes32"
                },
                {
                  "internalType": "uint256",
                  "name": "collateralDelta",
                  "type": "uint256"
                },
                {
                  "internalType": "uint8",
                  "name": "execNum",
                  "type": "uint8"
                },
                {
                  "internalType": "uint256[]",
                  "name": "inputs",
                  "type": "uint256[]"
                }
              ],
              "internalType": "struct MarketDataTypes.UpdatePositionInputs",
              "name": "inputs",
              "type": "tuple"
            },
            {
              "components": [
                {
                  "internalType": "address",
                  "name": "market",
                  "type": "address"
                },
                {
                  "internalType": "bool",
                  "name": "isLong",
                  "type": "bool"
                },
                {
                  "internalType": "uint32",
                  "name": "lastTime",
                  "type": "uint32"
                },
                {
                  "internalType": "uint216",
                  "name": "extra3",
                  "type": "uint216"
                },
                {
                  "internalType": "uint256",
                  "name": "size",
                  "type": "uint256"
                },
                {
                  "internalType": "uint256",
                  "name": "collateral",
                  "type": "uint256"
                },
                {
                  "internalType": "uint256",
                  "name": "averagePrice",
                  "type": "uint256"
                },
                {
                  "internalType": "int256",
                  "name": "entryFundingRate",
                  "type": "int256"
                },
                {
                  "internalType": "int256",
                  "name": "realisedPnl",
                  "type": "int256"
                },
                {
                  "internalType": "uint256",
                  "name": "extra0",
                  "type": "uint256"
                },
                {
                  "internalType": "uint256",
                  "name": "extra1",
                  "type": "uint256"
                },
                {
                  "internalType": "uint256",
                  "name": "extra2",
                  "type": "uint256"
                }
              ],
              "internalType": "struct Position.Props",
              "name": "position",
              "type": "tuple"
            },
            {
              "internalType": "int256[]",
              "name": "fees",
              "type": "int256[]"
            },
            {
              "internalType": "address",
              "name": "collateralToken",
              "type": "address"
            },
            {
              "internalType": "address",
              "name": "indexToken",
              "type": "address"
            },
            {
              "internalType": "int256",
              "name": "collateralDeltaAfter",
              "type": "int256"
            }
          ],
          "internalType": "struct MarketPositionCallBackIntl.UpdatePositionEvent",
          "name": "_event",
          "type": "tuple"
        }
      ],
      "name": "updatePositionCallback",
      "outputs": [],
      "stateMutability": "nonpayable",
      "type": "function"
    },
    {
      "inputs": [
        {
          "components": [
            {
              "internalType": "address",
              "name": "_market",
              "type": "address"
            },
            {
              "internalType": "bool",
              "name": "_isLong",
              "type": "bool"
            },
            {
              "internalType": "uint256",
              "name": "_oraclePrice",
              "type": "uint256"
            },
            {
              "internalType": "bool",
              "name": "isOpen",
              "type": "bool"
            },
            {
              "internalType": "address",
              "name": "_account",
              "type": "address"
            },
            {
              "internalType": "uint256",
              "name": "_sizeDelta",
              "type": "uint256"
            },
            {
              "internalType": "uint256",
              "name": "_price",
              "type": "uint256"
            },
            {
              "internalType": "uint256",
              "name": "_slippage",
              "type": "uint256"
            },
            {
              "internalType": "bool",
              "name": "_isExec",
              "type": "bool"
            },
            {
              "internalType": "uint8",
              "name": "liqState",
              "type": "uint8"
            },
            {
              "internalType": "uint64",
              "name": "_fromOrder",
              "type": "uint64"
            },
            {
              "internalType": "bytes32",
              "name": "_refCode",
              "type": "bytes32"
            },
            {
              "internalType": "uint256",
              "name": "collateralDelta",
              "type": "uint256"
            },
            {
              "internalType": "uint8",
              "name": "execNum",
              "type": "uint8"
            },
            {
              "internalType": "uint256[]",
              "name": "inputs",
              "type": "uint256[]"
            }
          ],
          "internalType": "struct MarketDataTypes.UpdatePositionInputs",
          "name": "_inputs",
          "type": "tuple"
        }
      ],
      "name": "validateIncreasePosition",
      "outputs": [],
      "stateMutability": "view",
      "type": "function"
    },
    {
      "inputs": [],
      "name": "vaultRouter",
      "outputs": [
        {
          "internalType": "address",
          "name": "",
          "type": "address"
        }
      ],
      "stateMutability": "view",
      "type": "function"
    }
  ],
  "bytecode": {
    "object": "0x60806040523480156200001157600080fd5b506200001d3362000028565b60016003556200007a565b600180546001600160a01b038381166001600160a01b0319831681179093556040519116919082907f8be0079c531659141344cd1fd0a4f28419497f9722a3daafe3b4186f6b6457e090600090a35050565b6141cc806200008a6000396000f3fe608060405234801561001057600080fd5b50600436106101fb5760003560e01c806375829def1161011a578063c0c53b8b116100ad578063d547741f1161007c578063d547741f14610485578063db91323614610498578063de1f4430146104ab578063ec2c9016146104be578063f2fde38b146104d357600080fd5b8063c0c53b8b14610439578063cce9a2f31461044c578063cd6ebf661461045f578063d37c441c1461047257600080fd5b806391d14854116100e957806391d14854146103f8578063a217fddf1461040b578063abed961814610413578063b038beb81461042657600080fd5b806375829def146103965780637fe4a698146103a95780638b4400f2146103bc5780638da5cb5b146103e757600080fd5b8063332013a711610192578063544781af11610161578063544781af14610314578063612c39b714610327578063715018a61461037b578063718cb58a1461038357600080fd5b8063332013a7146102cc57806336568abe146102e057806340a542fe146102ee5780634463b5bc1461030157600080fd5b80632073b0ce116101ce5780632073b0ce1461026d578063248a9ca3146102835780632ca6d2c0146102a65780632f2ff15d146102b957600080fd5b806301ffc9a7146102005780630799f55f146102285780630d918caa146102455780631cfe58281461025a575b600080fd5b61021361020e366004612c83565b6104e6565b60405190151581526020015b60405180910390f35b61023061051d565b6040805192835260208301919091520161021f565b610258610253366004612fd9565b6105e0565b005b610258610268366004612fd9565b610789565b610275610aaf565b60405190815260200161021f565b61027561029136600461300d565b60009081526020819052604090206001015490565b6102306102b4366004613026565b610b5f565b6102586102c7366004613043565b610c2e565b600a5461021390600160a01b900460ff1681565b6102586101fb366004613043565b6102586102fc366004613157565b610c58565b61025861030f36600461322b565b610dad565b6102586103223660046132ac565b610de4565b6040805160608082018352600080835260208084018290529284015282518082018452600180825281840181815291850181815285519182529151151593810193909352511515928201929092520161021f565b6102586111e0565b61025861039136600461354c565b6111f4565b6102586103a4366004613026565b6112c8565b6102586103b7366004613026565b61131c565b6009546103cf906001600160a01b031681565b6040516001600160a01b03909116815260200161021f565b6001546001600160a01b03166103cf565b610213610406366004613043565b611334565b610275600081565b610258610421366004612fd9565b61135d565b61025861043436600461360f565b611450565b6102586104473660046136dd565b611461565b61025861045a36600461360f565b61163d565b61025861046d366004613026565b611790565b600a546103cf906001600160a01b031681565b610258610493366004613043565b611936565b6102586104a6366004613026565b61195b565b6102586104b9366004613728565b611a1a565b6104c6611b6f565b60405161021f9190613756565b6102586104e1366004613026565b611b80565b60006001600160e01b03198216637965db0b60e01b148061051757506301ffc9a760e01b6001600160e01b03198316145b92915050565b60008060005b61052d6005611bf6565b518110156105db576000610542600583611c0a565b9050600080826001600160a01b0316638749694a6040518163ffffffff1660e01b81526004016040805180830381865afa158015610584573d6000803e3d6000fd5b505050506040513d601f19601f820116820180604052508101906105a891906137a3565b90925090506105b782876137dd565b95506105c381866137dd565b945050505080806105d3906137f0565b915050610523565b509091565b6105e8611c16565b600a54600160a01b900460ff168015610605575060008160a00151115b156106185761061381611c6f565b61077c565b805161062690600790611dae565b61064b5760405162461bcd60e51b815260040161064290613809565b60405180910390fd5b61065481611dd0565b6106705760405162461bcd60e51b815260040161064290613831565b6000816000015190506000816001600160a01b031663b2016bd46040518163ffffffff1660e01b8152600401602060405180830381865afa1580156106b9573d6000803e3d6000fd5b505050506040513d601f19601f820116820180604052508101906106dd9190613859565b90506107093384600001516106f784876101800151611df5565b6001600160a01b038516929190611e6e565b33608084015261071883610789565b8251604051631def7c1d60e11b81526001600160a01b0390911690633bdef83a906107479086906004016138b1565b600060405180830381600087803b15801561076157600080fd5b505af1158015610775573d6000803e3d6000fd5b5050505050505b6107866001600355565b50565b80516001600160a01b03908116600090815260046020908152604080832054815161014081018352848152808401858152928101858152606082018690526080820186905260a080830187905260c0830187905260e083018790526101008301879052610120830196909652875187168252948701519092529185015115159092529091169061081761051d565b608080840191909152606083019190915283015161083490610b5f565b60c083015260a0820152604080516343a4b4a560e11b815281516001600160a01b03851692638749694a92600480820193918290030181865afa15801561087f573d6000803e3d6000fd5b505050506040513d601f19601f820116820180604052508101906108a391906137a3565b61010083015260e0820152825160408051632c805af560e21b815290516000926001600160a01b03169163b2016bd49160048083019260209291908290030181865afa1580156108f7573d6000803e3d6000fd5b505050506040513d601f19601f8201168201806040525081019061091b9190613859565b90506109fe600a60009054906101000a90046001600160a01b03166001600160a01b0316636dc7b0a16040518163ffffffff1660e01b8152600401602060405180830381865afa158015610973573d6000803e3d6000fd5b505050506040513d601f19601f8201168201806040525081019061099791906139c8565b826001600160a01b031663313ce5676040518163ffffffff1660e01b8152600401602060405180830381865afa1580156109d5573d6000803e3d6000fd5b505050506040513d601f19601f820116820180604052508101906109f991906139e1565b611ec8565b61012083015260095460405163028c7b5160e41b81526001600160a01b03909116906328c7b51090610a349085906004016139fe565b602060405180830381865afa158015610a51573d6000803e3d6000fd5b505050506040513d601f19601f82011682018060405250810190610a759190613a7e565b610aa95760405162461bcd60e51b815260206004820152600560248201526436b91d33bb60d91b6044820152606401610642565b50505050565b6000805b610abd6007611bf6565b51811015610b5b576000610ad2600783611c0a565b90506000816001600160a01b03166393a98e6c6040518163ffffffff1660e01b8152600401602060405180830381865afa158015610b14573d6000803e3d6000fd5b505050506040513d601f19601f82011682018060405250810190610b3891906139c8565b9050610b448185613a9b565b935050508080610b53906137f0565b915050610ab3565b5090565b60008060005b610b6f6005611bf6565b51811015610c28576000610b84600583611c0a565b60405162b29b4b60e61b81526001600160a01b038781166004830152919250600091829190841690632ca6d2c0906024016040805180830381865afa158015610bd1573d6000803e3d6000fd5b505050506040513d601f19601f82011682018060405250810190610bf591906137a3565b9092509050610c0482876137dd565b9550610c1081866137dd565b94505050508080610c20906137f0565b915050610b65565b50915091565b600082815260208190526040902060010154610c4981611ef5565b610c538383611eff565b505050565b8051516001600160a01b03163314610c825760405162461bcd60e51b815260040161064290613ac3565b610c8d600733611dae565b610ca95760405162461bcd60e51b815260040161064290613809565b80516060015160019015610cd457815160a00151600003610ccc57506002610d17565b506000610d17565b8151610120015160ff16600103610ced57506004610d17565b8151610120015160ff16600203610d0657506005610d17565b815160a00151600003610d17575060035b815160808082015161018083015160a08087015190850151602080870151604080890151928b01516101000151818c01518a5160608e01519a8e0151610140909c015193516001600160a01b03909a169b7fd0abfef5eb2cd61e6fd56ea2b69e9867bc90e8589023c554bdade2287b28c9399b610da19b96979694959394929390928f9190613aeb565b60405180910390a25050565b600080516020614177833981519152610dc581611ef5565b50600a8054911515600160a01b0260ff60a01b19909216919091179055565b610dec611c16565b82518451148015610dfe575081518351145b8015610e0b575080518251145b610e575760405162461bcd60e51b815260206004820152601a60248201527f4172726179206c656e6774687320646f206e6f74206d617463680000000000006044820152606401610642565b604080516001808252818301909252600091602080830190803683375050604080516001808252818301909252929350600092915060208083019080368337505060408051600180825281830190925292935060009291506020808301908036833701905050905060005b87518110156111d257610ef8888281518110610ee057610ee0613bb0565b60200260200101516007611dae90919063ffffffff16565b610f145760405162461bcd60e51b815260040161064290613809565b6000610f218260016137dd565b90505b885181101561108a57888181518110610f3f57610f3f613bb0565b60200260200101516001600160a01b0316898381518110610f6257610f62613bb0565b60200260200101516001600160a01b0316148015610fb55750878181518110610f8d57610f8d613bb0565b60200260200101511515888381518110610fa957610fa9613bb0565b60200260200101511515145b8015610ff25750868181518110610fce57610fce613bb0565b6020026020010151878381518110610fe857610fe8613bb0565b6020026020010151145b8015611033575085818151811061100b5761100b613bb0565b6020026020010151151586838151811061102757611027613bb0565b60200260200101511515145b156110785760405162461bcd60e51b8152602060048201526015602482015274111d5c1b1a58d85d19481bdc99195c88199bdd5b99605a1b6044820152606401610642565b80611082816137f0565b915050610f24565b5086818151811061109d5761109d613bb0565b6020026020010151846000815181106110b8576110b8613bb0565b6020026020010190151590811515815250508581815181106110dc576110dc613bb0565b6020026020010151836000815181106110f7576110f7613bb0565b60200260200101818152505084818151811061111557611115613bb0565b60200260200101518260008151811061113057611130613bb0565b60200260200101901515908115158152505087818151811061115457611154613bb0565b60200260200101516001600160a01b031663301f6fe9338686866040518563ffffffff1660e01b815260040161118d9493929190613bf8565b600060405180830381600087803b1580156111a757600080fd5b505af11580156111bb573d6000803e3d6000fd5b5050505080806111ca906137f0565b915050610ec2565b50505050610aa96001600355565b6111e8611f83565b6111f26000611fdd565b565b6020810151516001600160a01b031633146112215760405162461bcd60e51b815260040161064290613ac3565b61122c600733611dae565b6112485760405162461bcd60e51b815260040161064290613809565b80516060808201516020808501519081015181840151610120909501518251604080890151968901519481015160808a015191516001600160a01b03909716987f083f7516dcfe13a8bef8bcbbe89648ce92bfd7161733f88ba43e1049de6af1b4986112bd9896979196909391929190613c92565b60405180910390a250565b60006112d381611ef5565b6001600160a01b0382166112f95760405162461bcd60e51b815260040161064290613cf7565b61130460008361202f565b61130d82611fdd565b611318600033612039565b5050565b6000805160206141778339815191526101fb81611ef5565b6000918252602082815260408084206001600160a01b0393909316845291905290205460ff1690565b611365611c16565b600a54600160a01b900460ff168015611382575060008160a00151115b156113905761061381611c6f565b805161139e90600790611dae565b6113ba5760405162461bcd60e51b815260040161064290613809565b6113c381611dd0565b6113df5760405162461bcd60e51b815260040161064290613831565b336080820152805160405163157db2c360e31b81526001600160a01b039091169063abed9618906114149084906004016138b1565b600060405180830381600087803b15801561142e57600080fd5b505af1158015611442573d6000803e3d6000fd5b505050506107866001600355565b611458611c16565b61077c8161209e565b600154600160a81b900460ff1615808015611487575060018054600160a01b900460ff16105b806114a75750303b1580156114a7575060018054600160a01b900460ff16145b61150a5760405162461bcd60e51b815260206004820152602e60248201527f496e697469616c697a61626c653a20636f6e747261637420697320616c72656160448201526d191e481a5b9a5d1a585b1a5e995960921b6064820152608401610642565b6001805460ff60a01b1916600160a01b1790558015611537576001805460ff60a81b1916600160a81b1790555b6001600160a01b03841661155d5760405162461bcd60e51b815260040161064290613cf7565b6001600160a01b0383166115835760405162461bcd60e51b815260040161064290613cf7565b6001600160a01b0382166115a95760405162461bcd60e51b815260040161064290613cf7565b6115b284612217565b600980546001600160a01b038086166001600160a01b031990921691909117909155600a80546001600160a81b03191691841691909117600160a01b1790558015610aa9576001805460ff60a81b191681556040519081527f7f26b83ff96e1f2b6a682f133852f6798a09c465da95921460cefb38474024989060200160405180910390a150505050565b80516001600160a01b031633146116665760405162461bcd60e51b815260040161064290613ac3565b611671600733611dae565b61168d5760405162461bcd60e51b815260040161064290613809565b60a080820151606080820151602085015191850151610120840151865160c08601519686015160e08701516001600160a01b03909516977fc1a292b7363ad930d02501a9224823f3fc6d6433978aa670da66b24004eaac719794959394929390926116f79061223a565b8a6060015161170757600061171b565b60a08b015161010001516001600160801b03165b8b6060015161172b57600061173f565b60a08c015161016001516001600160801b03165b8c606001516117605760a08d015161016001516001600160801b0316611763565b60005b60a08e01516080015165ffffffffffff1615158e6040516112bd9d9c9b9a99989796959493929190613e8d565b6000805160206141778339815191526117a881611ef5565b6001600160a01b0382166117e75760405162461bcd60e51b8152600401610642906020808252600490820152637a65726f60e01b604082015260600190565b336117f3600782611dae565b61180f5760405162461bcd60e51b815260040161064290613809565b61187c816001600160a01b031663ac0b05a66040518163ffffffff1660e01b8152600401602060405180830381865afa158015611850573d6000803e3d6000fd5b505050506040513d601f19601f820116820180604052508101906118749190613859565b6005906122b2565b506000816001600160a01b031663ac0b05a66040518163ffffffff1660e01b8152600401602060405180830381865afa1580156118bd573d6000803e3d6000fd5b505050506040513d601f19601f820116820180604052508101906118e19190613859565b90506118ee6005826122b2565b506118fa6005856122c7565b61190357600080fd5b506001600160a01b0390811660009081526004602052604090208054919093166001600160a01b03199091161790915550565b60008281526020819052604090206001015461195181611ef5565b610c538383612039565b60008051602061417783398151915261197381611ef5565b6000826001600160a01b031663ac0b05a66040518163ffffffff1660e01b8152600401602060405180830381865afa1580156119b3573d6000803e3d6000fd5b505050506040513d601f19601f820116820180604052508101906119d79190613859565b90506119e46007846122b2565b506119f06005826122b2565b5050506001600160a01b0316600090815260046020526040902080546001600160a01b0319169055565b6000805160206141778339815191526000611a358133611334565b90508015611a92576201518060025442611a4f9190613f47565b10611a8d5760405162461bcd60e51b815260206004820152600e60248201526d1858c81d1a5b59481c185cdcd95960921b6044820152606401610642565b611a9c565b611a9c82336122dc565b6001600160a01b038416611aaf57600080fd5b6000846001600160a01b031663ac0b05a66040518163ffffffff1660e01b8152600401602060405180830381865afa158015611aef573d6000803e3d6000fd5b505050506040513d601f19601f82011682018060405250810190611b139190613859565b9050611b206007866122c7565b611b2957600080fd5b611b346005826122c7565b611b3d57600080fd5b6001600160a01b03948516600090815260046020526040902080546001600160a01b0319169190951617909355505050565b6060611b7b6007611bf6565b905090565b611b88611f83565b6001600160a01b038116611bed5760405162461bcd60e51b815260206004820152602660248201527f4f776e61626c653a206e6577206f776e657220697320746865207a65726f206160448201526564647265737360d01b6064820152608401610642565b61078681611fdd565b60606000611c0383612335565b9392505050565b6000611c038383612391565b600260035403611c685760405162461bcd60e51b815260206004820152601f60248201527f5265656e7472616e637947756172643a207265656e7472616e742063616c6c006044820152606401610642565b6002600355565b611c77612bd3565b6060820151611c879082906123bb565b611c928160016123e8565b60e0820151611ca2908290612421565b81516001600160a01b0316815260208083015115159082015260016080820152611cca612c17565b60608301511515600003611cf057611ceb611ce484612439565b8290612476565b611d27565b610180830151611d01908390612494565b611d14611d0d846124ac565b82906124ea565b611d27611d2084612509565b8290612539565b611d35836101800151612558565b6001600160801b031660a08083019190915260808401516001600160a01b03166060830152830151611d6690612558565b6001600160801b031660c080830191909152830151611d8490612558565b6001600160801b031660e082015261016083015161018082015260a08201819052610c538261209e565b6001600160a01b03811660009081526001830160205260408120541515611c03565b60808101516000906001600160a01b0316611ded57506000919050565b506001919050565b600080836001600160a01b031663313ce5676040518163ffffffff1660e01b8152600401602060405180830381865afa158015611e36573d6000803e3d6000fd5b505050506040513d601f19601f82011682018060405250810190611e5a91906139e1565b9050611e6683826125c1565b949350505050565b604080516001600160a01b0385811660248301528416604482015260648082018490528251808303909101815260849091019091526020810180516001600160e01b03166323b872dd60e01b179052610aa99085906125dd565b6000611ed582600a61403e565b611ee16012600a61404d565b611eeb9085614059565b611c039190614070565b61078681336122dc565b611f098282611334565b611318576000828152602081815260408083206001600160a01b03851684529091529020805460ff19166001179055611f3f3390565b6001600160a01b0316816001600160a01b0316837f2f8788117e7eff1d82e926ec794901d17c78024a50270940304540a733656f0d60405160405180910390a45050565b6001546001600160a01b031633146111f25760405162461bcd60e51b815260206004820181905260248201527f4f776e61626c653a2063616c6c6572206973206e6f7420746865206f776e65726044820152606401610642565b600180546001600160a01b038381166001600160a01b0319831681179093556040519116919082907f8be0079c531659141344cd1fd0a4f28419497f9722a3daafe3b4186f6b6457e090600090a35050565b6113188282611eff565b6120438282611334565b15611318576000828152602081815260408083206001600160a01b0385168085529252808320805460ff1916905551339285917ff6391f5c32d9c69d2a47ea670b442974b53935d1edc7fd64eb21e047a839171b9190a45050565b80516120ac90600790611dae565b6120c85760405162461bcd60e51b815260040161064290613809565b6120d1816126b2565b6120ed5760405162461bcd60e51b815260040161064290613831565b60a0810151336060918201528101516121159061210983612728565b60a08401519190612754565b80606001518015612127575080608001515b156121b357600081600001516001600160a01b031663b2016bd46040518163ffffffff1660e01b8152600401602060405180830381865afa158015612170573d6000803e3d6000fd5b505050506040513d601f19601f820116820180604052508101906121949190613859565b90506121b13383600001516106f7846121ac87612793565b611df5565b505b805160405163160717d760e31b81526001600160a01b039091169063b038beb8906121e2908490600401614092565b600060405180830381600087803b1580156121fc57600080fd5b505af1158015612210573d6000803e3d6000fd5b5050505050565b4260025561222433611fdd565b61222f60003361202f565b61078660008261202f565b6000816040015160ff1660010361225357506001919050565b816040015160ff1660020361226a57506000919050565b60405162461bcd60e51b815260206004820152601b60248201527f696e76616c6964206f7264657220747269676765722061626f766500000000006044820152606401610642565b6000611c03836001600160a01b0384166127c1565b6000611c03836001600160a01b0384166128b4565b6122e68282611334565b611318576122f381612903565b6122fe836020612915565b60405160200161230f9291906140a5565b60408051601f198184030181529082905262461bcd60e51b82526106429160040161411a565b60608160000180548060200260200160405190810160405280929190818152602001828054801561238557602002820191906000526020600020905b815481526020019060010190808311612371575b50505050509050919050565b60008260000182815481106123a8576123a8613bb0565b9060005260206000200154905092915050565b60408051600380825260808201909252906020820160608036833750505060c08301521515606090910152565b806123f45760006123f7565b60015b60ff168260c0015160018151811061241157612411613bb0565b6020026020010181815250505050565b808260c0015160028151811061241157612411613bb0565b60006001826101c00151511015801561051757506000826101c0015160008151811061246757612467613bb0565b60200260200101511192915050565b80612482576000612485565b60015b60ff1660809092019190915250565b808260c0015160008151811061241157612411613bb0565b60006001826101c001515110156124c4576000610517565b816101c001516000815181106124dc576124dc613bb0565b602002602001015192915050565b6124f381612558565b6001600160801b03166101009092019190915250565b60006002826101c00151511015612521576000610517565b816101c001516001815181106124dc576124dc613bb0565b61254281612558565b6001600160801b03166101609092019190915250565b60006001600160801b03821115610b5b5760405162461bcd60e51b815260206004820152602760248201527f53616665436173743a2076616c756520646f65736e27742066697420696e20316044820152663238206269747360c81b6064820152608401610642565b60006125cf6012600a61403e565b611ee160ff8416600a61404d565b6000612632826040518060400160405280602081526020017f5361666545524332303a206c6f772d6c6576656c2063616c6c206661696c6564815250856001600160a01b0316612ab09092919063ffffffff16565b90508051600014806126535750808060200190518101906126539190613a7e565b610c535760405162461bcd60e51b815260206004820152602a60248201527f5361666545524332303a204552433230206f7065726174696f6e20646964206e6044820152691bdd081cdd58d8d9595960b21b6064820152608401610642565b6040810151600090156126c757506000919050565b60608201511515600003611ded57816080015115611ded5760006126fa8360a0015161016001516001600160801b031690565b111561270857506000919050565b60a082015161014001516001600160401b031615611ded57506000919050565b600060028260c001515110158015610517575060008260c0015160018151811061246757612467613bb0565b81156127765780612766576000612769565b60015b60ff166080840152505050565b80612782576000612785565b60015b60ff16610100840152505050565b600060018260c001515110156127aa576000610517565b8160c001516000815181106124dc576124dc613bb0565b600081815260018301602052604081205480156128aa5760006127e5600183613f47565b85549091506000906127f990600190613f47565b905081811461285e57600086600001828154811061281957612819613bb0565b906000526020600020015490508087600001848154811061283c5761283c613bb0565b6000918252602080832090910192909255918252600188019052604090208390555b855486908061286f5761286f61412d565b600190038181906000526020600020016000905590558560010160008681526020019081526020016000206000905560019350505050610517565b6000915050610517565b60008181526001830160205260408120546128fb57508154600181810184556000848152602080822090930184905584548482528286019093526040902091909155610517565b506000610517565b60606105176001600160a01b03831660145b60606000612924836002614059565b61292f9060026137dd565b6001600160401b0381111561294657612946612cad565b6040519080825280601f01601f191660200182016040528015612970576020820181803683370190505b509050600360fc1b8160008151811061298b5761298b613bb0565b60200101906001600160f81b031916908160001a905350600f60fb1b816001815181106129ba576129ba613bb0565b60200101906001600160f81b031916908160001a90535060006129de846002614059565b6129e99060016137dd565b90505b6001811115612a61576f181899199a1a9b1b9c1cb0b131b232b360811b85600f1660108110612a1d57612a1d613bb0565b1a60f81b828281518110612a3357612a33613bb0565b60200101906001600160f81b031916908160001a90535060049490941c93612a5a81614143565b90506129ec565b508315611c035760405162461bcd60e51b815260206004820181905260248201527f537472696e67733a20686578206c656e67746820696e73756666696369656e746044820152606401610642565b6060611e66848460008585600080866001600160a01b03168587604051612ad7919061415a565b60006040518083038185875af1925050503d8060008114612b14576040519150601f19603f3d011682016040523d82523d6000602084013e612b19565b606091505b5091509150612b2a87838387612b35565b979650505050505050565b60608315612ba4578251600003612b9d576001600160a01b0385163b612b9d5760405162461bcd60e51b815260206004820152601d60248201527f416464726573733a2063616c6c20746f206e6f6e2d636f6e74726163740000006044820152606401610642565b5081611e66565b611e668383815115612bb95781518083602001fd5b8060405162461bcd60e51b8152600401610642919061411a565b6040805160e08101825260008082526020820181905291810182905260608101829052608081019190915260a08101612c0a612c17565b8152602001606081525090565b604080516101a081018252600080825260208201819052918101829052606081018290526080810182905260a0810182905260c0810182905260e08101829052610100810182905261012081018290526101408101829052610160810182905261018081019190915290565b600060208284031215612c9557600080fd5b81356001600160e01b031981168114611c0357600080fd5b634e487b7160e01b600052604160045260246000fd5b6040516101e081016001600160401b0381118282101715612ce657612ce6612cad565b60405290565b60405161018081016001600160401b0381118282101715612ce657612ce6612cad565b60405160c081016001600160401b0381118282101715612ce657612ce6612cad565b6040516101a081016001600160401b0381118282101715612ce657612ce6612cad565b60405160a081016001600160401b0381118282101715612ce657612ce6612cad565b60405160e081016001600160401b0381118282101715612ce657612ce6612cad565b604051601f8201601f191681016001600160401b0381118282101715612dc057612dc0612cad565b604052919050565b6001600160a01b038116811461078657600080fd5b8035612de881612dc8565b919050565b801515811461078657600080fd5b8035612de881612ded565b60ff8116811461078657600080fd5b8035612de881612e06565b80356001600160401b0381168114612de857600080fd5b60006001600160401b03821115612e5057612e50612cad565b5060051b60200190565b600082601f830112612e6b57600080fd5b81356020612e80612e7b83612e37565b612d98565b82815260059290921b84018101918181019086841115612e9f57600080fd5b8286015b84811015612eba5780358352918301918301612ea3565b509695505050505050565b60006101e08284031215612ed857600080fd5b612ee0612cc3565b9050612eeb82612ddd565b8152612ef960208301612dfb565b602082015260408201356040820152612f1460608301612dfb565b6060820152612f2560808301612ddd565b608082015260a082013560a082015260c082013560c082015260e082013560e0820152610100612f56818401612dfb565b90820152610120612f68838201612e15565b90820152610140612f7a838201612e20565b90820152610160828101359082015261018080830135908201526101a0612fa2818401612e15565b908201526101c0828101356001600160401b03811115612fc157600080fd5b612fcd85828601612e5a565b82840152505092915050565b600060208284031215612feb57600080fd5b81356001600160401b0381111561300157600080fd5b611e6684828501612ec5565b60006020828403121561301f57600080fd5b5035919050565b60006020828403121561303857600080fd5b8135611c0381612dc8565b6000806040838503121561305657600080fd5b82359150602083013561306881612dc8565b809150509250929050565b803563ffffffff81168114612de857600080fd5b80356001600160d81b0381168114612de857600080fd5b600061018082840312156130b157600080fd5b6130b9612cec565b90506130c482612ddd565b81526130d260208301612dfb565b60208201526130e360408301613073565b60408201526130f460608301613087565b60608201526080820135608082015260a082013560a082015260c082013560c082015260e082013560e082015261010080830135818301525061012080830135818301525061014080830135818301525061016080830135818301525092915050565b60006020828403121561316957600080fd5b81356001600160401b038082111561318057600080fd5b90830190610220828603121561319557600080fd5b61319d612d0f565b8235828111156131ac57600080fd5b6131b887828601612ec5565b8252506131c8866020850161309e565b60208201526101a0830135828111156131e057600080fd5b6131ec87828601612e5a565b6040830152506131ff6101c08401612ddd565b60608201526132116101e08401612ddd565b6080820152610200929092013560a0830152509392505050565b60006020828403121561323d57600080fd5b8135611c0381612ded565b600082601f83011261325957600080fd5b81356020613269612e7b83612e37565b82815260059290921b8401810191818101908684111561328857600080fd5b8286015b84811015612eba57803561329f81612ded565b835291830191830161328c565b600080600080608085870312156132c257600080fd5b84356001600160401b03808211156132d957600080fd5b818701915087601f8301126132ed57600080fd5b813560206132fd612e7b83612e37565b82815260059290921b8401810191818101908b84111561331c57600080fd5b948201945b8386101561334357853561333481612dc8565b82529482019490820190613321565b9850508801359250508082111561335957600080fd5b61336588838901613248565b9450604087013591508082111561337b57600080fd5b61338788838901612e5a565b9350606087013591508082111561339d57600080fd5b506133aa87828801613248565b91505092959194509250565b803565ffffffffffff81168114612de857600080fd5b80356001600160801b0381168114612de857600080fd5b60006101a082840312156133f657600080fd5b6133fe612d31565b905061340982612e15565b815261341760208301613073565b602082015261342860408301612e15565b604082015261343960608301612ddd565b606082015261344a608083016133b6565b608082015261345b60a083016133cc565b60a082015261346c60c083016133cc565b60c082015261347d60e083016133cc565b60e08201526101006134908184016133cc565b908201526101206134a2838201612e20565b908201526101406134b4838201612e20565b908201526101606134c68382016133cc565b818301525061018080830135818301525092915050565b600082601f8301126134ee57600080fd5b81356001600160401b0381111561350757613507612cad565b61351a601f8201601f1916602001612d98565b81815284602083860101111561352f57600080fd5b816020850160208301376000918101602001919091529392505050565b60006020828403121561355e57600080fd5b81356001600160401b038082111561357557600080fd5b90830190610220828603121561358a57600080fd5b613592612d54565b61359c86846133e3565b81526101a0830135828111156135b157600080fd5b6135bd87828601612ec5565b6020830152506135d06101c08401612e15565b60408201526101e0830135828111156135e857600080fd5b6135f4878286016134dd565b60608301525061020092909201356080830152509392505050565b60006020828403121561362157600080fd5b81356001600160401b038082111561363857600080fd5b90830190610260828603121561364d57600080fd5b613655612d76565b61365e83612ddd565b815261366c60208401612dfb565b60208201526040830135604082015261368760608401612dfb565b606082015261369860808401612dfb565b60808201526136aa8660a085016133e3565b60a0820152610240830135828111156136c257600080fd5b6136ce87828601612e5a565b60c08301525095945050505050565b6000806000606084860312156136f257600080fd5b83356136fd81612dc8565b9250602084013561370d81612dc8565b9150604084013561371d81612dc8565b809150509250925092565b6000806040838503121561373b57600080fd5b823561374681612dc8565b9150602083013561306881612dc8565b6020808252825182820181905260009190848201906040850190845b818110156137975783516001600160a01b031683529284019291840191600101613772565b50909695505050505050565b600080604083850312156137b657600080fd5b505080516020909101519092909150565b634e487b7160e01b600052601160045260246000fd5b80820180821115610517576105176137c7565b600060018201613802576138026137c7565b5060010190565b6020808252600e908201526d1a5b9d985b1a59081b585c9ad95d60921b604082015260600190565b6020808252600e908201526d696e76616c696420706172616d7360901b604082015260600190565b60006020828403121561386b57600080fd5b8151611c0381612dc8565b600081518084526020808501945080840160005b838110156138a65781518752958201959082019060010161388a565b509495945050505050565b602081526138cb6020820183516001600160a01b03169052565b600060208301516138e0604084018215159052565b506040830151606083015260608301516138fe608084018215159052565b5060808301516001600160a01b03811660a08401525060a083015160c083015260c083015160e083015260e083015161010081818501528085015191505061012061394c8185018315159052565b84015190506101406139628482018360ff169052565b840151905061016061397e848201836001600160401b03169052565b840151610180848101919091528401516101a08085019190915284015190506101c06139ae8185018360ff169052565b8401516101e0848101529050611e66610200840182613876565b6000602082840312156139da57600080fd5b5051919050565b6000602082840312156139f357600080fd5b8151611c0381612e06565b81516001600160a01b031681526101408101602083015160208301526040830151613a2d604084018215159052565b50606083015160608301526080830151608083015260a083015160a083015260c083015160c083015260e083015160e083015261010080840151818401525061012080840151818401525092915050565b600060208284031215613a9057600080fd5b8151611c0381612ded565b8082018281126000831280158216821582161715613abb57613abb6137c7565b505092915050565b6020808252600e908201526d34b73b30b634b21039b2b73232b960911b604082015260600190565b60006101808083018f845260208f818601528e60408601528d151560608601528c60808601528b60a08601528260c08601528192508a518083526101a086019350818c01925060005b81811015613b5057835185529382019392820192600101613b34565b5050506001600160a01b03891660e08501525090506001600160a01b0386166101008301526001600160a01b03851661012083015260ff84166101408301526001600160401b0383166101608301529d9c50505050505050505050505050565b634e487b7160e01b600052603260045260246000fd5b600081518084526020808501945080840160005b838110156138a6578151151587529582019590820190600101613bda565b6001600160a01b0385168152608060208201819052600090613c1c90830186613bc6565b8281036040840152613c2e8186613876565b90508281036060840152612b2a8185613bc6565b60005b83811015613c5d578181015183820152602001613c45565b50506000910152565b60008151808452613c7e816020860160208601613c42565b601f01601f19169290920160200192915050565b881515815287151560208201526001600160401b03871660408201526001600160a01b038616606082015260ff8516608082015261010060a08201819052600090613cdf83820187613c66565b60c0840195909552505060e001529695505050505050565b6020808252600d908201526c217a65726f206164647265737360981b604082015260600190565b600061026060018060a01b0383511684526020830151151560208501526040830151604085015260608301511515606085015260808301511515608085015260a0830151613d7260a08601825160ff169052565b602081015163ffffffff1660c0860152604081015160ff1660e086015260608101516001600160a01b0381166101008088019190915260808301519150610120613dc58189018465ffffffffffff169052565b60a08401519250610140613de3818a01856001600160801b03169052565b60c08501519350610160613e01818b01866001600160801b03169052565b60e08601519450610180613e1f818c01876001600160801b03169052565b938601516001600160801b039081166101a08c0152928601516001600160401b039081166101c08c0152918601519091166101e08a015284015116610200880152909101516102208601525060c08301516102408501829052613e8482860182613876565b95945050505050565b8d151581528c151560208201526001600160401b038c1660408201526001600160a01b038b16606082015260006101a06001600160801b038c1660808401526001600160801b038b1660a08401526001600160801b038a1660c084015288151560e08401528761010084015286610120840152613f166101408401876001600160801b03169052565b84151561016084015280610180840152613f3281840185613d1e565b9150509e9d5050505050505050505050505050565b81810381811115610517576105176137c7565b600181815b80851115613f95578160001904821115613f7b57613f7b6137c7565b80851615613f8857918102915b93841c9390800290613f5f565b509250929050565b600082613fac57506001610517565b81613fb957506000610517565b8160018114613fcf5760028114613fd957613ff5565b6001915050610517565b60ff841115613fea57613fea6137c7565b50506001821b610517565b5060208310610133831016604e8410600b8410161715614018575081810a610517565b6140228383613f5a565b8060001904821115614036576140366137c7565b029392505050565b6000611c0360ff841683613f9d565b6000611c038383613f9d565b8082028115828204841417610517576105176137c7565b60008261408d57634e487b7160e01b600052601260045260246000fd5b500490565b602081526000611c036020830184613d1e565b7f416363657373436f6e74726f6c3a206163636f756e74200000000000000000008152600083516140dd816017850160208801613c42565b7001034b99036b4b9b9b4b733903937b6329607d1b601791840191820152835161410e816028840160208801613c42565b01602801949350505050565b602081526000611c036020830184613c66565b634e487b7160e01b600052603160045260246000fd5b600081614152576141526137c7565b506000190190565b6000825161416c818460208701613c42565b919091019291505056fe8d1089725c0dc266707fa6207730fb801dcd03108bfed7a21099bd303651d2b7a26469706673582212206a0c346504c495a1ed23c2ff4036a0933d572d398cd0c6fa035f40493475bf7964736f6c63430008110033",
    "linkReferences": {}
  },
  "methodIdentifiers": {
    "DEFAULT_ADMIN_ROLE()": "a217fddf",
    "addMarket(address,address)": "de1f4430",
    "cancelOrderList(address[],bool[],uint256[],bool[])": "544781af",
    "decreasePosition((address,bool,uint256,bool,address,uint256,uint256,uint256,bool,uint8,uint64,bytes32,uint256,uint8,uint256[]))": "abed9618",
    "deleteOrderCallback(((uint8,uint32,uint8,address,uint48,uint128,uint128,uint128,uint128,uint64,uint64,uint128,bytes32),(address,bool,uint256,bool,address,uint256,uint256,uint256,bool,uint8,uint64,bytes32,uint256,uint8,uint256[]),uint8,string,int256))": "718cb58a",
    "getAccountSize(address)": "2ca6d2c0",
    "getGlobalPNL()": "2073b0ce",
    "getGlobalSize()": "0799f55f",
    "getHooksCalls()": "612c39b7",
    "getMarkets()": "ec2c9016",
    "getRoleAdmin(bytes32)": "248a9ca3",
    "grantControllerRoleByMarketManager(address)": "7fe4a698",
    "grantRole(bytes32,address)": "2f2ff15d",
    "gv()": "8b4400f2",
    "hasRole(bytes32,address)": "91d14854",
    "increasePosition((address,bool,uint256,bool,address,uint256,uint256,uint256,bool,uint8,uint64,bytes32,uint256,uint8,uint256[]))": "0d918caa",
    "initialize(address,address,address)": "c0c53b8b",
    "isEnableMarketConvertToOrder()": "332013a7",
    "owner()": "8da5cb5b",
    "removeMarket(address)": "db913236",
    "renounceOwnership()": "715018a6",
    "renounceRole(bytes32,address)": "36568abe",
    "revokeRole(bytes32,address)": "d547741f",
    "setIsEnableMarketConvertToOrder(bool)": "4463b5bc",
    "supportsInterface(bytes4)": "01ffc9a7",
    "transferAdmin(address)": "75829def",
    "transferOwnership(address)": "f2fde38b",
    "updateOrder((address,bool,uint256,bool,bool,(uint8,uint32,uint8,address,uint48,uint128,uint128,uint128,uint128,uint64,uint64,uint128,bytes32),uint256[]))": "b038beb8",
    "updateOrderCallback((address,bool,uint256,bool,bool,(uint8,uint32,uint8,address,uint48,uint128,uint128,uint128,uint128,uint64,uint64,uint128,bytes32),uint256[]))": "cce9a2f3",
    "updatePositionBook(address)": "cd6ebf66",
    "updatePositionCallback(((address,bool,uint256,bool,address,uint256,uint256,uint256,bool,uint8,uint64,bytes32,uint256,uint8,uint256[]),(address,bool,uint32,uint216,uint256,uint256,uint256,int256,int256,uint256,uint256,uint256),int256[],address,address,int256))": "40a542fe",
    "validateIncreasePosition((address,bool,uint256,bool,address,uint256,uint256,uint256,bool,uint8,uint64,bytes32,uint256,uint8,uint256[]))": "1cfe5828",
    "vaultRouter()": "d37c441c"
  },
  "id": 15
}