{
  "abi": [
    {
      "inputs": [
        {
          "internalType": "string",
          "name": "_name",
          "type": "string"
        },
        {
          "internalType": "string",
          "name": "_symbol",
          "type": "string"
        },
        {
          "internalType": "uint256",
          "name": "_initialSupply",
          "type": "uint256"
        }
      ],
      "stateMutability": "nonpayable",
      "type": "constructor"
    },
    {
      "anonymous": false,
      "inputs": [
        {
          "indexed": true,
          "internalType": "address",
          "name": "owner",
          "type": "address"
        },
        {
          "indexed": true,
          "internalType": "address",
          "name": "spender",
          "type": "address"
        },
        {
          "indexed": false,
          "internalType": "uint256",
          "name": "value",
          "type": "uint256"
        }
      ],
      "name": "Approval",
      "type": "event"
    },
    {
      "anonymous": false,
      "inputs": [
        {
          "indexed": false,
          "internalType": "uint8",
          "name": "version",
          "type": "uint8"
        }
      ],
      "name": "Initialized",
      "type": "event"
    },
    {
      "anonymous": false,
      "inputs": [
        {
          "indexed": true,
          "internalType": "address",
          "name": "previousOwner",
          "type": "address"
        },
        {
          "indexed": true,
          "internalType": "address",
          "name": "newOwner",
          "type": "address"
        }
      ],
      "name": "OwnershipTransferred",
      "type": "event"
    },
    {
      "anonymous": false,
      "inputs": [
        {
          "indexed": true,
          "internalType": "bytes32",
          "name": "role",
          "type": "bytes32"
        },
        {
          "indexed": true,
          "internalType": "bytes32",
          "name": "previousAdminRole",
          "type": "bytes32"
        },
        {
          "indexed": true,
          "internalType": "bytes32",
          "name": "newAdminRole",
          "type": "bytes32"
        }
      ],
      "name": "RoleAdminChanged",
      "type": "event"
    },
    {
      "anonymous": false,
      "inputs": [
        {
          "indexed": true,
          "internalType": "bytes32",
          "name": "role",
          "type": "bytes32"
        },
        {
          "indexed": true,
          "internalType": "address",
          "name": "account",
          "type": "address"
        },
        {
          "indexed": true,
          "internalType": "address",
          "name": "sender",
          "type": "address"
        }
      ],
      "name": "RoleGranted",
      "type": "event"
    },
    {
      "anonymous": false,
      "inputs": [
        {
          "indexed": true,
          "internalType": "bytes32",
          "name": "role",
          "type": "bytes32"
        },
        {
          "indexed": true,
          "internalType": "address",
          "name": "account",
          "type": "address"
        },
        {
          "indexed": true,
          "internalType": "address",
          "name": "sender",
          "type": "address"
        }
      ],
      "name": "RoleRevoked",
      "type": "event"
    },
    {
      "anonymous": false,
      "inputs": [
        {
          "indexed": true,
          "internalType": "address",
          "name": "from",
          "type": "address"
        },
        {
          "indexed": true,
          "internalType": "address",
          "name": "to",
          "type": "address"
        },
        {
          "indexed": false,
          "internalType": "uint256",
          "name": "value",
          "type": "uint256"
        }
      ],
      "name": "Transfer",
      "type": "event"
    },
    {
      "inputs": [],
      "name": "DEFAULT_ADMIN_ROLE",
      "outputs": [
        {
          "internalType": "bytes32",
          "name": "",
          "type": "bytes32"
        }
      ],
      "stateMutability": "view",
      "type": "function"
    },
    {
      "inputs": [
        {
          "internalType": "address",
          "name": "_account",
          "type": "address"
        }
      ],
      "name": "addAdmin",
      "outputs": [],
      "stateMutability": "nonpayable",
      "type": "function"
    },
    {
      "inputs": [
        {
          "internalType": "address",
          "name": "_account",
          "type": "address"
        }
      ],
      "name": "addNonStakingAccount",
      "outputs": [],
      "stateMutability": "nonpayable",
      "type": "function"
    },
    {
      "inputs": [
        {
          "internalType": "address",
          "name": "",
          "type": "address"
        }
      ],
      "name": "admins",
      "outputs": [
        {
          "internalType": "bool",
          "name": "",
          "type": "bool"
        }
      ],
      "stateMutability": "view",
      "type": "function"
    },
    {
      "inputs": [
        {
          "internalType": "address",
          "name": "_owner",
          "type": "address"
        },
        {
          "internalType": "address",
          "name": "_spender",
          "type": "address"
        }
      ],
      "name": "allowance",
      "outputs": [
        {
          "internalType": "uint256",
          "name": "",
          "type": "uint256"
        }
      ],
      "stateMutability": "view",
      "type": "function"
    },
    {
      "inputs": [
        {
          "internalType": "address",
          "name": "",
          "type": "address"
        },
        {
          "internalType": "address",
          "name": "",
          "type": "address"
        }
      ],
      "name": "allowances",
      "outputs": [
        {
          "internalType": "uint256",
          "name": "",
          "type": "uint256"
        }
      ],
      "stateMutability": "view",
      "type": "function"
    },
    {
      "inputs": [
        {
          "internalType": "address",
          "name": "_spender",
          "type": "address"
        },
        {
          "internalType": "uint256",
          "name": "_amount",
          "type": "uint256"
        }
      ],
      "name": "approve",
      "outputs": [
        {
          "internalType": "bool",
          "name": "",
          "type": "bool"
        }
      ],
      "stateMutability": "nonpayable",
      "type": "function"
    },
    {
      "inputs": [
        {
          "internalType": "address",
          "name": "_account",
          "type": "address"
        }
      ],
      "name": "balanceOf",
      "outputs": [
        {
          "internalType": "uint256",
          "name": "",
          "type": "uint256"
        }
      ],
      "stateMutability": "view",
      "type": "function"
    },
    {
      "inputs": [
        {
          "internalType": "address",
          "name": "",
          "type": "address"
        }
      ],
      "name": "balances",
      "outputs": [
        {
          "internalType": "uint256",
          "name": "",
          "type": "uint256"
        }
      ],
      "stateMutability": "view",
      "type": "function"
    },
    {
      "inputs": [
        {
          "internalType": "address",
          "name": "_receiver",
          "type": "address"
        }
      ],
      "name": "claim",
      "outputs": [],
      "stateMutability": "nonpayable",
      "type": "function"
    },
    {
      "inputs": [],
      "name": "decimals",
      "outputs": [
        {
          "internalType": "uint8",
          "name": "",
          "type": "uint8"
        }
      ],
      "stateMutability": "view",
      "type": "function"
    },
    {
      "inputs": [
        {
          "internalType": "bytes32",
          "name": "role",
          "type": "bytes32"
        }
      ],
      "name": "getRoleAdmin",
      "outputs": [
        {
          "internalType": "bytes32",
          "name": "",
          "type": "bytes32"
        }
      ],
      "stateMutability": "view",
      "type": "function"
    },
    {
      "inputs": [
        {
          "internalType": "address",
          "name": "_account",
          "type": "address"
        }
      ],
      "name": "grantControllerRoleByMarketManager",
      "outputs": [],
      "stateMutability": "nonpayable",
      "type": "function"
    },
    {
      "inputs": [
        {
          "internalType": "bytes32",
          "name": "role",
          "type": "bytes32"
        },
        {
          "internalType": "address",
          "name": "account",
          "type": "address"
        }
      ],
      "name": "grantRole",
      "outputs": [],
      "stateMutability": "nonpayable",
      "type": "function"
    },
    {
      "inputs": [
        {
          "internalType": "bytes32",
          "name": "role",
          "type": "bytes32"
        },
        {
          "internalType": "address",
          "name": "account",
          "type": "address"
        }
      ],
      "name": "hasRole",
      "outputs": [
        {
          "internalType": "bool",
          "name": "",
          "type": "bool"
        }
      ],
      "stateMutability": "view",
      "type": "function"
    },
    {
      "inputs": [],
      "name": "inPrivateTransferMode",
      "outputs": [
        {
          "internalType": "bool",
          "name": "",
          "type": "bool"
        }
      ],
      "stateMutability": "view",
      "type": "function"
    },
    {
      "inputs": [
        {
          "internalType": "address",
          "name": "",
          "type": "address"
        }
      ],
      "name": "isHandler",
      "outputs": [
        {
          "internalType": "bool",
          "name": "",
          "type": "bool"
        }
      ],
      "stateMutability": "view",
      "type": "function"
    },
    {
      "inputs": [],
      "name": "name",
      "outputs": [
        {
          "internalType": "string",
          "name": "",
          "type": "string"
        }
      ],
      "stateMutability": "view",
      "type": "function"
    },
    {
      "inputs": [
        {
          "internalType": "address",
          "name": "",
          "type": "address"
        }
      ],
      "name": "nonStakingAccounts",
      "outputs": [
        {
          "internalType": "bool",
          "name": "",
          "type": "bool"
        }
      ],
      "stateMutability": "view",
      "type": "function"
    },
    {
      "inputs": [],
      "name": "nonStakingSupply",
      "outputs": [
        {
          "internalType": "uint256",
          "name": "",
          "type": "uint256"
        }
      ],
      "stateMutability": "view",
      "type": "function"
    },
    {
      "inputs": [],
      "name": "owner",
      "outputs": [
        {
          "internalType": "address",
          "name": "",
          "type": "address"
        }
      ],
      "stateMutability": "view",
      "type": "function"
    },
    {
      "inputs": [
        {
          "internalType": "address",
          "name": "_account",
          "type": "address"
        },
        {
          "internalType": "address",
          "name": "_receiver",
          "type": "address"
        }
      ],
      "name": "recoverClaim",
      "outputs": [],
      "stateMutability": "nonpayable",
      "type": "function"
    },
    {
      "inputs": [
        {
          "internalType": "address",
          "name": "_account",
          "type": "address"
        }
      ],
      "name": "removeAdmin",
      "outputs": [],
      "stateMutability": "nonpayable",
      "type": "function"
    },
    {
      "inputs": [
        {
          "internalType": "address",
          "name": "_account",
          "type": "address"
        }
      ],
      "name": "removeNonStakingAccount",
      "outputs": [],
      "stateMutability": "nonpayable",
      "type": "function"
    },
    {
      "inputs": [],
      "name": "renounceOwnership",
      "outputs": [],
      "stateMutability": "nonpayable",
      "type": "function"
    },
    {
      "inputs": [
        {
          "internalType": "bytes32",
          "name": "",
          "type": "bytes32"
        },
        {
          "internalType": "address",
          "name": "",
          "type": "address"
        }
      ],
      "name": "renounceRole",
      "outputs": [],
      "stateMutability": "nonpayable",
      "type": "function"
    },
    {
      "inputs": [
        {
          "internalType": "bytes32",
          "name": "role",
          "type": "bytes32"
        },
        {
          "internalType": "address",
          "name": "account",
          "type": "address"
        }
      ],
      "name": "revokeRole",
      "outputs": [],
      "stateMutability": "nonpayable",
      "type": "function"
    },
    {
      "inputs": [
        {
          "internalType": "address",
          "name": "_handler",
          "type": "address"
        },
        {
          "internalType": "bool",
          "name": "_isActive",
          "type": "bool"
        }
      ],
      "name": "setHandler",
      "outputs": [],
      "stateMutability": "nonpayable",
      "type": "function"
    },
    {
      "inputs": [
        {
          "internalType": "bool",
          "name": "_inPrivateTransferMode",
          "type": "bool"
        }
      ],
      "name": "setInPrivateTransferMode",
      "outputs": [],
      "stateMutability": "nonpayable",
      "type": "function"
    },
    {
      "inputs": [
        {
          "internalType": "string",
          "name": "_name",
          "type": "string"
        },
        {
          "internalType": "string",
          "name": "_symbol",
          "type": "string"
        }
      ],
      "name": "setInfo",
      "outputs": [],
      "stateMutability": "nonpayable",
      "type": "function"
    },
    {
      "inputs": [
        {
          "internalType": "address[]",
          "name": "_yieldTrackers",
          "type": "address[]"
        }
      ],
      "name": "setYieldTrackers",
      "outputs": [],
      "stateMutability": "nonpayable",
      "type": "function"
    },
    {
      "inputs": [
        {
          "internalType": "address",
          "name": "_account",
          "type": "address"
        }
      ],
      "name": "stakedBalance",
      "outputs": [
        {
          "internalType": "uint256",
          "name": "",
          "type": "uint256"
        }
      ],
      "stateMutability": "view",
      "type": "function"
    },
    {
      "inputs": [
        {
          "internalType": "bytes4",
          "name": "interfaceId",
          "type": "bytes4"
        }
      ],
      "name": "supportsInterface",
      "outputs": [
        {
          "internalType": "bool",
          "name": "",
          "type": "bool"
        }
      ],
      "stateMutability": "view",
      "type": "function"
    },
    {
      "inputs": [],
      "name": "symbol",
      "outputs": [
        {
          "internalType": "string",
          "name": "",
          "type": "string"
        }
      ],
      "stateMutability": "view",
      "type": "function"
    },
    {
      "inputs": [],
      "name": "totalStaked",
      "outputs": [
        {
          "internalType": "uint256",
          "name": "",
          "type": "uint256"
        }
      ],
      "stateMutability": "view",
      "type": "function"
    },
    {
      "inputs": [],
      "name": "totalSupply",
      "outputs": [
        {
          "internalType": "uint256",
          "name": "",
          "type": "uint256"
        }
      ],
      "stateMutability": "view",
      "type": "function"
    },
    {
      "inputs": [
        {
          "internalType": "address",
          "name": "_recipient",
          "type": "address"
        },
        {
          "internalType": "uint256",
          "name": "_amount",
          "type": "uint256"
        }
      ],
      "name": "transfer",
      "outputs": [
        {
          "internalType": "bool",
          "name": "",
          "type": "bool"
        }
      ],
      "stateMutability": "nonpayable",
      "type": "function"
    },
    {
      "inputs": [
        {
          "internalType": "address",
          "name": "to",
          "type": "address"
        }
      ],
      "name": "transferAdmin",
      "outputs": [],
      "stateMutability": "nonpayable",
      "type": "function"
    },
    {
      "inputs": [
        {
          "internalType": "address",
          "name": "_sender",
          "type": "address"
        },
        {
          "internalType": "address",
          "name": "_recipient",
          "type": "address"
        },
        {
          "internalType": "uint256",
          "name": "_amount",
          "type": "uint256"
        }
      ],
      "name": "transferFrom",
      "outputs": [
        {
          "internalType": "bool",
          "name": "",
          "type": "bool"
        }
      ],
      "stateMutability": "nonpayable",
      "type": "function"
    },
    {
      "inputs": [
        {
          "internalType": "address",
          "name": "newOwner",
          "type": "address"
        }
      ],
      "name": "transferOwnership",
      "outputs": [],
      "stateMutability": "nonpayable",
      "type": "function"
    },
    {
      "inputs": [
        {
          "internalType": "address",
          "name": "_token",
          "type": "address"
        },
        {
          "internalType": "address",
          "name": "_account",
          "type": "address"
        },
        {
          "internalType": "uint256",
          "name": "_amount",
          "type": "uint256"
        }
      ],
      "name": "withdrawToken",
      "outputs": [],
      "stateMutability": "nonpayable",
      "type": "function"
    },
    {
      "inputs": [
        {
          "internalType": "uint256",
          "name": "",
          "type": "uint256"
        }
      ],
      "name": "yieldTrackers",
      "outputs": [
        {
          "internalType": "address",
          "name": "",
          "type": "address"
        }
      ],
      "stateMutability": "view",
      "type": "function"
    }
  ],
  "bytecode": {
    "object": "0x60806040523480156200001157600080fd5b50604051620026dc380380620026dc83398101604081905262000034916200046d565b600062000041336200008b565b6200005781620000dd60201b62000e411760201c565b5060036200006684826200056f565b5060046200007583826200056f565b5062000082338262000109565b50505062000699565b600180546001600160a01b038381166001600160a01b0319831681179093556040519116919082907f8be0079c531659141344cd1fd0a4f28419497f9722a3daafe3b4186f6b6457e090600090a35050565b42600255620000ec336200008b565b620000f96000336200023b565b620001066000826200023b565b50565b6001600160a01b038216620001705760405162461bcd60e51b815260206004820152602360248201527f42617365546f6b656e3a206d696e7420746f20746865207a65726f206164647260448201526265737360e81b606482015260840160405180910390fd5b6200017b826200024b565b806005546200018b919062000651565b6005556001600160a01b038216600090815260076020526040902054620001b490829062000651565b6001600160a01b038316600090815260076020908152604080832093909355600a9052205460ff1615620001f65780600654620001f2919062000651565b6006555b6040518181526001600160a01b038316906000907fddf252ad1be2c89b69c2b068fc378daa952ba7f163c4a11628f55a4df523b3ef9060200160405180910390a35050565b620002478282620002f5565b5050565b60005b600954811015620002475760006009828154811062000271576200027162000667565b600091825260209091200154604051635fd6196560e01b81526001600160a01b03858116600483015290911691508190635fd6196590602401600060405180830381600087803b158015620002c557600080fd5b505af1158015620002da573d6000803e3d6000fd5b50505050508080620002ec906200067d565b9150506200024e565b6200030182826200037d565b62000247576000828152602081815260408083206001600160a01b03851684529091529020805460ff19166001179055620003393390565b6001600160a01b0316816001600160a01b0316837f2f8788117e7eff1d82e926ec794901d17c78024a50270940304540a733656f0d60405160405180910390a45050565b6000828152602081815260408083206001600160a01b038516845290915290205460ff165b92915050565b634e487b7160e01b600052604160045260246000fd5b600082601f830112620003d057600080fd5b81516001600160401b0380821115620003ed57620003ed620003a8565b604051601f8301601f19908116603f01168101908282118183101715620004185762000418620003a8565b816040528381526020925086838588010111156200043557600080fd5b600091505b838210156200045957858201830151818301840152908201906200043a565b600093810190920192909252949350505050565b6000806000606084860312156200048357600080fd5b83516001600160401b03808211156200049b57600080fd5b620004a987838801620003be565b94506020860151915080821115620004c057600080fd5b50620004cf86828701620003be565b925050604084015190509250925092565b600181811c90821680620004f557607f821691505b6020821081036200051657634e487b7160e01b600052602260045260246000fd5b50919050565b601f8211156200056a57600081815260208120601f850160051c81016020861015620005455750805b601f850160051c820191505b81811015620005665782815560010162000551565b5050505b505050565b81516001600160401b038111156200058b576200058b620003a8565b620005a3816200059c8454620004e0565b846200051c565b602080601f831160018114620005db5760008415620005c25750858301515b600019600386901b1c1916600185901b17855562000566565b600085815260208120601f198616915b828110156200060c57888601518255948401946001909101908401620005eb565b50858210156200062b5787850151600019600388901b60f8161c191681555b5050505050600190811b01905550565b634e487b7160e01b600052601160045260246000fd5b80820180821115620003a257620003a26200063b565b634e487b7160e01b600052603260045260246000fd5b6000600182016200069257620006926200063b565b5060010190565b61203380620006a96000396000f3fe608060405234801561001057600080fd5b506004361061025e5760003560e01c80637048027511610146578063996f11ee116100c3578063c93be63611610087578063c93be63614610593578063d547741f1461059c578063dd62ed3e146105af578063dfbaefb1146105e8578063f2fde38b146105f5578063fb30d9161461060857600080fd5b8063996f11ee1461053f5780639cb7de4b14610552578063a217fddf14610565578063a9059cbb1461056d578063a923fc401461058057600080fd5b8063817b1cd21161010a578063817b1cd2146104e85780638da5cb5b146104f057806391d14854146105015780639554381a1461051457806395d89b411461053757600080fd5b8063704802751461047e57806370a0823114610491578063715018a6146104ba57806375829def146104c25780637fe4a698146104d557600080fd5b806327e235e3116101df57806346ea87af116101a357806346ea87af146103cc57806352cd38d9146103ef57806355b6ed5c1461041a5780635a47a1a7146104455780636021726714610458578063622890771461046b57600080fd5b806327e235e31461034e5780632f2ff15d1461036e578063313ce5671461038157806336568abe1461039b578063429b62e5146103a957600080fd5b806318160ddd1161022657806318160ddd146102db5780631e83409a146102f257806323b872dd14610305578063248a9ca314610318578063276eab4e1461033b57600080fd5b806301e336671461026357806301ffc9a71461027857806306fdde03146102a0578063095ea7b3146102b55780631785f53c146102c8575b600080fd5b61027661027136600461199a565b61061b565b005b61028b6102863660046119d6565b61064b565b60405190151581526020015b60405180910390f35b6102a8610682565b6040516102979190611a24565b61028b6102c3366004611a57565b610710565b6102766102d6366004611a81565b610726565b6102e460055481565b604051908152602001610297565b610276610300366004611a81565b61075e565b61028b61031336600461199a565b61081b565b6102e4610326366004611a9c565b60009081526020819052604090206001015490565b610276610349366004611afc565b61089a565b6102e461035c366004611a81565b60076020526000908152604090205481565b61027661037c366004611ba9565b6108c4565b610389601281565b60405160ff9091168152602001610297565b61027661025e366004611ba9565b61028b6103b7366004611a81565b600b6020526000908152604090205460ff1681565b61028b6103da366004611a81565b600d6020526000908152604090205460ff1681565b6104026103fd366004611a9c565b6108e9565b6040516001600160a01b039091168152602001610297565b6102e4610428366004611bd5565b600860209081526000928352604080842090915290825290205481565b610276610453366004611c0d565b610913565b6102e4610466366004611a81565b61093d565b610276610479366004611a81565b610982565b61027661048c366004611a81565b610a5c565b6102e461049f366004611a81565b6001600160a01b031660009081526007602052604090205490565b610276610a97565b6102766104d0366004611a81565b610aab565b6102766104e3366004611a81565b610b1b565b6102e4610b45565b6001546001600160a01b0316610402565b61028b61050f366004611ba9565b610b5c565b61028b610522366004611a81565b600a6020526000908152604090205460ff1681565b6102a8610b85565b61027661054d366004611bd5565b610b92565b610276610560366004611c2a565b610c64565b6102e4600081565b61028b61057b366004611a57565b610ca6565b61027661058e366004611cd1565b610cb3565b6102e460065481565b6102766105aa366004611ba9565b610ce3565b6102e46105bd366004611bd5565b6001600160a01b03918216600090815260086020908152604080832093909416825291909152205490565b600c5461028b9060ff1681565b610276610603366004611a81565b610d08565b610276610616366004611a81565b610d81565b610632600080516020611fde833981519152610e64565b6106466001600160a01b0384168383610e6e565b505050565b60006001600160e01b03198216637965db0b60e01b148061067c57506301ffc9a760e01b6001600160e01b03198316145b92915050565b6003805461068f90611d35565b80601f01602080910402602001604051908101604052809291908181526020018280546106bb90611d35565b80156107085780601f106106dd57610100808354040283529160200191610708565b820191906000526020600020905b8154815290600101906020018083116106eb57829003601f168201915b505050505081565b600061071d338484610ec0565b50600192915050565b61073d600080516020611fde833981519152610e64565b6001600160a01b03166000908152600b60205260409020805460ff19169055565b60005b6009548110156108175760006009828154811061078057610780611d6f565b6000918252602090912001546040516310e059a160e11b81523360048201526001600160a01b038581166024830152909116915081906321c0b342906044016020604051808303816000875af11580156107de573d6000803e3d6000fd5b505050506040513d601f19601f820116820180604052508101906108029190611d85565b5050808061080f90611db4565b915050610761565b5050565b336000908152600d602052604081205460ff16156108465761083e848484610fee565b506001610893565b6001600160a01b0384166000908152600860209081526040808320338452909152812054610875908490611dcd565b9050610882853383610ec0565b61088d858585610fee565b60019150505b9392505050565b6108b1600080516020611fde833981519152610e64565b8051610817906009906020840190611904565b6000828152602081905260409020600101546108df81610e64565b6106468383611258565b600981815481106108f957600080fd5b6000918252602090912001546001600160a01b0316905081565b61092a600080516020611fde833981519152610e64565b600c805460ff1916911515919091179055565b6001600160a01b0381166000908152600a602052604081205460ff161561096657506000919050565b506001600160a01b031660009081526007602052604090205490565b610999600080516020611fde833981519152610e64565b6001600160a01b0381166000908152600a602052604090205460ff1615610a125760405162461bcd60e51b815260206004820152602260248201527f42617365546f6b656e3a205f6163636f756e7420616c7265616479206d61726b604482015261195960f21b60648201526084015b60405180910390fd5b610a1b816112dc565b6001600160a01b0381166000908152600a60209081526040808320805460ff191660011790556007909152902054600654610a569190611de0565b60065550565b610a73600080516020611fde833981519152610e64565b6001600160a01b03166000908152600b60205260409020805460ff19166001179055565b610a9f61137d565b610aa960006113d7565b565b6000610ab681610e64565b6001600160a01b038216610afc5760405162461bcd60e51b815260206004820152600d60248201526c217a65726f206164647265737360981b6044820152606401610a09565b610b07600083611429565b610b10826113d7565b610817600033611433565b7f8d1089725c0dc266707fa6207730fb801dcd03108bfed7a21099bd303651d2b761025e81610e64565b6000600654600554610b579190611dcd565b905090565b6000918252602082815260408084206001600160a01b0393909316845291905290205460ff1690565b6004805461068f90611d35565b610ba9600080516020611fde833981519152610e64565b60005b60095481101561064657600060098281548110610bcb57610bcb611d6f565b6000918252602090912001546040516310e059a160e11b81526001600160a01b0386811660048301528581166024830152909116915081906321c0b342906044016020604051808303816000875af1158015610c2b573d6000803e3d6000fd5b505050506040513d601f19601f82011682018060405250810190610c4f9190611d85565b50508080610c5c90611db4565b915050610bac565b610c7b600080516020611fde833981519152610e64565b6001600160a01b03919091166000908152600d60205260409020805460ff1916911515919091179055565b600061071d338484610fee565b610cca600080516020611fde833981519152610e64565b6003610cd68382611e41565b5060046106468282611e41565b600082815260208190526040902060010154610cfe81610e64565b6106468383611433565b610d1061137d565b6001600160a01b038116610d755760405162461bcd60e51b815260206004820152602660248201527f4f776e61626c653a206e6577206f776e657220697320746865207a65726f206160448201526564647265737360d01b6064820152608401610a09565b610d7e816113d7565b50565b610d98600080516020611fde833981519152610e64565b6001600160a01b0381166000908152600a602052604090205460ff16610e005760405162461bcd60e51b815260206004820152601e60248201527f42617365546f6b656e3a205f6163636f756e74206e6f74206d61726b656400006044820152606401610a09565b610e09816112dc565b6001600160a01b0381166000908152600a60209081526040808320805460ff191690556007909152902054600654610a569190611dcd565b42600255610e4e336113d7565b610e59600033611429565b610d7e600082611429565b610d7e8133611498565b604080516001600160a01b038416602482015260448082018490528251808303909101815260649091019091526020810180516001600160e01b031663a9059cbb60e01b1790526106469084906114f1565b6001600160a01b038316610f275760405162461bcd60e51b815260206004820152602860248201527f42617365546f6b656e3a20617070726f76652066726f6d20746865207a65726f604482015267206164647265737360c01b6064820152608401610a09565b6001600160a01b038216610f8c5760405162461bcd60e51b815260206004820152602660248201527f42617365546f6b656e3a20617070726f766520746f20746865207a65726f206160448201526564647265737360d01b6064820152608401610a09565b6001600160a01b0383811660008181526008602090815260408083209487168084529482529182902085905590518481527f8c5be1e5ebec7d5bd14f71427d1e84f3dd0314c0f7b2291e5b200ac8c7c3b92591015b60405180910390a3505050565b6001600160a01b0383166110565760405162461bcd60e51b815260206004820152602960248201527f42617365546f6b656e3a207472616e736665722066726f6d20746865207a65726044820152686f206164647265737360b81b6064820152608401610a09565b6001600160a01b0382166110bc5760405162461bcd60e51b815260206004820152602760248201527f42617365546f6b656e3a207472616e7366657220746f20746865207a65726f206044820152666164647265737360c81b6064820152608401610a09565b600c5460ff161561113457336000908152600d602052604090205460ff166111345760405162461bcd60e51b815260206004820152602560248201527f42617365546f6b656e3a206d73672e73656e646572206e6f742077686974656c6044820152641a5cdd195960da1b6064820152608401610a09565b61113d836112dc565b611146826112dc565b6001600160a01b03831660009081526007602052604090205461116a908290611dcd565b6001600160a01b03808516600090815260076020526040808220939093559084168152205461119a908290611de0565b6001600160a01b038084166000908152600760209081526040808320949094559186168152600a909152205460ff16156111e057806006546111dc9190611dcd565b6006555b6001600160a01b0382166000908152600a602052604090205460ff1615611213578060065461120f9190611de0565b6006555b816001600160a01b0316836001600160a01b03167fddf252ad1be2c89b69c2b068fc378daa952ba7f163c4a11628f55a4df523b3ef83604051610fe191815260200190565b6112628282610b5c565b610817576000828152602081815260408083206001600160a01b03851684529091529020805460ff191660011790556112983390565b6001600160a01b0316816001600160a01b0316837f2f8788117e7eff1d82e926ec794901d17c78024a50270940304540a733656f0d60405160405180910390a45050565b60005b600954811015610817576000600982815481106112fe576112fe611d6f565b600091825260209091200154604051635fd6196560e01b81526001600160a01b03858116600483015290911691508190635fd6196590602401600060405180830381600087803b15801561135157600080fd5b505af1158015611365573d6000803e3d6000fd5b5050505050808061137590611db4565b9150506112df565b6001546001600160a01b03163314610aa95760405162461bcd60e51b815260206004820181905260248201527f4f776e61626c653a2063616c6c6572206973206e6f7420746865206f776e65726044820152606401610a09565b600180546001600160a01b038381166001600160a01b0319831681179093556040519116919082907f8be0079c531659141344cd1fd0a4f28419497f9722a3daafe3b4186f6b6457e090600090a35050565b6108178282611258565b61143d8282610b5c565b15610817576000828152602081815260408083206001600160a01b0385168085529252808320805460ff1916905551339285917ff6391f5c32d9c69d2a47ea670b442974b53935d1edc7fd64eb21e047a839171b9190a45050565b6114a28282610b5c565b610817576114af816115c6565b6114ba8360206115d8565b6040516020016114cb929190611f01565b60408051601f198184030181529082905262461bcd60e51b8252610a0991600401611a24565b6000611546826040518060400160405280602081526020017f5361666545524332303a206c6f772d6c6576656c2063616c6c206661696c6564815250856001600160a01b03166117749092919063ffffffff16565b90508051600014806115675750808060200190518101906115679190611f76565b6106465760405162461bcd60e51b815260206004820152602a60248201527f5361666545524332303a204552433230206f7065726174696f6e20646964206e6044820152691bdd081cdd58d8d9595960b21b6064820152608401610a09565b606061067c6001600160a01b03831660145b606060006115e7836002611f93565b6115f2906002611de0565b67ffffffffffffffff81111561160a5761160a611ab5565b6040519080825280601f01601f191660200182016040528015611634576020820181803683370190505b509050600360fc1b8160008151811061164f5761164f611d6f565b60200101906001600160f81b031916908160001a905350600f60fb1b8160018151811061167e5761167e611d6f565b60200101906001600160f81b031916908160001a90535060006116a2846002611f93565b6116ad906001611de0565b90505b6001811115611725576f181899199a1a9b1b9c1cb0b131b232b360811b85600f16601081106116e1576116e1611d6f565b1a60f81b8282815181106116f7576116f7611d6f565b60200101906001600160f81b031916908160001a90535060049490941c9361171e81611faa565b90506116b0565b5083156108935760405162461bcd60e51b815260206004820181905260248201527f537472696e67733a20686578206c656e67746820696e73756666696369656e746044820152606401610a09565b6060611783848460008561178b565b949350505050565b6060824710156117ec5760405162461bcd60e51b815260206004820152602660248201527f416464726573733a20696e73756666696369656e742062616c616e636520666f6044820152651c8818d85b1b60d21b6064820152608401610a09565b600080866001600160a01b031685876040516118089190611fc1565b60006040518083038185875af1925050503d8060008114611845576040519150601f19603f3d011682016040523d82523d6000602084013e61184a565b606091505b509150915061185b87838387611866565b979650505050505050565b606083156118d55782516000036118ce576001600160a01b0385163b6118ce5760405162461bcd60e51b815260206004820152601d60248201527f416464726573733a2063616c6c20746f206e6f6e2d636f6e74726163740000006044820152606401610a09565b5081611783565b61178383838151156118ea5781518083602001fd5b8060405162461bcd60e51b8152600401610a099190611a24565b828054828255906000526020600020908101928215611959579160200282015b8281111561195957825182546001600160a01b0319166001600160a01b03909116178255602090920191600190910190611924565b50611965929150611969565b5090565b5b80821115611965576000815560010161196a565b80356001600160a01b038116811461199557600080fd5b919050565b6000806000606084860312156119af57600080fd5b6119b88461197e565b92506119c66020850161197e565b9150604084013590509250925092565b6000602082840312156119e857600080fd5b81356001600160e01b03198116811461089357600080fd5b60005b83811015611a1b578181015183820152602001611a03565b50506000910152565b6020815260008251806020840152611a43816040850160208701611a00565b601f01601f19169190910160400192915050565b60008060408385031215611a6a57600080fd5b611a738361197e565b946020939093013593505050565b600060208284031215611a9357600080fd5b6108938261197e565b600060208284031215611aae57600080fd5b5035919050565b634e487b7160e01b600052604160045260246000fd5b604051601f8201601f1916810167ffffffffffffffff81118282101715611af457611af4611ab5565b604052919050565b60006020808385031215611b0f57600080fd5b823567ffffffffffffffff80821115611b2757600080fd5b818501915085601f830112611b3b57600080fd5b813581811115611b4d57611b4d611ab5565b8060051b9150611b5e848301611acb565b8181529183018401918481019088841115611b7857600080fd5b938501935b83851015611b9d57611b8e8561197e565b82529385019390850190611b7d565b98975050505050505050565b60008060408385031215611bbc57600080fd5b82359150611bcc6020840161197e565b90509250929050565b60008060408385031215611be857600080fd5b611bf18361197e565b9150611bcc6020840161197e565b8015158114610d7e57600080fd5b600060208284031215611c1f57600080fd5b813561089381611bff565b60008060408385031215611c3d57600080fd5b611c468361197e565b91506020830135611c5681611bff565b809150509250929050565b600082601f830112611c7257600080fd5b813567ffffffffffffffff811115611c8c57611c8c611ab5565b611c9f601f8201601f1916602001611acb565b818152846020838601011115611cb457600080fd5b816020850160208301376000918101602001919091529392505050565b60008060408385031215611ce457600080fd5b823567ffffffffffffffff80821115611cfc57600080fd5b611d0886838701611c61565b93506020850135915080821115611d1e57600080fd5b50611d2b85828601611c61565b9150509250929050565b600181811c90821680611d4957607f821691505b602082108103611d6957634e487b7160e01b600052602260045260246000fd5b50919050565b634e487b7160e01b600052603260045260246000fd5b600060208284031215611d9757600080fd5b5051919050565b634e487b7160e01b600052601160045260246000fd5b600060018201611dc657611dc6611d9e565b5060010190565b8181038181111561067c5761067c611d9e565b8082018082111561067c5761067c611d9e565b601f82111561064657600081815260208120601f850160051c81016020861015611e1a5750805b601f850160051c820191505b81811015611e3957828155600101611e26565b505050505050565b815167ffffffffffffffff811115611e5b57611e5b611ab5565b611e6f81611e698454611d35565b84611df3565b602080601f831160018114611ea45760008415611e8c5750858301515b600019600386901b1c1916600185901b178555611e39565b600085815260208120601f198616915b82811015611ed357888601518255948401946001909101908401611eb4565b5085821015611ef15787850151600019600388901b60f8161c191681555b5050505050600190811b01905550565b7f416363657373436f6e74726f6c3a206163636f756e7420000000000000000000815260008351611f39816017850160208801611a00565b7001034b99036b4b9b9b4b733903937b6329607d1b6017918401918201528351611f6a816028840160208801611a00565b01602801949350505050565b600060208284031215611f8857600080fd5b815161089381611bff565b808202811582820484141761067c5761067c611d9e565b600081611fb957611fb9611d9e565b506000190190565b60008251611fd3818460208701611a00565b919091019291505056fe241ecf16d79d0f8dbfb92cbc07fe17840425976cf0667f022fe9877caa831b08a2646970667358221220c6282a600ea613beba8b682ee1b9cb0c5f9e4da3ef85b933f3a0ae8289b6d8df64736f6c63430008110033",
    "linkReferences": {}
  },
  "methodIdentifiers": {
    "DEFAULT_ADMIN_ROLE()": "a217fddf",
    "addAdmin(address)": "70480275",
    "addNonStakingAccount(address)": "62289077",
    "admins(address)": "429b62e5",
    "allowance(address,address)": "dd62ed3e",
    "allowances(address,address)": "55b6ed5c",
    "approve(address,uint256)": "095ea7b3",
    "balanceOf(address)": "70a08231",
    "balances(address)": "27e235e3",
    "claim(address)": "1e83409a",
    "decimals()": "313ce567",
    "getRoleAdmin(bytes32)": "248a9ca3",
    "grantControllerRoleByMarketManager(address)": "7fe4a698",
    "grantRole(bytes32,address)": "2f2ff15d",
    "hasRole(bytes32,address)": "91d14854",
    "inPrivateTransferMode()": "dfbaefb1",
    "isHandler(address)": "46ea87af",
    "name()": "06fdde03",
    "nonStakingAccounts(address)": "9554381a",
    "nonStakingSupply()": "c93be636",
    "owner()": "8da5cb5b",
    "recoverClaim(address,address)": "996f11ee",
    "removeAdmin(address)": "1785f53c",
    "removeNonStakingAccount(address)": "fb30d916",
    "renounceOwnership()": "715018a6",
    "renounceRole(bytes32,address)": "36568abe",
    "revokeRole(bytes32,address)": "d547741f",
    "setHandler(address,bool)": "9cb7de4b",
    "setInPrivateTransferMode(bool)": "5a47a1a7",
    "setInfo(string,string)": "a923fc40",
    "setYieldTrackers(address[])": "276eab4e",
    "stakedBalance(address)": "60217267",
    "supportsInterface(bytes4)": "01ffc9a7",
    "symbol()": "95d89b41",
    "totalStaked()": "817b1cd2",
    "totalSupply()": "18160ddd",
    "transfer(address,uint256)": "a9059cbb",
    "transferAdmin(address)": "75829def",
    "transferFrom(address,address,uint256)": "23b872dd",
    "transferOwnership(address)": "f2fde38b",
    "withdrawToken(address,address,uint256)": "01e33667",
    "yieldTrackers(uint256)": "52cd38d9"
  },
  "id": 107
}