{
  "abi": [
    {
      "anonymous": false,
      "inputs": [
        {
          "indexed": false,
          "internalType": "uint8",
          "name": "version",
          "type": "uint8"
        }
      ],
      "name": "Initialized",
      "type": "event"
    },
    {
      "anonymous": false,
      "inputs": [
        {
          "indexed": true,
          "internalType": "address",
          "name": "previousOwner",
          "type": "address"
        },
        {
          "indexed": true,
          "internalType": "address",
          "name": "newOwner",
          "type": "address"
        }
      ],
      "name": "OwnershipTransferred",
      "type": "event"
    },
    {
      "anonymous": false,
      "inputs": [
        {
          "indexed": true,
          "internalType": "bytes32",
          "name": "role",
          "type": "bytes32"
        },
        {
          "indexed": true,
          "internalType": "bytes32",
          "name": "previousAdminRole",
          "type": "bytes32"
        },
        {
          "indexed": true,
          "internalType": "bytes32",
          "name": "newAdminRole",
          "type": "bytes32"
        }
      ],
      "name": "RoleAdminChanged",
      "type": "event"
    },
    {
      "anonymous": false,
      "inputs": [
        {
          "indexed": true,
          "internalType": "bytes32",
          "name": "role",
          "type": "bytes32"
        },
        {
          "indexed": true,
          "internalType": "address",
          "name": "account",
          "type": "address"
        },
        {
          "indexed": true,
          "internalType": "address",
          "name": "sender",
          "type": "address"
        }
      ],
      "name": "RoleGranted",
      "type": "event"
    },
    {
      "anonymous": false,
      "inputs": [
        {
          "indexed": true,
          "internalType": "bytes32",
          "name": "role",
          "type": "bytes32"
        },
        {
          "indexed": true,
          "internalType": "address",
          "name": "account",
          "type": "address"
        },
        {
          "indexed": true,
          "internalType": "address",
          "name": "sender",
          "type": "address"
        }
      ],
      "name": "RoleRevoked",
      "type": "event"
    },
    {
      "inputs": [],
      "name": "DEFAULT_ADMIN_ROLE",
      "outputs": [
        {
          "internalType": "bytes32",
          "name": "",
          "type": "bytes32"
        }
      ],
      "stateMutability": "view",
      "type": "function"
    },
    {
      "inputs": [],
      "name": "PLUGIN_GAS_LIMIT",
      "outputs": [
        {
          "internalType": "uint256",
          "name": "",
          "type": "uint256"
        }
      ],
      "stateMutability": "view",
      "type": "function"
    },
    {
      "inputs": [],
      "name": "collateralToken",
      "outputs": [
        {
          "internalType": "address",
          "name": "",
          "type": "address"
        }
      ],
      "stateMutability": "view",
      "type": "function"
    },
    {
      "inputs": [],
      "name": "collateralTokenDigits",
      "outputs": [
        {
          "internalType": "uint8",
          "name": "",
          "type": "uint8"
        }
      ],
      "stateMutability": "view",
      "type": "function"
    },
    {
      "inputs": [
        {
          "components": [
            {
              "internalType": "address",
              "name": "_market",
              "type": "address"
            },
            {
              "internalType": "bool",
              "name": "_isLong",
              "type": "bool"
            },
            {
              "internalType": "uint256",
              "name": "_oraclePrice",
              "type": "uint256"
            },
            {
              "internalType": "bool",
              "name": "isOpen",
              "type": "bool"
            },
            {
              "internalType": "address",
              "name": "_account",
              "type": "address"
            },
            {
              "internalType": "uint256",
              "name": "_sizeDelta",
              "type": "uint256"
            },
            {
              "internalType": "uint256",
              "name": "_price",
              "type": "uint256"
            },
            {
              "internalType": "uint256",
              "name": "_slippage",
              "type": "uint256"
            },
            {
              "internalType": "bool",
              "name": "_isExec",
              "type": "bool"
            },
            {
              "internalType": "uint8",
              "name": "liqState",
              "type": "uint8"
            },
            {
              "internalType": "uint64",
              "name": "_fromOrder",
              "type": "uint64"
            },
            {
              "internalType": "bytes32",
              "name": "_refCode",
              "type": "bytes32"
            },
            {
              "internalType": "uint256",
              "name": "collateralDelta",
              "type": "uint256"
            },
            {
              "internalType": "uint8",
              "name": "execNum",
              "type": "uint8"
            },
            {
              "internalType": "uint256[]",
              "name": "inputs",
              "type": "uint256[]"
            }
          ],
          "internalType": "struct MarketDataTypes.UpdatePositionInputs",
          "name": "_vars",
          "type": "tuple"
        }
      ],
      "name": "decreasePosition",
      "outputs": [],
      "stateMutability": "nonpayable",
      "type": "function"
    },
    {
      "inputs": [
        {
          "components": [
            {
              "internalType": "uint8",
              "name": "version",
              "type": "uint8"
            },
            {
              "internalType": "uint32",
              "name": "updatedAtBlock",
              "type": "uint32"
            },
            {
              "internalType": "uint8",
              "name": "triggerAbove",
              "type": "uint8"
            },
            {
              "internalType": "address",
              "name": "account",
              "type": "address"
            },
            {
              "internalType": "uint48",
              "name": "extra3",
              "type": "uint48"
            },
            {
              "internalType": "uint128",
              "name": "collateral",
              "type": "uint128"
            },
            {
              "internalType": "uint128",
              "name": "size",
              "type": "uint128"
            },
            {
              "internalType": "uint128",
              "name": "price",
              "type": "uint128"
            },
            {
              "internalType": "uint128",
              "name": "extra1",
              "type": "uint128"
            },
            {
              "internalType": "uint64",
              "name": "orderID",
              "type": "uint64"
            },
            {
              "internalType": "uint64",
              "name": "extra2",
              "type": "uint64"
            },
            {
              "internalType": "uint128",
              "name": "extra0",
              "type": "uint128"
            },
            {
              "internalType": "bytes32",
              "name": "refCode",
              "type": "bytes32"
            }
          ],
          "internalType": "struct Order.Props",
          "name": "order",
          "type": "tuple"
        },
        {
          "components": [
            {
              "internalType": "address",
              "name": "_market",
              "type": "address"
            },
            {
              "internalType": "bool",
              "name": "_isLong",
              "type": "bool"
            },
            {
              "internalType": "uint256",
              "name": "_oraclePrice",
              "type": "uint256"
            },
            {
              "internalType": "bool",
              "name": "isOpen",
              "type": "bool"
            },
            {
              "internalType": "address",
              "name": "_account",
              "type": "address"
            },
            {
              "internalType": "uint256",
              "name": "_sizeDelta",
              "type": "uint256"
            },
            {
              "internalType": "uint256",
              "name": "_price",
              "type": "uint256"
            },
            {
              "internalType": "uint256",
              "name": "_slippage",
              "type": "uint256"
            },
            {
              "internalType": "bool",
              "name": "_isExec",
              "type": "bool"
            },
            {
              "internalType": "uint8",
              "name": "liqState",
              "type": "uint8"
            },
            {
              "internalType": "uint64",
              "name": "_fromOrder",
              "type": "uint64"
            },
            {
              "internalType": "bytes32",
              "name": "_refCode",
              "type": "bytes32"
            },
            {
              "internalType": "uint256",
              "name": "collateralDelta",
              "type": "uint256"
            },
            {
              "internalType": "uint8",
              "name": "execNum",
              "type": "uint8"
            },
            {
              "internalType": "uint256[]",
              "name": "inputs",
              "type": "uint256[]"
            }
          ],
          "internalType": "struct MarketDataTypes.UpdatePositionInputs",
          "name": "_params",
          "type": "tuple"
        }
      ],
      "name": "execOrderKey",
      "outputs": [],
      "stateMutability": "nonpayable",
      "type": "function"
    },
    {
      "inputs": [],
      "name": "feeRouter",
      "outputs": [
        {
          "internalType": "contract IFeeRouter",
          "name": "",
          "type": "address"
        }
      ],
      "stateMutability": "view",
      "type": "function"
    },
    {
      "inputs": [
        {
          "internalType": "bytes32",
          "name": "role",
          "type": "bytes32"
        }
      ],
      "name": "getRoleAdmin",
      "outputs": [
        {
          "internalType": "bytes32",
          "name": "",
          "type": "bytes32"
        }
      ],
      "stateMutability": "view",
      "type": "function"
    },
    {
      "inputs": [],
      "name": "globalValid",
      "outputs": [
        {
          "internalType": "address",
          "name": "",
          "type": "address"
        }
      ],
      "stateMutability": "view",
      "type": "function"
    },
    {
      "inputs": [
        {
          "internalType": "address",
          "name": "_account",
          "type": "address"
        }
      ],
      "name": "grantControllerRoleByMarketManager",
      "outputs": [],
      "stateMutability": "nonpayable",
      "type": "function"
    },
    {
      "inputs": [
        {
          "internalType": "bytes32",
          "name": "role",
          "type": "bytes32"
        },
        {
          "internalType": "address",
          "name": "account",
          "type": "address"
        }
      ],
      "name": "grantRole",
      "outputs": [],
      "stateMutability": "nonpayable",
      "type": "function"
    },
    {
      "inputs": [
        {
          "internalType": "bytes32",
          "name": "role",
          "type": "bytes32"
        },
        {
          "internalType": "address",
          "name": "account",
          "type": "address"
        }
      ],
      "name": "hasRole",
      "outputs": [
        {
          "internalType": "bool",
          "name": "",
          "type": "bool"
        }
      ],
      "stateMutability": "view",
      "type": "function"
    },
    {
      "inputs": [],
      "name": "indexToken",
      "outputs": [
        {
          "internalType": "address",
          "name": "",
          "type": "address"
        }
      ],
      "stateMutability": "view",
      "type": "function"
    },
    {
      "inputs": [
        {
          "internalType": "address[]",
          "name": "accounts",
          "type": "address[]"
        },
        {
          "internalType": "bool",
          "name": "_isLong",
          "type": "bool"
        }
      ],
      "name": "liquidatePositions",
      "outputs": [],
      "stateMutability": "nonpayable",
      "type": "function"
    },
    {
      "inputs": [],
      "name": "marketRouter",
      "outputs": [
        {
          "internalType": "address",
          "name": "",
          "type": "address"
        }
      ],
      "stateMutability": "view",
      "type": "function"
    },
    {
      "inputs": [],
      "name": "marketValid",
      "outputs": [
        {
          "internalType": "address",
          "name": "",
          "type": "address"
        }
      ],
      "stateMutability": "view",
      "type": "function"
    },
    {
      "inputs": [],
      "name": "name",
      "outputs": [
        {
          "internalType": "string",
          "name": "",
          "type": "string"
        }
      ],
      "stateMutability": "view",
      "type": "function"
    },
    {
      "inputs": [],
      "name": "orderBookLong",
      "outputs": [
        {
          "internalType": "contract IOrderBook",
          "name": "",
          "type": "address"
        }
      ],
      "stateMutability": "view",
      "type": "function"
    },
    {
      "inputs": [],
      "name": "orderBookShort",
      "outputs": [
        {
          "internalType": "contract IOrderBook",
          "name": "",
          "type": "address"
        }
      ],
      "stateMutability": "view",
      "type": "function"
    },
    {
      "inputs": [],
      "name": "orderMgr",
      "outputs": [
        {
          "internalType": "address",
          "name": "",
          "type": "address"
        }
      ],
      "stateMutability": "view",
      "type": "function"
    },
    {
      "inputs": [
        {
          "internalType": "bool",
          "name": "isLong",
          "type": "bool"
        },
        {
          "internalType": "bool",
          "name": "isOpen",
          "type": "bool"
        }
      ],
      "name": "orderStore",
      "outputs": [
        {
          "internalType": "contract IOrderStore",
          "name": "",
          "type": "address"
        }
      ],
      "stateMutability": "view",
      "type": "function"
    },
    {
      "inputs": [],
      "name": "owner",
      "outputs": [
        {
          "internalType": "address",
          "name": "",
          "type": "address"
        }
      ],
      "stateMutability": "view",
      "type": "function"
    },
    {
      "inputs": [
        {
          "internalType": "uint256",
          "name": "",
          "type": "uint256"
        }
      ],
      "name": "plugins",
      "outputs": [
        {
          "internalType": "address",
          "name": "",
          "type": "address"
        }
      ],
      "stateMutability": "view",
      "type": "function"
    },
    {
      "inputs": [],
      "name": "positionAddMgr",
      "outputs": [
        {
          "internalType": "address",
          "name": "",
          "type": "address"
        }
      ],
      "stateMutability": "view",
      "type": "function"
    },
    {
      "inputs": [],
      "name": "positionBook",
      "outputs": [
        {
          "internalType": "contract IPositionBook",
          "name": "",
          "type": "address"
        }
      ],
      "stateMutability": "view",
      "type": "function"
    },
    {
      "inputs": [],
      "name": "positionStoreLong",
      "outputs": [
        {
          "internalType": "address",
          "name": "",
          "type": "address"
        }
      ],
      "stateMutability": "view",
      "type": "function"
    },
    {
      "inputs": [],
      "name": "positionStoreShort",
      "outputs": [
        {
          "internalType": "address",
          "name": "",
          "type": "address"
        }
      ],
      "stateMutability": "view",
      "type": "function"
    },
    {
      "inputs": [],
      "name": "positionSubMgr",
      "outputs": [
        {
          "internalType": "address",
          "name": "",
          "type": "address"
        }
      ],
      "stateMutability": "view",
      "type": "function"
    },
    {
      "inputs": [],
      "name": "priceFeed",
      "outputs": [
        {
          "internalType": "address",
          "name": "",
          "type": "address"
        }
      ],
      "stateMutability": "view",
      "type": "function"
    },
    {
      "inputs": [],
      "name": "renounceOwnership",
      "outputs": [],
      "stateMutability": "nonpayable",
      "type": "function"
    },
    {
      "inputs": [
        {
          "internalType": "bytes32",
          "name": "",
          "type": "bytes32"
        },
        {
          "internalType": "address",
          "name": "",
          "type": "address"
        }
      ],
      "name": "renounceRole",
      "outputs": [],
      "stateMutability": "nonpayable",
      "type": "function"
    },
    {
      "inputs": [
        {
          "internalType": "bytes32",
          "name": "role",
          "type": "bytes32"
        },
        {
          "internalType": "address",
          "name": "account",
          "type": "address"
        }
      ],
      "name": "revokeRole",
      "outputs": [],
      "stateMutability": "nonpayable",
      "type": "function"
    },
    {
      "inputs": [
        {
          "internalType": "address",
          "name": "token",
          "type": "address"
        }
      ],
      "name": "setCollateralToken",
      "outputs": [],
      "stateMutability": "nonpayable",
      "type": "function"
    },
    {
      "inputs": [
        {
          "internalType": "address",
          "name": "fr",
          "type": "address"
        }
      ],
      "name": "setFeeRouter",
      "outputs": [],
      "stateMutability": "nonpayable",
      "type": "function"
    },
    {
      "inputs": [
        {
          "internalType": "address",
          "name": "_indexToken",
          "type": "address"
        }
      ],
      "name": "setIndexToken",
      "outputs": [],
      "stateMutability": "nonpayable",
      "type": "function"
    },
    {
      "inputs": [
        {
          "internalType": "address",
          "name": "_newMv",
          "type": "address"
        }
      ],
      "name": "setMarketValid",
      "outputs": [],
      "stateMutability": "nonpayable",
      "type": "function"
    },
    {
      "inputs": [
        {
          "internalType": "address",
          "name": "pf",
          "type": "address"
        }
      ],
      "name": "setOraclePrice",
      "outputs": [],
      "stateMutability": "nonpayable",
      "type": "function"
    },
    {
      "inputs": [
        {
          "internalType": "bool",
          "name": "isLong",
          "type": "bool"
        },
        {
          "internalType": "bool",
          "name": "isOpen",
          "type": "bool"
        },
        {
          "internalType": "address",
          "name": "os",
          "type": "address"
        }
      ],
      "name": "setOrderStore",
      "outputs": [],
      "stateMutability": "nonpayable",
      "type": "function"
    },
    {
      "inputs": [
        {
          "internalType": "address",
          "name": "book",
          "type": "address"
        }
      ],
      "name": "setPositionBook",
      "outputs": [],
      "stateMutability": "nonpayable",
      "type": "function"
    },
    {
      "inputs": [
        {
          "internalType": "address",
          "name": "vr",
          "type": "address"
        }
      ],
      "name": "setVaultRouter",
      "outputs": [],
      "stateMutability": "nonpayable",
      "type": "function"
    },
    {
      "inputs": [
        {
          "internalType": "address",
          "name": "orderBook",
          "type": "address"
        }
      ],
      "name": "setorderBookLong",
      "outputs": [],
      "stateMutability": "nonpayable",
      "type": "function"
    },
    {
      "inputs": [
        {
          "internalType": "address",
          "name": "orderBook",
          "type": "address"
        }
      ],
      "name": "setorderBookShort",
      "outputs": [],
      "stateMutability": "nonpayable",
      "type": "function"
    },
    {
      "inputs": [
        {
          "internalType": "bytes4",
          "name": "interfaceId",
          "type": "bytes4"
        }
      ],
      "name": "supportsInterface",
      "outputs": [
        {
          "internalType": "bool",
          "name": "",
          "type": "bool"
        }
      ],
      "stateMutability": "view",
      "type": "function"
    },
    {
      "inputs": [
        {
          "internalType": "address",
          "name": "to",
          "type": "address"
        }
      ],
      "name": "transferAdmin",
      "outputs": [],
      "stateMutability": "nonpayable",
      "type": "function"
    },
    {
      "inputs": [
        {
          "internalType": "address",
          "name": "newOwner",
          "type": "address"
        }
      ],
      "name": "transferOwnership",
      "outputs": [],
      "stateMutability": "nonpayable",
      "type": "function"
    },
    {
      "inputs": [],
      "name": "vaultRouter",
      "outputs": [
        {
          "internalType": "address",
          "name": "",
          "type": "address"
        }
      ],
      "stateMutability": "view",
      "type": "function"
    }
  ],
  "bytecode": {
    "object": "0x60806040523480156200001157600080fd5b5060016046556000620000243362000041565b6200003a816200009360201b62000c971760201c565b5062000173565b604880546001600160a01b038381166001600160a01b0319831681179093556040519116919082907f8be0079c531659141344cd1fd0a4f28419497f9722a3daafe3b4186f6b6457e090600090a35050565b42604955620000a23362000041565b620000af600033620000bf565b620000bc600082620000bf565b50565b620000cb8282620000cf565b5050565b60008281526047602090815260408083206001600160a01b038516845290915290205460ff16620000cb5760008281526047602090815260408083206001600160a01b03851684529091529020805460ff191660011790556200012f3390565b6001600160a01b0316816001600160a01b0316837f2f8788117e7eff1d82e926ec794901d17c78024a50270940304540a733656f0d60405160405180910390a45050565b6143d980620001836000396000f3fe608060405234801561001057600080fd5b506004361061028a5760003560e01c806391d148541161015c578063b894300d116100ce578063d547741f11610087578063d547741f14610700578063d7ec0a6d14610713578063e7d015f214610743578063f0a317eb14610756578063f29ebf6114610769578063f2fde38b1461077c57600080fd5b8063b894300d14610671578063c267ada414610684578063c54dc3d6146106b4578063d12dbde4146106c7578063d37c441c146106da578063d49ff78d146106ed57600080fd5b8063abed961811610120578063abed9618146105b9578063ac0b05a6146105cc578063af44f6b6146105df578063b2016bd41461060f578063b21dc9cb14610622578063b82a35c51461064157600080fd5b806391d1485414610509578063a0cbf50c1461051c578063a217fddf1461052f578063a264045414610537578063a620eb931461056f57600080fd5b806363cd8dbd11610200578063780e72ff116101b9578063780e72ff1461045f5780637b2fd1e51461048f5780637fe4a698146104a25780638a6ca35d146104b55780638d49701d146104c85780638da5cb5b146104f857600080fd5b806363cd8dbd146103c757806365e26e70146103d1578063666181a914610401578063715018a614610431578063741bef1a1461043957806375829def1461044c57600080fd5b806312ec5d001161025257806312ec5d001461031f578063248a9ca3146103325780632f2ff15d1461036357806336568abe1461037657806339955ed71461038457806345ccf5c5146103b457600080fd5b806301ffc9a71461028f57806305ba9ae9146102b757806306fdde03146102e257806307e87545146102f757806312de276c1461030a575b600080fd5b6102a261029d3660046130c8565b61078f565b60405190151581526020015b60405180910390f35b6006546102ca906001600160a01b031681565b6040516001600160a01b0390911681526020016102ae565b6102ea6107c6565b6040516102ae9190613142565b600a546102ca906001600160a01b031681565b61031d610318366004613480565b610854565b005b61031d61032d3660046135b4565b6108d4565b61035561034036600461365f565b60009081526047602052604090206001015490565b6040519081526020016102ae565b61031d610371366004613678565b610918565b61031d61028a366004613678565b61031d6103923660046136a8565b600080546001600160a01b0319166001600160a01b0392909216919091179055565b600b546102ca906001600160a01b031681565b610355620a2c2a81565b61031d6103df3660046136a8565b600680546001600160a01b0319166001600160a01b0392909216919091179055565b61031d61040f3660046136a8565b600480546001600160a01b0319166001600160a01b0392909216919091179055565b61031d610942565b6009546102ca906001600160a01b031681565b61031d61045a3660046136a8565b610956565b61031d61046d3660046136a8565b600c80546001600160a01b0319166001600160a01b0392909216919091179055565b6005546102ca906001600160a01b031681565b61031d6104b03660046136a8565b6109c6565b600e546102ca906001600160a01b031681565b61031d6104d63660046136a8565b600380546001600160a01b0319166001600160a01b0392909216919091179055565b6048546001600160a01b03166102ca565b6102a2610517366004613678565b6109f0565b600f546102ca906001600160a01b031681565b610355600081565b6102ca6105453660046136c5565b9015156000908152600760209081526040808320931515835292905220546001600160a01b031690565b61031d61057d3660046136f3565b911515600090815260076020908152604080832093151583529290522080546001600160a01b0319166001600160a01b03909216919091179055565b61031d6105c736600461373e565b610a1b565b6003546102ca906001600160a01b031681565b61031d6105ed3660046136a8565b600980546001600160a01b0319166001600160a01b0392909216919091179055565b6004546102ca906001600160a01b031681565b60135461062f9060ff1681565b60405160ff90911681526020016102ae565b61031d61064f3660046136a8565b600280546001600160a01b0319166001600160a01b0392909216919091179055565b6000546102ca906001600160a01b031681565b61031d6106923660046136a8565b600880546001600160a01b0319166001600160a01b0392909216919091179055565b6001546102ca906001600160a01b031681565b6010546102ca906001600160a01b031681565b600c546102ca906001600160a01b031681565b600d546102ca906001600160a01b031681565b61031d61070e366004613678565b610bcf565b61031d6107213660046136a8565b600580546001600160a01b0319166001600160a01b0392909216919091179055565b6002546102ca906001600160a01b031681565b6102ca61076436600461365f565b610bf4565b6008546102ca906001600160a01b031681565b61031d61078a3660046136a8565b610c1e565b60006001600160e01b03198216637965db0b60e01b14806107c057506301ffc9a760e01b6001600160e01b03198316145b92915050565b601180546107d390613772565b80601f01602080910402602001604051908101604052809291908181526020018280546107ff90613772565b801561084c5780601f106108215761010080835404028352916020019161084c565b820191906000526020600020905b81548152906001019060200180831161082f57829003601f168201915b505050505081565b61085d82610cba565b6060810151156108b45760405162461bcd60e51b815260206004820152601f60248201527f506f736974696f6e5375624d67723a696e76616c696420696e6372656173650060448201526064015b60405180910390fd5b6108c682606001518260200151610d5a565b6108d08282610e41565b5050565b815160005b818110156109125760008482815181106108f5576108f56137a6565b6020026020010151905061090981856111a6565b506001016108d9565b50505050565b600082815260476020526040902060010154610933816113ea565b61093d83836113f4565b505050565b61094a61147a565b61095460006114d4565b565b6000610961816113ea565b6001600160a01b0382166109a75760405162461bcd60e51b815260206004820152600d60248201526c217a65726f206164647265737360981b60448201526064016108ab565b6109b2600083611526565b6109bb826114d4565b6108d0600033611530565b7f8d1089725c0dc266707fa6207730fb801dcd03108bfed7a21099bd303651d2b761028a816113ea565b60009182526047602090815260408084206001600160a01b0393909316845291905290205460ff1690565b606081015115610a655760405162461bcd60e51b81526020600482015260156024820152742837b9b4ba34b7b729bab126b3b91d34b9a7b832b760591b60448201526064016108ab565b806101000151158015610a8457506101408101516001600160401b0316155b610ade5760405162461bcd60e51b815260206004820152602560248201527f506f736974696f6e5375624d67723a77726f6e67206973657865632f66726f6d60448201526437b93232b960d91b60648201526084016108ab565b8060e00151600003610af257601e60e08201525b610aff8160200151611597565b604082810182905260035460808401516020850151925163bc95baad60e01b81526001600160a01b0391821660048201526024810194909452911515604484015260009291169063bc95baad9060640161018060405180830381865afa158015610b6d573d6000803e3d6000fd5b505050506040513d601f19601f82011682018060405250810190610b9191906137f4565b60a083015190915015610bc557610bbe610baa83611613565b82608001518460a001518460a00151611650565b6101808301525b6108d08282611680565b600082815260476020526040902060010154610bea816113ea565b61093d8383611530565b60128181548110610c0457600080fd5b6000918252602090912001546001600160a01b0316905081565b610c2661147a565b6001600160a01b038116610c8b5760405162461bcd60e51b815260206004820152602660248201527f4f776e61626c653a206e6577206f776e657220697320746865207a65726f206160448201526564647265737360d01b60648201526084016108ab565b610c94816114d4565b50565b42604955610ca4336114d4565b610caf600033611526565b610c94600082611526565b60608101516001600160a01b0316610d085760405162461bcd60e51b8152602060048201526011602482015270696e76616c6964206f72646572206b657960781b60448201526064016108ab565b8061012001516001600160401b0316600003610c945760405162461bcd60e51b8152602060048201526011602482015270696e76616c6964206f72646572206b657960781b60448201526064016108ab565b6000546003546008546001600160a01b0392831692631f21756a9286923092879281169116610d8883611597565b6040518763ffffffff1660e01b8152600401610da9969594939291906138aa565b602060405180830381865afa158015610dc6573d6000803e3d6000fd5b505050506040513d601f19601f82011682018060405250810190610dea91906138e5565b156108d05760405162461bcd60e51b815260206004820152602160248201527f506f736974696f6e5375624d67723a706f736974696f6e20756e646572206c696044820152607160f81b60648201526084016108ab565b610e4e8160200151611597565b604082810182905260035460608501516020850151925163bc95baad60e01b81526001600160a01b0391821660048201526024810194909452911515604484015260009291169063bc95baad9060640161018060405180830381865afa158015610ebc573d6000803e3d6000fd5b505050506040513d601f19601f82011682018060405250810190610ee091906137f4565b905060008260200151610efe576006546001600160a01b0316610f0b565b6005546001600160a01b03165b6001600160a01b03166345824d67610f2286611f7d565b6040516001600160e01b031960e084901b1681526004810191909152600060248201526044016000604051808303816000875af1158015610f67573d6000803e3d6000fd5b505050506040513d6000823e601f3d908101601f19168201604052610f8f919081019061392a565b905060006001600160a01b031681600081518110610faf57610faf6137a6565b6020026020010151606001516001600160a01b0316036110095760405162461bcd60e51b81526020600482015260156024820152746f72646572206163636f756e74206973207a65726f60581b60448201526064016108ab565b60005b815181101561119b576000828281518110611029576110296137a6565b6020026020010151905080606001516001600160a01b031660006001600160a01b0316036110575750611189565b6111646040518060a0016040528083815260200187815260200184600014611080576004611083565b60035b600781111561109457611094613aa5565b60ff1681526040805160208181018352600082528301520184156110b95760006110ed565b6110c68760800151611fe1565b6110d38960a00151611fe1565b8861010001516110e39190613ad1565b6110ed9190613b17565b815250620a2c2a601280548060200260200160405190810160405280929190818152602001828054801561114a57602002820191906000526020600020905b81546001600160a01b0316815260019091019060200180831161112c575b50506004546001600160a01b0316925030915061204f9050565b81600003611187576001856101a0018181516111809190613b45565b60ff169052505b505b8061119381613b5e565b91505061100c565b506109128383611680565b604080516101e08101825260008082526020820181905291810182905260608082018390526080820183905260a0820183905260c0820183905260e08201839052610100820183905261012082018390526101408201839052610160820183905261018082018390526101a082018390526101c08201529061122990829061229c565b61123282611597565b60408281018290526001600160a01b0385811660808501819052600161010086015285151560208601819052600354935163bc95baad60e01b815260048101929092526024820194909452604481019390935260009291169063bc95baad9060640161018060405180830381865afa1580156112b2573d6000803e3d6000fd5b505050506040513d601f19601f820116820180604052508101906112d691906137f4565b608081015160a08085019190915281015161018084015230835290506113046000546001600160a01b031690565b6003546008546040858101519051630f90bab560e11b81526001600160a01b0394851694631f21756a94611348948b9430948c9493841693909216916004016138aa565b602060405180830381865afa158015611365573d6000803e3d6000fd5b505050506040513d601f19601f8201168201806040525081019061138991906138e5565b60ff1661012083018190526113e05760405162461bcd60e51b815260206004820152601c60248201527f506f736974696f6e5375624d67723a73686f756c64276e74206c69710000000060448201526064016108ab565b6109128282611680565b610c9481336122c9565b6113fe82826109f0565b6108d05760008281526047602090815260408083206001600160a01b03851684529091529020805460ff191660011790556114363390565b6001600160a01b0316816001600160a01b0316837f2f8788117e7eff1d82e926ec794901d17c78024a50270940304540a733656f0d60405160405180910390a45050565b6048546001600160a01b031633146109545760405162461bcd60e51b815260206004820181905260248201527f4f776e61626c653a2063616c6c6572206973206e6f7420746865206f776e657260448201526064016108ab565b604880546001600160a01b038381166001600160a01b0319831681179093556040519116919082907f8be0079c531659141344cd1fd0a4f28419497f9722a3daafe3b4186f6b6457e090600090a35050565b6108d082826113f4565b61153a82826109f0565b156108d05760008281526047602090815260408083206001600160a01b0385168085529252808320805460ff1916905551339285917ff6391f5c32d9c69d2a47ea670b442974b53935d1edc7fd64eb21e047a839171b9190a45050565b6009546002546040516303b6b4bb60e51b81526001600160a01b0391821660048201528315602482015260009291909116906376d6976090604401602060405180830381865afa1580156115ef573d6000803e3d6000fd5b505050506040513d601f19601f820116820180604052508101906107c091906138e5565b60006001826101c0015151101580156107c057506000826101c00151600081518110611641576116416137a6565b60200260200101511192915050565b6000841561167457836116638484613b77565b61166d9190613b8e565b9050611678565b5060005b949350505050565b6080810151158061169c575060808201516001600160a01b0316155b156116a5575050565b6003546008546116c1916001600160a01b039081169116612322565b60a082015160808201511480156118e45761012083015160029060ff166001036116ed57506001611701565b83610120015160ff16600203611701575060075b6000846020015161171d576006546001600160a01b031661172a565b6005546001600160a01b03165b60808601516040516307380adf60e41b81526000600482018190526001600160a01b03928316602483015292935090831690637380adf0906044016000604051808303816000875af1158015611784573d6000803e3d6000fd5b505050506040513d6000823e601f3d908101601f191682016040526117ac919081019061392a565b905060005b81518110156118df5760008282815181106117ce576117ce6137a6565b6020026020010151905060006001600160a01b031681606001516001600160a01b0316036117fc57506118cd565b6001886101a0018181516118109190613b45565b60ff169052506040805160a081018252828152602081018a90526118cb91810187600781111561184257611842613aa5565b60ff16815260408051602081810183526000808352818501929092529282015260128054825181850281018501909352808352620a2c2a9383018282801561114a576020028201919060005260206000209081546001600160a01b0316815260019091019060200180831161112c5750506004546001600160a01b0316925030915061204f9050565b505b806118d781613b5e565b9150506117b1565b505050505b308352600854604051634151026360e01b81526000916001600160a01b03169063415102639061191a9087908790600401613d7d565b600060405180830381865afa158015611937573d6000803e3d6000fd5b505050506040513d6000823e601f3d908101601f1916820160405261195f9190810190613da1565b905060006119756000546001600160a01b031690565b90508460a00151600003611a125760a0840151610180860151608086015160405163393ab2bd60e21b815260048082015260248101939093526044830191909152606482015260006084820181905260a48201526001600160a01b0382169063e4eacaf49060c40160006040518083038186803b1580156119f557600080fd5b505afa158015611a09573d6000803e3d6000fd5b50505050611a73565b60405163fc54d91d60e01b81526001600160a01b0382169063fc54d91d90611a4290889088908790600401613e26565b60006040518083038186803b158015611a5a57600080fd5b505afa158015611a6e573d6000803e3d6000fd5b505050505b60a085015160009015611b1857600354608087015160a08801516040808a015160208b0151915163f3ec823d60e01b81526001600160a01b039485166004820152602481019390935260448301521515606482015291169063f3ec823d90608401602060405180830381865afa158015611af1573d6000803e3d6000fd5b505050506040513d601f19601f82011682018060405250810190611b1591906138e5565b90505b61010085018190526000611b2b846123f8565b90506000611b3b88888585612444565b5060085460208a01516040516334f32e2560e01b815230600482015290151560248201529192506000916001600160a01b03909116906334f32e2590604401602060405180830381865afa158015611b97573d6000803e3d6000fd5b505050506040513d601f19601f82011682018060405250810190611bbb91906138e5565b600c5460a08b0151600480546040805163313ce56760e01b815290519596506001600160a01b039485169563e108262f95611c45959493169263313ce567928082019260209290918290030181865afa158015611c1c573d6000803e3d6000fd5b505050506040513d601f19601f82011682018060405250810190611c409190613e5c565b6125d5565b6040518263ffffffff1660e01b8152600401611c6391815260200190565b600060405180830381600087803b158015611c7d57600080fd5b505af1158015611c91573d6000803e3d6000fd5b505060035460808c0151600093506001600160a01b03909116915063e62c0edf908a611ccc57858c60a00151611cc79190613e79565b611cd2565b8b60a001515b60a08e015160208f01516040516001600160e01b031960e087901b1681526001600160a01b03909416600485015260248401929092526044830152606482018690521515608482015260a401610180604051808303816000875af1158015611d3e573d6000803e3d6000fd5b505050506040513d601f19601f82011682018060405250810190611d6291906137f4565b9050611d766000546001600160a01b031690565b608082015160a083015160405163056b460360e31b8152600481019290925260248201526001600160a01b039190911690632b5a30189060440160006040518083038186803b158015611dc857600080fd5b505afa158015611ddc573d6000803e3d6000fd5b5050505089610120015160ff166001141580611e01575089610120015160ff16600214155b8015611e15575088608001518a60a0015114155b15611e2c57611e2c8a608001518b60200151610d5a565b60085460808b01516004805460405163e50f19ef60e01b81526001600160a01b039485169463e50f19ef94611e69949093909116918d9101613e8c565b600060405180830381600087803b158015611e8357600080fd5b505af1158015611e97573d6000803e3d6000fd5b50506040805160c0810182528d8152602081018d90529081018a90526004546001600160a01b039081166060830152600254166080820152611f719250905060a081018a611ef457858c60a00151611eef9190613e79565b611efa565b8b60a001515b815250620a2c2a6012805480602002602001604051908101604052809291908181526020018280548015611f5757602002820191906000526020600020905b81546001600160a01b03168152600190910190602001808311611f39575b50506004546001600160a01b0316925030915061260c9050565b50505050505050505050565b60006107c082606001518361012001516040516bffffffffffffffffffffffff19606084901b1660208201526001600160c01b031960c083901b166034820152600090603c0160405160208183030381529060405280519060200120905092915050565b60006001600160ff1b0382111561204b5760405162461bcd60e51b815260206004820152602860248201527f53616665436173743a2076616c756520646f65736e27742066697420696e2061604482015267371034b73a191a9b60c11b60648201526084016108ab565b5090565b6040516370a0823160e01b81526001600160a01b038281166004830152600091908416906370a0823190602401602060405180830381865afa158015612099573d6000803e3d6000fd5b505050506040513d601f19601f820116820180604052508101906120bd91906138e5565b905060005b84518110156121d3578481815181106120dd576120dd6137a6565b60200260200101516001600160a01b031663612c39b76040518163ffffffff1660e01b8152600401606060405180830381865afa158015612122573d6000803e3d6000fd5b505050506040513d601f19601f820116820180604052508101906121469190613ec1565b60400151156121c157848181518110612161576121616137a6565b60200260200101516001600160a01b031663718cb58a886040518263ffffffff1660e01b81526004016121949190613f32565b600060405180830381600087803b1580156121ae57600080fd5b505af19250505080156121bf575060015b505b806121cb81613b5e565b9150506120c2565b506040516370a0823160e01b81526001600160a01b038381166004830152600091908516906370a0823190602401602060405180830381865afa15801561221e573d6000803e3d6000fd5b505050506040513d601f19601f8201168201806040525081019061224291906138e5565b90508181146122935760405162461bcd60e51b815260206004820152601b60248201527f455243323020746f6b656e2062616c616e6365206368616e676564000000000060448201526064016108ab565b50505050505050565b60408051600280825260608201835290916020830190803683375050506101c08301521515606090910152565b6122d382826109f0565b6108d0576122e08161278d565b6122eb83602061279f565b6040516020016122fc9291906140bf565b60408051601f198184030181529082905262461bcd60e51b82526108ab91600401613142565b600080836001600160a01b0316638749694a6040518163ffffffff1660e01b81526004016040805180830381865afa158015612362573d6000803e3d6000fd5b505050506040513d601f19601f820116820180604052508101906123869190614134565b60405163c6f83ad160e01b8152306004820152602481018390526044810182905291935091506001600160a01b0384169063c6f83ad190606401600060405180830381600087803b1580156123da57600080fd5b505af11580156123ee573d6000803e3d6000fd5b5050505050505050565b6000805b825181101561243e57828181518110612417576124176137a6565b60200260200101518261242a9190614158565b91508061243681613b5e565b9150506123fc565b50919050565b60045460009081906001600160a01b0316808261246288888861293a565b905060008113156125465760006124c261247b836129a9565b600480546040805163313ce56760e01b815290516001600160a01b039092169263313ce5679282820192602092908290030181865afa158015611c1c573d6000803e3d6000fd5b6004805460085460405163095ea7b360e01b81526001600160a01b039182169381019390935260248301849052929350919091169063095ea7b3906044016020604051808303816000875af115801561251f573d6000803e3d6000fd5b505050506040513d601f19601f820116820180604052508101906125439190614180565b50505b600061255289896129fb565b9050600081131561256c576125678382612a3b565b612594565b612594843061257a8461419d565b601354600c5460ff909116906001600160a01b0316612b2e565b6125a08a8a8a8a612c0d565b95506125ae8a8a8a8a612d43565b945060008513156125c8576125c8848b6080015187612e35565b5050505094509492505050565b60006125e36012600a61429d565b6125f160ff8416600a6142ac565b6125fb9085613b77565b6126059190613b8e565b9392505050565b6040516370a0823160e01b81526001600160a01b038281166004830152600091908416906370a0823190602401602060405180830381865afa158015612656573d6000803e3d6000fd5b505050506040513d601f19601f8201168201806040525081019061267a91906138e5565b905060005b84518110156121d35784818151811061269a5761269a6137a6565b60200260200101516001600160a01b031663612c39b76040518163ffffffff1660e01b8152600401606060405180830381865afa1580156126df573d6000803e3d6000fd5b505050506040513d601f19601f820116820180604052508101906127039190613ec1565b511561277b5784818151811061271b5761271b6137a6565b60200260200101516001600160a01b03166340a542fe886040518263ffffffff1660e01b815260040161274e91906142b8565b600060405180830381600087803b15801561276857600080fd5b505af1925050508015612779575060015b505b8061278581613b5e565b91505061267f565b60606107c06001600160a01b03831660145b606060006127ae836002613b77565b6127b990600261433d565b6001600160401b038111156127d0576127d0613155565b6040519080825280601f01601f1916602001820160405280156127fa576020820181803683370190505b509050600360fc1b81600081518110612815576128156137a6565b60200101906001600160f81b031916908160001a905350600f60fb1b81600181518110612844576128446137a6565b60200101906001600160f81b031916908160001a9053506000612868846002613b77565b61287390600161433d565b90505b60018111156128eb576f181899199a1a9b1b9c1cb0b131b232b360811b85600f16601081106128a7576128a76137a6565b1a60f81b8282815181106128bd576128bd6137a6565b60200101906001600160f81b031916908160001a90535060049490941c936128e481614350565b9050612876565b5083156126055760405162461bcd60e51b815260206004820181905260248201527f537472696e67733a20686578206c656e67746820696e73756666696369656e7460448201526064016108ab565b60008261294a8560a00151611fe1565b6129549190614158565b8213156129a25760008361296b8660a00151611fe1565b6129759190614158565b131561299a57826129898560a00151611fe1565b6129939190614158565b9050612605565b506000612605565b5092915050565b60008082121561204b5760405162461bcd60e51b815260206004820181905260248201527f53616665436173743a2076616c7565206d75737420626520706f73697469766560448201526064016108ab565b60008082612a0c8560a00151611fe1565b612a169190614158565b13612a2f57612a288360a00151611fe1565b90506107c0565b61260582600019613ad1565b601354612a4c90829060ff166125d5565b600c5460405163095ea7b360e01b81526001600160a01b0391821660048201526024810183905291925083169063095ea7b3906044016020604051808303816000875af1158015612aa1573d6000803e3d6000fd5b505050506040513d601f19601f82011682018060405250810190612ac59190614180565b50600c546040516344d38fd560e11b8152306004820152602481018390526001600160a01b03909116906389a71faa90604401600060405180830381600087803b158015612b1257600080fd5b505af1158015612b26573d6000803e3d6000fd5b505050505050565b6001600160a01b038416612b845760405162461bcd60e51b815260206004820152601a60248201527f7661756c7457697468647261773a21757365724163636f756e7400000000000060448201526064016108ab565b6000831315612c0657806001600160a01b031663da8ddc7485612ba786866125d5565b6040516001600160e01b031960e085901b1681526001600160a01b0390921660048301526024820152604401600060405180830381600087803b158015612bed57600080fd5b505af1158015612c01573d6000803e3d6000fd5b505050505b5050505050565b60a08401516080840151600091148015612c2d5760a08501516101808701525b600086610120015160ff161180612c415750805b15612c50576000915050611678565b60008385612c618860a00151611fe1565b612c6b9190614158565b612c759190614367565b13612c84576000915050611678565b60008385612c96896101800151611fe1565b612ca09190614158565b612caa9190614367565b1315612ccd578561018001518560a00151612cc59190613e79565b915050611678565b60008385612cdf896101800151611fe1565b612ce99190614158565b612cf39190614367565b1215612d2457612cc58385612d0b8860a00151611fe1565b612d159190614158565b612d1f9190614367565b6129a9565b8561018001518560a00151612d399190613e79565b9695505050505050565b60a08401516080840151600091148015612d635760a08501516101808701525b60008385612d748860a00151611fe1565b612d7e9190614158565b612d889190614367565b13612d97576000915050611678565b60008385612da9896101800151611fe1565b612db39190614158565b612dbd9190614367565b1315612de7578284612dd3886101800151611fe1565b612ddd9190614158565b612cc59190614367565b60008385612df9896101800151611fe1565b612e039190614158565b612e0d9190614367565b13612e1c576000915050611678565b83612e2b876101800151611fe1565b612d399190614158565b80600003612e4257505050565b6000839050612e8982856001600160a01b031663313ce5676040518163ffffffff1660e01b8152600401602060405180830381865afa158015611c1c573d6000803e3d6000fd5b604080516001600160a01b03868116602483015260448083018590528351808403909101815260649092018352602080830180516001600160e01b031663a9059cbb60e01b17905283518085019094528084527f5361666545524332303a206c6f772d6c6576656c2063616c6c206661696c656490840152929450610912928416918691869161093d918591600090612f259084908490612fa5565b9050805160001480612f46575080806020019051810190612f469190614180565b61093d5760405162461bcd60e51b815260206004820152602a60248201527f5361666545524332303a204552433230206f7065726174696f6e20646964206e6044820152691bdd081cdd58d8d9595960b21b60648201526084016108ab565b6060611678848460008585600080866001600160a01b03168587604051612fcc9190614387565b60006040518083038185875af1925050503d8060008114613009576040519150601f19603f3d011682016040523d82523d6000602084013e61300e565b606091505b509150915061301f8783838761302a565b979650505050505050565b60608315613099578251600003613092576001600160a01b0385163b6130925760405162461bcd60e51b815260206004820152601d60248201527f416464726573733a2063616c6c20746f206e6f6e2d636f6e747261637400000060448201526064016108ab565b5081611678565b61167883838151156130ae5781518083602001fd5b8060405162461bcd60e51b81526004016108ab9190613142565b6000602082840312156130da57600080fd5b81356001600160e01b03198116811461260557600080fd5b60005b8381101561310d5781810151838201526020016130f5565b50506000910152565b6000815180845261312e8160208601602086016130f2565b601f01601f19169290920160200192915050565b6020815260006126056020830184613116565b634e487b7160e01b600052604160045260246000fd5b6040516101e081016001600160401b038111828210171561318e5761318e613155565b60405290565b6040516101a081016001600160401b038111828210171561318e5761318e613155565b60405161018081016001600160401b038111828210171561318e5761318e613155565b604051601f8201601f191681016001600160401b038111828210171561320257613202613155565b604052919050565b60ff81168114610c9457600080fd5b80356132248161320a565b919050565b63ffffffff81168114610c9457600080fd5b803561322481613229565b6001600160a01b0381168114610c9457600080fd5b803561322481613246565b65ffffffffffff81168114610c9457600080fd5b803561322481613266565b6001600160801b0381168114610c9457600080fd5b803561322481613285565b6001600160401b0381168114610c9457600080fd5b8035613224816132a5565b8015158114610c9457600080fd5b8035613224816132c5565b60006001600160401b038211156132f7576132f7613155565b5060051b60200190565b600082601f83011261331257600080fd5b81356020613327613322836132de565b6131da565b82815260059290921b8401810191818101908684111561334657600080fd5b8286015b84811015613361578035835291830191830161334a565b509695505050505050565b60006101e0828403121561337f57600080fd5b61338761316b565b90506133928261325b565b81526133a0602083016132d3565b6020820152604082013560408201526133bb606083016132d3565b60608201526133cc6080830161325b565b608082015260a082013560a082015260c082013560c082015260e082013560e08201526101006133fd8184016132d3565b9082015261012061340f838201613219565b908201526101406134218382016132ba565b90820152610160828101359082015261018080830135908201526101a0613449818401613219565b908201526101c0828101356001600160401b0381111561346857600080fd5b61347485828601613301565b82840152505092915050565b6000808284036101c081121561349557600080fd5b6101a0808212156134a557600080fd5b6134ad613194565b91506134b885613219565b82526134c66020860161323b565b60208301526134d760408601613219565b60408301526134e86060860161325b565b60608301526134f96080860161327a565b608083015261350a60a0860161329a565b60a083015261351b60c0860161329a565b60c083015261352c60e0860161329a565b60e083015261010061353f81870161329a565b908301526101206135518682016132ba565b908301526101406135638682016132ba565b9083015261016061357586820161329a565b9083015261018085810135908301529092508301356001600160401b0381111561359e57600080fd5b6135aa8582860161336c565b9150509250929050565b600080604083850312156135c757600080fd5b82356001600160401b038111156135dd57600080fd5b8301601f810185136135ee57600080fd5b803560206135fe613322836132de565b82815260059290921b8301810191818101908884111561361d57600080fd5b938201935b8385101561364457843561363581613246565b82529382019390820190613622565b955061365390508682016132d3565b93505050509250929050565b60006020828403121561367157600080fd5b5035919050565b6000806040838503121561368b57600080fd5b82359150602083013561369d81613246565b809150509250929050565b6000602082840312156136ba57600080fd5b813561260581613246565b600080604083850312156136d857600080fd5b82356136e3816132c5565b9150602083013561369d816132c5565b60008060006060848603121561370857600080fd5b8335613713816132c5565b92506020840135613723816132c5565b9150604084013561373381613246565b809150509250925092565b60006020828403121561375057600080fd5b81356001600160401b0381111561376657600080fd5b6116788482850161336c565b600181811c9082168061378657607f821691505b60208210810361243e57634e487b7160e01b600052602260045260246000fd5b634e487b7160e01b600052603260045260246000fd5b805161322481613246565b8051613224816132c5565b805161322481613229565b80516001600160d81b038116811461322457600080fd5b6000610180828403121561380757600080fd5b61380f6131b7565b613818836137bc565b8152613826602084016137c7565b6020820152613837604084016137d2565b6040820152613848606084016137dd565b60608201526080838101519082015260a0808401519082015260c0808401519082015260e08084015190820152610100808401519082015261012080840151908201526101408084015190820152610160928301519281019290925250919050565b6001600160a01b039687168152948616602086015292151560408501529084166060840152909216608082015260a081019190915260c00190565b6000602082840312156138f757600080fd5b5051919050565b80516132248161320a565b805161322481613266565b805161322481613285565b8051613224816132a5565b6000602080838503121561393d57600080fd5b82516001600160401b0381111561395357600080fd5b8301601f8101851361396457600080fd5b8051613972613322826132de565b8181526101a0918202830184019184820191908884111561399257600080fd5b938501935b83851015613a995780858a0312156139af5760008081fd5b6139b7613194565b6139c0866138fe565b81526139cd8787016137d2565b8782015260406139de8188016138fe565b9082015260606139ef8782016137bc565b908201526080613a00878201613909565b9082015260a0613a11878201613914565b9082015260c0613a22878201613914565b9082015260e0613a33878201613914565b90820152610100613a45878201613914565b90820152610120613a5787820161391f565b90820152610140613a6987820161391f565b90820152610160613a7b878201613914565b90820152610180868101519082015283529384019391850191613997565b50979650505050505050565b634e487b7160e01b600052602160045260246000fd5b634e487b7160e01b600052601160045260246000fd5b80820260008212600160ff1b84141615613aed57613aed613abb565b81810583148215176107c0576107c0613abb565b634e487b7160e01b600052601260045260246000fd5b600082613b2657613b26613b01565b600160ff1b821460001984141615613b4057613b40613abb565b500590565b60ff81811683821601908111156107c0576107c0613abb565b600060018201613b7057613b70613abb565b5060010190565b80820281158282048414176107c0576107c0613abb565b600082613b9d57613b9d613b01565b500490565b600081518084526020808501945080840160005b83811015613bd257815187529582019590820190600101613bb6565b509495945050505050565b80516001600160a01b0316825260006101e06020830151613c02602086018215159052565b50604083015160408501526060830151613c20606086018215159052565b506080830151613c3b60808601826001600160a01b03169052565b5060a083015160a085015260c083015160c085015260e083015160e085015261010080840151613c6e8287018215159052565b50506101208381015160ff90811691860191909152610140808501516001600160401b031690860152610160808501519086015261018080850151908601526101a080850151909116908501526101c080840151818601839052612d3983870182613ba2565b80516001600160a01b031682526020810151613cf4602084018215159052565b506040810151613d0c604084018263ffffffff169052565b506060810151613d2760608401826001600160d81b03169052565b506080818101519083015260a0808201519083015260c0808201519083015260e0808201519083015261010080820151908301526101208082015190830152610140808201519083015261016090810151910152565b60006101a0808352613d9181840186613bdd565b9150506126056020830184613cd4565b60006020808385031215613db457600080fd5b82516001600160401b03811115613dca57600080fd5b8301601f81018513613ddb57600080fd5b8051613de9613322826132de565b81815260059190911b82018301908381019087831115613e0857600080fd5b928401925b8284101561301f57835182529284019290840190613e0d565b60006101c0808352613e3a81840187613bdd565b9050613e496020840186613cd4565b8281036101a0840152612d398185613ba2565b600060208284031215613e6e57600080fd5b81516126058161320a565b818103818111156107c0576107c0613abb565b6001600160a01b03848116825283166020820152606060408201819052600090613eb890830184613ba2565b95945050505050565b600060608284031215613ed357600080fd5b604051606081018181106001600160401b0382111715613ef557613ef5613155565b6040528251613f03816132c5565b81526020830151613f13816132c5565b60208201526040830151613f26816132c5565b60408201529392505050565b6020815260008251613f4a60208401825160ff169052565b602081015163ffffffff8116604085015250604081015160ff811660608501525060608101516001600160a01b038116608085015250608081015165ffffffffffff811660a08501525060a08101516001600160801b03811660c08501525060c08101516001600160801b03811660e08501525060e0810151610100613fda818601836001600160801b03169052565b8201519050610120613ff6858201836001600160801b03169052565b8201519050610140614012858201836001600160401b03169052565b820151905061016061402e858201836001600160401b03169052565b820151905061018061404a858201836001600160801b03169052565b808301516101a08601525050506020830151610220806101c0850152614074610240850183613bdd565b9150604085015161408b6101e086018260ff169052565b506060850151848303601f19016102008601526140a88382613116565b925050608085015181850152508091505092915050565b7f416363657373436f6e74726f6c3a206163636f756e74200000000000000000008152600083516140f78160178501602088016130f2565b7001034b99036b4b9b9b4b733903937b6329607d1b60179184019182015283516141288160288401602088016130f2565b01602801949350505050565b6000806040838503121561414757600080fd5b505080516020909101519092909150565b808201828112600083128015821682158216171561417857614178613abb565b505092915050565b60006020828403121561419257600080fd5b8151612605816132c5565b6000600160ff1b82016141b2576141b2613abb565b5060000390565b600181815b808511156141f45781600019048211156141da576141da613abb565b808516156141e757918102915b93841c93908002906141be565b509250929050565b60008261420b575060016107c0565b81614218575060006107c0565b816001811461422e576002811461423857614254565b60019150506107c0565b60ff84111561424957614249613abb565b50506001821b6107c0565b5060208310610133831016604e8410600b8410161715614277575081810a6107c0565b61428183836141b9565b806000190482111561429557614295613abb565b029392505050565b600061260560ff8416836141fc565b600061260583836141fc565b60208152600082516102208060208501526142d7610240850183613bdd565b915060208501516142eb6040860182613cd4565b506040850151848303601f19016101c08601526143088382613ba2565b60608701516001600160a01b039081166101e088015260808801511661020087015260a0909601519190940152509192915050565b808201808211156107c0576107c0613abb565b60008161435f5761435f613abb565b506000190190565b81810360008312801583831316838312821617156129a2576129a2613abb565b600082516143998184602087016130f2565b919091019291505056fea2646970667358221220286f1967ebd88267e169004339ee6464a556a8d319638ede2c3f1a2478ac1eb064736f6c63430008110033",
    "linkReferences": {}
  },
  "methodIdentifiers": {
    "DEFAULT_ADMIN_ROLE()": "a217fddf",
    "PLUGIN_GAS_LIMIT()": "63cd8dbd",
    "collateralToken()": "b2016bd4",
    "collateralTokenDigits()": "b21dc9cb",
    "decreasePosition((address,bool,uint256,bool,address,uint256,uint256,uint256,bool,uint8,uint64,bytes32,uint256,uint8,uint256[]))": "abed9618",
    "execOrderKey((uint8,uint32,uint8,address,uint48,uint128,uint128,uint128,uint128,uint64,uint64,uint128,bytes32),(address,bool,uint256,bool,address,uint256,uint256,uint256,bool,uint8,uint64,bytes32,uint256,uint8,uint256[]))": "12de276c",
    "feeRouter()": "f29ebf61",
    "getRoleAdmin(bytes32)": "248a9ca3",
    "globalValid()": "c54dc3d6",
    "grantControllerRoleByMarketManager(address)": "7fe4a698",
    "grantRole(bytes32,address)": "2f2ff15d",
    "hasRole(bytes32,address)": "91d14854",
    "indexToken()": "e7d015f2",
    "liquidatePositions(address[],bool)": "12ec5d00",
    "marketRouter()": "d12dbde4",
    "marketValid()": "b894300d",
    "name()": "06fdde03",
    "orderBookLong()": "7b2fd1e5",
    "orderBookShort()": "05ba9ae9",
    "orderMgr()": "a0cbf50c",
    "orderStore(bool,bool)": "a2640454",
    "owner()": "8da5cb5b",
    "plugins(uint256)": "f0a317eb",
    "positionAddMgr()": "d49ff78d",
    "positionBook()": "ac0b05a6",
    "positionStoreLong()": "07e87545",
    "positionStoreShort()": "45ccf5c5",
    "positionSubMgr()": "8a6ca35d",
    "priceFeed()": "741bef1a",
    "renounceOwnership()": "715018a6",
    "renounceRole(bytes32,address)": "36568abe",
    "revokeRole(bytes32,address)": "d547741f",
    "setCollateralToken(address)": "666181a9",
    "setFeeRouter(address)": "c267ada4",
    "setIndexToken(address)": "b82a35c5",
    "setMarketValid(address)": "39955ed7",
    "setOraclePrice(address)": "af44f6b6",
    "setOrderStore(bool,bool,address)": "a620eb93",
    "setPositionBook(address)": "8d49701d",
    "setVaultRouter(address)": "780e72ff",
    "setorderBookLong(address)": "d7ec0a6d",
    "setorderBookShort(address)": "65e26e70",
    "supportsInterface(bytes4)": "01ffc9a7",
    "transferAdmin(address)": "75829def",
    "transferOwnership(address)": "f2fde38b",
    "vaultRouter()": "d37c441c"
  },
  "id": 54
}