{
  "abi": [
    {
      "inputs": [],
      "stateMutability": "nonpayable",
      "type": "constructor"
    },
    {
      "anonymous": false,
      "inputs": [
        {
          "indexed": false,
          "internalType": "uint8",
          "name": "version",
          "type": "uint8"
        }
      ],
      "name": "Initialized",
      "type": "event"
    },
    {
      "anonymous": false,
      "inputs": [
        {
          "indexed": true,
          "internalType": "address",
          "name": "previousOwner",
          "type": "address"
        },
        {
          "indexed": true,
          "internalType": "address",
          "name": "newOwner",
          "type": "address"
        }
      ],
      "name": "OwnershipTransferred",
      "type": "event"
    },
    {
      "anonymous": false,
      "inputs": [
        {
          "indexed": true,
          "internalType": "bytes32",
          "name": "role",
          "type": "bytes32"
        },
        {
          "indexed": true,
          "internalType": "bytes32",
          "name": "previousAdminRole",
          "type": "bytes32"
        },
        {
          "indexed": true,
          "internalType": "bytes32",
          "name": "newAdminRole",
          "type": "bytes32"
        }
      ],
      "name": "RoleAdminChanged",
      "type": "event"
    },
    {
      "anonymous": false,
      "inputs": [
        {
          "indexed": true,
          "internalType": "bytes32",
          "name": "role",
          "type": "bytes32"
        },
        {
          "indexed": true,
          "internalType": "address",
          "name": "account",
          "type": "address"
        },
        {
          "indexed": true,
          "internalType": "address",
          "name": "sender",
          "type": "address"
        }
      ],
      "name": "RoleGranted",
      "type": "event"
    },
    {
      "anonymous": false,
      "inputs": [
        {
          "indexed": true,
          "internalType": "bytes32",
          "name": "role",
          "type": "bytes32"
        },
        {
          "indexed": true,
          "internalType": "address",
          "name": "account",
          "type": "address"
        },
        {
          "indexed": true,
          "internalType": "address",
          "name": "sender",
          "type": "address"
        }
      ],
      "name": "RoleRevoked",
      "type": "event"
    },
    {
      "inputs": [],
      "name": "DEFAULT_ADMIN_ROLE",
      "outputs": [
        {
          "internalType": "bytes32",
          "name": "",
          "type": "bytes32"
        }
      ],
      "stateMutability": "view",
      "type": "function"
    },
    {
      "inputs": [],
      "name": "PLUGIN_GAS_LIMIT",
      "outputs": [
        {
          "internalType": "uint256",
          "name": "",
          "type": "uint256"
        }
      ],
      "stateMutability": "view",
      "type": "function"
    },
    {
      "inputs": [],
      "name": "collateralToken",
      "outputs": [
        {
          "internalType": "address",
          "name": "",
          "type": "address"
        }
      ],
      "stateMutability": "view",
      "type": "function"
    },
    {
      "inputs": [],
      "name": "collateralTokenDigits",
      "outputs": [
        {
          "internalType": "uint8",
          "name": "",
          "type": "uint8"
        }
      ],
      "stateMutability": "view",
      "type": "function"
    },
    {
      "inputs": [
        {
          "components": [
            {
              "internalType": "address",
              "name": "_market",
              "type": "address"
            },
            {
              "internalType": "bool",
              "name": "_isLong",
              "type": "bool"
            },
            {
              "internalType": "uint256",
              "name": "_oraclePrice",
              "type": "uint256"
            },
            {
              "internalType": "bool",
              "name": "isOpen",
              "type": "bool"
            },
            {
              "internalType": "address",
              "name": "_account",
              "type": "address"
            },
            {
              "internalType": "uint256",
              "name": "_sizeDelta",
              "type": "uint256"
            },
            {
              "internalType": "uint256",
              "name": "_price",
              "type": "uint256"
            },
            {
              "internalType": "uint256",
              "name": "_slippage",
              "type": "uint256"
            },
            {
              "internalType": "bool",
              "name": "_isExec",
              "type": "bool"
            },
            {
              "internalType": "uint8",
              "name": "liqState",
              "type": "uint8"
            },
            {
              "internalType": "uint64",
              "name": "_fromOrder",
              "type": "uint64"
            },
            {
              "internalType": "bytes32",
              "name": "_refCode",
              "type": "bytes32"
            },
            {
              "internalType": "uint256",
              "name": "collateralDelta",
              "type": "uint256"
            },
            {
              "internalType": "uint8",
              "name": "execNum",
              "type": "uint8"
            },
            {
              "internalType": "uint256[]",
              "name": "inputs",
              "type": "uint256[]"
            }
          ],
          "internalType": "struct MarketDataTypes.UpdatePositionInputs",
          "name": "_vars",
          "type": "tuple"
        }
      ],
      "name": "decreasePosition",
      "outputs": [],
      "stateMutability": "nonpayable",
      "type": "function"
    },
    {
      "inputs": [
        {
          "components": [
            {
              "internalType": "uint8",
              "name": "version",
              "type": "uint8"
            },
            {
              "internalType": "uint32",
              "name": "updatedAtBlock",
              "type": "uint32"
            },
            {
              "internalType": "uint8",
              "name": "triggerAbove",
              "type": "uint8"
            },
            {
              "internalType": "address",
              "name": "account",
              "type": "address"
            },
            {
              "internalType": "uint48",
              "name": "extra3",
              "type": "uint48"
            },
            {
              "internalType": "uint128",
              "name": "collateral",
              "type": "uint128"
            },
            {
              "internalType": "uint128",
              "name": "size",
              "type": "uint128"
            },
            {
              "internalType": "uint128",
              "name": "price",
              "type": "uint128"
            },
            {
              "internalType": "uint128",
              "name": "extra1",
              "type": "uint128"
            },
            {
              "internalType": "uint64",
              "name": "orderID",
              "type": "uint64"
            },
            {
              "internalType": "uint64",
              "name": "extra2",
              "type": "uint64"
            },
            {
              "internalType": "uint128",
              "name": "extra0",
              "type": "uint128"
            },
            {
              "internalType": "bytes32",
              "name": "refCode",
              "type": "bytes32"
            }
          ],
          "internalType": "struct Order.Props",
          "name": "order",
          "type": "tuple"
        },
        {
          "components": [
            {
              "internalType": "address",
              "name": "_market",
              "type": "address"
            },
            {
              "internalType": "bool",
              "name": "_isLong",
              "type": "bool"
            },
            {
              "internalType": "uint256",
              "name": "_oraclePrice",
              "type": "uint256"
            },
            {
              "internalType": "bool",
              "name": "isOpen",
              "type": "bool"
            },
            {
              "internalType": "address",
              "name": "_account",
              "type": "address"
            },
            {
              "internalType": "uint256",
              "name": "_sizeDelta",
              "type": "uint256"
            },
            {
              "internalType": "uint256",
              "name": "_price",
              "type": "uint256"
            },
            {
              "internalType": "uint256",
              "name": "_slippage",
              "type": "uint256"
            },
            {
              "internalType": "bool",
              "name": "_isExec",
              "type": "bool"
            },
            {
              "internalType": "uint8",
              "name": "liqState",
              "type": "uint8"
            },
            {
              "internalType": "uint64",
              "name": "_fromOrder",
              "type": "uint64"
            },
            {
              "internalType": "bytes32",
              "name": "_refCode",
              "type": "bytes32"
            },
            {
              "internalType": "uint256",
              "name": "collateralDelta",
              "type": "uint256"
            },
            {
              "internalType": "uint8",
              "name": "execNum",
              "type": "uint8"
            },
            {
              "internalType": "uint256[]",
              "name": "inputs",
              "type": "uint256[]"
            }
          ],
          "internalType": "struct MarketDataTypes.UpdatePositionInputs",
          "name": "_params",
          "type": "tuple"
        }
      ],
      "name": "execOrderKey",
      "outputs": [],
      "stateMutability": "nonpayable",
      "type": "function"
    },
    {
      "inputs": [],
      "name": "feeRouter",
      "outputs": [
        {
          "internalType": "contract IFeeRouter",
          "name": "",
          "type": "address"
        }
      ],
      "stateMutability": "view",
      "type": "function"
    },
    {
      "inputs": [
        {
          "internalType": "bytes32",
          "name": "role",
          "type": "bytes32"
        }
      ],
      "name": "getRoleAdmin",
      "outputs": [
        {
          "internalType": "bytes32",
          "name": "",
          "type": "bytes32"
        }
      ],
      "stateMutability": "view",
      "type": "function"
    },
    {
      "inputs": [],
      "name": "globalValid",
      "outputs": [
        {
          "internalType": "address",
          "name": "",
          "type": "address"
        }
      ],
      "stateMutability": "view",
      "type": "function"
    },
    {
      "inputs": [
        {
          "internalType": "address",
          "name": "_account",
          "type": "address"
        }
      ],
      "name": "grantControllerRoleByMarketManager",
      "outputs": [],
      "stateMutability": "nonpayable",
      "type": "function"
    },
    {
      "inputs": [
        {
          "internalType": "bytes32",
          "name": "role",
          "type": "bytes32"
        },
        {
          "internalType": "address",
          "name": "account",
          "type": "address"
        }
      ],
      "name": "grantRole",
      "outputs": [],
      "stateMutability": "nonpayable",
      "type": "function"
    },
    {
      "inputs": [
        {
          "internalType": "bytes32",
          "name": "role",
          "type": "bytes32"
        },
        {
          "internalType": "address",
          "name": "account",
          "type": "address"
        }
      ],
      "name": "hasRole",
      "outputs": [
        {
          "internalType": "bool",
          "name": "",
          "type": "bool"
        }
      ],
      "stateMutability": "view",
      "type": "function"
    },
    {
      "inputs": [],
      "name": "indexToken",
      "outputs": [
        {
          "internalType": "address",
          "name": "",
          "type": "address"
        }
      ],
      "stateMutability": "view",
      "type": "function"
    },
    {
      "inputs": [
        {
          "internalType": "address[]",
          "name": "accounts",
          "type": "address[]"
        },
        {
          "internalType": "bool",
          "name": "_isLong",
          "type": "bool"
        }
      ],
      "name": "liquidatePositions",
      "outputs": [],
      "stateMutability": "nonpayable",
      "type": "function"
    },
    {
      "inputs": [],
      "name": "marketRouter",
      "outputs": [
        {
          "internalType": "address",
          "name": "",
          "type": "address"
        }
      ],
      "stateMutability": "view",
      "type": "function"
    },
    {
      "inputs": [],
      "name": "marketValid",
      "outputs": [
        {
          "internalType": "address",
          "name": "",
          "type": "address"
        }
      ],
      "stateMutability": "view",
      "type": "function"
    },
    {
      "inputs": [],
      "name": "name",
      "outputs": [
        {
          "internalType": "string",
          "name": "",
          "type": "string"
        }
      ],
      "stateMutability": "view",
      "type": "function"
    },
    {
      "inputs": [],
      "name": "orderBookLong",
      "outputs": [
        {
          "internalType": "contract IOrderBook",
          "name": "",
          "type": "address"
        }
      ],
      "stateMutability": "view",
      "type": "function"
    },
    {
      "inputs": [],
      "name": "orderBookShort",
      "outputs": [
        {
          "internalType": "contract IOrderBook",
          "name": "",
          "type": "address"
        }
      ],
      "stateMutability": "view",
      "type": "function"
    },
    {
      "inputs": [],
      "name": "orderMgr",
      "outputs": [
        {
          "internalType": "address",
          "name": "",
          "type": "address"
        }
      ],
      "stateMutability": "view",
      "type": "function"
    },
    {
      "inputs": [
        {
          "internalType": "bool",
          "name": "isLong",
          "type": "bool"
        },
        {
          "internalType": "bool",
          "name": "isOpen",
          "type": "bool"
        }
      ],
      "name": "orderStore",
      "outputs": [
        {
          "internalType": "contract IOrderStore",
          "name": "",
          "type": "address"
        }
      ],
      "stateMutability": "view",
      "type": "function"
    },
    {
      "inputs": [],
      "name": "owner",
      "outputs": [
        {
          "internalType": "address",
          "name": "",
          "type": "address"
        }
      ],
      "stateMutability": "view",
      "type": "function"
    },
    {
      "inputs": [
        {
          "internalType": "uint256",
          "name": "",
          "type": "uint256"
        }
      ],
      "name": "plugins",
      "outputs": [
        {
          "internalType": "address",
          "name": "",
          "type": "address"
        }
      ],
      "stateMutability": "view",
      "type": "function"
    },
    {
      "inputs": [],
      "name": "positionAddMgr",
      "outputs": [
        {
          "internalType": "address",
          "name": "",
          "type": "address"
        }
      ],
      "stateMutability": "view",
      "type": "function"
    },
    {
      "inputs": [],
      "name": "positionBook",
      "outputs": [
        {
          "internalType": "contract IPositionBook",
          "name": "",
          "type": "address"
        }
      ],
      "stateMutability": "view",
      "type": "function"
    },
    {
      "inputs": [],
      "name": "positionStoreLong",
      "outputs": [
        {
          "internalType": "address",
          "name": "",
          "type": "address"
        }
      ],
      "stateMutability": "view",
      "type": "function"
    },
    {
      "inputs": [],
      "name": "positionStoreShort",
      "outputs": [
        {
          "internalType": "address",
          "name": "",
          "type": "address"
        }
      ],
      "stateMutability": "view",
      "type": "function"
    },
    {
      "inputs": [],
      "name": "positionSubMgr",
      "outputs": [
        {
          "internalType": "address",
          "name": "",
          "type": "address"
        }
      ],
      "stateMutability": "view",
      "type": "function"
    },
    {
      "inputs": [],
      "name": "priceFeed",
      "outputs": [
        {
          "internalType": "address",
          "name": "",
          "type": "address"
        }
      ],
      "stateMutability": "view",
      "type": "function"
    },
    {
      "inputs": [],
      "name": "renounceOwnership",
      "outputs": [],
      "stateMutability": "nonpayable",
      "type": "function"
    },
    {
      "inputs": [
        {
          "internalType": "bytes32",
          "name": "",
          "type": "bytes32"
        },
        {
          "internalType": "address",
          "name": "",
          "type": "address"
        }
      ],
      "name": "renounceRole",
      "outputs": [],
      "stateMutability": "nonpayable",
      "type": "function"
    },
    {
      "inputs": [
        {
          "internalType": "bytes32",
          "name": "role",
          "type": "bytes32"
        },
        {
          "internalType": "address",
          "name": "account",
          "type": "address"
        }
      ],
      "name": "revokeRole",
      "outputs": [],
      "stateMutability": "nonpayable",
      "type": "function"
    },
    {
      "inputs": [
        {
          "internalType": "bytes4",
          "name": "interfaceId",
          "type": "bytes4"
        }
      ],
      "name": "supportsInterface",
      "outputs": [
        {
          "internalType": "bool",
          "name": "",
          "type": "bool"
        }
      ],
      "stateMutability": "view",
      "type": "function"
    },
    {
      "inputs": [
        {
          "internalType": "address",
          "name": "to",
          "type": "address"
        }
      ],
      "name": "transferAdmin",
      "outputs": [],
      "stateMutability": "nonpayable",
      "type": "function"
    },
    {
      "inputs": [
        {
          "internalType": "address",
          "name": "newOwner",
          "type": "address"
        }
      ],
      "name": "transferOwnership",
      "outputs": [],
      "stateMutability": "nonpayable",
      "type": "function"
    },
    {
      "inputs": [],
      "name": "vaultRouter",
      "outputs": [
        {
          "internalType": "address",
          "name": "",
          "type": "address"
        }
      ],
      "stateMutability": "view",
      "type": "function"
    }
  ],
  "bytecode": {
    "object": "0x60806040523480156200001157600080fd5b5060016046556000620000243362000041565b6200003a816200009360201b62000a2f1760201c565b5062000173565b604880546001600160a01b038381166001600160a01b0319831681179093556040519116919082907f8be0079c531659141344cd1fd0a4f28419497f9722a3daafe3b4186f6b6457e090600090a35050565b42604955620000a23362000041565b620000af600033620000bf565b620000bc600082620000bf565b50565b620000cb8282620000cf565b5050565b60008281526047602090815260408083206001600160a01b038516845290915290205460ff16620000cb5760008281526047602090815260408083206001600160a01b03851684529091529020805460ff191660011790556200012f3390565b6001600160a01b0316816001600160a01b0316837f2f8788117e7eff1d82e926ec794901d17c78024a50270940304540a733656f0d60405160405180910390a45050565b61412680620001836000396000f3fe608060405234801561001057600080fd5b506004361061021c5760003560e01c806391d1485411610125578063c54dc3d6116100ad578063d547741f1161007c578063d547741f146104c8578063e7d015f2146104db578063f0a317eb146104ee578063f29ebf6114610501578063f2fde38b1461051457600080fd5b8063c54dc3d61461047c578063d12dbde41461048f578063d37c441c146104a2578063d49ff78d146104b557600080fd5b8063abed9618116100f4578063abed961814610411578063ac0b05a614610424578063b2016bd414610437578063b21dc9cb1461044a578063b894300d1461046957600080fd5b806391d14854146103ab578063a0cbf50c146103be578063a217fddf146103d1578063a2640454146103d957600080fd5b806345ccf5c5116101a857806375829def1161017757806375829def1461034e5780637b2fd1e5146103615780637fe4a698146103745780638a6ca35d146103875780638da5cb5b1461039a57600080fd5b806345ccf5c51461031657806363cd8dbd14610329578063715018a614610333578063741bef1a1461033b57600080fd5b806312de276c116101ef57806312de276c1461029c57806312ec5d00146102b1578063248a9ca3146102c45780632f2ff15d146102f557806336568abe1461030857600080fd5b806301ffc9a71461022157806305ba9ae91461024957806306fdde031461027457806307e8754514610289575b600080fd5b61023461022f366004612e60565b610527565b60405190151581526020015b60405180910390f35b60065461025c906001600160a01b031681565b6040516001600160a01b039091168152602001610240565b61027c61055e565b6040516102409190612eda565b600a5461025c906001600160a01b031681565b6102af6102aa366004613218565b6105ec565b005b6102af6102bf36600461334c565b61066c565b6102e76102d23660046133f7565b60009081526047602052604090206001015490565b604051908152602001610240565b6102af610303366004613410565b6106b0565b6102af61021c366004613410565b600b5461025c906001600160a01b031681565b6102e7620a2c2a81565b6102af6106da565b60095461025c906001600160a01b031681565b6102af61035c366004613440565b6106ee565b60055461025c906001600160a01b031681565b6102af610382366004613440565b61075e565b600e5461025c906001600160a01b031681565b6048546001600160a01b031661025c565b6102346103b9366004613410565b610788565b600f5461025c906001600160a01b031681565b6102e7600081565b61025c6103e736600461345d565b9015156000908152600760209081526040808320931515835292905220546001600160a01b031690565b6102af61041f36600461348b565b6107b3565b60035461025c906001600160a01b031681565b60045461025c906001600160a01b031681565b6013546104579060ff1681565b60405160ff9091168152602001610240565b60005461025c906001600160a01b031681565b60015461025c906001600160a01b031681565b60105461025c906001600160a01b031681565b600c5461025c906001600160a01b031681565b600d5461025c906001600160a01b031681565b6102af6104d6366004613410565b610967565b60025461025c906001600160a01b031681565b61025c6104fc3660046133f7565b61098c565b60085461025c906001600160a01b031681565b6102af610522366004613440565b6109b6565b60006001600160e01b03198216637965db0b60e01b148061055857506301ffc9a760e01b6001600160e01b03198316145b92915050565b6011805461056b906134bf565b80601f0160208091040260200160405190810160405280929190818152602001828054610597906134bf565b80156105e45780601f106105b9576101008083540402835291602001916105e4565b820191906000526020600020905b8154815290600101906020018083116105c757829003601f168201915b505050505081565b6105f582610a52565b60608101511561064c5760405162461bcd60e51b815260206004820152601f60248201527f506f736974696f6e5375624d67723a696e76616c696420696e6372656173650060448201526064015b60405180910390fd5b61065e82606001518260200151610af2565b6106688282610bd9565b5050565b815160005b818110156106aa57600084828151811061068d5761068d6134f3565b602002602001015190506106a18185610f3e565b50600101610671565b50505050565b6000828152604760205260409020600101546106cb81611182565b6106d5838361118c565b505050565b6106e2611212565b6106ec600061126c565b565b60006106f981611182565b6001600160a01b03821661073f5760405162461bcd60e51b815260206004820152600d60248201526c217a65726f206164647265737360981b6044820152606401610643565b61074a6000836112be565b6107538261126c565b6106686000336112c8565b7f8d1089725c0dc266707fa6207730fb801dcd03108bfed7a21099bd303651d2b761021c81611182565b60009182526047602090815260408084206001600160a01b0393909316845291905290205460ff1690565b6060810151156107fd5760405162461bcd60e51b81526020600482015260156024820152742837b9b4ba34b7b729bab126b3b91d34b9a7b832b760591b6044820152606401610643565b80610100015115801561081c57506101408101516001600160401b0316155b6108765760405162461bcd60e51b815260206004820152602560248201527f506f736974696f6e5375624d67723a77726f6e67206973657865632f66726f6d60448201526437b93232b960d91b6064820152608401610643565b8060e0015160000361088a57601e60e08201525b610897816020015161132f565b604082810182905260035460808401516020850151925163bc95baad60e01b81526001600160a01b0391821660048201526024810194909452911515604484015260009291169063bc95baad9060640161018060405180830381865afa158015610905573d6000803e3d6000fd5b505050506040513d601f19601f820116820180604052508101906109299190613541565b60a08301519091501561095d57610956610942836113ab565b82608001518460a001518460a001516113e8565b6101808301525b6106688282611418565b60008281526047602052604090206001015461098281611182565b6106d583836112c8565b6012818154811061099c57600080fd5b6000918252602090912001546001600160a01b0316905081565b6109be611212565b6001600160a01b038116610a235760405162461bcd60e51b815260206004820152602660248201527f4f776e61626c653a206e6577206f776e657220697320746865207a65726f206160448201526564647265737360d01b6064820152608401610643565b610a2c8161126c565b50565b42604955610a3c3361126c565b610a476000336112be565b610a2c6000826112be565b60608101516001600160a01b0316610aa05760405162461bcd60e51b8152602060048201526011602482015270696e76616c6964206f72646572206b657960781b6044820152606401610643565b8061012001516001600160401b0316600003610a2c5760405162461bcd60e51b8152602060048201526011602482015270696e76616c6964206f72646572206b657960781b6044820152606401610643565b6000546003546008546001600160a01b0392831692631f21756a9286923092879281169116610b208361132f565b6040518763ffffffff1660e01b8152600401610b41969594939291906135f7565b602060405180830381865afa158015610b5e573d6000803e3d6000fd5b505050506040513d601f19601f82011682018060405250810190610b829190613632565b156106685760405162461bcd60e51b815260206004820152602160248201527f506f736974696f6e5375624d67723a706f736974696f6e20756e646572206c696044820152607160f81b6064820152608401610643565b610be6816020015161132f565b604082810182905260035460608501516020850151925163bc95baad60e01b81526001600160a01b0391821660048201526024810194909452911515604484015260009291169063bc95baad9060640161018060405180830381865afa158015610c54573d6000803e3d6000fd5b505050506040513d601f19601f82011682018060405250810190610c789190613541565b905060008260200151610c96576006546001600160a01b0316610ca3565b6005546001600160a01b03165b6001600160a01b03166345824d67610cba86611d15565b6040516001600160e01b031960e084901b1681526004810191909152600060248201526044016000604051808303816000875af1158015610cff573d6000803e3d6000fd5b505050506040513d6000823e601f3d908101601f19168201604052610d279190810190613677565b905060006001600160a01b031681600081518110610d4757610d476134f3565b6020026020010151606001516001600160a01b031603610da15760405162461bcd60e51b81526020600482015260156024820152746f72646572206163636f756e74206973207a65726f60581b6044820152606401610643565b60005b8151811015610f33576000828281518110610dc157610dc16134f3565b6020026020010151905080606001516001600160a01b031660006001600160a01b031603610def5750610f21565b610efc6040518060a0016040528083815260200187815260200184600014610e18576004610e1b565b60035b6007811115610e2c57610e2c6137f2565b60ff168152604080516020818101835260008252830152018415610e51576000610e85565b610e5e8760800151611d79565b610e6b8960a00151611d79565b886101000151610e7b919061381e565b610e859190613864565b815250620a2c2a6012805480602002602001604051908101604052809291908181526020018280548015610ee257602002820191906000526020600020905b81546001600160a01b03168152600190910190602001808311610ec4575b50506004546001600160a01b03169250309150611de79050565b81600003610f1f576001856101a001818151610f189190613892565b60ff169052505b505b80610f2b816138ab565b915050610da4565b506106aa8383611418565b604080516101e08101825260008082526020820181905291810182905260608082018390526080820183905260a0820183905260c0820183905260e08201839052610100820183905261012082018390526101408201839052610160820183905261018082018390526101a082018390526101c082015290610fc1908290612034565b610fca8261132f565b60408281018290526001600160a01b0385811660808501819052600161010086015285151560208601819052600354935163bc95baad60e01b815260048101929092526024820194909452604481019390935260009291169063bc95baad9060640161018060405180830381865afa15801561104a573d6000803e3d6000fd5b505050506040513d601f19601f8201168201806040525081019061106e9190613541565b608081015160a080850191909152810151610180840152308352905061109c6000546001600160a01b031690565b6003546008546040858101519051630f90bab560e11b81526001600160a01b0394851694631f21756a946110e0948b9430948c9493841693909216916004016135f7565b602060405180830381865afa1580156110fd573d6000803e3d6000fd5b505050506040513d601f19601f820116820180604052508101906111219190613632565b60ff1661012083018190526111785760405162461bcd60e51b815260206004820152601c60248201527f506f736974696f6e5375624d67723a73686f756c64276e74206c6971000000006044820152606401610643565b6106aa8282611418565b610a2c8133612061565b6111968282610788565b6106685760008281526047602090815260408083206001600160a01b03851684529091529020805460ff191660011790556111ce3390565b6001600160a01b0316816001600160a01b0316837f2f8788117e7eff1d82e926ec794901d17c78024a50270940304540a733656f0d60405160405180910390a45050565b6048546001600160a01b031633146106ec5760405162461bcd60e51b815260206004820181905260248201527f4f776e61626c653a2063616c6c6572206973206e6f7420746865206f776e65726044820152606401610643565b604880546001600160a01b038381166001600160a01b0319831681179093556040519116919082907f8be0079c531659141344cd1fd0a4f28419497f9722a3daafe3b4186f6b6457e090600090a35050565b610668828261118c565b6112d28282610788565b156106685760008281526047602090815260408083206001600160a01b0385168085529252808320805460ff1916905551339285917ff6391f5c32d9c69d2a47ea670b442974b53935d1edc7fd64eb21e047a839171b9190a45050565b6009546002546040516303b6b4bb60e51b81526001600160a01b0391821660048201528315602482015260009291909116906376d6976090604401602060405180830381865afa158015611387573d6000803e3d6000fd5b505050506040513d601f19601f820116820180604052508101906105589190613632565b60006001826101c00151511015801561055857506000826101c001516000815181106113d9576113d96134f3565b60200260200101511192915050565b6000841561140c57836113fb84846138c4565b61140591906138db565b9050611410565b5060005b949350505050565b60808101511580611434575060808201516001600160a01b0316155b1561143d575050565b600354600854611459916001600160a01b0390811691166120ba565b60a0820151608082015114801561167c5761012083015160029060ff1660010361148557506001611499565b83610120015160ff16600203611499575060075b600084602001516114b5576006546001600160a01b03166114c2565b6005546001600160a01b03165b60808601516040516307380adf60e41b81526000600482018190526001600160a01b03928316602483015292935090831690637380adf0906044016000604051808303816000875af115801561151c573d6000803e3d6000fd5b505050506040513d6000823e601f3d908101601f191682016040526115449190810190613677565b905060005b8151811015611677576000828281518110611566576115666134f3565b6020026020010151905060006001600160a01b031681606001516001600160a01b0316036115945750611665565b6001886101a0018181516115a89190613892565b60ff169052506040805160a081018252828152602081018a90526116639181018760078111156115da576115da6137f2565b60ff16815260408051602081810183526000808352818501929092529282015260128054825181850281018501909352808352620a2c2a93830182828015610ee2576020028201919060005260206000209081546001600160a01b03168152600190910190602001808311610ec45750506004546001600160a01b03169250309150611de79050565b505b8061166f816138ab565b915050611549565b505050505b308352600854604051634151026360e01b81526000916001600160a01b0316906341510263906116b29087908790600401613aca565b600060405180830381865afa1580156116cf573d6000803e3d6000fd5b505050506040513d6000823e601f3d908101601f191682016040526116f79190810190613aee565b9050600061170d6000546001600160a01b031690565b90508460a001516000036117aa5760a0840151610180860151608086015160405163393ab2bd60e21b815260048082015260248101939093526044830191909152606482015260006084820181905260a48201526001600160a01b0382169063e4eacaf49060c40160006040518083038186803b15801561178d57600080fd5b505afa1580156117a1573d6000803e3d6000fd5b5050505061180b565b60405163fc54d91d60e01b81526001600160a01b0382169063fc54d91d906117da90889088908790600401613b73565b60006040518083038186803b1580156117f257600080fd5b505afa158015611806573d6000803e3d6000fd5b505050505b60a0850151600090156118b057600354608087015160a08801516040808a015160208b0151915163f3ec823d60e01b81526001600160a01b039485166004820152602481019390935260448301521515606482015291169063f3ec823d90608401602060405180830381865afa158015611889573d6000803e3d6000fd5b505050506040513d601f19601f820116820180604052508101906118ad9190613632565b90505b610100850181905260006118c384612190565b905060006118d3888885856121dc565b5060085460208a01516040516334f32e2560e01b815230600482015290151560248201529192506000916001600160a01b03909116906334f32e2590604401602060405180830381865afa15801561192f573d6000803e3d6000fd5b505050506040513d601f19601f820116820180604052508101906119539190613632565b600c5460a08b0151600480546040805163313ce56760e01b815290519596506001600160a01b039485169563e108262f956119dd959493169263313ce567928082019260209290918290030181865afa1580156119b4573d6000803e3d6000fd5b505050506040513d601f19601f820116820180604052508101906119d89190613ba9565b61236d565b6040518263ffffffff1660e01b81526004016119fb91815260200190565b600060405180830381600087803b158015611a1557600080fd5b505af1158015611a29573d6000803e3d6000fd5b505060035460808c0151600093506001600160a01b03909116915063e62c0edf908a611a6457858c60a00151611a5f9190613bc6565b611a6a565b8b60a001515b60a08e015160208f01516040516001600160e01b031960e087901b1681526001600160a01b03909416600485015260248401929092526044830152606482018690521515608482015260a401610180604051808303816000875af1158015611ad6573d6000803e3d6000fd5b505050506040513d601f19601f82011682018060405250810190611afa9190613541565b9050611b0e6000546001600160a01b031690565b608082015160a083015160405163056b460360e31b8152600481019290925260248201526001600160a01b039190911690632b5a30189060440160006040518083038186803b158015611b6057600080fd5b505afa158015611b74573d6000803e3d6000fd5b5050505089610120015160ff166001141580611b99575089610120015160ff16600214155b8015611bad575088608001518a60a0015114155b15611bc457611bc48a608001518b60200151610af2565b60085460808b01516004805460405163e50f19ef60e01b81526001600160a01b039485169463e50f19ef94611c01949093909116918d9101613bd9565b600060405180830381600087803b158015611c1b57600080fd5b505af1158015611c2f573d6000803e3d6000fd5b50506040805160c0810182528d8152602081018d90529081018a90526004546001600160a01b039081166060830152600254166080820152611d099250905060a081018a611c8c57858c60a00151611c879190613bc6565b611c92565b8b60a001515b815250620a2c2a6012805480602002602001604051908101604052809291908181526020018280548015611cef57602002820191906000526020600020905b81546001600160a01b03168152600190910190602001808311611cd1575b50506004546001600160a01b031692503091506123a49050565b50505050505050505050565b600061055882606001518361012001516040516bffffffffffffffffffffffff19606084901b1660208201526001600160c01b031960c083901b166034820152600090603c0160405160208183030381529060405280519060200120905092915050565b60006001600160ff1b03821115611de35760405162461bcd60e51b815260206004820152602860248201527f53616665436173743a2076616c756520646f65736e27742066697420696e2061604482015267371034b73a191a9b60c11b6064820152608401610643565b5090565b6040516370a0823160e01b81526001600160a01b038281166004830152600091908416906370a0823190602401602060405180830381865afa158015611e31573d6000803e3d6000fd5b505050506040513d601f19601f82011682018060405250810190611e559190613632565b905060005b8451811015611f6b57848181518110611e7557611e756134f3565b60200260200101516001600160a01b031663612c39b76040518163ffffffff1660e01b8152600401606060405180830381865afa158015611eba573d6000803e3d6000fd5b505050506040513d601f19601f82011682018060405250810190611ede9190613c0e565b6040015115611f5957848181518110611ef957611ef96134f3565b60200260200101516001600160a01b031663718cb58a886040518263ffffffff1660e01b8152600401611f2c9190613c7f565b600060405180830381600087803b158015611f4657600080fd5b505af1925050508015611f57575060015b505b80611f63816138ab565b915050611e5a565b506040516370a0823160e01b81526001600160a01b038381166004830152600091908516906370a0823190602401602060405180830381865afa158015611fb6573d6000803e3d6000fd5b505050506040513d601f19601f82011682018060405250810190611fda9190613632565b905081811461202b5760405162461bcd60e51b815260206004820152601b60248201527f455243323020746f6b656e2062616c616e6365206368616e67656400000000006044820152606401610643565b50505050505050565b60408051600280825260608201835290916020830190803683375050506101c08301521515606090910152565b61206b8282610788565b6106685761207881612525565b612083836020612537565b604051602001612094929190613e0c565b60408051601f198184030181529082905262461bcd60e51b825261064391600401612eda565b600080836001600160a01b0316638749694a6040518163ffffffff1660e01b81526004016040805180830381865afa1580156120fa573d6000803e3d6000fd5b505050506040513d601f19601f8201168201806040525081019061211e9190613e81565b60405163c6f83ad160e01b8152306004820152602481018390526044810182905291935091506001600160a01b0384169063c6f83ad190606401600060405180830381600087803b15801561217257600080fd5b505af1158015612186573d6000803e3d6000fd5b5050505050505050565b6000805b82518110156121d6578281815181106121af576121af6134f3565b6020026020010151826121c29190613ea5565b9150806121ce816138ab565b915050612194565b50919050565b60045460009081906001600160a01b031680826121fa8888886126d2565b905060008113156122de57600061225a61221383612741565b600480546040805163313ce56760e01b815290516001600160a01b039092169263313ce5679282820192602092908290030181865afa1580156119b4573d6000803e3d6000fd5b6004805460085460405163095ea7b360e01b81526001600160a01b039182169381019390935260248301849052929350919091169063095ea7b3906044016020604051808303816000875af11580156122b7573d6000803e3d6000fd5b505050506040513d601f19601f820116820180604052508101906122db9190613ecd565b50505b60006122ea8989612793565b90506000811315612304576122ff83826127d3565b61232c565b61232c843061231284613eea565b601354600c5460ff909116906001600160a01b03166128c6565b6123388a8a8a8a6129a5565b95506123468a8a8a8a612adb565b9450600085131561236057612360848b6080015187612bcd565b5050505094509492505050565b600061237b6012600a613fea565b61238960ff8416600a613ff9565b61239390856138c4565b61239d91906138db565b9392505050565b6040516370a0823160e01b81526001600160a01b038281166004830152600091908416906370a0823190602401602060405180830381865afa1580156123ee573d6000803e3d6000fd5b505050506040513d601f19601f820116820180604052508101906124129190613632565b905060005b8451811015611f6b57848181518110612432576124326134f3565b60200260200101516001600160a01b031663612c39b76040518163ffffffff1660e01b8152600401606060405180830381865afa158015612477573d6000803e3d6000fd5b505050506040513d601f19601f8201168201806040525081019061249b9190613c0e565b5115612513578481815181106124b3576124b36134f3565b60200260200101516001600160a01b03166340a542fe886040518263ffffffff1660e01b81526004016124e69190614005565b600060405180830381600087803b15801561250057600080fd5b505af1925050508015612511575060015b505b8061251d816138ab565b915050612417565b60606105586001600160a01b03831660145b606060006125468360026138c4565b61255190600261408a565b6001600160401b0381111561256857612568612eed565b6040519080825280601f01601f191660200182016040528015612592576020820181803683370190505b509050600360fc1b816000815181106125ad576125ad6134f3565b60200101906001600160f81b031916908160001a905350600f60fb1b816001815181106125dc576125dc6134f3565b60200101906001600160f81b031916908160001a90535060006126008460026138c4565b61260b90600161408a565b90505b6001811115612683576f181899199a1a9b1b9c1cb0b131b232b360811b85600f166010811061263f5761263f6134f3565b1a60f81b828281518110612655576126556134f3565b60200101906001600160f81b031916908160001a90535060049490941c9361267c8161409d565b905061260e565b50831561239d5760405162461bcd60e51b815260206004820181905260248201527f537472696e67733a20686578206c656e67746820696e73756666696369656e746044820152606401610643565b6000826126e28560a00151611d79565b6126ec9190613ea5565b82131561273a576000836127038660a00151611d79565b61270d9190613ea5565b131561273257826127218560a00151611d79565b61272b9190613ea5565b905061239d565b50600061239d565b5092915050565b600080821215611de35760405162461bcd60e51b815260206004820181905260248201527f53616665436173743a2076616c7565206d75737420626520706f7369746976656044820152606401610643565b600080826127a48560a00151611d79565b6127ae9190613ea5565b136127c7576127c08360a00151611d79565b9050610558565b61239d8260001961381e565b6013546127e490829060ff1661236d565b600c5460405163095ea7b360e01b81526001600160a01b0391821660048201526024810183905291925083169063095ea7b3906044016020604051808303816000875af1158015612839573d6000803e3d6000fd5b505050506040513d601f19601f8201168201806040525081019061285d9190613ecd565b50600c546040516344d38fd560e11b8152306004820152602481018390526001600160a01b03909116906389a71faa90604401600060405180830381600087803b1580156128aa57600080fd5b505af11580156128be573d6000803e3d6000fd5b505050505050565b6001600160a01b03841661291c5760405162461bcd60e51b815260206004820152601a60248201527f7661756c7457697468647261773a21757365724163636f756e740000000000006044820152606401610643565b600083131561299e57806001600160a01b031663da8ddc748561293f868661236d565b6040516001600160e01b031960e085901b1681526001600160a01b0390921660048301526024820152604401600060405180830381600087803b15801561298557600080fd5b505af1158015612999573d6000803e3d6000fd5b505050505b5050505050565b60a084015160808401516000911480156129c55760a08501516101808701525b600086610120015160ff1611806129d95750805b156129e8576000915050611410565b600083856129f98860a00151611d79565b612a039190613ea5565b612a0d91906140b4565b13612a1c576000915050611410565b60008385612a2e896101800151611d79565b612a389190613ea5565b612a4291906140b4565b1315612a65578561018001518560a00151612a5d9190613bc6565b915050611410565b60008385612a77896101800151611d79565b612a819190613ea5565b612a8b91906140b4565b1215612abc57612a5d8385612aa38860a00151611d79565b612aad9190613ea5565b612ab791906140b4565b612741565b8561018001518560a00151612ad19190613bc6565b9695505050505050565b60a08401516080840151600091148015612afb5760a08501516101808701525b60008385612b0c8860a00151611d79565b612b169190613ea5565b612b2091906140b4565b13612b2f576000915050611410565b60008385612b41896101800151611d79565b612b4b9190613ea5565b612b5591906140b4565b1315612b7f578284612b6b886101800151611d79565b612b759190613ea5565b612a5d91906140b4565b60008385612b91896101800151611d79565b612b9b9190613ea5565b612ba591906140b4565b13612bb4576000915050611410565b83612bc3876101800151611d79565b612ad19190613ea5565b80600003612bda57505050565b6000839050612c2182856001600160a01b031663313ce5676040518163ffffffff1660e01b8152600401602060405180830381865afa1580156119b4573d6000803e3d6000fd5b604080516001600160a01b03868116602483015260448083018590528351808403909101815260649092018352602080830180516001600160e01b031663a9059cbb60e01b17905283518085019094528084527f5361666545524332303a206c6f772d6c6576656c2063616c6c206661696c6564908401529294506106aa92841691869186916106d5918591600090612cbd9084908490612d3d565b9050805160001480612cde575080806020019051810190612cde9190613ecd565b6106d55760405162461bcd60e51b815260206004820152602a60248201527f5361666545524332303a204552433230206f7065726174696f6e20646964206e6044820152691bdd081cdd58d8d9595960b21b6064820152608401610643565b6060611410848460008585600080866001600160a01b03168587604051612d6491906140d4565b60006040518083038185875af1925050503d8060008114612da1576040519150601f19603f3d011682016040523d82523d6000602084013e612da6565b606091505b5091509150612db787838387612dc2565b979650505050505050565b60608315612e31578251600003612e2a576001600160a01b0385163b612e2a5760405162461bcd60e51b815260206004820152601d60248201527f416464726573733a2063616c6c20746f206e6f6e2d636f6e74726163740000006044820152606401610643565b5081611410565b6114108383815115612e465781518083602001fd5b8060405162461bcd60e51b81526004016106439190612eda565b600060208284031215612e7257600080fd5b81356001600160e01b03198116811461239d57600080fd5b60005b83811015612ea5578181015183820152602001612e8d565b50506000910152565b60008151808452612ec6816020860160208601612e8a565b601f01601f19169290920160200192915050565b60208152600061239d6020830184612eae565b634e487b7160e01b600052604160045260246000fd5b6040516101e081016001600160401b0381118282101715612f2657612f26612eed565b60405290565b6040516101a081016001600160401b0381118282101715612f2657612f26612eed565b60405161018081016001600160401b0381118282101715612f2657612f26612eed565b604051601f8201601f191681016001600160401b0381118282101715612f9a57612f9a612eed565b604052919050565b60ff81168114610a2c57600080fd5b8035612fbc81612fa2565b919050565b63ffffffff81168114610a2c57600080fd5b8035612fbc81612fc1565b6001600160a01b0381168114610a2c57600080fd5b8035612fbc81612fde565b65ffffffffffff81168114610a2c57600080fd5b8035612fbc81612ffe565b6001600160801b0381168114610a2c57600080fd5b8035612fbc8161301d565b6001600160401b0381168114610a2c57600080fd5b8035612fbc8161303d565b8015158114610a2c57600080fd5b8035612fbc8161305d565b60006001600160401b0382111561308f5761308f612eed565b5060051b60200190565b600082601f8301126130aa57600080fd5b813560206130bf6130ba83613076565b612f72565b82815260059290921b840181019181810190868411156130de57600080fd5b8286015b848110156130f957803583529183019183016130e2565b509695505050505050565b60006101e0828403121561311757600080fd5b61311f612f03565b905061312a82612ff3565b81526131386020830161306b565b6020820152604082013560408201526131536060830161306b565b606082015261316460808301612ff3565b608082015260a082013560a082015260c082013560c082015260e082013560e082015261010061319581840161306b565b908201526101206131a7838201612fb1565b908201526101406131b9838201613052565b90820152610160828101359082015261018080830135908201526101a06131e1818401612fb1565b908201526101c0828101356001600160401b0381111561320057600080fd5b61320c85828601613099565b82840152505092915050565b6000808284036101c081121561322d57600080fd5b6101a08082121561323d57600080fd5b613245612f2c565b915061325085612fb1565b825261325e60208601612fd3565b602083015261326f60408601612fb1565b604083015261328060608601612ff3565b606083015261329160808601613012565b60808301526132a260a08601613032565b60a08301526132b360c08601613032565b60c08301526132c460e08601613032565b60e08301526101006132d7818701613032565b908301526101206132e9868201613052565b908301526101406132fb868201613052565b9083015261016061330d868201613032565b9083015261018085810135908301529092508301356001600160401b0381111561333657600080fd5b61334285828601613104565b9150509250929050565b6000806040838503121561335f57600080fd5b82356001600160401b0381111561337557600080fd5b8301601f8101851361338657600080fd5b803560206133966130ba83613076565b82815260059290921b830181019181810190888411156133b557600080fd5b938201935b838510156133dc5784356133cd81612fde565b825293820193908201906133ba565b95506133eb905086820161306b565b93505050509250929050565b60006020828403121561340957600080fd5b5035919050565b6000806040838503121561342357600080fd5b82359150602083013561343581612fde565b809150509250929050565b60006020828403121561345257600080fd5b813561239d81612fde565b6000806040838503121561347057600080fd5b823561347b8161305d565b915060208301356134358161305d565b60006020828403121561349d57600080fd5b81356001600160401b038111156134b357600080fd5b61141084828501613104565b600181811c908216806134d357607f821691505b6020821081036121d657634e487b7160e01b600052602260045260246000fd5b634e487b7160e01b600052603260045260246000fd5b8051612fbc81612fde565b8051612fbc8161305d565b8051612fbc81612fc1565b80516001600160d81b0381168114612fbc57600080fd5b6000610180828403121561355457600080fd5b61355c612f4f565b61356583613509565b815261357360208401613514565b60208201526135846040840161351f565b60408201526135956060840161352a565b60608201526080838101519082015260a0808401519082015260c0808401519082015260e08084015190820152610100808401519082015261012080840151908201526101408084015190820152610160928301519281019290925250919050565b6001600160a01b039687168152948616602086015292151560408501529084166060840152909216608082015260a081019190915260c00190565b60006020828403121561364457600080fd5b5051919050565b8051612fbc81612fa2565b8051612fbc81612ffe565b8051612fbc8161301d565b8051612fbc8161303d565b6000602080838503121561368a57600080fd5b82516001600160401b038111156136a057600080fd5b8301601f810185136136b157600080fd5b80516136bf6130ba82613076565b8181526101a091820283018401918482019190888411156136df57600080fd5b938501935b838510156137e65780858a0312156136fc5760008081fd5b613704612f2c565b61370d8661364b565b815261371a87870161351f565b87820152604061372b81880161364b565b90820152606061373c878201613509565b90820152608061374d878201613656565b9082015260a061375e878201613661565b9082015260c061376f878201613661565b9082015260e0613780878201613661565b90820152610100613792878201613661565b908201526101206137a487820161366c565b908201526101406137b687820161366c565b908201526101606137c8878201613661565b908201526101808681015190820152835293840193918501916136e4565b50979650505050505050565b634e487b7160e01b600052602160045260246000fd5b634e487b7160e01b600052601160045260246000fd5b80820260008212600160ff1b8414161561383a5761383a613808565b818105831482151761055857610558613808565b634e487b7160e01b600052601260045260246000fd5b6000826138735761387361384e565b600160ff1b82146000198414161561388d5761388d613808565b500590565b60ff818116838216019081111561055857610558613808565b6000600182016138bd576138bd613808565b5060010190565b808202811582820484141761055857610558613808565b6000826138ea576138ea61384e565b500490565b600081518084526020808501945080840160005b8381101561391f57815187529582019590820190600101613903565b509495945050505050565b80516001600160a01b0316825260006101e0602083015161394f602086018215159052565b5060408301516040850152606083015161396d606086018215159052565b50608083015161398860808601826001600160a01b03169052565b5060a083015160a085015260c083015160c085015260e083015160e0850152610100808401516139bb8287018215159052565b50506101208381015160ff90811691860191909152610140808501516001600160401b031690860152610160808501519086015261018080850151908601526101a080850151909116908501526101c080840151818601839052612ad1838701826138ef565b80516001600160a01b031682526020810151613a41602084018215159052565b506040810151613a59604084018263ffffffff169052565b506060810151613a7460608401826001600160d81b03169052565b506080818101519083015260a0808201519083015260c0808201519083015260e0808201519083015261010080820151908301526101208082015190830152610140808201519083015261016090810151910152565b60006101a0808352613ade8184018661392a565b91505061239d6020830184613a21565b60006020808385031215613b0157600080fd5b82516001600160401b03811115613b1757600080fd5b8301601f81018513613b2857600080fd5b8051613b366130ba82613076565b81815260059190911b82018301908381019087831115613b5557600080fd5b928401925b82841015612db757835182529284019290840190613b5a565b60006101c0808352613b878184018761392a565b9050613b966020840186613a21565b8281036101a0840152612ad181856138ef565b600060208284031215613bbb57600080fd5b815161239d81612fa2565b8181038181111561055857610558613808565b6001600160a01b03848116825283166020820152606060408201819052600090613c05908301846138ef565b95945050505050565b600060608284031215613c2057600080fd5b604051606081018181106001600160401b0382111715613c4257613c42612eed565b6040528251613c508161305d565b81526020830151613c608161305d565b60208201526040830151613c738161305d565b60408201529392505050565b6020815260008251613c9760208401825160ff169052565b602081015163ffffffff8116604085015250604081015160ff811660608501525060608101516001600160a01b038116608085015250608081015165ffffffffffff811660a08501525060a08101516001600160801b03811660c08501525060c08101516001600160801b03811660e08501525060e0810151610100613d27818601836001600160801b03169052565b8201519050610120613d43858201836001600160801b03169052565b8201519050610140613d5f858201836001600160401b03169052565b8201519050610160613d7b858201836001600160401b03169052565b8201519050610180613d97858201836001600160801b03169052565b808301516101a08601525050506020830151610220806101c0850152613dc161024085018361392a565b91506040850151613dd86101e086018260ff169052565b506060850151848303601f1901610200860152613df58382612eae565b925050608085015181850152508091505092915050565b7f416363657373436f6e74726f6c3a206163636f756e7420000000000000000000815260008351613e44816017850160208801612e8a565b7001034b99036b4b9b9b4b733903937b6329607d1b6017918401918201528351613e75816028840160208801612e8a565b01602801949350505050565b60008060408385031215613e9457600080fd5b505080516020909101519092909150565b8082018281126000831280158216821582161715613ec557613ec5613808565b505092915050565b600060208284031215613edf57600080fd5b815161239d8161305d565b6000600160ff1b8201613eff57613eff613808565b5060000390565b600181815b80851115613f41578160001904821115613f2757613f27613808565b80851615613f3457918102915b93841c9390800290613f0b565b509250929050565b600082613f5857506001610558565b81613f6557506000610558565b8160018114613f7b5760028114613f8557613fa1565b6001915050610558565b60ff841115613f9657613f96613808565b50506001821b610558565b5060208310610133831016604e8410600b8410161715613fc4575081810a610558565b613fce8383613f06565b8060001904821115613fe257613fe2613808565b029392505050565b600061239d60ff841683613f49565b600061239d8383613f49565b602081526000825161022080602085015261402461024085018361392a565b915060208501516140386040860182613a21565b506040850151848303601f19016101c086015261405583826138ef565b60608701516001600160a01b039081166101e088015260808801511661020087015260a0909601519190940152509192915050565b8082018082111561055857610558613808565b6000816140ac576140ac613808565b506000190190565b818103600083128015838313168383128216171561273a5761273a613808565b600082516140e6818460208701612e8a565b919091019291505056fea26469706673582212204aa67a1e90d06b1600fa15e688041211396c3ab1e622ba7f0fbcd081be7d87a764736f6c63430008110033",
    "linkReferences": {}
  },
  "methodIdentifiers": {
    "DEFAULT_ADMIN_ROLE()": "a217fddf",
    "PLUGIN_GAS_LIMIT()": "63cd8dbd",
    "collateralToken()": "b2016bd4",
    "collateralTokenDigits()": "b21dc9cb",
    "decreasePosition((address,bool,uint256,bool,address,uint256,uint256,uint256,bool,uint8,uint64,bytes32,uint256,uint8,uint256[]))": "abed9618",
    "execOrderKey((uint8,uint32,uint8,address,uint48,uint128,uint128,uint128,uint128,uint64,uint64,uint128,bytes32),(address,bool,uint256,bool,address,uint256,uint256,uint256,bool,uint8,uint64,bytes32,uint256,uint8,uint256[]))": "12de276c",
    "feeRouter()": "f29ebf61",
    "getRoleAdmin(bytes32)": "248a9ca3",
    "globalValid()": "c54dc3d6",
    "grantControllerRoleByMarketManager(address)": "7fe4a698",
    "grantRole(bytes32,address)": "2f2ff15d",
    "hasRole(bytes32,address)": "91d14854",
    "indexToken()": "e7d015f2",
    "liquidatePositions(address[],bool)": "12ec5d00",
    "marketRouter()": "d12dbde4",
    "marketValid()": "b894300d",
    "name()": "06fdde03",
    "orderBookLong()": "7b2fd1e5",
    "orderBookShort()": "05ba9ae9",
    "orderMgr()": "a0cbf50c",
    "orderStore(bool,bool)": "a2640454",
    "owner()": "8da5cb5b",
    "plugins(uint256)": "f0a317eb",
    "positionAddMgr()": "d49ff78d",
    "positionBook()": "ac0b05a6",
    "positionStoreLong()": "07e87545",
    "positionStoreShort()": "45ccf5c5",
    "positionSubMgr()": "8a6ca35d",
    "priceFeed()": "741bef1a",
    "renounceOwnership()": "715018a6",
    "renounceRole(bytes32,address)": "36568abe",
    "revokeRole(bytes32,address)": "d547741f",
    "supportsInterface(bytes4)": "01ffc9a7",
    "transferAdmin(address)": "75829def",
    "transferOwnership(address)": "f2fde38b",
    "vaultRouter()": "d37c441c"
  },
  "id": 20
}