{
  "abi": [
    {
      "inputs": [],
      "name": "conf",
      "outputs": [
        {
          "internalType": "uint256",
          "name": "data",
          "type": "uint256"
        }
      ],
      "stateMutability": "view",
      "type": "function"
    },
    {
      "inputs": [
        {
          "internalType": "uint256",
          "name": "",
          "type": "uint256"
        }
      ],
      "name": "getDecreaseOrderValidation",
      "outputs": [
        {
          "internalType": "bool",
          "name": "",
          "type": "bool"
        }
      ],
      "stateMutability": "nonpayable",
      "type": "function"
    },
    {
      "inputs": [
        {
          "internalType": "address",
          "name": "_account",
          "type": "address"
        },
        {
          "internalType": "address",
          "name": "_market",
          "type": "address"
        },
        {
          "internalType": "bool",
          "name": "_isLong",
          "type": "bool"
        },
        {
          "internalType": "contract IPositionBook",
          "name": "positionBook",
          "type": "address"
        },
        {
          "internalType": "contract IFeeRouter",
          "name": "feeRouter",
          "type": "address"
        },
        {
          "internalType": "uint256",
          "name": "markPrice",
          "type": "uint256"
        }
      ],
      "name": "isLiquidate",
      "outputs": [
        {
          "internalType": "uint256",
          "name": "",
          "type": "uint256"
        }
      ],
      "stateMutability": "view",
      "type": "function"
    },
    {
      "inputs": [
        {
          "internalType": "uint256",
          "name": "_data",
          "type": "uint256"
        }
      ],
      "name": "setConfData",
      "outputs": [],
      "stateMutability": "nonpayable",
      "type": "function"
    },
    {
      "inputs": [
        {
          "internalType": "uint256",
          "name": "busType",
          "type": "uint256"
        },
        {
          "internalType": "uint256",
          "name": "_collateral",
          "type": "uint256"
        },
        {
          "internalType": "uint256",
          "name": "_collateralDelta",
          "type": "uint256"
        },
        {
          "internalType": "uint256",
          "name": "_size",
          "type": "uint256"
        },
        {
          "internalType": "uint256",
          "name": "_sizeDelta",
          "type": "uint256"
        },
        {
          "internalType": "int256",
          "name": "_fees",
          "type": "int256"
        }
      ],
      "name": "validCollateralDelta",
      "outputs": [],
      "stateMutability": "view",
      "type": "function"
    },
    {
      "inputs": [
        {
          "components": [
            {
              "internalType": "address",
              "name": "_market",
              "type": "address"
            },
            {
              "internalType": "bool",
              "name": "_isLong",
              "type": "bool"
            },
            {
              "internalType": "uint256",
              "name": "_oraclePrice",
              "type": "uint256"
            },
            {
              "internalType": "bool",
              "name": "isOpen",
              "type": "bool"
            },
            {
              "internalType": "bool",
              "name": "isCreate",
              "type": "bool"
            },
            {
              "components": [
                {
                  "internalType": "uint8",
                  "name": "version",
                  "type": "uint8"
                },
                {
                  "internalType": "uint32",
                  "name": "updatedAtBlock",
                  "type": "uint32"
                },
                {
                  "internalType": "uint8",
                  "name": "triggerAbove",
                  "type": "uint8"
                },
                {
                  "internalType": "address",
                  "name": "account",
                  "type": "address"
                },
                {
                  "internalType": "uint48",
                  "name": "extra3",
                  "type": "uint48"
                },
                {
                  "internalType": "uint128",
                  "name": "collateral",
                  "type": "uint128"
                },
                {
                  "internalType": "uint128",
                  "name": "size",
                  "type": "uint128"
                },
                {
                  "internalType": "uint128",
                  "name": "price",
                  "type": "uint128"
                },
                {
                  "internalType": "uint128",
                  "name": "extra1",
                  "type": "uint128"
                },
                {
                  "internalType": "uint64",
                  "name": "orderID",
                  "type": "uint64"
                },
                {
                  "internalType": "uint64",
                  "name": "extra2",
                  "type": "uint64"
                },
                {
                  "internalType": "uint128",
                  "name": "extra0",
                  "type": "uint128"
                },
                {
                  "internalType": "bytes32",
                  "name": "refCode",
                  "type": "bytes32"
                }
              ],
              "internalType": "struct Order.Props",
              "name": "_order",
              "type": "tuple"
            },
            {
              "internalType": "uint256[]",
              "name": "inputs",
              "type": "uint256[]"
            }
          ],
          "internalType": "struct MarketDataTypes.UpdateOrderInputs",
          "name": "_vars",
          "type": "tuple"
        },
        {
          "internalType": "int256",
          "name": "fees",
          "type": "int256"
        }
      ],
      "name": "validIncreaseOrder",
      "outputs": [],
      "stateMutability": "view",
      "type": "function"
    },
    {
      "inputs": [
        {
          "internalType": "uint256",
          "name": "newSize",
          "type": "uint256"
        },
        {
          "internalType": "uint256",
          "name": "newCollateral",
          "type": "uint256"
        }
      ],
      "name": "validLev",
      "outputs": [],
      "stateMutability": "nonpayable",
      "type": "function"
    },
    {
      "inputs": [
        {
          "internalType": "uint256",
          "name": "_pay",
          "type": "uint256"
        }
      ],
      "name": "validPay",
      "outputs": [],
      "stateMutability": "view",
      "type": "function"
    },
    {
      "inputs": [
        {
          "components": [
            {
              "internalType": "address",
              "name": "_market",
              "type": "address"
            },
            {
              "internalType": "bool",
              "name": "_isLong",
              "type": "bool"
            },
            {
              "internalType": "uint256",
              "name": "_oraclePrice",
              "type": "uint256"
            },
            {
              "internalType": "bool",
              "name": "isOpen",
              "type": "bool"
            },
            {
              "internalType": "address",
              "name": "_account",
              "type": "address"
            },
            {
              "internalType": "uint256",
              "name": "_sizeDelta",
              "type": "uint256"
            },
            {
              "internalType": "uint256",
              "name": "_price",
              "type": "uint256"
            },
            {
              "internalType": "uint256",
              "name": "_slippage",
              "type": "uint256"
            },
            {
              "internalType": "bool",
              "name": "_isExec",
              "type": "bool"
            },
            {
              "internalType": "uint8",
              "name": "liqState",
              "type": "uint8"
            },
            {
              "internalType": "uint64",
              "name": "_fromOrder",
              "type": "uint64"
            },
            {
              "internalType": "bytes32",
              "name": "_refCode",
              "type": "bytes32"
            },
            {
              "internalType": "uint256",
              "name": "collateralDelta",
              "type": "uint256"
            },
            {
              "internalType": "uint8",
              "name": "execNum",
              "type": "uint8"
            },
            {
              "internalType": "uint256[]",
              "name": "inputs",
              "type": "uint256[]"
            }
          ],
          "internalType": "struct MarketDataTypes.UpdatePositionInputs",
          "name": "_params",
          "type": "tuple"
        },
        {
          "components": [
            {
              "internalType": "address",
              "name": "market",
              "type": "address"
            },
            {
              "internalType": "bool",
              "name": "isLong",
              "type": "bool"
            },
            {
              "internalType": "uint32",
              "name": "lastTime",
              "type": "uint32"
            },
            {
              "internalType": "uint216",
              "name": "extra3",
              "type": "uint216"
            },
            {
              "internalType": "uint256",
              "name": "size",
              "type": "uint256"
            },
            {
              "internalType": "uint256",
              "name": "collateral",
              "type": "uint256"
            },
            {
              "internalType": "uint256",
              "name": "averagePrice",
              "type": "uint256"
            },
            {
              "internalType": "int256",
              "name": "entryFundingRate",
              "type": "int256"
            },
            {
              "internalType": "int256",
              "name": "realisedPnl",
              "type": "int256"
            },
            {
              "internalType": "uint256",
              "name": "extra0",
              "type": "uint256"
            },
            {
              "internalType": "uint256",
              "name": "extra1",
              "type": "uint256"
            },
            {
              "internalType": "uint256",
              "name": "extra2",
              "type": "uint256"
            }
          ],
          "internalType": "struct Position.Props",
          "name": "_position",
          "type": "tuple"
        },
        {
          "internalType": "int256[]",
          "name": "fees",
          "type": "int256[]"
        }
      ],
      "name": "validPosition",
      "outputs": [],
      "stateMutability": "view",
      "type": "function"
    }
  ],
  "bytecode": {
    "object": "0x608060405234801561001057600080fd5b50610878806100206000396000f3fe608060405234801561001057600080fd5b50600436106100935760003560e01c8063592b1e2a11610066578063592b1e2a146100f45780638e98ec8d14610098578063e4eacaf414610102578063e82956c014610118578063fc54d91d1461013c57600080fd5b8063015fc6131461009857806317792729146100ab5780631f21756a146100c85780632b5a3018146100e2575b600080fd5b6100a96100a636600461014f565b50565b005b6000546100b59081565b6040519081526020015b60405180910390f35b6100b56100d636600461019d565b60009695505050505050565b6100a96100f0366004610214565b5050565b6100a96100f03660046104e9565b6100a96101103660046105c0565b505050505050565b61012c61012636600461014f565b50600190565b60405190151581526020016100bf565b6100a961014a3660046106d3565b505050565b60006020828403121561016157600080fd5b5035919050565b6001600160a01b03811681146100a657600080fd5b803561018881610168565b919050565b8035801515811461018857600080fd5b60008060008060008060c087890312156101b657600080fd5b86356101c181610168565b955060208701356101d181610168565b94506101df6040880161018d565b935060608701356101ef81610168565b925060808701356101ff81610168565b8092505060a087013590509295509295509295565b6000806040838503121561022757600080fd5b50508035926020909101359150565b634e487b7160e01b600052604160045260246000fd5b6040516101a0810167ffffffffffffffff8111828210171561027057610270610236565b60405290565b60405160e0810167ffffffffffffffff8111828210171561027057610270610236565b604051610180810167ffffffffffffffff8111828210171561027057610270610236565b6040516101e0810167ffffffffffffffff8111828210171561027057610270610236565b803560ff8116811461018857600080fd5b803563ffffffff8116811461018857600080fd5b803565ffffffffffff8116811461018857600080fd5b80356fffffffffffffffffffffffffffffffff8116811461018857600080fd5b803567ffffffffffffffff8116811461018857600080fd5b60006101a0828403121561036757600080fd5b61036f61024c565b905061037a826102e1565b8152610388602083016102f2565b6020820152610399604083016102e1565b60408201526103aa6060830161017d565b60608201526103bb60808301610306565b60808201526103cc60a0830161031c565b60a08201526103dd60c0830161031c565b60c08201526103ee60e0830161031c565b60e082015261010061040181840161031c565b9082015261012061041383820161033c565b9082015261014061042583820161033c565b9082015261016061043783820161031c565b818301525061018080830135818301525092915050565b600082601f83011261045f57600080fd5b8135602067ffffffffffffffff8083111561047c5761047c610236565b8260051b604051601f19603f830116810181811084821117156104a1576104a1610236565b6040529384528581018301938381019250878511156104bf57600080fd5b83870191505b848210156104de578135835291830191908301906104c5565b979650505050505050565b600080604083850312156104fc57600080fd5b823567ffffffffffffffff8082111561051457600080fd5b90840190610260828703121561052957600080fd5b610531610276565b61053a8361017d565b81526105486020840161018d565b6020820152604083013560408201526105636060840161018d565b60608201526105746080840161018d565b60808201526105868760a08501610354565b60a08201526102408301358281111561059e57600080fd5b6105aa8882860161044e565b60c0830152509660209590950135955050505050565b60008060008060008060c087890312156105d957600080fd5b505084359660208601359650604086013595606081013595506080810135945060a0013592509050565b80356001600160d81b038116811461018857600080fd5b6000610180828403121561062d57600080fd5b610635610299565b90506106408261017d565b815261064e6020830161018d565b602082015261065f604083016102f2565b604082015261067060608301610603565b60608201526080820135608082015260a082013560a082015260c082013560c082015260e082013560e082015261010080830135818301525061012080830135818301525061014080830135818301525061016080830135818301525092915050565b60008060006101c08085870312156106ea57600080fd5b843567ffffffffffffffff8082111561070257600080fd5b908601906101e0828903121561071757600080fd5b61071f6102bd565b6107288361017d565b81526107366020840161018d565b6020820152604083013560408201526107516060840161018d565b60608201526107626080840161017d565b608082015260a083013560a082015260c083013560c082015260e083013560e082015261010061079381850161018d565b908201526101206107a58482016102e1565b908201526101406107b784820161033c565b90820152610160838101359082015261018080840135908201526101a06107df8185016102e1565b8183015284840135838111156107f457600080fd5b6108008b82870161044e565b86840152508197506108158a60208b0161061a565b96508801359350508083111561082a57600080fd5b50506108388682870161044e565b915050925092509256fea2646970667358221220fd521901c9f74af6ba8bc375feda3f54cf4d6781c559d9377ab731f8fbefa64964736f6c63430008110033",
    "linkReferences": {}
  },
  "methodIdentifiers": {
    "conf()": "17792729",
    "getDecreaseOrderValidation(uint256)": "e82956c0",
    "isLiquidate(address,address,bool,address,address,uint256)": "1f21756a",
    "setConfData(uint256)": "8e98ec8d",
    "validCollateralDelta(uint256,uint256,uint256,uint256,uint256,int256)": "e4eacaf4",
    "validIncreaseOrder((address,bool,uint256,bool,bool,(uint8,uint32,uint8,address,uint48,uint128,uint128,uint128,uint128,uint64,uint64,uint128,bytes32),uint256[]),int256)": "592b1e2a",
    "validLev(uint256,uint256)": "2b5a3018",
    "validPay(uint256)": "015fc613",
    "validPosition((address,bool,uint256,bool,address,uint256,uint256,uint256,bool,uint8,uint64,bytes32,uint256,uint8,uint256[]),(address,bool,uint32,uint216,uint256,uint256,uint256,int256,int256,uint256,uint256,uint256),int256[])": "fc54d91d"
  },
  "id": 45
}