{
  "abi": [
    {
      "inputs": [
        {
          "internalType": "string",
          "name": "_name",
          "type": "string"
        },
        {
          "internalType": "string",
          "name": "_symbol",
          "type": "string"
        },
        {
          "internalType": "uint256",
          "name": "_initialSupply",
          "type": "uint256"
        }
      ],
      "stateMutability": "nonpayable",
      "type": "constructor"
    },
    {
      "anonymous": false,
      "inputs": [
        {
          "indexed": true,
          "internalType": "address",
          "name": "owner",
          "type": "address"
        },
        {
          "indexed": true,
          "internalType": "address",
          "name": "spender",
          "type": "address"
        },
        {
          "indexed": false,
          "internalType": "uint256",
          "name": "value",
          "type": "uint256"
        }
      ],
      "name": "Approval",
      "type": "event"
    },
    {
      "anonymous": false,
      "inputs": [
        {
          "indexed": false,
          "internalType": "uint8",
          "name": "version",
          "type": "uint8"
        }
      ],
      "name": "Initialized",
      "type": "event"
    },
    {
      "anonymous": false,
      "inputs": [
        {
          "indexed": true,
          "internalType": "address",
          "name": "previousOwner",
          "type": "address"
        },
        {
          "indexed": true,
          "internalType": "address",
          "name": "newOwner",
          "type": "address"
        }
      ],
      "name": "OwnershipTransferred",
      "type": "event"
    },
    {
      "anonymous": false,
      "inputs": [
        {
          "indexed": true,
          "internalType": "bytes32",
          "name": "role",
          "type": "bytes32"
        },
        {
          "indexed": true,
          "internalType": "bytes32",
          "name": "previousAdminRole",
          "type": "bytes32"
        },
        {
          "indexed": true,
          "internalType": "bytes32",
          "name": "newAdminRole",
          "type": "bytes32"
        }
      ],
      "name": "RoleAdminChanged",
      "type": "event"
    },
    {
      "anonymous": false,
      "inputs": [
        {
          "indexed": true,
          "internalType": "bytes32",
          "name": "role",
          "type": "bytes32"
        },
        {
          "indexed": true,
          "internalType": "address",
          "name": "account",
          "type": "address"
        },
        {
          "indexed": true,
          "internalType": "address",
          "name": "sender",
          "type": "address"
        }
      ],
      "name": "RoleGranted",
      "type": "event"
    },
    {
      "anonymous": false,
      "inputs": [
        {
          "indexed": true,
          "internalType": "bytes32",
          "name": "role",
          "type": "bytes32"
        },
        {
          "indexed": true,
          "internalType": "address",
          "name": "account",
          "type": "address"
        },
        {
          "indexed": true,
          "internalType": "address",
          "name": "sender",
          "type": "address"
        }
      ],
      "name": "RoleRevoked",
      "type": "event"
    },
    {
      "anonymous": false,
      "inputs": [
        {
          "indexed": true,
          "internalType": "address",
          "name": "from",
          "type": "address"
        },
        {
          "indexed": true,
          "internalType": "address",
          "name": "to",
          "type": "address"
        },
        {
          "indexed": false,
          "internalType": "uint256",
          "name": "value",
          "type": "uint256"
        }
      ],
      "name": "Transfer",
      "type": "event"
    },
    {
      "inputs": [],
      "name": "DEFAULT_ADMIN_ROLE",
      "outputs": [
        {
          "internalType": "bytes32",
          "name": "",
          "type": "bytes32"
        }
      ],
      "stateMutability": "view",
      "type": "function"
    },
    {
      "inputs": [
        {
          "internalType": "address",
          "name": "_account",
          "type": "address"
        }
      ],
      "name": "addAdmin",
      "outputs": [],
      "stateMutability": "nonpayable",
      "type": "function"
    },
    {
      "inputs": [
        {
          "internalType": "address",
          "name": "_account",
          "type": "address"
        }
      ],
      "name": "addNonStakingAccount",
      "outputs": [],
      "stateMutability": "nonpayable",
      "type": "function"
    },
    {
      "inputs": [
        {
          "internalType": "address",
          "name": "",
          "type": "address"
        }
      ],
      "name": "admins",
      "outputs": [
        {
          "internalType": "bool",
          "name": "",
          "type": "bool"
        }
      ],
      "stateMutability": "view",
      "type": "function"
    },
    {
      "inputs": [
        {
          "internalType": "address",
          "name": "_owner",
          "type": "address"
        },
        {
          "internalType": "address",
          "name": "_spender",
          "type": "address"
        }
      ],
      "name": "allowance",
      "outputs": [
        {
          "internalType": "uint256",
          "name": "",
          "type": "uint256"
        }
      ],
      "stateMutability": "view",
      "type": "function"
    },
    {
      "inputs": [
        {
          "internalType": "address",
          "name": "",
          "type": "address"
        },
        {
          "internalType": "address",
          "name": "",
          "type": "address"
        }
      ],
      "name": "allowances",
      "outputs": [
        {
          "internalType": "uint256",
          "name": "",
          "type": "uint256"
        }
      ],
      "stateMutability": "view",
      "type": "function"
    },
    {
      "inputs": [
        {
          "internalType": "address",
          "name": "_spender",
          "type": "address"
        },
        {
          "internalType": "uint256",
          "name": "_amount",
          "type": "uint256"
        }
      ],
      "name": "approve",
      "outputs": [
        {
          "internalType": "bool",
          "name": "",
          "type": "bool"
        }
      ],
      "stateMutability": "nonpayable",
      "type": "function"
    },
    {
      "inputs": [
        {
          "internalType": "address",
          "name": "_account",
          "type": "address"
        }
      ],
      "name": "balanceOf",
      "outputs": [
        {
          "internalType": "uint256",
          "name": "",
          "type": "uint256"
        }
      ],
      "stateMutability": "view",
      "type": "function"
    },
    {
      "inputs": [
        {
          "internalType": "address",
          "name": "",
          "type": "address"
        }
      ],
      "name": "balances",
      "outputs": [
        {
          "internalType": "uint256",
          "name": "",
          "type": "uint256"
        }
      ],
      "stateMutability": "view",
      "type": "function"
    },
    {
      "inputs": [
        {
          "internalType": "address",
          "name": "_account",
          "type": "address"
        },
        {
          "internalType": "uint256",
          "name": "_amount",
          "type": "uint256"
        }
      ],
      "name": "burn",
      "outputs": [],
      "stateMutability": "nonpayable",
      "type": "function"
    },
    {
      "inputs": [
        {
          "internalType": "address",
          "name": "_receiver",
          "type": "address"
        }
      ],
      "name": "claim",
      "outputs": [],
      "stateMutability": "nonpayable",
      "type": "function"
    },
    {
      "inputs": [],
      "name": "decimals",
      "outputs": [
        {
          "internalType": "uint8",
          "name": "",
          "type": "uint8"
        }
      ],
      "stateMutability": "view",
      "type": "function"
    },
    {
      "inputs": [
        {
          "internalType": "bytes32",
          "name": "role",
          "type": "bytes32"
        }
      ],
      "name": "getRoleAdmin",
      "outputs": [
        {
          "internalType": "bytes32",
          "name": "",
          "type": "bytes32"
        }
      ],
      "stateMutability": "view",
      "type": "function"
    },
    {
      "inputs": [
        {
          "internalType": "address",
          "name": "_account",
          "type": "address"
        }
      ],
      "name": "grantControllerRoleByMarketManager",
      "outputs": [],
      "stateMutability": "nonpayable",
      "type": "function"
    },
    {
      "inputs": [
        {
          "internalType": "bytes32",
          "name": "role",
          "type": "bytes32"
        },
        {
          "internalType": "address",
          "name": "account",
          "type": "address"
        }
      ],
      "name": "grantRole",
      "outputs": [],
      "stateMutability": "nonpayable",
      "type": "function"
    },
    {
      "inputs": [
        {
          "internalType": "bytes32",
          "name": "role",
          "type": "bytes32"
        },
        {
          "internalType": "address",
          "name": "account",
          "type": "address"
        }
      ],
      "name": "hasRole",
      "outputs": [
        {
          "internalType": "bool",
          "name": "",
          "type": "bool"
        }
      ],
      "stateMutability": "view",
      "type": "function"
    },
    {
      "inputs": [],
      "name": "inPrivateTransferMode",
      "outputs": [
        {
          "internalType": "bool",
          "name": "",
          "type": "bool"
        }
      ],
      "stateMutability": "view",
      "type": "function"
    },
    {
      "inputs": [
        {
          "internalType": "address",
          "name": "",
          "type": "address"
        }
      ],
      "name": "isHandler",
      "outputs": [
        {
          "internalType": "bool",
          "name": "",
          "type": "bool"
        }
      ],
      "stateMutability": "view",
      "type": "function"
    },
    {
      "inputs": [
        {
          "internalType": "address",
          "name": "",
          "type": "address"
        }
      ],
      "name": "isMinter",
      "outputs": [
        {
          "internalType": "bool",
          "name": "",
          "type": "bool"
        }
      ],
      "stateMutability": "view",
      "type": "function"
    },
    {
      "inputs": [
        {
          "internalType": "address",
          "name": "_account",
          "type": "address"
        },
        {
          "internalType": "uint256",
          "name": "_amount",
          "type": "uint256"
        }
      ],
      "name": "mint",
      "outputs": [],
      "stateMutability": "nonpayable",
      "type": "function"
    },
    {
      "inputs": [],
      "name": "name",
      "outputs": [
        {
          "internalType": "string",
          "name": "",
          "type": "string"
        }
      ],
      "stateMutability": "view",
      "type": "function"
    },
    {
      "inputs": [
        {
          "internalType": "address",
          "name": "",
          "type": "address"
        }
      ],
      "name": "nonStakingAccounts",
      "outputs": [
        {
          "internalType": "bool",
          "name": "",
          "type": "bool"
        }
      ],
      "stateMutability": "view",
      "type": "function"
    },
    {
      "inputs": [],
      "name": "nonStakingSupply",
      "outputs": [
        {
          "internalType": "uint256",
          "name": "",
          "type": "uint256"
        }
      ],
      "stateMutability": "view",
      "type": "function"
    },
    {
      "inputs": [],
      "name": "owner",
      "outputs": [
        {
          "internalType": "address",
          "name": "",
          "type": "address"
        }
      ],
      "stateMutability": "view",
      "type": "function"
    },
    {
      "inputs": [
        {
          "internalType": "address",
          "name": "_account",
          "type": "address"
        },
        {
          "internalType": "address",
          "name": "_receiver",
          "type": "address"
        }
      ],
      "name": "recoverClaim",
      "outputs": [],
      "stateMutability": "nonpayable",
      "type": "function"
    },
    {
      "inputs": [
        {
          "internalType": "address",
          "name": "_account",
          "type": "address"
        }
      ],
      "name": "removeAdmin",
      "outputs": [],
      "stateMutability": "nonpayable",
      "type": "function"
    },
    {
      "inputs": [
        {
          "internalType": "address",
          "name": "_account",
          "type": "address"
        }
      ],
      "name": "removeNonStakingAccount",
      "outputs": [],
      "stateMutability": "nonpayable",
      "type": "function"
    },
    {
      "inputs": [],
      "name": "renounceOwnership",
      "outputs": [],
      "stateMutability": "nonpayable",
      "type": "function"
    },
    {
      "inputs": [
        {
          "internalType": "bytes32",
          "name": "",
          "type": "bytes32"
        },
        {
          "internalType": "address",
          "name": "",
          "type": "address"
        }
      ],
      "name": "renounceRole",
      "outputs": [],
      "stateMutability": "nonpayable",
      "type": "function"
    },
    {
      "inputs": [
        {
          "internalType": "bytes32",
          "name": "role",
          "type": "bytes32"
        },
        {
          "internalType": "address",
          "name": "account",
          "type": "address"
        }
      ],
      "name": "revokeRole",
      "outputs": [],
      "stateMutability": "nonpayable",
      "type": "function"
    },
    {
      "inputs": [
        {
          "internalType": "address",
          "name": "_handler",
          "type": "address"
        },
        {
          "internalType": "bool",
          "name": "_isActive",
          "type": "bool"
        }
      ],
      "name": "setHandler",
      "outputs": [],
      "stateMutability": "nonpayable",
      "type": "function"
    },
    {
      "inputs": [
        {
          "internalType": "bool",
          "name": "_inPrivateTransferMode",
          "type": "bool"
        }
      ],
      "name": "setInPrivateTransferMode",
      "outputs": [],
      "stateMutability": "nonpayable",
      "type": "function"
    },
    {
      "inputs": [
        {
          "internalType": "string",
          "name": "_name",
          "type": "string"
        },
        {
          "internalType": "string",
          "name": "_symbol",
          "type": "string"
        }
      ],
      "name": "setInfo",
      "outputs": [],
      "stateMutability": "nonpayable",
      "type": "function"
    },
    {
      "inputs": [
        {
          "internalType": "address",
          "name": "_minter",
          "type": "address"
        },
        {
          "internalType": "bool",
          "name": "_isActive",
          "type": "bool"
        }
      ],
      "name": "setMinter",
      "outputs": [],
      "stateMutability": "nonpayable",
      "type": "function"
    },
    {
      "inputs": [
        {
          "internalType": "address[]",
          "name": "_yieldTrackers",
          "type": "address[]"
        }
      ],
      "name": "setYieldTrackers",
      "outputs": [],
      "stateMutability": "nonpayable",
      "type": "function"
    },
    {
      "inputs": [
        {
          "internalType": "address",
          "name": "_account",
          "type": "address"
        }
      ],
      "name": "stakedBalance",
      "outputs": [
        {
          "internalType": "uint256",
          "name": "",
          "type": "uint256"
        }
      ],
      "stateMutability": "view",
      "type": "function"
    },
    {
      "inputs": [
        {
          "internalType": "bytes4",
          "name": "interfaceId",
          "type": "bytes4"
        }
      ],
      "name": "supportsInterface",
      "outputs": [
        {
          "internalType": "bool",
          "name": "",
          "type": "bool"
        }
      ],
      "stateMutability": "view",
      "type": "function"
    },
    {
      "inputs": [],
      "name": "symbol",
      "outputs": [
        {
          "internalType": "string",
          "name": "",
          "type": "string"
        }
      ],
      "stateMutability": "view",
      "type": "function"
    },
    {
      "inputs": [],
      "name": "totalStaked",
      "outputs": [
        {
          "internalType": "uint256",
          "name": "",
          "type": "uint256"
        }
      ],
      "stateMutability": "view",
      "type": "function"
    },
    {
      "inputs": [],
      "name": "totalSupply",
      "outputs": [
        {
          "internalType": "uint256",
          "name": "",
          "type": "uint256"
        }
      ],
      "stateMutability": "view",
      "type": "function"
    },
    {
      "inputs": [
        {
          "internalType": "address",
          "name": "_recipient",
          "type": "address"
        },
        {
          "internalType": "uint256",
          "name": "_amount",
          "type": "uint256"
        }
      ],
      "name": "transfer",
      "outputs": [
        {
          "internalType": "bool",
          "name": "",
          "type": "bool"
        }
      ],
      "stateMutability": "nonpayable",
      "type": "function"
    },
    {
      "inputs": [
        {
          "internalType": "address",
          "name": "to",
          "type": "address"
        }
      ],
      "name": "transferAdmin",
      "outputs": [],
      "stateMutability": "nonpayable",
      "type": "function"
    },
    {
      "inputs": [
        {
          "internalType": "address",
          "name": "_sender",
          "type": "address"
        },
        {
          "internalType": "address",
          "name": "_recipient",
          "type": "address"
        },
        {
          "internalType": "uint256",
          "name": "_amount",
          "type": "uint256"
        }
      ],
      "name": "transferFrom",
      "outputs": [
        {
          "internalType": "bool",
          "name": "",
          "type": "bool"
        }
      ],
      "stateMutability": "nonpayable",
      "type": "function"
    },
    {
      "inputs": [
        {
          "internalType": "address",
          "name": "newOwner",
          "type": "address"
        }
      ],
      "name": "transferOwnership",
      "outputs": [],
      "stateMutability": "nonpayable",
      "type": "function"
    },
    {
      "inputs": [
        {
          "internalType": "address",
          "name": "_token",
          "type": "address"
        },
        {
          "internalType": "address",
          "name": "_account",
          "type": "address"
        },
        {
          "internalType": "uint256",
          "name": "_amount",
          "type": "uint256"
        }
      ],
      "name": "withdrawToken",
      "outputs": [],
      "stateMutability": "nonpayable",
      "type": "function"
    },
    {
      "inputs": [
        {
          "internalType": "uint256",
          "name": "",
          "type": "uint256"
        }
      ],
      "name": "yieldTrackers",
      "outputs": [
        {
          "internalType": "address",
          "name": "",
          "type": "address"
        }
      ],
      "stateMutability": "view",
      "type": "function"
    }
  ],
  "bytecode": {
    "object": "0x60806040523480156200001157600080fd5b5060405162002acf38038062002acf833981016040819052620000349162000473565b8282826000620000443362000091565b6200005a81620000e360201b62000fdd1760201c565b50600362000069848262000575565b50600462000078838262000575565b506200008533826200010f565b5050505050506200069f565b600180546001600160a01b038381166001600160a01b0319831681179093556040519116919082907f8be0079c531659141344cd1fd0a4f28419497f9722a3daafe3b4186f6b6457e090600090a35050565b42600255620000f23362000091565b620000ff60003362000241565b6200010c60008262000241565b50565b6001600160a01b038216620001765760405162461bcd60e51b815260206004820152602360248201527f42617365546f6b656e3a206d696e7420746f20746865207a65726f206164647260448201526265737360e81b606482015260840160405180910390fd5b620001818262000251565b8060055462000191919062000657565b6005556001600160a01b038216600090815260076020526040902054620001ba90829062000657565b6001600160a01b038316600090815260076020908152604080832093909355600a9052205460ff1615620001fc5780600654620001f8919062000657565b6006555b6040518181526001600160a01b038316906000907fddf252ad1be2c89b69c2b068fc378daa952ba7f163c4a11628f55a4df523b3ef9060200160405180910390a35050565b6200024d8282620002fb565b5050565b60005b6009548110156200024d576000600982815481106200027757620002776200066d565b600091825260209091200154604051635fd6196560e01b81526001600160a01b03858116600483015290911691508190635fd6196590602401600060405180830381600087803b158015620002cb57600080fd5b505af1158015620002e0573d6000803e3d6000fd5b50505050508080620002f29062000683565b91505062000254565b62000307828262000383565b6200024d576000828152602081815260408083206001600160a01b03851684529091529020805460ff191660011790556200033f3390565b6001600160a01b0316816001600160a01b0316837f2f8788117e7eff1d82e926ec794901d17c78024a50270940304540a733656f0d60405160405180910390a45050565b6000828152602081815260408083206001600160a01b038516845290915290205460ff165b92915050565b634e487b7160e01b600052604160045260246000fd5b600082601f830112620003d657600080fd5b81516001600160401b0380821115620003f357620003f3620003ae565b604051601f8301601f19908116603f011681019082821181831017156200041e576200041e620003ae565b816040528381526020925086838588010111156200043b57600080fd5b600091505b838210156200045f578582018301518183018401529082019062000440565b600093810190920192909252949350505050565b6000806000606084860312156200048957600080fd5b83516001600160401b0380821115620004a157600080fd5b620004af87838801620003c4565b94506020860151915080821115620004c657600080fd5b50620004d586828701620003c4565b925050604084015190509250925092565b600181811c90821680620004fb57607f821691505b6020821081036200051c57634e487b7160e01b600052602260045260246000fd5b50919050565b601f8211156200057057600081815260208120601f850160051c810160208610156200054b5750805b601f850160051c820191505b818110156200056c5782815560010162000557565b5050505b505050565b81516001600160401b03811115620005915762000591620003ae565b620005a981620005a28454620004e6565b8462000522565b602080601f831160018114620005e15760008415620005c85750858301515b600019600386901b1c1916600185901b1785556200056c565b600085815260208120601f198616915b828110156200061257888601518255948401946001909101908401620005f1565b5085821015620006315787850151600019600388901b60f8161c191681555b5050505050600190811b01905550565b634e487b7160e01b600052601160045260246000fd5b80820180821115620003a857620003a862000641565b634e487b7160e01b600052603260045260246000fd5b60006001820162000698576200069862000641565b5060010190565b61242080620006af6000396000f3fe608060405234801561001057600080fd5b506004361061028a5760003560e01c806370a082311161015c5780639dc29fac116100ce578063cf456ae711610087578063cf456ae714610611578063d547741f14610624578063dd62ed3e14610637578063dfbaefb114610670578063f2fde38b1461067d578063fb30d9161461069057600080fd5b80639dc29fac146105a4578063a217fddf146105b7578063a9059cbb146105bf578063a923fc40146105d2578063aa271e1a146105e5578063c93be6361461060857600080fd5b80638da5cb5b116101205780638da5cb5b1461052f57806391d14854146105405780639554381a1461055357806395d89b4114610576578063996f11ee1461057e5780639cb7de4b1461059157600080fd5b806370a08231146104d0578063715018a6146104f957806375829def146105015780637fe4a69814610514578063817b1cd21461052757600080fd5b80632f2ff15d1161020057806352cd38d9116101b957806352cd38d91461042e57806355b6ed5c146104595780635a47a1a714610484578063602172671461049757806362289077146104aa57806370480275146104bd57600080fd5b80632f2ff15d1461039a578063313ce567146103ad57806336568abe146103c757806340c10f19146103d5578063429b62e5146103e857806346ea87af1461040b57600080fd5b806318160ddd1161025257806318160ddd146103075780631e83409a1461031e57806323b872dd14610331578063248a9ca314610344578063276eab4e1461036757806327e235e31461037a57600080fd5b806301e336671461028f57806301ffc9a7146102a457806306fdde03146102cc578063095ea7b3146102e15780631785f53c146102f4575b600080fd5b6102a261029d366004611d87565b6106a3565b005b6102b76102b2366004611dc3565b6106d3565b60405190151581526020015b60405180910390f35b6102d461070a565b6040516102c39190611e11565b6102b76102ef366004611e44565b610798565b6102a2610302366004611e6e565b6107ae565b61031060055481565b6040519081526020016102c3565b6102a261032c366004611e6e565b6107e6565b6102b761033f366004611d87565b6108a3565b610310610352366004611e89565b60009081526020819052604090206001015490565b6102a2610375366004611ee9565b610922565b610310610388366004611e6e565b60076020526000908152604090205481565b6102a26103a8366004611f96565b61094c565b6103b5601281565b60405160ff90911681526020016102c3565b6102a261028a366004611f96565b6102a26103e3366004611e44565b610971565b6102b76103f6366004611e6e565b600b6020526000908152604090205460ff1681565b6102b7610419366004611e6e565b600d6020526000908152604090205460ff1681565b61044161043c366004611e89565b6109df565b6040516001600160a01b0390911681526020016102c3565b610310610467366004611fc2565b600860209081526000928352604080842090915290825290205481565b6102a2610492366004611ffa565b610a09565b6103106104a5366004611e6e565b610a33565b6102a26104b8366004611e6e565b610a78565b6102a26104cb366004611e6e565b610b4d565b6103106104de366004611e6e565b6001600160a01b031660009081526007602052604090205490565b6102a2610b88565b6102a261050f366004611e6e565b610b9c565b6102a2610522366004611e6e565b610c0c565b610310610c36565b6001546001600160a01b0316610441565b6102b761054e366004611f96565b610c4d565b6102b7610561366004611e6e565b600a6020526000908152604090205460ff1681565b6102d4610c76565b6102a261058c366004611fc2565b610c83565b6102a261059f366004612017565b610d55565b6102a26105b2366004611e44565b610d97565b610310600081565b6102b76105cd366004611e44565b610e00565b6102a26105e03660046120be565b610e0d565b6102b76105f3366004611e6e565b600e6020526000908152604090205460ff1681565b61031060065481565b6102a261061f366004612017565b610e3d565b6102a2610632366004611f96565b610e7f565b610310610645366004611fc2565b6001600160a01b03918216600090815260086020908152604080832093909416825291909152205490565b600c546102b79060ff1681565b6102a261068b366004611e6e565b610ea4565b6102a261069e366004611e6e565b610f1d565b6106ba6000805160206123cb833981519152611000565b6106ce6001600160a01b038416838361100a565b505050565b60006001600160e01b03198216637965db0b60e01b148061070457506301ffc9a760e01b6001600160e01b03198316145b92915050565b6003805461071790612122565b80601f016020809104026020016040519081016040528092919081815260200182805461074390612122565b80156107905780601f1061076557610100808354040283529160200191610790565b820191906000526020600020905b81548152906001019060200180831161077357829003601f168201915b505050505081565b60006107a533848461105c565b50600192915050565b6107c56000805160206123cb833981519152611000565b6001600160a01b03166000908152600b60205260409020805460ff19169055565b60005b60095481101561089f576000600982815481106108085761080861215c565b6000918252602090912001546040516310e059a160e11b81523360048201526001600160a01b038581166024830152909116915081906321c0b342906044016020604051808303816000875af1158015610866573d6000803e3d6000fd5b505050506040513d601f19601f8201168201806040525081019061088a9190612172565b50508080610897906121a1565b9150506107e9565b5050565b336000908152600d602052604081205460ff16156108ce576108c684848461118a565b50600161091b565b6001600160a01b03841660009081526008602090815260408083203384529091528120546108fd9084906121ba565b905061090a85338361105c565b61091585858561118a565b60019150505b9392505050565b6109396000805160206123cb833981519152611000565b805161089f906009906020840190611cf1565b60008281526020819052604090206001015461096781611000565b6106ce83836113f4565b336000908152600e602052604090205460ff166109d55760405162461bcd60e51b815260206004820152601c60248201527f4d696e7461626c6542617365546f6b656e3a20666f7262696464656e0000000060448201526064015b60405180910390fd5b61089f8282611478565b600981815481106109ef57600080fd5b6000918252602090912001546001600160a01b0316905081565b610a206000805160206123cb833981519152611000565b600c805460ff1916911515919091179055565b6001600160a01b0381166000908152600a602052604081205460ff1615610a5c57506000919050565b506001600160a01b031660009081526007602052604090205490565b610a8f6000805160206123cb833981519152611000565b6001600160a01b0381166000908152600a602052604090205460ff1615610b035760405162461bcd60e51b815260206004820152602260248201527f42617365546f6b656e3a205f6163636f756e7420616c7265616479206d61726b604482015261195960f21b60648201526084016109cc565b610b0c8161159d565b6001600160a01b0381166000908152600a60209081526040808320805460ff191660011790556007909152902054600654610b4791906121cd565b60065550565b610b646000805160206123cb833981519152611000565b6001600160a01b03166000908152600b60205260409020805460ff19166001179055565b610b9061163e565b610b9a6000611698565b565b6000610ba781611000565b6001600160a01b038216610bed5760405162461bcd60e51b815260206004820152600d60248201526c217a65726f206164647265737360981b60448201526064016109cc565b610bf86000836116ea565b610c0182611698565b61089f6000336116f4565b7f8d1089725c0dc266707fa6207730fb801dcd03108bfed7a21099bd303651d2b761028a81611000565b6000600654600554610c4891906121ba565b905090565b6000918252602082815260408084206001600160a01b0393909316845291905290205460ff1690565b6004805461071790612122565b610c9a6000805160206123cb833981519152611000565b60005b6009548110156106ce57600060098281548110610cbc57610cbc61215c565b6000918252602090912001546040516310e059a160e11b81526001600160a01b0386811660048301528581166024830152909116915081906321c0b342906044016020604051808303816000875af1158015610d1c573d6000803e3d6000fd5b505050506040513d601f19601f82011682018060405250810190610d409190612172565b50508080610d4d906121a1565b915050610c9d565b610d6c6000805160206123cb833981519152611000565b6001600160a01b03919091166000908152600d60205260409020805460ff1916911515919091179055565b336000908152600e602052604090205460ff16610df65760405162461bcd60e51b815260206004820152601c60248201527f4d696e7461626c6542617365546f6b656e3a20666f7262696464656e0000000060448201526064016109cc565b61089f8282611759565b60006107a533848461118a565b610e246000805160206123cb833981519152611000565b6003610e30838261222e565b5060046106ce828261222e565b610e546000805160206123cb833981519152611000565b6001600160a01b03919091166000908152600e60205260409020805460ff1916911515919091179055565b600082815260208190526040902060010154610e9a81611000565b6106ce83836116f4565b610eac61163e565b6001600160a01b038116610f115760405162461bcd60e51b815260206004820152602660248201527f4f776e61626c653a206e6577206f776e657220697320746865207a65726f206160448201526564647265737360d01b60648201526084016109cc565b610f1a81611698565b50565b610f346000805160206123cb833981519152611000565b6001600160a01b0381166000908152600a602052604090205460ff16610f9c5760405162461bcd60e51b815260206004820152601e60248201527f42617365546f6b656e3a205f6163636f756e74206e6f74206d61726b6564000060448201526064016109cc565b610fa58161159d565b6001600160a01b0381166000908152600a60209081526040808320805460ff191690556007909152902054600654610b4791906121ba565b42600255610fea33611698565b610ff56000336116ea565b610f1a6000826116ea565b610f1a8133611885565b604080516001600160a01b038416602482015260448082018490528251808303909101815260649091019091526020810180516001600160e01b031663a9059cbb60e01b1790526106ce9084906118de565b6001600160a01b0383166110c35760405162461bcd60e51b815260206004820152602860248201527f42617365546f6b656e3a20617070726f76652066726f6d20746865207a65726f604482015267206164647265737360c01b60648201526084016109cc565b6001600160a01b0382166111285760405162461bcd60e51b815260206004820152602660248201527f42617365546f6b656e3a20617070726f766520746f20746865207a65726f206160448201526564647265737360d01b60648201526084016109cc565b6001600160a01b0383811660008181526008602090815260408083209487168084529482529182902085905590518481527f8c5be1e5ebec7d5bd14f71427d1e84f3dd0314c0f7b2291e5b200ac8c7c3b92591015b60405180910390a3505050565b6001600160a01b0383166111f25760405162461bcd60e51b815260206004820152602960248201527f42617365546f6b656e3a207472616e736665722066726f6d20746865207a65726044820152686f206164647265737360b81b60648201526084016109cc565b6001600160a01b0382166112585760405162461bcd60e51b815260206004820152602760248201527f42617365546f6b656e3a207472616e7366657220746f20746865207a65726f206044820152666164647265737360c81b60648201526084016109cc565b600c5460ff16156112d057336000908152600d602052604090205460ff166112d05760405162461bcd60e51b815260206004820152602560248201527f42617365546f6b656e3a206d73672e73656e646572206e6f742077686974656c6044820152641a5cdd195960da1b60648201526084016109cc565b6112d98361159d565b6112e28261159d565b6001600160a01b0383166000908152600760205260409020546113069082906121ba565b6001600160a01b0380851660009081526007602052604080822093909355908416815220546113369082906121cd565b6001600160a01b038084166000908152600760209081526040808320949094559186168152600a909152205460ff161561137c578060065461137891906121ba565b6006555b6001600160a01b0382166000908152600a602052604090205460ff16156113af57806006546113ab91906121cd565b6006555b816001600160a01b0316836001600160a01b03167fddf252ad1be2c89b69c2b068fc378daa952ba7f163c4a11628f55a4df523b3ef8360405161117d91815260200190565b6113fe8282610c4d565b61089f576000828152602081815260408083206001600160a01b03851684529091529020805460ff191660011790556114343390565b6001600160a01b0316816001600160a01b0316837f2f8788117e7eff1d82e926ec794901d17c78024a50270940304540a733656f0d60405160405180910390a45050565b6001600160a01b0382166114da5760405162461bcd60e51b815260206004820152602360248201527f42617365546f6b656e3a206d696e7420746f20746865207a65726f206164647260448201526265737360e81b60648201526084016109cc565b6114e38261159d565b806005546114f191906121cd565b6005556001600160a01b0382166000908152600760205260409020546115189082906121cd565b6001600160a01b038316600090815260076020908152604080832093909355600a9052205460ff1615611557578060065461155391906121cd565b6006555b6040518181526001600160a01b038316906000907fddf252ad1be2c89b69c2b068fc378daa952ba7f163c4a11628f55a4df523b3ef906020015b60405180910390a35050565b60005b60095481101561089f576000600982815481106115bf576115bf61215c565b600091825260209091200154604051635fd6196560e01b81526001600160a01b03858116600483015290911691508190635fd6196590602401600060405180830381600087803b15801561161257600080fd5b505af1158015611626573d6000803e3d6000fd5b50505050508080611636906121a1565b9150506115a0565b6001546001600160a01b03163314610b9a5760405162461bcd60e51b815260206004820181905260248201527f4f776e61626c653a2063616c6c6572206973206e6f7420746865206f776e657260448201526064016109cc565b600180546001600160a01b038381166001600160a01b0319831681179093556040519116919082907f8be0079c531659141344cd1fd0a4f28419497f9722a3daafe3b4186f6b6457e090600090a35050565b61089f82826113f4565b6116fe8282610c4d565b1561089f576000828152602081815260408083206001600160a01b0385168085529252808320805460ff1916905551339285917ff6391f5c32d9c69d2a47ea670b442974b53935d1edc7fd64eb21e047a839171b9190a45050565b6001600160a01b0382166117bd5760405162461bcd60e51b815260206004820152602560248201527f42617365546f6b656e3a206275726e2066726f6d20746865207a65726f206164604482015264647265737360d81b60648201526084016109cc565b6117c68261159d565b6001600160a01b0382166000908152600760205260409020546117ea9082906121ba565b6001600160a01b0383166000908152600760205260409020556005546118119082906121ba565b6005556001600160a01b0382166000908152600a602052604090205460ff1615611847578060065461184391906121ba565b6006555b6040518181526000906001600160a01b038416907fddf252ad1be2c89b69c2b068fc378daa952ba7f163c4a11628f55a4df523b3ef90602001611591565b61188f8282610c4d565b61089f5761189c816119b3565b6118a78360206119c5565b6040516020016118b89291906122ee565b60408051601f198184030181529082905262461bcd60e51b82526109cc91600401611e11565b6000611933826040518060400160405280602081526020017f5361666545524332303a206c6f772d6c6576656c2063616c6c206661696c6564815250856001600160a01b0316611b619092919063ffffffff16565b90508051600014806119545750808060200190518101906119549190612363565b6106ce5760405162461bcd60e51b815260206004820152602a60248201527f5361666545524332303a204552433230206f7065726174696f6e20646964206e6044820152691bdd081cdd58d8d9595960b21b60648201526084016109cc565b60606107046001600160a01b03831660145b606060006119d4836002612380565b6119df9060026121cd565b67ffffffffffffffff8111156119f7576119f7611ea2565b6040519080825280601f01601f191660200182016040528015611a21576020820181803683370190505b509050600360fc1b81600081518110611a3c57611a3c61215c565b60200101906001600160f81b031916908160001a905350600f60fb1b81600181518110611a6b57611a6b61215c565b60200101906001600160f81b031916908160001a9053506000611a8f846002612380565b611a9a9060016121cd565b90505b6001811115611b12576f181899199a1a9b1b9c1cb0b131b232b360811b85600f1660108110611ace57611ace61215c565b1a60f81b828281518110611ae457611ae461215c565b60200101906001600160f81b031916908160001a90535060049490941c93611b0b81612397565b9050611a9d565b50831561091b5760405162461bcd60e51b815260206004820181905260248201527f537472696e67733a20686578206c656e67746820696e73756666696369656e7460448201526064016109cc565b6060611b708484600085611b78565b949350505050565b606082471015611bd95760405162461bcd60e51b815260206004820152602660248201527f416464726573733a20696e73756666696369656e742062616c616e636520666f6044820152651c8818d85b1b60d21b60648201526084016109cc565b600080866001600160a01b03168587604051611bf591906123ae565b60006040518083038185875af1925050503d8060008114611c32576040519150601f19603f3d011682016040523d82523d6000602084013e611c37565b606091505b5091509150611c4887838387611c53565b979650505050505050565b60608315611cc2578251600003611cbb576001600160a01b0385163b611cbb5760405162461bcd60e51b815260206004820152601d60248201527f416464726573733a2063616c6c20746f206e6f6e2d636f6e747261637400000060448201526064016109cc565b5081611b70565b611b708383815115611cd75781518083602001fd5b8060405162461bcd60e51b81526004016109cc9190611e11565b828054828255906000526020600020908101928215611d46579160200282015b82811115611d4657825182546001600160a01b0319166001600160a01b03909116178255602090920191600190910190611d11565b50611d52929150611d56565b5090565b5b80821115611d525760008155600101611d57565b80356001600160a01b0381168114611d8257600080fd5b919050565b600080600060608486031215611d9c57600080fd5b611da584611d6b565b9250611db360208501611d6b565b9150604084013590509250925092565b600060208284031215611dd557600080fd5b81356001600160e01b03198116811461091b57600080fd5b60005b83811015611e08578181015183820152602001611df0565b50506000910152565b6020815260008251806020840152611e30816040850160208701611ded565b601f01601f19169190910160400192915050565b60008060408385031215611e5757600080fd5b611e6083611d6b565b946020939093013593505050565b600060208284031215611e8057600080fd5b61091b82611d6b565b600060208284031215611e9b57600080fd5b5035919050565b634e487b7160e01b600052604160045260246000fd5b604051601f8201601f1916810167ffffffffffffffff81118282101715611ee157611ee1611ea2565b604052919050565b60006020808385031215611efc57600080fd5b823567ffffffffffffffff80821115611f1457600080fd5b818501915085601f830112611f2857600080fd5b813581811115611f3a57611f3a611ea2565b8060051b9150611f4b848301611eb8565b8181529183018401918481019088841115611f6557600080fd5b938501935b83851015611f8a57611f7b85611d6b565b82529385019390850190611f6a565b98975050505050505050565b60008060408385031215611fa957600080fd5b82359150611fb960208401611d6b565b90509250929050565b60008060408385031215611fd557600080fd5b611fde83611d6b565b9150611fb960208401611d6b565b8015158114610f1a57600080fd5b60006020828403121561200c57600080fd5b813561091b81611fec565b6000806040838503121561202a57600080fd5b61203383611d6b565b9150602083013561204381611fec565b809150509250929050565b600082601f83011261205f57600080fd5b813567ffffffffffffffff81111561207957612079611ea2565b61208c601f8201601f1916602001611eb8565b8181528460208386010111156120a157600080fd5b816020850160208301376000918101602001919091529392505050565b600080604083850312156120d157600080fd5b823567ffffffffffffffff808211156120e957600080fd5b6120f58683870161204e565b9350602085013591508082111561210b57600080fd5b506121188582860161204e565b9150509250929050565b600181811c9082168061213657607f821691505b60208210810361215657634e487b7160e01b600052602260045260246000fd5b50919050565b634e487b7160e01b600052603260045260246000fd5b60006020828403121561218457600080fd5b5051919050565b634e487b7160e01b600052601160045260246000fd5b6000600182016121b3576121b361218b565b5060010190565b818103818111156107045761070461218b565b808201808211156107045761070461218b565b601f8211156106ce57600081815260208120601f850160051c810160208610156122075750805b601f850160051c820191505b8181101561222657828155600101612213565b505050505050565b815167ffffffffffffffff81111561224857612248611ea2565b61225c816122568454612122565b846121e0565b602080601f83116001811461229157600084156122795750858301515b600019600386901b1c1916600185901b178555612226565b600085815260208120601f198616915b828110156122c0578886015182559484019460019091019084016122a1565b50858210156122de5787850151600019600388901b60f8161c191681555b5050505050600190811b01905550565b7f416363657373436f6e74726f6c3a206163636f756e7420000000000000000000815260008351612326816017850160208801611ded565b7001034b99036b4b9b9b4b733903937b6329607d1b6017918401918201528351612357816028840160208801611ded565b01602801949350505050565b60006020828403121561237557600080fd5b815161091b81611fec565b80820281158282048414176107045761070461218b565b6000816123a6576123a661218b565b506000190190565b600082516123c0818460208701611ded565b919091019291505056fe241ecf16d79d0f8dbfb92cbc07fe17840425976cf0667f022fe9877caa831b08a2646970667358221220e2d286ef54a0505c833e2beba04691dfe7baf2856cee417446388f12d208eba164736f6c63430008110033",
    "linkReferences": {}
  },
  "methodIdentifiers": {
    "DEFAULT_ADMIN_ROLE()": "a217fddf",
    "addAdmin(address)": "70480275",
    "addNonStakingAccount(address)": "62289077",
    "admins(address)": "429b62e5",
    "allowance(address,address)": "dd62ed3e",
    "allowances(address,address)": "55b6ed5c",
    "approve(address,uint256)": "095ea7b3",
    "balanceOf(address)": "70a08231",
    "balances(address)": "27e235e3",
    "burn(address,uint256)": "9dc29fac",
    "claim(address)": "1e83409a",
    "decimals()": "313ce567",
    "getRoleAdmin(bytes32)": "248a9ca3",
    "grantControllerRoleByMarketManager(address)": "7fe4a698",
    "grantRole(bytes32,address)": "2f2ff15d",
    "hasRole(bytes32,address)": "91d14854",
    "inPrivateTransferMode()": "dfbaefb1",
    "isHandler(address)": "46ea87af",
    "isMinter(address)": "aa271e1a",
    "mint(address,uint256)": "40c10f19",
    "name()": "06fdde03",
    "nonStakingAccounts(address)": "9554381a",
    "nonStakingSupply()": "c93be636",
    "owner()": "8da5cb5b",
    "recoverClaim(address,address)": "996f11ee",
    "removeAdmin(address)": "1785f53c",
    "removeNonStakingAccount(address)": "fb30d916",
    "renounceOwnership()": "715018a6",
    "renounceRole(bytes32,address)": "36568abe",
    "revokeRole(bytes32,address)": "d547741f",
    "setHandler(address,bool)": "9cb7de4b",
    "setInPrivateTransferMode(bool)": "5a47a1a7",
    "setInfo(string,string)": "a923fc40",
    "setMinter(address,bool)": "cf456ae7",
    "setYieldTrackers(address[])": "276eab4e",
    "stakedBalance(address)": "60217267",
    "supportsInterface(bytes4)": "01ffc9a7",
    "symbol()": "95d89b41",
    "totalStaked()": "817b1cd2",
    "totalSupply()": "18160ddd",
    "transfer(address,uint256)": "a9059cbb",
    "transferAdmin(address)": "75829def",
    "transferFrom(address,address,uint256)": "23b872dd",
    "transferOwnership(address)": "f2fde38b",
    "withdrawToken(address,address,uint256)": "01e33667",
    "yieldTrackers(uint256)": "52cd38d9"
  },
  "id": 109
}