{
  "abi": [
    {
      "inputs": [],
      "stateMutability": "nonpayable",
      "type": "constructor"
    },
    {
      "anonymous": false,
      "inputs": [
        {
          "indexed": true,
          "internalType": "address",
          "name": "owner",
          "type": "address"
        },
        {
          "indexed": true,
          "internalType": "address",
          "name": "spender",
          "type": "address"
        },
        {
          "indexed": false,
          "internalType": "uint256",
          "name": "value",
          "type": "uint256"
        }
      ],
      "name": "Approval",
      "type": "event"
    },
    {
      "anonymous": false,
      "inputs": [
        {
          "indexed": false,
          "internalType": "uint8",
          "name": "version",
          "type": "uint8"
        }
      ],
      "name": "Initialized",
      "type": "event"
    },
    {
      "anonymous": false,
      "inputs": [
        {
          "indexed": true,
          "internalType": "address",
          "name": "previousOwner",
          "type": "address"
        },
        {
          "indexed": true,
          "internalType": "address",
          "name": "newOwner",
          "type": "address"
        }
      ],
      "name": "OwnershipTransferred",
      "type": "event"
    },
    {
      "anonymous": false,
      "inputs": [
        {
          "indexed": true,
          "internalType": "bytes32",
          "name": "role",
          "type": "bytes32"
        },
        {
          "indexed": true,
          "internalType": "bytes32",
          "name": "previousAdminRole",
          "type": "bytes32"
        },
        {
          "indexed": true,
          "internalType": "bytes32",
          "name": "newAdminRole",
          "type": "bytes32"
        }
      ],
      "name": "RoleAdminChanged",
      "type": "event"
    },
    {
      "anonymous": false,
      "inputs": [
        {
          "indexed": true,
          "internalType": "bytes32",
          "name": "role",
          "type": "bytes32"
        },
        {
          "indexed": true,
          "internalType": "address",
          "name": "account",
          "type": "address"
        },
        {
          "indexed": true,
          "internalType": "address",
          "name": "sender",
          "type": "address"
        }
      ],
      "name": "RoleGranted",
      "type": "event"
    },
    {
      "anonymous": false,
      "inputs": [
        {
          "indexed": true,
          "internalType": "bytes32",
          "name": "role",
          "type": "bytes32"
        },
        {
          "indexed": true,
          "internalType": "address",
          "name": "account",
          "type": "address"
        },
        {
          "indexed": true,
          "internalType": "address",
          "name": "sender",
          "type": "address"
        }
      ],
      "name": "RoleRevoked",
      "type": "event"
    },
    {
      "anonymous": false,
      "inputs": [
        {
          "indexed": true,
          "internalType": "address",
          "name": "from",
          "type": "address"
        },
        {
          "indexed": true,
          "internalType": "address",
          "name": "to",
          "type": "address"
        },
        {
          "indexed": false,
          "internalType": "uint256",
          "name": "value",
          "type": "uint256"
        }
      ],
      "name": "Transfer",
      "type": "event"
    },
    {
      "inputs": [],
      "name": "DEFAULT_ADMIN_ROLE",
      "outputs": [
        {
          "internalType": "bytes32",
          "name": "",
          "type": "bytes32"
        }
      ],
      "stateMutability": "view",
      "type": "function"
    },
    {
      "inputs": [
        {
          "internalType": "address",
          "name": "_account",
          "type": "address"
        }
      ],
      "name": "addAdmin",
      "outputs": [],
      "stateMutability": "nonpayable",
      "type": "function"
    },
    {
      "inputs": [
        {
          "internalType": "address",
          "name": "_account",
          "type": "address"
        }
      ],
      "name": "addNonStakingAccount",
      "outputs": [],
      "stateMutability": "nonpayable",
      "type": "function"
    },
    {
      "inputs": [
        {
          "internalType": "address",
          "name": "",
          "type": "address"
        }
      ],
      "name": "admins",
      "outputs": [
        {
          "internalType": "bool",
          "name": "",
          "type": "bool"
        }
      ],
      "stateMutability": "view",
      "type": "function"
    },
    {
      "inputs": [
        {
          "internalType": "address",
          "name": "_owner",
          "type": "address"
        },
        {
          "internalType": "address",
          "name": "_spender",
          "type": "address"
        }
      ],
      "name": "allowance",
      "outputs": [
        {
          "internalType": "uint256",
          "name": "",
          "type": "uint256"
        }
      ],
      "stateMutability": "view",
      "type": "function"
    },
    {
      "inputs": [
        {
          "internalType": "address",
          "name": "",
          "type": "address"
        },
        {
          "internalType": "address",
          "name": "",
          "type": "address"
        }
      ],
      "name": "allowances",
      "outputs": [
        {
          "internalType": "uint256",
          "name": "",
          "type": "uint256"
        }
      ],
      "stateMutability": "view",
      "type": "function"
    },
    {
      "inputs": [
        {
          "internalType": "address",
          "name": "_spender",
          "type": "address"
        },
        {
          "internalType": "uint256",
          "name": "_amount",
          "type": "uint256"
        }
      ],
      "name": "approve",
      "outputs": [
        {
          "internalType": "bool",
          "name": "",
          "type": "bool"
        }
      ],
      "stateMutability": "nonpayable",
      "type": "function"
    },
    {
      "inputs": [
        {
          "internalType": "address",
          "name": "_account",
          "type": "address"
        }
      ],
      "name": "balanceOf",
      "outputs": [
        {
          "internalType": "uint256",
          "name": "",
          "type": "uint256"
        }
      ],
      "stateMutability": "view",
      "type": "function"
    },
    {
      "inputs": [
        {
          "internalType": "address",
          "name": "",
          "type": "address"
        }
      ],
      "name": "balances",
      "outputs": [
        {
          "internalType": "uint256",
          "name": "",
          "type": "uint256"
        }
      ],
      "stateMutability": "view",
      "type": "function"
    },
    {
      "inputs": [
        {
          "internalType": "address",
          "name": "_account",
          "type": "address"
        },
        {
          "internalType": "uint256",
          "name": "_amount",
          "type": "uint256"
        }
      ],
      "name": "burn",
      "outputs": [],
      "stateMutability": "nonpayable",
      "type": "function"
    },
    {
      "inputs": [
        {
          "internalType": "address",
          "name": "_receiver",
          "type": "address"
        }
      ],
      "name": "claim",
      "outputs": [],
      "stateMutability": "nonpayable",
      "type": "function"
    },
    {
      "inputs": [],
      "name": "decimals",
      "outputs": [
        {
          "internalType": "uint8",
          "name": "",
          "type": "uint8"
        }
      ],
      "stateMutability": "view",
      "type": "function"
    },
    {
      "inputs": [
        {
          "internalType": "bytes32",
          "name": "role",
          "type": "bytes32"
        }
      ],
      "name": "getRoleAdmin",
      "outputs": [
        {
          "internalType": "bytes32",
          "name": "",
          "type": "bytes32"
        }
      ],
      "stateMutability": "view",
      "type": "function"
    },
    {
      "inputs": [
        {
          "internalType": "address",
          "name": "_account",
          "type": "address"
        }
      ],
      "name": "grantControllerRoleByMarketManager",
      "outputs": [],
      "stateMutability": "nonpayable",
      "type": "function"
    },
    {
      "inputs": [
        {
          "internalType": "bytes32",
          "name": "role",
          "type": "bytes32"
        },
        {
          "internalType": "address",
          "name": "account",
          "type": "address"
        }
      ],
      "name": "grantRole",
      "outputs": [],
      "stateMutability": "nonpayable",
      "type": "function"
    },
    {
      "inputs": [
        {
          "internalType": "bytes32",
          "name": "role",
          "type": "bytes32"
        },
        {
          "internalType": "address",
          "name": "account",
          "type": "address"
        }
      ],
      "name": "hasRole",
      "outputs": [
        {
          "internalType": "bool",
          "name": "",
          "type": "bool"
        }
      ],
      "stateMutability": "view",
      "type": "function"
    },
    {
      "inputs": [],
      "name": "id",
      "outputs": [
        {
          "internalType": "string",
          "name": "_name",
          "type": "string"
        }
      ],
      "stateMutability": "pure",
      "type": "function"
    },
    {
      "inputs": [],
      "name": "inPrivateTransferMode",
      "outputs": [
        {
          "internalType": "bool",
          "name": "",
          "type": "bool"
        }
      ],
      "stateMutability": "view",
      "type": "function"
    },
    {
      "inputs": [
        {
          "internalType": "address",
          "name": "",
          "type": "address"
        }
      ],
      "name": "isHandler",
      "outputs": [
        {
          "internalType": "bool",
          "name": "",
          "type": "bool"
        }
      ],
      "stateMutability": "view",
      "type": "function"
    },
    {
      "inputs": [
        {
          "internalType": "address",
          "name": "",
          "type": "address"
        }
      ],
      "name": "isMinter",
      "outputs": [
        {
          "internalType": "bool",
          "name": "",
          "type": "bool"
        }
      ],
      "stateMutability": "view",
      "type": "function"
    },
    {
      "inputs": [
        {
          "internalType": "address",
          "name": "_account",
          "type": "address"
        },
        {
          "internalType": "uint256",
          "name": "_amount",
          "type": "uint256"
        }
      ],
      "name": "mint",
      "outputs": [],
      "stateMutability": "nonpayable",
      "type": "function"
    },
    {
      "inputs": [],
      "name": "name",
      "outputs": [
        {
          "internalType": "string",
          "name": "",
          "type": "string"
        }
      ],
      "stateMutability": "view",
      "type": "function"
    },
    {
      "inputs": [
        {
          "internalType": "address",
          "name": "",
          "type": "address"
        }
      ],
      "name": "nonStakingAccounts",
      "outputs": [
        {
          "internalType": "bool",
          "name": "",
          "type": "bool"
        }
      ],
      "stateMutability": "view",
      "type": "function"
    },
    {
      "inputs": [],
      "name": "nonStakingSupply",
      "outputs": [
        {
          "internalType": "uint256",
          "name": "",
          "type": "uint256"
        }
      ],
      "stateMutability": "view",
      "type": "function"
    },
    {
      "inputs": [],
      "name": "owner",
      "outputs": [
        {
          "internalType": "address",
          "name": "",
          "type": "address"
        }
      ],
      "stateMutability": "view",
      "type": "function"
    },
    {
      "inputs": [
        {
          "internalType": "address",
          "name": "_account",
          "type": "address"
        },
        {
          "internalType": "address",
          "name": "_receiver",
          "type": "address"
        }
      ],
      "name": "recoverClaim",
      "outputs": [],
      "stateMutability": "nonpayable",
      "type": "function"
    },
    {
      "inputs": [
        {
          "internalType": "address",
          "name": "_account",
          "type": "address"
        }
      ],
      "name": "removeAdmin",
      "outputs": [],
      "stateMutability": "nonpayable",
      "type": "function"
    },
    {
      "inputs": [
        {
          "internalType": "address",
          "name": "_account",
          "type": "address"
        }
      ],
      "name": "removeNonStakingAccount",
      "outputs": [],
      "stateMutability": "nonpayable",
      "type": "function"
    },
    {
      "inputs": [],
      "name": "renounceOwnership",
      "outputs": [],
      "stateMutability": "nonpayable",
      "type": "function"
    },
    {
      "inputs": [
        {
          "internalType": "bytes32",
          "name": "",
          "type": "bytes32"
        },
        {
          "internalType": "address",
          "name": "",
          "type": "address"
        }
      ],
      "name": "renounceRole",
      "outputs": [],
      "stateMutability": "nonpayable",
      "type": "function"
    },
    {
      "inputs": [
        {
          "internalType": "bytes32",
          "name": "role",
          "type": "bytes32"
        },
        {
          "internalType": "address",
          "name": "account",
          "type": "address"
        }
      ],
      "name": "revokeRole",
      "outputs": [],
      "stateMutability": "nonpayable",
      "type": "function"
    },
    {
      "inputs": [
        {
          "internalType": "address",
          "name": "_handler",
          "type": "address"
        },
        {
          "internalType": "bool",
          "name": "_isActive",
          "type": "bool"
        }
      ],
      "name": "setHandler",
      "outputs": [],
      "stateMutability": "nonpayable",
      "type": "function"
    },
    {
      "inputs": [
        {
          "internalType": "bool",
          "name": "_inPrivateTransferMode",
          "type": "bool"
        }
      ],
      "name": "setInPrivateTransferMode",
      "outputs": [],
      "stateMutability": "nonpayable",
      "type": "function"
    },
    {
      "inputs": [
        {
          "internalType": "string",
          "name": "_name",
          "type": "string"
        },
        {
          "internalType": "string",
          "name": "_symbol",
          "type": "string"
        }
      ],
      "name": "setInfo",
      "outputs": [],
      "stateMutability": "nonpayable",
      "type": "function"
    },
    {
      "inputs": [
        {
          "internalType": "address",
          "name": "_minter",
          "type": "address"
        },
        {
          "internalType": "bool",
          "name": "_isActive",
          "type": "bool"
        }
      ],
      "name": "setMinter",
      "outputs": [],
      "stateMutability": "nonpayable",
      "type": "function"
    },
    {
      "inputs": [
        {
          "internalType": "address[]",
          "name": "_yieldTrackers",
          "type": "address[]"
        }
      ],
      "name": "setYieldTrackers",
      "outputs": [],
      "stateMutability": "nonpayable",
      "type": "function"
    },
    {
      "inputs": [
        {
          "internalType": "address",
          "name": "_account",
          "type": "address"
        }
      ],
      "name": "stakedBalance",
      "outputs": [
        {
          "internalType": "uint256",
          "name": "",
          "type": "uint256"
        }
      ],
      "stateMutability": "view",
      "type": "function"
    },
    {
      "inputs": [
        {
          "internalType": "bytes4",
          "name": "interfaceId",
          "type": "bytes4"
        }
      ],
      "name": "supportsInterface",
      "outputs": [
        {
          "internalType": "bool",
          "name": "",
          "type": "bool"
        }
      ],
      "stateMutability": "view",
      "type": "function"
    },
    {
      "inputs": [],
      "name": "symbol",
      "outputs": [
        {
          "internalType": "string",
          "name": "",
          "type": "string"
        }
      ],
      "stateMutability": "view",
      "type": "function"
    },
    {
      "inputs": [],
      "name": "totalStaked",
      "outputs": [
        {
          "internalType": "uint256",
          "name": "",
          "type": "uint256"
        }
      ],
      "stateMutability": "view",
      "type": "function"
    },
    {
      "inputs": [],
      "name": "totalSupply",
      "outputs": [
        {
          "internalType": "uint256",
          "name": "",
          "type": "uint256"
        }
      ],
      "stateMutability": "view",
      "type": "function"
    },
    {
      "inputs": [
        {
          "internalType": "address",
          "name": "_recipient",
          "type": "address"
        },
        {
          "internalType": "uint256",
          "name": "_amount",
          "type": "uint256"
        }
      ],
      "name": "transfer",
      "outputs": [
        {
          "internalType": "bool",
          "name": "",
          "type": "bool"
        }
      ],
      "stateMutability": "nonpayable",
      "type": "function"
    },
    {
      "inputs": [
        {
          "internalType": "address",
          "name": "to",
          "type": "address"
        }
      ],
      "name": "transferAdmin",
      "outputs": [],
      "stateMutability": "nonpayable",
      "type": "function"
    },
    {
      "inputs": [
        {
          "internalType": "address",
          "name": "_sender",
          "type": "address"
        },
        {
          "internalType": "address",
          "name": "_recipient",
          "type": "address"
        },
        {
          "internalType": "uint256",
          "name": "_amount",
          "type": "uint256"
        }
      ],
      "name": "transferFrom",
      "outputs": [
        {
          "internalType": "bool",
          "name": "",
          "type": "bool"
        }
      ],
      "stateMutability": "nonpayable",
      "type": "function"
    },
    {
      "inputs": [
        {
          "internalType": "address",
          "name": "newOwner",
          "type": "address"
        }
      ],
      "name": "transferOwnership",
      "outputs": [],
      "stateMutability": "nonpayable",
      "type": "function"
    },
    {
      "inputs": [
        {
          "internalType": "address",
          "name": "_token",
          "type": "address"
        },
        {
          "internalType": "address",
          "name": "_account",
          "type": "address"
        },
        {
          "internalType": "uint256",
          "name": "_amount",
          "type": "uint256"
        }
      ],
      "name": "withdrawToken",
      "outputs": [],
      "stateMutability": "nonpayable",
      "type": "function"
    },
    {
      "inputs": [
        {
          "internalType": "uint256",
          "name": "",
          "type": "uint256"
        }
      ],
      "name": "yieldTrackers",
      "outputs": [
        {
          "internalType": "address",
          "name": "",
          "type": "address"
        }
      ],
      "stateMutability": "view",
      "type": "function"
    }
  ],
  "bytecode": {
    "object": "0x60806040523480156200001157600080fd5b506040518060400160405280600c81526020016b457363726f77656420424c4560a01b815250604051806040016040528060058152602001646573424c4560d81b815250600082828260006200007662000070620000c360201b60201c565b620000c7565b6200008c816200011960201b620010091760201c565b5060036200009b848262000489565b506004620000aa838262000489565b50620000b7338262000145565b505050505050620005b3565b3390565b600180546001600160a01b038381166001600160a01b0319831681179093556040519116919082907f8be0079c531659141344cd1fd0a4f28419497f9722a3daafe3b4186f6b6457e090600090a35050565b426002556200012833620000c7565b6200013560003362000277565b6200014260008262000277565b50565b6001600160a01b038216620001ac5760405162461bcd60e51b815260206004820152602360248201527f42617365546f6b656e3a206d696e7420746f20746865207a65726f206164647260448201526265737360e81b606482015260840160405180910390fd5b620001b78262000287565b80600554620001c791906200056b565b6005556001600160a01b038216600090815260076020526040902054620001f09082906200056b565b6001600160a01b038316600090815260076020908152604080832093909355600a9052205460ff16156200023257806006546200022e91906200056b565b6006555b6040518181526001600160a01b038316906000907fddf252ad1be2c89b69c2b068fc378daa952ba7f163c4a11628f55a4df523b3ef9060200160405180910390a35050565b62000283828262000331565b5050565b60005b6009548110156200028357600060098281548110620002ad57620002ad62000581565b600091825260209091200154604051635fd6196560e01b81526001600160a01b03858116600483015290911691508190635fd6196590602401600060405180830381600087803b1580156200030157600080fd5b505af115801562000316573d6000803e3d6000fd5b50505050508080620003289062000597565b9150506200028a565b6200033d8282620003b9565b62000283576000828152602081815260408083206001600160a01b03851684529091529020805460ff19166001179055620003753390565b6001600160a01b0316816001600160a01b0316837f2f8788117e7eff1d82e926ec794901d17c78024a50270940304540a733656f0d60405160405180910390a45050565b6000828152602081815260408083206001600160a01b038516845290915290205460ff165b92915050565b634e487b7160e01b600052604160045260246000fd5b600181811c908216806200040f57607f821691505b6020821081036200043057634e487b7160e01b600052602260045260246000fd5b50919050565b601f8211156200048457600081815260208120601f850160051c810160208610156200045f5750805b601f850160051c820191505b8181101562000480578281556001016200046b565b5050505b505050565b81516001600160401b03811115620004a557620004a5620003e4565b620004bd81620004b68454620003fa565b8462000436565b602080601f831160018114620004f55760008415620004dc5750858301515b600019600386901b1c1916600185901b17855562000480565b600085815260208120601f198616915b82811015620005265788860151825594840194600190910190840162000505565b5085821015620005455787850151600019600388901b60f8161c191681555b5050505050600190811b01905550565b634e487b7160e01b600052601160045260246000fd5b80820180821115620003de57620003de62000555565b634e487b7160e01b600052603260045260246000fd5b600060018201620005ac57620005ac62000555565b5060010190565b61245f80620005c36000396000f3fe608060405234801561001057600080fd5b50600436106102955760003560e01c806370a0823111610167578063a217fddf116100ce578063cf456ae711610087578063cf456ae71461063d578063d547741f14610650578063dd62ed3e14610663578063dfbaefb11461069c578063f2fde38b146106a9578063fb30d916146106bc57600080fd5b8063a217fddf146105c2578063a9059cbb146105ca578063a923fc40146105dd578063aa271e1a146105f0578063af640d0f14610613578063c93be6361461063457600080fd5b806391d148541161012057806391d148541461054b5780639554381a1461055e57806395d89b4114610581578063996f11ee146105895780639cb7de4b1461059c5780639dc29fac146105af57600080fd5b806370a08231146104db578063715018a61461050457806375829def1461050c5780637fe4a6981461051f578063817b1cd2146105325780638da5cb5b1461053a57600080fd5b80632f2ff15d1161020b57806352cd38d9116101c457806352cd38d91461043957806355b6ed5c146104645780635a47a1a71461048f57806360217267146104a257806362289077146104b557806370480275146104c857600080fd5b80632f2ff15d146103a5578063313ce567146103b857806336568abe146103d257806340c10f19146103e0578063429b62e5146103f357806346ea87af1461041657600080fd5b806318160ddd1161025d57806318160ddd146103125780631e83409a1461032957806323b872dd1461033c578063248a9ca31461034f578063276eab4e1461037257806327e235e31461038557600080fd5b806301e336671461029a57806301ffc9a7146102af57806306fdde03146102d7578063095ea7b3146102ec5780631785f53c146102ff575b600080fd5b6102ad6102a8366004611dc6565b6106cf565b005b6102c26102bd366004611e02565b6106ff565b60405190151581526020015b60405180910390f35b6102df610736565b6040516102ce9190611e50565b6102c26102fa366004611e83565b6107c4565b6102ad61030d366004611ead565b6107da565b61031b60055481565b6040519081526020016102ce565b6102ad610337366004611ead565b610812565b6102c261034a366004611dc6565b6108cf565b61031b61035d366004611ec8565b60009081526020819052604090206001015490565b6102ad610380366004611f28565b61094e565b61031b610393366004611ead565b60076020526000908152604090205481565b6102ad6103b3366004611fd5565b610978565b6103c0601281565b60405160ff90911681526020016102ce565b6102ad610295366004611fd5565b6102ad6103ee366004611e83565b61099d565b6102c2610401366004611ead565b600b6020526000908152604090205460ff1681565b6102c2610424366004611ead565b600d6020526000908152604090205460ff1681565b61044c610447366004611ec8565b610a0b565b6040516001600160a01b0390911681526020016102ce565b61031b610472366004612001565b600860209081526000928352604080842090915290825290205481565b6102ad61049d366004612039565b610a35565b61031b6104b0366004611ead565b610a5f565b6102ad6104c3366004611ead565b610aa4565b6102ad6104d6366004611ead565b610b79565b61031b6104e9366004611ead565b6001600160a01b031660009081526007602052604090205490565b6102ad610bb4565b6102ad61051a366004611ead565b610bc8565b6102ad61052d366004611ead565b610c38565b61031b610c62565b6001546001600160a01b031661044c565b6102c2610559366004611fd5565b610c79565b6102c261056c366004611ead565b600a6020526000908152604090205460ff1681565b6102df610ca2565b6102ad610597366004612001565b610caf565b6102ad6105aa366004612056565b610d81565b6102ad6105bd366004611e83565b610dc3565b61031b600081565b6102c26105d8366004611e83565b610e2c565b6102ad6105eb3660046120fd565b610e39565b6102c26105fe366004611ead565b600e6020526000908152604090205460ff1681565b6040805180820190915260058152646573424c4560d81b60208201526102df565b61031b60065481565b6102ad61064b366004612056565b610e69565b6102ad61065e366004611fd5565b610eab565b61031b610671366004612001565b6001600160a01b03918216600090815260086020908152604080832093909416825291909152205490565b600c546102c29060ff1681565b6102ad6106b7366004611ead565b610ed0565b6102ad6106ca366004611ead565b610f49565b6106e660008051602061240a83398151915261102c565b6106fa6001600160a01b0384168383611036565b505050565b60006001600160e01b03198216637965db0b60e01b148061073057506301ffc9a760e01b6001600160e01b03198316145b92915050565b6003805461074390612161565b80601f016020809104026020016040519081016040528092919081815260200182805461076f90612161565b80156107bc5780601f10610791576101008083540402835291602001916107bc565b820191906000526020600020905b81548152906001019060200180831161079f57829003601f168201915b505050505081565b60006107d1338484611088565b50600192915050565b6107f160008051602061240a83398151915261102c565b6001600160a01b03166000908152600b60205260409020805460ff19169055565b60005b6009548110156108cb576000600982815481106108345761083461219b565b6000918252602090912001546040516310e059a160e11b81523360048201526001600160a01b038581166024830152909116915081906321c0b342906044016020604051808303816000875af1158015610892573d6000803e3d6000fd5b505050506040513d601f19601f820116820180604052508101906108b691906121b1565b505080806108c3906121e0565b915050610815565b5050565b336000908152600d602052604081205460ff16156108fa576108f28484846111b6565b506001610947565b6001600160a01b03841660009081526008602090815260408083203384529091528120546109299084906121f9565b9050610936853383611088565b6109418585856111b6565b60019150505b9392505050565b61096560008051602061240a83398151915261102c565b80516108cb906009906020840190611d30565b6000828152602081905260409020600101546109938161102c565b6106fa8383611420565b336000908152600e602052604090205460ff16610a015760405162461bcd60e51b815260206004820152601c60248201527f4d696e7461626c6542617365546f6b656e3a20666f7262696464656e0000000060448201526064015b60405180910390fd5b6108cb82826114a4565b60098181548110610a1b57600080fd5b6000918252602090912001546001600160a01b0316905081565b610a4c60008051602061240a83398151915261102c565b600c805460ff1916911515919091179055565b6001600160a01b0381166000908152600a602052604081205460ff1615610a8857506000919050565b506001600160a01b031660009081526007602052604090205490565b610abb60008051602061240a83398151915261102c565b6001600160a01b0381166000908152600a602052604090205460ff1615610b2f5760405162461bcd60e51b815260206004820152602260248201527f42617365546f6b656e3a205f6163636f756e7420616c7265616479206d61726b604482015261195960f21b60648201526084016109f8565b610b38816115c9565b6001600160a01b0381166000908152600a60209081526040808320805460ff191660011790556007909152902054600654610b73919061220c565b60065550565b610b9060008051602061240a83398151915261102c565b6001600160a01b03166000908152600b60205260409020805460ff19166001179055565b610bbc61166a565b610bc660006116c4565b565b6000610bd38161102c565b6001600160a01b038216610c195760405162461bcd60e51b815260206004820152600d60248201526c217a65726f206164647265737360981b60448201526064016109f8565b610c24600083611716565b610c2d826116c4565b6108cb600033611720565b7f8d1089725c0dc266707fa6207730fb801dcd03108bfed7a21099bd303651d2b76102958161102c565b6000600654600554610c7491906121f9565b905090565b6000918252602082815260408084206001600160a01b0393909316845291905290205460ff1690565b6004805461074390612161565b610cc660008051602061240a83398151915261102c565b60005b6009548110156106fa57600060098281548110610ce857610ce861219b565b6000918252602090912001546040516310e059a160e11b81526001600160a01b0386811660048301528581166024830152909116915081906321c0b342906044016020604051808303816000875af1158015610d48573d6000803e3d6000fd5b505050506040513d601f19601f82011682018060405250810190610d6c91906121b1565b50508080610d79906121e0565b915050610cc9565b610d9860008051602061240a83398151915261102c565b6001600160a01b03919091166000908152600d60205260409020805460ff1916911515919091179055565b336000908152600e602052604090205460ff16610e225760405162461bcd60e51b815260206004820152601c60248201527f4d696e7461626c6542617365546f6b656e3a20666f7262696464656e0000000060448201526064016109f8565b6108cb8282611785565b60006107d13384846111b6565b610e5060008051602061240a83398151915261102c565b6003610e5c838261226d565b5060046106fa828261226d565b610e8060008051602061240a83398151915261102c565b6001600160a01b03919091166000908152600e60205260409020805460ff1916911515919091179055565b600082815260208190526040902060010154610ec68161102c565b6106fa8383611720565b610ed861166a565b6001600160a01b038116610f3d5760405162461bcd60e51b815260206004820152602660248201527f4f776e61626c653a206e6577206f776e657220697320746865207a65726f206160448201526564647265737360d01b60648201526084016109f8565b610f46816116c4565b50565b610f6060008051602061240a83398151915261102c565b6001600160a01b0381166000908152600a602052604090205460ff16610fc85760405162461bcd60e51b815260206004820152601e60248201527f42617365546f6b656e3a205f6163636f756e74206e6f74206d61726b6564000060448201526064016109f8565b610fd1816115c9565b6001600160a01b0381166000908152600a60209081526040808320805460ff191690556007909152902054600654610b7391906121f9565b42600255611016336116c4565b611021600033611716565b610f46600082611716565b610f4681336118c4565b604080516001600160a01b038416602482015260448082018490528251808303909101815260649091019091526020810180516001600160e01b031663a9059cbb60e01b1790526106fa90849061191d565b6001600160a01b0383166110ef5760405162461bcd60e51b815260206004820152602860248201527f42617365546f6b656e3a20617070726f76652066726f6d20746865207a65726f604482015267206164647265737360c01b60648201526084016109f8565b6001600160a01b0382166111545760405162461bcd60e51b815260206004820152602660248201527f42617365546f6b656e3a20617070726f766520746f20746865207a65726f206160448201526564647265737360d01b60648201526084016109f8565b6001600160a01b0383811660008181526008602090815260408083209487168084529482529182902085905590518481527f8c5be1e5ebec7d5bd14f71427d1e84f3dd0314c0f7b2291e5b200ac8c7c3b92591015b60405180910390a3505050565b6001600160a01b03831661121e5760405162461bcd60e51b815260206004820152602960248201527f42617365546f6b656e3a207472616e736665722066726f6d20746865207a65726044820152686f206164647265737360b81b60648201526084016109f8565b6001600160a01b0382166112845760405162461bcd60e51b815260206004820152602760248201527f42617365546f6b656e3a207472616e7366657220746f20746865207a65726f206044820152666164647265737360c81b60648201526084016109f8565b600c5460ff16156112fc57336000908152600d602052604090205460ff166112fc5760405162461bcd60e51b815260206004820152602560248201527f42617365546f6b656e3a206d73672e73656e646572206e6f742077686974656c6044820152641a5cdd195960da1b60648201526084016109f8565b611305836115c9565b61130e826115c9565b6001600160a01b0383166000908152600760205260409020546113329082906121f9565b6001600160a01b03808516600090815260076020526040808220939093559084168152205461136290829061220c565b6001600160a01b038084166000908152600760209081526040808320949094559186168152600a909152205460ff16156113a857806006546113a491906121f9565b6006555b6001600160a01b0382166000908152600a602052604090205460ff16156113db57806006546113d7919061220c565b6006555b816001600160a01b0316836001600160a01b03167fddf252ad1be2c89b69c2b068fc378daa952ba7f163c4a11628f55a4df523b3ef836040516111a991815260200190565b61142a8282610c79565b6108cb576000828152602081815260408083206001600160a01b03851684529091529020805460ff191660011790556114603390565b6001600160a01b0316816001600160a01b0316837f2f8788117e7eff1d82e926ec794901d17c78024a50270940304540a733656f0d60405160405180910390a45050565b6001600160a01b0382166115065760405162461bcd60e51b815260206004820152602360248201527f42617365546f6b656e3a206d696e7420746f20746865207a65726f206164647260448201526265737360e81b60648201526084016109f8565b61150f826115c9565b8060055461151d919061220c565b6005556001600160a01b03821660009081526007602052604090205461154490829061220c565b6001600160a01b038316600090815260076020908152604080832093909355600a9052205460ff1615611583578060065461157f919061220c565b6006555b6040518181526001600160a01b038316906000907fddf252ad1be2c89b69c2b068fc378daa952ba7f163c4a11628f55a4df523b3ef906020015b60405180910390a35050565b60005b6009548110156108cb576000600982815481106115eb576115eb61219b565b600091825260209091200154604051635fd6196560e01b81526001600160a01b03858116600483015290911691508190635fd6196590602401600060405180830381600087803b15801561163e57600080fd5b505af1158015611652573d6000803e3d6000fd5b50505050508080611662906121e0565b9150506115cc565b6001546001600160a01b03163314610bc65760405162461bcd60e51b815260206004820181905260248201527f4f776e61626c653a2063616c6c6572206973206e6f7420746865206f776e657260448201526064016109f8565b600180546001600160a01b038381166001600160a01b0319831681179093556040519116919082907f8be0079c531659141344cd1fd0a4f28419497f9722a3daafe3b4186f6b6457e090600090a35050565b6108cb8282611420565b61172a8282610c79565b156108cb576000828152602081815260408083206001600160a01b0385168085529252808320805460ff1916905551339285917ff6391f5c32d9c69d2a47ea670b442974b53935d1edc7fd64eb21e047a839171b9190a45050565b6001600160a01b0382166117e95760405162461bcd60e51b815260206004820152602560248201527f42617365546f6b656e3a206275726e2066726f6d20746865207a65726f206164604482015264647265737360d81b60648201526084016109f8565b6001600160a01b03821660009081526007602052604090205461180d9082906121f9565b6001600160a01b03831660009081526007602052604081209190915580527f6d5257204ebe7d88fd91ae87941cb2dd9d8062b64ae5a2bd2d28ec40b9fbf6df5461185890829061220c565b600080805260076020527f6d5257204ebe7d88fd91ae87941cb2dd9d8062b64ae5a2bd2d28ec40b9fbf6df919091556040516001600160a01b038416907fddf252ad1be2c89b69c2b068fc378daa952ba7f163c4a11628f55a4df523b3ef906115bd9085815260200190565b6118ce8282610c79565b6108cb576118db816119f2565b6118e6836020611a04565b6040516020016118f792919061232d565b60408051601f198184030181529082905262461bcd60e51b82526109f891600401611e50565b6000611972826040518060400160405280602081526020017f5361666545524332303a206c6f772d6c6576656c2063616c6c206661696c6564815250856001600160a01b0316611ba09092919063ffffffff16565b905080516000148061199357508080602001905181019061199391906123a2565b6106fa5760405162461bcd60e51b815260206004820152602a60248201527f5361666545524332303a204552433230206f7065726174696f6e20646964206e6044820152691bdd081cdd58d8d9595960b21b60648201526084016109f8565b60606107306001600160a01b03831660145b60606000611a138360026123bf565b611a1e90600261220c565b67ffffffffffffffff811115611a3657611a36611ee1565b6040519080825280601f01601f191660200182016040528015611a60576020820181803683370190505b509050600360fc1b81600081518110611a7b57611a7b61219b565b60200101906001600160f81b031916908160001a905350600f60fb1b81600181518110611aaa57611aaa61219b565b60200101906001600160f81b031916908160001a9053506000611ace8460026123bf565b611ad990600161220c565b90505b6001811115611b51576f181899199a1a9b1b9c1cb0b131b232b360811b85600f1660108110611b0d57611b0d61219b565b1a60f81b828281518110611b2357611b2361219b565b60200101906001600160f81b031916908160001a90535060049490941c93611b4a816123d6565b9050611adc565b5083156109475760405162461bcd60e51b815260206004820181905260248201527f537472696e67733a20686578206c656e67746820696e73756666696369656e7460448201526064016109f8565b6060611baf8484600085611bb7565b949350505050565b606082471015611c185760405162461bcd60e51b815260206004820152602660248201527f416464726573733a20696e73756666696369656e742062616c616e636520666f6044820152651c8818d85b1b60d21b60648201526084016109f8565b600080866001600160a01b03168587604051611c3491906123ed565b60006040518083038185875af1925050503d8060008114611c71576040519150601f19603f3d011682016040523d82523d6000602084013e611c76565b606091505b5091509150611c8787838387611c92565b979650505050505050565b60608315611d01578251600003611cfa576001600160a01b0385163b611cfa5760405162461bcd60e51b815260206004820152601d60248201527f416464726573733a2063616c6c20746f206e6f6e2d636f6e747261637400000060448201526064016109f8565b5081611baf565b611baf8383815115611d165781518083602001fd5b8060405162461bcd60e51b81526004016109f89190611e50565b828054828255906000526020600020908101928215611d85579160200282015b82811115611d8557825182546001600160a01b0319166001600160a01b03909116178255602090920191600190910190611d50565b50611d91929150611d95565b5090565b5b80821115611d915760008155600101611d96565b80356001600160a01b0381168114611dc157600080fd5b919050565b600080600060608486031215611ddb57600080fd5b611de484611daa565b9250611df260208501611daa565b9150604084013590509250925092565b600060208284031215611e1457600080fd5b81356001600160e01b03198116811461094757600080fd5b60005b83811015611e47578181015183820152602001611e2f565b50506000910152565b6020815260008251806020840152611e6f816040850160208701611e2c565b601f01601f19169190910160400192915050565b60008060408385031215611e9657600080fd5b611e9f83611daa565b946020939093013593505050565b600060208284031215611ebf57600080fd5b61094782611daa565b600060208284031215611eda57600080fd5b5035919050565b634e487b7160e01b600052604160045260246000fd5b604051601f8201601f1916810167ffffffffffffffff81118282101715611f2057611f20611ee1565b604052919050565b60006020808385031215611f3b57600080fd5b823567ffffffffffffffff80821115611f5357600080fd5b818501915085601f830112611f6757600080fd5b813581811115611f7957611f79611ee1565b8060051b9150611f8a848301611ef7565b8181529183018401918481019088841115611fa457600080fd5b938501935b83851015611fc957611fba85611daa565b82529385019390850190611fa9565b98975050505050505050565b60008060408385031215611fe857600080fd5b82359150611ff860208401611daa565b90509250929050565b6000806040838503121561201457600080fd5b61201d83611daa565b9150611ff860208401611daa565b8015158114610f4657600080fd5b60006020828403121561204b57600080fd5b81356109478161202b565b6000806040838503121561206957600080fd5b61207283611daa565b915060208301356120828161202b565b809150509250929050565b600082601f83011261209e57600080fd5b813567ffffffffffffffff8111156120b8576120b8611ee1565b6120cb601f8201601f1916602001611ef7565b8181528460208386010111156120e057600080fd5b816020850160208301376000918101602001919091529392505050565b6000806040838503121561211057600080fd5b823567ffffffffffffffff8082111561212857600080fd5b6121348683870161208d565b9350602085013591508082111561214a57600080fd5b506121578582860161208d565b9150509250929050565b600181811c9082168061217557607f821691505b60208210810361219557634e487b7160e01b600052602260045260246000fd5b50919050565b634e487b7160e01b600052603260045260246000fd5b6000602082840312156121c357600080fd5b5051919050565b634e487b7160e01b600052601160045260246000fd5b6000600182016121f2576121f26121ca565b5060010190565b81810381811115610730576107306121ca565b80820180821115610730576107306121ca565b601f8211156106fa57600081815260208120601f850160051c810160208610156122465750805b601f850160051c820191505b8181101561226557828155600101612252565b505050505050565b815167ffffffffffffffff81111561228757612287611ee1565b61229b816122958454612161565b8461221f565b602080601f8311600181146122d057600084156122b85750858301515b600019600386901b1c1916600185901b178555612265565b600085815260208120601f198616915b828110156122ff578886015182559484019460019091019084016122e0565b508582101561231d5787850151600019600388901b60f8161c191681555b5050505050600190811b01905550565b7f416363657373436f6e74726f6c3a206163636f756e7420000000000000000000815260008351612365816017850160208801611e2c565b7001034b99036b4b9b9b4b733903937b6329607d1b6017918401918201528351612396816028840160208801611e2c565b01602801949350505050565b6000602082840312156123b457600080fd5b81516109478161202b565b8082028115828204841417610730576107306121ca565b6000816123e5576123e56121ca565b506000190190565b600082516123ff818460208701611e2c565b919091019291505056fe241ecf16d79d0f8dbfb92cbc07fe17840425976cf0667f022fe9877caa831b08a2646970667358221220709daaff54d66326ab248e872157c9bf4a2c77de848d4606af551cf8b8d4959764736f6c63430008110033",
    "linkReferences": {}
  },
  "methodIdentifiers": {
    "DEFAULT_ADMIN_ROLE()": "a217fddf",
    "addAdmin(address)": "70480275",
    "addNonStakingAccount(address)": "62289077",
    "admins(address)": "429b62e5",
    "allowance(address,address)": "dd62ed3e",
    "allowances(address,address)": "55b6ed5c",
    "approve(address,uint256)": "095ea7b3",
    "balanceOf(address)": "70a08231",
    "balances(address)": "27e235e3",
    "burn(address,uint256)": "9dc29fac",
    "claim(address)": "1e83409a",
    "decimals()": "313ce567",
    "getRoleAdmin(bytes32)": "248a9ca3",
    "grantControllerRoleByMarketManager(address)": "7fe4a698",
    "grantRole(bytes32,address)": "2f2ff15d",
    "hasRole(bytes32,address)": "91d14854",
    "id()": "af640d0f",
    "inPrivateTransferMode()": "dfbaefb1",
    "isHandler(address)": "46ea87af",
    "isMinter(address)": "aa271e1a",
    "mint(address,uint256)": "40c10f19",
    "name()": "06fdde03",
    "nonStakingAccounts(address)": "9554381a",
    "nonStakingSupply()": "c93be636",
    "owner()": "8da5cb5b",
    "recoverClaim(address,address)": "996f11ee",
    "removeAdmin(address)": "1785f53c",
    "removeNonStakingAccount(address)": "fb30d916",
    "renounceOwnership()": "715018a6",
    "renounceRole(bytes32,address)": "36568abe",
    "revokeRole(bytes32,address)": "d547741f",
    "setHandler(address,bool)": "9cb7de4b",
    "setInPrivateTransferMode(bool)": "5a47a1a7",
    "setInfo(string,string)": "a923fc40",
    "setMinter(address,bool)": "cf456ae7",
    "setYieldTrackers(address[])": "276eab4e",
    "stakedBalance(address)": "60217267",
    "supportsInterface(bytes4)": "01ffc9a7",
    "symbol()": "95d89b41",
    "totalStaked()": "817b1cd2",
    "totalSupply()": "18160ddd",
    "transfer(address,uint256)": "a9059cbb",
    "transferAdmin(address)": "75829def",
    "transferFrom(address,address,uint256)": "23b872dd",
    "transferOwnership(address)": "f2fde38b",
    "withdrawToken(address,address,uint256)": "01e33667",
    "yieldTrackers(uint256)": "52cd38d9"
  },
  "id": 108
}