{
  "abi": [
    {
      "inputs": [],
      "stateMutability": "nonpayable",
      "type": "constructor"
    },
    {
      "anonymous": false,
      "inputs": [
        {
          "indexed": false,
          "internalType": "uint8",
          "name": "version",
          "type": "uint8"
        }
      ],
      "name": "Initialized",
      "type": "event"
    },
    {
      "anonymous": false,
      "inputs": [
        {
          "indexed": true,
          "internalType": "address",
          "name": "previousOwner",
          "type": "address"
        },
        {
          "indexed": true,
          "internalType": "address",
          "name": "newOwner",
          "type": "address"
        }
      ],
      "name": "OwnershipTransferred",
      "type": "event"
    },
    {
      "anonymous": false,
      "inputs": [
        {
          "indexed": true,
          "internalType": "bytes32",
          "name": "role",
          "type": "bytes32"
        },
        {
          "indexed": true,
          "internalType": "bytes32",
          "name": "previousAdminRole",
          "type": "bytes32"
        },
        {
          "indexed": true,
          "internalType": "bytes32",
          "name": "newAdminRole",
          "type": "bytes32"
        }
      ],
      "name": "RoleAdminChanged",
      "type": "event"
    },
    {
      "anonymous": false,
      "inputs": [
        {
          "indexed": true,
          "internalType": "bytes32",
          "name": "role",
          "type": "bytes32"
        },
        {
          "indexed": true,
          "internalType": "address",
          "name": "account",
          "type": "address"
        },
        {
          "indexed": true,
          "internalType": "address",
          "name": "sender",
          "type": "address"
        }
      ],
      "name": "RoleGranted",
      "type": "event"
    },
    {
      "anonymous": false,
      "inputs": [
        {
          "indexed": true,
          "internalType": "bytes32",
          "name": "role",
          "type": "bytes32"
        },
        {
          "indexed": true,
          "internalType": "address",
          "name": "account",
          "type": "address"
        },
        {
          "indexed": true,
          "internalType": "address",
          "name": "sender",
          "type": "address"
        }
      ],
      "name": "RoleRevoked",
      "type": "event"
    },
    {
      "inputs": [],
      "name": "DEFAULT_ADMIN_ROLE",
      "outputs": [
        {
          "internalType": "bytes32",
          "name": "",
          "type": "bytes32"
        }
      ],
      "stateMutability": "view",
      "type": "function"
    },
    {
      "inputs": [],
      "name": "PLUGIN_GAS_LIMIT",
      "outputs": [
        {
          "internalType": "uint256",
          "name": "",
          "type": "uint256"
        }
      ],
      "stateMutability": "view",
      "type": "function"
    },
    {
      "inputs": [
        {
          "internalType": "address",
          "name": "_account",
          "type": "address"
        },
        {
          "internalType": "bool[]",
          "name": "_isIncreaseList",
          "type": "bool[]"
        },
        {
          "internalType": "uint256[]",
          "name": "_orderIDList",
          "type": "uint256[]"
        },
        {
          "internalType": "bool[]",
          "name": "_isLongList",
          "type": "bool[]"
        }
      ],
      "name": "cancelOrderList",
      "outputs": [],
      "stateMutability": "nonpayable",
      "type": "function"
    },
    {
      "inputs": [],
      "name": "collateralToken",
      "outputs": [
        {
          "internalType": "address",
          "name": "",
          "type": "address"
        }
      ],
      "stateMutability": "view",
      "type": "function"
    },
    {
      "inputs": [],
      "name": "collateralTokenDigits",
      "outputs": [
        {
          "internalType": "uint8",
          "name": "",
          "type": "uint8"
        }
      ],
      "stateMutability": "view",
      "type": "function"
    },
    {
      "inputs": [],
      "name": "feeRouter",
      "outputs": [
        {
          "internalType": "contract IFeeRouter",
          "name": "",
          "type": "address"
        }
      ],
      "stateMutability": "view",
      "type": "function"
    },
    {
      "inputs": [
        {
          "internalType": "bytes32",
          "name": "role",
          "type": "bytes32"
        }
      ],
      "name": "getRoleAdmin",
      "outputs": [
        {
          "internalType": "bytes32",
          "name": "",
          "type": "bytes32"
        }
      ],
      "stateMutability": "view",
      "type": "function"
    },
    {
      "inputs": [],
      "name": "globalValid",
      "outputs": [
        {
          "internalType": "address",
          "name": "",
          "type": "address"
        }
      ],
      "stateMutability": "view",
      "type": "function"
    },
    {
      "inputs": [
        {
          "internalType": "address",
          "name": "_account",
          "type": "address"
        }
      ],
      "name": "grantControllerRoleByMarketManager",
      "outputs": [],
      "stateMutability": "nonpayable",
      "type": "function"
    },
    {
      "inputs": [
        {
          "internalType": "bytes32",
          "name": "role",
          "type": "bytes32"
        },
        {
          "internalType": "address",
          "name": "account",
          "type": "address"
        }
      ],
      "name": "grantRole",
      "outputs": [],
      "stateMutability": "nonpayable",
      "type": "function"
    },
    {
      "inputs": [
        {
          "internalType": "bytes32",
          "name": "role",
          "type": "bytes32"
        },
        {
          "internalType": "address",
          "name": "account",
          "type": "address"
        }
      ],
      "name": "hasRole",
      "outputs": [
        {
          "internalType": "bool",
          "name": "",
          "type": "bool"
        }
      ],
      "stateMutability": "view",
      "type": "function"
    },
    {
      "inputs": [],
      "name": "indexToken",
      "outputs": [
        {
          "internalType": "address",
          "name": "",
          "type": "address"
        }
      ],
      "stateMutability": "view",
      "type": "function"
    },
    {
      "inputs": [],
      "name": "marketRouter",
      "outputs": [
        {
          "internalType": "address",
          "name": "",
          "type": "address"
        }
      ],
      "stateMutability": "view",
      "type": "function"
    },
    {
      "inputs": [],
      "name": "marketValid",
      "outputs": [
        {
          "internalType": "address",
          "name": "",
          "type": "address"
        }
      ],
      "stateMutability": "view",
      "type": "function"
    },
    {
      "inputs": [],
      "name": "name",
      "outputs": [
        {
          "internalType": "string",
          "name": "",
          "type": "string"
        }
      ],
      "stateMutability": "view",
      "type": "function"
    },
    {
      "inputs": [],
      "name": "orderBookLong",
      "outputs": [
        {
          "internalType": "contract IOrderBook",
          "name": "",
          "type": "address"
        }
      ],
      "stateMutability": "view",
      "type": "function"
    },
    {
      "inputs": [],
      "name": "orderBookShort",
      "outputs": [
        {
          "internalType": "contract IOrderBook",
          "name": "",
          "type": "address"
        }
      ],
      "stateMutability": "view",
      "type": "function"
    },
    {
      "inputs": [],
      "name": "orderMgr",
      "outputs": [
        {
          "internalType": "address",
          "name": "",
          "type": "address"
        }
      ],
      "stateMutability": "view",
      "type": "function"
    },
    {
      "inputs": [
        {
          "internalType": "bool",
          "name": "isLong",
          "type": "bool"
        },
        {
          "internalType": "bool",
          "name": "isOpen",
          "type": "bool"
        }
      ],
      "name": "orderStore",
      "outputs": [
        {
          "internalType": "contract IOrderStore",
          "name": "",
          "type": "address"
        }
      ],
      "stateMutability": "view",
      "type": "function"
    },
    {
      "inputs": [],
      "name": "owner",
      "outputs": [
        {
          "internalType": "address",
          "name": "",
          "type": "address"
        }
      ],
      "stateMutability": "view",
      "type": "function"
    },
    {
      "inputs": [
        {
          "internalType": "uint256",
          "name": "",
          "type": "uint256"
        }
      ],
      "name": "plugins",
      "outputs": [
        {
          "internalType": "address",
          "name": "",
          "type": "address"
        }
      ],
      "stateMutability": "view",
      "type": "function"
    },
    {
      "inputs": [],
      "name": "positionAddMgr",
      "outputs": [
        {
          "internalType": "address",
          "name": "",
          "type": "address"
        }
      ],
      "stateMutability": "view",
      "type": "function"
    },
    {
      "inputs": [],
      "name": "positionBook",
      "outputs": [
        {
          "internalType": "contract IPositionBook",
          "name": "",
          "type": "address"
        }
      ],
      "stateMutability": "view",
      "type": "function"
    },
    {
      "inputs": [],
      "name": "positionStoreLong",
      "outputs": [
        {
          "internalType": "address",
          "name": "",
          "type": "address"
        }
      ],
      "stateMutability": "view",
      "type": "function"
    },
    {
      "inputs": [],
      "name": "positionStoreShort",
      "outputs": [
        {
          "internalType": "address",
          "name": "",
          "type": "address"
        }
      ],
      "stateMutability": "view",
      "type": "function"
    },
    {
      "inputs": [],
      "name": "positionSubMgr",
      "outputs": [
        {
          "internalType": "address",
          "name": "",
          "type": "address"
        }
      ],
      "stateMutability": "view",
      "type": "function"
    },
    {
      "inputs": [],
      "name": "priceFeed",
      "outputs": [
        {
          "internalType": "address",
          "name": "",
          "type": "address"
        }
      ],
      "stateMutability": "view",
      "type": "function"
    },
    {
      "inputs": [],
      "name": "renounceOwnership",
      "outputs": [],
      "stateMutability": "nonpayable",
      "type": "function"
    },
    {
      "inputs": [
        {
          "internalType": "bytes32",
          "name": "",
          "type": "bytes32"
        },
        {
          "internalType": "address",
          "name": "",
          "type": "address"
        }
      ],
      "name": "renounceRole",
      "outputs": [],
      "stateMutability": "nonpayable",
      "type": "function"
    },
    {
      "inputs": [
        {
          "internalType": "bytes32",
          "name": "role",
          "type": "bytes32"
        },
        {
          "internalType": "address",
          "name": "account",
          "type": "address"
        }
      ],
      "name": "revokeRole",
      "outputs": [],
      "stateMutability": "nonpayable",
      "type": "function"
    },
    {
      "inputs": [
        {
          "internalType": "bytes4",
          "name": "interfaceId",
          "type": "bytes4"
        }
      ],
      "name": "supportsInterface",
      "outputs": [
        {
          "internalType": "bool",
          "name": "",
          "type": "bool"
        }
      ],
      "stateMutability": "view",
      "type": "function"
    },
    {
      "inputs": [
        {
          "internalType": "bytes32[]",
          "name": "_orderKey",
          "type": "bytes32[]"
        },
        {
          "internalType": "bool[]",
          "name": "_isLong",
          "type": "bool[]"
        },
        {
          "internalType": "bool[]",
          "name": "_isIncrease",
          "type": "bool[]"
        },
        {
          "internalType": "string[]",
          "name": "reasons",
          "type": "string[]"
        }
      ],
      "name": "sysCancelOrder",
      "outputs": [],
      "stateMutability": "nonpayable",
      "type": "function"
    },
    {
      "inputs": [
        {
          "internalType": "address",
          "name": "to",
          "type": "address"
        }
      ],
      "name": "transferAdmin",
      "outputs": [],
      "stateMutability": "nonpayable",
      "type": "function"
    },
    {
      "inputs": [
        {
          "internalType": "address",
          "name": "newOwner",
          "type": "address"
        }
      ],
      "name": "transferOwnership",
      "outputs": [],
      "stateMutability": "nonpayable",
      "type": "function"
    },
    {
      "inputs": [
        {
          "components": [
            {
              "internalType": "address",
              "name": "_market",
              "type": "address"
            },
            {
              "internalType": "bool",
              "name": "_isLong",
              "type": "bool"
            },
            {
              "internalType": "uint256",
              "name": "_oraclePrice",
              "type": "uint256"
            },
            {
              "internalType": "bool",
              "name": "isOpen",
              "type": "bool"
            },
            {
              "internalType": "bool",
              "name": "isCreate",
              "type": "bool"
            },
            {
              "components": [
                {
                  "internalType": "uint8",
                  "name": "version",
                  "type": "uint8"
                },
                {
                  "internalType": "uint32",
                  "name": "updatedAtBlock",
                  "type": "uint32"
                },
                {
                  "internalType": "uint8",
                  "name": "triggerAbove",
                  "type": "uint8"
                },
                {
                  "internalType": "address",
                  "name": "account",
                  "type": "address"
                },
                {
                  "internalType": "uint48",
                  "name": "extra3",
                  "type": "uint48"
                },
                {
                  "internalType": "uint128",
                  "name": "collateral",
                  "type": "uint128"
                },
                {
                  "internalType": "uint128",
                  "name": "size",
                  "type": "uint128"
                },
                {
                  "internalType": "uint128",
                  "name": "price",
                  "type": "uint128"
                },
                {
                  "internalType": "uint128",
                  "name": "extra1",
                  "type": "uint128"
                },
                {
                  "internalType": "uint64",
                  "name": "orderID",
                  "type": "uint64"
                },
                {
                  "internalType": "uint64",
                  "name": "extra2",
                  "type": "uint64"
                },
                {
                  "internalType": "uint128",
                  "name": "extra0",
                  "type": "uint128"
                },
                {
                  "internalType": "bytes32",
                  "name": "refCode",
                  "type": "bytes32"
                }
              ],
              "internalType": "struct Order.Props",
              "name": "_order",
              "type": "tuple"
            },
            {
              "internalType": "uint256[]",
              "name": "inputs",
              "type": "uint256[]"
            }
          ],
          "internalType": "struct MarketDataTypes.UpdateOrderInputs",
          "name": "_vars",
          "type": "tuple"
        }
      ],
      "name": "updateOrder",
      "outputs": [],
      "stateMutability": "nonpayable",
      "type": "function"
    },
    {
      "inputs": [],
      "name": "vaultRouter",
      "outputs": [
        {
          "internalType": "address",
          "name": "",
          "type": "address"
        }
      ],
      "stateMutability": "view",
      "type": "function"
    }
  ],
  "bytecode": {
    "object": "0x60806040523480156200001157600080fd5b5060016046556000620000243362000041565b6200003a816200009360201b6200168e1760201c565b5062000173565b604880546001600160a01b038381166001600160a01b0319831681179093556040519116919082907f8be0079c531659141344cd1fd0a4f28419497f9722a3daafe3b4186f6b6457e090600090a35050565b42604955620000a23362000041565b620000af600033620000bf565b620000bc600082620000bf565b50565b620000cb8282620000cf565b5050565b60008281526047602090815260408083206001600160a01b038516845290915290205460ff16620000cb5760008281526047602090815260408083206001600160a01b03851684529091529020805460ff191660011790556200012f3390565b6001600160a01b0316816001600160a01b0316837f2f8788117e7eff1d82e926ec794901d17c78024a50270940304540a733656f0d60405160405180910390a45050565b613c1080620001836000396000f3fe608060405234801561001057600080fd5b506004361061021c5760003560e01c8063a0cbf50c11610125578063c54dc3d6116100ad578063d547741f1161007c578063d547741f146104c8578063e7d015f2146104db578063f0a317eb146104ee578063f29ebf6114610501578063f2fde38b1461051457600080fd5b8063c54dc3d61461047c578063d12dbde41461048f578063d37c441c146104a2578063d49ff78d146104b557600080fd5b8063ac0c7aa4116100f4578063ac0c7aa414610411578063b038beb814610424578063b2016bd414610437578063b21dc9cb1461044a578063b894300d1461046957600080fd5b8063a0cbf50c146103ab578063a217fddf146103be578063a2640454146103c6578063ac0b05a6146103fe57600080fd5b806363cd8dbd116101a85780637b2fd1e5116101775780637b2fd1e51461034e5780637fe4a698146103615780638a6ca35d146103745780638da5cb5b1461038757806391d148541461039857600080fd5b806363cd8dbd14610316578063715018a614610320578063741bef1a1461032857806375829def1461033b57600080fd5b8063248a9ca3116101ef578063248a9ca31461029c5780632f2ff15d146102cd578063301f6fe9146102e257806336568abe146102f557806345ccf5c51461030357600080fd5b806301ffc9a71461022157806305ba9ae91461024957806306fdde031461027457806307e8754514610289575b600080fd5b61023461022f3660046129a9565b610527565b60405190151581526020015b60405180910390f35b60065461025c906001600160a01b031681565b6040516001600160a01b039091168152602001610240565b61027c61055e565b6040516102409190612a23565b600a5461025c906001600160a01b031681565b6102bf6102aa366004612a36565b60009081526047602052604090206001015490565b604051908152602001610240565b6102e06102db366004612a74565b6105ec565b005b6102e06102f0366004612c63565b610616565b6102e061021c366004612a74565b600b5461025c906001600160a01b031681565b6102bf620a2c2a81565b6102e06108e3565b60095461025c906001600160a01b031681565b6102e0610349366004612cfd565b6108f7565b60055461025c906001600160a01b031681565b6102e061036f366004612cfd565b61096b565b600e5461025c906001600160a01b031681565b6048546001600160a01b031661025c565b6102346103a6366004612a74565b610995565b600f5461025c906001600160a01b031681565b6102bf600081565b61025c6103d4366004612d1a565b9015156000908152600760209081526040808320931515835292905220546001600160a01b031690565b60035461025c906001600160a01b031681565b6102e061041f366004612e2b565b6109c0565b6102e06104323660046130b0565b610db6565b60045461025c906001600160a01b031681565b6013546104579060ff1681565b60405160ff9091168152602001610240565b60005461025c906001600160a01b031681565b60015461025c906001600160a01b031681565b60105461025c906001600160a01b031681565b600c5461025c906001600160a01b031681565b600d5461025c906001600160a01b031681565b6102e06104d6366004612a74565b6115c6565b60025461025c906001600160a01b031681565b61025c6104fc366004612a36565b6115eb565b60085461025c906001600160a01b031681565b6102e0610522366004612cfd565b611615565b60006001600160e01b03198216637965db0b60e01b148061055857506301ffc9a760e01b6001600160e01b03198316145b92915050565b6011805461056b9061317e565b80601f01602080910402602001604051908101604052809291908181526020018280546105979061317e565b80156105e45780601f106105b9576101008083540402835291602001916105e4565b820191906000526020600020905b8154815290600101906020018083116105c757829003601f168201915b505050505081565b600082815260476020526040902060010154610607816116b1565b61061183836116bb565b505050565b81518351146106645760405162461bcd60e51b815260206004820152601560248201527409ee4c8cae49acee474d2dce0eae840d8cadccee8d605b1b60448201526064015b60405180910390fd5b81518151146106ad5760405162461bcd60e51b815260206004820152601560248201527409ee4c8cae49acee474d2dce0eae840d8cadccee8d605b1b604482015260640161065b565b81516000805b828110156108c35760008482815181106106cf576106cf6131b8565b60200260200101516106ec576006546001600160a01b03166106f9565b6005546001600160a01b03165b6001600160a01b0316638f5492068988858151811061071a5761071a6131b8565b60200260200101518a8681518110610734576107346131b8565b60209081029190910101516040516001600160e01b031960e086901b1681526001600160a01b0390931660048401526024830191909152151560448201526064016000604051808303816000875af1158015610794573d6000803e3d6000fd5b505050506040513d6000823e601f3d908101601f191682016040526107bc919081019061330a565b905060005b81518110156108b0578181815181106107dc576107dc6131b8565b602002602001015161012001516001600160401b0316600003156108a0576108936040518060c0016040528084848151811061081a5761081a6131b8565b60200260200101518152602001888681518110610839576108396131b8565b6020026020010151151581526020018a868151811061085a5761085a6131b8565b60200260200101511515815260200160001515815260200160001515815260200160405180602001604052806000815250815250611741565b61089d90856133ae565b93505b6108a9816133c1565b90506107c1565b5050806108bc906133c1565b90506106b3565b506004546108db906001600160a01b03168783611d54565b505050505050565b6108eb611dc4565b6108f56000611e1e565b565b6000610902816116b1565b6001600160a01b0382166109485760405162461bcd60e51b815260206004820152600d60248201526c217a65726f206164647265737360981b604482015260640161065b565b610953600083611e70565b61095c82611e1e565b610967600033611e7a565b5050565b7f8d1089725c0dc266707fa6207730fb801dcd03108bfed7a21099bd303651d2b761021c816116b1565b60009182526047602090815260408084206001600160a01b0393909316845291905290205460ff1690565b82518451146109ce57600080fd5b82518251146109dc57600080fd5b60005b8451811015610daf576000801b8582815181106109fe576109fe6131b8565b60200260200101510315610d9d57610a2e828281518110610a2157610a216131b8565b6020026020010151611ee1565b15610d9d576000848281518110610a4757610a476131b8565b6020026020010151610a64576006546001600160a01b0316610a71565b6005546001600160a01b03165b9050838281518110610a8557610a856131b8565b6020026020010151610af857806001600160a01b0316636d0785666040518163ffffffff1660e01b8152600401602060405180830381865afa158015610acf573d6000803e3d6000fd5b505050506040513d601f19601f82011682018060405250810190610af391906133da565b610b5a565b806001600160a01b0316637e1dcaf76040518163ffffffff1660e01b8152600401602060405180830381865afa158015610b36573d6000803e3d6000fd5b505050506040513d601f19601f82011682018060405250810190610b5a91906133da565b6001600160a01b031663f6b102a6878481518110610b7a57610b7a6131b8565b60200260200101516040518263ffffffff1660e01b8152600401610ba091815260200190565b602060405180830381865afa158015610bbd573d6000803e3d6000fd5b505050506040513d601f19601f82011682018060405250810190610be19190613402565b1515600003610bf05750610d9d565b6000816001600160a01b03166345824d67888581518110610c1357610c136131b8565b6020026020010151878681518110610c2d57610c2d6131b8565b60200260200101516040518363ffffffff1660e01b8152600401610c5d9291909182521515602082015260400190565b6000604051808303816000875af1158015610c7c573d6000803e3d6000fd5b505050506040513d6000823e601f3d908101601f19168201604052610ca4919081019061330a565b905060005b8151811015610d9957818181518110610cc457610cc46131b8565b602002602001015161012001516001600160401b031660000315610d8757610d856040518060c00160405280848481518110610d0257610d026131b8565b60200260200101518152602001898781518110610d2157610d216131b8565b602002602001015115158152602001888781518110610d4257610d426131b8565b602002602001015115158152602001600115158152602001600115158152602001878781518110610d7557610d756131b8565b6020026020010151815250611741565b505b80610d91816133c1565b915050610ca9565b5050505b80610da7816133c1565b9150506109df565b5050505050565b80606001518015610dc8575080608001515b15610e36576000546001600160a01b031663015fc613610de783611f37565b6040518263ffffffff1660e01b8152600401610e0591815260200190565b60006040518083038186803b158015610e1d57600080fd5b505afa158015610e31573d6000803e3d6000fd5b505050505b610e4d816060015115158260200151151514611f73565b6040820152610e5b81611ff9565b15610f4c57806020015115158160600151151503610ee457610ec9612710610e8283612034565b8360a0015160e001516001600160801b0316610e9e919061341f565b610ea89190613436565b8260a0015160e001516001600160801b0316610ec491906133ae565b612062565b60a08201516001600160801b0390911660e090910152610f4c565b610f35612710610ef383612034565b8360a0015160e001516001600160801b0316610f0f919061341f565b610f199190613436565b8260a0015160e001516001600160801b0316610ec49190613458565b60a08201516001600160801b0390911660e0909101525b60008160200151610f68576006546001600160a01b0316610f75565b6005546001600160a01b03165b905081608001518015610f89575081606001515b1561107f5760005460085460405163c8830bf560e01b81526001600160a01b039283169263592b1e2a92869291169063c8830bf590610fcc90849060040161363b565b602060405180830381865afa158015610fe9573d6000803e3d6000fd5b505050506040513d601f19601f8201168201806040525081019061100d919061364e565b6040518363ffffffff1660e01b815260040161102a929190613667565b60006040518083038186803b15801561104257600080fd5b505afa158015611056573d6000803e3d6000fd5b50505050611066610ec483611f37565b60a0808401516001600160801b03909216910152611353565b8160800151801561109257508160600151155b156113535760035460a0830151606001516040808501516020860151915163bc95baad60e01b81526001600160a01b03938416600482015260248101919091529015156044820152600092919091169063bc95baad9060640161018060405180830381865afa158015611109573d6000803e3d6000fd5b505050506040513d601f19601f8201168201806040525081019061112d91906136a0565b905061116a610ec460008560a001516080015165ffffffffffff161183608001518660a0015160c001516001600160801b03168560a001516120cf565b60a0808501516001600160801b039092169101526111906000546001600160a01b031690565b60a0808301518582015191820151608085015160c09093015160085460405163c8830bf560e01b81526001600160a01b03968716966301b8fd7c966001600160801b03909516949392169063c8830bf5906111ef908c9060040161363b565b602060405180830381865afa15801561120c573d6000803e3d6000fd5b505050506040513d601f19601f82011682018060405250810190611230919061364e565b6112678a602001518b606001519015156000908152600760209081526040808320931515835292905220546001600160a01b031690565b60a08b01516060015160405163350cffdd60e11b81526001600160a01b039182166004820152911690636a19ffba90602401602060405180830381865afa1580156112b6573d6000803e3d6000fd5b505050506040513d601f19601f820116820180604052508101906112da919061364e565b6040516001600160e01b031960e089901b1681526004810196909652602486019490945260448501929092526001600160801b03166064840152608483015260a482015260c40160006040518083038186803b15801561133957600080fd5b505afa15801561134d573d6000803e3d6000fd5b50505050505b604080516001808252818301909252600091816020015b61140c6040805160e08082018352600080835260208084018290528385018290526060808501839052608080860184905286516101a081018852848152928301849052958201839052810182905293840181905260a084810182905260c0850182905291840181905261010084018190526101208401819052610140840181905261016084018190526101808401529091908201908152602001606081525090565b81526020019060019003908161136a5790505090508281600081518110611435576114356131b8565b602002602001018190525082608001516114be57604051630c31673960e01b81526001600160a01b03831690630c3167399061147590869060040161363b565b6101a0604051808303816000875af1158015611495573d6000803e3d6000fd5b505050506040513d601f19601f820116820180604052508101906114b99190613756565b61154c565b6040516359cc542160e11b81526001600160a01b0383169063b398a842906114ea908490600401613773565b6000604051808303816000875af1158015611509573d6000803e3d6000fd5b505050506040513d6000823e601f3d908101601f19168201604052611531919081019061330a565b600081518110611543576115436131b8565b60200260200101515b60a08401526012805460408051602080840282018101909252828152610611938793620a2c2a938301828280156115ac57602002820191906000526020600020905b81546001600160a01b0316815260019091019060200180831161158e575b50506004546001600160a01b031692503091506120ff9050565b6000828152604760205260409020600101546115e1816116b1565b6106118383611e7a565b601281815481106115fb57600080fd5b6000918252602090912001546001600160a01b0316905081565b61161d611dc4565b6001600160a01b0381166116825760405162461bcd60e51b815260206004820152602660248201527f4f776e61626c653a206e6577206f776e657220697320746865207a65726f206160448201526564647265737360d01b606482015260840161065b565b61168b81611e1e565b50565b4260495561169b33611e1e565b6116a6600033611e70565b61168b600082611e70565b61168b813361234c565b6116c58282610995565b6109675760008281526047602090815260408083206001600160a01b03851684529091529020805460ff191660011790556116fd3390565b6001600160a01b0316816001600160a01b0316837f2f8788117e7eff1d82e926ec794901d17c78024a50270940304540a733656f0d60405160405180910390a45050565b60008082608001516117545760006117c0565b6008546040516309d3989760e01b81523060048201526001600160a01b03909116906309d3989790602401602060405180830381865afa15801561179c573d6000803e3d6000fd5b505050506040513d601f19601f820116820180604052508101906117c0919061364e565b835160a001519091506001600160801b03168111156117e25750600092915050565b600061186482600460009054906101000a90046001600160a01b03166001600160a01b031663313ce5676040518163ffffffff1660e01b8152600401602060405180830381865afa15801561183b573d6000803e3d6000fd5b505050506040513d601f19601f8201168201806040525081019061185f91906137d5565b6123a5565b9050836040015115611a0e5781156119a6576004805460085460405163095ea7b360e01b81526001600160a01b039182169381019390935260248301849052169063095ea7b3906044016020604051808303816000875af11580156118cd573d6000803e3d6000fd5b505050506040513d601f19601f820116820180604052508101906118f19190613402565b5060408051600480825260a08201909252600091602082016080803683370190505090508281600381518110611929576119296131b8565b60209081029190910101526008548551606001516004805460405163e50f19ef60e01b81526001600160a01b039485169463e50f19ef94611972949093909116918791016137f2565b600060405180830381600087803b15801561198c57600080fd5b505af11580156119a0573d6000803e3d6000fd5b50505050505b8360600151156119ed576004548451606081015160a0909101516119e8926001600160a01b031691906119e39086906001600160801b0316613458565b611d54565b611be1565b835160a00151611a079083906001600160801b0316613458565b9250611be1565b836080015115611be1576003548451606001516020860151604051635a227c7560e11b81526001600160a01b039283166004820152602481018690529015156044820152600092919091169063b444f8ea906064016020604051808303816000875af1158015611a82573d6000803e3d6000fd5b505050506040513d601f19601f82011682018060405250810190611aa6919061364e565b9050828110611bdf5760408051600480825260a08201909252600091602082016080803683370190505090508381600381518110611ae657611ae66131b8565b60209081029190910101526004805460085460405163095ea7b360e01b81526001600160a01b039182169381019390935260248301869052169063095ea7b3906044016020604051808303816000875af1158015611b48573d6000803e3d6000fd5b505050506040513d601f19601f82011682018060405250810190611b6c9190613402565b506008548651606001516004805460405163e50f19ef60e01b81526001600160a01b039485169463e50f19ef94611bab949093909116918791016137f2565b600060405180830381600087803b158015611bc557600080fd5b505af1158015611bd9573d6000803e3d6000fd5b50505050505b505b604080516101e0810182526000602080830182815293830182905260608084018390526080840183905260a0840183905260c0840183905260e08401839052610100840183905261012084018390526101408401839052610160840183905261018084018390526101a08401929092526101c08301919091523082528601511515909152611c6f6001611f73565b6040808301919091528581015115156060830152805160a08101825286518152602081018390526080870151611d4c92820190611cad576005611cb0565b60065b6007811115611cc157611cc1613854565b60ff1681526020018760a0015181526020016000815250620a2c2a6012805480602002602001604051908101604052809291908181526020018280548015611d3257602002820191906000526020600020905b81546001600160a01b03168152600190910190602001808311611d14575b50506004546001600160a01b031692503091506123d59050565b505050919050565b80600003611d6157505050565b6000839050611da882856001600160a01b031663313ce5676040518163ffffffff1660e01b8152600401602060405180830381865afa15801561183b573d6000803e3d6000fd5b9150611dbe6001600160a01b0382168484612559565b50505050565b6048546001600160a01b031633146108f55760405162461bcd60e51b815260206004820181905260248201527f4f776e61626c653a2063616c6c6572206973206e6f7420746865206f776e6572604482015260640161065b565b604880546001600160a01b038381166001600160a01b0319831681179093556040519116919082907f8be0079c531659141344cd1fd0a4f28419497f9722a3daafe3b4186f6b6457e090600090a35050565b61096782826116bb565b611e848282610995565b156109675760008281526047602090815260408083206001600160a01b0385168085529252808320805460ff1916905551339285917ff6391f5c32d9c69d2a47ea670b442974b53935d1edc7fd64eb21e047a839171b9190a45050565b6000611f22826040518060400160405280601b81526020017f506f736974696f6e4164644d67723a7472696767657261626f766500000000008152506125ab565b15611f2f57506000919050565b506001919050565b600060018260c00151511015611f4e576000610558565b8160c00151600081518110611f6557611f656131b8565b602002602001015192915050565b6009546002546040516303b6b4bb60e51b81526001600160a01b0391821660048201528315156024820152600092919091169081906376d6976090604401602060405180830381865afa158015611fce573d6000803e3d6000fd5b505050506040513d601f19601f82011682018060405250810190611ff2919061364e565b9392505050565b600060028260c001515110158015610558575060008260c00151600181518110612025576120256131b8565b60200260200101511192915050565b600060038260c0015151101561204b576000610558565b8160c00151600281518110611f6557611f656131b8565b60006001600160801b038211156120cb5760405162461bcd60e51b815260206004820152602760248201527f53616665436173743a2076616c756520646f65736e27742066697420696e20316044820152663238206269747360c81b606482015260840161065b565b5090565b600084156120f357836120e2848461341f565b6120ec9190613436565b90506120f7565b5060005b949350505050565b6040516370a0823160e01b81526001600160a01b038281166004830152600091908416906370a0823190602401602060405180830381865afa158015612149573d6000803e3d6000fd5b505050506040513d601f19601f8201168201806040525081019061216d919061364e565b905060005b84518110156122835784818151811061218d5761218d6131b8565b60200260200101516001600160a01b031663612c39b76040518163ffffffff1660e01b8152600401606060405180830381865afa1580156121d2573d6000803e3d6000fd5b505050506040513d601f19601f820116820180604052508101906121f6919061386a565b602001511561227157848181518110612211576122116131b8565b60200260200101516001600160a01b031663cce9a2f3886040518263ffffffff1660e01b8152600401612244919061363b565b600060405180830381600087803b15801561225e57600080fd5b505af192505050801561226f575060015b505b8061227b816133c1565b915050612172565b506040516370a0823160e01b81526001600160a01b038381166004830152600091908516906370a0823190602401602060405180830381865afa1580156122ce573d6000803e3d6000fd5b505050506040513d601f19601f820116820180604052508101906122f2919061364e565b90508181146123435760405162461bcd60e51b815260206004820152601b60248201527f455243323020746f6b656e2062616c616e6365206368616e6765640000000000604482015260640161065b565b50505050505050565b6123568282610995565b6109675761236381612604565b61236e836020612616565b60405160200161237f9291906138db565b60408051601f198184030181529082905262461bcd60e51b825261065b91600401612a23565b60006123b36012600a613a34565b6123c160ff8416600a613a43565b6123cb908561341f565b611ff29190613436565b6040516370a0823160e01b81526001600160a01b038281166004830152600091908416906370a0823190602401602060405180830381865afa15801561241f573d6000803e3d6000fd5b505050506040513d601f19601f82011682018060405250810190612443919061364e565b905060005b845181101561228357848181518110612463576124636131b8565b60200260200101516001600160a01b031663612c39b76040518163ffffffff1660e01b8152600401606060405180830381865afa1580156124a8573d6000803e3d6000fd5b505050506040513d601f19601f820116820180604052508101906124cc919061386a565b6040015115612547578481815181106124e7576124e76131b8565b60200260200101516001600160a01b031663718cb58a886040518263ffffffff1660e01b815260040161251a9190613a4f565b600060405180830381600087803b15801561253457600080fd5b505af1925050508015612545575060015b505b80612551816133c1565b915050612448565b604080516001600160a01b038416602482015260448082018490528251808303909101815260649091019091526020810180516001600160e01b031663a9059cbb60e01b1790526106119084906127b1565b6000816040516020016125be9190613ba7565b60405160208183030381529060405280519060200120836040516020016125e59190613ba7565b6040516020818303038152906040528051906020012014905092915050565b60606105586001600160a01b03831660145b6060600061262583600261341f565b6126309060026133ae565b6001600160401b0381111561264757612647612aa4565b6040519080825280601f01601f191660200182016040528015612671576020820181803683370190505b509050600360fc1b8160008151811061268c5761268c6131b8565b60200101906001600160f81b031916908160001a905350600f60fb1b816001815181106126bb576126bb6131b8565b60200101906001600160f81b031916908160001a90535060006126df84600261341f565b6126ea9060016133ae565b90505b6001811115612762576f181899199a1a9b1b9c1cb0b131b232b360811b85600f166010811061271e5761271e6131b8565b1a60f81b828281518110612734576127346131b8565b60200101906001600160f81b031916908160001a90535060049490941c9361275b81613bc3565b90506126ed565b508315611ff25760405162461bcd60e51b815260206004820181905260248201527f537472696e67733a20686578206c656e67746820696e73756666696369656e74604482015260640161065b565b6000612806826040518060400160405280602081526020017f5361666545524332303a206c6f772d6c6576656c2063616c6c206661696c6564815250856001600160a01b03166128869092919063ffffffff16565b90508051600014806128275750808060200190518101906128279190613402565b6106115760405162461bcd60e51b815260206004820152602a60248201527f5361666545524332303a204552433230206f7065726174696f6e20646964206e6044820152691bdd081cdd58d8d9595960b21b606482015260840161065b565b60606120f7848460008585600080866001600160a01b031685876040516128ad9190613ba7565b60006040518083038185875af1925050503d80600081146128ea576040519150601f19603f3d011682016040523d82523d6000602084013e6128ef565b606091505b50915091506129008783838761290b565b979650505050505050565b6060831561297a578251600003612973576001600160a01b0385163b6129735760405162461bcd60e51b815260206004820152601d60248201527f416464726573733a2063616c6c20746f206e6f6e2d636f6e7472616374000000604482015260640161065b565b50816120f7565b6120f7838381511561298f5781518083602001fd5b8060405162461bcd60e51b815260040161065b9190612a23565b6000602082840312156129bb57600080fd5b81356001600160e01b031981168114611ff257600080fd5b60005b838110156129ee5781810151838201526020016129d6565b50506000910152565b60008151808452612a0f8160208601602086016129d3565b601f01601f19169290920160200192915050565b602081526000611ff260208301846129f7565b600060208284031215612a4857600080fd5b5035919050565b6001600160a01b038116811461168b57600080fd5b8035612a6f81612a4f565b919050565b60008060408385031215612a8757600080fd5b823591506020830135612a9981612a4f565b809150509250929050565b634e487b7160e01b600052604160045260246000fd5b6040516101a081016001600160401b0381118282101715612add57612add612aa4565b60405290565b60405160e081016001600160401b0381118282101715612add57612add612aa4565b60405161018081016001600160401b0381118282101715612add57612add612aa4565b604051601f8201601f191681016001600160401b0381118282101715612b5057612b50612aa4565b604052919050565b60006001600160401b03821115612b7157612b71612aa4565b5060051b60200190565b801515811461168b57600080fd5b8035612a6f81612b7b565b600082601f830112612ba557600080fd5b81356020612bba612bb583612b58565b612b28565b82815260059290921b84018101918181019086841115612bd957600080fd5b8286015b84811015612bfd578035612bf081612b7b565b8352918301918301612bdd565b509695505050505050565b600082601f830112612c1957600080fd5b81356020612c29612bb583612b58565b82815260059290921b84018101918181019086841115612c4857600080fd5b8286015b84811015612bfd5780358352918301918301612c4c565b60008060008060808587031215612c7957600080fd5b8435612c8481612a4f565b935060208501356001600160401b0380821115612ca057600080fd5b612cac88838901612b94565b94506040870135915080821115612cc257600080fd5b612cce88838901612c08565b93506060870135915080821115612ce457600080fd5b50612cf187828801612b94565b91505092959194509250565b600060208284031215612d0f57600080fd5b8135611ff281612a4f565b60008060408385031215612d2d57600080fd5b8235612d3881612b7b565b91506020830135612a9981612b7b565b6000601f8381840112612d5a57600080fd5b82356020612d6a612bb583612b58565b82815260059290921b85018101918181019087841115612d8957600080fd5b8287015b84811015612e1f5780356001600160401b0380821115612dad5760008081fd5b818a0191508a603f830112612dc25760008081fd5b85820135604082821115612dd857612dd8612aa4565b612de9828b01601f19168901612b28565b92508183528c81838601011115612e005760008081fd5b8181850189850137506000908201870152845250918301918301612d8d565b50979650505050505050565b60008060008060808587031215612e4157600080fd5b84356001600160401b0380821115612e5857600080fd5b818701915087601f830112612e6c57600080fd5b81356020612e7c612bb583612b58565b82815260059290921b8401810191818101908b841115612e9b57600080fd5b948201945b83861015612eb957853582529482019490820190612ea0565b98505088013592505080821115612ecf57600080fd5b612edb88838901612b94565b94506040870135915080821115612ef157600080fd5b612efd88838901612b94565b93506060870135915080821115612f1357600080fd5b50612cf187828801612d48565b60ff8116811461168b57600080fd5b8035612a6f81612f20565b63ffffffff8116811461168b57600080fd5b8035612a6f81612f3a565b65ffffffffffff8116811461168b57600080fd5b8035612a6f81612f57565b6001600160801b038116811461168b57600080fd5b8035612a6f81612f76565b6001600160401b038116811461168b57600080fd5b8035612a6f81612f96565b60006101a08284031215612fc957600080fd5b612fd1612aba565b9050612fdc82612f2f565b8152612fea60208301612f4c565b6020820152612ffb60408301612f2f565b604082015261300c60608301612a64565b606082015261301d60808301612f6b565b608082015261302e60a08301612f8b565b60a082015261303f60c08301612f8b565b60c082015261305060e08301612f8b565b60e0820152610100613063818401612f8b565b90820152610120613075838201612fab565b90820152610140613087838201612fab565b90820152610160613099838201612f8b565b818301525061018080830135818301525092915050565b6000602082840312156130c257600080fd5b81356001600160401b03808211156130d957600080fd5b9083019061026082860312156130ee57600080fd5b6130f6612ae3565b6130ff83612a64565b815261310d60208401612b89565b60208201526040830135604082015261312860608401612b89565b606082015261313960808401612b89565b608082015261314b8660a08501612fb6565b60a08201526102408301358281111561316357600080fd5b61316f87828601612c08565b60c08301525095945050505050565b600181811c9082168061319257607f821691505b6020821081036131b257634e487b7160e01b600052602260045260246000fd5b50919050565b634e487b7160e01b600052603260045260246000fd5b8051612a6f81612f20565b8051612a6f81612f3a565b8051612a6f81612a4f565b8051612a6f81612f57565b8051612a6f81612f76565b8051612a6f81612f96565b60006101a0828403121561322357600080fd5b61322b612aba565b9050613236826131ce565b8152613244602083016131d9565b6020820152613255604083016131ce565b6040820152613266606083016131e4565b6060820152613277608083016131ef565b608082015261328860a083016131fa565b60a082015261329960c083016131fa565b60c08201526132aa60e083016131fa565b60e08201526101006132bd8184016131fa565b908201526101206132cf838201613205565b908201526101406132e1838201613205565b908201526101606132f38382016131fa565b818301525061018080830151818301525092915050565b6000602080838503121561331d57600080fd5b82516001600160401b0381111561333357600080fd5b8301601f8101851361334457600080fd5b8051613352612bb582612b58565b8181526101a0918202830184019184820191908884111561337257600080fd5b938501935b83851015612e1f576133898986613210565b83529384019391850191613377565b634e487b7160e01b600052601160045260246000fd5b8082018082111561055857610558613398565b6000600182016133d3576133d3613398565b5060010190565b6000602082840312156133ec57600080fd5b8151611ff281612a4f565b8051612a6f81612b7b565b60006020828403121561341457600080fd5b8151611ff281612b7b565b808202811582820484141761055857610558613398565b60008261345357634e487b7160e01b600052601260045260246000fd5b500490565b8181038181111561055857610558613398565b805160ff1682526020810151613489602084018263ffffffff169052565b50604081015161349e604084018260ff169052565b5060608101516134b960608401826001600160a01b03169052565b5060808101516134d3608084018265ffffffffffff169052565b5060a08101516134ee60a08401826001600160801b03169052565b5060c081015161350960c08401826001600160801b03169052565b5060e081015161352460e08401826001600160801b03169052565b50610100818101516001600160801b038116848301525050610120818101516001600160401b038116848301525050610140818101516001600160401b038116848301525050610160818101516001600160801b03811684830152505061018090810151910152565b600081518084526020808501945080840160005b838110156135bd578151875295820195908201906001016135a1565b509495945050505050565b600061026060018060a01b0383511684526020830151151560208501526040830151604085015260608301511515606085015260808301511515608085015260a083015161361960a086018261346b565b5060c0830151816102408601526136328286018261358d565b95945050505050565b602081526000611ff260208301846135c8565b60006020828403121561366057600080fd5b5051919050565b60408152600061367a60408301856135c8565b90508260208301529392505050565b80516001600160d81b0381168114612a6f57600080fd5b600061018082840312156136b357600080fd5b6136bb612b05565b6136c4836131e4565b81526136d2602084016133f7565b60208201526136e3604084016131d9565b60408201526136f460608401613689565b60608201526080838101519082015260a0808401519082015260c0808401519082015260e08084015190820152610100808401519082015261012080840151908201526101408084015190820152610160928301519281019290925250919050565b60006101a0828403121561376957600080fd5b611ff28383613210565b6000602080830181845280855180835260408601915060408160051b870101925083870160005b828110156137c857603f198886030184526137b68583516135c8565b9450928501929085019060010161379a565b5092979650505050505050565b6000602082840312156137e757600080fd5b8151611ff281612f20565b6001600160a01b0384811682528316602080830191909152606060408301819052835190830181905260009184810191608085019190845b818110156138465784518452938201939282019260010161382a565b509198975050505050505050565b634e487b7160e01b600052602160045260246000fd5b60006060828403121561387c57600080fd5b604051606081018181106001600160401b038211171561389e5761389e612aa4565b60405282516138ac81612b7b565b815260208301516138bc81612b7b565b602082015260408301516138cf81612b7b565b60408201529392505050565b7f416363657373436f6e74726f6c3a206163636f756e74200000000000000000008152600083516139138160178501602088016129d3565b7001034b99036b4b9b9b4b733903937b6329607d1b60179184019182015283516139448160288401602088016129d3565b01602801949350505050565b600181815b8085111561398b57816000190482111561397157613971613398565b8085161561397e57918102915b93841c9390800290613955565b509250929050565b6000826139a257506001610558565b816139af57506000610558565b81600181146139c557600281146139cf576139eb565b6001915050610558565b60ff8411156139e0576139e0613398565b50506001821b610558565b5060208310610133831016604e8410600b8410161715613a0e575081810a610558565b613a188383613950565b8060001904821115613a2c57613a2c613398565b029392505050565b6000611ff260ff841683613993565b6000611ff28383613993565b60208152613a6160208201835161346b565b600060208301516102206101c08181860152613a8a610240860184516001600160a01b03169052565b602083015115156102608601526040830151610280860152606083015115156102a086015260808301516001600160a01b03166102c086015260a08301516102e086015260c083015161030086015260e0830151610320860152610100830151151561034086015261012083015160ff9081166103608701526101408401516001600160401b03166103808701526101608401516103a08701526101808401516103c08701526101a0840151166103e0860152909101516101e06104008501819052909190613b5d61042086018461358d565b92506040860151613b728287018260ff169052565b50506060850151848303601f1901610200860152613b9083826129f7565b925050608085015181850152508091505092915050565b60008251613bb98184602087016129d3565b9190910192915050565b600081613bd257613bd2613398565b50600019019056fea2646970667358221220c633d7a17b4e7dadb0b2df0f57fc2be545b8901cdacb7611bd8f9d68c7aec31c64736f6c63430008110033",
    "linkReferences": {}
  },
  "methodIdentifiers": {
    "DEFAULT_ADMIN_ROLE()": "a217fddf",
    "PLUGIN_GAS_LIMIT()": "63cd8dbd",
    "cancelOrderList(address,bool[],uint256[],bool[])": "301f6fe9",
    "collateralToken()": "b2016bd4",
    "collateralTokenDigits()": "b21dc9cb",
    "feeRouter()": "f29ebf61",
    "getRoleAdmin(bytes32)": "248a9ca3",
    "globalValid()": "c54dc3d6",
    "grantControllerRoleByMarketManager(address)": "7fe4a698",
    "grantRole(bytes32,address)": "2f2ff15d",
    "hasRole(bytes32,address)": "91d14854",
    "indexToken()": "e7d015f2",
    "marketRouter()": "d12dbde4",
    "marketValid()": "b894300d",
    "name()": "06fdde03",
    "orderBookLong()": "7b2fd1e5",
    "orderBookShort()": "05ba9ae9",
    "orderMgr()": "a0cbf50c",
    "orderStore(bool,bool)": "a2640454",
    "owner()": "8da5cb5b",
    "plugins(uint256)": "f0a317eb",
    "positionAddMgr()": "d49ff78d",
    "positionBook()": "ac0b05a6",
    "positionStoreLong()": "07e87545",
    "positionStoreShort()": "45ccf5c5",
    "positionSubMgr()": "8a6ca35d",
    "priceFeed()": "741bef1a",
    "renounceOwnership()": "715018a6",
    "renounceRole(bytes32,address)": "36568abe",
    "revokeRole(bytes32,address)": "d547741f",
    "supportsInterface(bytes4)": "01ffc9a7",
    "sysCancelOrder(bytes32[],bool[],bool[],string[])": "ac0c7aa4",
    "transferAdmin(address)": "75829def",
    "transferOwnership(address)": "f2fde38b",
    "updateOrder((address,bool,uint256,bool,bool,(uint8,uint32,uint8,address,uint48,uint128,uint128,uint128,uint128,uint64,uint64,uint128,bytes32),uint256[]))": "b038beb8",
    "vaultRouter()": "d37c441c"
  },
  "id": 18
}