{
  "abi": [
    {
      "inputs": [
        {
          "internalType": "address",
          "name": "vault",
          "type": "address"
        }
      ],
      "stateMutability": "nonpayable",
      "type": "constructor"
    },
    {
      "anonymous": false,
      "inputs": [
        {
          "indexed": true,
          "internalType": "uint256",
          "name": "startTime",
          "type": "uint256"
        },
        {
          "indexed": true,
          "internalType": "uint256",
          "name": "endTime",
          "type": "uint256"
        }
      ],
      "name": "AddSkipTime",
      "type": "event"
    },
    {
      "anonymous": false,
      "inputs": [
        {
          "indexed": false,
          "internalType": "uint8",
          "name": "version",
          "type": "uint8"
        }
      ],
      "name": "Initialized",
      "type": "event"
    },
    {
      "anonymous": false,
      "inputs": [
        {
          "indexed": true,
          "internalType": "address",
          "name": "previousOwner",
          "type": "address"
        },
        {
          "indexed": true,
          "internalType": "address",
          "name": "newOwner",
          "type": "address"
        }
      ],
      "name": "OwnershipTransferred",
      "type": "event"
    },
    {
      "anonymous": false,
      "inputs": [
        {
          "indexed": true,
          "internalType": "bytes32",
          "name": "role",
          "type": "bytes32"
        },
        {
          "indexed": true,
          "internalType": "bytes32",
          "name": "previousAdminRole",
          "type": "bytes32"
        },
        {
          "indexed": true,
          "internalType": "bytes32",
          "name": "newAdminRole",
          "type": "bytes32"
        }
      ],
      "name": "RoleAdminChanged",
      "type": "event"
    },
    {
      "anonymous": false,
      "inputs": [
        {
          "indexed": true,
          "internalType": "bytes32",
          "name": "role",
          "type": "bytes32"
        },
        {
          "indexed": true,
          "internalType": "address",
          "name": "account",
          "type": "address"
        },
        {
          "indexed": true,
          "internalType": "address",
          "name": "sender",
          "type": "address"
        }
      ],
      "name": "RoleGranted",
      "type": "event"
    },
    {
      "anonymous": false,
      "inputs": [
        {
          "indexed": true,
          "internalType": "bytes32",
          "name": "role",
          "type": "bytes32"
        },
        {
          "indexed": true,
          "internalType": "address",
          "name": "account",
          "type": "address"
        },
        {
          "indexed": true,
          "internalType": "address",
          "name": "sender",
          "type": "address"
        }
      ],
      "name": "RoleRevoked",
      "type": "event"
    },
    {
      "anonymous": false,
      "inputs": [
        {
          "indexed": true,
          "internalType": "address",
          "name": "market",
          "type": "address"
        },
        {
          "indexed": false,
          "internalType": "uint256",
          "name": "interval",
          "type": "uint256"
        }
      ],
      "name": "UpdateFundInterval",
      "type": "event"
    },
    {
      "anonymous": false,
      "inputs": [
        {
          "indexed": true,
          "internalType": "uint256",
          "name": "oldLimit",
          "type": "uint256"
        },
        {
          "indexed": false,
          "internalType": "uint256",
          "name": "newLimit",
          "type": "uint256"
        }
      ],
      "name": "UpdateMinRateLimit",
      "type": "event"
    },
    {
      "anonymous": false,
      "inputs": [
        {
          "indexed": false,
          "internalType": "uint256",
          "name": "oldFRate",
          "type": "uint256"
        },
        {
          "indexed": false,
          "internalType": "uint256",
          "name": "newFRate",
          "type": "uint256"
        }
      ],
      "name": "UpdateMinorityFRate",
      "type": "event"
    },
    {
      "inputs": [],
      "name": "BASIS_INTERVAL_HOU",
      "outputs": [
        {
          "internalType": "uint256",
          "name": "",
          "type": "uint256"
        }
      ],
      "stateMutability": "view",
      "type": "function"
    },
    {
      "inputs": [],
      "name": "DEFAULT_ADMIN_ROLE",
      "outputs": [
        {
          "internalType": "bytes32",
          "name": "",
          "type": "bytes32"
        }
      ],
      "stateMutability": "view",
      "type": "function"
    },
    {
      "inputs": [],
      "name": "DEFAULT_RATE_DIVISOR",
      "outputs": [
        {
          "internalType": "uint256",
          "name": "",
          "type": "uint256"
        }
      ],
      "stateMutability": "view",
      "type": "function"
    },
    {
      "inputs": [],
      "name": "FEE_RATE_PRECISION",
      "outputs": [
        {
          "internalType": "uint256",
          "name": "",
          "type": "uint256"
        }
      ],
      "stateMutability": "view",
      "type": "function"
    },
    {
      "inputs": [],
      "name": "MIN_FUNDING_INTERVAL",
      "outputs": [
        {
          "internalType": "uint256",
          "name": "",
          "type": "uint256"
        }
      ],
      "stateMutability": "view",
      "type": "function"
    },
    {
      "inputs": [
        {
          "internalType": "uint256",
          "name": "start",
          "type": "uint256"
        },
        {
          "internalType": "uint256",
          "name": "end",
          "type": "uint256"
        }
      ],
      "name": "addSkipTime",
      "outputs": [],
      "stateMutability": "nonpayable",
      "type": "function"
    },
    {
      "inputs": [],
      "name": "blankSlot",
      "outputs": [
        {
          "internalType": "address",
          "name": "",
          "type": "address"
        }
      ],
      "stateMutability": "view",
      "type": "function"
    },
    {
      "inputs": [],
      "name": "feeVault",
      "outputs": [
        {
          "internalType": "address",
          "name": "",
          "type": "address"
        }
      ],
      "stateMutability": "view",
      "type": "function"
    },
    {
      "inputs": [
        {
          "internalType": "address",
          "name": "",
          "type": "address"
        }
      ],
      "name": "fundingIntervals",
      "outputs": [
        {
          "internalType": "uint256",
          "name": "",
          "type": "uint256"
        }
      ],
      "stateMutability": "view",
      "type": "function"
    },
    {
      "inputs": [
        {
          "internalType": "address",
          "name": "market",
          "type": "address"
        },
        {
          "internalType": "uint256",
          "name": "size",
          "type": "uint256"
        },
        {
          "internalType": "int256",
          "name": "entryFundingRate",
          "type": "int256"
        },
        {
          "internalType": "bool",
          "name": "isLong",
          "type": "bool"
        }
      ],
      "name": "getFundingFee",
      "outputs": [
        {
          "internalType": "int256",
          "name": "",
          "type": "int256"
        }
      ],
      "stateMutability": "view",
      "type": "function"
    },
    {
      "inputs": [
        {
          "internalType": "address",
          "name": "market",
          "type": "address"
        },
        {
          "internalType": "bool",
          "name": "isLong",
          "type": "bool"
        }
      ],
      "name": "getFundingRate",
      "outputs": [
        {
          "internalType": "int256",
          "name": "",
          "type": "int256"
        }
      ],
      "stateMutability": "view",
      "type": "function"
    },
    {
      "inputs": [
        {
          "internalType": "address",
          "name": "market",
          "type": "address"
        },
        {
          "internalType": "uint256",
          "name": "longSize",
          "type": "uint256"
        },
        {
          "internalType": "uint256",
          "name": "shortSize",
          "type": "uint256"
        }
      ],
      "name": "getNextFundingRate",
      "outputs": [
        {
          "internalType": "int256",
          "name": "",
          "type": "int256"
        },
        {
          "internalType": "int256",
          "name": "",
          "type": "int256"
        }
      ],
      "stateMutability": "view",
      "type": "function"
    },
    {
      "inputs": [
        {
          "internalType": "bytes32",
          "name": "role",
          "type": "bytes32"
        }
      ],
      "name": "getRoleAdmin",
      "outputs": [
        {
          "internalType": "bytes32",
          "name": "",
          "type": "bytes32"
        }
      ],
      "stateMutability": "view",
      "type": "function"
    },
    {
      "inputs": [
        {
          "internalType": "address",
          "name": "_account",
          "type": "address"
        }
      ],
      "name": "grantControllerRoleByMarketManager",
      "outputs": [],
      "stateMutability": "nonpayable",
      "type": "function"
    },
    {
      "inputs": [
        {
          "internalType": "bytes32",
          "name": "role",
          "type": "bytes32"
        },
        {
          "internalType": "address",
          "name": "account",
          "type": "address"
        }
      ],
      "name": "grantRole",
      "outputs": [],
      "stateMutability": "nonpayable",
      "type": "function"
    },
    {
      "inputs": [
        {
          "internalType": "bytes32",
          "name": "role",
          "type": "bytes32"
        },
        {
          "internalType": "address",
          "name": "account",
          "type": "address"
        }
      ],
      "name": "hasRole",
      "outputs": [
        {
          "internalType": "bool",
          "name": "",
          "type": "bool"
        }
      ],
      "stateMutability": "view",
      "type": "function"
    },
    {
      "inputs": [],
      "name": "minRateLimit",
      "outputs": [
        {
          "internalType": "uint256",
          "name": "",
          "type": "uint256"
        }
      ],
      "stateMutability": "view",
      "type": "function"
    },
    {
      "inputs": [],
      "name": "minorityFRate",
      "outputs": [
        {
          "internalType": "uint256",
          "name": "",
          "type": "uint256"
        }
      ],
      "stateMutability": "view",
      "type": "function"
    },
    {
      "inputs": [],
      "name": "owner",
      "outputs": [
        {
          "internalType": "address",
          "name": "",
          "type": "address"
        }
      ],
      "stateMutability": "view",
      "type": "function"
    },
    {
      "inputs": [],
      "name": "renounceOwnership",
      "outputs": [],
      "stateMutability": "nonpayable",
      "type": "function"
    },
    {
      "inputs": [
        {
          "internalType": "bytes32",
          "name": "",
          "type": "bytes32"
        },
        {
          "internalType": "address",
          "name": "",
          "type": "address"
        }
      ],
      "name": "renounceRole",
      "outputs": [],
      "stateMutability": "nonpayable",
      "type": "function"
    },
    {
      "inputs": [
        {
          "internalType": "bytes32",
          "name": "role",
          "type": "bytes32"
        },
        {
          "internalType": "address",
          "name": "account",
          "type": "address"
        }
      ],
      "name": "revokeRole",
      "outputs": [],
      "stateMutability": "nonpayable",
      "type": "function"
    },
    {
      "inputs": [
        {
          "internalType": "address[]",
          "name": "markets",
          "type": "address[]"
        },
        {
          "internalType": "uint256[]",
          "name": "intervals",
          "type": "uint256[]"
        }
      ],
      "name": "setFundingInterval",
      "outputs": [],
      "stateMutability": "nonpayable",
      "type": "function"
    },
    {
      "inputs": [
        {
          "internalType": "uint256",
          "name": "limit",
          "type": "uint256"
        }
      ],
      "name": "setMinRateLimit",
      "outputs": [],
      "stateMutability": "nonpayable",
      "type": "function"
    },
    {
      "inputs": [
        {
          "internalType": "uint256",
          "name": "rate",
          "type": "uint256"
        }
      ],
      "name": "setMinorityFRate",
      "outputs": [],
      "stateMutability": "nonpayable",
      "type": "function"
    },
    {
      "inputs": [
        {
          "internalType": "uint256",
          "name": "",
          "type": "uint256"
        }
      ],
      "name": "skipTimes",
      "outputs": [
        {
          "internalType": "uint256",
          "name": "start",
          "type": "uint256"
        },
        {
          "internalType": "uint256",
          "name": "end",
          "type": "uint256"
        }
      ],
      "stateMutability": "view",
      "type": "function"
    },
    {
      "inputs": [
        {
          "internalType": "bytes4",
          "name": "interfaceId",
          "type": "bytes4"
        }
      ],
      "name": "supportsInterface",
      "outputs": [
        {
          "internalType": "bool",
          "name": "",
          "type": "bool"
        }
      ],
      "stateMutability": "view",
      "type": "function"
    },
    {
      "inputs": [
        {
          "internalType": "address",
          "name": "to",
          "type": "address"
        }
      ],
      "name": "transferAdmin",
      "outputs": [],
      "stateMutability": "nonpayable",
      "type": "function"
    },
    {
      "inputs": [
        {
          "internalType": "address",
          "name": "newOwner",
          "type": "address"
        }
      ],
      "name": "transferOwnership",
      "outputs": [],
      "stateMutability": "nonpayable",
      "type": "function"
    },
    {
      "inputs": [
        {
          "internalType": "address",
          "name": "market",
          "type": "address"
        },
        {
          "internalType": "uint256",
          "name": "longSize",
          "type": "uint256"
        },
        {
          "internalType": "uint256",
          "name": "shortSize",
          "type": "uint256"
        }
      ],
      "name": "updateCumulativeFundingRate",
      "outputs": [],
      "stateMutability": "nonpayable",
      "type": "function"
    }
  ],
  "bytecode": {
    "object": "0x60a060405261082360045560006005553480156200001c57600080fd5b5060405162001e0a38038062001e0a8339810160408190526200003f916200021b565b336200004b81620000f0565b62000061816200014260201b62000c951760201c565b506001600160a01b038116620000b05760405162461bcd60e51b815260206004820152601060248201526f1a5b9d985b1a590819995955985d5b1d60821b604482015260640160405180910390fd5b6001600160a01b038116608052620000e97f241ecf16d79d0f8dbfb92cbc07fe17840425976cf0667f022fe9877caa831b08336200016e565b506200024d565b600180546001600160a01b038381166001600160a01b0319831681179093556040519116919082907f8be0079c531659141344cd1fd0a4f28419497f9722a3daafe3b4186f6b6457e090600090a35050565b426002556200015133620000f0565b6200015e6000336200020f565b6200016b6000826200020f565b50565b6000828152602081815260408083206001600160a01b038516845290915290205460ff166200020b576000828152602081815260408083206001600160a01b03851684529091529020805460ff19166001179055620001ca3390565b6001600160a01b0316816001600160a01b0316837f2f8788117e7eff1d82e926ec794901d17c78024a50270940304540a733656f0d60405160405180910390a45b5050565b6200020b82826200016e565b6000602082840312156200022e57600080fd5b81516001600160a01b03811681146200024657600080fd5b9392505050565b608051611b8562000285600039600081816102b7015281816105090152818161084b0152818161106901526111180152611b856000f3fe608060405234801561001057600080fd5b50600436106101da5760003560e01c80637fe4a69811610104578063c1b3cb0f116100a2578063dc5ac99511610071578063dc5ac995146103ff578063e56fa59d14610412578063f2fde38b14610425578063f4ca4d1d1461043857600080fd5b8063c1b3cb0f146103c7578063c6f83ad1146103d0578063c831ba2a146103e3578063d547741f146103ec57600080fd5b80638f18af9a116100de5780638f18af9a1461038657806391d1485414610399578063a217fddf146103ac578063bc3d3a8b146103b457600080fd5b80637fe4a6981461034f57806387a1cd09146103625780638da5cb5b1461037557600080fd5b806336568abe1161017c578063705da24c1161014b578063705da24c14610319578063715018a61461032157806375829def1461032957806376239a671461033c57600080fd5b806336568abe146102a4578063478222c2146102b25780635645d877146102f15780635a58ca451461031157600080fd5b806320981df4116101b857806320981df414610242578063248a9ca31461026357806327d3fbf3146102865780632f2ff15d1461028f57600080fd5b806301ffc9a7146101df578063021453f414610207578063054aaca11461022f575b600080fd5b6101f26101ed3660046114fe565b610443565b60405190151581526020015b60405180910390f35b61021a610215366004611528565b61047a565b604080519283526020830191909152016101fe565b61021a61023d36600461155d565b6104a8565b6102556102503660046115a0565b6104dc565b6040519081526020016101fe565b610255610271366004611528565b60009081526020819052604090206001015490565b61025560055481565b6102a261029d3660046115d3565b61057d565b005b6102a26101da3660046115d3565b6102d97f000000000000000000000000000000000000000000000000000000000000000081565b6040516001600160a01b0390911681526020016101fe565b6102556102ff3660046115f6565b60066020526000908152604090205481565b610255606481565b610255601881565b6102a26105a7565b6102a26103373660046115f6565b6105bb565b6102a261034a3660046116e7565b610634565b6102a261035d3660046115f6565b6107e5565b6003546102d9906001600160a01b031681565b6001546001600160a01b03166102d9565b6102556103943660046117a7565b61080f565b6101f26103a73660046115d3565b6108ee565b610255600081565b6102a26103c23660046117ed565b610917565b610255610e1081565b6102a26103de36600461155d565b610a17565b61025560045481565b6102a26103fa3660046115d3565b610b03565b6102a261040d366004611528565b610b28565b6102a2610420366004611528565b610b84565b6102a26104333660046115f6565b610c1c565b6102556305f5e10081565b60006001600160e01b03198216637965db0b60e01b148061047457506301ffc9a760e01b6001600160e01b03198316145b92915050565b6007818154811061048a57600080fd5b60009182526020909120600290910201805460019091015490915082565b6000806000806104b88686610cb8565b915091506000806104ca898585610d21565b9096509450505050505b935093915050565b6040516001624c409d60e01b031981526001600160a01b03838116600483015282151560248301526000917f00000000000000000000000000000000000000000000000000000000000000009091169063ffb3bf6390604401602060405180830381865afa158015610552573d6000803e3d6000fd5b505050506040513d601f19601f82011682018060405250810190610576919061180f565b9392505050565b60008281526020819052604090206001015461059881610dc3565b6105a28383610dcd565b505050565b6105af610e51565b6105b96000610eab565b565b60006105c681610dc3565b6001600160a01b0382166106115760405162461bcd60e51b815260206004820152600d60248201526c217a65726f206164647265737360981b60448201526064015b60405180910390fd5b61061c600083610efd565b61062582610eab565b610630600033610f07565b5050565b61064b600080516020611b30833981519152610dc3565b805182511461068d5760405162461bcd60e51b815260206004820152600e60248201526d696e76616c696420706172616d7360901b6044820152606401610608565b6000805b83518110156107df5760006001600160a01b03168482815181106106b7576106b7611828565b60200260200101516001600160a01b0316036106d257600080fd5b610e108382815181106106e7576106e7611828565b602002602001015110156106fa57600080fd5b610e108084838151811061071057610710611828565b6020026020010151610722919061186a565b61072c919061187e565b9150816006600086848151811061074557610745611828565b60200260200101516001600160a01b03166001600160a01b031681526020019081526020016000208190555083818151811061078357610783611828565b60200260200101516001600160a01b03167f014f9b627a46d0881111664e681522272907a49b31cc3f24613bdad2c551825c836040516107c591815260200190565b60405180910390a2806107d781611895565b915050610691565b50505050565b7f8d1089725c0dc266707fa6207730fb801dcd03108bfed7a21099bd303651d2b76101da81610dc3565b600083600003610821575060006108e6565b6040516334f32e2560e01b81526001600160a01b03868116600483015283151560248301526000917f0000000000000000000000000000000000000000000000000000000000000000909116906334f32e2590604401602060405180830381865afa158015610894573d6000803e3d6000fd5b505050506040513d601f19601f820116820180604052508101906108b8919061180f565b905060006108c96305f5e100610f6c565b9050806108d7878785610fda565b6108e191906118ae565b925050505b949350505050565b6000918252602082815260408084206001600160a01b0393909316845291905290205460ff1690565b61092e600080516020611b30833981519152610dc3565b8181101561096f5760405162461bcd60e51b815260206004820152600e60248201526d696e76616c696420706172616d7360901b6044820152606401610608565b6040805180820182528381526020810183815260078054600181018255600091825283517fa66cc928b5edb82af9bd49922954155ab7b0942694bea4ce44661d9a8736c68860029092029182015591517fa66cc928b5edb82af9bd49922954155ab7b0942694bea4ce44661d9a8736c6899092019190915591519091839185917fbb67e50fdd1f174a20c4f1e0e5b9ab3984685f30623b89b69ba068a11ce913b691a3505050565b610a407fcb58d6d985142a614029cdf01861b4fe094d5919a47e69b8310dc4093d9d6ad0610dc3565b6000610a4b84611018565b90506000610a5885611047565b905080600003610a905781610a6d814261186a565b610a77919061187e565b9050610a8985600080600080866110d6565b5050505050565b42610a9b83836118dc565b1115610aa8575050505050565b600080610ab58686610cb8565b91509150600080610ac7898585610d21565b915091508586610ad44290565b610ade919061186a565b610ae8919061187e565b9450610af889858585858a6110d6565b505050505050505050565b600082815260208190526040902060010154610b1e81610dc3565b6105a28383610f07565b610b3f600080516020611b30833981519152610dc3565b600580549082905560408051828152602081018490527fcc6508f1ccefe81f3ad53a268646f4f599087ddb280e426c89bc1d597a03d412910160405180910390a15050565b610b9b600080516020611b30833981519152610dc3565b60008111610bdb5760405162461bcd60e51b815260206004820152600d60248201526c1a5b9d985b1a59081b1a5b5a5d609a1b6044820152606401610608565b600480549082905560405182815281907f3260736e52fceaa012d37fa304cc1487de94003f4f3abd03f22617f6105cd83a9060200160405180910390a25050565b610c24610e51565b6001600160a01b038116610c895760405162461bcd60e51b815260206004820152602660248201527f4f776e61626c653a206e6577206f776e657220697320746865207a65726f206160448201526564647265737360d01b6064820152608401610608565b610c9281610eab565b50565b42600255610ca233610eab565b610cad600033610efd565b610c92600082610efd565b6000806000610cc7858561117c565b90506000610cd482610f6c565b90506004548203610ceb579250829150610d1a9050565b848610610d095780610cfe600554610f6c565b935093505050610d1a565b610d14600554610f6c565b93509150505b9250929050565b6000806000610d2f86611018565b90506000610d3c87611047565b905042610d4983836118dc565b1115610d5d576000809350935050506104d4565b6000610d6761123c565b90506000610d95610e1083610d7c86426118ef565b610d8691906118ef565b610d90919061186a565b610f6c565b90506000610da3828a611902565b90506000610db1838a611902565b919b919a509098505050505050505050565b610c9281336112f7565b610dd782826108ee565b610630576000828152602081815260408083206001600160a01b03851684529091529020805460ff19166001179055610e0d3390565b6001600160a01b0316816001600160a01b0316837f2f8788117e7eff1d82e926ec794901d17c78024a50270940304540a733656f0d60405160405180910390a45050565b6001546001600160a01b031633146105b95760405162461bcd60e51b815260206004820181905260248201527f4f776e61626c653a2063616c6c6572206973206e6f7420746865206f776e65726044820152606401610608565b600180546001600160a01b038381166001600160a01b0319831681179093556040519116919082907f8be0079c531659141344cd1fd0a4f28419497f9722a3daafe3b4186f6b6457e090600090a35050565b6106308282610dcd565b610f1182826108ee565b15610630576000828152602081815260408083206001600160a01b0385168085529252808320805460ff1916905551339285917ff6391f5c32d9c69d2a47ea670b442974b53935d1edc7fd64eb21e047a839171b9190a45050565b60006001600160ff1b03821115610fd65760405162461bcd60e51b815260206004820152602860248201527f53616665436173743a2076616c756520646f65736e27742066697420696e2061604482015267371034b73a191a9b60c11b6064820152608401610608565b5090565b600080610fe78484611932565b905080600003610ffb576000915050610576565b8061100586610f6c565b61100f9190611902565b95945050505050565b6001600160a01b038116600090815260066020526040812054801561103d5792915050565b50610e1092915050565b60405163d8f897c360e01b81526001600160a01b0382811660048301526000917f00000000000000000000000000000000000000000000000000000000000000009091169063d8f897c390602401602060405180830381865afa1580156110b2573d6000803e3d6000fd5b505050506040513d601f19601f82011682018060405250810190610474919061180f565b60405163b21bf2d360e01b81526001600160a01b0387811660048301526024820187905260448201869052606482018590526084820184905260a482018390527f0000000000000000000000000000000000000000000000000000000000000000169063b21bf2d39060c401600060405180830381600087803b15801561115c57600080fd5b505af1158015611170573d6000803e3d6000fd5b50505050505050505050565b60008215801561118a575081155b156111985750600454610474565b60008284106111b2576111ab83856118ef565b90506111bf565b6111bc84846118ef565b90505b600081156112265760006111d385876118dc565b9050806111e46305f5e1008561187e565b6111ee919061186a565b9150601860646305f5e100611204600286611a3d565b61120e919061186a565b611218919061186a565b611222919061186a565b9150505b6004548110156108e65760045492505050610474565b600754600090810361124b5790565b60005b600754811015610fd6576007818154811061126b5761126b611828565b9060005260206000209060020201600101544211156112e5576007818154811061129757611297611828565b906000526020600020906002020160000154600782815481106112bc576112bc611828565b9060005260206000209060020201600101546112d891906118ef565b6112e290836118dc565b91505b806112ef81611895565b91505061124e565b61130182826108ee565b6106305761130e81611350565b611319836020611362565b60405160200161132a929190611a70565b60408051601f198184030181529082905262461bcd60e51b825261060891600401611ae5565b60606104746001600160a01b03831660145b6060600061137183600261187e565b61137c9060026118dc565b67ffffffffffffffff81111561139457611394611611565b6040519080825280601f01601f1916602001820160405280156113be576020820181803683370190505b509050600360fc1b816000815181106113d9576113d9611828565b60200101906001600160f81b031916908160001a905350600f60fb1b8160018151811061140857611408611828565b60200101906001600160f81b031916908160001a905350600061142c84600261187e565b6114379060016118dc565b90505b60018111156114af576f181899199a1a9b1b9c1cb0b131b232b360811b85600f166010811061146b5761146b611828565b1a60f81b82828151811061148157611481611828565b60200101906001600160f81b031916908160001a90535060049490941c936114a881611b18565b905061143a565b5083156105765760405162461bcd60e51b815260206004820181905260248201527f537472696e67733a20686578206c656e67746820696e73756666696369656e746044820152606401610608565b60006020828403121561151057600080fd5b81356001600160e01b03198116811461057657600080fd5b60006020828403121561153a57600080fd5b5035919050565b80356001600160a01b038116811461155857600080fd5b919050565b60008060006060848603121561157257600080fd5b61157b84611541565b95602085013595506040909401359392505050565b8035801515811461155857600080fd5b600080604083850312156115b357600080fd5b6115bc83611541565b91506115ca60208401611590565b90509250929050565b600080604083850312156115e657600080fd5b823591506115ca60208401611541565b60006020828403121561160857600080fd5b61057682611541565b634e487b7160e01b600052604160045260246000fd5b604051601f8201601f1916810167ffffffffffffffff8111828210171561165057611650611611565b604052919050565b600067ffffffffffffffff82111561167257611672611611565b5060051b60200190565b600082601f83011261168d57600080fd5b813560206116a261169d83611658565b611627565b82815260059290921b840181019181810190868411156116c157600080fd5b8286015b848110156116dc57803583529183019183016116c5565b509695505050505050565b600080604083850312156116fa57600080fd5b823567ffffffffffffffff8082111561171257600080fd5b818501915085601f83011261172657600080fd5b8135602061173661169d83611658565b82815260059290921b8401810191818101908984111561175557600080fd5b948201945b8386101561177a5761176b86611541565b8252948201949082019061175a565b9650508601359250508082111561179057600080fd5b5061179d8582860161167c565b9150509250929050565b600080600080608085870312156117bd57600080fd5b6117c685611541565b935060208501359250604085013591506117e260608601611590565b905092959194509250565b6000806040838503121561180057600080fd5b50508035926020909101359150565b60006020828403121561182157600080fd5b5051919050565b634e487b7160e01b600052603260045260246000fd5b634e487b7160e01b600052601260045260246000fd5b634e487b7160e01b600052601160045260246000fd5b6000826118795761187961183e565b500490565b808202811582820484141761047457610474611854565b6000600182016118a7576118a7611854565b5060010190565b6000826118bd576118bd61183e565b600160ff1b8214600019841416156118d7576118d7611854565b500590565b8082018082111561047457610474611854565b8181038181111561047457610474611854565b80820260008212600160ff1b8414161561191e5761191e611854565b818105831482151761047457610474611854565b818103600083128015838313168383128216171561195257611952611854565b5092915050565b600181815b8085111561199457816000190482111561197a5761197a611854565b8085161561198757918102915b93841c939080029061195e565b509250929050565b6000826119ab57506001610474565b816119b857506000610474565b81600181146119ce57600281146119d8576119f4565b6001915050610474565b60ff8411156119e9576119e9611854565b50506001821b610474565b5060208310610133831016604e8410600b8410161715611a17575081810a610474565b611a218383611959565b8060001904821115611a3557611a35611854565b029392505050565b600061057660ff84168361199c565b60005b83811015611a67578181015183820152602001611a4f565b50506000910152565b7f416363657373436f6e74726f6c3a206163636f756e7420000000000000000000815260008351611aa8816017850160208801611a4c565b7001034b99036b4b9b9b4b733903937b6329607d1b6017918401918201528351611ad9816028840160208801611a4c565b01602801949350505050565b6020815260008251806020840152611b04816040850160208701611a4c565b601f01601f19169190910160400192915050565b600081611b2757611b27611854565b50600019019056fe241ecf16d79d0f8dbfb92cbc07fe17840425976cf0667f022fe9877caa831b08a264697066735822122034780bee5fcbaa6b68beae98c194b7d04b7eefb8e2a7a2bc6698dc3e597a9d0564736f6c63430008110033",
    "linkReferences": {}
  },
  "methodIdentifiers": {
    "BASIS_INTERVAL_HOU()": "705da24c",
    "DEFAULT_ADMIN_ROLE()": "a217fddf",
    "DEFAULT_RATE_DIVISOR()": "5a58ca45",
    "FEE_RATE_PRECISION()": "f4ca4d1d",
    "MIN_FUNDING_INTERVAL()": "c1b3cb0f",
    "addSkipTime(uint256,uint256)": "bc3d3a8b",
    "blankSlot()": "87a1cd09",
    "feeVault()": "478222c2",
    "fundingIntervals(address)": "5645d877",
    "getFundingFee(address,uint256,int256,bool)": "8f18af9a",
    "getFundingRate(address,bool)": "20981df4",
    "getNextFundingRate(address,uint256,uint256)": "054aaca1",
    "getRoleAdmin(bytes32)": "248a9ca3",
    "grantControllerRoleByMarketManager(address)": "7fe4a698",
    "grantRole(bytes32,address)": "2f2ff15d",
    "hasRole(bytes32,address)": "91d14854",
    "minRateLimit()": "c831ba2a",
    "minorityFRate()": "27d3fbf3",
    "owner()": "8da5cb5b",
    "renounceOwnership()": "715018a6",
    "renounceRole(bytes32,address)": "36568abe",
    "revokeRole(bytes32,address)": "d547741f",
    "setFundingInterval(address[],uint256[])": "76239a67",
    "setMinRateLimit(uint256)": "e56fa59d",
    "setMinorityFRate(uint256)": "dc5ac995",
    "skipTimes(uint256)": "021453f4",
    "supportsInterface(bytes4)": "01ffc9a7",
    "transferAdmin(address)": "75829def",
    "transferOwnership(address)": "f2fde38b",
    "updateCumulativeFundingRate(address,uint256,uint256)": "c6f83ad1"
  },
  "id": 4
}