{
  "abi": [
    {
      "inputs": [
        {
          "internalType": "address",
          "name": "factoty",
          "type": "address"
        }
      ],
      "stateMutability": "nonpayable",
      "type": "constructor"
    },
    {
      "anonymous": false,
      "inputs": [
        {
          "indexed": false,
          "internalType": "uint8",
          "name": "version",
          "type": "uint8"
        }
      ],
      "name": "Initialized",
      "type": "event"
    },
    {
      "anonymous": false,
      "inputs": [
        {
          "indexed": true,
          "internalType": "address",
          "name": "previousOwner",
          "type": "address"
        },
        {
          "indexed": true,
          "internalType": "address",
          "name": "newOwner",
          "type": "address"
        }
      ],
      "name": "OwnershipTransferred",
      "type": "event"
    },
    {
      "anonymous": false,
      "inputs": [
        {
          "indexed": true,
          "internalType": "bytes32",
          "name": "role",
          "type": "bytes32"
        },
        {
          "indexed": true,
          "internalType": "bytes32",
          "name": "previousAdminRole",
          "type": "bytes32"
        },
        {
          "indexed": true,
          "internalType": "bytes32",
          "name": "newAdminRole",
          "type": "bytes32"
        }
      ],
      "name": "RoleAdminChanged",
      "type": "event"
    },
    {
      "anonymous": false,
      "inputs": [
        {
          "indexed": true,
          "internalType": "bytes32",
          "name": "role",
          "type": "bytes32"
        },
        {
          "indexed": true,
          "internalType": "address",
          "name": "account",
          "type": "address"
        },
        {
          "indexed": true,
          "internalType": "address",
          "name": "sender",
          "type": "address"
        }
      ],
      "name": "RoleGranted",
      "type": "event"
    },
    {
      "anonymous": false,
      "inputs": [
        {
          "indexed": true,
          "internalType": "bytes32",
          "name": "role",
          "type": "bytes32"
        },
        {
          "indexed": true,
          "internalType": "address",
          "name": "account",
          "type": "address"
        },
        {
          "indexed": true,
          "internalType": "address",
          "name": "sender",
          "type": "address"
        }
      ],
      "name": "RoleRevoked",
      "type": "event"
    },
    {
      "inputs": [],
      "name": "DEFAULT_ADMIN_ROLE",
      "outputs": [
        {
          "internalType": "bytes32",
          "name": "",
          "type": "bytes32"
        }
      ],
      "stateMutability": "view",
      "type": "function"
    },
    {
      "inputs": [
        {
          "internalType": "address",
          "name": "account",
          "type": "address"
        },
        {
          "internalType": "uint256",
          "name": "collateralDelta",
          "type": "uint256"
        },
        {
          "internalType": "bool",
          "name": "isLong",
          "type": "bool"
        }
      ],
      "name": "decreaseCollateralFromCancelInvalidOrder",
      "outputs": [
        {
          "internalType": "uint256",
          "name": "",
          "type": "uint256"
        }
      ],
      "stateMutability": "nonpayable",
      "type": "function"
    },
    {
      "inputs": [
        {
          "internalType": "address",
          "name": "account",
          "type": "address"
        },
        {
          "internalType": "uint256",
          "name": "collateralDelta",
          "type": "uint256"
        },
        {
          "internalType": "uint256",
          "name": "sizeDelta",
          "type": "uint256"
        },
        {
          "internalType": "int256",
          "name": "fundingRate",
          "type": "int256"
        },
        {
          "internalType": "bool",
          "name": "isLong",
          "type": "bool"
        }
      ],
      "name": "decreasePosition",
      "outputs": [
        {
          "components": [
            {
              "internalType": "address",
              "name": "market",
              "type": "address"
            },
            {
              "internalType": "bool",
              "name": "isLong",
              "type": "bool"
            },
            {
              "internalType": "uint32",
              "name": "lastTime",
              "type": "uint32"
            },
            {
              "internalType": "uint216",
              "name": "extra3",
              "type": "uint216"
            },
            {
              "internalType": "uint256",
              "name": "size",
              "type": "uint256"
            },
            {
              "internalType": "uint256",
              "name": "collateral",
              "type": "uint256"
            },
            {
              "internalType": "uint256",
              "name": "averagePrice",
              "type": "uint256"
            },
            {
              "internalType": "int256",
              "name": "entryFundingRate",
              "type": "int256"
            },
            {
              "internalType": "int256",
              "name": "realisedPnl",
              "type": "int256"
            },
            {
              "internalType": "uint256",
              "name": "extra0",
              "type": "uint256"
            },
            {
              "internalType": "uint256",
              "name": "extra1",
              "type": "uint256"
            },
            {
              "internalType": "uint256",
              "name": "extra2",
              "type": "uint256"
            }
          ],
          "internalType": "struct Position.Props",
          "name": "result",
          "type": "tuple"
        }
      ],
      "stateMutability": "nonpayable",
      "type": "function"
    },
    {
      "inputs": [
        {
          "internalType": "address",
          "name": "account",
          "type": "address"
        }
      ],
      "name": "getAccountSize",
      "outputs": [
        {
          "internalType": "uint256",
          "name": "",
          "type": "uint256"
        },
        {
          "internalType": "uint256",
          "name": "",
          "type": "uint256"
        }
      ],
      "stateMutability": "view",
      "type": "function"
    },
    {
      "inputs": [
        {
          "internalType": "uint256",
          "name": "longPrice",
          "type": "uint256"
        },
        {
          "internalType": "uint256",
          "name": "shortPrice",
          "type": "uint256"
        }
      ],
      "name": "getMarketPNL",
      "outputs": [
        {
          "internalType": "int256",
          "name": "",
          "type": "int256"
        }
      ],
      "stateMutability": "view",
      "type": "function"
    },
    {
      "inputs": [],
      "name": "getMarketSizes",
      "outputs": [
        {
          "internalType": "uint256",
          "name": "",
          "type": "uint256"
        },
        {
          "internalType": "uint256",
          "name": "",
          "type": "uint256"
        }
      ],
      "stateMutability": "view",
      "type": "function"
    },
    {
      "inputs": [
        {
          "internalType": "address",
          "name": "account",
          "type": "address"
        },
        {
          "internalType": "uint256",
          "name": "sizeDelta",
          "type": "uint256"
        },
        {
          "internalType": "uint256",
          "name": "markPrice",
          "type": "uint256"
        },
        {
          "internalType": "bool",
          "name": "isLong",
          "type": "bool"
        }
      ],
      "name": "getPNL",
      "outputs": [
        {
          "internalType": "int256",
          "name": "",
          "type": "int256"
        }
      ],
      "stateMutability": "view",
      "type": "function"
    },
    {
      "inputs": [
        {
          "internalType": "address",
          "name": "account",
          "type": "address"
        },
        {
          "internalType": "uint256",
          "name": "markPrice",
          "type": "uint256"
        },
        {
          "internalType": "bool",
          "name": "isLong",
          "type": "bool"
        }
      ],
      "name": "getPosition",
      "outputs": [
        {
          "components": [
            {
              "internalType": "address",
              "name": "market",
              "type": "address"
            },
            {
              "internalType": "bool",
              "name": "isLong",
              "type": "bool"
            },
            {
              "internalType": "uint32",
              "name": "lastTime",
              "type": "uint32"
            },
            {
              "internalType": "uint216",
              "name": "extra3",
              "type": "uint216"
            },
            {
              "internalType": "uint256",
              "name": "size",
              "type": "uint256"
            },
            {
              "internalType": "uint256",
              "name": "collateral",
              "type": "uint256"
            },
            {
              "internalType": "uint256",
              "name": "averagePrice",
              "type": "uint256"
            },
            {
              "internalType": "int256",
              "name": "entryFundingRate",
              "type": "int256"
            },
            {
              "internalType": "int256",
              "name": "realisedPnl",
              "type": "int256"
            },
            {
              "internalType": "uint256",
              "name": "extra0",
              "type": "uint256"
            },
            {
              "internalType": "uint256",
              "name": "extra1",
              "type": "uint256"
            },
            {
              "internalType": "uint256",
              "name": "extra2",
              "type": "uint256"
            }
          ],
          "internalType": "struct Position.Props",
          "name": "",
          "type": "tuple"
        }
      ],
      "stateMutability": "view",
      "type": "function"
    },
    {
      "inputs": [
        {
          "internalType": "bool",
          "name": "isLong",
          "type": "bool"
        }
      ],
      "name": "getPositionCount",
      "outputs": [
        {
          "internalType": "uint256",
          "name": "",
          "type": "uint256"
        }
      ],
      "stateMutability": "view",
      "type": "function"
    },
    {
      "inputs": [
        {
          "internalType": "uint256",
          "name": "start",
          "type": "uint256"
        },
        {
          "internalType": "uint256",
          "name": "end",
          "type": "uint256"
        },
        {
          "internalType": "bool",
          "name": "isLong",
          "type": "bool"
        }
      ],
      "name": "getPositionKeys",
      "outputs": [
        {
          "internalType": "address[]",
          "name": "",
          "type": "address[]"
        }
      ],
      "stateMutability": "view",
      "type": "function"
    },
    {
      "inputs": [
        {
          "internalType": "address",
          "name": "account",
          "type": "address"
        }
      ],
      "name": "getPositions",
      "outputs": [
        {
          "components": [
            {
              "internalType": "address",
              "name": "market",
              "type": "address"
            },
            {
              "internalType": "bool",
              "name": "isLong",
              "type": "bool"
            },
            {
              "internalType": "uint32",
              "name": "lastTime",
              "type": "uint32"
            },
            {
              "internalType": "uint216",
              "name": "extra3",
              "type": "uint216"
            },
            {
              "internalType": "uint256",
              "name": "size",
              "type": "uint256"
            },
            {
              "internalType": "uint256",
              "name": "collateral",
              "type": "uint256"
            },
            {
              "internalType": "uint256",
              "name": "averagePrice",
              "type": "uint256"
            },
            {
              "internalType": "int256",
              "name": "entryFundingRate",
              "type": "int256"
            },
            {
              "internalType": "int256",
              "name": "realisedPnl",
              "type": "int256"
            },
            {
              "internalType": "uint256",
              "name": "extra0",
              "type": "uint256"
            },
            {
              "internalType": "uint256",
              "name": "extra1",
              "type": "uint256"
            },
            {
              "internalType": "uint256",
              "name": "extra2",
              "type": "uint256"
            }
          ],
          "internalType": "struct Position.Props[]",
          "name": "",
          "type": "tuple[]"
        }
      ],
      "stateMutability": "view",
      "type": "function"
    },
    {
      "inputs": [
        {
          "internalType": "bytes32",
          "name": "role",
          "type": "bytes32"
        }
      ],
      "name": "getRoleAdmin",
      "outputs": [
        {
          "internalType": "bytes32",
          "name": "",
          "type": "bytes32"
        }
      ],
      "stateMutability": "view",
      "type": "function"
    },
    {
      "inputs": [
        {
          "internalType": "address",
          "name": "_account",
          "type": "address"
        }
      ],
      "name": "grantControllerRoleByMarketManager",
      "outputs": [],
      "stateMutability": "nonpayable",
      "type": "function"
    },
    {
      "inputs": [
        {
          "internalType": "bytes32",
          "name": "role",
          "type": "bytes32"
        },
        {
          "internalType": "address",
          "name": "account",
          "type": "address"
        }
      ],
      "name": "grantRole",
      "outputs": [],
      "stateMutability": "nonpayable",
      "type": "function"
    },
    {
      "inputs": [
        {
          "internalType": "bytes32",
          "name": "role",
          "type": "bytes32"
        },
        {
          "internalType": "address",
          "name": "account",
          "type": "address"
        }
      ],
      "name": "hasRole",
      "outputs": [
        {
          "internalType": "bool",
          "name": "",
          "type": "bool"
        }
      ],
      "stateMutability": "view",
      "type": "function"
    },
    {
      "inputs": [
        {
          "internalType": "address",
          "name": "account",
          "type": "address"
        },
        {
          "internalType": "int256",
          "name": "collateralDelta",
          "type": "int256"
        },
        {
          "internalType": "uint256",
          "name": "sizeDelta",
          "type": "uint256"
        },
        {
          "internalType": "uint256",
          "name": "markPrice",
          "type": "uint256"
        },
        {
          "internalType": "int256",
          "name": "fundingRate",
          "type": "int256"
        },
        {
          "internalType": "bool",
          "name": "isLong",
          "type": "bool"
        }
      ],
      "name": "increasePosition",
      "outputs": [
        {
          "components": [
            {
              "internalType": "address",
              "name": "market",
              "type": "address"
            },
            {
              "internalType": "bool",
              "name": "isLong",
              "type": "bool"
            },
            {
              "internalType": "uint32",
              "name": "lastTime",
              "type": "uint32"
            },
            {
              "internalType": "uint216",
              "name": "extra3",
              "type": "uint216"
            },
            {
              "internalType": "uint256",
              "name": "size",
              "type": "uint256"
            },
            {
              "internalType": "uint256",
              "name": "collateral",
              "type": "uint256"
            },
            {
              "internalType": "uint256",
              "name": "averagePrice",
              "type": "uint256"
            },
            {
              "internalType": "int256",
              "name": "entryFundingRate",
              "type": "int256"
            },
            {
              "internalType": "int256",
              "name": "realisedPnl",
              "type": "int256"
            },
            {
              "internalType": "uint256",
              "name": "extra0",
              "type": "uint256"
            },
            {
              "internalType": "uint256",
              "name": "extra1",
              "type": "uint256"
            },
            {
              "internalType": "uint256",
              "name": "extra2",
              "type": "uint256"
            }
          ],
          "internalType": "struct Position.Props",
          "name": "result",
          "type": "tuple"
        }
      ],
      "stateMutability": "nonpayable",
      "type": "function"
    },
    {
      "inputs": [
        {
          "internalType": "address",
          "name": "marketAddr",
          "type": "address"
        }
      ],
      "name": "initialize",
      "outputs": [],
      "stateMutability": "nonpayable",
      "type": "function"
    },
    {
      "inputs": [
        {
          "internalType": "address",
          "name": "account",
          "type": "address"
        },
        {
          "internalType": "uint256",
          "name": "markPrice",
          "type": "uint256"
        },
        {
          "internalType": "bool",
          "name": "isLong",
          "type": "bool"
        }
      ],
      "name": "liquidatePosition",
      "outputs": [
        {
          "components": [
            {
              "internalType": "address",
              "name": "market",
              "type": "address"
            },
            {
              "internalType": "bool",
              "name": "isLong",
              "type": "bool"
            },
            {
              "internalType": "uint32",
              "name": "lastTime",
              "type": "uint32"
            },
            {
              "internalType": "uint216",
              "name": "extra3",
              "type": "uint216"
            },
            {
              "internalType": "uint256",
              "name": "size",
              "type": "uint256"
            },
            {
              "internalType": "uint256",
              "name": "collateral",
              "type": "uint256"
            },
            {
              "internalType": "uint256",
              "name": "averagePrice",
              "type": "uint256"
            },
            {
              "internalType": "int256",
              "name": "entryFundingRate",
              "type": "int256"
            },
            {
              "internalType": "int256",
              "name": "realisedPnl",
              "type": "int256"
            },
            {
              "internalType": "uint256",
              "name": "extra0",
              "type": "uint256"
            },
            {
              "internalType": "uint256",
              "name": "extra1",
              "type": "uint256"
            },
            {
              "internalType": "uint256",
              "name": "extra2",
              "type": "uint256"
            }
          ],
          "internalType": "struct Position.Props",
          "name": "result",
          "type": "tuple"
        }
      ],
      "stateMutability": "nonpayable",
      "type": "function"
    },
    {
      "inputs": [],
      "name": "longStore",
      "outputs": [
        {
          "internalType": "contract PositionStore",
          "name": "",
          "type": "address"
        }
      ],
      "stateMutability": "view",
      "type": "function"
    },
    {
      "inputs": [],
      "name": "market",
      "outputs": [
        {
          "internalType": "address",
          "name": "",
          "type": "address"
        }
      ],
      "stateMutability": "view",
      "type": "function"
    },
    {
      "inputs": [],
      "name": "owner",
      "outputs": [
        {
          "internalType": "address",
          "name": "",
          "type": "address"
        }
      ],
      "stateMutability": "view",
      "type": "function"
    },
    {
      "inputs": [],
      "name": "renounceOwnership",
      "outputs": [],
      "stateMutability": "nonpayable",
      "type": "function"
    },
    {
      "inputs": [
        {
          "internalType": "bytes32",
          "name": "",
          "type": "bytes32"
        },
        {
          "internalType": "address",
          "name": "",
          "type": "address"
        }
      ],
      "name": "renounceRole",
      "outputs": [],
      "stateMutability": "nonpayable",
      "type": "function"
    },
    {
      "inputs": [
        {
          "internalType": "bytes32",
          "name": "role",
          "type": "bytes32"
        },
        {
          "internalType": "address",
          "name": "account",
          "type": "address"
        }
      ],
      "name": "revokeRole",
      "outputs": [],
      "stateMutability": "nonpayable",
      "type": "function"
    },
    {
      "inputs": [],
      "name": "shortStore",
      "outputs": [
        {
          "internalType": "contract PositionStore",
          "name": "",
          "type": "address"
        }
      ],
      "stateMutability": "view",
      "type": "function"
    },
    {
      "inputs": [
        {
          "internalType": "bytes4",
          "name": "interfaceId",
          "type": "bytes4"
        }
      ],
      "name": "supportsInterface",
      "outputs": [
        {
          "internalType": "bool",
          "name": "",
          "type": "bool"
        }
      ],
      "stateMutability": "view",
      "type": "function"
    },
    {
      "inputs": [
        {
          "internalType": "address",
          "name": "to",
          "type": "address"
        }
      ],
      "name": "transferAdmin",
      "outputs": [],
      "stateMutability": "nonpayable",
      "type": "function"
    },
    {
      "inputs": [
        {
          "internalType": "address",
          "name": "newOwner",
          "type": "address"
        }
      ],
      "name": "transferOwnership",
      "outputs": [],
      "stateMutability": "nonpayable",
      "type": "function"
    }
  ],
  "bytecode": {
    "object": "0x60806040523480156200001157600080fd5b50604051620042e8380380620042e883398101604081905262000034916200026c565b80620000403362000130565b62000056816200018260201b62000eca1760201c565b5080600160405162000068906200025e565b6001600160a01b03909216825215156020820152604001604051809103906000f0801580156200009c573d6000803e3d6000fd5b50600460006101000a8154816001600160a01b0302191690836001600160a01b03160217905550806000604051620000d4906200025e565b6001600160a01b03909216825215156020820152604001604051809103906000f08015801562000108573d6000803e3d6000fd5b50600580546001600160a01b0319166001600160a01b0392909216919091179055506200029e565b600180546001600160a01b038381166001600160a01b0319831681179093556040519116919082907f8be0079c531659141344cd1fd0a4f28419497f9722a3daafe3b4186f6b6457e090600090a35050565b42600255620001913362000130565b6200019e600033620001ae565b620001ab600082620001ae565b50565b620001ba8282620001be565b5050565b6000828152602081815260408083206001600160a01b038516845290915290205460ff16620001ba576000828152602081815260408083206001600160a01b03851684529091529020805460ff191660011790556200021a3390565b6001600160a01b0316816001600160a01b0316837f2f8788117e7eff1d82e926ec794901d17c78024a50270940304540a733656f0d60405160405180910390a45050565b611af280620027f683390190565b6000602082840312156200027f57600080fd5b81516001600160a01b03811681146200029757600080fd5b9392505050565b61254880620002ae6000396000f3fe608060405234801561001057600080fd5b50600436106101c45760003560e01c80638da5cb5b116100f9578063c4d66de811610097578063e62c0edf11610071578063e62c0edf146103f2578063f115e8b514610405578063f2fde38b14610418578063f3ec823d1461042b57600080fd5b8063c4d66de8146103b9578063d547741f146103cc578063dd16feac146103df57600080fd5b8063a1838612116100d3578063a18386121461036b578063a217fddf1461037e578063b444f8ea14610386578063bc95baad1461039957600080fd5b80638da5cb5b146103275780638dd3fde31461033857806391d148541461035857600080fd5b80633eeb530e116101665780637fe4a698116101405780637fe4a698146102e657806380f55605146102f95780638749694a1461030c5780638b3c1af61461031457600080fd5b80633eeb530e146102ab578063715018a6146102cb57806375829def146102d357600080fd5b8063248a9ca3116101a2578063248a9ca31461023d5780632ca6d2c0146102605780632f2ff15d1461028857806336568abe1461029d57600080fd5b806301ffc9a7146101c957806314605472146101f15780631aa2e3901461021c575b600080fd5b6101dc6101d7366004611c8a565b61043e565b60405190151581526020015b60405180910390f35b600554610204906001600160a01b031681565b6040516001600160a01b0390911681526020016101e8565b61022f61022a366004611cb4565b610475565b6040519081526020016101e8565b61022f61024b366004611cd6565b60009081526020819052604090206001015490565b61027361026e366004611d04565b6104a2565b604080519283526020830191909152016101e8565b61029b610296366004611d21565b6104d6565b005b61029b6101c4366004611d21565b6102be6102b9366004611d04565b610500565b6040516101e89190611dfa565b61029b610621565b61029b6102e1366004611d04565b610635565b61029b6102f4366004611d04565b6106ae565b600354610204906001600160a01b031681565b6102736106d8565b61022f610322366004611e57565b6107c4565b6001546001600160a01b0316610204565b61034b610346366004611e74565b610855565b6040516101e89190611ead565b6101dc610366366004611d21565b6108e4565b600454610204906001600160a01b031681565b61022f600081565b61022f610394366004611eee565b61090d565b6103ac6103a7366004611eee565b610982565b6040516101e89190611f25565b61029b6103c7366004611d04565b610997565b61029b6103da366004611d21565b610b39565b6103ac6103ed366004611eee565b610b5e565b6103ac610400366004611f34565b610c59565b6103ac610413366004611f8a565b610c85565b61029b610426366004611d04565b610dd6565b61022f610439366004611fe8565b610e4f565b60006001600160e01b03198216637965db0b60e01b148061046f57506301ffc9a760e01b6001600160e01b03198316145b92915050565b600080610483846001610eed565b9050610490836000610eed565b61049a9082612048565b949350505050565b60008060006104b2846001610f35565b905060006104c1856000610f35565b60809283015192015191959194509092505050565b6000828152602081905260409020600101546104f181610fd1565b6104fb8383610fdb565b505050565b60606000610511836000600161105f565b905060006105218460008061105f565b90506000808360800151111561053f578061053b81612070565b9150505b608082015115610557578061055381612070565b9150505b60008167ffffffffffffffff81111561057257610572612089565b6040519080825280602002602001820160405280156105ab57816020015b610598611c0f565b8152602001906001900390816105905790505b509050811561061857608084015160009250156105ef57838183815181106105d5576105d561209f565b602002602001018190525081806105eb90612070565b9250505b608083015115610618578281838151811061060c5761060c61209f565b60200260200101819052505b95945050505050565b6106296110c7565b6106336000611121565b565b600061064081610fd1565b6001600160a01b03821661068b5760405162461bcd60e51b815260206004820152600d60248201526c217a65726f206164647265737360981b60448201526064015b60405180910390fd5b610696600083611173565b61069f82611121565b6106aa60003361117d565b5050565b7f8d1089725c0dc266707fa6207730fb801dcd03108bfed7a21099bd303651d2b76101c481610fd1565b6004805460408051630f7114df60e11b8152905160009384936001600160a01b031692631ee229be92818301926020928290030181865afa158015610721573d6000803e3d6000fd5b505050506040513d601f19601f8201168201806040525081019061074591906120b5565b600560009054906101000a90046001600160a01b03166001600160a01b0316631ee229be6040518163ffffffff1660e01b8152600401602060405180830381865afa158015610798573d6000803e3d6000fd5b505050506040513d601f19601f820116820180604052508101906107bc91906120b5565b915091509091565b600080826107dd576005546001600160a01b03166107ea565b6004546001600160a01b03165b9050806001600160a01b031663816834766040518163ffffffff1660e01b8152600401602060405180830381865afa15801561082a573d6000803e3d6000fd5b505050506040513d601f19601f8201168201806040525081019061084e91906120b5565b9392505050565b6060838310156108b25760405162461bcd60e51b815260206004820152602260248201527f706f736974696f6e426f6f6b3a20696e76616c69642072616e676520706172616044820152616d7360f01b6064820152608401610682565b6000826108ca576005546001600160a01b03166108d7565b6004546001600160a01b03165b90506106188186866111e2565b6000918252602082815260408084206001600160a01b0393909316845291905290205460ff1690565b60006109266000805160206124f3833981519152610fd1565b60006109328584610f35565b90508060a00151841115610948578060a0015193505b610950611c0f565b610962868660008560e00151886112e8565b90508060a001518260a0015161097891906120ce565b9695505050505050565b61098a611c0f565b600061061885858561105f565b600154600160a81b900460ff16158080156109bd575060018054600160a01b900460ff16105b806109dd5750303b1580156109dd575060018054600160a01b900460ff16145b610a405760405162461bcd60e51b815260206004820152602e60248201527f496e697469616c697a61626c653a20636f6e747261637420697320616c72656160448201526d191e481a5b9a5d1a585b1a5e995960921b6064820152608401610682565b6001805460ff60a01b1916600160a01b1790558015610a6d576001805460ff60a81b1916600160a81b1790555b6001600160a01b038216610abc5760405162461bcd60e51b8152602060048201526016602482015275696e76616c6964206d61726b6574206164647265737360501b6044820152606401610682565b600380546001600160a01b0319166001600160a01b038416179055610aef6000805160206124f383398151915283610fdb565b80156106aa576001805460ff60a81b191681556040519081527f7f26b83ff96e1f2b6a682f133852f6798a09c465da95921460cefb38474024989060200160405180910390a15050565b600082815260208190526040902060010154610b5481610fd1565b6104fb838361117d565b610b66611c0f565b610b7d6000805160206124f3833981519152610fd1565b6000610b898584610f35565b9050610b988160800151151590565b610bf25760405162461bcd60e51b815260206004820152602560248201527f706f736974696f6e426f6f6b3a20706f736974696f6e20646f6573206e6f7420604482015264195e1a5cdd60da1b6064820152608401610682565b8315610c2a57600080610c0583876114c2565b91509150600082610c1e57610c19826120e1565b610c20565b815b6101008601525050505b610c3e858260a001518360800151866114de565b6080808201519083015260a090810151908201529392505050565b610c61611c0f565b610c786000805160206124f3833981519152610fd1565b61097886868686866112e8565b610c8d611c0f565b610ca46000805160206124f3833981519152610fd1565b6000610cb08884610f35565b90508060800151600003610cc65760c081018590525b60008160800151118015610cda5750600086115b15610d2e57600080610cec83886114c2565b9092509050610cfe8389898486611589565b60c0840152600082610d1857610d13826120e1565b610d1a565b815b61010086015250505060c080820151908301525b610d4e87610d3f8360a00151611605565b610d499190612048565b611632565b60a082015260e081018490526080810151610d6a9087906120fd565b6080820152821515602082015263ffffffff42166040820152610d8c81611684565b610da85760405162461bcd60e51b815260040161068290612110565b610db888848989896001876116ba565b6080808201519083015260a090810151908201529695505050505050565b610dde6110c7565b6001600160a01b038116610e435760405162461bcd60e51b815260206004820152602660248201527f4f776e61626c653a206e6577206f776e657220697320746865207a65726f206160448201526564647265737360d01b6064820152608401610682565b610e4c81611121565b50565b600080610e5c8684610f35565b90508060800151600003610e7457600091505061049a565b600080610e8183876114c2565b9150915086600014610ea9576080830151610e9c8289612147565b610ea6919061215e565b90505b81610ebc57610eb7816120e1565b610ebe565b805b98975050505050505050565b42600255610ed733611121565b610ee2600033611173565b610e4c600082611173565b600080610ef983611760565b90508060800151600003610f1157600091505061046f565b600080610f1e83876114c2565b915091508161061857610f30816120e1565b610978565b610f3d611c0f565b600082610f55576005546001600160a01b0316610f62565b6004546001600160a01b03165b6040516330af0bbf60e21b81526001600160a01b0386811660048301529192509082169063c2bc2efc9060240161018060405180830381865afa158015610fad573d6000803e3d6000fd5b505050506040513d601f19601f8201168201806040525081019061049a9190612221565b610e4c81336117f2565b610fe582826108e4565b6106aa576000828152602081815260408083206001600160a01b03851684529091529020805460ff1916600117905561101b3390565b6001600160a01b0316816001600160a01b0316837f2f8788117e7eff1d82e926ec794901d17c78024a50270940304540a733656f0d60405160405180910390a45050565b611067611c0f565b60006110738584610f35565b90508360000361108457905061084e565b60808101511561049a5760008061109b83876114c2565b915091506000826110b4576110af826120e1565b6110b6565b815b610100850152505050949350505050565b6001546001600160a01b031633146106335760405162461bcd60e51b815260206004820181905260248201527f4f776e61626c653a2063616c6c6572206973206e6f7420746865206f776e65726044820152606401610682565b600180546001600160a01b038381166001600160a01b0319831681179093556040519116919082907f8be0079c531659141344cd1fd0a4f28419497f9722a3daafe3b4186f6b6457e090600090a35050565b6106aa8282610fdb565b61118782826108e4565b156106aa576000828152602081815260408083206001600160a01b0385168085529252808320805460ff1916905551339285917ff6391f5c32d9c69d2a47ea670b442974b53935d1edc7fd64eb21e047a839171b9190a45050565b60606000846001600160a01b031663816834766040518163ffffffff1660e01b8152600401602060405180830381865afa158015611224573d6000803e3d6000fd5b505050506040513d601f19601f8201168201806040525081019061124891906120b5565b90508060000361126857505060408051600081526020810190915261084e565b80831115611274578092505b604051637f497d9760e01b815260048101859052602481018490526001600160a01b03861690637f497d9790604401600060405180830381865afa1580156112c0573d6000803e3d6000fd5b505050506040513d6000823e601f3d908101601f1916820160405261061891908101906122d7565b6112f0611c0f565b60006112fc8784610f35565b90504263ffffffff16816040015163ffffffff160361134d5760405162461bcd60e51b815260206004820152600d60248201526c70623a73616d6520626c6f636b60981b6044820152606401610682565b61135681611684565b6113725760405162461bcd60e51b815260040161068290612110565b858160a0015110156113c65760405162461bcd60e51b815260206004820181905260248201527f706f736974696f6e426f6f6b3a20696e76616c696420636f6c6c61746572616c6044820152606401610682565b848160800151101561141a5760405162461bcd60e51b815260206004820152601a60248201527f706f736974696f6e426f6f6b3a20696e76616c69642073697a650000000000006044820152606401610682565b848160800151146114ac5760e08101849052608081015161143c9086906120ce565b608082015260a08101516114519087906120ce565b60a082015261145f81611684565b61147b5760405162461bcd60e51b815260040161068290612110565b611493878461148989611605565b88600080876116ba565b6080808201519083015260a080820151908301526114b8565b6114b8878787866114de565b5095945050505050565b60008080806114d1868661184b565b9097909650945050505050565b60006114f76114ec85611605565b8460008560006118f9565b9050600082611511576005546001600160a01b031661151e565b6004546001600160a01b03165b6040516305a02ac360e31b81529091506001600160a01b03821690632d0156189061154f908990869060040161237d565b600060405180830381600087803b15801561156957600080fd5b505af115801561157d573d6000803e3d6000fd5b50505050505050505050565b60008085876080015161159c91906120fd565b905060008760200151156115cf57836115be576115b985836120ce565b6115c8565b6115c885836120fd565b90506115f0565b836115e3576115de85836120fd565b6115ed565b6115ed85836120ce565b90505b806115fb8388612147565b610ebe919061215e565b60006001600160ff1b0382111561162e5760405162461bcd60e51b81526004016106829061239b565b5090565b60008082121561162e5760405162461bcd60e51b815260206004820181905260248201527f53616665436173743a2076616c7565206d75737420626520706f7369746976656044820152606401610682565b6000816080015160000361169a57506000919050565b8160a00151826080015110156116b257506000919050565b506001919050565b60006116c98686868a876118f9565b90506000876116e3576005546001600160a01b03166116f0565b6004546001600160a01b03165b60405163b7ed135760e01b81529091506001600160a01b0382169063b7ed135790611723908c90879087906004016123e3565b600060405180830381600087803b15801561173d57600080fd5b505af1158015611751573d6000803e3d6000fd5b50505050505050505050505050565b611768611c0f565b600082611780576005546001600160a01b031661178d565b6004546001600160a01b03165b9050806001600160a01b0316639027b59e6040518163ffffffff1660e01b815260040161018060405180830381865afa1580156117ce573d6000803e3d6000fd5b505050506040513d601f19601f8201168201806040525081019061084e9190612221565b6117fc82826108e4565b6106aa5761180981611a02565b611814836020611a14565b604051602001611825929190612433565b60408051601f198184030181529082905262461bcd60e51b8252610682916004016124a8565b6000806000838560c001511161186f5760c085015161186a90856120ce565b61187f565b838560c0015161187f91906120ce565b905060008560c001518287608001516118989190612147565b6118a2919061215e565b90506001600160ff1b038111156118cb5760405162461bcd60e51b81526004016106829061239b565b60008660200151156118e4575060c086015185116118ee565b858760c001511190505b969095509350505050565b611901611c0f565b600061190c84611760565b905082156119c6576000611921828888611bb0565b9050606481116119735760405162461bcd60e51b815260206004820152601a60248201527f70623a696e76616c696420676c6f62616c20706f736974696f6e0000000000006044820152606401610682565b60c0820181905260808201805188919061198e9083906120fd565b90525060a08201516119a5908990610d3f90611605565b60a083015250831515602082015263ffffffff421660408201529050610618565b85816080018181516119d891906120ce565b9052506119e487611632565b8160a0018181516119f591906120ce565b9052509695505050505050565b606061046f6001600160a01b03831660145b60606000611a23836002612147565b611a2e9060026120fd565b67ffffffffffffffff811115611a4657611a46612089565b6040519080825280601f01601f191660200182016040528015611a70576020820181803683370190505b509050600360fc1b81600081518110611a8b57611a8b61209f565b60200101906001600160f81b031916908160001a905350600f60fb1b81600181518110611aba57611aba61209f565b60200101906001600160f81b031916908160001a9053506000611ade846002612147565b611ae99060016120fd565b90505b6001811115611b61576f181899199a1a9b1b9c1cb0b131b232b360811b85600f1660108110611b1d57611b1d61209f565b1a60f81b828281518110611b3357611b3361209f565b60200101906001600160f81b031916908160001a90535060049490941c93611b5a816124db565b9050611aec565b50831561084e5760405162461bcd60e51b815260206004820181905260248201527f537472696e67733a20686578206c656e67746820696e73756666696369656e746044820152606401610682565b60008360800151600003611bc557508061084e565b60008460800151118015611bd95750600083115b15611c0557600080611beb86856114c2565b9092509050611bfd8686868486611589565b60c087015250505b50505060c0015190565b60405180610180016040528060006001600160a01b03168152602001600015158152602001600063ffffffff16815260200160006001600160d81b0316815260200160008152602001600081526020016000815260200160008152602001600081526020016000815260200160008152602001600081525090565b600060208284031215611c9c57600080fd5b81356001600160e01b03198116811461084e57600080fd5b60008060408385031215611cc757600080fd5b50508035926020909101359150565b600060208284031215611ce857600080fd5b5035919050565b6001600160a01b0381168114610e4c57600080fd5b600060208284031215611d1657600080fd5b813561084e81611cef565b60008060408385031215611d3457600080fd5b823591506020830135611d4681611cef565b809150509250929050565b80516001600160a01b031682526020810151611d71602084018215159052565b506040810151611d89604084018263ffffffff169052565b506060810151611da460608401826001600160d81b03169052565b506080818101519083015260a0808201519083015260c0808201519083015260e0808201519083015261010080820151908301526101208082015190830152610140808201519083015261016090810151910152565b6020808252825182820181905260009190848201906040850190845b81811015611e3d57611e29838551611d51565b928401926101809290920191600101611e16565b50909695505050505050565b8015158114610e4c57600080fd5b600060208284031215611e6957600080fd5b813561084e81611e49565b600080600060608486031215611e8957600080fd5b83359250602084013591506040840135611ea281611e49565b809150509250925092565b6020808252825182820181905260009190848201906040850190845b81811015611e3d5783516001600160a01b031683529284019291840191600101611ec9565b600080600060608486031215611f0357600080fd5b8335611f0e81611cef565b9250602084013591506040840135611ea281611e49565b610180810161046f8284611d51565b600080600080600060a08688031215611f4c57600080fd5b8535611f5781611cef565b94506020860135935060408601359250606086013591506080860135611f7c81611e49565b809150509295509295909350565b60008060008060008060c08789031215611fa357600080fd5b8635611fae81611cef565b95506020870135945060408701359350606087013592506080870135915060a0870135611fda81611e49565b809150509295509295509295565b60008060008060808587031215611ffe57600080fd5b843561200981611cef565b93506020850135925060408501359150606085013561202781611e49565b939692955090935050565b634e487b7160e01b600052601160045260246000fd5b808201828112600083128015821682158216171561206857612068612032565b505092915050565b60006001820161208257612082612032565b5060010190565b634e487b7160e01b600052604160045260246000fd5b634e487b7160e01b600052603260045260246000fd5b6000602082840312156120c757600080fd5b5051919050565b8181038181111561046f5761046f612032565b6000600160ff1b82016120f6576120f6612032565b5060000390565b8082018082111561046f5761046f612032565b6020808252601e908201527f706f736974696f6e426f6f6b3a20696e76616c696420706f736974696f6e0000604082015260600190565b808202811582820484141761046f5761046f612032565b60008261217b57634e487b7160e01b600052601260045260246000fd5b500490565b604051610180810167ffffffffffffffff811182821017156121a4576121a4612089565b60405290565b604051601f8201601f1916810167ffffffffffffffff811182821017156121d3576121d3612089565b604052919050565b80516121e681611cef565b919050565b80516121e681611e49565b805163ffffffff811681146121e657600080fd5b80516001600160d81b03811681146121e657600080fd5b6000610180828403121561223457600080fd5b61223c612180565b612245836121db565b8152612253602084016121eb565b6020820152612264604084016121f6565b60408201526122756060840161220a565b60608201526080838101519082015260a0808401519082015260c0808401519082015260e08084015190820152610100808401519082015261012080840151908201526101408084015190820152610160928301519281019290925250919050565b600060208083850312156122ea57600080fd5b825167ffffffffffffffff8082111561230257600080fd5b818501915085601f83011261231657600080fd5b81518181111561232857612328612089565b8060051b91506123398483016121aa565b818152918301840191848101908884111561235357600080fd5b938501935b83851015610ebe578451925061236d83611cef565b8282529385019390850190612358565b6001600160a01b03831681526101a0810161084e6020830184611d51565b60208082526028908201527f53616665436173743a2076616c756520646f65736e27742066697420696e2061604082015267371034b73a191a9b60c11b606082015260800190565b6001600160a01b038416815261032081016124016020830185611d51565b61049a6101a0830184611d51565b60005b8381101561242a578181015183820152602001612412565b50506000910152565b7f416363657373436f6e74726f6c3a206163636f756e742000000000000000000081526000835161246b81601785016020880161240f565b7001034b99036b4b9b9b4b733903937b6329607d1b601791840191820152835161249c81602884016020880161240f565b01602801949350505050565b60208152600082518060208401526124c781604085016020870161240f565b601f01601f19169190910160400192915050565b6000816124ea576124ea612032565b50600019019056fecb58d6d985142a614029cdf01861b4fe094d5919a47e69b8310dc4093d9d6ad0a26469706673582212209c4a1dd7128623ef5eb3d5e4d8cf43ef6d6454f6863fe0552fed29f841f9b2e664736f6c6343000811003360a06040523480156200001157600080fd5b5060405162001af238038062001af28339810160408190526200003491620002aa565b816200004033620000b1565b62000056816200010360201b62000b471760201c565b50600380546001600160a01b031916339081179091558115156080526200009f907fcb58d6d985142a614029cdf01861b4fe094d5919a47e69b8310dc4093d9d6ad0906200012f565b620000a9620001d0565b5050620002f8565b600180546001600160a01b038381166001600160a01b0319831681179093556040519116919082907f8be0079c531659141344cd1fd0a4f28419497f9722a3daafe3b4186f6b6457e090600090a35050565b426002556200011233620000b1565b6200011f6000336200029e565b6200012c6000826200029e565b50565b6000828152602081815260408083206001600160a01b038516845290915290205460ff16620001cc576000828152602081815260408083206001600160a01b03851684529091529020805460ff191660011790556200018b3390565b6001600160a01b0316816001600160a01b0316837f2f8788117e7eff1d82e926ec794901d17c78024a50270940304540a733656f0d60405160405180910390a45b5050565b600154600160a81b900460ff16156200023f5760405162461bcd60e51b815260206004820152602760248201527f496e697469616c697a61626c653a20636f6e747261637420697320696e697469604482015266616c697a696e6760c81b606482015260840160405180910390fd5b600154600160a01b900460ff908116146200029c576001805460ff60a01b191660ff60a01b17905560405160ff81527f7f26b83ff96e1f2b6a682f133852f6798a09c465da95921460cefb38474024989060200160405180910390a15b565b620001cc82826200012f565b60008060408385031215620002be57600080fd5b82516001600160a01b0381168114620002d657600080fd5b60208401519092508015158114620002ed57600080fd5b809150509250929050565b6080516117de62000314600039600061019101526117de6000f3fe608060405234801561001057600080fd5b506004361061014d5760003560e01c80637fe4a698116100c3578063a217fddf1161007c578063a217fddf146102d5578063ac0b05a6146102dd578063b7ed1357146102f0578063c2bc2efc14610303578063d547741f14610316578063f2fde38b1461032957600080fd5b80637fe4a6981461025a578063816834761461026d5780638d49701d146102755780638da5cb5b146102885780639027b59e146102ad57806391d14854146102c257600080fd5b80632f2ff15d116101155780632f2ff15d146101eb57806336568abe146101fe5780635dbe47e81461020c578063715018a61461021f57806375829def146102275780637f497d971461023a57600080fd5b806301ffc9a7146101525780631ee229be1461017a578063202a61a11461018c578063248a9ca3146101b35780632d015618146101d6575b600080fd5b610165610160366004611231565b61033c565b60405190151581526020015b60405180910390f35b6009545b604051908152602001610171565b6101657f000000000000000000000000000000000000000000000000000000000000000081565b61017e6101c136600461125b565b60009081526020819052604090206001015490565b6101e96101e43660046112a2565b610373565b005b6101e96101f93660046112d9565b610655565b6101e961014d3660046112d9565b61016561021a366004611309565b61067f565b6101e961068c565b6101e9610235366004611309565b6106a0565b61024d610248366004611326565b610714565b6040516101719190611348565b6101e9610268366004611309565b610729565b61017e610753565b6101e9610283366004611309565b610764565b6001546001600160a01b03165b6040516001600160a01b039091168152602001610171565b6102b5610870565b6040516101719190611395565b6101656102d03660046112d9565b610910565b61017e600081565b600354610295906001600160a01b031681565b6101e96102fe36600461144c565b610939565b6102b5610311366004611309565b6109e2565b6101e96103243660046112d9565b610aa9565b6101e9610337366004611309565b610ace565b60006001600160e01b03198216637965db0b60e01b148061036d57506301ffc9a760e01b6001600160e01b03198316145b92915050565b61038a600080516020611789833981519152610b6a565b6000610397600584610b74565b9050806103eb5760405162461bcd60e51b815260206004820152601760248201527f706f736974696f6e20646f6573206e6f7420657869737400000000000000000060448201526064015b60405180910390fd5b8160076103f882826114e3565b905050600060046000856001600160a01b03166001600160a01b03168152602001908152602001600020604051806101800160405290816000820160009054906101000a90046001600160a01b03166001600160a01b03166001600160a01b031681526020016000820160149054906101000a900460ff161515151581526020016000820160159054906101000a900463ffffffff1663ffffffff1663ffffffff1681526020016001820160009054906101000a90046001600160d81b03166001600160d81b03166001600160d81b0316815260200160028201548152602001600382015481526020016004820154815260200160058201548152602001600682015481526020016007820154815260200160088201548152602001600982015481525050905060046000856001600160a01b03166001600160a01b03168152602001908152602001600020600080820160006101000a8154906001600160a01b0302191690556000820160146101000a81549060ff02191690556000820160156101000a81549063ffffffff02191690556001820160006101000a8154906001600160d81b0302191690556002820160009055600382016000905560048201600090556005820160009055600682016000905560078201600090556008820160009055600982016000905550506105fa846005610b9690919063ffffffff16565b50836001600160a01b03167f20b3ac24c835264e655c493af7b3db37ff78a0f358627f0de89832abc7e1deca82608001518360a00151604051610647929190918252602082015260400190565b60405180910390a250505050565b60008281526020819052604090206001015461067081610b6a565b61067a8383610bab565b505050565b600061036d600583610b74565b610694610c2f565b61069e6000610c89565b565b60006106ab81610b6a565b6001600160a01b0382166106f15760405162461bcd60e51b815260206004820152600d60248201526c217a65726f206164647265737360981b60448201526064016103e2565b6106fc600083610cdb565b61070582610c89565b610710600033610ce5565b5050565b606061072260058484610d4a565b9392505050565b7f8d1089725c0dc266707fa6207730fb801dcd03108bfed7a21099bd303651d2b761014d81610b6a565b600061075f6005610e18565b905090565b61078d7f241ecf16d79d0f8dbfb92cbc07fe17840425976cf0667f022fe9877caa831b08610b6a565b6001600160a01b0381166107d55760405162461bcd60e51b815260206004820152600f60248201526e696e76616c6964206164647265737360881b60448201526064016103e2565b6003546001600160a01b03166107f960008051602061178983398151915282610ce5565b600380546001600160a01b0319166001600160a01b03841617905561082c60008051602061178983398151915283610bab565b816001600160a01b0316816001600160a01b03167f2ee38693e6d151b09b65fa20e0e55d8947aeee23c1fa70257ea61af59a8dd2f060405160405180910390a35050565b6108786111b6565b5060408051610180810182526007546001600160a01b0381168252600160a01b810460ff1615156020830152600160a81b900463ffffffff16918101919091526008546001600160d81b031660608201526009546080820152600a5460a0820152600b5460c0820152600c5460e0820152600d54610100820152600e54610120820152600f5461014082015260105461016082015290565b6000918252602082815260408084206001600160a01b0393909316845291905290205460ff1690565b610950600080516020611789833981519152610b6a565b80600761095d82826114e3565b50506001600160a01b0383166000908152600460205260409020829061098382826114e3565b506109919050600584610e22565b50604080516080840135815260a084013560208201526001600160a01b038516917f0d77a4156ff764dade22a2cd25a68a83ff04b20df143bba5d162a6a980702623910160405180910390a2505050565b6109ea6111b6565b506001600160a01b0390811660009081526004602081815260409283902083516101808101855281549586168152600160a01b860460ff16151592810192909252600160a81b90940463ffffffff169281019290925260018301546001600160d81b0316606083015260028301546080830152600383015460a083015282015460c0820152600582015460e082015260068201546101008201526007820154610120820152600882015461014082015260099091015461016082015290565b600082815260208190526040902060010154610ac481610b6a565b61067a8383610ce5565b610ad6610c2f565b6001600160a01b038116610b3b5760405162461bcd60e51b815260206004820152602660248201527f4f776e61626c653a206e6577206f776e657220697320746865207a65726f206160448201526564647265737360d01b60648201526084016103e2565b610b4481610c89565b50565b42600255610b5433610c89565b610b5f600033610cdb565b610b44600082610cdb565b610b448133610e37565b6001600160a01b03811660009081526001830160205260408120541515610722565b6000610722836001600160a01b038416610e90565b610bb58282610910565b610710576000828152602081815260408083206001600160a01b03851684529091529020805460ff19166001179055610beb3390565b6001600160a01b0316816001600160a01b0316837f2f8788117e7eff1d82e926ec794901d17c78024a50270940304540a733656f0d60405160405180910390a45050565b6001546001600160a01b0316331461069e5760405162461bcd60e51b815260206004820181905260248201527f4f776e61626c653a2063616c6c6572206973206e6f7420746865206f776e657260448201526064016103e2565b600180546001600160a01b038381166001600160a01b0319831681179093556040519116919082907f8be0079c531659141344cd1fd0a4f28419497f9722a3daafe3b4186f6b6457e090600090a35050565b6107108282610bab565b610cef8282610910565b15610710576000828152602081815260408083206001600160a01b0385168085529252808320805460ff1916905551339285917ff6391f5c32d9c69d2a47ea670b442974b53935d1edc7fd64eb21e047a839171b9190a45050565b60606000610d5785610e18565b905080831115610d65578092505b6000610d71858561160d565b67ffffffffffffffff811115610d8957610d89611620565b604051908082528060200260200182016040528015610db2578160200160208202803683370190505b509050845b84811015610e0e57610dc98782610f83565b82610dd4888461160d565b81518110610de457610de4611636565b6001600160a01b039092166020928302919091019091015280610e068161164c565b915050610db7565b5095945050505050565b600061036d825490565b6000610722836001600160a01b038416610f8f565b610e418282610910565b61071057610e4e81610fde565b610e59836020610ff0565b604051602001610e6a929190611689565b60408051601f198184030181529082905262461bcd60e51b82526103e2916004016116fe565b60008181526001830160205260408120548015610f79576000610eb460018361160d565b8554909150600090610ec89060019061160d565b9050818114610f2d576000866000018281548110610ee857610ee8611636565b9060005260206000200154905080876000018481548110610f0b57610f0b611636565b6000918252602080832090910192909255918252600188019052604090208390555b8554869080610f3e57610f3e611731565b60019003818190600052602060002001600090559055856001016000868152602001908152602001600020600090556001935050505061036d565b600091505061036d565b6000610722838361118c565b6000818152600183016020526040812054610fd65750815460018181018455600084815260208082209093018490558454848252828601909352604090209190915561036d565b50600061036d565b606061036d6001600160a01b03831660145b60606000610fff836002611747565b61100a90600261175e565b67ffffffffffffffff81111561102257611022611620565b6040519080825280601f01601f19166020018201604052801561104c576020820181803683370190505b509050600360fc1b8160008151811061106757611067611636565b60200101906001600160f81b031916908160001a905350600f60fb1b8160018151811061109657611096611636565b60200101906001600160f81b031916908160001a90535060006110ba846002611747565b6110c590600161175e565b90505b600181111561113d576f181899199a1a9b1b9c1cb0b131b232b360811b85600f16601081106110f9576110f9611636565b1a60f81b82828151811061110f5761110f611636565b60200101906001600160f81b031916908160001a90535060049490941c9361113681611771565b90506110c8565b5083156107225760405162461bcd60e51b815260206004820181905260248201527f537472696e67733a20686578206c656e67746820696e73756666696369656e7460448201526064016103e2565b60008260000182815481106111a3576111a3611636565b9060005260206000200154905092915050565b60405180610180016040528060006001600160a01b03168152602001600015158152602001600063ffffffff16815260200160006001600160d81b0316815260200160008152602001600081526020016000815260200160008152602001600081526020016000815260200160008152602001600081525090565b60006020828403121561124357600080fd5b81356001600160e01b03198116811461072257600080fd5b60006020828403121561126d57600080fd5b5035919050565b6001600160a01b0381168114610b4457600080fd5b6000610180828403121561129c57600080fd5b50919050565b6000806101a083850312156112b657600080fd5b82356112c181611274565b91506112d08460208501611289565b90509250929050565b600080604083850312156112ec57600080fd5b8235915060208301356112fe81611274565b809150509250929050565b60006020828403121561131b57600080fd5b813561072281611274565b6000806040838503121561133957600080fd5b50508035926020909101359150565b6020808252825182820181905260009190848201906040850190845b818110156113895783516001600160a01b031683529284019291840191600101611364565b50909695505050505050565b81516001600160a01b03168152610180810160208301516113ba602084018215159052565b5060408301516113d2604084018263ffffffff169052565b5060608301516113ed60608401826001600160d81b03169052565b506080830151608083015260a083015160a083015260c083015160c083015260e083015160e083015261010080840151818401525061012080840151818401525061014080840151818401525061016080840151818401525092915050565b6000806000610320848603121561146257600080fd5b833561146d81611274565b925061147c8560208601611289565b915061148c856101a08601611289565b90509250925092565b6000813561036d81611274565b60008135801515811461036d57600080fd5b6000813563ffffffff8116811461036d57600080fd5b600081356001600160d81b038116811461036d57600080fd5b61150c6114ef83611495565b82546001600160a01b0319166001600160a01b0391909116178255565b61153961151b602084016114a2565b82805460ff60a01b191691151560a01b60ff60a01b16919091179055565b61156c611548604084016114b4565b82805463ffffffff60a81b191660a89290921b63ffffffff60a81b16919091179055565b61159f61157b606084016114ca565b6001830180546001600160d81b0319166001600160d81b0392909216919091179055565b6080820135600282015560a0820135600382015560c0820135600482015560e0820135600582015561010082013560068201556101208201356007820155610140820135600882015561016082013560098201555050565b634e487b7160e01b600052601160045260246000fd5b8181038181111561036d5761036d6115f7565b634e487b7160e01b600052604160045260246000fd5b634e487b7160e01b600052603260045260246000fd5b60006001820161165e5761165e6115f7565b5060010190565b60005b83811015611680578181015183820152602001611668565b50506000910152565b7f416363657373436f6e74726f6c3a206163636f756e74200000000000000000008152600083516116c1816017850160208801611665565b7001034b99036b4b9b9b4b733903937b6329607d1b60179184019182015283516116f2816028840160208801611665565b01602801949350505050565b602081526000825180602084015261171d816040850160208701611665565b601f01601f19169190910160400192915050565b634e487b7160e01b600052603160045260246000fd5b808202811582820484141761036d5761036d6115f7565b8082018082111561036d5761036d6115f7565b600081611780576117806115f7565b50600019019056fecb58d6d985142a614029cdf01861b4fe094d5919a47e69b8310dc4093d9d6ad0a26469706673582212200713ac4b36ed478c6d97982efcf75c463a43c5cd364de8a8db587a71fd1436e064736f6c63430008110033",
    "linkReferences": {}
  },
  "methodIdentifiers": {
    "DEFAULT_ADMIN_ROLE()": "a217fddf",
    "decreaseCollateralFromCancelInvalidOrder(address,uint256,bool)": "b444f8ea",
    "decreasePosition(address,uint256,uint256,int256,bool)": "e62c0edf",
    "getAccountSize(address)": "2ca6d2c0",
    "getMarketPNL(uint256,uint256)": "1aa2e390",
    "getMarketSizes()": "8749694a",
    "getPNL(address,uint256,uint256,bool)": "f3ec823d",
    "getPosition(address,uint256,bool)": "bc95baad",
    "getPositionCount(bool)": "8b3c1af6",
    "getPositionKeys(uint256,uint256,bool)": "8dd3fde3",
    "getPositions(address)": "3eeb530e",
    "getRoleAdmin(bytes32)": "248a9ca3",
    "grantControllerRoleByMarketManager(address)": "7fe4a698",
    "grantRole(bytes32,address)": "2f2ff15d",
    "hasRole(bytes32,address)": "91d14854",
    "increasePosition(address,int256,uint256,uint256,int256,bool)": "f115e8b5",
    "initialize(address)": "c4d66de8",
    "liquidatePosition(address,uint256,bool)": "dd16feac",
    "longStore()": "a1838612",
    "market()": "80f55605",
    "owner()": "8da5cb5b",
    "renounceOwnership()": "715018a6",
    "renounceRole(bytes32,address)": "36568abe",
    "revokeRole(bytes32,address)": "d547741f",
    "shortStore()": "14605472",
    "supportsInterface(bytes4)": "01ffc9a7",
    "transferAdmin(address)": "75829def",
    "transferOwnership(address)": "f2fde38b"
  },
  "id": 82
}