{
  "abi": [
    {
      "inputs": [],
      "name": "PositionBook",
      "outputs": [
        {
          "internalType": "address",
          "name": "",
          "type": "address"
        }
      ],
      "stateMutability": "view",
      "type": "function"
    },
    {
      "inputs": [
        {
          "internalType": "address",
          "name": "vr",
          "type": "address"
        },
        {
          "internalType": "uint256",
          "name": "amount",
          "type": "uint256"
        }
      ],
      "name": "borrowFromVault",
      "outputs": [],
      "stateMutability": "nonpayable",
      "type": "function"
    },
    {
      "inputs": [],
      "name": "collateralToken",
      "outputs": [
        {
          "internalType": "address",
          "name": "",
          "type": "address"
        }
      ],
      "stateMutability": "view",
      "type": "function"
    },
    {
      "inputs": [
        {
          "internalType": "address",
          "name": "asset",
          "type": "address"
        },
        {
          "internalType": "address",
          "name": "coreVault",
          "type": "address"
        },
        {
          "internalType": "uint256",
          "name": "assets",
          "type": "uint256"
        },
        {
          "internalType": "address",
          "name": "receiver",
          "type": "address"
        }
      ],
      "name": "deposit",
      "outputs": [],
      "stateMutability": "nonpayable",
      "type": "function"
    },
    {
      "inputs": [],
      "name": "getPNL",
      "outputs": [
        {
          "internalType": "int256",
          "name": "",
          "type": "int256"
        }
      ],
      "stateMutability": "view",
      "type": "function"
    },
    {
      "inputs": [],
      "name": "indexToken",
      "outputs": [
        {
          "internalType": "address",
          "name": "",
          "type": "address"
        }
      ],
      "stateMutability": "view",
      "type": "function"
    },
    {
      "inputs": [],
      "name": "marketRouter",
      "outputs": [
        {
          "internalType": "address",
          "name": "",
          "type": "address"
        }
      ],
      "stateMutability": "view",
      "type": "function"
    },
    {
      "inputs": [],
      "name": "marketValid",
      "outputs": [
        {
          "internalType": "address",
          "name": "",
          "type": "address"
        }
      ],
      "stateMutability": "view",
      "type": "function"
    },
    {
      "inputs": [],
      "name": "priceFeed",
      "outputs": [
        {
          "internalType": "address",
          "name": "",
          "type": "address"
        }
      ],
      "stateMutability": "view",
      "type": "function"
    },
    {
      "inputs": [
        {
          "internalType": "address",
          "name": "vr",
          "type": "address"
        },
        {
          "internalType": "uint256",
          "name": "amount",
          "type": "uint256"
        }
      ],
      "name": "repayToVault",
      "outputs": [],
      "stateMutability": "nonpayable",
      "type": "function"
    },
    {
      "inputs": [
        {
          "internalType": "address",
          "name": "token",
          "type": "address"
        }
      ],
      "name": "setCollateralToken",
      "outputs": [],
      "stateMutability": "nonpayable",
      "type": "function"
    },
    {
      "inputs": [
        {
          "internalType": "address",
          "name": "mr",
          "type": "address"
        }
      ],
      "name": "setMarketRouter",
      "outputs": [],
      "stateMutability": "nonpayable",
      "type": "function"
    },
    {
      "inputs": [
        {
          "internalType": "address",
          "name": "_newMv",
          "type": "address"
        }
      ],
      "name": "setMarketValid",
      "outputs": [],
      "stateMutability": "nonpayable",
      "type": "function"
    },
    {
      "inputs": [
        {
          "internalType": "address",
          "name": "pf",
          "type": "address"
        }
      ],
      "name": "setOraclePrice",
      "outputs": [],
      "stateMutability": "nonpayable",
      "type": "function"
    },
    {
      "inputs": [
        {
          "internalType": "address",
          "name": "book",
          "type": "address"
        }
      ],
      "name": "setPositionBook",
      "outputs": [],
      "stateMutability": "nonpayable",
      "type": "function"
    },
    {
      "inputs": [
        {
          "internalType": "address",
          "name": "vr",
          "type": "address"
        }
      ],
      "name": "setVaultRouter",
      "outputs": [],
      "stateMutability": "nonpayable",
      "type": "function"
    },
    {
      "inputs": [
        {
          "internalType": "address",
          "name": "vr",
          "type": "address"
        },
        {
          "internalType": "address",
          "name": "account",
          "type": "address"
        },
        {
          "internalType": "uint256",
          "name": "amount",
          "type": "uint256"
        }
      ],
      "name": "transferToVault",
      "outputs": [],
      "stateMutability": "nonpayable",
      "type": "function"
    },
    {
      "inputs": [
        {
          "internalType": "address",
          "name": "mr",
          "type": "address"
        },
        {
          "internalType": "address",
          "name": "newA",
          "type": "address"
        }
      ],
      "name": "updatePositionBook",
      "outputs": [],
      "stateMutability": "nonpayable",
      "type": "function"
    },
    {
      "inputs": [],
      "name": "vaultRouter",
      "outputs": [
        {
          "internalType": "address",
          "name": "",
          "type": "address"
        }
      ],
      "stateMutability": "view",
      "type": "function"
    }
  ],
  "bytecode": {
    "object": "0x608060405234801561001057600080fd5b506106ef806100206000396000f3fe608060405234801561001057600080fd5b50600436106101215760003560e01c80638d49701d116100ad578063b894300d11610071578063b894300d146102f9578063d12dbde41461030c578063d37c441c1461031f578063e7d015f214610332578063fce0e5ae1461033857600080fd5b80638d49701d1461026457806393a98e6c146102945780639d1764af146102a3578063af44f6b6146102b6578063b2016bd4146102e657600080fd5b806343209174116100f45780634320917414610191578063666181a9146101c1578063741bef1a146101f1578063780e72ff146102045780637dd5da8d1461023457600080fd5b806303ee2295146101265780632c7550c31461013b57806339955ed71461014e5780633bc1f1ed1461017e575b600080fd5b610139610134366004610576565b61034b565b005b6101396101493660046105b2565b6103b2565b61013961015c3660046105dc565b600180546001600160a01b0319166001600160a01b0392909216919091179055565b61013961018c3660046105fe565b610411565b6000546101a4906001600160a01b031681565b6040516001600160a01b0390911681526020015b60405180910390f35b6101396101cf3660046105dc565b600480546001600160a01b0319166001600160a01b0392909216919091179055565b6003546101a4906001600160a01b031681565b6101396102123660046105dc565b600280546001600160a01b0319166001600160a01b0392909216919091179055565b6101396102423660046105dc565b600580546001600160a01b0319166001600160a01b0392909216919091179055565b6101396102723660046105dc565b600080546001600160a01b0319166001600160a01b0392909216919091179055565b604051600081526020016101b8565b6101396102b136600461064b565b6104ff565b6101396102c43660046105dc565b600380546001600160a01b0319166001600160a01b0392909216919091179055565b6004546101a4906001600160a01b031681565b6001546101a4906001600160a01b031681565b6005546101a4906001600160a01b031681565b6002546101a4906001600160a01b031681565b306101a4565b6101396103463660046105b2565b61052d565b6040516344d38fd560e11b81526001600160a01b038381166004830152602482018390528416906389a71faa90604401600060405180830381600087803b15801561039557600080fd5b505af11580156103a9573d6000803e3d6000fd5b50505050505050565b60405163e108262f60e01b8152600481018290526001600160a01b0383169063e108262f906024015b600060405180830381600087803b1580156103f557600080fd5b505af1158015610409573d6000803e3d6000fd5b505050505050565b60405163095ea7b360e01b81526001600160a01b0384811660048301526024820184905285169063095ea7b3906044016020604051808303816000875af1158015610460573d6000803e3d6000fd5b505050506040513d601f19601f82011682018060405250810190610484919061067e565b50604051636e553f6560e01b8152600481018390526001600160a01b038281166024830152841690636e553f65906044016020604051808303816000875af11580156104d4573d6000803e3d6000fd5b505050506040513d601f19601f820116820180604052508101906104f891906106a0565b5050505050565b6040516366b75fb360e11b81526001600160a01b03828116600483015283169063cd6ebf66906024016103db565b6040516318d5dcc360e31b8152600481018290526001600160a01b0383169063c6aee618906024016103db565b80356001600160a01b038116811461057157600080fd5b919050565b60008060006060848603121561058b57600080fd5b6105948461055a565b92506105a26020850161055a565b9150604084013590509250925092565b600080604083850312156105c557600080fd5b6105ce8361055a565b946020939093013593505050565b6000602082840312156105ee57600080fd5b6105f78261055a565b9392505050565b6000806000806080858703121561061457600080fd5b61061d8561055a565b935061062b6020860161055a565b9250604085013591506106406060860161055a565b905092959194509250565b6000806040838503121561065e57600080fd5b6106678361055a565b91506106756020840161055a565b90509250929050565b60006020828403121561069057600080fd5b815180151581146105f757600080fd5b6000602082840312156106b257600080fd5b505191905056fea264697066735822122085bc7353b7078dcb3d3b6e033347851d384032315007f9740cfe06e61f52572664736f6c63430008110033",
    "linkReferences": {}
  },
  "methodIdentifiers": {
    "PositionBook()": "43209174",
    "borrowFromVault(address,uint256)": "fce0e5ae",
    "collateralToken()": "b2016bd4",
    "deposit(address,address,uint256,address)": "3bc1f1ed",
    "getPNL()": "93a98e6c",
    "indexToken()": "e7d015f2",
    "marketRouter()": "d12dbde4",
    "marketValid()": "b894300d",
    "priceFeed()": "741bef1a",
    "repayToVault(address,uint256)": "2c7550c3",
    "setCollateralToken(address)": "666181a9",
    "setMarketRouter(address)": "7dd5da8d",
    "setMarketValid(address)": "39955ed7",
    "setOraclePrice(address)": "af44f6b6",
    "setPositionBook(address)": "8d49701d",
    "setVaultRouter(address)": "780e72ff",
    "transferToVault(address,address,uint256)": "03ee2295",
    "updatePositionBook(address,address)": "9d1764af",
    "vaultRouter()": "d37c441c"
  },
  "id": 42
}