{
  "abi": [
    {
      "inputs": [
        {
          "components": [
            {
              "internalType": "address",
              "name": "market",
              "type": "address"
            },
            {
              "internalType": "uint256",
              "name": "sizeDelta",
              "type": "uint256"
            },
            {
              "internalType": "bool",
              "name": "isLong",
              "type": "bool"
            },
            {
              "internalType": "uint256",
              "name": "globalLongSizes",
              "type": "uint256"
            },
            {
              "internalType": "uint256",
              "name": "globalShortSizes",
              "type": "uint256"
            },
            {
              "internalType": "uint256",
              "name": "userLongSizes",
              "type": "uint256"
            },
            {
              "internalType": "uint256",
              "name": "userShortSizes",
              "type": "uint256"
            },
            {
              "internalType": "uint256",
              "name": "marketLongSizes",
              "type": "uint256"
            },
            {
              "internalType": "uint256",
              "name": "marketShortSizes",
              "type": "uint256"
            },
            {
              "internalType": "uint256",
              "name": "aum",
              "type": "uint256"
            }
          ],
          "internalType": "struct IGlobalValid.ValidParams",
          "name": "params",
          "type": "tuple"
        }
      ],
      "name": "isIncreasePosition",
      "outputs": [
        {
          "internalType": "bool",
          "name": "",
          "type": "bool"
        }
      ],
      "stateMutability": "view",
      "type": "function"
    }
  ],
  "bytecode": {
    "object": "0x608060405234801561001057600080fd5b50610187806100206000396000f3fe608060405234801561001057600080fd5b506004361061002b5760003560e01c806328c7b51014610030575b600080fd5b61004461003e3660046100bc565b50600190565b604051901515815260200160405180910390f35b604051610140810167ffffffffffffffff8111828210171561008a57634e487b7160e01b600052604160045260246000fd5b60405290565b80356001600160a01b03811681146100a757600080fd5b919050565b803580151581146100a757600080fd5b600061014082840312156100cf57600080fd5b6100d7610058565b6100e083610090565b8152602083013560208201526100f8604084016100ac565b6040820152606083013560608201526080830135608082015260a083013560a082015260c083013560c082015260e083013560e0820152610100808401358183015250610120808401358183015250809150509291505056fea264697066735822122065dd6ef8a3bb4852893a67b615d7481f148cf344d1971fd0c0113788f3d80c6b64736f6c63430008110033",
    "linkReferences": {}
  },
  "methodIdentifiers": {
    "isIncreasePosition((address,uint256,bool,uint256,uint256,uint256,uint256,uint256,uint256,uint256))": "28c7b510"
  },
  "id": 40
}