{
  "abi": [
    {
      "inputs": [
        {
          "internalType": "bytes32",
          "name": "key",
          "type": "bytes32"
        }
      ],
      "name": "containsKey",
      "outputs": [
        {
          "internalType": "bool",
          "name": "",
          "type": "bool"
        }
      ],
      "stateMutability": "view",
      "type": "function"
    },
    {
      "inputs": [
        {
          "internalType": "address",
          "name": "account",
          "type": "address"
        }
      ],
      "name": "orderNum",
      "outputs": [
        {
          "internalType": "uint256",
          "name": "",
          "type": "uint256"
        }
      ],
      "stateMutability": "pure",
      "type": "function"
    }
  ],
  "bytecode": {
    "object": "0x608060405234801561001057600080fd5b5060f18061001f6000396000f3fe6080604052348015600f57600080fd5b506004361060325760003560e01c80636a19ffba146037578063f6b102a614605b575b600080fd5b604860423660046075565b50600190565b6040519081526020015b60405180910390f35b6066604236600460a3565b60405190151581526020016052565b600060208284031215608657600080fd5b81356001600160a01b0381168114609c57600080fd5b9392505050565b60006020828403121560b457600080fd5b503591905056fea26469706673582212206c4b09adec23b54211c2a7a6212c8b17af23b38f90481b826005a79bffd36a1b64736f6c63430008110033",
    "linkReferences": {}
  },
  "methodIdentifiers": {
    "containsKey(bytes32)": "f6b102a6",
    "orderNum(address)": "6a19ffba"
  },
  "id": 50
}