{
  "abi": [
    {
      "inputs": [
        {
          "internalType": "uint256",
          "name": "_priceDuration",
          "type": "uint256"
        },
        {
          "internalType": "uint256",
          "name": "_maxPriceUpdateDelay",
          "type": "uint256"
        },
        {
          "internalType": "uint256",
          "name": "_minBlockInterval",
          "type": "uint256"
        },
        {
          "internalType": "uint256",
          "name": "_maxDeviationBasisPoints",
          "type": "uint256"
        }
      ],
      "stateMutability": "nonpayable",
      "type": "constructor"
    },
    {
      "anonymous": false,
      "inputs": [
        {
          "indexed": false,
          "internalType": "uint8",
          "name": "version",
          "type": "uint8"
        }
      ],
      "name": "Initialized",
      "type": "event"
    },
    {
      "anonymous": false,
      "inputs": [
        {
          "indexed": false,
          "internalType": "address",
          "name": "token",
          "type": "address"
        },
        {
          "indexed": false,
          "internalType": "uint256",
          "name": "refPrice",
          "type": "uint256"
        },
        {
          "indexed": false,
          "internalType": "uint256",
          "name": "fastPrice",
          "type": "uint256"
        },
        {
          "indexed": false,
          "internalType": "uint256",
          "name": "cumulativeRefDelta",
          "type": "uint256"
        },
        {
          "indexed": false,
          "internalType": "uint256",
          "name": "cumulativeFastDelta",
          "type": "uint256"
        }
      ],
      "name": "MaxCumulativeDeltaDiffExceeded",
      "type": "event"
    },
    {
      "anonymous": false,
      "inputs": [
        {
          "indexed": true,
          "internalType": "address",
          "name": "previousOwner",
          "type": "address"
        },
        {
          "indexed": true,
          "internalType": "address",
          "name": "newOwner",
          "type": "address"
        }
      ],
      "name": "OwnershipTransferred",
      "type": "event"
    },
    {
      "anonymous": false,
      "inputs": [
        {
          "indexed": false,
          "internalType": "address",
          "name": "token",
          "type": "address"
        },
        {
          "indexed": false,
          "internalType": "uint256",
          "name": "refPrice",
          "type": "uint256"
        },
        {
          "indexed": false,
          "internalType": "uint256",
          "name": "fastPrice",
          "type": "uint256"
        },
        {
          "indexed": false,
          "internalType": "uint256",
          "name": "cumulativeRefDelta",
          "type": "uint256"
        },
        {
          "indexed": false,
          "internalType": "uint256",
          "name": "cumulativeFastDelta",
          "type": "uint256"
        }
      ],
      "name": "PriceData",
      "type": "event"
    },
    {
      "anonymous": false,
      "inputs": [
        {
          "indexed": true,
          "internalType": "bytes32",
          "name": "role",
          "type": "bytes32"
        },
        {
          "indexed": true,
          "internalType": "bytes32",
          "name": "previousAdminRole",
          "type": "bytes32"
        },
        {
          "indexed": true,
          "internalType": "bytes32",
          "name": "newAdminRole",
          "type": "bytes32"
        }
      ],
      "name": "RoleAdminChanged",
      "type": "event"
    },
    {
      "anonymous": false,
      "inputs": [
        {
          "indexed": true,
          "internalType": "bytes32",
          "name": "role",
          "type": "bytes32"
        },
        {
          "indexed": true,
          "internalType": "address",
          "name": "account",
          "type": "address"
        },
        {
          "indexed": true,
          "internalType": "address",
          "name": "sender",
          "type": "address"
        }
      ],
      "name": "RoleGranted",
      "type": "event"
    },
    {
      "anonymous": false,
      "inputs": [
        {
          "indexed": true,
          "internalType": "bytes32",
          "name": "role",
          "type": "bytes32"
        },
        {
          "indexed": true,
          "internalType": "address",
          "name": "account",
          "type": "address"
        },
        {
          "indexed": true,
          "internalType": "address",
          "name": "sender",
          "type": "address"
        }
      ],
      "name": "RoleRevoked",
      "type": "event"
    },
    {
      "anonymous": false,
      "inputs": [
        {
          "indexed": false,
          "internalType": "address",
          "name": "feed",
          "type": "address"
        },
        {
          "indexed": true,
          "internalType": "address",
          "name": "token",
          "type": "address"
        },
        {
          "indexed": false,
          "internalType": "uint256",
          "name": "price",
          "type": "uint256"
        }
      ],
      "name": "UpdatePrice",
      "type": "event"
    },
    {
      "inputs": [],
      "name": "BASIS_POINTS_DIVISOR",
      "outputs": [
        {
          "internalType": "uint256",
          "name": "",
          "type": "uint256"
        }
      ],
      "stateMutability": "view",
      "type": "function"
    },
    {
      "inputs": [],
      "name": "BITMASK_32",
      "outputs": [
        {
          "internalType": "uint256",
          "name": "",
          "type": "uint256"
        }
      ],
      "stateMutability": "view",
      "type": "function"
    },
    {
      "inputs": [],
      "name": "CUMULATIVE_DELTA_PRECISION",
      "outputs": [
        {
          "internalType": "uint256",
          "name": "",
          "type": "uint256"
        }
      ],
      "stateMutability": "view",
      "type": "function"
    },
    {
      "inputs": [],
      "name": "DEFAULT_ADMIN_ROLE",
      "outputs": [
        {
          "internalType": "bytes32",
          "name": "",
          "type": "bytes32"
        }
      ],
      "stateMutability": "view",
      "type": "function"
    },
    {
      "inputs": [],
      "name": "MAX_CUMULATIVE_FAST_DELTA",
      "outputs": [
        {
          "internalType": "uint256",
          "name": "",
          "type": "uint256"
        }
      ],
      "stateMutability": "view",
      "type": "function"
    },
    {
      "inputs": [],
      "name": "MAX_CUMULATIVE_REF_DELTA",
      "outputs": [
        {
          "internalType": "uint256",
          "name": "",
          "type": "uint256"
        }
      ],
      "stateMutability": "view",
      "type": "function"
    },
    {
      "inputs": [],
      "name": "MAX_PRICE_DURATION",
      "outputs": [
        {
          "internalType": "uint256",
          "name": "",
          "type": "uint256"
        }
      ],
      "stateMutability": "view",
      "type": "function"
    },
    {
      "inputs": [],
      "name": "MAX_REF_PRICE",
      "outputs": [
        {
          "internalType": "uint256",
          "name": "",
          "type": "uint256"
        }
      ],
      "stateMutability": "view",
      "type": "function"
    },
    {
      "inputs": [],
      "name": "PRICE_PRECISION",
      "outputs": [
        {
          "internalType": "uint256",
          "name": "",
          "type": "uint256"
        }
      ],
      "stateMutability": "view",
      "type": "function"
    },
    {
      "inputs": [],
      "name": "chainPriceFeed",
      "outputs": [
        {
          "internalType": "address",
          "name": "",
          "type": "address"
        }
      ],
      "stateMutability": "view",
      "type": "function"
    },
    {
      "inputs": [
        {
          "internalType": "address",
          "name": "_token",
          "type": "address"
        }
      ],
      "name": "favorFastPrice",
      "outputs": [
        {
          "internalType": "bool",
          "name": "",
          "type": "bool"
        }
      ],
      "stateMutability": "view",
      "type": "function"
    },
    {
      "inputs": [
        {
          "internalType": "address",
          "name": "_token",
          "type": "address"
        },
        {
          "internalType": "uint256",
          "name": "_refPrice",
          "type": "uint256"
        },
        {
          "internalType": "bool",
          "name": "_maximise",
          "type": "bool"
        }
      ],
      "name": "getPrice",
      "outputs": [
        {
          "internalType": "uint256",
          "name": "",
          "type": "uint256"
        }
      ],
      "stateMutability": "view",
      "type": "function"
    },
    {
      "inputs": [
        {
          "internalType": "address",
          "name": "_token",
          "type": "address"
        }
      ],
      "name": "getPriceData",
      "outputs": [
        {
          "internalType": "uint256",
          "name": "",
          "type": "uint256"
        },
        {
          "internalType": "uint256",
          "name": "",
          "type": "uint256"
        },
        {
          "internalType": "uint256",
          "name": "",
          "type": "uint256"
        },
        {
          "internalType": "uint256",
          "name": "",
          "type": "uint256"
        }
      ],
      "stateMutability": "view",
      "type": "function"
    },
    {
      "inputs": [
        {
          "internalType": "bytes32",
          "name": "role",
          "type": "bytes32"
        }
      ],
      "name": "getRoleAdmin",
      "outputs": [
        {
          "internalType": "bytes32",
          "name": "",
          "type": "bytes32"
        }
      ],
      "stateMutability": "view",
      "type": "function"
    },
    {
      "inputs": [
        {
          "internalType": "address",
          "name": "_account",
          "type": "address"
        }
      ],
      "name": "grantControllerRoleByMarketManager",
      "outputs": [],
      "stateMutability": "nonpayable",
      "type": "function"
    },
    {
      "inputs": [
        {
          "internalType": "bytes32",
          "name": "role",
          "type": "bytes32"
        },
        {
          "internalType": "address",
          "name": "account",
          "type": "address"
        }
      ],
      "name": "grantRole",
      "outputs": [],
      "stateMutability": "nonpayable",
      "type": "function"
    },
    {
      "inputs": [
        {
          "internalType": "bytes32",
          "name": "role",
          "type": "bytes32"
        },
        {
          "internalType": "address",
          "name": "account",
          "type": "address"
        }
      ],
      "name": "hasRole",
      "outputs": [
        {
          "internalType": "bool",
          "name": "",
          "type": "bool"
        }
      ],
      "stateMutability": "view",
      "type": "function"
    },
    {
      "inputs": [],
      "name": "isSpreadEnablede",
      "outputs": [
        {
          "internalType": "bool",
          "name": "",
          "type": "bool"
        }
      ],
      "stateMutability": "view",
      "type": "function"
    },
    {
      "inputs": [],
      "name": "lastUpdatedAt",
      "outputs": [
        {
          "internalType": "uint256",
          "name": "",
          "type": "uint256"
        }
      ],
      "stateMutability": "view",
      "type": "function"
    },
    {
      "inputs": [],
      "name": "lastUpdatedBlock",
      "outputs": [
        {
          "internalType": "uint256",
          "name": "",
          "type": "uint256"
        }
      ],
      "stateMutability": "view",
      "type": "function"
    },
    {
      "inputs": [
        {
          "internalType": "address",
          "name": "",
          "type": "address"
        }
      ],
      "name": "maxCumulativeDeltaDiffs",
      "outputs": [
        {
          "internalType": "uint256",
          "name": "",
          "type": "uint256"
        }
      ],
      "stateMutability": "view",
      "type": "function"
    },
    {
      "inputs": [],
      "name": "maxDeviationBasisPoints",
      "outputs": [
        {
          "internalType": "uint256",
          "name": "",
          "type": "uint256"
        }
      ],
      "stateMutability": "view",
      "type": "function"
    },
    {
      "inputs": [],
      "name": "maxPriceUpdateDelay",
      "outputs": [
        {
          "internalType": "uint256",
          "name": "",
          "type": "uint256"
        }
      ],
      "stateMutability": "view",
      "type": "function"
    },
    {
      "inputs": [],
      "name": "maxTimeDeviation",
      "outputs": [
        {
          "internalType": "uint256",
          "name": "",
          "type": "uint256"
        }
      ],
      "stateMutability": "view",
      "type": "function"
    },
    {
      "inputs": [],
      "name": "minBlockInterval",
      "outputs": [
        {
          "internalType": "uint256",
          "name": "",
          "type": "uint256"
        }
      ],
      "stateMutability": "view",
      "type": "function"
    },
    {
      "inputs": [],
      "name": "owner",
      "outputs": [
        {
          "internalType": "address",
          "name": "",
          "type": "address"
        }
      ],
      "stateMutability": "view",
      "type": "function"
    },
    {
      "inputs": [
        {
          "internalType": "address",
          "name": "",
          "type": "address"
        }
      ],
      "name": "priceData",
      "outputs": [
        {
          "internalType": "uint160",
          "name": "refPrice",
          "type": "uint160"
        },
        {
          "internalType": "uint32",
          "name": "refTime",
          "type": "uint32"
        },
        {
          "internalType": "uint32",
          "name": "cumulativeRefDelta",
          "type": "uint32"
        },
        {
          "internalType": "uint32",
          "name": "cumulativeFastDelta",
          "type": "uint32"
        }
      ],
      "stateMutability": "view",
      "type": "function"
    },
    {
      "inputs": [],
      "name": "priceDataInterval",
      "outputs": [
        {
          "internalType": "uint256",
          "name": "",
          "type": "uint256"
        }
      ],
      "stateMutability": "view",
      "type": "function"
    },
    {
      "inputs": [],
      "name": "priceDuration",
      "outputs": [
        {
          "internalType": "uint256",
          "name": "",
          "type": "uint256"
        }
      ],
      "stateMutability": "view",
      "type": "function"
    },
    {
      "inputs": [
        {
          "internalType": "address",
          "name": "",
          "type": "address"
        }
      ],
      "name": "prices",
      "outputs": [
        {
          "internalType": "uint256",
          "name": "",
          "type": "uint256"
        }
      ],
      "stateMutability": "view",
      "type": "function"
    },
    {
      "inputs": [],
      "name": "renounceOwnership",
      "outputs": [],
      "stateMutability": "nonpayable",
      "type": "function"
    },
    {
      "inputs": [
        {
          "internalType": "bytes32",
          "name": "",
          "type": "bytes32"
        },
        {
          "internalType": "address",
          "name": "",
          "type": "address"
        }
      ],
      "name": "renounceRole",
      "outputs": [],
      "stateMutability": "nonpayable",
      "type": "function"
    },
    {
      "inputs": [
        {
          "internalType": "bytes32",
          "name": "role",
          "type": "bytes32"
        },
        {
          "internalType": "address",
          "name": "account",
          "type": "address"
        }
      ],
      "name": "revokeRole",
      "outputs": [],
      "stateMutability": "nonpayable",
      "type": "function"
    },
    {
      "inputs": [
        {
          "internalType": "uint256[]",
          "name": "_priceBitArray",
          "type": "uint256[]"
        },
        {
          "internalType": "uint256",
          "name": "_timestamp",
          "type": "uint256"
        }
      ],
      "name": "setCompactedPrices",
      "outputs": [],
      "stateMutability": "nonpayable",
      "type": "function"
    },
    {
      "inputs": [
        {
          "internalType": "bool",
          "name": "_enabled",
          "type": "bool"
        }
      ],
      "name": "setIsSpreadEnabled",
      "outputs": [],
      "stateMutability": "nonpayable",
      "type": "function"
    },
    {
      "inputs": [
        {
          "internalType": "uint256",
          "name": "_lastUpdatedAt",
          "type": "uint256"
        }
      ],
      "name": "setLastUpdatedAt",
      "outputs": [],
      "stateMutability": "nonpayable",
      "type": "function"
    },
    {
      "inputs": [
        {
          "internalType": "address[]",
          "name": "_tokens",
          "type": "address[]"
        },
        {
          "internalType": "uint256[]",
          "name": "_maxCumulativeDeltaDiffs",
          "type": "uint256[]"
        }
      ],
      "name": "setMaxCumulativeDeltaDiffs",
      "outputs": [],
      "stateMutability": "nonpayable",
      "type": "function"
    },
    {
      "inputs": [
        {
          "internalType": "uint256",
          "name": "_maxDeviationBasisPoints",
          "type": "uint256"
        }
      ],
      "name": "setMaxDeviationBasisPoints",
      "outputs": [],
      "stateMutability": "nonpayable",
      "type": "function"
    },
    {
      "inputs": [
        {
          "internalType": "uint256",
          "name": "_delay",
          "type": "uint256"
        }
      ],
      "name": "setMaxPriceUpdateDelay",
      "outputs": [],
      "stateMutability": "nonpayable",
      "type": "function"
    },
    {
      "inputs": [
        {
          "internalType": "uint256",
          "name": "_deviation",
          "type": "uint256"
        }
      ],
      "name": "setMaxTimeDeviation",
      "outputs": [],
      "stateMutability": "nonpayable",
      "type": "function"
    },
    {
      "inputs": [
        {
          "internalType": "uint256",
          "name": "_interval",
          "type": "uint256"
        }
      ],
      "name": "setMinBlockInterval",
      "outputs": [],
      "stateMutability": "nonpayable",
      "type": "function"
    },
    {
      "inputs": [
        {
          "internalType": "uint256",
          "name": "_priceDataInterval",
          "type": "uint256"
        }
      ],
      "name": "setPriceDataInterval",
      "outputs": [],
      "stateMutability": "nonpayable",
      "type": "function"
    },
    {
      "inputs": [
        {
          "internalType": "uint256",
          "name": "_duration",
          "type": "uint256"
        }
      ],
      "name": "setPriceDuration",
      "outputs": [],
      "stateMutability": "nonpayable",
      "type": "function"
    },
    {
      "inputs": [
        {
          "internalType": "address",
          "name": "_feed",
          "type": "address"
        }
      ],
      "name": "setPriceFeed",
      "outputs": [],
      "stateMutability": "nonpayable",
      "type": "function"
    },
    {
      "inputs": [
        {
          "internalType": "address[]",
          "name": "_tokens",
          "type": "address[]"
        },
        {
          "internalType": "uint256[]",
          "name": "_prices",
          "type": "uint256[]"
        },
        {
          "internalType": "uint256",
          "name": "_timestamp",
          "type": "uint256"
        }
      ],
      "name": "setPrices",
      "outputs": [],
      "stateMutability": "nonpayable",
      "type": "function"
    },
    {
      "inputs": [
        {
          "internalType": "address",
          "name": "token",
          "type": "address"
        },
        {
          "internalType": "uint256",
          "name": "price",
          "type": "uint256"
        },
        {
          "internalType": "uint256",
          "name": "timestamp",
          "type": "uint256"
        },
        {
          "components": [
            {
              "internalType": "address",
              "name": "market",
              "type": "address"
            },
            {
              "internalType": "address",
              "name": "account",
              "type": "address"
            },
            {
              "internalType": "uint64",
              "name": "orderID",
              "type": "uint64"
            },
            {
              "internalType": "bool",
              "name": "isIncrease",
              "type": "bool"
            },
            {
              "internalType": "bool",
              "name": "isLong",
              "type": "bool"
            }
          ],
          "internalType": "struct IMarket.OrderExec[]",
          "name": "orders",
          "type": "tuple[]"
        }
      ],
      "name": "setPricesAndExecute",
      "outputs": [],
      "stateMutability": "nonpayable",
      "type": "function"
    },
    {
      "inputs": [
        {
          "internalType": "uint256",
          "name": "_priceBits",
          "type": "uint256"
        },
        {
          "internalType": "uint256",
          "name": "_timestamp",
          "type": "uint256"
        }
      ],
      "name": "setPricesWithBits",
      "outputs": [],
      "stateMutability": "nonpayable",
      "type": "function"
    },
    {
      "inputs": [
        {
          "internalType": "uint256",
          "name": "_point",
          "type": "uint256"
        }
      ],
      "name": "setSpreadBasisPointsIfChainError",
      "outputs": [],
      "stateMutability": "nonpayable",
      "type": "function"
    },
    {
      "inputs": [
        {
          "internalType": "uint256",
          "name": "_point",
          "type": "uint256"
        }
      ],
      "name": "setSpreadBasisPointsIfInactive",
      "outputs": [],
      "stateMutability": "nonpayable",
      "type": "function"
    },
    {
      "inputs": [
        {
          "internalType": "address[]",
          "name": "_tokens",
          "type": "address[]"
        },
        {
          "internalType": "uint256[]",
          "name": "_tokenPrecisions",
          "type": "uint256[]"
        }
      ],
      "name": "setTokens",
      "outputs": [],
      "stateMutability": "nonpayable",
      "type": "function"
    },
    {
      "inputs": [],
      "name": "spreadBasisPointsIfChainError",
      "outputs": [
        {
          "internalType": "uint256",
          "name": "",
          "type": "uint256"
        }
      ],
      "stateMutability": "view",
      "type": "function"
    },
    {
      "inputs": [],
      "name": "spreadBasisPointsIfInactive",
      "outputs": [
        {
          "internalType": "uint256",
          "name": "",
          "type": "uint256"
        }
      ],
      "stateMutability": "view",
      "type": "function"
    },
    {
      "inputs": [
        {
          "internalType": "bytes4",
          "name": "interfaceId",
          "type": "bytes4"
        }
      ],
      "name": "supportsInterface",
      "outputs": [
        {
          "internalType": "bool",
          "name": "",
          "type": "bool"
        }
      ],
      "stateMutability": "view",
      "type": "function"
    },
    {
      "inputs": [
        {
          "internalType": "uint256",
          "name": "",
          "type": "uint256"
        }
      ],
      "name": "tokenPrecisions",
      "outputs": [
        {
          "internalType": "uint256",
          "name": "",
          "type": "uint256"
        }
      ],
      "stateMutability": "view",
      "type": "function"
    },
    {
      "inputs": [
        {
          "internalType": "uint256",
          "name": "",
          "type": "uint256"
        }
      ],
      "name": "tokens",
      "outputs": [
        {
          "internalType": "address",
          "name": "",
          "type": "address"
        }
      ],
      "stateMutability": "view",
      "type": "function"
    },
    {
      "inputs": [
        {
          "internalType": "address",
          "name": "to",
          "type": "address"
        }
      ],
      "name": "transferAdmin",
      "outputs": [],
      "stateMutability": "nonpayable",
      "type": "function"
    },
    {
      "inputs": [
        {
          "internalType": "address",
          "name": "newOwner",
          "type": "address"
        }
      ],
      "name": "transferOwnership",
      "outputs": [],
      "stateMutability": "nonpayable",
      "type": "function"
    }
  ],
  "bytecode": {
    "object": "0x60806040523480156200001157600080fd5b50604051620034a0380380620034a0833981016040819052620000349162000202565b336200004081620000d4565b62000056816200012660201b6200195c1760201c565b50610708841115620000bc5760405162461bcd60e51b815260206004820152602560248201527f466173745072696365466565643a20696e76616c6964205f707269636544757260448201526430ba34b7b760d91b606482015260840160405180910390fd5b600693909355600791909155600a55600d5562000239565b600180546001600160a01b038381166001600160a01b0319831681179093556040519116919082907f8be0079c531659141344cd1fd0a4f28419497f9722a3daafe3b4186f6b6457e090600090a35050565b426002556200013533620000d4565b6200014260003362000152565b6200014f60008262000152565b50565b6200015e828262000162565b5050565b6000828152602081815260408083206001600160a01b038516845290915290205460ff166200015e576000828152602081815260408083206001600160a01b03851684529091529020805460ff19166001179055620001be3390565b6001600160a01b0316816001600160a01b0316837f2f8788117e7eff1d82e926ec794901d17c78024a50270940304540a733656f0d60405160405180910390a45050565b600080600080608085870312156200021957600080fd5b505082516020840151604085015160609095015191969095509092509050565b61325780620002496000396000f3fe608060405234801561001057600080fd5b50600436106103835760003560e01c80637fe4a698116101de578063b70c7b701161010f578063de0d1b94116100ad578063f2fde38b1161007c578063f2fde38b146107ad578063f90ce5ba146107c0578063f931ac30146107c9578063fcb51252146107d657600080fd5b8063de0d1b941461077a578063dfb481c91461078d578063e64559ad14610796578063e68a22c01461079f57600080fd5b8063ce98dfa8116100e9578063ce98dfa814610721578063cfed246b14610734578063d547741f14610754578063d6a153f11461076757600080fd5b8063b70c7b7014610678578063c8390a481461068b578063cab44b761461069e57600080fd5b806395082d251161017c578063a374242511610156578063a37424251461062e578063a6eca8961461064e578063add37b7b14610657578063b3606b561461066f57600080fd5b806395082d2514610608578063a217fddf1461061c578063a2b47c161461062457600080fd5b806382553aad116101b857806382553aad146105be5780638b7677f4146105d15780638da5cb5b146105e457806391d14854146105f557600080fd5b80637fe4a698146105985780637fece368146105ab578063807c9782146103dc57600080fd5b80634c0e31c8116102b8578063715c75361161025657806374bfed891161023057806374bfed891461055657806375829def1461055f578063776d16c114610572578063782661bc1461058557600080fd5b8063715c75361461050757806372279ba114610510578063724e78da1461054357600080fd5b806354aea1271161029257806354aea127146104da578063668d3d65146104e35780636c56fd05146104ec578063715018a6146104ff57600080fd5b80634c0e31c8146104895780634d11fb4a1461049c5780634f64b2be146104af57600080fd5b8063248a9ca31161032557806336568abe116102ff57806336568abe1461045f5780633aa08f861461046d57806344c23193146104765780634bd66c1c146103dc57600080fd5b8063248a9ca3146104165780632e9cd94b146104395780632f2ff15d1461044c57600080fd5b80630604ddea116103615780630604ddea146103dc578063126082cf146103e757806314dd2dce146103f057806317835d1c1461040357600080fd5b806301ffc9a71461038857806303cd2571146103b057806303f4d7dc146103c7575b600080fd5b61039b61039636600461271c565b6107e9565b60405190151581526020015b60405180910390f35b6103b960065481565b6040519081526020016103a7565b6103da6103d5366004612865565b610820565b005b6103b963ffffffff81565b6103b961271081565b6103da6103fe3660046128a9565b6109b2565b6103da6104113660046128c2565b610a23565b6103b96104243660046128a9565b60009081526020819052604090206001015490565b6103da6104473660046128a9565b610a44565b6103da61045a3660046128f9565b610aac565b6103da6103833660046128f9565b6103b9600b5481565b6103da6104843660046128a9565b610ad1565b6103da61049736600461298d565b610b97565b6103b96104aa3660046128a9565b610c6c565b6104c26104bd3660046128a9565b610c8d565b6040516001600160a01b0390911681526020016103a7565b6103b960045481565b6103b961070881565b61039b6104fa3660046129f0565b610cb7565b6103da610d27565b6103b9600d5481565b61052361051e3660046129f0565b610d3b565b6040805194855260208501939093529183015260608201526080016103a7565b6103da6105513660046129f0565b610da5565b6103b960085481565b6103da61056d3660046129f0565b610e75565b6103da6105803660046128a9565b610ee5565b6103da610593366004612a0d565b610f4d565b6103da6105a63660046129f0565b610ff2565b6103b96105b9366004612a8e565b61101c565b6103da6105cc3660046128a9565b61117f565b6103da6105df3660046128a9565b6111e7565b6001546001600160a01b03166104c2565b61039b6106033660046128f9565b61124f565b6103b96c0c9f2c9cd04674edea4000000081565b6103b9600081565b6103b96298968081565b6103b961063c3660046129f0565b60106020526000908152604090205481565b6103b960095481565b6003546104c29061010090046001600160a01b031681565b6103b9600a5481565b6103da6106863660046128a9565b611278565b6103da61069936600461298d565b6112e0565b6106eb6106ac3660046129f0565b600f602052600090815260409020546001600160a01b0381169063ffffffff600160a01b8204811691600160c01b8104821691600160e01b9091041684565b604080516001600160a01b03909516855263ffffffff9384166020860152918316918401919091521660608201526080016103a7565b6103da61072f366004612acc565b6113b9565b6103b96107423660046129f0565b600e6020526000908152604090205481565b6103da6107623660046128f9565b61142f565b6103da6107753660046128a9565b611454565b6103da6107883660046128a9565b6114bc565b6103b9600c5481565b6103b960075481565b6103b96001600160a01b0381565b6103da6107bb3660046129f0565b611524565b6103b960055481565b60035461039b9060ff1681565b6103da6107e4366004612afc565b61159d565b60006001600160e01b03198216637965db0b60e01b148061081a57506301ffc9a760e01b6001600160e01b03198316145b92915050565b6108376000805160206131e283398151915261197f565b600061084282611989565b905080156109ac5760035461010090046001600160a01b031660005b84518110156109a957600085828151811061087b5761087b612c1c565b6020026020010151905060005b60088110156109945760008161089f856008612c48565b6108a99190612c5f565b60115490915081106108bf575050505050505050565b60006108cc836020612c48565b905083811c63ffffffff1660006011856108e7896008612c48565b6108f19190612c5f565b8154811061090157610901612c1c565b60009182526020822001546001600160a01b031691506012866109258a6008612c48565b61092f9190612c5f565b8154811061093f5761093f612c1c565b60009182526020822001549150816109646c0c9f2c9cd04674edea4000000086612c48565b61096e9190612c72565b905061097b83828c611b0b565b505050505050808061098c90612c94565b915050610888565b505080806109a190612c94565b91505061085e565b50505b505b5050565b60008051602061320283398151915260006109cd813361124f565b90508015610a125762015180600254426109e79190612cad565b10610a0d5760405162461bcd60e51b8152600401610a0490612cc0565b60405180910390fd5b610a1c565b610a1c8233611dcf565b5050600455565b610a3a6000805160206131e283398151915261197f565b6109ae8282611e28565b6000805160206132028339815191526000610a5f813361124f565b90508015610a9b576201518060025442610a799190612cad565b10610a965760405162461bcd60e51b8152600401610a0490612cc0565b610aa5565b610aa58233611dcf565b5050600c55565b600082815260208190526040902060010154610ac78161197f565b6109ac8383611fbf565b6000805160206132028339815191526000610aec813361124f565b90508015610b28576201518060025442610b069190612cad565b10610b235760405162461bcd60e51b8152600401610a0490612cc0565b610b32565b610b328233611dcf565b610708831115610b905760405162461bcd60e51b8152602060048201526024808201527f466173745072696365466565643a20696e76616c6964207072696365447572616044820152633a34b7b760e11b6064820152608401610a04565b5050600655565b6000805160206132028339815191526000610bb2813361124f565b90508015610bee576201518060025442610bcc9190612cad565b10610be95760405162461bcd60e51b8152600401610a0490612cc0565b610bf8565b610bf88233611dcf565b60005b84518110156109a9576000858281518110610c1857610c18612c1c565b60200260200101519050848281518110610c3457610c34612c1c565b6020908102919091018101516001600160a01b0390921660009081526010909152604090205580610c6481612c94565b915050610bfb565b60128181548110610c7c57600080fd5b600091825260209091200154905081565b60118181548110610c9d57600080fd5b6000918252602090912001546001600160a01b0316905081565b60035460009060ff1615610ccd57506000919050565b600080610cd984610d3b565b9350935050508181118015610d0e57506001600160a01b038416600090815260106020526040902054610d0c8383612cad565b115b15610d1d575060009392505050565b5060019392505050565b610d2f612043565b610d39600061209d565b565b6001600160a01b039081166000908152600f60209081526040918290208251608081018452905493841680825263ffffffff600160a01b86048116938301849052600160c01b86048116948301859052600160e01b90950490941660609091018190529293909290565b6000805160206132028339815191526000610dc0813361124f565b90508015610dfc576201518060025442610dda9190612cad565b10610df75760405162461bcd60e51b8152600401610a0490612cc0565b610e06565b610e068233611dcf565b6001600160a01b038316610e4b5760405162461bcd60e51b815260206004820152600c60248201526b1a5b9d985b1a59081999595960a21b6044820152606401610a04565b5050600380546001600160a01b0390921661010002610100600160a81b0319909216919091179055565b6000610e808161197f565b6001600160a01b038216610ec65760405162461bcd60e51b815260206004820152600d60248201526c217a65726f206164647265737360981b6044820152606401610a04565b610ed16000836120ef565b610eda8261209d565b6109ae6000336120f9565b6000805160206132028339815191526000610f00813361124f565b90508015610f3c576201518060025442610f1a9190612cad565b10610f375760405162461bcd60e51b8152600401610a0490612cc0565b610f46565b610f468233611dcf565b5050600b55565b610f646000805160206131e283398151915261197f565b6000610f6f82611989565b90508015610fec5760035461010090046001600160a01b031660005b8551811015610fe9576000868281518110610fa857610fa8612c1c565b60200260200101519050610fd681878481518110610fc857610fc8612c1c565b602002602001015185611b0b565b5080610fe181612c94565b915050610f8b565b50505b50505050565b7f8d1089725c0dc266707fa6207730fb801dcd03108bfed7a21099bd303651d2b76103838161197f565b600060075460045461102e9190612c5f565b42111561107c5781156110695761271060095461271061104e9190612c5f565b6110589085612c48565b6110629190612c72565b9050611178565b61271060095461271061104e9190612cad565b60065460045461108c9190612c5f565b4211156110bf5781156110ac5761271060085461271061104e9190612c5f565b61271060085461271061104e9190612cad565b6001600160a01b0384166000908152600e6020526040812054908190036110e95783915050611178565b6000818511611101576110fc8583612cad565b61110b565b61110b8286612cad565b90508461111a61271083612c48565b6111249190612c72565b9050600061113187610cb7565b158061113e5750600d5482115b9050801561117257841561116557828611611159578261115b565b855b9350505050611178565b828610611159578261115b565b50909150505b9392505050565b600080516020613202833981519152600061119a813361124f565b905080156111d65762015180600254426111b49190612cad565b106111d15760405162461bcd60e51b8152600401610a0490612cc0565b6111e0565b6111e08233611dcf565b5050600d55565b6000805160206132028339815191526000611202813361124f565b9050801561123e57620151806002544261121c9190612cad565b106112395760405162461bcd60e51b8152600401610a0490612cc0565b611248565b6112488233611dcf565b5050600755565b6000918252602082815260408084206001600160a01b0393909316845291905290205460ff1690565b6000805160206132028339815191526000611293813361124f565b905080156112cf5762015180600254426112ad9190612cad565b106112ca5760405162461bcd60e51b8152600401610a0490612cc0565b6112d9565b6112d98233611dcf565b5050600855565b60008051602061320283398151915260006112fb813361124f565b905080156113375762015180600254426113159190612cad565b106113325760405162461bcd60e51b8152600401610a0490612cc0565b611341565b6113418233611dcf565b82518451146113925760405162461bcd60e51b815260206004820152601e60248201527f466173745072696365466565643a20696e76616c6964206c656e6774687300006044820152606401610a04565b83516113a5906011906020870190612667565b5082516109a99060129060208601906126cc565b60008051602061320283398151915260006113d4813361124f565b905080156114105762015180600254426113ee9190612cad565b1061140b5760405162461bcd60e51b8152600401610a0490612cc0565b61141a565b61141a8233611dcf565b50506003805460ff1916911515919091179055565b60008281526020819052604090206001015461144a8161197f565b6109ac83836120f9565b600080516020613202833981519152600061146f813361124f565b905080156114ab5762015180600254426114899190612cad565b106114a65760405162461bcd60e51b8152600401610a0490612cc0565b6114b5565b6114b58233611dcf565b5050600a55565b60008051602061320283398151915260006114d7813361124f565b905080156115135762015180600254426114f19190612cad565b1061150e5760405162461bcd60e51b8152600401610a0490612cc0565b61151d565b61151d8233611dcf565b5050600955565b61152c612043565b6001600160a01b0381166115915760405162461bcd60e51b815260206004820152602660248201527f4f776e61626c653a206e6577206f776e657220697320746865207a65726f206160448201526564647265737360d01b6064820152608401610a04565b61159a8161209d565b50565b6115b46000805160206131e283398151915261197f565b6115bd82611989565b506115de8484600360019054906101000a90046001600160a01b0316611b0b565b60005b81518110156109a95760008282815181106115fe576115fe612c1c565b60200260200101516000015190506000816001600160a01b031663a264045485858151811061162f5761162f612c1c565b60200260200101516080015186868151811061164d5761164d612c1c565b6020026020010151606001516040518363ffffffff1660e01b815260040161168392919091151582521515602082015260400190565b602060405180830381865afa1580156116a0573d6000803e3d6000fd5b505050506040513d601f19601f820116820180604052508101906116c49190612ce8565b905060006117538585815181106116dd576116dd612c1c565b6020026020010151602001518686815181106116fb576116fb612c1c565b602090810291909101810151604090810151815160609490941b6bffffffffffffffffffffffff19168484015260c01b6001600160c01b03191660348401528051601c818503018152603c9093019052815191012090565b6040516309c3f1e960e41b8152600481018290529091506000906001600160a01b03841690639c3f1e90906024016101a060405180830381865afa15801561179f573d6000803e3d6000fd5b505050506040513d601f19601f820116820180604052508101906117c39190612d6d565b604080516101e08101825260008082526020820181905291810182905260608082018390526080820183905260a0820183905260c0820183905260e08201839052610100820183905261012082018390526101408201839052610160820183905261018082018390526101a08201929092526101c081019190915290915061187187878151811061185657611856612c1c565b6020026020010151606001518261215e90919063ffffffff16565b6118e48288888151811061188757611887612c1c565b6020026020010151600001518989815181106118a5576118a5612c1c565b6020026020010151608001518a8a815181106118c3576118c3612c1c565b60200260200101516060015160018661218b9095949392919063ffffffff16565b6040516304b789db60e21b81526001600160a01b038616906312de276c906119129085908590600401612fa2565b600060405180830381600087803b15801561192c57600080fd5b505af1158015611940573d6000803e3d6000fd5b505050505050505050808061195490612c94565b9150506115e1565b426002556119693361209d565b6119746000336120ef565b61159a6000826120ef565b61159a8133611dcf565b600a5460009015611a0957600a546005546119a49043612cad565b1015611a095760405162461bcd60e51b815260206004820152602e60248201527f466173745072696365466565643a206d696e426c6f636b496e74657276616c2060448201526d1b9bdd081e595d081c185cdcd95960921b6064820152608401610a04565b600b54611a168142612cad565b8311611a7a5760405162461bcd60e51b815260206004820152602d60248201527f466173745072696365466565643a205f74696d657374616d702062656c6f772060448201526c616c6c6f7765642072616e676560981b6064820152608401610a04565b611a848142612c5f565b8310611aea5760405162461bcd60e51b815260206004820152602f60248201527f466173745072696365466565643a205f74696d657374616d702065786365656460448201526e7320616c6c6f7765642072616e676560881b6064820152608401610a04565b600454831015611afd5750600092915050565b505060045543600555600190565b6001600160a01b03811615611d75576040516302c68be360e31b81526001600160a01b038481166004830152600091908316906316345f1890602401602060405180830381865afa158015611b64573d6000803e3d6000fd5b505050506040513d601f19601f82011682018060405250810190611b8891906130e5565b6001600160a01b0385166000908152600e6020526040812054919250808080611bb089610d3b565b93509350935093506000841115611c7d576000848711611bd957611bd48786612cad565b611be3565b611be38588612cad565b90506000898711611bfd57611bf8878b612cad565b611c07565b611c078a88612cad565b9050600c5442611c179190612c72565b600c54611c249087612c72565b14611c325760009350600092505b85611c406298968084612c48565b611c4a9190612c72565b611c549085612c5f565b935086611c646298968083612c48565b611c6e9190612c72565b611c789084612c5f565b925050505b8181118015611cac57506001600160a01b038916600090815260106020526040902054611caa8383612cad565b115b15611d0a57604080516001600160a01b038b1681526020810188905290810186905260608101839052608081018290527fe582322b389ad06b2bbf619cd6da3f16a288ec873ea0fa6df4d72f3d9480b4479060a00160405180910390a15b611d1689878484612277565b604080516001600160a01b038b1681526020810188905290810186905260608101839052608081018290527f23b9387f81fca646aac1dc4487ede045c65f5f7445482906565f01e05afdb3a89060a00160405180910390a15050505050505b6001600160a01b0383166000818152600e602090815260409182902085905581513381529081018590527f769c880b4ecaf9ff271685d367fa4e4d091bab5879cf19c9ab777391e44f1c0f910160405180910390a2505050565b611dd9828261124f565b6109ae57611de681612439565b611df183602061244b565b604051602001611e02929190613122565b60408051601f198184030181529082905262461bcd60e51b8252610a0491600401613197565b6000611e3382611989565b905080156109ac576000600360019054906101000a90046001600160a01b0316905060006011805480602002602001604051908101604052809291908181526020018280548015611ead57602002820191906000526020600020905b81546001600160a01b03168152600190910190602001808311611e8f575b5050505050905060006012805480602002602001604051908101604052809291908181526020018280548015611f0257602002820191906000526020600020905b815481526020019060010190808311611eee575b505085519394506000925050505b6008811015611fb557818110611f2a575050505050505050565b8351602082029089821c63ffffffff1690600090879085908110611f5057611f50612c1c565b602002602001015190506000868581518110611f6e57611f6e612c1c565b60200260200101516c0c9f2c9cd04674edea4000000084611f8f9190612c48565b611f999190612c72565b9050611fa682828b611b0b565b84600101945050505050611f10565b5050505050505050565b611fc9828261124f565b6109ae576000828152602081815260408083206001600160a01b03851684529091529020805460ff19166001179055611fff3390565b6001600160a01b0316816001600160a01b0316837f2f8788117e7eff1d82e926ec794901d17c78024a50270940304540a733656f0d60405160405180910390a45050565b6001546001600160a01b03163314610d395760405162461bcd60e51b815260206004820181905260248201527f4f776e61626c653a2063616c6c6572206973206e6f7420746865206f776e65726044820152606401610a04565b600180546001600160a01b038381166001600160a01b0319831681179093556040519116919082907f8be0079c531659141344cd1fd0a4f28419497f9722a3daafe3b4186f6b6457e090600090a35050565b6109ae8282611fbf565b612103828261124f565b156109ae576000828152602081815260408083206001600160a01b0385168085529252808320805460ff1916905551339285917ff6391f5c32d9c69d2a47ea670b442974b53935d1edc7fd64eb21e047a839171b9190a45050565b60408051600280825260608201835290916020830190803683375050506101c08301521515606090910152565b6001600160a01b038085168752831515602088015260c0808701516001600160801b0390811660a0808b019190915260e08901518216928a0192909252610180808901516101608b01528415156101008b01526101208901516001600160401b03166101408b0152606089015190931660808a015290870151169087015281156122505761222d866122288761010001516001600160801b031690565b6125e6565b61224b866122468761016001516001600160801b031690565b61260f565b610fe9565b61226e86612269876080015165ffffffffffff16151590565b612628565b50505050505050565b6001600160a01b0383106122cd5760405162461bcd60e51b815260206004820152601f60248201527f466173745072696365466565643a20696e76616c6964207265665072696365006044820152606401610a04565b63ffffffff82106123325760405162461bcd60e51b815260206004820152602960248201527f466173745072696365466565643a20696e76616c69642063756d756c617469766044820152686552656644656c746160b81b6064820152608401610a04565b63ffffffff81106123985760405162461bcd60e51b815260206004820152602a60248201527f466173745072696365466565643a20696e76616c69642063756d756c61746976604482015269654661737444656c746160b01b6064820152608401610a04565b604080516080810182526001600160a01b03948516815263ffffffff4281166020808401918252958216838501908152948216606084019081529787166000908152600f90965292909420905181549251935196518516600160e01b026001600160e01b03978616600160c01b02979097166001600160c01b0394909516600160a01b026001600160c01b0319909316951694909417171617919091179055565b606061081a6001600160a01b03831660145b6060600061245a836002612c48565b612465906002612c5f565b6001600160401b0381111561247c5761247c612746565b6040519080825280601f01601f1916602001820160405280156124a6576020820181803683370190505b509050600360fc1b816000815181106124c1576124c1612c1c565b60200101906001600160f81b031916908160001a905350600f60fb1b816001815181106124f0576124f0612c1c565b60200101906001600160f81b031916908160001a9053506000612514846002612c48565b61251f906001612c5f565b90505b6001811115612597576f181899199a1a9b1b9c1cb0b131b232b360811b85600f166010811061255357612553612c1c565b1a60f81b82828151811061256957612569612c1c565b60200101906001600160f81b031916908160001a90535060049490941c93612590816131ca565b9050612522565b5083156111785760405162461bcd60e51b815260206004820181905260248201527f537472696e67733a20686578206c656e67746820696e73756666696369656e746044820152606401610a04565b80826101c001516000815181106125ff576125ff612c1c565b6020026020010181815250505050565b80826101c001516001815181106125ff576125ff612c1c565b600081612636576000612639565b60015b60ff16836101c0015160008151811061265457612654612c1c565b6020026020010181815250905092915050565b8280548282559060005260206000209081019282156126bc579160200282015b828111156126bc57825182546001600160a01b0319166001600160a01b03909116178255602090920191600190910190612687565b506126c8929150612707565b5090565b8280548282559060005260206000209081019282156126bc579160200282015b828111156126bc5782518255916020019190600101906126ec565b5b808211156126c85760008155600101612708565b60006020828403121561272e57600080fd5b81356001600160e01b03198116811461117857600080fd5b634e487b7160e01b600052604160045260246000fd5b60405160a081016001600160401b038111828210171561277e5761277e612746565b60405290565b6040516101a081016001600160401b038111828210171561277e5761277e612746565b604051601f8201601f191681016001600160401b03811182821017156127cf576127cf612746565b604052919050565b60006001600160401b038211156127f0576127f0612746565b5060051b60200190565b600082601f83011261280b57600080fd5b8135602061282061281b836127d7565b6127a7565b82815260059290921b8401810191818101908684111561283f57600080fd5b8286015b8481101561285a5780358352918301918301612843565b509695505050505050565b6000806040838503121561287857600080fd5b82356001600160401b0381111561288e57600080fd5b61289a858286016127fa565b95602094909401359450505050565b6000602082840312156128bb57600080fd5b5035919050565b600080604083850312156128d557600080fd5b50508035926020909101359150565b6001600160a01b038116811461159a57600080fd5b6000806040838503121561290c57600080fd5b82359150602083013561291e816128e4565b809150509250929050565b600082601f83011261293a57600080fd5b8135602061294a61281b836127d7565b82815260059290921b8401810191818101908684111561296957600080fd5b8286015b8481101561285a578035612980816128e4565b835291830191830161296d565b600080604083850312156129a057600080fd5b82356001600160401b03808211156129b757600080fd5b6129c386838701612929565b935060208501359150808211156129d957600080fd5b506129e6858286016127fa565b9150509250929050565b600060208284031215612a0257600080fd5b8135611178816128e4565b600080600060608486031215612a2257600080fd5b83356001600160401b0380821115612a3957600080fd5b612a4587838801612929565b94506020860135915080821115612a5b57600080fd5b50612a68868287016127fa565b925050604084013590509250925092565b80358015158114612a8957600080fd5b919050565b600080600060608486031215612aa357600080fd5b8335612aae816128e4565b925060208401359150612ac360408501612a79565b90509250925092565b600060208284031215612ade57600080fd5b61117882612a79565b6001600160401b038116811461159a57600080fd5b60008060008060808587031215612b1257600080fd5b8435612b1d816128e4565b9350602085810135935060408087013593506060808801356001600160401b03811115612b4957600080fd5b8801601f81018a13612b5a57600080fd5b8035612b6861281b826127d7565b81815260a0918202830186019186820191908d841115612b8757600080fd5b938701935b83851015612c0a5780858f031215612ba45760008081fd5b612bac61275c565b8535612bb7816128e4565b815285890135612bc6816128e4565b818a015285880135612bd781612ae7565b81890152612be6868801612a79565b87820152612bf660808701612a79565b608082015283529384019391870191612b8c565b50999c989b5096995050505050505050565b634e487b7160e01b600052603260045260246000fd5b634e487b7160e01b600052601160045260246000fd5b808202811582820484141761081a5761081a612c32565b8082018082111561081a5761081a612c32565b600082612c8f57634e487b7160e01b600052601260045260246000fd5b500490565b600060018201612ca657612ca6612c32565b5060010190565b8181038181111561081a5761081a612c32565b6020808252600e908201526d1858c81d1a5b59481c185cdcd95960921b604082015260600190565b600060208284031215612cfa57600080fd5b8151611178816128e4565b805160ff81168114612a8957600080fd5b805163ffffffff81168114612a8957600080fd5b8051612a89816128e4565b805165ffffffffffff81168114612a8957600080fd5b80516001600160801b0381168114612a8957600080fd5b8051612a8981612ae7565b60006101a08284031215612d8057600080fd5b612d88612784565b612d9183612d05565b8152612d9f60208401612d16565b6020820152612db060408401612d05565b6040820152612dc160608401612d2a565b6060820152612dd260808401612d35565b6080820152612de360a08401612d4b565b60a0820152612df460c08401612d4b565b60c0820152612e0560e08401612d4b565b60e0820152610100612e18818501612d4b565b90820152610120612e2a848201612d62565b90820152610140612e3c848201612d62565b90820152610160612e4e848201612d4b565b90820152610180928301519281019290925250919050565b600081518084526020808501945080840160005b83811015612e9657815187529582019590820190600101612e7a565b509495945050505050565b80516001600160a01b0316825260006101e06020830151612ec6602086018215159052565b50604083015160408501526060830151612ee4606086018215159052565b506080830151612eff60808601826001600160a01b03169052565b5060a083015160a085015260c083015160c085015260e083015160e085015261010080840151612f328287018215159052565b50506101208381015160ff90811691860191909152610140808501516001600160401b031690860152610160808501519086015261018080850151908601526101a080850151909116908501526101c080840151818601839052612f9883870182612e66565b9695505050505050565b825160ff16815260006101c06020850151612fc5602085018263ffffffff169052565b506040850151612fda604085018260ff169052565b506060850151612ff560608501826001600160a01b03169052565b50608085015161300f608085018265ffffffffffff169052565b5060a085015161302a60a08501826001600160801b03169052565b5060c085015161304560c08501826001600160801b03169052565b5060e085015161306060e08501826001600160801b03169052565b50610100858101516001600160801b038116858301525050610120858101516001600160401b038116858301525050610140858101516001600160401b038116858301525050610160858101516001600160801b038116858301525050610180808601518185015250806101a08401526130dc81840185612ea1565b95945050505050565b6000602082840312156130f757600080fd5b5051919050565b60005b83811015613119578181015183820152602001613101565b50506000910152565b7f416363657373436f6e74726f6c3a206163636f756e742000000000000000000081526000835161315a8160178501602088016130fe565b7001034b99036b4b9b9b4b733903937b6329607d1b601791840191820152835161318b8160288401602088016130fe565b01602801949350505050565b60208152600082518060208401526131b68160408501602087016130fe565b601f01601f19169190910160400192915050565b6000816131d9576131d9612c32565b50600019019056fef7650eb8b2f3fb3c9b995a8ee2fc3c04ed07f1c4efe01998177b109698c67517241ecf16d79d0f8dbfb92cbc07fe17840425976cf0667f022fe9877caa831b08a26469706673582212204db1a2d3dd1080eb582f899da3ffe131b6d8d6715157394ac4c689557a5bde6e64736f6c63430008110033",
    "linkReferences": {}
  },
  "methodIdentifiers": {
    "BASIS_POINTS_DIVISOR()": "126082cf",
    "BITMASK_32()": "807c9782",
    "CUMULATIVE_DELTA_PRECISION()": "a2b47c16",
    "DEFAULT_ADMIN_ROLE()": "a217fddf",
    "MAX_CUMULATIVE_FAST_DELTA()": "4bd66c1c",
    "MAX_CUMULATIVE_REF_DELTA()": "0604ddea",
    "MAX_PRICE_DURATION()": "668d3d65",
    "MAX_REF_PRICE()": "e68a22c0",
    "PRICE_PRECISION()": "95082d25",
    "chainPriceFeed()": "add37b7b",
    "favorFastPrice(address)": "6c56fd05",
    "getPrice(address,uint256,bool)": "7fece368",
    "getPriceData(address)": "72279ba1",
    "getRoleAdmin(bytes32)": "248a9ca3",
    "grantControllerRoleByMarketManager(address)": "7fe4a698",
    "grantRole(bytes32,address)": "2f2ff15d",
    "hasRole(bytes32,address)": "91d14854",
    "isSpreadEnablede()": "f931ac30",
    "lastUpdatedAt()": "54aea127",
    "lastUpdatedBlock()": "f90ce5ba",
    "maxCumulativeDeltaDiffs(address)": "a3742425",
    "maxDeviationBasisPoints()": "715c7536",
    "maxPriceUpdateDelay()": "e64559ad",
    "maxTimeDeviation()": "3aa08f86",
    "minBlockInterval()": "b3606b56",
    "owner()": "8da5cb5b",
    "priceData(address)": "cab44b76",
    "priceDataInterval()": "dfb481c9",
    "priceDuration()": "03cd2571",
    "prices(address)": "cfed246b",
    "renounceOwnership()": "715018a6",
    "renounceRole(bytes32,address)": "36568abe",
    "revokeRole(bytes32,address)": "d547741f",
    "setCompactedPrices(uint256[],uint256)": "03f4d7dc",
    "setIsSpreadEnabled(bool)": "ce98dfa8",
    "setLastUpdatedAt(uint256)": "14dd2dce",
    "setMaxCumulativeDeltaDiffs(address[],uint256[])": "4c0e31c8",
    "setMaxDeviationBasisPoints(uint256)": "82553aad",
    "setMaxPriceUpdateDelay(uint256)": "8b7677f4",
    "setMaxTimeDeviation(uint256)": "776d16c1",
    "setMinBlockInterval(uint256)": "d6a153f1",
    "setPriceDataInterval(uint256)": "2e9cd94b",
    "setPriceDuration(uint256)": "44c23193",
    "setPriceFeed(address)": "724e78da",
    "setPrices(address[],uint256[],uint256)": "782661bc",
    "setPricesAndExecute(address,uint256,uint256,(address,address,uint64,bool,bool)[])": "fcb51252",
    "setPricesWithBits(uint256,uint256)": "17835d1c",
    "setSpreadBasisPointsIfChainError(uint256)": "de0d1b94",
    "setSpreadBasisPointsIfInactive(uint256)": "b70c7b70",
    "setTokens(address[],uint256[])": "c8390a48",
    "spreadBasisPointsIfChainError()": "a6eca896",
    "spreadBasisPointsIfInactive()": "74bfed89",
    "supportsInterface(bytes4)": "01ffc9a7",
    "tokenPrecisions(uint256)": "4d11fb4a",
    "tokens(uint256)": "4f64b2be",
    "transferAdmin(address)": "75829def",
    "transferOwnership(address)": "f2fde38b"
  },
  "id": 69
}