{
  "abi": [
    {
      "inputs": [
        {
          "internalType": "string",
          "name": "name_",
          "type": "string"
        },
        {
          "internalType": "string",
          "name": "symbol_",
          "type": "string"
        }
      ],
      "stateMutability": "nonpayable",
      "type": "constructor"
    },
    {
      "anonymous": false,
      "inputs": [
        {
          "indexed": true,
          "internalType": "address",
          "name": "owner",
          "type": "address"
        },
        {
          "indexed": true,
          "internalType": "address",
          "name": "spender",
          "type": "address"
        },
        {
          "indexed": false,
          "internalType": "uint256",
          "name": "value",
          "type": "uint256"
        }
      ],
      "name": "Approval",
      "type": "event"
    },
    {
      "anonymous": false,
      "inputs": [
        {
          "indexed": false,
          "internalType": "uint8",
          "name": "version",
          "type": "uint8"
        }
      ],
      "name": "Initialized",
      "type": "event"
    },
    {
      "anonymous": false,
      "inputs": [
        {
          "indexed": true,
          "internalType": "address",
          "name": "previousOwner",
          "type": "address"
        },
        {
          "indexed": true,
          "internalType": "address",
          "name": "newOwner",
          "type": "address"
        }
      ],
      "name": "OwnershipTransferred",
      "type": "event"
    },
    {
      "anonymous": false,
      "inputs": [
        {
          "indexed": true,
          "internalType": "bytes32",
          "name": "role",
          "type": "bytes32"
        },
        {
          "indexed": true,
          "internalType": "bytes32",
          "name": "previousAdminRole",
          "type": "bytes32"
        },
        {
          "indexed": true,
          "internalType": "bytes32",
          "name": "newAdminRole",
          "type": "bytes32"
        }
      ],
      "name": "RoleAdminChanged",
      "type": "event"
    },
    {
      "anonymous": false,
      "inputs": [
        {
          "indexed": true,
          "internalType": "bytes32",
          "name": "role",
          "type": "bytes32"
        },
        {
          "indexed": true,
          "internalType": "address",
          "name": "account",
          "type": "address"
        },
        {
          "indexed": true,
          "internalType": "address",
          "name": "sender",
          "type": "address"
        }
      ],
      "name": "RoleGranted",
      "type": "event"
    },
    {
      "anonymous": false,
      "inputs": [
        {
          "indexed": true,
          "internalType": "bytes32",
          "name": "role",
          "type": "bytes32"
        },
        {
          "indexed": true,
          "internalType": "address",
          "name": "account",
          "type": "address"
        },
        {
          "indexed": true,
          "internalType": "address",
          "name": "sender",
          "type": "address"
        }
      ],
      "name": "RoleRevoked",
      "type": "event"
    },
    {
      "anonymous": false,
      "inputs": [
        {
          "indexed": true,
          "internalType": "address",
          "name": "from",
          "type": "address"
        },
        {
          "indexed": true,
          "internalType": "address",
          "name": "to",
          "type": "address"
        },
        {
          "indexed": false,
          "internalType": "uint256",
          "name": "value",
          "type": "uint256"
        }
      ],
      "name": "Transfer",
      "type": "event"
    },
    {
      "inputs": [],
      "name": "BLE",
      "outputs": [
        {
          "internalType": "address",
          "name": "",
          "type": "address"
        }
      ],
      "stateMutability": "view",
      "type": "function"
    },
    {
      "inputs": [],
      "name": "DEFAULT_ADMIN_ROLE",
      "outputs": [
        {
          "internalType": "bytes32",
          "name": "",
          "type": "bytes32"
        }
      ],
      "stateMutability": "view",
      "type": "function"
    },
    {
      "inputs": [
        {
          "internalType": "address",
          "name": "owner",
          "type": "address"
        },
        {
          "internalType": "address",
          "name": "spender",
          "type": "address"
        }
      ],
      "name": "allowance",
      "outputs": [
        {
          "internalType": "uint256",
          "name": "",
          "type": "uint256"
        }
      ],
      "stateMutability": "view",
      "type": "function"
    },
    {
      "inputs": [
        {
          "internalType": "address",
          "name": "spender",
          "type": "address"
        },
        {
          "internalType": "uint256",
          "name": "amount",
          "type": "uint256"
        }
      ],
      "name": "approve",
      "outputs": [
        {
          "internalType": "bool",
          "name": "",
          "type": "bool"
        }
      ],
      "stateMutability": "nonpayable",
      "type": "function"
    },
    {
      "inputs": [
        {
          "internalType": "address",
          "name": "account",
          "type": "address"
        }
      ],
      "name": "balanceOf",
      "outputs": [
        {
          "internalType": "uint256",
          "name": "",
          "type": "uint256"
        }
      ],
      "stateMutability": "view",
      "type": "function"
    },
    {
      "inputs": [
        {
          "internalType": "address",
          "name": "account",
          "type": "address"
        }
      ],
      "name": "claimForAccount",
      "outputs": [],
      "stateMutability": "nonpayable",
      "type": "function"
    },
    {
      "inputs": [],
      "name": "decimals",
      "outputs": [
        {
          "internalType": "uint8",
          "name": "",
          "type": "uint8"
        }
      ],
      "stateMutability": "view",
      "type": "function"
    },
    {
      "inputs": [
        {
          "internalType": "address",
          "name": "spender",
          "type": "address"
        },
        {
          "internalType": "uint256",
          "name": "subtractedValue",
          "type": "uint256"
        }
      ],
      "name": "decreaseAllowance",
      "outputs": [
        {
          "internalType": "bool",
          "name": "",
          "type": "bool"
        }
      ],
      "stateMutability": "nonpayable",
      "type": "function"
    },
    {
      "inputs": [
        {
          "internalType": "bytes32",
          "name": "role",
          "type": "bytes32"
        }
      ],
      "name": "getRoleAdmin",
      "outputs": [
        {
          "internalType": "bytes32",
          "name": "",
          "type": "bytes32"
        }
      ],
      "stateMutability": "view",
      "type": "function"
    },
    {
      "inputs": [
        {
          "internalType": "address",
          "name": "_account",
          "type": "address"
        }
      ],
      "name": "grantControllerRoleByMarketManager",
      "outputs": [],
      "stateMutability": "nonpayable",
      "type": "function"
    },
    {
      "inputs": [
        {
          "internalType": "bytes32",
          "name": "role",
          "type": "bytes32"
        },
        {
          "internalType": "address",
          "name": "account",
          "type": "address"
        }
      ],
      "name": "grantRole",
      "outputs": [],
      "stateMutability": "nonpayable",
      "type": "function"
    },
    {
      "inputs": [
        {
          "internalType": "bytes32",
          "name": "role",
          "type": "bytes32"
        },
        {
          "internalType": "address",
          "name": "account",
          "type": "address"
        }
      ],
      "name": "hasRole",
      "outputs": [
        {
          "internalType": "bool",
          "name": "",
          "type": "bool"
        }
      ],
      "stateMutability": "view",
      "type": "function"
    },
    {
      "inputs": [
        {
          "internalType": "address",
          "name": "spender",
          "type": "address"
        },
        {
          "internalType": "uint256",
          "name": "addedValue",
          "type": "uint256"
        }
      ],
      "name": "increaseAllowance",
      "outputs": [
        {
          "internalType": "bool",
          "name": "",
          "type": "bool"
        }
      ],
      "stateMutability": "nonpayable",
      "type": "function"
    },
    {
      "inputs": [
        {
          "internalType": "address[]",
          "name": "_as",
          "type": "address[]"
        },
        {
          "internalType": "address",
          "name": "ble",
          "type": "address"
        }
      ],
      "name": "initialize",
      "outputs": [],
      "stateMutability": "nonpayable",
      "type": "function"
    },
    {
      "inputs": [],
      "name": "name",
      "outputs": [
        {
          "internalType": "string",
          "name": "",
          "type": "string"
        }
      ],
      "stateMutability": "view",
      "type": "function"
    },
    {
      "inputs": [],
      "name": "owner",
      "outputs": [
        {
          "internalType": "address",
          "name": "",
          "type": "address"
        }
      ],
      "stateMutability": "view",
      "type": "function"
    },
    {
      "inputs": [],
      "name": "renounceOwnership",
      "outputs": [],
      "stateMutability": "nonpayable",
      "type": "function"
    },
    {
      "inputs": [
        {
          "internalType": "bytes32",
          "name": "",
          "type": "bytes32"
        },
        {
          "internalType": "address",
          "name": "",
          "type": "address"
        }
      ],
      "name": "renounceRole",
      "outputs": [],
      "stateMutability": "nonpayable",
      "type": "function"
    },
    {
      "inputs": [
        {
          "internalType": "bytes32",
          "name": "role",
          "type": "bytes32"
        },
        {
          "internalType": "address",
          "name": "account",
          "type": "address"
        }
      ],
      "name": "revokeRole",
      "outputs": [],
      "stateMutability": "nonpayable",
      "type": "function"
    },
    {
      "inputs": [
        {
          "internalType": "address",
          "name": "acc",
          "type": "address"
        },
        {
          "internalType": "uint256",
          "name": "amount",
          "type": "uint256"
        }
      ],
      "name": "stakeForAccount",
      "outputs": [],
      "stateMutability": "nonpayable",
      "type": "function"
    },
    {
      "inputs": [
        {
          "internalType": "uint256",
          "name": "",
          "type": "uint256"
        }
      ],
      "name": "stakePools",
      "outputs": [
        {
          "internalType": "address",
          "name": "",
          "type": "address"
        }
      ],
      "stateMutability": "view",
      "type": "function"
    },
    {
      "inputs": [
        {
          "internalType": "bytes4",
          "name": "interfaceId",
          "type": "bytes4"
        }
      ],
      "name": "supportsInterface",
      "outputs": [
        {
          "internalType": "bool",
          "name": "",
          "type": "bool"
        }
      ],
      "stateMutability": "view",
      "type": "function"
    },
    {
      "inputs": [],
      "name": "symbol",
      "outputs": [
        {
          "internalType": "string",
          "name": "",
          "type": "string"
        }
      ],
      "stateMutability": "view",
      "type": "function"
    },
    {
      "inputs": [],
      "name": "totalSupply",
      "outputs": [
        {
          "internalType": "uint256",
          "name": "",
          "type": "uint256"
        }
      ],
      "stateMutability": "view",
      "type": "function"
    },
    {
      "inputs": [
        {
          "internalType": "address",
          "name": "to",
          "type": "address"
        },
        {
          "internalType": "uint256",
          "name": "amount",
          "type": "uint256"
        }
      ],
      "name": "transfer",
      "outputs": [
        {
          "internalType": "bool",
          "name": "",
          "type": "bool"
        }
      ],
      "stateMutability": "nonpayable",
      "type": "function"
    },
    {
      "inputs": [
        {
          "internalType": "address",
          "name": "to",
          "type": "address"
        }
      ],
      "name": "transferAdmin",
      "outputs": [],
      "stateMutability": "nonpayable",
      "type": "function"
    },
    {
      "inputs": [
        {
          "internalType": "address",
          "name": "from",
          "type": "address"
        },
        {
          "internalType": "address",
          "name": "to",
          "type": "address"
        },
        {
          "internalType": "uint256",
          "name": "amount",
          "type": "uint256"
        }
      ],
      "name": "transferFrom",
      "outputs": [
        {
          "internalType": "bool",
          "name": "",
          "type": "bool"
        }
      ],
      "stateMutability": "nonpayable",
      "type": "function"
    },
    {
      "inputs": [
        {
          "internalType": "address",
          "name": "newOwner",
          "type": "address"
        }
      ],
      "name": "transferOwnership",
      "outputs": [],
      "stateMutability": "nonpayable",
      "type": "function"
    },
    {
      "inputs": [
        {
          "internalType": "address",
          "name": "acc",
          "type": "address"
        },
        {
          "internalType": "uint256",
          "name": "amount",
          "type": "uint256"
        }
      ],
      "name": "unstakeForAccount",
      "outputs": [],
      "stateMutability": "nonpayable",
      "type": "function"
    }
  ],
  "bytecode": {
    "object": "0x60806040523480156200001157600080fd5b5060405162001d0338038062001d03833981016040819052620000349162000264565b60016000908155829082906200004a3362000089565b6200006081620000db60201b62000bac1760201c565b5060076200006f83826200035d565b5060086200007e82826200035d565b505050505062000429565b600280546001600160a01b038381166001600160a01b0319831681179093556040519116919082907f8be0079c531659141344cd1fd0a4f28419497f9722a3daafe3b4186f6b6457e090600090a35050565b42600355620000ea3362000089565b620000f760003362000107565b6200010460008262000107565b50565b62000113828262000117565b5050565b60008281526001602090815260408083206001600160a01b038516845290915290205460ff16620001135760008281526001602081815260408084206001600160a01b0386168086529252808420805460ff19169093179092559051339285917f2f8788117e7eff1d82e926ec794901d17c78024a50270940304540a733656f0d9190a45050565b634e487b7160e01b600052604160045260246000fd5b600082601f830112620001c757600080fd5b81516001600160401b0380821115620001e457620001e46200019f565b604051601f8301601f19908116603f011681019082821181831017156200020f576200020f6200019f565b816040528381526020925086838588010111156200022c57600080fd5b600091505b8382101562000250578582018301518183018401529082019062000231565b600093810190920192909252949350505050565b600080604083850312156200027857600080fd5b82516001600160401b03808211156200029057600080fd5b6200029e86838701620001b5565b93506020850151915080821115620002b557600080fd5b50620002c485828601620001b5565b9150509250929050565b600181811c90821680620002e357607f821691505b6020821081036200030457634e487b7160e01b600052602260045260246000fd5b50919050565b601f8211156200035857600081815260208120601f850160051c81016020861015620003335750805b601f850160051c820191505b8181101562000354578281556001016200033f565b5050505b505050565b81516001600160401b038111156200037957620003796200019f565b62000391816200038a8454620002ce565b846200030a565b602080601f831160018114620003c95760008415620003b05750858301515b600019600386901b1c1916600185901b17855562000354565b600085815260208120601f198616915b82811015620003fa57888601518255948401946001909101908401620003d9565b5085821015620004195787850151600019600388901b60f8161c191681555b5050505050600190811b01905550565b6118ca80620004396000396000f3fe608060405234801561001057600080fd5b50600436106101cf5760003560e01c8063715018a611610104578063a457c2d7116100a2578063d547741f11610071578063d547741f146103da578063dd62ed3e146103ed578063eedbc77614610400578063f2fde38b1461041357600080fd5b8063a457c2d71461038e578063a9059cbb146103a1578063a9318347146103b4578063afd6a5cc146103c757600080fd5b80638da5cb5b116100de5780638da5cb5b1461035a57806391d148541461036b57806395d89b411461037e578063a217fddf1461038657600080fd5b8063715018a61461032c57806375829def146103345780637fe4a6981461034757600080fd5b80632f2ff15d1161017157806336568abe1161014b57806336568abe146102cf57806339509351146102dd578063462d0b2e146102f057806370a082311461030357600080fd5b80632f2ff15d14610282578063313ce5671461029557806331f57ff2146102a457600080fd5b806318160ddd116101ad57806318160ddd1461022457806323b872dd146102365780632428311814610249578063248a9ca31461025e57600080fd5b806301ffc9a7146101d457806306fdde03146101fc578063095ea7b314610211575b600080fd5b6101e76101e23660046114ad565b610426565b60405190151581526020015b60405180910390f35b61020461045d565b6040516101f391906114fb565b6101e761021f36600461154a565b6104ef565b6006545b6040519081526020016101f3565b6101e7610244366004611574565b610507565b61025c61025736600461154a565b61052b565b005b61022861026c3660046115b0565b6000908152600160208190526040909120015490565b61025c6102903660046115c9565b610681565b604051601281526020016101f3565b6102b76102b23660046115b0565b6106a7565b6040516001600160a01b0390911681526020016101f3565b61025c6101cf3660046115c9565b6101e76102eb36600461154a565b6106d1565b61025c6102fe36600461160b565b6106f3565b6102286103113660046116e2565b6001600160a01b031660009081526004602052604090205490565b61025c610805565b61025c6103423660046116e2565b610819565b61025c6103553660046116e2565b610892565b6002546001600160a01b03166102b7565b6101e76103793660046115c9565b6108bc565b6102046108e7565b610228600081565b6101e761039c36600461154a565b6108f6565b6101e76103af36600461154a565b610971565b600a546102b7906001600160a01b031681565b61025c6103d53660046116e2565b61097f565b61025c6103e83660046115c9565b610a20565b6102286103fb3660046116fd565b610a46565b61025c61040e36600461154a565b610a71565b61025c6104213660046116e2565b610b33565b60006001600160e01b03198216637965db0b60e01b148061045757506301ffc9a760e01b6001600160e01b03198316145b92915050565b60606007805461046c90611727565b80601f016020809104026020016040519081016040528092919081815260200182805461049890611727565b80156104e55780601f106104ba576101008083540402835291602001916104e5565b820191906000526020600020905b8154815290600101906020018083116104c857829003601f168201915b5050505050905090565b6000336104fd818585610bcf565b5060019392505050565b600033610515858285610cf3565b610520858585610d6d565b506001949350505050565b600a546040516323b872dd60e01b81526001600160a01b03848116600483015230602483015260448201849052909116906323b872dd906064016020604051808303816000875af1158015610584573d6000803e3d6000fd5b505050506040513d601f19601f820116820180604052508101906105a89190611761565b506009546105c29083906105bd908490611799565b610f18565b60005b60095481101561067c576000600982815481106105e4576105e46117b0565b6000918252602090912001546001600160a01b03169050610606848285610bcf565b604051630485062360e31b81526001600160a01b03858116600483015260248201859052821690632428311890604401600060405180830381600087803b15801561065057600080fd5b505af1158015610664573d6000803e3d6000fd5b50505050508080610674906117c6565b9150506105c5565b505050565b6000828152600160208190526040909120015461069d81610fd9565b61067c8383610fe3565b600981815481106106b757600080fd5b6000918252602090912001546001600160a01b0316905081565b6000336104fd8185856106e48383610a46565b6106ee91906117df565b610bcf565b7fcb6bc1c12dd43bca8d7dd46d975f913325437d0dcd5978e99d515e4ad39b977261071d81610fd9565b60095460005b8181101561077057600980548061073c5761073c6117f2565b600082815260209020810160001990810180546001600160a01b031916905501905580610768816117c6565b915050610723565b5060005b84518110156107de576009858281518110610791576107916117b0565b60209081029190910181015182546001810184556000938452919092200180546001600160a01b0319166001600160a01b03909216919091179055806107d6816117c6565b915050610774565b5050600a80546001600160a01b0319166001600160a01b0393909316929092179091555050565b61080d61104e565b61081760006110a8565b565b600061082481610fd9565b6001600160a01b03821661086f5760405162461bcd60e51b815260206004820152600d60248201526c217a65726f206164647265737360981b60448201526064015b60405180910390fd5b61087a6000836110fa565b610883826110a8565b61088e600033611104565b5050565b7f8d1089725c0dc266707fa6207730fb801dcd03108bfed7a21099bd303651d2b76101cf81610fd9565b60009182526001602090815260408084206001600160a01b0393909316845291905290205460ff1690565b60606008805461046c90611727565b600033816109048286610a46565b9050838110156109645760405162461bcd60e51b815260206004820152602560248201527f45524332303a2064656372656173656420616c6c6f77616e63652062656c6f77604482015264207a65726f60d81b6064820152608401610866565b6105208286868403610bcf565b6000336104fd818585610d6d565b60005b60095481101561088e576000600982815481106109a1576109a16117b0565b600091825260209091200154604051632bf5a97360e21b81526001600160a01b0385811660048301529091169150819063afd6a5cc90602401600060405180830381600087803b1580156109f457600080fd5b505af1158015610a08573d6000803e3d6000fd5b50505050508080610a18906117c6565b915050610982565b60008281526001602081905260409091200154610a3c81610fd9565b61067c8383611104565b6001600160a01b03918216600090815260056020908152604080832093909416825291909152205490565b60005b600954811015610b1957600060098281548110610a9357610a936117b0565b60009182526020909120015460405163776de3bb60e11b81526001600160a01b038681166004830152602482018690529091169150819063eedbc77690604401600060405180830381600087803b158015610aed57600080fd5b505af1158015610b01573d6000803e3d6000fd5b50505050508080610b11906117c6565b915050610a74565b5060095461088e908390610b2e908490611799565b61116b565b610b3b61104e565b6001600160a01b038116610ba05760405162461bcd60e51b815260206004820152602660248201527f4f776e61626c653a206e6577206f776e657220697320746865207a65726f206160448201526564647265737360d01b6064820152608401610866565b610ba9816110a8565b50565b42600355610bb9336110a8565b610bc46000336110fa565b610ba96000826110fa565b6001600160a01b038316610c315760405162461bcd60e51b8152602060048201526024808201527f45524332303a20617070726f76652066726f6d20746865207a65726f206164646044820152637265737360e01b6064820152608401610866565b6001600160a01b038216610c925760405162461bcd60e51b815260206004820152602260248201527f45524332303a20617070726f766520746f20746865207a65726f206164647265604482015261737360f01b6064820152608401610866565b6001600160a01b0383811660008181526005602090815260408083209487168084529482529182902085905590518481527f8c5be1e5ebec7d5bd14f71427d1e84f3dd0314c0f7b2291e5b200ac8c7c3b925910160405180910390a3505050565b6000610cff8484610a46565b90506000198114610d675781811015610d5a5760405162461bcd60e51b815260206004820152601d60248201527f45524332303a20696e73756666696369656e7420616c6c6f77616e63650000006044820152606401610866565b610d678484848403610bcf565b50505050565b6001600160a01b038316610dd15760405162461bcd60e51b815260206004820152602560248201527f45524332303a207472616e736665722066726f6d20746865207a65726f206164604482015264647265737360d81b6064820152608401610866565b6001600160a01b038216610e335760405162461bcd60e51b815260206004820152602360248201527f45524332303a207472616e7366657220746f20746865207a65726f206164647260448201526265737360e81b6064820152608401610866565b6001600160a01b03831660009081526004602052604090205481811015610eab5760405162461bcd60e51b815260206004820152602660248201527f45524332303a207472616e7366657220616d6f756e7420657863656564732062604482015265616c616e636560d01b6064820152608401610866565b6001600160a01b0380851660008181526004602052604080822086860390559286168082529083902080548601905591517fddf252ad1be2c89b69c2b068fc378daa952ba7f163c4a11628f55a4df523b3ef90610f0b9086815260200190565b60405180910390a3610d67565b6001600160a01b038216610f6e5760405162461bcd60e51b815260206004820152601f60248201527f45524332303a206d696e7420746f20746865207a65726f2061646472657373006044820152606401610866565b8060066000828254610f8091906117df565b90915550506001600160a01b0382166000818152600460209081526040808320805486019055518481527fddf252ad1be2c89b69c2b068fc378daa952ba7f163c4a11628f55a4df523b3ef910160405180910390a35050565b610ba9813361129f565b610fed82826108bc565b61088e5760008281526001602081815260408084206001600160a01b0386168086529252808420805460ff19169093179092559051339285917f2f8788117e7eff1d82e926ec794901d17c78024a50270940304540a733656f0d9190a45050565b6002546001600160a01b031633146108175760405162461bcd60e51b815260206004820181905260248201527f4f776e61626c653a2063616c6c6572206973206e6f7420746865206f776e65726044820152606401610866565b600280546001600160a01b038381166001600160a01b0319831681179093556040519116919082907f8be0079c531659141344cd1fd0a4f28419497f9722a3daafe3b4186f6b6457e090600090a35050565b61088e8282610fe3565b61110e82826108bc565b1561088e5760008281526001602090815260408083206001600160a01b0385168085529252808320805460ff1916905551339285917ff6391f5c32d9c69d2a47ea670b442974b53935d1edc7fd64eb21e047a839171b9190a45050565b6001600160a01b0382166111cb5760405162461bcd60e51b815260206004820152602160248201527f45524332303a206275726e2066726f6d20746865207a65726f206164647265736044820152607360f81b6064820152608401610866565b6001600160a01b0382166000908152600460205260409020548181101561123f5760405162461bcd60e51b815260206004820152602260248201527f45524332303a206275726e20616d6f756e7420657863656564732062616c616e604482015261636560f01b6064820152608401610866565b6001600160a01b03831660008181526004602090815260408083208686039055600680548790039055518581529192917fddf252ad1be2c89b69c2b068fc378daa952ba7f163c4a11628f55a4df523b3ef910160405180910390a3505050565b6112a982826108bc565b61088e576112b6816112f8565b6112c183602061130a565b6040516020016112d2929190611808565b60408051601f198184030181529082905262461bcd60e51b8252610866916004016114fb565b60606104576001600160a01b03831660145b60606000611319836002611799565b6113249060026117df565b67ffffffffffffffff81111561133c5761133c6115f5565b6040519080825280601f01601f191660200182016040528015611366576020820181803683370190505b509050600360fc1b81600081518110611381576113816117b0565b60200101906001600160f81b031916908160001a905350600f60fb1b816001815181106113b0576113b06117b0565b60200101906001600160f81b031916908160001a90535060006113d4846002611799565b6113df9060016117df565b90505b6001811115611457576f181899199a1a9b1b9c1cb0b131b232b360811b85600f1660108110611413576114136117b0565b1a60f81b828281518110611429576114296117b0565b60200101906001600160f81b031916908160001a90535060049490941c936114508161187d565b90506113e2565b5083156114a65760405162461bcd60e51b815260206004820181905260248201527f537472696e67733a20686578206c656e67746820696e73756666696369656e746044820152606401610866565b9392505050565b6000602082840312156114bf57600080fd5b81356001600160e01b0319811681146114a657600080fd5b60005b838110156114f25781810151838201526020016114da565b50506000910152565b602081526000825180602084015261151a8160408501602087016114d7565b601f01601f19169190910160400192915050565b80356001600160a01b038116811461154557600080fd5b919050565b6000806040838503121561155d57600080fd5b6115668361152e565b946020939093013593505050565b60008060006060848603121561158957600080fd5b6115928461152e565b92506115a06020850161152e565b9150604084013590509250925092565b6000602082840312156115c257600080fd5b5035919050565b600080604083850312156115dc57600080fd5b823591506115ec6020840161152e565b90509250929050565b634e487b7160e01b600052604160045260246000fd5b6000806040838503121561161e57600080fd5b823567ffffffffffffffff8082111561163657600080fd5b818501915085601f83011261164a57600080fd5b813560208282111561165e5761165e6115f5565b8160051b604051601f19603f83011681018181108682111715611683576116836115f5565b6040529283528183019350848101820192898411156116a157600080fd5b948201945b838610156116c6576116b78661152e565b855294820194938201936116a6565b96506116d5905087820161152e565b9450505050509250929050565b6000602082840312156116f457600080fd5b6114a68261152e565b6000806040838503121561171057600080fd5b6117198361152e565b91506115ec6020840161152e565b600181811c9082168061173b57607f821691505b60208210810361175b57634e487b7160e01b600052602260045260246000fd5b50919050565b60006020828403121561177357600080fd5b815180151581146114a657600080fd5b634e487b7160e01b600052601160045260246000fd5b808202811582820484141761045757610457611783565b634e487b7160e01b600052603260045260246000fd5b6000600182016117d8576117d8611783565b5060010190565b8082018082111561045757610457611783565b634e487b7160e01b600052603160045260246000fd5b7f416363657373436f6e74726f6c3a206163636f756e74200000000000000000008152600083516118408160178501602088016114d7565b7001034b99036b4b9b9b4b733903937b6329607d1b60179184019182015283516118718160288401602088016114d7565b01602801949350505050565b60008161188c5761188c611783565b50600019019056fea26469706673582212206fe13a6cfb923a782b23d18fa9ca0520c6035999f05bdc05e83515ab2c66813764736f6c63430008110033",
    "linkReferences": {}
  },
  "methodIdentifiers": {
    "BLE()": "a9318347",
    "DEFAULT_ADMIN_ROLE()": "a217fddf",
    "allowance(address,address)": "dd62ed3e",
    "approve(address,uint256)": "095ea7b3",
    "balanceOf(address)": "70a08231",
    "claimForAccount(address)": "afd6a5cc",
    "decimals()": "313ce567",
    "decreaseAllowance(address,uint256)": "a457c2d7",
    "getRoleAdmin(bytes32)": "248a9ca3",
    "grantControllerRoleByMarketManager(address)": "7fe4a698",
    "grantRole(bytes32,address)": "2f2ff15d",
    "hasRole(bytes32,address)": "91d14854",
    "increaseAllowance(address,uint256)": "39509351",
    "initialize(address[],address)": "462d0b2e",
    "name()": "06fdde03",
    "owner()": "8da5cb5b",
    "renounceOwnership()": "715018a6",
    "renounceRole(bytes32,address)": "36568abe",
    "revokeRole(bytes32,address)": "d547741f",
    "stakeForAccount(address,uint256)": "24283118",
    "stakePools(uint256)": "31f57ff2",
    "supportsInterface(bytes4)": "01ffc9a7",
    "symbol()": "95d89b41",
    "totalSupply()": "18160ddd",
    "transfer(address,uint256)": "a9059cbb",
    "transferAdmin(address)": "75829def",
    "transferFrom(address,address,uint256)": "23b872dd",
    "transferOwnership(address)": "f2fde38b",
    "unstakeForAccount(address,uint256)": "eedbc776"
  },
  "id": 90
}