{
  "abi": [
    {
      "inputs": [
        {
          "internalType": "bytes32",
          "name": "",
          "type": "bytes32"
        },
        {
          "internalType": "uint8",
          "name": "",
          "type": "uint8"
        }
      ],
      "name": "accountFees",
      "outputs": [
        {
          "internalType": "int256",
          "name": "",
          "type": "int256"
        }
      ],
      "stateMutability": "view",
      "type": "function"
    },
    {
      "inputs": [
        {
          "internalType": "address",
          "name": "",
          "type": "address"
        },
        {
          "internalType": "bool",
          "name": "",
          "type": "bool"
        }
      ],
      "name": "cumulativeFundingRates",
      "outputs": [
        {
          "internalType": "int256",
          "name": "",
          "type": "int256"
        }
      ],
      "stateMutability": "view",
      "type": "function"
    },
    {
      "inputs": [
        {
          "internalType": "address",
          "name": "",
          "type": "address"
        },
        {
          "internalType": "bool",
          "name": "",
          "type": "bool"
        }
      ],
      "name": "fundingRates",
      "outputs": [
        {
          "internalType": "int256",
          "name": "",
          "type": "int256"
        }
      ],
      "stateMutability": "view",
      "type": "function"
    },
    {
      "inputs": [
        {
          "internalType": "bytes32",
          "name": "key",
          "type": "bytes32"
        },
        {
          "internalType": "uint8",
          "name": "kind",
          "type": "uint8"
        },
        {
          "internalType": "int256",
          "name": "fee",
          "type": "int256"
        }
      ],
      "name": "increaseFee",
      "outputs": [],
      "stateMutability": "nonpayable",
      "type": "function"
    },
    {
      "inputs": [
        {
          "internalType": "address",
          "name": "",
          "type": "address"
        }
      ],
      "name": "lastFundingTimes",
      "outputs": [
        {
          "internalType": "uint256",
          "name": "",
          "type": "uint256"
        }
      ],
      "stateMutability": "view",
      "type": "function"
    },
    {
      "inputs": [
        {
          "internalType": "address",
          "name": "market",
          "type": "address"
        },
        {
          "internalType": "bool",
          "name": "isLong",
          "type": "bool"
        },
        {
          "internalType": "int256",
          "name": "rate",
          "type": "int256"
        }
      ],
      "name": "setCumulativeFundingRates",
      "outputs": [],
      "stateMutability": "nonpayable",
      "type": "function"
    },
    {
      "inputs": [
        {
          "internalType": "address",
          "name": "market",
          "type": "address"
        },
        {
          "internalType": "int256",
          "name": "longRate",
          "type": "int256"
        },
        {
          "internalType": "int256",
          "name": "shortRate",
          "type": "int256"
        },
        {
          "internalType": "int256",
          "name": "nextLongRate",
          "type": "int256"
        },
        {
          "internalType": "int256",
          "name": "nextShortRate",
          "type": "int256"
        },
        {
          "internalType": "uint256",
          "name": "timestamp",
          "type": "uint256"
        }
      ],
      "name": "updateGlobalFundingRate",
      "outputs": [],
      "stateMutability": "nonpayable",
      "type": "function"
    }
  ],
  "bytecode": {
    "object": "0x608060405234801561001057600080fd5b506104d8806100206000396000f3fe608060405234801561001057600080fd5b506004361061007d5760003560e01c8063b21bf2d31161005b578063b21bf2d3146100fc578063d8f897c31461010f578063fbbf57f91461012f578063ffb3bf631461014257600080fd5b80631376c3c31461008257806334f32e25146100bc578063644cd7ca146100e7575b600080fd5b6100aa610090366004610322565b600060208181529281526040808220909352908152205481565b60405190815260200160405180910390f35b6100aa6100ca366004610375565b600160209081526000928352604080842090915290825290205481565b6100fa6100f536600461039f565b61016d565b005b6100fa61010a3660046103d4565b6101c4565b6100aa61011d36600461041e565b60036020526000908152604090205481565b6100fa61013d366004610440565b610299565b6100aa610150366004610375565b600260209081526000928352604080842090915290825290205481565b8060000361017a57505050565b60008381526020818152604080832060ff8616845290915290205461019f828261046c565b60009485526020858152604080872060ff909616875294905292909320919091555050565b6001600160a01b03861660009081526001602081815260408084209284529190529020546101f390849061046c565b6001600160a01b038716600081815260016020818152604080842083855280835281852096909655938352600281528383209183529081528282208990558180529290925290205461024690839061046c565b6001600160a01b0390961660008181526001602090815260408083208380528252808320999099558282526002815288822082805281528882209690965590815260039094529490922093909355505050565b6001600160a01b0383166102e45760405162461bcd60e51b815260206004820152600e60248201526d1a5b9d985b1a59081b585c9ad95d60921b604482015260640160405180910390fd5b6001600160a01b03909216600090815260016020908152604080832093151583529290522055565b803560ff8116811461031d57600080fd5b919050565b6000806040838503121561033557600080fd5b823591506103456020840161030c565b90509250929050565b80356001600160a01b038116811461031d57600080fd5b8035801515811461031d57600080fd5b6000806040838503121561038857600080fd5b6103918361034e565b915061034560208401610365565b6000806000606084860312156103b457600080fd5b833592506103c46020850161030c565b9150604084013590509250925092565b60008060008060008060c087890312156103ed57600080fd5b6103f68761034e565b9860208801359850604088013597606081013597506080810135965060a00135945092505050565b60006020828403121561043057600080fd5b6104398261034e565b9392505050565b60008060006060848603121561045557600080fd5b61045e8461034e565b92506103c460208501610365565b808201828112600083128015821682158216171561049a57634e487b7160e01b600052601160045260246000fd5b50509291505056fea2646970667358221220ea3a43a7448679ce2e5c436693b0b0ad99f61fc6f2b7f45e409cb91d3af8f6ac64736f6c63430008110033",
    "linkReferences": {}
  },
  "methodIdentifiers": {
    "accountFees(bytes32,uint8)": "1376c3c3",
    "cumulativeFundingRates(address,bool)": "34f32e25",
    "fundingRates(address,bool)": "ffb3bf63",
    "increaseFee(bytes32,uint8,int256)": "644cd7ca",
    "lastFundingTimes(address)": "d8f897c3",
    "setCumulativeFundingRates(address,bool,int256)": "fbbf57f9",
    "updateGlobalFundingRate(address,int256,int256,int256,int256,uint256)": "b21bf2d3"
  },
  "id": 39
}