{
  "abi": [
    {
      "inputs": [],
      "stateMutability": "nonpayable",
      "type": "constructor"
    },
    {
      "anonymous": false,
      "inputs": [
        {
          "indexed": false,
          "internalType": "uint8",
          "name": "version",
          "type": "uint8"
        }
      ],
      "name": "Initialized",
      "type": "event"
    },
    {
      "anonymous": false,
      "inputs": [
        {
          "indexed": true,
          "internalType": "address",
          "name": "previousOwner",
          "type": "address"
        },
        {
          "indexed": true,
          "internalType": "address",
          "name": "newOwner",
          "type": "address"
        }
      ],
      "name": "OwnershipTransferred",
      "type": "event"
    },
    {
      "anonymous": false,
      "inputs": [
        {
          "indexed": true,
          "internalType": "bytes32",
          "name": "role",
          "type": "bytes32"
        },
        {
          "indexed": true,
          "internalType": "bytes32",
          "name": "previousAdminRole",
          "type": "bytes32"
        },
        {
          "indexed": true,
          "internalType": "bytes32",
          "name": "newAdminRole",
          "type": "bytes32"
        }
      ],
      "name": "RoleAdminChanged",
      "type": "event"
    },
    {
      "anonymous": false,
      "inputs": [
        {
          "indexed": true,
          "internalType": "bytes32",
          "name": "role",
          "type": "bytes32"
        },
        {
          "indexed": true,
          "internalType": "address",
          "name": "account",
          "type": "address"
        },
        {
          "indexed": true,
          "internalType": "address",
          "name": "sender",
          "type": "address"
        }
      ],
      "name": "RoleGranted",
      "type": "event"
    },
    {
      "anonymous": false,
      "inputs": [
        {
          "indexed": true,
          "internalType": "bytes32",
          "name": "role",
          "type": "bytes32"
        },
        {
          "indexed": true,
          "internalType": "address",
          "name": "account",
          "type": "address"
        },
        {
          "indexed": true,
          "internalType": "address",
          "name": "sender",
          "type": "address"
        }
      ],
      "name": "RoleRevoked",
      "type": "event"
    },
    {
      "inputs": [],
      "name": "DEFAULT_ADMIN_ROLE",
      "outputs": [
        {
          "internalType": "bytes32",
          "name": "",
          "type": "bytes32"
        }
      ],
      "stateMutability": "view",
      "type": "function"
    },
    {
      "inputs": [],
      "name": "PLUGIN_GAS_LIMIT",
      "outputs": [
        {
          "internalType": "uint256",
          "name": "",
          "type": "uint256"
        }
      ],
      "stateMutability": "view",
      "type": "function"
    },
    {
      "inputs": [],
      "name": "collateralToken",
      "outputs": [
        {
          "internalType": "address",
          "name": "",
          "type": "address"
        }
      ],
      "stateMutability": "view",
      "type": "function"
    },
    {
      "inputs": [],
      "name": "collateralTokenDigits",
      "outputs": [
        {
          "internalType": "uint8",
          "name": "",
          "type": "uint8"
        }
      ],
      "stateMutability": "view",
      "type": "function"
    },
    {
      "inputs": [
        {
          "components": [
            {
              "internalType": "uint8",
              "name": "version",
              "type": "uint8"
            },
            {
              "internalType": "uint32",
              "name": "updatedAtBlock",
              "type": "uint32"
            },
            {
              "internalType": "uint8",
              "name": "triggerAbove",
              "type": "uint8"
            },
            {
              "internalType": "address",
              "name": "account",
              "type": "address"
            },
            {
              "internalType": "uint48",
              "name": "extra3",
              "type": "uint48"
            },
            {
              "internalType": "uint128",
              "name": "collateral",
              "type": "uint128"
            },
            {
              "internalType": "uint128",
              "name": "size",
              "type": "uint128"
            },
            {
              "internalType": "uint128",
              "name": "price",
              "type": "uint128"
            },
            {
              "internalType": "uint128",
              "name": "extra1",
              "type": "uint128"
            },
            {
              "internalType": "uint64",
              "name": "orderID",
              "type": "uint64"
            },
            {
              "internalType": "uint64",
              "name": "extra2",
              "type": "uint64"
            },
            {
              "internalType": "uint128",
              "name": "extra0",
              "type": "uint128"
            },
            {
              "internalType": "bytes32",
              "name": "refCode",
              "type": "bytes32"
            }
          ],
          "internalType": "struct Order.Props",
          "name": "exeOrder",
          "type": "tuple"
        },
        {
          "components": [
            {
              "internalType": "address",
              "name": "_market",
              "type": "address"
            },
            {
              "internalType": "bool",
              "name": "_isLong",
              "type": "bool"
            },
            {
              "internalType": "uint256",
              "name": "_oraclePrice",
              "type": "uint256"
            },
            {
              "internalType": "bool",
              "name": "isOpen",
              "type": "bool"
            },
            {
              "internalType": "address",
              "name": "_account",
              "type": "address"
            },
            {
              "internalType": "uint256",
              "name": "_sizeDelta",
              "type": "uint256"
            },
            {
              "internalType": "uint256",
              "name": "_price",
              "type": "uint256"
            },
            {
              "internalType": "uint256",
              "name": "_slippage",
              "type": "uint256"
            },
            {
              "internalType": "bool",
              "name": "_isExec",
              "type": "bool"
            },
            {
              "internalType": "uint8",
              "name": "liqState",
              "type": "uint8"
            },
            {
              "internalType": "uint64",
              "name": "_fromOrder",
              "type": "uint64"
            },
            {
              "internalType": "bytes32",
              "name": "_refCode",
              "type": "bytes32"
            },
            {
              "internalType": "uint256",
              "name": "collateralDelta",
              "type": "uint256"
            },
            {
              "internalType": "uint8",
              "name": "execNum",
              "type": "uint8"
            },
            {
              "internalType": "uint256[]",
              "name": "inputs",
              "type": "uint256[]"
            }
          ],
          "internalType": "struct MarketDataTypes.UpdatePositionInputs",
          "name": "_params",
          "type": "tuple"
        }
      ],
      "name": "execOrderKey",
      "outputs": [],
      "stateMutability": "nonpayable",
      "type": "function"
    },
    {
      "inputs": [],
      "name": "feeRouter",
      "outputs": [
        {
          "internalType": "contract IFeeRouter",
          "name": "",
          "type": "address"
        }
      ],
      "stateMutability": "view",
      "type": "function"
    },
    {
      "inputs": [
        {
          "internalType": "bytes32",
          "name": "role",
          "type": "bytes32"
        }
      ],
      "name": "getRoleAdmin",
      "outputs": [
        {
          "internalType": "bytes32",
          "name": "",
          "type": "bytes32"
        }
      ],
      "stateMutability": "view",
      "type": "function"
    },
    {
      "inputs": [],
      "name": "globalValid",
      "outputs": [
        {
          "internalType": "address",
          "name": "",
          "type": "address"
        }
      ],
      "stateMutability": "view",
      "type": "function"
    },
    {
      "inputs": [
        {
          "internalType": "address",
          "name": "_account",
          "type": "address"
        }
      ],
      "name": "grantControllerRoleByMarketManager",
      "outputs": [],
      "stateMutability": "nonpayable",
      "type": "function"
    },
    {
      "inputs": [
        {
          "internalType": "bytes32",
          "name": "role",
          "type": "bytes32"
        },
        {
          "internalType": "address",
          "name": "account",
          "type": "address"
        }
      ],
      "name": "grantRole",
      "outputs": [],
      "stateMutability": "nonpayable",
      "type": "function"
    },
    {
      "inputs": [
        {
          "internalType": "bytes32",
          "name": "role",
          "type": "bytes32"
        },
        {
          "internalType": "address",
          "name": "account",
          "type": "address"
        }
      ],
      "name": "hasRole",
      "outputs": [
        {
          "internalType": "bool",
          "name": "",
          "type": "bool"
        }
      ],
      "stateMutability": "view",
      "type": "function"
    },
    {
      "inputs": [
        {
          "components": [
            {
              "internalType": "address",
              "name": "_market",
              "type": "address"
            },
            {
              "internalType": "bool",
              "name": "_isLong",
              "type": "bool"
            },
            {
              "internalType": "uint256",
              "name": "_oraclePrice",
              "type": "uint256"
            },
            {
              "internalType": "bool",
              "name": "isOpen",
              "type": "bool"
            },
            {
              "internalType": "address",
              "name": "_account",
              "type": "address"
            },
            {
              "internalType": "uint256",
              "name": "_sizeDelta",
              "type": "uint256"
            },
            {
              "internalType": "uint256",
              "name": "_price",
              "type": "uint256"
            },
            {
              "internalType": "uint256",
              "name": "_slippage",
              "type": "uint256"
            },
            {
              "internalType": "bool",
              "name": "_isExec",
              "type": "bool"
            },
            {
              "internalType": "uint8",
              "name": "liqState",
              "type": "uint8"
            },
            {
              "internalType": "uint64",
              "name": "_fromOrder",
              "type": "uint64"
            },
            {
              "internalType": "bytes32",
              "name": "_refCode",
              "type": "bytes32"
            },
            {
              "internalType": "uint256",
              "name": "collateralDelta",
              "type": "uint256"
            },
            {
              "internalType": "uint8",
              "name": "execNum",
              "type": "uint8"
            },
            {
              "internalType": "uint256[]",
              "name": "inputs",
              "type": "uint256[]"
            }
          ],
          "internalType": "struct MarketDataTypes.UpdatePositionInputs",
          "name": "_inputs",
          "type": "tuple"
        }
      ],
      "name": "increasePositionWithOrders",
      "outputs": [],
      "stateMutability": "nonpayable",
      "type": "function"
    },
    {
      "inputs": [],
      "name": "indexToken",
      "outputs": [
        {
          "internalType": "address",
          "name": "",
          "type": "address"
        }
      ],
      "stateMutability": "view",
      "type": "function"
    },
    {
      "inputs": [],
      "name": "marketRouter",
      "outputs": [
        {
          "internalType": "address",
          "name": "",
          "type": "address"
        }
      ],
      "stateMutability": "view",
      "type": "function"
    },
    {
      "inputs": [],
      "name": "marketValid",
      "outputs": [
        {
          "internalType": "address",
          "name": "",
          "type": "address"
        }
      ],
      "stateMutability": "view",
      "type": "function"
    },
    {
      "inputs": [],
      "name": "name",
      "outputs": [
        {
          "internalType": "string",
          "name": "",
          "type": "string"
        }
      ],
      "stateMutability": "view",
      "type": "function"
    },
    {
      "inputs": [],
      "name": "orderBookLong",
      "outputs": [
        {
          "internalType": "contract IOrderBook",
          "name": "",
          "type": "address"
        }
      ],
      "stateMutability": "view",
      "type": "function"
    },
    {
      "inputs": [],
      "name": "orderBookShort",
      "outputs": [
        {
          "internalType": "contract IOrderBook",
          "name": "",
          "type": "address"
        }
      ],
      "stateMutability": "view",
      "type": "function"
    },
    {
      "inputs": [],
      "name": "orderMgr",
      "outputs": [
        {
          "internalType": "address",
          "name": "",
          "type": "address"
        }
      ],
      "stateMutability": "view",
      "type": "function"
    },
    {
      "inputs": [
        {
          "internalType": "bool",
          "name": "isLong",
          "type": "bool"
        },
        {
          "internalType": "bool",
          "name": "isOpen",
          "type": "bool"
        }
      ],
      "name": "orderStore",
      "outputs": [
        {
          "internalType": "contract IOrderStore",
          "name": "",
          "type": "address"
        }
      ],
      "stateMutability": "view",
      "type": "function"
    },
    {
      "inputs": [],
      "name": "owner",
      "outputs": [
        {
          "internalType": "address",
          "name": "",
          "type": "address"
        }
      ],
      "stateMutability": "view",
      "type": "function"
    },
    {
      "inputs": [
        {
          "internalType": "uint256",
          "name": "",
          "type": "uint256"
        }
      ],
      "name": "plugins",
      "outputs": [
        {
          "internalType": "address",
          "name": "",
          "type": "address"
        }
      ],
      "stateMutability": "view",
      "type": "function"
    },
    {
      "inputs": [],
      "name": "positionAddMgr",
      "outputs": [
        {
          "internalType": "address",
          "name": "",
          "type": "address"
        }
      ],
      "stateMutability": "view",
      "type": "function"
    },
    {
      "inputs": [],
      "name": "positionBook",
      "outputs": [
        {
          "internalType": "contract IPositionBook",
          "name": "",
          "type": "address"
        }
      ],
      "stateMutability": "view",
      "type": "function"
    },
    {
      "inputs": [],
      "name": "positionStoreLong",
      "outputs": [
        {
          "internalType": "address",
          "name": "",
          "type": "address"
        }
      ],
      "stateMutability": "view",
      "type": "function"
    },
    {
      "inputs": [],
      "name": "positionStoreShort",
      "outputs": [
        {
          "internalType": "address",
          "name": "",
          "type": "address"
        }
      ],
      "stateMutability": "view",
      "type": "function"
    },
    {
      "inputs": [],
      "name": "positionSubMgr",
      "outputs": [
        {
          "internalType": "address",
          "name": "",
          "type": "address"
        }
      ],
      "stateMutability": "view",
      "type": "function"
    },
    {
      "inputs": [],
      "name": "priceFeed",
      "outputs": [
        {
          "internalType": "address",
          "name": "",
          "type": "address"
        }
      ],
      "stateMutability": "view",
      "type": "function"
    },
    {
      "inputs": [],
      "name": "renounceOwnership",
      "outputs": [],
      "stateMutability": "nonpayable",
      "type": "function"
    },
    {
      "inputs": [
        {
          "internalType": "bytes32",
          "name": "",
          "type": "bytes32"
        },
        {
          "internalType": "address",
          "name": "",
          "type": "address"
        }
      ],
      "name": "renounceRole",
      "outputs": [],
      "stateMutability": "nonpayable",
      "type": "function"
    },
    {
      "inputs": [
        {
          "internalType": "bytes32",
          "name": "role",
          "type": "bytes32"
        },
        {
          "internalType": "address",
          "name": "account",
          "type": "address"
        }
      ],
      "name": "revokeRole",
      "outputs": [],
      "stateMutability": "nonpayable",
      "type": "function"
    },
    {
      "inputs": [
        {
          "internalType": "bytes4",
          "name": "interfaceId",
          "type": "bytes4"
        }
      ],
      "name": "supportsInterface",
      "outputs": [
        {
          "internalType": "bool",
          "name": "",
          "type": "bool"
        }
      ],
      "stateMutability": "view",
      "type": "function"
    },
    {
      "inputs": [
        {
          "internalType": "address",
          "name": "to",
          "type": "address"
        }
      ],
      "name": "transferAdmin",
      "outputs": [],
      "stateMutability": "nonpayable",
      "type": "function"
    },
    {
      "inputs": [
        {
          "internalType": "address",
          "name": "newOwner",
          "type": "address"
        }
      ],
      "name": "transferOwnership",
      "outputs": [],
      "stateMutability": "nonpayable",
      "type": "function"
    },
    {
      "inputs": [],
      "name": "vaultRouter",
      "outputs": [
        {
          "internalType": "address",
          "name": "",
          "type": "address"
        }
      ],
      "stateMutability": "view",
      "type": "function"
    }
  ],
  "bytecode": {
    "object": "0x60806040523480156200001157600080fd5b5060016046556000620000243362000041565b6200003a816200009360201b62000d491760201c565b5062000173565b604880546001600160a01b038381166001600160a01b0319831681179093556040519116919082907f8be0079c531659141344cd1fd0a4f28419497f9722a3daafe3b4186f6b6457e090600090a35050565b42604955620000a23362000041565b620000af600033620000bf565b620000bc600082620000bf565b50565b620000cb8282620000cf565b5050565b60008281526047602090815260408083206001600160a01b038516845290915290205460ff16620000cb5760008281526047602090815260408083206001600160a01b03851684529091529020805460ff191660011790556200012f3390565b6001600160a01b0316816001600160a01b0316837f2f8788117e7eff1d82e926ec794901d17c78024a50270940304540a733656f0d60405160405180910390a45050565b613dfb80620001836000396000f3fe608060405234801561001057600080fd5b50600436106102115760003560e01c80638da5cb5b11610125578063c54dc3d6116100ad578063d547741f1161007c578063d547741f146104aa578063e7d015f2146104bd578063f0a317eb146104d0578063f29ebf61146104e3578063f2fde38b146104f657600080fd5b8063c54dc3d61461045e578063d12dbde414610471578063d37c441c14610484578063d49ff78d1461049757600080fd5b8063a2640454116100f4578063a2640454146103ce578063ac0b05a614610406578063b2016bd414610419578063b21dc9cb1461042c578063b894300d1461044b57600080fd5b80638da5cb5b1461038f57806391d14854146103a0578063a0cbf50c146103b3578063a217fddf146103c657600080fd5b80633bdef83a116101a8578063741bef1a11610177578063741bef1a1461033057806375829def146103435780637b2fd1e5146103565780637fe4a698146103695780638a6ca35d1461037c57600080fd5b80633bdef83a146102f857806345ccf5c51461030b57806363cd8dbd1461031e578063715018a61461032857600080fd5b806312de276c116101e457806312de276c14610291578063248a9ca3146102a65780632f2ff15d146102d757806336568abe146102ea57600080fd5b806301ffc9a71461021657806305ba9ae91461023e57806306fdde031461026957806307e875451461027e575b600080fd5b610229610224366004612b77565b610509565b60405190151581526020015b60405180910390f35b600654610251906001600160a01b031681565b6040516001600160a01b039091168152602001610235565b610271610540565b6040516102359190612bf1565b600a54610251906001600160a01b031681565b6102a461029f366004612f2f565b6105ce565b005b6102c96102b4366004613063565b60009081526047602052604090206001015490565b604051908152602001610235565b6102a46102e536600461307c565b61063b565b6102a461021136600461307c565b6102a46103063660046130ac565b610665565b600b54610251906001600160a01b031681565b6102c9620a2c2a81565b6102a4610ba8565b600954610251906001600160a01b031681565b6102a46103513660046130e8565b610bbc565b600554610251906001600160a01b031681565b6102a46103773660046130e8565b610c2c565b600e54610251906001600160a01b031681565b6048546001600160a01b0316610251565b6102296103ae36600461307c565b610c56565b600f54610251906001600160a01b031681565b6102c9600081565b6102516103dc366004613105565b9015156000908152600760209081526040808320931515835292905220546001600160a01b031690565b600354610251906001600160a01b031681565b600454610251906001600160a01b031681565b6013546104399060ff1681565b60405160ff9091168152602001610235565b600054610251906001600160a01b031681565b600154610251906001600160a01b031681565b601054610251906001600160a01b031681565b600c54610251906001600160a01b031681565b600d54610251906001600160a01b031681565b6102a46104b836600461307c565b610c81565b600254610251906001600160a01b031681565b6102516104de366004613063565b610ca6565b600854610251906001600160a01b031681565b6102a46105043660046130e8565b610cd0565b60006001600160e01b03198216637965db0b60e01b148061053a57506301ffc9a760e01b6001600160e01b03198316145b92915050565b6011805461054d90613133565b80601f016020809104026020016040519081016040528092919081815260200182805461057990613133565b80156105c65780601f1061059b576101008083540402835291602001916105c6565b820191906000526020600020905b8154815290600101906020018083116105a957829003601f168201915b505050505081565b6105d782610d6c565b806060015161062d5760405162461bcd60e51b815260206004820152601d60248201527f506f736974696f6e4164644d67723a696e76616c69642069736f70656e00000060448201526064015b60405180910390fd5b6106378282610e0c565b5050565b60008281526047602052604090206001015461065681611124565b610660838361112e565b505050565b61066e816111b4565b15156000036106cd57806101000151156106855750565b60405162461bcd60e51b815260206004820152601d60248201527f506f736974696f6e4164644d67723a696e76616c696420706172616d730000006044820152606401610624565b60005461018082015160405163015fc61360e01b815260048101919091526001600160a01b039091169063015fc6139060240160006040518083038186803b15801561071857600080fd5b505afa15801561072c573d6000803e3d6000fd5b505050508060e00151600014801561075057506101408101516001600160401b0316155b1561075d57601e60e08201525b61076a81602001516111d9565b6040820152600354608082015160a08301516000926001600160a01b03169163bc95baad911561079e5784604001516107a1565b60005b60208601516040516001600160e01b031960e086901b1681526001600160a01b03909316600484015260248301919091521515604482015260640161018060405180830381865afa1580156107fa573d6000803e3d6000fd5b505050506040513d601f19601f8201168201806040525081019061081e919061319f565b905061082a82826112a0565b5061083d8260800151836020015161163f565b158061084b575060a0820151155b15610854575050565b600061085f83611742565b158015906108955750826020015115158360c0015161087d85611742565b11148061089557508260c0015161089384611742565b145b905060006108a284611780565b158015906108da57506108b484611780565b8460c001511115158460200151151514806108da57506108d384611780565b8460c00151145b9050606060008380156108ea5750825b6109095783806108f75750825b61090257600061090c565b600161090c565b60025b60ff16905080156109f357806001600160401b0381111561092f5761092f612c04565b60405190808252806020026020018201604052801561096857816020015b610955612ad8565b81526020019060019003908161094d5790505b509150610993866000866109845761097f89611780565b61098d565b61098d89611742565b876117b0565b826000815181106109a6576109a6613255565b6020026020010181905250806002036109ee576109cf8660006109c889611780565b60006117b0565b826001815181106109e2576109e2613255565b60200260200101819052505b6109fb565b505050505050565b60008660200151610a17576006546001600160a01b0316610a24565b6005546001600160a01b03165b6001600160a01b031663b398a842846040518263ffffffff1660e01b8152600401610a4f919061343b565b6000604051808303816000875af1158015610a6e573d6000803e3d6000fd5b505050506040513d6000823e601f3d908101601f19168201604052610a9691908101906134c9565b604080516000808252602082019092529192505b8251811015610b9d576000838281518110610ac757610ac7613255565b60200260200101519050610b946040518060e00160405280306001600160a01b031681526020018c60200151151581526020018c60400151815260200160001515815260200160011515815260200183815260200185815250620a2c2a6012805480602002602001604051908101604052809291908181526020018280548015610b7a57602002820191906000526020600020905b81546001600160a01b03168152600190910190602001808311610b5c575b50506004546001600160a01b031692503091506118939050565b50600101610aaa565b505050505050505050565b610bb0611ae0565b610bba6000611b3a565b565b6000610bc781611124565b6001600160a01b038216610c0d5760405162461bcd60e51b815260206004820152600d60248201526c217a65726f206164647265737360981b6044820152606401610624565b610c18600083611b8c565b610c2182611b3a565b610637600033611b96565b7f8d1089725c0dc266707fa6207730fb801dcd03108bfed7a21099bd303651d2b761021181611124565b60009182526047602090815260408084206001600160a01b0393909316845291905290205460ff1690565b600082815260476020526040902060010154610c9c81611124565b6106608383611b96565b60128181548110610cb657600080fd5b6000918252602090912001546001600160a01b0316905081565b610cd8611ae0565b6001600160a01b038116610d3d5760405162461bcd60e51b815260206004820152602660248201527f4f776e61626c653a206e6577206f776e657220697320746865207a65726f206160448201526564647265737360d01b6064820152608401610624565b610d4681611b3a565b50565b42604955610d5633611b3a565b610d61600033611b8c565b610d46600082611b8c565b60608101516001600160a01b0316610dba5760405162461bcd60e51b8152602060048201526011602482015270696e76616c6964206f72646572206b657960781b6044820152606401610624565b8061012001516001600160401b0316600003610d465760405162461bcd60e51b8152602060048201526011602482015270696e76616c6964206f72646572206b657960781b6044820152606401610624565b610e1981602001516111d9565b604082015260608201516001600160a01b0316610e785760405162461bcd60e51b815260206004820152601760248201527f506f736974696f6e4164644d67723a216163636f756e740000000000000000006044820152606401610624565b60105460405163039fcb0560e31b81526001600160a01b0390911690631cfe582890610ea8908490600401613745565b60006040518083038186803b158015610ec057600080fd5b505afa158015610ed4573d6000803e3d6000fd5b505050508060200151610ef2576006546001600160a01b0316610eff565b6005546001600160a01b03165b6001600160a01b03166345824d67610f1684611bfd565b6040516001600160e01b031960e084901b1681526004810191909152600160248201526044016000604051808303816000875af1158015610f5b573d6000803e3d6000fd5b505050506040513d6000823e601f3d908101601f19168201604052610f8391908101906134c9565b506001816101a001818151610f98919061376e565b60ff169052506040810151610fae908390611c61565b6040518060400160405280601b81526020017f506f736974696f6e4164644d67723a7472696767657261626f76650000000000815250906110025760405162461bcd60e51b81526004016106249190612bf1565b508160a001516001600160801b0316816101800151146110745760405162461bcd60e51b815260206004820152602760248201527f506f736974696f6e4164644d67723a20696e73756666696369656e7420636f6c6044820152661b185d195c985b60ca1b6064820152608401610624565b6040805160a0810182528381526020810183905261111b918101600360ff16815260408051602081810183526000808352818501929092529282015260128054825181850281018501909352808352620a2c2a9383018282801561110157602002820191906000526020600020905b81546001600160a01b031681526001909101906020018083116110e3575b50506004546001600160a01b03169250309150611c9f9050565b61063781610665565b610d468133611e23565b6111388282610c56565b6106375760008281526047602090815260408083206001600160a01b03851684529091529020805460ff191660011790556111703390565b6001600160a01b0316816001600160a01b0316837f2f8788117e7eff1d82e926ec794901d17c78024a50270940304540a733656f0d60405160405180910390a45050565b60808101516000906001600160a01b03166111d157506000919050565b506001919050565b6009546002546040516303b6b4bb60e51b81526001600160a01b0391821660048201528315156024820152600092919091169081906376d6976090604401602060405180830381865afa158015611234573d6000803e3d6000fd5b505050506040513d601f19601f820116820180604052508101906112589190613787565b91506000821161129a5760405162461bcd60e51b815260206004820152600d60248201526c216f7261636c6520707269636560981b6044820152606401610624565b50919050565b6003546008546000916112bf916001600160a01b039182169116611e7c565b308352600854604051634151026360e01b81526000916001600160a01b0316906341510263906112f59087908790600401613849565b600060405180830381865afa158015611312573d6000803e3d6000fd5b505050506040513d6000823e601f3d908101601f1916820160405261133a919081019061386d565b9050600061134782611f52565b60a0860151909150156113bd5760005460405163fc54d91d60e01b81526001600160a01b039091169063fc54d91d90611388908890889087906004016138fd565b60006040518083038186803b1580156113a057600080fd5b505afa1580156113b4573d6000803e3d6000fd5b50505050611457565b6000546001600160a01b031660a0850151610180870151608087015160405163393ab2bd60e21b8152600260048201526024810193909352604483019190915260648201526000608482015260a481018390526001600160a01b03919091169063e4eacaf49060c40160006040518083038186803b15801561143e57600080fd5b505afa158015611452573d6000803e3d6000fd5b505050505b60085460208601516040516334f32e2560e01b815230600482015290151560248201526000916001600160a01b0316906334f32e2590604401602060405180830381865afa1580156114ad573d6000803e3d6000fd5b505050506040513d601f19601f820116820180604052508101906114d19190613787565b9050816114e2876101800151611f98565b6114ec9190613933565b93506114f9868583612006565b5061150c86608001518760200151612352565b6115158261245e565b60085460808701516004805460405163e50f19ef60e01b81526001600160a01b039485169463e50f19ef946115529490939091169189910161395a565b600060405180830381600087803b15801561156c57600080fd5b505af1158015611580573d6000803e3d6000fd5b50506040805160c08101825289815260208082018a90528183018890526004546001600160a01b03908116606084015260025416608083015260a08201899052601280548451818402810184019095528085526116369650929450620a2c2a9392909183018282801561161c57602002820191906000526020600020905b81546001600160a01b031681526001909101906020018083116115fe575b50506004546001600160a01b031692503091506125de9050565b50505092915050565b6000805482151582526007602090815260408084208480529091528220546001600160a01b039182169163e82956c0911660405163350cffdd60e11b81526001600160a01b0387811660048301529190911690636a19ffba90602401602060405180830381865afa1580156116b8573d6000803e3d6000fd5b505050506040513d601f19601f820116820180604052508101906116dc9190613787565b6040518263ffffffff1660e01b81526004016116fa91815260200190565b602060405180830381865afa158015611717573d6000803e3d6000fd5b505050506040513d601f19601f8201168201806040525081019061173b9190613986565b9392505050565b60006001826101c0015151101561175a57600061053a565b816101c0015160008151811061177257611772613255565b602002602001015192915050565b60006002826101c0015151101561179857600061053a565b816101c0015160018151811061177257611772613255565b6117b8612ad8565b6117c381600061275f565b30815260208086018051151591830191909152516117e190156111d9565b60408201526001608082015261014085015160a082015161180e916001600160401b031661016090910152565b608085015160a080830180516001600160a01b03909316606090930192909252860151905161183c9161278c565b60a08181018051600092019190915260208601519051611861911515841515146127aa565b60a0810180516001600160801b0390941660e09094019390935261016090940151915161018001919091525090919050565b6040516370a0823160e01b81526001600160a01b038281166004830152600091908416906370a0823190602401602060405180830381865afa1580156118dd573d6000803e3d6000fd5b505050506040513d601f19601f820116820180604052508101906119019190613787565b905060005b8451811015611a175784818151811061192157611921613255565b60200260200101516001600160a01b031663612c39b76040518163ffffffff1660e01b8152600401606060405180830381865afa158015611966573d6000803e3d6000fd5b505050506040513d601f19601f8201168201806040525081019061198a91906139a3565b6020015115611a05578481815181106119a5576119a5613255565b60200260200101516001600160a01b031663cce9a2f3886040518263ffffffff1660e01b81526004016119d89190613a14565b600060405180830381600087803b1580156119f257600080fd5b505af1925050508015611a03575060015b505b80611a0f81613a27565b915050611906565b506040516370a0823160e01b81526001600160a01b038381166004830152600091908516906370a0823190602401602060405180830381865afa158015611a62573d6000803e3d6000fd5b505050506040513d601f19601f82011682018060405250810190611a869190613787565b9050818114611ad75760405162461bcd60e51b815260206004820152601b60248201527f455243323020746f6b656e2062616c616e6365206368616e67656400000000006044820152606401610624565b50505050505050565b6048546001600160a01b03163314610bba5760405162461bcd60e51b815260206004820181905260248201527f4f776e61626c653a2063616c6c6572206973206e6f7420746865206f776e65726044820152606401610624565b604880546001600160a01b038381166001600160a01b0319831681179093556040519116919082907f8be0079c531659141344cd1fd0a4f28419497f9722a3daafe3b4186f6b6457e090600090a35050565b610637828261112e565b611ba08282610c56565b156106375760008281526047602090815260408083206001600160a01b0385168085529252808320805460ff1916905551339285917ff6391f5c32d9c69d2a47ea670b442974b53935d1edc7fd64eb21e047a839171b9190a45050565b600061053a82606001518361012001516040516bffffffffffffffffffffffff19606084901b1660208201526001600160c01b031960c083901b166034820152600090603c0160405160208183030381529060405280519060200120905092915050565b6000611c6c836127c8565b15611c88575060e08201516001600160801b031681101561053a565b5060e08201516001600160801b031681111561053a565b6040516370a0823160e01b81526001600160a01b038281166004830152600091908416906370a0823190602401602060405180830381865afa158015611ce9573d6000803e3d6000fd5b505050506040513d601f19601f82011682018060405250810190611d0d9190613787565b905060005b8451811015611a1757848181518110611d2d57611d2d613255565b60200260200101516001600160a01b031663612c39b76040518163ffffffff1660e01b8152600401606060405180830381865afa158015611d72573d6000803e3d6000fd5b505050506040513d601f19601f82011682018060405250810190611d9691906139a3565b6040015115611e1157848181518110611db157611db1613255565b60200260200101516001600160a01b031663718cb58a886040518263ffffffff1660e01b8152600401611de49190613a40565b600060405180830381600087803b158015611dfe57600080fd5b505af1925050508015611e0f575060015b505b80611e1b81613a27565b915050611d12565b611e2d8282610c56565b61063757611e3a81612840565b611e45836020612852565b604051602001611e56929190613ab4565b60408051601f198184030181529082905262461bcd60e51b825261062491600401612bf1565b600080836001600160a01b0316638749694a6040518163ffffffff1660e01b81526004016040805180830381865afa158015611ebc573d6000803e3d6000fd5b505050506040513d601f19601f82011682018060405250810190611ee09190613b29565b60405163c6f83ad160e01b8152306004820152602481018390526044810182905291935091506001600160a01b0384169063c6f83ad190606401600060405180830381600087803b158015611f3457600080fd5b505af1158015611f48573d6000803e3d6000fd5b5050505050505050565b6000805b825181101561129a57828181518110611f7157611f71613255565b602002602001015182611f849190613b4d565b915080611f9081613a27565b915050611f56565b60006001600160ff1b038211156120025760405162461bcd60e51b815260206004820152602860248201527f53616665436173743a2076616c756520646f65736e27742066697420696e2061604482015267371034b73a191a9b60c11b6064820152608401610624565b5090565b61208460405180610180016040528060006001600160a01b03168152602001600015158152602001600063ffffffff16815260200160006001600160d81b0316815260200160008152602001600081526020016000815260200160008152602001600081526020016000815260200160008152602001600081525090565b60a08401511580156120965750600083125b156121555760035460808501516001600160a01b039091169063e62c0edf906120be86613b75565b60a088015160208901516040516001600160e01b031960e087901b1681526001600160a01b03909416600485015260248401929092526044830152606482018690521515608482015260a401610180604051808303816000875af115801561212a573d6000803e3d6000fd5b505050506040513d601f19601f8201168201806040525081019061214e919061319f565b90506122d5565b600c5460a0850151600480546040805163313ce56760e01b815290516001600160a01b039586169563c6aee618956121dc9590949091169263313ce56792818301926020928290030181865afa1580156121b3573d6000803e3d6000fd5b505050506040513d601f19601f820116820180604052508101906121d79190613b91565b6129ed565b6040518263ffffffff1660e01b81526004016121fa91815260200190565b600060405180830381600087803b15801561221457600080fd5b505af1158015612228573d6000803e3d6000fd5b5050600354608087015160a08801516040808a015160208b0151915163f115e8b560e01b81526001600160a01b039485166004820152602481018b90526044810193909352606483015260848201889052151560a48201529116925063f115e8b5915060c401610180604051808303816000875af11580156122ae573d6000803e3d6000fd5b505050506040513d601f19601f820116820180604052508101906122d2919061319f565b90505b6000546001600160a01b0316608082015160a083015160405163056b460360e31b8152600481019290925260248201526001600160a01b039190911690632b5a30189060440160006040518083038186803b15801561233357600080fd5b505afa158015612347573d6000803e3d6000fd5b505050509392505050565b6000546003546008546001600160a01b0392831692631f21756a928692309287928116911661238183156111d9565b60405160e088901b6001600160e01b03191681526001600160a01b039687166004820152948616602486015292151560448501529084166064840152909216608482015260a481019190915260c401602060405180830381865afa1580156123ed573d6000803e3d6000fd5b505050506040513d601f19601f820116820180604052508101906124119190613787565b156106375760405162461bcd60e51b815260206004820152601c60248201527f506f736974696f6e4164644d67723a73686f756c64276e74206c6971000000006044820152606401610624565b60008112156124ff576008546004546001600160a01b039182169163d9caed1291163061249561249086600019613bae565b612a1d565b6040516001600160e01b031960e086901b1681526001600160a01b0393841660048201529290911660248301526044820152606401600060405180830381600087803b1580156124e457600080fd5b505af11580156124f8573d6000803e3d6000fd5b5050505050565b6000811315610d4657600061255d61251683612a1d565b600480546040805163313ce56760e01b815290516001600160a01b039092169263313ce5679282820192602092908290030181865afa1580156121b3573d6000803e3d6000fd5b6004805460085460405163095ea7b360e01b81526001600160a01b039182169381019390935260248301849052929350919091169063095ea7b3906044016020604051808303816000875af11580156125ba573d6000803e3d6000fd5b505050506040513d601f19601f820116820180604052508101906106609190613986565b6040516370a0823160e01b81526001600160a01b038281166004830152600091908416906370a0823190602401602060405180830381865afa158015612628573d6000803e3d6000fd5b505050506040513d601f19601f8201168201806040525081019061264c9190613787565b905060005b8451811015611a175784818151811061266c5761266c613255565b60200260200101516001600160a01b031663612c39b76040518163ffffffff1660e01b8152600401606060405180830381865afa1580156126b1573d6000803e3d6000fd5b505050506040513d601f19601f820116820180604052508101906126d591906139a3565b511561274d578481815181106126ed576126ed613255565b60200260200101516001600160a01b03166340a542fe886040518263ffffffff1660e01b81526004016127209190613bde565b600060405180830381600087803b15801561273a57600080fd5b505af192505050801561274b575060015b505b8061275781613a27565b915050612651565b60408051600380825260808201909252906020820160608036833750505060c08301521515606090910152565b61279581612a6f565b6001600160801b031660c09092019190915250565b806127b65760026127b9565b60015b60ff1660409092019190915250565b6000816040015160ff166001036127e157506001919050565b816040015160ff166002036127f857506000919050565b60405162461bcd60e51b815260206004820152601b60248201527f696e76616c6964206f7264657220747269676765722061626f766500000000006044820152606401610624565b606061053a6001600160a01b03831660145b60606000612861836002613c63565b61286c906002613c7a565b6001600160401b0381111561288357612883612c04565b6040519080825280601f01601f1916602001820160405280156128ad576020820181803683370190505b509050600360fc1b816000815181106128c8576128c8613255565b60200101906001600160f81b031916908160001a905350600f60fb1b816001815181106128f7576128f7613255565b60200101906001600160f81b031916908160001a905350600061291b846002613c63565b612926906001613c7a565b90505b600181111561299e576f181899199a1a9b1b9c1cb0b131b232b360811b85600f166010811061295a5761295a613255565b1a60f81b82828151811061297057612970613255565b60200101906001600160f81b031916908160001a90535060049490941c9361299781613c8d565b9050612929565b50831561173b5760405162461bcd60e51b815260206004820181905260248201527f537472696e67733a20686578206c656e67746820696e73756666696369656e746044820152606401610624565b60006129fb6012600a613d88565b612a0960ff8416600a613d97565b612a139085613c63565b61173b9190613da3565b6000808212156120025760405162461bcd60e51b815260206004820181905260248201527f53616665436173743a2076616c7565206d75737420626520706f7369746976656044820152606401610624565b60006001600160801b038211156120025760405162461bcd60e51b815260206004820152602760248201527f53616665436173743a2076616c756520646f65736e27742066697420696e20316044820152663238206269747360c81b6064820152608401610624565b6040805160e08082018352600080835260208084018290528385018290526060808501839052608080860184905286516101a081018852848152928301849052958201839052810182905293840181905260a084810182905260c0850182905291840181905261010084018190526101208401819052610140840181905261016084018190526101808401529091908201908152602001606081525090565b600060208284031215612b8957600080fd5b81356001600160e01b03198116811461173b57600080fd5b60005b83811015612bbc578181015183820152602001612ba4565b50506000910152565b60008151808452612bdd816020860160208601612ba1565b601f01601f19169290920160200192915050565b60208152600061173b6020830184612bc5565b634e487b7160e01b600052604160045260246000fd5b6040516101e081016001600160401b0381118282101715612c3d57612c3d612c04565b60405290565b6040516101a081016001600160401b0381118282101715612c3d57612c3d612c04565b60405161018081016001600160401b0381118282101715612c3d57612c3d612c04565b604051601f8201601f191681016001600160401b0381118282101715612cb157612cb1612c04565b604052919050565b60ff81168114610d4657600080fd5b8035612cd381612cb9565b919050565b63ffffffff81168114610d4657600080fd5b8035612cd381612cd8565b6001600160a01b0381168114610d4657600080fd5b8035612cd381612cf5565b65ffffffffffff81168114610d4657600080fd5b8035612cd381612d15565b6001600160801b0381168114610d4657600080fd5b8035612cd381612d34565b6001600160401b0381168114610d4657600080fd5b8035612cd381612d54565b8015158114610d4657600080fd5b8035612cd381612d74565b60006001600160401b03821115612da657612da6612c04565b5060051b60200190565b600082601f830112612dc157600080fd5b81356020612dd6612dd183612d8d565b612c89565b82815260059290921b84018101918181019086841115612df557600080fd5b8286015b84811015612e105780358352918301918301612df9565b509695505050505050565b60006101e08284031215612e2e57600080fd5b612e36612c1a565b9050612e4182612d0a565b8152612e4f60208301612d82565b602082015260408201356040820152612e6a60608301612d82565b6060820152612e7b60808301612d0a565b608082015260a082013560a082015260c082013560c082015260e082013560e0820152610100612eac818401612d82565b90820152610120612ebe838201612cc8565b90820152610140612ed0838201612d69565b90820152610160828101359082015261018080830135908201526101a0612ef8818401612cc8565b908201526101c0828101356001600160401b03811115612f1757600080fd5b612f2385828601612db0565b82840152505092915050565b6000808284036101c0811215612f4457600080fd5b6101a080821215612f5457600080fd5b612f5c612c43565b9150612f6785612cc8565b8252612f7560208601612cea565b6020830152612f8660408601612cc8565b6040830152612f9760608601612d0a565b6060830152612fa860808601612d29565b6080830152612fb960a08601612d49565b60a0830152612fca60c08601612d49565b60c0830152612fdb60e08601612d49565b60e0830152610100612fee818701612d49565b90830152610120613000868201612d69565b90830152610140613012868201612d69565b90830152610160613024868201612d49565b9083015261018085810135908301529092508301356001600160401b0381111561304d57600080fd5b61305985828601612e1b565b9150509250929050565b60006020828403121561307557600080fd5b5035919050565b6000806040838503121561308f57600080fd5b8235915060208301356130a181612cf5565b809150509250929050565b6000602082840312156130be57600080fd5b81356001600160401b038111156130d457600080fd5b6130e084828501612e1b565b949350505050565b6000602082840312156130fa57600080fd5b813561173b81612cf5565b6000806040838503121561311857600080fd5b823561312381612d74565b915060208301356130a181612d74565b600181811c9082168061314757607f821691505b60208210810361129a57634e487b7160e01b600052602260045260246000fd5b8051612cd381612cf5565b8051612cd381612d74565b8051612cd381612cd8565b80516001600160d81b0381168114612cd357600080fd5b600061018082840312156131b257600080fd5b6131ba612c66565b6131c383613167565b81526131d160208401613172565b60208201526131e26040840161317d565b60408201526131f360608401613188565b60608201526080838101519082015260a0808401519082015260c0808401519082015260e08084015190820152610100808401519082015261012080840151908201526101408084015190820152610160928301519281019290925250919050565b634e487b7160e01b600052603260045260246000fd5b805160ff1682526020810151613289602084018263ffffffff169052565b50604081015161329e604084018260ff169052565b5060608101516132b960608401826001600160a01b03169052565b5060808101516132d3608084018265ffffffffffff169052565b5060a08101516132ee60a08401826001600160801b03169052565b5060c081015161330960c08401826001600160801b03169052565b5060e081015161332460e08401826001600160801b03169052565b50610100818101516001600160801b038116848301525050610120818101516001600160401b038116848301525050610140818101516001600160401b038116848301525050610160818101516001600160801b03811684830152505061018090810151910152565b600081518084526020808501945080840160005b838110156133bd578151875295820195908201906001016133a1565b509495945050505050565b600061026060018060a01b0383511684526020830151151560208501526040830151604085015260608301511515606085015260808301511515608085015260a083015161341960a086018261326b565b5060c0830151816102408601526134328286018261338d565b95945050505050565b6000602080830181845280855180835260408601915060408160051b870101925083870160005b8281101561349057603f1988860301845261347e8583516133c8565b94509285019290850190600101613462565b5092979650505050505050565b8051612cd381612cb9565b8051612cd381612d15565b8051612cd381612d34565b8051612cd381612d54565b600060208083850312156134dc57600080fd5b82516001600160401b038111156134f257600080fd5b8301601f8101851361350357600080fd5b8051613511612dd182612d8d565b8181526101a0918202830184019184820191908884111561353157600080fd5b938501935b838510156136385780858a03121561354e5760008081fd5b613556612c43565b61355f8661349d565b815261356c87870161317d565b87820152604061357d81880161349d565b90820152606061358e878201613167565b90820152608061359f8782016134a8565b9082015260a06135b08782016134b3565b9082015260c06135c18782016134b3565b9082015260e06135d28782016134b3565b908201526101006135e48782016134b3565b908201526101206135f68782016134be565b908201526101406136088782016134be565b9082015261016061361a8782016134b3565b90820152610180868101519082015283529384019391850191613536565b50979650505050505050565b80516001600160a01b0316825260006101e06020830151613669602086018215159052565b50604083015160408501526060830151613687606086018215159052565b5060808301516136a260808601826001600160a01b03169052565b5060a083015160a085015260c083015160c085015260e083015160e0850152610100808401516136d58287018215159052565b50506101208381015160ff90811691860191909152610140808501516001600160401b031690860152610160808501519086015261018080850151908601526101a080850151909116908501526101c08084015181860183905261373b8387018261338d565b9695505050505050565b60208152600061173b6020830184613644565b634e487b7160e01b600052601160045260246000fd5b60ff818116838216019081111561053a5761053a613758565b60006020828403121561379957600080fd5b5051919050565b80516001600160a01b0316825260208101516137c0602084018215159052565b5060408101516137d8604084018263ffffffff169052565b5060608101516137f360608401826001600160d81b03169052565b506080818101519083015260a0808201519083015260c0808201519083015260e0808201519083015261010080820151908301526101208082015190830152610140808201519083015261016090810151910152565b60006101a080835261385d81840186613644565b91505061173b60208301846137a0565b6000602080838503121561388057600080fd5b82516001600160401b0381111561389657600080fd5b8301601f810185136138a757600080fd5b80516138b5612dd182612d8d565b81815260059190911b820183019083810190878311156138d457600080fd5b928401925b828410156138f2578351825292840192908401906138d9565b979650505050505050565b60006101c080835261391181840187613644565b905061392060208401866137a0565b8281036101a084015261373b818561338d565b818103600083128015838313168383128216171561395357613953613758565b5092915050565b6001600160a01b038481168252831660208201526060604082018190526000906134329083018461338d565b60006020828403121561399857600080fd5b815161173b81612d74565b6000606082840312156139b557600080fd5b604051606081018181106001600160401b03821117156139d7576139d7612c04565b60405282516139e581612d74565b815260208301516139f581612d74565b60208201526040830151613a0881612d74565b60408201529392505050565b60208152600061173b60208301846133c8565b600060018201613a3957613a39613758565b5060010190565b60208152613a5260208201835161326b565b60006020830151610220806101c0850152613a71610240850183613644565b915060ff6040860151166101e08501526060850151601f1985840301610200860152613a9d8382612bc5565b925050608085015181850152508091505092915050565b7f416363657373436f6e74726f6c3a206163636f756e7420000000000000000000815260008351613aec816017850160208801612ba1565b7001034b99036b4b9b9b4b733903937b6329607d1b6017918401918201528351613b1d816028840160208801612ba1565b01602801949350505050565b60008060408385031215613b3c57600080fd5b505080516020909101519092909150565b8082018281126000831280158216821582161715613b6d57613b6d613758565b505092915050565b6000600160ff1b8201613b8a57613b8a613758565b5060000390565b600060208284031215613ba357600080fd5b815161173b81612cb9565b80820260008212600160ff1b84141615613bca57613bca613758565b818105831482151761053a5761053a613758565b6020815260008251610220806020850152613bfd610240850183613644565b91506020850151613c1160408601826137a0565b506040850151848303601f19016101c0860152613c2e838261338d565b60608701516001600160a01b039081166101e088015260808801511661020087015260a0909601519190940152509192915050565b808202811582820484141761053a5761053a613758565b8082018082111561053a5761053a613758565b600081613c9c57613c9c613758565b506000190190565b600181815b80851115613cdf578160001904821115613cc557613cc5613758565b80851615613cd257918102915b93841c9390800290613ca9565b509250929050565b600082613cf65750600161053a565b81613d035750600061053a565b8160018114613d195760028114613d2357613d3f565b600191505061053a565b60ff841115613d3457613d34613758565b50506001821b61053a565b5060208310610133831016604e8410600b8410161715613d62575081810a61053a565b613d6c8383613ca4565b8060001904821115613d8057613d80613758565b029392505050565b600061173b60ff841683613ce7565b600061173b8383613ce7565b600082613dc057634e487b7160e01b600052601260045260246000fd5b50049056fea2646970667358221220f1e7bb9f5abdaacc38f633d9bb87635293fb01c582362c9785570428fcbaeabc64736f6c63430008110033",
    "linkReferences": {}
  },
  "methodIdentifiers": {
    "DEFAULT_ADMIN_ROLE()": "a217fddf",
    "PLUGIN_GAS_LIMIT()": "63cd8dbd",
    "collateralToken()": "b2016bd4",
    "collateralTokenDigits()": "b21dc9cb",
    "execOrderKey((uint8,uint32,uint8,address,uint48,uint128,uint128,uint128,uint128,uint64,uint64,uint128,bytes32),(address,bool,uint256,bool,address,uint256,uint256,uint256,bool,uint8,uint64,bytes32,uint256,uint8,uint256[]))": "12de276c",
    "feeRouter()": "f29ebf61",
    "getRoleAdmin(bytes32)": "248a9ca3",
    "globalValid()": "c54dc3d6",
    "grantControllerRoleByMarketManager(address)": "7fe4a698",
    "grantRole(bytes32,address)": "2f2ff15d",
    "hasRole(bytes32,address)": "91d14854",
    "increasePositionWithOrders((address,bool,uint256,bool,address,uint256,uint256,uint256,bool,uint8,uint64,bytes32,uint256,uint8,uint256[]))": "3bdef83a",
    "indexToken()": "e7d015f2",
    "marketRouter()": "d12dbde4",
    "marketValid()": "b894300d",
    "name()": "06fdde03",
    "orderBookLong()": "7b2fd1e5",
    "orderBookShort()": "05ba9ae9",
    "orderMgr()": "a0cbf50c",
    "orderStore(bool,bool)": "a2640454",
    "owner()": "8da5cb5b",
    "plugins(uint256)": "f0a317eb",
    "positionAddMgr()": "d49ff78d",
    "positionBook()": "ac0b05a6",
    "positionStoreLong()": "07e87545",
    "positionStoreShort()": "45ccf5c5",
    "positionSubMgr()": "8a6ca35d",
    "priceFeed()": "741bef1a",
    "renounceOwnership()": "715018a6",
    "renounceRole(bytes32,address)": "36568abe",
    "revokeRole(bytes32,address)": "d547741f",
    "supportsInterface(bytes4)": "01ffc9a7",
    "transferAdmin(address)": "75829def",
    "transferOwnership(address)": "f2fde38b",
    "vaultRouter()": "d37c441c"
  },
  "id": 19
}