{
  "abi": [
    {
      "inputs": [],
      "name": "conf",
      "outputs": [
        {
          "components": [
            {
              "internalType": "uint256",
              "name": "data",
              "type": "uint256"
            }
          ],
          "internalType": "struct IMarketValid.Props",
          "name": "data",
          "type": "tuple"
        }
      ],
      "stateMutability": "view",
      "type": "function"
    },
    {
      "inputs": [
        {
          "internalType": "uint256",
          "name": "",
          "type": "uint256"
        }
      ],
      "name": "getDecreaseOrderValidation",
      "outputs": [
        {
          "internalType": "bool",
          "name": "",
          "type": "bool"
        }
      ],
      "stateMutability": "nonpayable",
      "type": "function"
    },
    {
      "inputs": [
        {
          "internalType": "address",
          "name": "_account",
          "type": "address"
        },
        {
          "internalType": "address",
          "name": "_market",
          "type": "address"
        },
        {
          "internalType": "bool",
          "name": "_isLong",
          "type": "bool"
        },
        {
          "internalType": "contract IPositionBook",
          "name": "positionBook",
          "type": "address"
        },
        {
          "internalType": "contract IFeeRouter",
          "name": "feeRouter",
          "type": "address"
        },
        {
          "internalType": "uint256",
          "name": "markPrice",
          "type": "uint256"
        }
      ],
      "name": "isLiquidate",
      "outputs": [
        {
          "internalType": "uint256",
          "name": "",
          "type": "uint256"
        }
      ],
      "stateMutability": "view",
      "type": "function"
    },
    {
      "inputs": [
        {
          "internalType": "uint256",
          "name": "_data",
          "type": "uint256"
        }
      ],
      "name": "setConfData",
      "outputs": [],
      "stateMutability": "nonpayable",
      "type": "function"
    },
    {
      "inputs": [
        {
          "internalType": "uint256",
          "name": "busType",
          "type": "uint256"
        },
        {
          "internalType": "uint256",
          "name": "_collateral",
          "type": "uint256"
        },
        {
          "internalType": "uint256",
          "name": "_collateralDelta",
          "type": "uint256"
        },
        {
          "internalType": "uint256",
          "name": "_size",
          "type": "uint256"
        },
        {
          "internalType": "uint256",
          "name": "_sizeDelta",
          "type": "uint256"
        },
        {
          "internalType": "int256",
          "name": "_fees",
          "type": "int256"
        }
      ],
      "name": "validCollateralDelta",
      "outputs": [],
      "stateMutability": "view",
      "type": "function"
    },
    {
      "inputs": [
        {
          "internalType": "uint256",
          "name": "newSize",
          "type": "uint256"
        },
        {
          "internalType": "uint256",
          "name": "newCollateral",
          "type": "uint256"
        }
      ],
      "name": "validLev",
      "outputs": [],
      "stateMutability": "nonpayable",
      "type": "function"
    },
    {
      "inputs": [
        {
          "internalType": "uint256",
          "name": "_pay",
          "type": "uint256"
        }
      ],
      "name": "validPay",
      "outputs": [],
      "stateMutability": "view",
      "type": "function"
    },
    {
      "inputs": [
        {
          "components": [
            {
              "internalType": "address",
              "name": "_market",
              "type": "address"
            },
            {
              "internalType": "bool",
              "name": "_isLong",
              "type": "bool"
            },
            {
              "internalType": "uint256",
              "name": "_oraclePrice",
              "type": "uint256"
            },
            {
              "internalType": "bool",
              "name": "isOpen",
              "type": "bool"
            },
            {
              "internalType": "address",
              "name": "_account",
              "type": "address"
            },
            {
              "internalType": "uint256",
              "name": "_sizeDelta",
              "type": "uint256"
            },
            {
              "internalType": "uint256",
              "name": "_price",
              "type": "uint256"
            },
            {
              "internalType": "uint256",
              "name": "_slippage",
              "type": "uint256"
            },
            {
              "internalType": "bool",
              "name": "_isExec",
              "type": "bool"
            },
            {
              "internalType": "uint8",
              "name": "liqState",
              "type": "uint8"
            },
            {
              "internalType": "uint64",
              "name": "_fromOrder",
              "type": "uint64"
            },
            {
              "internalType": "bytes32",
              "name": "_refCode",
              "type": "bytes32"
            },
            {
              "internalType": "uint256",
              "name": "collateralDelta",
              "type": "uint256"
            },
            {
              "internalType": "uint8",
              "name": "execNum",
              "type": "uint8"
            },
            {
              "internalType": "uint256[]",
              "name": "inputs",
              "type": "uint256[]"
            }
          ],
          "internalType": "struct MarketDataTypes.UpdatePositionInputs",
          "name": "_params",
          "type": "tuple"
        },
        {
          "components": [
            {
              "internalType": "address",
              "name": "market",
              "type": "address"
            },
            {
              "internalType": "bool",
              "name": "isLong",
              "type": "bool"
            },
            {
              "internalType": "uint32",
              "name": "lastTime",
              "type": "uint32"
            },
            {
              "internalType": "uint216",
              "name": "extra3",
              "type": "uint216"
            },
            {
              "internalType": "uint256",
              "name": "size",
              "type": "uint256"
            },
            {
              "internalType": "uint256",
              "name": "collateral",
              "type": "uint256"
            },
            {
              "internalType": "uint256",
              "name": "averagePrice",
              "type": "uint256"
            },
            {
              "internalType": "int256",
              "name": "entryFundingRate",
              "type": "int256"
            },
            {
              "internalType": "int256",
              "name": "realisedPnl",
              "type": "int256"
            },
            {
              "internalType": "uint256",
              "name": "extra0",
              "type": "uint256"
            },
            {
              "internalType": "uint256",
              "name": "extra1",
              "type": "uint256"
            },
            {
              "internalType": "uint256",
              "name": "extra2",
              "type": "uint256"
            }
          ],
          "internalType": "struct Position.Props",
          "name": "_position",
          "type": "tuple"
        },
        {
          "internalType": "int256[]",
          "name": "fees",
          "type": "int256[]"
        }
      ],
      "name": "validPosition",
      "outputs": [],
      "stateMutability": "view",
      "type": "function"
    }
  ],
  "bytecode": {
    "object": "0x608060405234801561001057600080fd5b5061063f806100206000396000f3fe608060405234801561001057600080fd5b50600436106100885760003560e01c80638e98ec8d1161005b5780638e98ec8d1461008d578063e4eacaf4146100f6578063e82956c01461010c578063fc54d91d1461013057600080fd5b8063015fc6131461008d57806317792729146100a05780631f21756a146100c35780632b5a3018146100e4575b600080fd5b61009e61009b366004610164565b50565b005b604080516020810190915260008152604051905181526020015b60405180910390f35b6100d66100d13660046101b2565b610143565b6040519081526020016100ba565b61009e6100f2366004610229565b5050565b61009e61010436600461024b565b505050505050565b61012061011a366004610164565b50600190565b60405190151581526020016100ba565b61009e61013e36600461049a565b505050565b600084151581036101565750600061015a565b5060025b9695505050505050565b60006020828403121561017657600080fd5b5035919050565b6001600160a01b038116811461009b57600080fd5b803561019d8161017d565b919050565b8035801515811461019d57600080fd5b60008060008060008060c087890312156101cb57600080fd5b86356101d68161017d565b955060208701356101e68161017d565b94506101f4604088016101a2565b935060608701356102048161017d565b925060808701356102148161017d565b8092505060a087013590509295509295509295565b6000806040838503121561023c57600080fd5b50508035926020909101359150565b60008060008060008060c0878903121561026457600080fd5b505084359660208601359650604086013595606081013595506080810135945060a0013592509050565b634e487b7160e01b600052604160045260246000fd5b604051610180810167ffffffffffffffff811182821017156102c8576102c861028e565b60405290565b6040516101e0810167ffffffffffffffff811182821017156102c8576102c861028e565b803560ff8116811461019d57600080fd5b803567ffffffffffffffff8116811461019d57600080fd5b600082601f83011261032c57600080fd5b8135602067ffffffffffffffff808311156103495761034961028e565b8260051b604051601f19603f8301168101818110848211171561036e5761036e61028e565b60405293845285810183019383810192508785111561038c57600080fd5b83870191505b848210156103ab57813583529183019190830190610392565b979650505050505050565b803563ffffffff8116811461019d57600080fd5b80356001600160d81b038116811461019d57600080fd5b600061018082840312156103f457600080fd5b6103fc6102a4565b905061040782610192565b8152610415602083016101a2565b6020820152610426604083016103b6565b6040820152610437606083016103ca565b60608201526080820135608082015260a082013560a082015260c082013560c082015260e082013560e082015261010080830135818301525061012080830135818301525061014080830135818301525061016080830135818301525092915050565b60008060006101c08085870312156104b157600080fd5b843567ffffffffffffffff808211156104c957600080fd5b908601906101e082890312156104de57600080fd5b6104e66102ce565b6104ef83610192565b81526104fd602084016101a2565b602082015260408301356040820152610518606084016101a2565b606082015261052960808401610192565b608082015260a083013560a082015260c083013560c082015260e083013560e082015261010061055a8185016101a2565b9082015261012061056c8482016102f2565b9082015261014061057e848201610303565b90820152610160838101359082015261018080840135908201526101a06105a68185016102f2565b8183015284840135838111156105bb57600080fd5b6105c78b82870161031b565b86840152508197506105dc8a60208b016103e1565b9650880135935050808311156105f157600080fd5b50506105ff8682870161031b565b915050925092509256fea264697066735822122040c2954cb0aa5ce4594d36c001b6e91c62b47ff1c3c64ec0e3a68eda1c5033b964736f6c63430008110033",
    "linkReferences": {}
  },
  "methodIdentifiers": {
    "conf()": "17792729",
    "getDecreaseOrderValidation(uint256)": "e82956c0",
    "isLiquidate(address,address,bool,address,address,uint256)": "1f21756a",
    "setConfData(uint256)": "8e98ec8d",
    "validCollateralDelta(uint256,uint256,uint256,uint256,uint256,int256)": "e4eacaf4",
    "validLev(uint256,uint256)": "2b5a3018",
    "validPay(uint256)": "015fc613",
    "validPosition((address,bool,uint256,bool,address,uint256,uint256,uint256,bool,uint8,uint64,bytes32,uint256,uint8,uint256[]),(address,bool,uint32,uint216,uint256,uint256,uint256,int256,int256,uint256,uint256,uint256),int256[])": "fc54d91d"
  },
  "id": 46
}