{
  "abi": [
    {
      "inputs": [],
      "name": "aggregator",
      "outputs": [
        {
          "internalType": "address",
          "name": "",
          "type": "address"
        }
      ],
      "stateMutability": "view",
      "type": "function"
    },
    {
      "inputs": [],
      "name": "decimals",
      "outputs": [
        {
          "internalType": "uint8",
          "name": "",
          "type": "uint8"
        }
      ],
      "stateMutability": "view",
      "type": "function"
    },
    {
      "inputs": [],
      "name": "description",
      "outputs": [
        {
          "internalType": "string",
          "name": "",
          "type": "string"
        }
      ],
      "stateMutability": "view",
      "type": "function"
    },
    {
      "inputs": [],
      "name": "getRound",
      "outputs": [
        {
          "internalType": "uint80",
          "name": "",
          "type": "uint80"
        }
      ],
      "stateMutability": "view",
      "type": "function"
    },
    {
      "inputs": [
        {
          "internalType": "uint80",
          "name": "_roundId",
          "type": "uint80"
        }
      ],
      "name": "getRoundData",
      "outputs": [
        {
          "internalType": "uint80",
          "name": "roundId",
          "type": "uint80"
        },
        {
          "internalType": "int256",
          "name": "answer",
          "type": "int256"
        },
        {
          "internalType": "uint256",
          "name": "startedAt",
          "type": "uint256"
        },
        {
          "internalType": "uint256",
          "name": "updatedAt",
          "type": "uint256"
        },
        {
          "internalType": "uint80",
          "name": "answeredInRound",
          "type": "uint80"
        }
      ],
      "stateMutability": "view",
      "type": "function"
    },
    {
      "inputs": [],
      "name": "latestAnswer",
      "outputs": [
        {
          "internalType": "int256",
          "name": "",
          "type": "int256"
        }
      ],
      "stateMutability": "view",
      "type": "function"
    },
    {
      "inputs": [],
      "name": "latestRound",
      "outputs": [
        {
          "internalType": "uint80",
          "name": "",
          "type": "uint80"
        }
      ],
      "stateMutability": "view",
      "type": "function"
    },
    {
      "inputs": [],
      "name": "latestRoundData",
      "outputs": [
        {
          "internalType": "uint80",
          "name": "roundId",
          "type": "uint80"
        },
        {
          "internalType": "int256",
          "name": "answer",
          "type": "int256"
        },
        {
          "internalType": "uint256",
          "name": "startedAt",
          "type": "uint256"
        },
        {
          "internalType": "uint256",
          "name": "updatedAt",
          "type": "uint256"
        },
        {
          "internalType": "uint80",
          "name": "answeredInRound",
          "type": "uint80"
        }
      ],
      "stateMutability": "view",
      "type": "function"
    },
    {
      "inputs": [],
      "name": "latestTimestamp",
      "outputs": [
        {
          "internalType": "uint256",
          "name": "",
          "type": "uint256"
        }
      ],
      "stateMutability": "view",
      "type": "function"
    },
    {
      "inputs": [],
      "name": "s_answer",
      "outputs": [
        {
          "internalType": "int256",
          "name": "",
          "type": "int256"
        }
      ],
      "stateMutability": "view",
      "type": "function"
    },
    {
      "inputs": [],
      "name": "s_decimals",
      "outputs": [
        {
          "internalType": "uint8",
          "name": "",
          "type": "uint8"
        }
      ],
      "stateMutability": "view",
      "type": "function"
    },
    {
      "inputs": [],
      "name": "s_round",
      "outputs": [
        {
          "internalType": "uint80",
          "name": "",
          "type": "uint80"
        }
      ],
      "stateMutability": "view",
      "type": "function"
    },
    {
      "inputs": [],
      "name": "s_timestamp",
      "outputs": [
        {
          "internalType": "uint256",
          "name": "",
          "type": "uint256"
        }
      ],
      "stateMutability": "view",
      "type": "function"
    },
    {
      "inputs": [
        {
          "internalType": "uint8",
          "name": "decimals_",
          "type": "uint8"
        }
      ],
      "name": "setDecimals",
      "outputs": [],
      "stateMutability": "nonpayable",
      "type": "function"
    },
    {
      "inputs": [
        {
          "internalType": "int256",
          "name": "answer",
          "type": "int256"
        }
      ],
      "name": "setLatestAnswer",
      "outputs": [],
      "stateMutability": "nonpayable",
      "type": "function"
    },
    {
      "inputs": [
        {
          "internalType": "uint80",
          "name": "round",
          "type": "uint80"
        }
      ],
      "name": "setRound",
      "outputs": [],
      "stateMutability": "nonpayable",
      "type": "function"
    },
    {
      "inputs": [
        {
          "internalType": "uint256",
          "name": "timestamp_",
          "type": "uint256"
        }
      ],
      "name": "setTimestamp",
      "outputs": [],
      "stateMutability": "nonpayable",
      "type": "function"
    },
    {
      "inputs": [],
      "name": "version",
      "outputs": [
        {
          "internalType": "uint256",
          "name": "",
          "type": "uint256"
        }
      ],
      "stateMutability": "view",
      "type": "function"
    }
  ],
  "bytecode": {
    "object": "0x608060405234801561001057600080fd5b5061056f806100206000396000f3fe608060405234801561001057600080fd5b50600436106101165760003560e01c80637a1395aa116100a25780639a6fc8f5116100715780639a6fc8f51461023b5780639f8743f71461028d578063a0a2b573146102a3578063cf67f902146102b6578063feaf968c146102bf57600080fd5b80637a1395aa146101c95780638205bf6a146101ed57806394844248146101f5578063972a7e8f1461020257600080fd5b806350d25bcd116100e957806350d25bcd1461017357806353f1906e1461017b57806354fd4d50146101ab578063668a0f02146101b25780637284e416146101ba57600080fd5b806304ea97b01461011b578063245a7bfc14610130578063305da2db14610143578063313ce5671461015a575b600080fd5b61012e610129366004610452565b6102ce565b005b6040513081526020015b60405180910390f35b61014c60005481565b60405190815260200161013a565b60015460ff165b60405160ff909116815260200161013a565b61014c610312565b6001546101939061010090046001600160501b031681565b6040516001600160501b03909116815260200161013a565b600061014c565b610193610359565b606060405161013a91906104b1565b61012e6101d73660046104cb565b6001805460ff191660ff92909216919091179055565b60025461014c565b6001546101619060ff1681565b61012e6102103660046104ee565b600180546001600160501b03909216610100026affffffffffffffffffff0019909216919091179055565b6102596102493660046104ee565b6000805460025492939092908290565b604080516001600160501b03968716815260208101959095528401929092526060830152909116608082015260a00161013a565b60015461010090046001600160501b0316610193565b61012e6102b1366004610452565b600255565b61014c60025481565b60008054600254829081610259565b61030d6040518060400160405280601f81526020017f2d2d2d2d2d2d2d2d2d2d2d2d2d7365742d2d2d2d2d2d2d2d2d3132332d2d2d00815250826103a2565b600055565b60006103526040518060400160405280601c81526020017f2d2d2d2d2d2d2d2d2d2d2d2d2d6765742d2d2d2d2d2d2d2d2d2d2d2d000000008152506103eb565b5060005490565b600061038d604051806040016040528060118152602001701cdd185c9d081b185d195cdd149bdd5b99607a1b8152506103eb565b5060015461010090046001600160501b031690565b6103e782826040516024016103b8929190610517565b60408051601f198184030181529190526020810180516001600160e01b0316632d839cb360e21b179052610431565b5050565b61042e816040516024016103ff91906104b1565b60408051601f198184030181529190526020810180516001600160e01b031663104c13eb60e21b179052610431565b50565b80516a636f6e736f6c652e6c6f67602083016000808483855afa5050505050565b60006020828403121561046457600080fd5b5035919050565b6000815180845260005b8181101561049157602081850181015186830182015201610475565b506000602082860101526020601f19601f83011685010191505092915050565b6020815260006104c4602083018461046b565b9392505050565b6000602082840312156104dd57600080fd5b813560ff811681146104c457600080fd5b60006020828403121561050057600080fd5b81356001600160501b03811681146104c457600080fd5b60408152600061052a604083018561046b565b9050826020830152939250505056fea264697066735822122019f1690f116ceefcf0d9ebcbde38a09d482cd455cee9c43f60eef11b266c6d2264736f6c63430008110033",
    "linkReferences": {}
  },
  "methodIdentifiers": {
    "aggregator()": "245a7bfc",
    "decimals()": "313ce567",
    "description()": "7284e416",
    "getRound()": "9f8743f7",
    "getRoundData(uint80)": "9a6fc8f5",
    "latestAnswer()": "50d25bcd",
    "latestRound()": "668a0f02",
    "latestRoundData()": "feaf968c",
    "latestTimestamp()": "8205bf6a",
    "s_answer()": "305da2db",
    "s_decimals()": "94844248",
    "s_round()": "53f1906e",
    "s_timestamp()": "cf67f902",
    "setDecimals(uint8)": "7a1395aa",
    "setLatestAnswer(int256)": "04ea97b0",
    "setRound(uint80)": "972a7e8f",
    "setTimestamp(uint256)": "a0a2b573",
    "version()": "54fd4d50"
  },
  "id": 35
}