{
  "abi": [
    {
      "inputs": [],
      "name": "PRICE_PRECISION",
      "outputs": [
        {
          "internalType": "uint256",
          "name": "",
          "type": "uint256"
        }
      ],
      "stateMutability": "view",
      "type": "function"
    },
    {
      "inputs": [],
      "name": "fastPriceFeed",
      "outputs": [
        {
          "internalType": "address",
          "name": "",
          "type": "address"
        }
      ],
      "stateMutability": "view",
      "type": "function"
    },
    {
      "inputs": [
        {
          "internalType": "address",
          "name": "_token",
          "type": "address"
        },
        {
          "internalType": "bool",
          "name": "_maximise",
          "type": "bool"
        }
      ],
      "name": "getPrice",
      "outputs": [
        {
          "internalType": "uint256",
          "name": "",
          "type": "uint256"
        }
      ],
      "stateMutability": "view",
      "type": "function"
    },
    {
      "inputs": [
        {
          "internalType": "address",
          "name": "token",
          "type": "address"
        },
        {
          "internalType": "uint256",
          "name": "price",
          "type": "uint256"
        }
      ],
      "name": "setPrice",
      "outputs": [],
      "stateMutability": "nonpayable",
      "type": "function"
    },
    {
      "inputs": [
        {
          "internalType": "address[]",
          "name": "_tokens",
          "type": "address[]"
        },
        {
          "internalType": "uint256[]",
          "name": "_prices",
          "type": "uint256[]"
        },
        {
          "internalType": "uint256",
          "name": "_timestamp",
          "type": "uint256"
        }
      ],
      "name": "setPrices",
      "outputs": [],
      "stateMutability": "nonpayable",
      "type": "function"
    }
  ],
  "bytecode": {
    "object": "0x608060405234801561001057600080fd5b5061057f806100206000396000f3fe608060405234801561001057600080fd5b50600436106100565760003560e01c8062e4768b1461005b5780633a849c211461007057806376d6976014610083578063782661bc146100a457806395082d25146100b7575b600080fd5b61006e610069366004610307565b6100cb565b005b6040513081526020015b60405180910390f35b610096610091366004610331565b610172565b60405190815260200161007a565b61006e6100b2366004610443565b6101df565b6100966c0c9f2c9cd04674edea4000000081565b6001600160a01b0382166101165760405162461bcd60e51b815260206004820152600d60248201526c34b73b30b634b2103a37b5b2b760991b60448201526064015b60405180910390fd5b600081116101565760405162461bcd60e51b815260206004820152600d60248201526c696e76616c696420707269636560981b604482015260640161010d565b6001600160a01b03909116600090815260208190526040902055565b6001600160a01b038216600090815260208190526040812054806101d85760405162461bcd60e51b815260206004820152601c60248201527f77726f6e6720746f6b656e206f72207072696365206e6f742073657400000000604482015260640161010d565b9392505050565b60005b83518110156102e55760008482815181106101ff576101ff61050c565b60200260200101519050600084838151811061021d5761021d61050c565b6020026020010151905060006001600160a01b0316826001600160a01b0316036102795760405162461bcd60e51b815260206004820152600d60248201526c34b73b30b634b2103a37b5b2b760991b604482015260640161010d565b600081116102b95760405162461bcd60e51b815260206004820152600d60248201526c696e76616c696420707269636560981b604482015260640161010d565b6001600160a01b03909116600090815260208190526040902055806102dd81610522565b9150506101e2565b50505050565b80356001600160a01b038116811461030257600080fd5b919050565b6000806040838503121561031a57600080fd5b610323836102eb565b946020939093013593505050565b6000806040838503121561034457600080fd5b61034d836102eb565b91506020830135801515811461036257600080fd5b809150509250929050565b634e487b7160e01b600052604160045260246000fd5b604051601f8201601f1916810167ffffffffffffffff811182821017156103ac576103ac61036d565b604052919050565b600067ffffffffffffffff8211156103ce576103ce61036d565b5060051b60200190565b600082601f8301126103e957600080fd5b813560206103fe6103f9836103b4565b610383565b82815260059290921b8401810191818101908684111561041d57600080fd5b8286015b848110156104385780358352918301918301610421565b509695505050505050565b60008060006060848603121561045857600080fd5b833567ffffffffffffffff8082111561047057600080fd5b818601915086601f83011261048457600080fd5b813560206104946103f9836103b4565b82815260059290921b8401810191818101908a8411156104b357600080fd5b948201945b838610156104d8576104c9866102eb565b825294820194908201906104b8565b975050870135925050808211156104ee57600080fd5b506104fb868287016103d8565b925050604084013590509250925092565b634e487b7160e01b600052603260045260246000fd5b60006001820161054257634e487b7160e01b600052601160045260246000fd5b506001019056fea264697066735822122041921333b5cc032b0c6b508cff639acc17dbc78fea0a1914a4a2cb5ec0563e0664736f6c63430008110033",
    "linkReferences": {}
  },
  "methodIdentifiers": {
    "PRICE_PRECISION()": "95082d25",
    "fastPriceFeed()": "3a849c21",
    "getPrice(address,bool)": "76d69760",
    "setPrice(address,uint256)": "00e4768b",
    "setPrices(address[],uint256[],uint256)": "782661bc"
  },
  "id": 47
}