{
  "abi": [
    {
      "anonymous": false,
      "inputs": [
        {
          "indexed": true,
          "internalType": "address",
          "name": "owner",
          "type": "address"
        },
        {
          "indexed": true,
          "internalType": "address",
          "name": "spender",
          "type": "address"
        },
        {
          "indexed": false,
          "internalType": "uint256",
          "name": "value",
          "type": "uint256"
        }
      ],
      "name": "Approval",
      "type": "event"
    },
    {
      "anonymous": false,
      "inputs": [
        {
          "indexed": false,
          "internalType": "address",
          "name": "receiver",
          "type": "address"
        },
        {
          "indexed": false,
          "internalType": "uint256",
          "name": "amount",
          "type": "uint256"
        }
      ],
      "name": "Claim",
      "type": "event"
    },
    {
      "anonymous": false,
      "inputs": [
        {
          "indexed": false,
          "internalType": "address",
          "name": "account",
          "type": "address"
        },
        {
          "indexed": false,
          "internalType": "uint256",
          "name": "amount",
          "type": "uint256"
        }
      ],
      "name": "Deposit",
      "type": "event"
    },
    {
      "anonymous": false,
      "inputs": [
        {
          "indexed": false,
          "internalType": "uint8",
          "name": "version",
          "type": "uint8"
        }
      ],
      "name": "Initialized",
      "type": "event"
    },
    {
      "anonymous": false,
      "inputs": [
        {
          "indexed": true,
          "internalType": "address",
          "name": "previousOwner",
          "type": "address"
        },
        {
          "indexed": true,
          "internalType": "address",
          "name": "newOwner",
          "type": "address"
        }
      ],
      "name": "OwnershipTransferred",
      "type": "event"
    },
    {
      "anonymous": false,
      "inputs": [
        {
          "indexed": true,
          "internalType": "bytes32",
          "name": "role",
          "type": "bytes32"
        },
        {
          "indexed": true,
          "internalType": "bytes32",
          "name": "previousAdminRole",
          "type": "bytes32"
        },
        {
          "indexed": true,
          "internalType": "bytes32",
          "name": "newAdminRole",
          "type": "bytes32"
        }
      ],
      "name": "RoleAdminChanged",
      "type": "event"
    },
    {
      "anonymous": false,
      "inputs": [
        {
          "indexed": true,
          "internalType": "bytes32",
          "name": "role",
          "type": "bytes32"
        },
        {
          "indexed": true,
          "internalType": "address",
          "name": "account",
          "type": "address"
        },
        {
          "indexed": true,
          "internalType": "address",
          "name": "sender",
          "type": "address"
        }
      ],
      "name": "RoleGranted",
      "type": "event"
    },
    {
      "anonymous": false,
      "inputs": [
        {
          "indexed": true,
          "internalType": "bytes32",
          "name": "role",
          "type": "bytes32"
        },
        {
          "indexed": true,
          "internalType": "address",
          "name": "account",
          "type": "address"
        },
        {
          "indexed": true,
          "internalType": "address",
          "name": "sender",
          "type": "address"
        }
      ],
      "name": "RoleRevoked",
      "type": "event"
    },
    {
      "anonymous": false,
      "inputs": [
        {
          "indexed": true,
          "internalType": "address",
          "name": "from",
          "type": "address"
        },
        {
          "indexed": true,
          "internalType": "address",
          "name": "to",
          "type": "address"
        },
        {
          "indexed": false,
          "internalType": "uint256",
          "name": "value",
          "type": "uint256"
        }
      ],
      "name": "Transfer",
      "type": "event"
    },
    {
      "anonymous": false,
      "inputs": [
        {
          "indexed": false,
          "internalType": "address",
          "name": "account",
          "type": "address"
        },
        {
          "indexed": false,
          "internalType": "uint256",
          "name": "claimedAmount",
          "type": "uint256"
        },
        {
          "indexed": false,
          "internalType": "uint256",
          "name": "balance",
          "type": "uint256"
        }
      ],
      "name": "Withdraw",
      "type": "event"
    },
    {
      "inputs": [],
      "name": "DEFAULT_ADMIN_ROLE",
      "outputs": [
        {
          "internalType": "bytes32",
          "name": "",
          "type": "bytes32"
        }
      ],
      "stateMutability": "view",
      "type": "function"
    },
    {
      "inputs": [
        {
          "internalType": "address",
          "name": "",
          "type": "address"
        },
        {
          "internalType": "address",
          "name": "",
          "type": "address"
        }
      ],
      "name": "allowance",
      "outputs": [
        {
          "internalType": "uint256",
          "name": "",
          "type": "uint256"
        }
      ],
      "stateMutability": "view",
      "type": "function"
    },
    {
      "inputs": [
        {
          "internalType": "address",
          "name": "",
          "type": "address"
        },
        {
          "internalType": "uint256",
          "name": "",
          "type": "uint256"
        }
      ],
      "name": "approve",
      "outputs": [
        {
          "internalType": "bool",
          "name": "",
          "type": "bool"
        }
      ],
      "stateMutability": "nonpayable",
      "type": "function"
    },
    {
      "inputs": [
        {
          "internalType": "address",
          "name": "_account",
          "type": "address"
        }
      ],
      "name": "balanceOf",
      "outputs": [
        {
          "internalType": "uint256",
          "name": "",
          "type": "uint256"
        }
      ],
      "stateMutability": "view",
      "type": "function"
    },
    {
      "inputs": [
        {
          "internalType": "address",
          "name": "",
          "type": "address"
        }
      ],
      "name": "balances",
      "outputs": [
        {
          "internalType": "uint256",
          "name": "",
          "type": "uint256"
        }
      ],
      "stateMutability": "view",
      "type": "function"
    },
    {
      "inputs": [],
      "name": "claim",
      "outputs": [
        {
          "internalType": "uint256",
          "name": "",
          "type": "uint256"
        }
      ],
      "stateMutability": "nonpayable",
      "type": "function"
    },
    {
      "inputs": [
        {
          "internalType": "address",
          "name": "_account",
          "type": "address"
        }
      ],
      "name": "claimForAccount",
      "outputs": [
        {
          "internalType": "uint256",
          "name": "",
          "type": "uint256"
        }
      ],
      "stateMutability": "nonpayable",
      "type": "function"
    },
    {
      "inputs": [
        {
          "internalType": "address",
          "name": "_account",
          "type": "address"
        }
      ],
      "name": "claimable",
      "outputs": [
        {
          "internalType": "uint256",
          "name": "",
          "type": "uint256"
        }
      ],
      "stateMutability": "view",
      "type": "function"
    },
    {
      "inputs": [],
      "name": "claimableToken",
      "outputs": [
        {
          "internalType": "address",
          "name": "",
          "type": "address"
        }
      ],
      "stateMutability": "view",
      "type": "function"
    },
    {
      "inputs": [
        {
          "internalType": "address",
          "name": "",
          "type": "address"
        }
      ],
      "name": "claimedAmounts",
      "outputs": [
        {
          "internalType": "uint256",
          "name": "",
          "type": "uint256"
        }
      ],
      "stateMutability": "view",
      "type": "function"
    },
    {
      "inputs": [
        {
          "internalType": "address",
          "name": "",
          "type": "address"
        }
      ],
      "name": "cumulativeClaimAmounts",
      "outputs": [
        {
          "internalType": "uint256",
          "name": "",
          "type": "uint256"
        }
      ],
      "stateMutability": "view",
      "type": "function"
    },
    {
      "inputs": [],
      "name": "decimals",
      "outputs": [
        {
          "internalType": "uint8",
          "name": "",
          "type": "uint8"
        }
      ],
      "stateMutability": "view",
      "type": "function"
    },
    {
      "inputs": [
        {
          "internalType": "uint256",
          "name": "_amount",
          "type": "uint256"
        }
      ],
      "name": "deposit",
      "outputs": [],
      "stateMutability": "nonpayable",
      "type": "function"
    },
    {
      "inputs": [
        {
          "internalType": "address",
          "name": "_account",
          "type": "address"
        },
        {
          "internalType": "uint256",
          "name": "_amount",
          "type": "uint256"
        }
      ],
      "name": "depositForAccount",
      "outputs": [],
      "stateMutability": "nonpayable",
      "type": "function"
    },
    {
      "inputs": [
        {
          "internalType": "bytes32",
          "name": "role",
          "type": "bytes32"
        }
      ],
      "name": "getRoleAdmin",
      "outputs": [
        {
          "internalType": "bytes32",
          "name": "",
          "type": "bytes32"
        }
      ],
      "stateMutability": "view",
      "type": "function"
    },
    {
      "inputs": [
        {
          "internalType": "address",
          "name": "_account",
          "type": "address"
        }
      ],
      "name": "getTotalVested",
      "outputs": [
        {
          "internalType": "uint256",
          "name": "",
          "type": "uint256"
        }
      ],
      "stateMutability": "view",
      "type": "function"
    },
    {
      "inputs": [
        {
          "internalType": "address",
          "name": "_account",
          "type": "address"
        }
      ],
      "name": "getVestedAmount",
      "outputs": [
        {
          "internalType": "uint256",
          "name": "",
          "type": "uint256"
        }
      ],
      "stateMutability": "view",
      "type": "function"
    },
    {
      "inputs": [
        {
          "internalType": "address",
          "name": "_account",
          "type": "address"
        }
      ],
      "name": "grantControllerRoleByMarketManager",
      "outputs": [],
      "stateMutability": "nonpayable",
      "type": "function"
    },
    {
      "inputs": [
        {
          "internalType": "bytes32",
          "name": "role",
          "type": "bytes32"
        },
        {
          "internalType": "address",
          "name": "account",
          "type": "address"
        }
      ],
      "name": "grantRole",
      "outputs": [],
      "stateMutability": "nonpayable",
      "type": "function"
    },
    {
      "inputs": [],
      "name": "hasMaxVestableAmount",
      "outputs": [
        {
          "internalType": "bool",
          "name": "",
          "type": "bool"
        }
      ],
      "stateMutability": "view",
      "type": "function"
    },
    {
      "inputs": [
        {
          "internalType": "bytes32",
          "name": "role",
          "type": "bytes32"
        },
        {
          "internalType": "address",
          "name": "account",
          "type": "address"
        }
      ],
      "name": "hasRole",
      "outputs": [
        {
          "internalType": "bool",
          "name": "",
          "type": "bool"
        }
      ],
      "stateMutability": "view",
      "type": "function"
    },
    {
      "inputs": [
        {
          "internalType": "string",
          "name": "_name",
          "type": "string"
        },
        {
          "internalType": "string",
          "name": "_symbol",
          "type": "string"
        },
        {
          "internalType": "uint256",
          "name": "_vestingDuration",
          "type": "uint256"
        },
        {
          "internalType": "address",
          "name": "_stakeToken",
          "type": "address"
        },
        {
          "internalType": "address",
          "name": "_claimableToken",
          "type": "address"
        }
      ],
      "name": "initialize",
      "outputs": [],
      "stateMutability": "nonpayable",
      "type": "function"
    },
    {
      "inputs": [
        {
          "internalType": "address",
          "name": "",
          "type": "address"
        }
      ],
      "name": "lastVestingTimes",
      "outputs": [
        {
          "internalType": "uint256",
          "name": "",
          "type": "uint256"
        }
      ],
      "stateMutability": "view",
      "type": "function"
    },
    {
      "inputs": [],
      "name": "name",
      "outputs": [
        {
          "internalType": "string",
          "name": "",
          "type": "string"
        }
      ],
      "stateMutability": "view",
      "type": "function"
    },
    {
      "inputs": [],
      "name": "owner",
      "outputs": [
        {
          "internalType": "address",
          "name": "",
          "type": "address"
        }
      ],
      "stateMutability": "view",
      "type": "function"
    },
    {
      "inputs": [],
      "name": "renounceOwnership",
      "outputs": [],
      "stateMutability": "nonpayable",
      "type": "function"
    },
    {
      "inputs": [
        {
          "internalType": "bytes32",
          "name": "",
          "type": "bytes32"
        },
        {
          "internalType": "address",
          "name": "",
          "type": "address"
        }
      ],
      "name": "renounceRole",
      "outputs": [],
      "stateMutability": "nonpayable",
      "type": "function"
    },
    {
      "inputs": [
        {
          "internalType": "bytes32",
          "name": "role",
          "type": "bytes32"
        },
        {
          "internalType": "address",
          "name": "account",
          "type": "address"
        }
      ],
      "name": "revokeRole",
      "outputs": [],
      "stateMutability": "nonpayable",
      "type": "function"
    },
    {
      "inputs": [
        {
          "internalType": "bool",
          "name": "_hasMaxVestableAmount",
          "type": "bool"
        }
      ],
      "name": "setHasMaxVestableAmount",
      "outputs": [],
      "stateMutability": "nonpayable",
      "type": "function"
    },
    {
      "inputs": [],
      "name": "stakeToken",
      "outputs": [
        {
          "internalType": "address",
          "name": "",
          "type": "address"
        }
      ],
      "stateMutability": "view",
      "type": "function"
    },
    {
      "inputs": [
        {
          "internalType": "bytes4",
          "name": "interfaceId",
          "type": "bytes4"
        }
      ],
      "name": "supportsInterface",
      "outputs": [
        {
          "internalType": "bool",
          "name": "",
          "type": "bool"
        }
      ],
      "stateMutability": "view",
      "type": "function"
    },
    {
      "inputs": [],
      "name": "symbol",
      "outputs": [
        {
          "internalType": "string",
          "name": "",
          "type": "string"
        }
      ],
      "stateMutability": "view",
      "type": "function"
    },
    {
      "inputs": [],
      "name": "totalSupply",
      "outputs": [
        {
          "internalType": "uint256",
          "name": "",
          "type": "uint256"
        }
      ],
      "stateMutability": "view",
      "type": "function"
    },
    {
      "inputs": [
        {
          "internalType": "address",
          "name": "",
          "type": "address"
        },
        {
          "internalType": "uint256",
          "name": "",
          "type": "uint256"
        }
      ],
      "name": "transfer",
      "outputs": [
        {
          "internalType": "bool",
          "name": "",
          "type": "bool"
        }
      ],
      "stateMutability": "pure",
      "type": "function"
    },
    {
      "inputs": [
        {
          "internalType": "address",
          "name": "to",
          "type": "address"
        }
      ],
      "name": "transferAdmin",
      "outputs": [],
      "stateMutability": "nonpayable",
      "type": "function"
    },
    {
      "inputs": [
        {
          "internalType": "address",
          "name": "",
          "type": "address"
        },
        {
          "internalType": "address",
          "name": "",
          "type": "address"
        },
        {
          "internalType": "uint256",
          "name": "",
          "type": "uint256"
        }
      ],
      "name": "transferFrom",
      "outputs": [
        {
          "internalType": "bool",
          "name": "",
          "type": "bool"
        }
      ],
      "stateMutability": "nonpayable",
      "type": "function"
    },
    {
      "inputs": [
        {
          "internalType": "address",
          "name": "newOwner",
          "type": "address"
        }
      ],
      "name": "transferOwnership",
      "outputs": [],
      "stateMutability": "nonpayable",
      "type": "function"
    },
    {
      "inputs": [],
      "name": "vestingDuration",
      "outputs": [
        {
          "internalType": "uint256",
          "name": "",
          "type": "uint256"
        }
      ],
      "stateMutability": "view",
      "type": "function"
    },
    {
      "inputs": [
        {
          "internalType": "address",
          "name": "account",
          "type": "address"
        }
      ],
      "name": "withdrawForAccount",
      "outputs": [],
      "stateMutability": "nonpayable",
      "type": "function"
    },
    {
      "inputs": [
        {
          "internalType": "address",
          "name": "_token",
          "type": "address"
        },
        {
          "internalType": "address",
          "name": "_account",
          "type": "address"
        },
        {
          "internalType": "uint256",
          "name": "_amount",
          "type": "uint256"
        }
      ],
      "name": "withdrawToken",
      "outputs": [],
      "stateMutability": "nonpayable",
      "type": "function"
    }
  ],
  "bytecode": {
    "object": "0x608060405234801561001057600080fd5b50600160005561001f33610024565b610076565b600280546001600160a01b038381166001600160a01b0319831681179093556040519116919082907f8be0079c531659141344cd1fd0a4f28419497f9722a3daafe3b4186f6b6457e090600090a35050565b611ef5806100856000396000f3fe608060405234801561001057600080fd5b50600436106102485760003560e01c806371417b321161013b578063a9059cbb116100b8578063d547741f1161007c578063d547741f14610522578063d5a73fdd14610535578063dd62ed3e14610548578063f2fde38b1461055e578063f6d6d5aa1461057157600080fd5b8063a9059cbb1461029f578063acf077a5146104cf578063afd6a5cc146104dc578063b5ff136d146104ef578063b6b55f251461050f57600080fd5b80638da5cb5b116100ff5780638da5cb5b1461048857806391d148541461049957806393035473146104ac57806395d89b41146104bf578063a217fddf146104c757600080fd5b806371417b3214610427578063715018a61461044757806375829def1461044f5780637e77c503146104625780637fe4a6981461047557600080fd5b80632f2ff15d116101c9578063402914f51161018d578063402914f5146103a55780634e71d92d146103b857806351ed6a30146103c057806369de9b93146103eb57806370a08231146103fe57600080fd5b80632f2ff15d14610344578063313ce56714610357578063342fcda91461037157806336568abe146103845780633bf3506c1461039257600080fd5b80631514617e116102105780631514617e146102e057806318160ddd146102e957806323b872dd146102f2578063248a9ca31461030057806327e235e31461032457600080fd5b806301e336671461024d57806301ffc9a71461026257806306fdde031461028a578063095ea7b31461029f5780630db9ea4a146102b2575b600080fd5b61026061025b36600461193e565b610584565b005b61027561027036600461197a565b6105c8565b60405190151581526020015b60405180910390f35b6102926105ff565b60405161028191906119c8565b6102756102ad3660046119fb565b61068d565b6102d26102c0366004611a25565b600e6020526000908152604090205481565b604051908152602001610281565b6102d260065481565b6102d260095481565b6102756102ad36600461193e565b6102d261030e366004611a40565b6000908152600160208190526040909120015490565b6102d2610332366004611a25565b600b6020526000908152604090205481565b610260610352366004611a59565b6106dd565b61035f601281565b60405160ff9091168152602001610281565b61026061037f3660046119fb565b610708565b610260610248366004611a59565b6102606103a0366004611a25565b610728565b6102d26103b3366004611a25565b6108ae565b6102d26108ff565b6007546103d3906001600160a01b031681565b6040516001600160a01b039091168152602001610281565b6102606103f9366004611a93565b610922565b6102d261040c366004611a25565b6001600160a01b03166000908152600b602052604090205490565b6102d2610435366004611a25565b600d6020526000908152604090205481565b610260610960565b61026061045d366004611a25565b610974565b610260610470366004611b53565b6109e4565b610260610483366004611a25565b610b65565b6002546001600160a01b03166103d3565b6102756104a7366004611a59565b610b8f565b6102d26104ba366004611a25565b610bba565b610292610be7565b6102d2600081565b600a546102759060ff1681565b6102d26104ea366004611a25565b610bf4565b6102d26104fd366004611a25565b600c6020526000908152604090205481565b61026061051d366004611a40565b610c19565b610260610530366004611a59565b610c35565b6102d2610543366004611a25565b610c5b565b6102d2610556366004611be2565b600092915050565b61026061056c366004611a25565b610c89565b6008546103d3906001600160a01b031681565b7fcb6bc1c12dd43bca8d7dd46d975f913325437d0dcd5978e99d515e4ad39b97726105ae81610cff565b6105c26001600160a01b0385168484610d09565b50505050565b60006001600160e01b03198216637965db0b60e01b14806105f957506301ffc9a760e01b6001600160e01b03198316145b92915050565b6004805461060c90611c0c565b80601f016020809104026020016040519081016040528092919081815260200182805461063890611c0c565b80156106855780601f1061065a57610100808354040283529160200191610685565b820191906000526020600020905b81548152906001019060200180831161066857829003601f168201915b505050505081565b60405162461bcd60e51b815260206004820152601960248201527f5665737465723a206e6f6e2d7472616e736665727261626c650000000000000060448201526000906064015b60405180910390fd5b600082815260016020819052604090912001546106f981610cff565b6107038383610d6c565b505050565b610710610dd7565b61071a8282610e30565b6107246001600055565b5050565b610730610dd7565b8061073b8180610ef1565b506001600160a01b0382166000908152600c6020908152604080832054600b909252822054909161076c8284610ff2565b9050600081116107be5760405162461bcd60e51b815260206004820152601d60248201527f5665737465723a2076657374656420616d6f756e74206973207a65726f00000060448201526064016106d4565b6007546040516340c10f1960e01b81526001600160a01b03868116600483015260248201859052909116906340c10f1990604401600060405180830381600087803b15801561080c57600080fd5b505af1158015610820573d6000803e3d6000fd5b5050505061082e8583611005565b6001600160a01b0385166000818152600c60209081526040808320839055600d8252808320839055600e8252808320929092558151928352820185905281018390527ff279e6a1f5e320cca91135676d9cb6e44ca8a08c0b88342bcdb1144f6511b5689060600160405180910390a1505050506108ab6001600055565b50565b6001600160a01b0381166000908152600d6020908152604080832054600c90925282205482916108de9190611112565b905060006108eb8461111e565b90506108f78282610ff2565b949350505050565b6000610909610dd7565b6109133333610ef1565b905061091f6001600055565b90565b7fcb6bc1c12dd43bca8d7dd46d975f913325437d0dcd5978e99d515e4ad39b977261094c81610cff565b50600a805460ff1916911515919091179055565b6109686111bc565b6109726000611216565b565b600061097f81610cff565b6001600160a01b0382166109c55760405162461bcd60e51b815260206004820152600d60248201526c217a65726f206164647265737360981b60448201526064016106d4565b6109d0600083611268565b6109d982611216565b610724600033611272565b600254600160a81b900460ff1615808015610a0c57506002546001600160a01b90910460ff16105b80610a2d5750303b158015610a2d5750600254600160a01b900460ff166001145b610a905760405162461bcd60e51b815260206004820152602e60248201527f496e697469616c697a61626c653a20636f6e747261637420697320616c72656160448201526d191e481a5b9a5d1a585b1a5e995960921b60648201526084016106d4565b6002805460ff60a01b1916600160a01b1790558015610abd576002805460ff60a81b1916600160a81b1790555b610ac6336112d9565b6004610ad28782611c8c565b506005610adf8682611c8c565b506006849055600780546001600160a01b038086166001600160a01b03199283161790925560088054928516929091169190911790558015610b5d576002805460ff60a81b19169055604051600181527f7f26b83ff96e1f2b6a682f133852f6798a09c465da95921460cefb38474024989060200160405180910390a15b505050505050565b7f8d1089725c0dc266707fa6207730fb801dcd03108bfed7a21099bd303651d2b761024881610cff565b60009182526001602090815260408084206001600160a01b0393909316845291905290205460ff1690565b6001600160a01b0381166000908152600c6020908152604080832054600b9092528220546105f991610ff2565b6005805461060c90611c0c565b6000610bfe610dd7565b610c088283610ef1565b9050610c146001600055565b919050565b610c21610dd7565b610c2b3382610e30565b6108ab6001600055565b60008281526001602081905260409091200154610c5181610cff565b6107038383611272565b6001600160a01b0381166000908152600b6020908152604080832054600c9092528220546108f78282610ff2565b610c916111bc565b6001600160a01b038116610cf65760405162461bcd60e51b815260206004820152602660248201527f4f776e61626c653a206e6577206f776e657220697320746865207a65726f206160448201526564647265737360d01b60648201526084016106d4565b6108ab81611216565b6108ab81336112fc565b6040516001600160a01b03831660248201526044810182905261070390849063a9059cbb60e01b906064015b60408051601f198184030181529190526020810180516001600160e01b03166001600160e01b031990931692909217909152611355565b610d768282610b8f565b6107245760008281526001602081815260408084206001600160a01b0386168086529252808420805460ff19169093179092559051339285917f2f8788117e7eff1d82e926ec794901d17c78024a50270940304540a733656f0d9190a45050565b600260005403610e295760405162461bcd60e51b815260206004820152601f60248201527f5265656e7472616e637947756172643a207265656e7472616e742063616c6c0060448201526064016106d4565b6002600055565b60008111610e805760405162461bcd60e51b815260206004820152601760248201527f5665737465723a20696e76616c6964205f616d6f756e7400000000000000000060448201526064016106d4565b610e898261142a565b600754610ea1906001600160a01b0316833084611500565b610eab8282611538565b604080516001600160a01b0384168152602081018390527fe1fffcc4923d04b559f4d29a8bfc6cda04eb5b0d3c460751c2402c5c5cc9109c910160405180910390a15050565b6000610efc8361142a565b6000610f07846108ae565b6001600160a01b0385166000908152600d6020526040902054909150610f2d9082610ff2565b6001600160a01b038581166000908152600d6020526040908190209290925560085491516340c10f1960e01b81528582166004820152602481018490529116906340c10f1990604401600060405180830381600087803b158015610f9057600080fd5b505af1158015610fa4573d6000803e3d6000fd5b5050604080516001600160a01b0388168152602081018590527f47cee97cb7acd717b3c0aa1435d004cd5b3c8c57d70dbceb4e4458bbd60e39d4935001905060405180910390a19392505050565b6000610ffe8284611d62565b9392505050565b6001600160a01b0382166110665760405162461bcd60e51b815260206004820152602260248201527f5665737465723a206275726e2066726f6d20746865207a65726f206164647265604482015261737360f01b60648201526084016106d4565b6110a381604051806060016040528060238152602001611e9d602391396001600160a01b0385166000908152600b60205260409020549190611612565b6001600160a01b0383166000908152600b60205260409020556009546110c99082611112565b6009556040518181526000906001600160a01b038416907fddf252ad1be2c89b69c2b068fc378daa952ba7f163c4a11628f55a4df523b3ef906020015b60405180910390a35050565b6000610ffe8284611d75565b6001600160a01b0381166000908152600e60205260408120548190611144904290611112565b6001600160a01b0384166000908152600b6020526040812054919250819003611171575060009392505050565b600061117c85610c5b565b9050600061119f600654611199868561163e90919063ffffffff16565b9061164a565b9050828110156111b25795945050505050565b5090949350505050565b6002546001600160a01b031633146109725760405162461bcd60e51b815260206004820181905260248201527f4f776e61626c653a2063616c6c6572206973206e6f7420746865206f776e657260448201526064016106d4565b600280546001600160a01b038381166001600160a01b0319831681179093556040519116919082907f8be0079c531659141344cd1fd0a4f28419497f9722a3daafe3b4186f6b6457e090600090a35050565b6107248282610d6c565b61127c8282610b8f565b156107245760008281526001602090815260408083206001600160a01b0385168085529252808320805460ff1916905551339285917ff6391f5c32d9c69d2a47ea670b442974b53935d1edc7fd64eb21e047a839171b9190a45050565b426003556112e633611216565b6112f1600033611268565b6108ab600082611268565b6113068282610b8f565b6107245761131381611656565b61131e836020611668565b60405160200161132f929190611d88565b60408051601f198184030181529082905262461bcd60e51b82526106d4916004016119c8565b60006113aa826040518060400160405280602081526020017f5361666545524332303a206c6f772d6c6576656c2063616c6c206661696c6564815250856001600160a01b03166118049092919063ffffffff16565b90508051600014806113cb5750808060200190518101906113cb9190611dfd565b6107035760405162461bcd60e51b815260206004820152602a60248201527f5361666545524332303a204552433230206f7065726174696f6e20646964206e6044820152691bdd081cdd58d8d9595960b21b60648201526084016106d4565b60006114358261111e565b6001600160a01b0383166000908152600e6020526040812042905590915081900361145e575050565b6114688282611005565b6001600160a01b0382166000908152600c602052604090205461148b9082610ff2565b6001600160a01b038381166000908152600c602052604090819020929092556007549151632770a7eb60e21b815230600482015260248101849052911690639dc29fac90604401600060405180830381600087803b1580156114ec57600080fd5b505af1158015610b5d573d6000803e3d6000fd5b6040516001600160a01b03808516602483015283166044820152606481018290526105c29085906323b872dd60e01b90608401610d35565b6001600160a01b03821661158e5760405162461bcd60e51b815260206004820181905260248201527f5665737465723a206d696e7420746f20746865207a65726f206164647265737360448201526064016106d4565b60095461159b9082610ff2565b6009556001600160a01b0382166000908152600b60205260409020546115c19082610ff2565b6001600160a01b0383166000818152600b60205260408082209390935591519091907fddf252ad1be2c89b69c2b068fc378daa952ba7f163c4a11628f55a4df523b3ef906111069085815260200190565b600081848411156116365760405162461bcd60e51b81526004016106d491906119c8565b505050900390565b6000610ffe8284611e1a565b6000610ffe8284611e31565b60606105f96001600160a01b03831660145b60606000611677836002611e1a565b611682906002611d62565b67ffffffffffffffff81111561169a5761169a611ab0565b6040519080825280601f01601f1916602001820160405280156116c4576020820181803683370190505b509050600360fc1b816000815181106116df576116df611e53565b60200101906001600160f81b031916908160001a905350600f60fb1b8160018151811061170e5761170e611e53565b60200101906001600160f81b031916908160001a9053506000611732846002611e1a565b61173d906001611d62565b90505b60018111156117b5576f181899199a1a9b1b9c1cb0b131b232b360811b85600f166010811061177157611771611e53565b1a60f81b82828151811061178757611787611e53565b60200101906001600160f81b031916908160001a90535060049490941c936117ae81611e69565b9050611740565b508315610ffe5760405162461bcd60e51b815260206004820181905260248201527f537472696e67733a20686578206c656e67746820696e73756666696369656e7460448201526064016106d4565b60606108f7848460008585600080866001600160a01b0316858760405161182b9190611e80565b60006040518083038185875af1925050503d8060008114611868576040519150601f19603f3d011682016040523d82523d6000602084013e61186d565b606091505b509150915061187e87838387611889565b979650505050505050565b606083156118f85782516000036118f1576001600160a01b0385163b6118f15760405162461bcd60e51b815260206004820152601d60248201527f416464726573733a2063616c6c20746f206e6f6e2d636f6e747261637400000060448201526064016106d4565b50816108f7565b6108f7838381511561190d5781518083602001fd5b8060405162461bcd60e51b81526004016106d491906119c8565b80356001600160a01b0381168114610c1457600080fd5b60008060006060848603121561195357600080fd5b61195c84611927565b925061196a60208501611927565b9150604084013590509250925092565b60006020828403121561198c57600080fd5b81356001600160e01b031981168114610ffe57600080fd5b60005b838110156119bf5781810151838201526020016119a7565b50506000910152565b60208152600082518060208401526119e78160408501602087016119a4565b601f01601f19169190910160400192915050565b60008060408385031215611a0e57600080fd5b611a1783611927565b946020939093013593505050565b600060208284031215611a3757600080fd5b610ffe82611927565b600060208284031215611a5257600080fd5b5035919050565b60008060408385031215611a6c57600080fd5b82359150611a7c60208401611927565b90509250929050565b80151581146108ab57600080fd5b600060208284031215611aa557600080fd5b8135610ffe81611a85565b634e487b7160e01b600052604160045260246000fd5b600082601f830112611ad757600080fd5b813567ffffffffffffffff80821115611af257611af2611ab0565b604051601f8301601f19908116603f01168101908282118183101715611b1a57611b1a611ab0565b81604052838152866020858801011115611b3357600080fd5b836020870160208301376000602085830101528094505050505092915050565b600080600080600060a08688031215611b6b57600080fd5b853567ffffffffffffffff80821115611b8357600080fd5b611b8f89838a01611ac6565b96506020880135915080821115611ba557600080fd5b50611bb288828901611ac6565b94505060408601359250611bc860608701611927565b9150611bd660808701611927565b90509295509295909350565b60008060408385031215611bf557600080fd5b611bfe83611927565b9150611a7c60208401611927565b600181811c90821680611c2057607f821691505b602082108103611c4057634e487b7160e01b600052602260045260246000fd5b50919050565b601f82111561070357600081815260208120601f850160051c81016020861015611c6d5750805b601f850160051c820191505b81811015610b5d57828155600101611c79565b815167ffffffffffffffff811115611ca657611ca6611ab0565b611cba81611cb48454611c0c565b84611c46565b602080601f831160018114611cef5760008415611cd75750858301515b600019600386901b1c1916600185901b178555610b5d565b600085815260208120601f198616915b82811015611d1e57888601518255948401946001909101908401611cff565b5085821015611d3c5787850151600019600388901b60f8161c191681555b5050505050600190811b01905550565b634e487b7160e01b600052601160045260246000fd5b808201808211156105f9576105f9611d4c565b818103818111156105f9576105f9611d4c565b7f416363657373436f6e74726f6c3a206163636f756e7420000000000000000000815260008351611dc08160178501602088016119a4565b7001034b99036b4b9b9b4b733903937b6329607d1b6017918401918201528351611df18160288401602088016119a4565b01602801949350505050565b600060208284031215611e0f57600080fd5b8151610ffe81611a85565b80820281158282048414176105f9576105f9611d4c565b600082611e4e57634e487b7160e01b600052601260045260246000fd5b500490565b634e487b7160e01b600052603260045260246000fd5b600081611e7857611e78611d4c565b506000190190565b60008251611e928184602087016119a4565b919091019291505056fe5665737465723a206275726e20616d6f756e7420657863656564732062616c616e6365a2646970667358221220c7cb6f828d6fb3a3e89b09cc18badadfe6fb1df2e207453a7f815f30661a095264736f6c63430008110033",
    "linkReferences": {}
  },
  "methodIdentifiers": {
    "DEFAULT_ADMIN_ROLE()": "a217fddf",
    "allowance(address,address)": "dd62ed3e",
    "approve(address,uint256)": "095ea7b3",
    "balanceOf(address)": "70a08231",
    "balances(address)": "27e235e3",
    "claim()": "4e71d92d",
    "claimForAccount(address)": "afd6a5cc",
    "claimable(address)": "402914f5",
    "claimableToken()": "f6d6d5aa",
    "claimedAmounts(address)": "71417b32",
    "cumulativeClaimAmounts(address)": "b5ff136d",
    "decimals()": "313ce567",
    "deposit(uint256)": "b6b55f25",
    "depositForAccount(address,uint256)": "342fcda9",
    "getRoleAdmin(bytes32)": "248a9ca3",
    "getTotalVested(address)": "93035473",
    "getVestedAmount(address)": "d5a73fdd",
    "grantControllerRoleByMarketManager(address)": "7fe4a698",
    "grantRole(bytes32,address)": "2f2ff15d",
    "hasMaxVestableAmount()": "acf077a5",
    "hasRole(bytes32,address)": "91d14854",
    "initialize(string,string,uint256,address,address)": "7e77c503",
    "lastVestingTimes(address)": "0db9ea4a",
    "name()": "06fdde03",
    "owner()": "8da5cb5b",
    "renounceOwnership()": "715018a6",
    "renounceRole(bytes32,address)": "36568abe",
    "revokeRole(bytes32,address)": "d547741f",
    "setHasMaxVestableAmount(bool)": "69de9b93",
    "stakeToken()": "51ed6a30",
    "supportsInterface(bytes4)": "01ffc9a7",
    "symbol()": "95d89b41",
    "totalSupply()": "18160ddd",
    "transfer(address,uint256)": "a9059cbb",
    "transferAdmin(address)": "75829def",
    "transferFrom(address,address,uint256)": "23b872dd",
    "transferOwnership(address)": "f2fde38b",
    "vestingDuration()": "1514617e",
    "withdrawForAccount(address)": "3bf3506c",
    "withdrawToken(address,address,uint256)": "01e33667"
  },
  "id": 97
}