{
  "abi": [
    {
      "inputs": [
        {
          "internalType": "address",
          "name": "marketAddr",
          "type": "address"
        },
        {
          "internalType": "bool",
          "name": "islong",
          "type": "bool"
        }
      ],
      "stateMutability": "nonpayable",
      "type": "constructor"
    },
    {
      "anonymous": false,
      "inputs": [
        {
          "indexed": true,
          "internalType": "address",
          "name": "previousOwner",
          "type": "address"
        },
        {
          "indexed": true,
          "internalType": "address",
          "name": "newOwner",
          "type": "address"
        }
      ],
      "name": "OwnershipTransferred",
      "type": "event"
    },
    {
      "inputs": [],
      "name": "execLimit",
      "outputs": [
        {
          "internalType": "uint256",
          "name": "",
          "type": "uint256"
        }
      ],
      "stateMutability": "view",
      "type": "function"
    },
    {
      "inputs": [],
      "name": "isLong",
      "outputs": [
        {
          "internalType": "bool",
          "name": "",
          "type": "bool"
        }
      ],
      "stateMutability": "view",
      "type": "function"
    },
    {
      "inputs": [],
      "name": "market",
      "outputs": [
        {
          "internalType": "address",
          "name": "",
          "type": "address"
        }
      ],
      "stateMutability": "view",
      "type": "function"
    },
    {
      "inputs": [],
      "name": "owner",
      "outputs": [
        {
          "internalType": "address",
          "name": "",
          "type": "address"
        }
      ],
      "stateMutability": "view",
      "type": "function"
    },
    {
      "inputs": [],
      "name": "priceOracle",
      "outputs": [
        {
          "internalType": "address",
          "name": "",
          "type": "address"
        }
      ],
      "stateMutability": "view",
      "type": "function"
    },
    {
      "inputs": [],
      "name": "renounceOwnership",
      "outputs": [],
      "stateMutability": "nonpayable",
      "type": "function"
    },
    {
      "inputs": [
        {
          "internalType": "uint256",
          "name": "limit",
          "type": "uint256"
        }
      ],
      "name": "setLimit",
      "outputs": [],
      "stateMutability": "nonpayable",
      "type": "function"
    },
    {
      "inputs": [
        {
          "internalType": "address",
          "name": "m",
          "type": "address"
        }
      ],
      "name": "setMarket",
      "outputs": [],
      "stateMutability": "nonpayable",
      "type": "function"
    },
    {
      "inputs": [
        {
          "internalType": "address",
          "name": "newOwner",
          "type": "address"
        }
      ],
      "name": "transferOwnership",
      "outputs": [],
      "stateMutability": "nonpayable",
      "type": "function"
    },
    {
      "inputs": [
        {
          "internalType": "address",
          "name": "token",
          "type": "address"
        },
        {
          "internalType": "address",
          "name": "to",
          "type": "address"
        },
        {
          "internalType": "uint256",
          "name": "amount",
          "type": "uint256"
        }
      ],
      "name": "withdraw",
      "outputs": [],
      "stateMutability": "nonpayable",
      "type": "function"
    }
  ],
  "bytecode": {
    "object": "0x6080604052600560035534801561001557600080fd5b50604051610a12380380610a12833981016040819052610034916101b0565b61003d33610144565b6001600160a01b0382166100885760405162461bcd60e51b815260206004820152600e60248201526d1a5b9d985b1a59081b585c9ad95d60921b604482015260640160405180910390fd5b600180546001600160a01b0319166001600160a01b0384169081179091556002805460ff60a01b1916600160a01b8415150217905560408051633a0df78d60e11b8152905163741bef1a916004808201926020929091908290030181865afa1580156100f8573d6000803e3d6000fd5b505050506040513d601f19601f8201168201806040525081019061011c91906101ec565b600280546001600160a01b0319166001600160a01b03929092169190911790555061020e9050565b600080546001600160a01b038381166001600160a01b0319831681178455604051919092169283917f8be0079c531659141344cd1fd0a4f28419497f9722a3daafe3b4186f6b6457e09190a35050565b80516001600160a01b03811681146101ab57600080fd5b919050565b600080604083850312156101c357600080fd5b6101cc83610194565b9150602083015180151581146101e157600080fd5b809150509250929050565b6000602082840312156101fe57600080fd5b61020782610194565b9392505050565b6107f58061021d6000396000f3fe608060405234801561001057600080fd5b506004361061009e5760003560e01c806380f556051161006657806380f55605146101275780638d54365a1461013a5780638da5cb5b14610151578063d9caed1214610162578063f2fde38b1461017557600080fd5b8063202a61a1146100a35780632630c12f146100cc57806327ea6f2b146100f75780636dcea85f1461010c578063715018a61461011f575b600080fd5b6002546100b790600160a01b900460ff1681565b60405190151581526020015b60405180910390f35b6002546100df906001600160a01b031681565b6040516001600160a01b0390911681526020016100c3565b61010a61010536600461067a565b610188565b005b61010a61011a3660046106a8565b6101da565b61010a610282565b6001546100df906001600160a01b031681565b61014360035481565b6040519081526020016100c3565b6000546001600160a01b03166100df565b61010a6101703660046106cc565b610296565b61010a6101833660046106a8565b6102b7565b610190610330565b600081116101d55760405162461bcd60e51b815260206004820152600d60248201526c1a5b9d985b1a59081b1a5b5a5d609a1b60448201526064015b60405180910390fd5b600355565b6101e2610330565b600180546001600160a01b0319166001600160a01b03831690811790915560408051633a0df78d60e11b8152905163741bef1a916004808201926020929091908290030181865afa15801561023b573d6000803e3d6000fd5b505050506040513d601f19601f8201168201806040525081019061025f919061070d565b600280546001600160a01b0319166001600160a01b039290921691909117905550565b61028a610330565b610294600061038a565b565b61029e610330565b6102b26001600160a01b03841683836103da565b505050565b6102bf610330565b6001600160a01b0381166103245760405162461bcd60e51b815260206004820152602660248201527f4f776e61626c653a206e6577206f776e657220697320746865207a65726f206160448201526564647265737360d01b60648201526084016101cc565b61032d8161038a565b50565b6000546001600160a01b031633146102945760405162461bcd60e51b815260206004820181905260248201527f4f776e61626c653a2063616c6c6572206973206e6f7420746865206f776e657260448201526064016101cc565b600080546001600160a01b038381166001600160a01b0319831681178455604051919092169283917f8be0079c531659141344cd1fd0a4f28419497f9722a3daafe3b4186f6b6457e09190a35050565b604080516001600160a01b03848116602483015260448083018590528351808403909101815260649092018352602080830180516001600160e01b031663a9059cbb60e01b17905283518085019094528084527f5361666545524332303a206c6f772d6c6576656c2063616c6c206661696c6564908401526102b29286929160009161046a9185169084906104ea565b905080516000148061048b57508080602001905181019061048b919061072a565b6102b25760405162461bcd60e51b815260206004820152602a60248201527f5361666545524332303a204552433230206f7065726174696f6e20646964206e6044820152691bdd081cdd58d8d9595960b21b60648201526084016101cc565b60606104f98484600085610501565b949350505050565b6060824710156105625760405162461bcd60e51b815260206004820152602660248201527f416464726573733a20696e73756666696369656e742062616c616e636520666f6044820152651c8818d85b1b60d21b60648201526084016101cc565b600080866001600160a01b0316858760405161057e9190610770565b60006040518083038185875af1925050503d80600081146105bb576040519150601f19603f3d011682016040523d82523d6000602084013e6105c0565b606091505b50915091506105d1878383876105dc565b979650505050505050565b6060831561064b578251600003610644576001600160a01b0385163b6106445760405162461bcd60e51b815260206004820152601d60248201527f416464726573733a2063616c6c20746f206e6f6e2d636f6e747261637400000060448201526064016101cc565b50816104f9565b6104f983838151156106605781518083602001fd5b8060405162461bcd60e51b81526004016101cc919061078c565b60006020828403121561068c57600080fd5b5035919050565b6001600160a01b038116811461032d57600080fd5b6000602082840312156106ba57600080fd5b81356106c581610693565b9392505050565b6000806000606084860312156106e157600080fd5b83356106ec81610693565b925060208401356106fc81610693565b929592945050506040919091013590565b60006020828403121561071f57600080fd5b81516106c581610693565b60006020828403121561073c57600080fd5b815180151581146106c557600080fd5b60005b8381101561076757818101518382015260200161074f565b50506000910152565b6000825161078281846020870161074c565b9190910192915050565b60208152600082518060208401526107ab81604085016020870161074c565b601f01601f1916919091016040019291505056fea2646970667358221220c837f9c57605a8186498dde95ef0872c9448dd17981c438dd6362ddc5a5bda5864736f6c63430008110033",
    "linkReferences": {}
  },
  "methodIdentifiers": {
    "execLimit()": "8d54365a",
    "isLong()": "202a61a1",
    "market()": "80f55605",
    "owner()": "8da5cb5b",
    "priceOracle()": "2630c12f",
    "renounceOwnership()": "715018a6",
    "setLimit(uint256)": "27ea6f2b",
    "setMarket(address)": "6dcea85f",
    "transferOwnership(address)": "f2fde38b",
    "withdraw(address,address,uint256)": "d9caed12"
  },
  "id": 60
}