{
  "abi": [
    {
      "inputs": [],
      "stateMutability": "nonpayable",
      "type": "constructor"
    },
    {
      "anonymous": false,
      "inputs": [
        {
          "indexed": false,
          "internalType": "uint8",
          "name": "version",
          "type": "uint8"
        }
      ],
      "name": "Initialized",
      "type": "event"
    },
    {
      "anonymous": false,
      "inputs": [
        {
          "indexed": true,
          "internalType": "address",
          "name": "previousOwner",
          "type": "address"
        },
        {
          "indexed": true,
          "internalType": "address",
          "name": "newOwner",
          "type": "address"
        }
      ],
      "name": "OwnershipTransferred",
      "type": "event"
    },
    {
      "anonymous": false,
      "inputs": [
        {
          "indexed": true,
          "internalType": "bytes32",
          "name": "role",
          "type": "bytes32"
        },
        {
          "indexed": true,
          "internalType": "bytes32",
          "name": "previousAdminRole",
          "type": "bytes32"
        },
        {
          "indexed": true,
          "internalType": "bytes32",
          "name": "newAdminRole",
          "type": "bytes32"
        }
      ],
      "name": "RoleAdminChanged",
      "type": "event"
    },
    {
      "anonymous": false,
      "inputs": [
        {
          "indexed": true,
          "internalType": "bytes32",
          "name": "role",
          "type": "bytes32"
        },
        {
          "indexed": true,
          "internalType": "address",
          "name": "account",
          "type": "address"
        },
        {
          "indexed": true,
          "internalType": "address",
          "name": "sender",
          "type": "address"
        }
      ],
      "name": "RoleGranted",
      "type": "event"
    },
    {
      "anonymous": false,
      "inputs": [
        {
          "indexed": true,
          "internalType": "bytes32",
          "name": "role",
          "type": "bytes32"
        },
        {
          "indexed": true,
          "internalType": "address",
          "name": "account",
          "type": "address"
        },
        {
          "indexed": true,
          "internalType": "address",
          "name": "sender",
          "type": "address"
        }
      ],
      "name": "RoleRevoked",
      "type": "event"
    },
    {
      "anonymous": false,
      "inputs": [
        {
          "indexed": true,
          "internalType": "address",
          "name": "market",
          "type": "address"
        },
        {
          "indexed": false,
          "internalType": "int256",
          "name": "longRate",
          "type": "int256"
        },
        {
          "indexed": false,
          "internalType": "int256",
          "name": "shortRate",
          "type": "int256"
        }
      ],
      "name": "UpdateCumulativeFundRate",
      "type": "event"
    },
    {
      "anonymous": false,
      "inputs": [
        {
          "indexed": true,
          "internalType": "address",
          "name": "market",
          "type": "address"
        },
        {
          "indexed": false,
          "internalType": "int256",
          "name": "longRate",
          "type": "int256"
        },
        {
          "indexed": false,
          "internalType": "int256",
          "name": "shortRate",
          "type": "int256"
        }
      ],
      "name": "UpdateFundRate",
      "type": "event"
    },
    {
      "anonymous": false,
      "inputs": [
        {
          "indexed": true,
          "internalType": "address",
          "name": "market",
          "type": "address"
        },
        {
          "indexed": false,
          "internalType": "uint256",
          "name": "timestamp",
          "type": "uint256"
        }
      ],
      "name": "UpdateLastFundTime",
      "type": "event"
    },
    {
      "anonymous": false,
      "inputs": [
        {
          "indexed": true,
          "internalType": "address",
          "name": "token",
          "type": "address"
        },
        {
          "indexed": true,
          "internalType": "address",
          "name": "to",
          "type": "address"
        },
        {
          "indexed": false,
          "internalType": "uint256",
          "name": "amount",
          "type": "uint256"
        }
      ],
      "name": "Withdraw",
      "type": "event"
    },
    {
      "inputs": [],
      "name": "DEFAULT_ADMIN_ROLE",
      "outputs": [
        {
          "internalType": "bytes32",
          "name": "",
          "type": "bytes32"
        }
      ],
      "stateMutability": "view",
      "type": "function"
    },
    {
      "inputs": [
        {
          "internalType": "address",
          "name": "",
          "type": "address"
        },
        {
          "internalType": "bool",
          "name": "",
          "type": "bool"
        }
      ],
      "name": "cumulativeFundingRates",
      "outputs": [
        {
          "internalType": "int256",
          "name": "",
          "type": "int256"
        }
      ],
      "stateMutability": "view",
      "type": "function"
    },
    {
      "inputs": [
        {
          "internalType": "address",
          "name": "",
          "type": "address"
        },
        {
          "internalType": "bool",
          "name": "",
          "type": "bool"
        }
      ],
      "name": "fundingRates",
      "outputs": [
        {
          "internalType": "int256",
          "name": "",
          "type": "int256"
        }
      ],
      "stateMutability": "view",
      "type": "function"
    },
    {
      "inputs": [
        {
          "internalType": "bytes32",
          "name": "role",
          "type": "bytes32"
        }
      ],
      "name": "getRoleAdmin",
      "outputs": [
        {
          "internalType": "bytes32",
          "name": "",
          "type": "bytes32"
        }
      ],
      "stateMutability": "view",
      "type": "function"
    },
    {
      "inputs": [
        {
          "internalType": "address",
          "name": "_account",
          "type": "address"
        }
      ],
      "name": "grantControllerRoleByMarketManager",
      "outputs": [],
      "stateMutability": "nonpayable",
      "type": "function"
    },
    {
      "inputs": [
        {
          "internalType": "bytes32",
          "name": "role",
          "type": "bytes32"
        },
        {
          "internalType": "address",
          "name": "account",
          "type": "address"
        }
      ],
      "name": "grantRole",
      "outputs": [],
      "stateMutability": "nonpayable",
      "type": "function"
    },
    {
      "inputs": [
        {
          "internalType": "bytes32",
          "name": "role",
          "type": "bytes32"
        },
        {
          "internalType": "address",
          "name": "account",
          "type": "address"
        }
      ],
      "name": "hasRole",
      "outputs": [
        {
          "internalType": "bool",
          "name": "",
          "type": "bool"
        }
      ],
      "stateMutability": "view",
      "type": "function"
    },
    {
      "inputs": [
        {
          "internalType": "address",
          "name": "",
          "type": "address"
        }
      ],
      "name": "lastFundingTimes",
      "outputs": [
        {
          "internalType": "uint256",
          "name": "",
          "type": "uint256"
        }
      ],
      "stateMutability": "view",
      "type": "function"
    },
    {
      "inputs": [],
      "name": "owner",
      "outputs": [
        {
          "internalType": "address",
          "name": "",
          "type": "address"
        }
      ],
      "stateMutability": "view",
      "type": "function"
    },
    {
      "inputs": [],
      "name": "renounceOwnership",
      "outputs": [],
      "stateMutability": "nonpayable",
      "type": "function"
    },
    {
      "inputs": [
        {
          "internalType": "bytes32",
          "name": "",
          "type": "bytes32"
        },
        {
          "internalType": "address",
          "name": "",
          "type": "address"
        }
      ],
      "name": "renounceRole",
      "outputs": [],
      "stateMutability": "nonpayable",
      "type": "function"
    },
    {
      "inputs": [
        {
          "internalType": "bytes32",
          "name": "role",
          "type": "bytes32"
        },
        {
          "internalType": "address",
          "name": "account",
          "type": "address"
        }
      ],
      "name": "revokeRole",
      "outputs": [],
      "stateMutability": "nonpayable",
      "type": "function"
    },
    {
      "inputs": [
        {
          "internalType": "bytes4",
          "name": "interfaceId",
          "type": "bytes4"
        }
      ],
      "name": "supportsInterface",
      "outputs": [
        {
          "internalType": "bool",
          "name": "",
          "type": "bool"
        }
      ],
      "stateMutability": "view",
      "type": "function"
    },
    {
      "inputs": [
        {
          "internalType": "address",
          "name": "to",
          "type": "address"
        }
      ],
      "name": "transferAdmin",
      "outputs": [],
      "stateMutability": "nonpayable",
      "type": "function"
    },
    {
      "inputs": [
        {
          "internalType": "address",
          "name": "newOwner",
          "type": "address"
        }
      ],
      "name": "transferOwnership",
      "outputs": [],
      "stateMutability": "nonpayable",
      "type": "function"
    },
    {
      "inputs": [
        {
          "internalType": "address",
          "name": "market",
          "type": "address"
        },
        {
          "internalType": "int256",
          "name": "longRate",
          "type": "int256"
        },
        {
          "internalType": "int256",
          "name": "shortRate",
          "type": "int256"
        },
        {
          "internalType": "int256",
          "name": "nextLongRate",
          "type": "int256"
        },
        {
          "internalType": "int256",
          "name": "nextShortRate",
          "type": "int256"
        },
        {
          "internalType": "uint256",
          "name": "timestamp",
          "type": "uint256"
        }
      ],
      "name": "updateGlobalFundingRate",
      "outputs": [],
      "stateMutability": "nonpayable",
      "type": "function"
    },
    {
      "inputs": [
        {
          "internalType": "address",
          "name": "token",
          "type": "address"
        },
        {
          "internalType": "address",
          "name": "to",
          "type": "address"
        },
        {
          "internalType": "uint256",
          "name": "amount",
          "type": "uint256"
        }
      ],
      "name": "withdraw",
      "outputs": [],
      "stateMutability": "nonpayable",
      "type": "function"
    }
  ],
  "bytecode": {
    "object": "0x60806040523480156200001157600080fd5b50336200001e816200003b565b62000034816200008d60201b620007111760201c565b5062000169565b600180546001600160a01b038381166001600160a01b0319831681179093556040519116919082907f8be0079c531659141344cd1fd0a4f28419497f9722a3daafe3b4186f6b6457e090600090a35050565b426002556200009c336200003b565b620000a9600033620000b9565b620000b6600082620000b9565b50565b620000c58282620000c9565b5050565b6000828152602081815260408083206001600160a01b038516845290915290205460ff16620000c5576000828152602081815260408083206001600160a01b03851684529091529020805460ff19166001179055620001253390565b6001600160a01b0316816001600160a01b0316837f2f8788117e7eff1d82e926ec794901d17c78024a50270940304540a733656f0d60405160405180910390a45050565b6110f980620001796000396000f3fe608060405234801561001057600080fd5b506004361061010b5760003560e01c80638da5cb5b116100a2578063d547741f11610071578063d547741f1461022e578063d8f897c314610241578063d9caed1214610261578063f2fde38b14610274578063ffb3bf631461028757600080fd5b80638da5cb5b146101e557806391d1485414610200578063a217fddf14610213578063b21bf2d31461021b57600080fd5b806336568abe116100de57806336568abe146101a9578063715018a6146101b757806375829def146101bf5780637fe4a698146101d257600080fd5b806301ffc9a714610110578063248a9ca3146101385780632f2ff15d1461016957806334f32e251461017e575b600080fd5b61012361011e366004610da2565b6102b2565b60405190151581526020015b60405180910390f35b61015b610146366004610dcc565b60009081526020819052604090206001015490565b60405190815260200161012f565b61017c610177366004610e01565b6102e9565b005b61015b61018c366004610e3b565b600360209081526000928352604080842090915290825290205481565b61017c61010b366004610e01565b61017c610313565b61017c6101cd366004610e72565b610327565b61017c6101e0366004610e72565b6103a0565b6001546040516001600160a01b03909116815260200161012f565b61012361020e366004610e01565b6103ca565b61015b600081565b61017c610229366004610e8d565b6103f3565b61017c61023c366004610e01565b6105e2565b61015b61024f366004610e72565b60056020526000908152604090205481565b61017c61026f366004610ed7565b610607565b61017c610282366004610e72565b610698565b61015b610295366004610e3b565b600460209081526000928352604080842090915290825290205481565b60006001600160e01b03198216637965db0b60e01b14806102e357506301ffc9a760e01b6001600160e01b03198316145b92915050565b60008281526020819052604090206001015461030481610734565b61030e838361073e565b505050565b61031b6107c2565b610325600061081c565b565b600061033281610734565b6001600160a01b03821661037d5760405162461bcd60e51b815260206004820152600d60248201526c217a65726f206164647265737360981b60448201526064015b60405180910390fd5b61038860008361086e565b6103918261081c565b61039c600033610878565b5050565b7f8d1089725c0dc266707fa6207730fb801dcd03108bfed7a21099bd303651d2b761010b81610734565b6000918252602082815260408084206001600160a01b0393909316845291905290205460ff1690565b61041c7fcb58d6d985142a614029cdf01861b4fe094d5919a47e69b8310dc4093d9d6ad0610734565b6001600160a01b0386166104625760405162461bcd60e51b815260206004820152600d60248201526c217a65726f206164647265737360981b6044820152606401610374565b6001600160a01b03861660009081526003602090815260408083206001845290915281208054859290610496908490610f29565b90915550506001600160a01b038616600081815260046020908152604080832060018452825280832089905592825260038152828220828052905290812080548492906104e4908490610f29565b90915550506001600160a01b03861660008181526004602090815260408083208380528252808320889055838352600582529182902084905581518681529081018590527f8443bb2c5478a5a1a0d0294d9cb68cced1b042d44c3731e3b9eccdceed780c0f910160405180910390a260408051868152602081018690526001600160a01b038816917f0b38483e50f5e8ebdf33d9591738f769234451b7cdaf8330d163814e1f9a99ed910160405180910390a2856001600160a01b03167ff4c93da2430243fd9f81b963f6e5e31d6f4389344d58aa8c5d7be7e77417f9a3826040516105d291815260200190565b60405180910390a2505050505050565b6000828152602081905260409020600101546105fd81610734565b61030e8383610878565b7f5d8e12c39142ff96d79d04d15d1ba1269e4fe57bb9d26f43523628b34ba108ec61063181610734565b6106456001600160a01b03851684846108dd565b826001600160a01b0316846001600160a01b03167f9b1bfa7fa9ee420a16e124f794c35ac9f90472acc99140eb2f6447c714cad8eb8460405161068a91815260200190565b60405180910390a350505050565b6106a06107c2565b6001600160a01b0381166107055760405162461bcd60e51b815260206004820152602660248201527f4f776e61626c653a206e6577206f776e657220697320746865207a65726f206160448201526564647265737360d01b6064820152608401610374565b61070e8161081c565b50565b4260025561071e3361081c565b61072960003361086e565b61070e60008261086e565b61070e813361092f565b61074882826103ca565b61039c576000828152602081815260408083206001600160a01b03851684529091529020805460ff1916600117905561077e3390565b6001600160a01b0316816001600160a01b0316837f2f8788117e7eff1d82e926ec794901d17c78024a50270940304540a733656f0d60405160405180910390a45050565b6001546001600160a01b031633146103255760405162461bcd60e51b815260206004820181905260248201527f4f776e61626c653a2063616c6c6572206973206e6f7420746865206f776e65726044820152606401610374565b600180546001600160a01b038381166001600160a01b0319831681179093556040519116919082907f8be0079c531659141344cd1fd0a4f28419497f9722a3daafe3b4186f6b6457e090600090a35050565b61039c828261073e565b61088282826103ca565b1561039c576000828152602081815260408083206001600160a01b0385168085529252808320805460ff1916905551339285917ff6391f5c32d9c69d2a47ea670b442974b53935d1edc7fd64eb21e047a839171b9190a45050565b604080516001600160a01b038416602482015260448082018490528251808303909101815260649091019091526020810180516001600160e01b031663a9059cbb60e01b17905261030e908490610988565b61093982826103ca565b61039c5761094681610a5d565b610951836020610a6f565b604051602001610962929190610f75565b60408051601f198184030181529082905262461bcd60e51b825261037491600401610fea565b60006109dd826040518060400160405280602081526020017f5361666545524332303a206c6f772d6c6576656c2063616c6c206661696c6564815250856001600160a01b0316610c129092919063ffffffff16565b90508051600014806109fe5750808060200190518101906109fe919061101d565b61030e5760405162461bcd60e51b815260206004820152602a60248201527f5361666545524332303a204552433230206f7065726174696f6e20646964206e6044820152691bdd081cdd58d8d9595960b21b6064820152608401610374565b60606102e36001600160a01b03831660145b60606000610a7e83600261103a565b610a89906002611051565b67ffffffffffffffff811115610aa157610aa1611064565b6040519080825280601f01601f191660200182016040528015610acb576020820181803683370190505b509050600360fc1b81600081518110610ae657610ae661107a565b60200101906001600160f81b031916908160001a905350600f60fb1b81600181518110610b1557610b1561107a565b60200101906001600160f81b031916908160001a9053506000610b3984600261103a565b610b44906001611051565b90505b6001811115610bbc576f181899199a1a9b1b9c1cb0b131b232b360811b85600f1660108110610b7857610b7861107a565b1a60f81b828281518110610b8e57610b8e61107a565b60200101906001600160f81b031916908160001a90535060049490941c93610bb581611090565b9050610b47565b508315610c0b5760405162461bcd60e51b815260206004820181905260248201527f537472696e67733a20686578206c656e67746820696e73756666696369656e746044820152606401610374565b9392505050565b6060610c218484600085610c29565b949350505050565b606082471015610c8a5760405162461bcd60e51b815260206004820152602660248201527f416464726573733a20696e73756666696369656e742062616c616e636520666f6044820152651c8818d85b1b60d21b6064820152608401610374565b600080866001600160a01b03168587604051610ca691906110a7565b60006040518083038185875af1925050503d8060008114610ce3576040519150601f19603f3d011682016040523d82523d6000602084013e610ce8565b606091505b5091509150610cf987838387610d04565b979650505050505050565b60608315610d73578251600003610d6c576001600160a01b0385163b610d6c5760405162461bcd60e51b815260206004820152601d60248201527f416464726573733a2063616c6c20746f206e6f6e2d636f6e74726163740000006044820152606401610374565b5081610c21565b610c218383815115610d885781518083602001fd5b8060405162461bcd60e51b81526004016103749190610fea565b600060208284031215610db457600080fd5b81356001600160e01b031981168114610c0b57600080fd5b600060208284031215610dde57600080fd5b5035919050565b80356001600160a01b0381168114610dfc57600080fd5b919050565b60008060408385031215610e1457600080fd5b82359150610e2460208401610de5565b90509250929050565b801515811461070e57600080fd5b60008060408385031215610e4e57600080fd5b610e5783610de5565b91506020830135610e6781610e2d565b809150509250929050565b600060208284031215610e8457600080fd5b610c0b82610de5565b60008060008060008060c08789031215610ea657600080fd5b610eaf87610de5565b9860208801359850604088013597606081013597506080810135965060a00135945092505050565b600080600060608486031215610eec57600080fd5b610ef584610de5565b9250610f0360208501610de5565b9150604084013590509250925092565b634e487b7160e01b600052601160045260246000fd5b8082018281126000831280158216821582161715610f4957610f49610f13565b505092915050565b60005b83811015610f6c578181015183820152602001610f54565b50506000910152565b7f416363657373436f6e74726f6c3a206163636f756e7420000000000000000000815260008351610fad816017850160208801610f51565b7001034b99036b4b9b9b4b733903937b6329607d1b6017918401918201528351610fde816028840160208801610f51565b01602801949350505050565b6020815260008251806020840152611009816040850160208701610f51565b601f01601f19169190910160400192915050565b60006020828403121561102f57600080fd5b8151610c0b81610e2d565b80820281158282048414176102e3576102e3610f13565b808201808211156102e3576102e3610f13565b634e487b7160e01b600052604160045260246000fd5b634e487b7160e01b600052603260045260246000fd5b60008161109f5761109f610f13565b506000190190565b600082516110b9818460208701610f51565b919091019291505056fea26469706673582212208d4fb5cff4a12500835c48b7e42f851e8a4d4f256f7b17b5e8f8371f59d9c78e64736f6c63430008110033",
    "linkReferences": {}
  },
  "methodIdentifiers": {
    "DEFAULT_ADMIN_ROLE()": "a217fddf",
    "cumulativeFundingRates(address,bool)": "34f32e25",
    "fundingRates(address,bool)": "ffb3bf63",
    "getRoleAdmin(bytes32)": "248a9ca3",
    "grantControllerRoleByMarketManager(address)": "7fe4a698",
    "grantRole(bytes32,address)": "2f2ff15d",
    "hasRole(bytes32,address)": "91d14854",
    "lastFundingTimes(address)": "d8f897c3",
    "owner()": "8da5cb5b",
    "renounceOwnership()": "715018a6",
    "renounceRole(bytes32,address)": "36568abe",
    "revokeRole(bytes32,address)": "d547741f",
    "supportsInterface(bytes4)": "01ffc9a7",
    "transferAdmin(address)": "75829def",
    "transferOwnership(address)": "f2fde38b",
    "updateGlobalFundingRate(address,int256,int256,int256,int256,uint256)": "b21bf2d3",
    "withdraw(address,address,uint256)": "d9caed12"
  },
  "id": 3
}