{
  "abi": [
    {
      "inputs": [
        {
          "internalType": "address",
          "name": "_factory",
          "type": "address"
        }
      ],
      "stateMutability": "nonpayable",
      "type": "constructor"
    },
    {
      "anonymous": false,
      "inputs": [
        {
          "indexed": false,
          "internalType": "uint8",
          "name": "version",
          "type": "uint8"
        }
      ],
      "name": "Initialized",
      "type": "event"
    },
    {
      "anonymous": false,
      "inputs": [
        {
          "indexed": true,
          "internalType": "address",
          "name": "previousOwner",
          "type": "address"
        },
        {
          "indexed": true,
          "internalType": "address",
          "name": "newOwner",
          "type": "address"
        }
      ],
      "name": "OwnershipTransferred",
      "type": "event"
    },
    {
      "anonymous": false,
      "inputs": [
        {
          "indexed": true,
          "internalType": "bytes32",
          "name": "role",
          "type": "bytes32"
        },
        {
          "indexed": true,
          "internalType": "bytes32",
          "name": "previousAdminRole",
          "type": "bytes32"
        },
        {
          "indexed": true,
          "internalType": "bytes32",
          "name": "newAdminRole",
          "type": "bytes32"
        }
      ],
      "name": "RoleAdminChanged",
      "type": "event"
    },
    {
      "anonymous": false,
      "inputs": [
        {
          "indexed": true,
          "internalType": "bytes32",
          "name": "role",
          "type": "bytes32"
        },
        {
          "indexed": true,
          "internalType": "address",
          "name": "account",
          "type": "address"
        },
        {
          "indexed": true,
          "internalType": "address",
          "name": "sender",
          "type": "address"
        }
      ],
      "name": "RoleGranted",
      "type": "event"
    },
    {
      "anonymous": false,
      "inputs": [
        {
          "indexed": true,
          "internalType": "bytes32",
          "name": "role",
          "type": "bytes32"
        },
        {
          "indexed": true,
          "internalType": "address",
          "name": "account",
          "type": "address"
        },
        {
          "indexed": true,
          "internalType": "address",
          "name": "sender",
          "type": "address"
        }
      ],
      "name": "RoleRevoked",
      "type": "event"
    },
    {
      "anonymous": false,
      "inputs": [
        {
          "indexed": true,
          "internalType": "address",
          "name": "account",
          "type": "address"
        },
        {
          "indexed": true,
          "internalType": "address",
          "name": "market",
          "type": "address"
        },
        {
          "indexed": false,
          "internalType": "int256[]",
          "name": "fees",
          "type": "int256[]"
        },
        {
          "indexed": false,
          "internalType": "uint256",
          "name": "amount",
          "type": "uint256"
        }
      ],
      "name": "UpdateFee",
      "type": "event"
    },
    {
      "anonymous": false,
      "inputs": [
        {
          "indexed": true,
          "internalType": "address",
          "name": "market",
          "type": "address"
        },
        {
          "indexed": false,
          "internalType": "uint8",
          "name": "kind",
          "type": "uint8"
        },
        {
          "indexed": false,
          "internalType": "uint256",
          "name": "oldFeeOrRate",
          "type": "uint256"
        },
        {
          "indexed": false,
          "internalType": "uint256",
          "name": "feeOrRate",
          "type": "uint256"
        }
      ],
      "name": "UpdateFeeAndRates",
      "type": "event"
    },
    {
      "inputs": [],
      "name": "DEFAULT_ADMIN_ROLE",
      "outputs": [
        {
          "internalType": "bytes32",
          "name": "",
          "type": "bytes32"
        }
      ],
      "stateMutability": "view",
      "type": "function"
    },
    {
      "inputs": [],
      "name": "FEE_RATE_PRECISION",
      "outputs": [
        {
          "internalType": "uint256",
          "name": "",
          "type": "uint256"
        }
      ],
      "stateMutability": "view",
      "type": "function"
    },
    {
      "inputs": [
        {
          "internalType": "address",
          "name": "account",
          "type": "address"
        },
        {
          "internalType": "address",
          "name": "token",
          "type": "address"
        },
        {
          "internalType": "int256[]",
          "name": "fees",
          "type": "int256[]"
        }
      ],
      "name": "collectFees",
      "outputs": [],
      "stateMutability": "nonpayable",
      "type": "function"
    },
    {
      "inputs": [
        {
          "internalType": "address",
          "name": "market",
          "type": "address"
        },
        {
          "internalType": "bool",
          "name": "isLong",
          "type": "bool"
        }
      ],
      "name": "cumulativeFundingRates",
      "outputs": [
        {
          "internalType": "int256",
          "name": "",
          "type": "int256"
        }
      ],
      "stateMutability": "view",
      "type": "function"
    },
    {
      "inputs": [],
      "name": "factory",
      "outputs": [
        {
          "internalType": "address",
          "name": "",
          "type": "address"
        }
      ],
      "stateMutability": "view",
      "type": "function"
    },
    {
      "inputs": [
        {
          "internalType": "address",
          "name": "",
          "type": "address"
        },
        {
          "internalType": "uint8",
          "name": "",
          "type": "uint8"
        }
      ],
      "name": "feeAndRates",
      "outputs": [
        {
          "internalType": "uint256",
          "name": "",
          "type": "uint256"
        }
      ],
      "stateMutability": "view",
      "type": "function"
    },
    {
      "inputs": [],
      "name": "feeVault",
      "outputs": [
        {
          "internalType": "address",
          "name": "",
          "type": "address"
        }
      ],
      "stateMutability": "view",
      "type": "function"
    },
    {
      "inputs": [],
      "name": "fundFee",
      "outputs": [
        {
          "internalType": "address",
          "name": "",
          "type": "address"
        }
      ],
      "stateMutability": "view",
      "type": "function"
    },
    {
      "inputs": [
        {
          "internalType": "address",
          "name": "market",
          "type": "address"
        }
      ],
      "name": "getExecFee",
      "outputs": [
        {
          "internalType": "uint256",
          "name": "",
          "type": "uint256"
        }
      ],
      "stateMutability": "view",
      "type": "function"
    },
    {
      "inputs": [
        {
          "components": [
            {
              "internalType": "address",
              "name": "_market",
              "type": "address"
            },
            {
              "internalType": "bool",
              "name": "_isLong",
              "type": "bool"
            },
            {
              "internalType": "uint256",
              "name": "_oraclePrice",
              "type": "uint256"
            },
            {
              "internalType": "bool",
              "name": "isOpen",
              "type": "bool"
            },
            {
              "internalType": "address",
              "name": "_account",
              "type": "address"
            },
            {
              "internalType": "uint256",
              "name": "_sizeDelta",
              "type": "uint256"
            },
            {
              "internalType": "uint256",
              "name": "_price",
              "type": "uint256"
            },
            {
              "internalType": "uint256",
              "name": "_slippage",
              "type": "uint256"
            },
            {
              "internalType": "bool",
              "name": "_isExec",
              "type": "bool"
            },
            {
              "internalType": "uint8",
              "name": "liqState",
              "type": "uint8"
            },
            {
              "internalType": "uint64",
              "name": "_fromOrder",
              "type": "uint64"
            },
            {
              "internalType": "bytes32",
              "name": "_refCode",
              "type": "bytes32"
            },
            {
              "internalType": "uint256",
              "name": "collateralDelta",
              "type": "uint256"
            },
            {
              "internalType": "uint8",
              "name": "execNum",
              "type": "uint8"
            },
            {
              "internalType": "uint256[]",
              "name": "inputs",
              "type": "uint256[]"
            }
          ],
          "internalType": "struct MarketDataTypes.UpdatePositionInputs",
          "name": "params",
          "type": "tuple"
        },
        {
          "components": [
            {
              "internalType": "address",
              "name": "market",
              "type": "address"
            },
            {
              "internalType": "bool",
              "name": "isLong",
              "type": "bool"
            },
            {
              "internalType": "uint32",
              "name": "lastTime",
              "type": "uint32"
            },
            {
              "internalType": "uint216",
              "name": "extra3",
              "type": "uint216"
            },
            {
              "internalType": "uint256",
              "name": "size",
              "type": "uint256"
            },
            {
              "internalType": "uint256",
              "name": "collateral",
              "type": "uint256"
            },
            {
              "internalType": "uint256",
              "name": "averagePrice",
              "type": "uint256"
            },
            {
              "internalType": "int256",
              "name": "entryFundingRate",
              "type": "int256"
            },
            {
              "internalType": "int256",
              "name": "realisedPnl",
              "type": "int256"
            },
            {
              "internalType": "uint256",
              "name": "extra0",
              "type": "uint256"
            },
            {
              "internalType": "uint256",
              "name": "extra1",
              "type": "uint256"
            },
            {
              "internalType": "uint256",
              "name": "extra2",
              "type": "uint256"
            }
          ],
          "internalType": "struct Position.Props",
          "name": "position",
          "type": "tuple"
        }
      ],
      "name": "getFees",
      "outputs": [
        {
          "internalType": "int256[]",
          "name": "fees",
          "type": "int256[]"
        }
      ],
      "stateMutability": "view",
      "type": "function"
    },
    {
      "inputs": [
        {
          "internalType": "address",
          "name": "market",
          "type": "address"
        },
        {
          "internalType": "bool",
          "name": "isLong",
          "type": "bool"
        }
      ],
      "name": "getFundingRate",
      "outputs": [
        {
          "internalType": "int256",
          "name": "",
          "type": "int256"
        }
      ],
      "stateMutability": "view",
      "type": "function"
    },
    {
      "inputs": [
        {
          "components": [
            {
              "internalType": "address",
              "name": "_market",
              "type": "address"
            },
            {
              "internalType": "bool",
              "name": "_isLong",
              "type": "bool"
            },
            {
              "internalType": "uint256",
              "name": "_oraclePrice",
              "type": "uint256"
            },
            {
              "internalType": "bool",
              "name": "isOpen",
              "type": "bool"
            },
            {
              "internalType": "bool",
              "name": "isCreate",
              "type": "bool"
            },
            {
              "components": [
                {
                  "internalType": "uint8",
                  "name": "version",
                  "type": "uint8"
                },
                {
                  "internalType": "uint32",
                  "name": "updatedAtBlock",
                  "type": "uint32"
                },
                {
                  "internalType": "uint8",
                  "name": "triggerAbove",
                  "type": "uint8"
                },
                {
                  "internalType": "address",
                  "name": "account",
                  "type": "address"
                },
                {
                  "internalType": "uint48",
                  "name": "extra3",
                  "type": "uint48"
                },
                {
                  "internalType": "uint128",
                  "name": "collateral",
                  "type": "uint128"
                },
                {
                  "internalType": "uint128",
                  "name": "size",
                  "type": "uint128"
                },
                {
                  "internalType": "uint128",
                  "name": "price",
                  "type": "uint128"
                },
                {
                  "internalType": "uint128",
                  "name": "extra1",
                  "type": "uint128"
                },
                {
                  "internalType": "uint64",
                  "name": "orderID",
                  "type": "uint64"
                },
                {
                  "internalType": "uint64",
                  "name": "extra2",
                  "type": "uint64"
                },
                {
                  "internalType": "uint128",
                  "name": "extra0",
                  "type": "uint128"
                },
                {
                  "internalType": "bytes32",
                  "name": "refCode",
                  "type": "bytes32"
                }
              ],
              "internalType": "struct Order.Props",
              "name": "_order",
              "type": "tuple"
            },
            {
              "internalType": "uint256[]",
              "name": "inputs",
              "type": "uint256[]"
            }
          ],
          "internalType": "struct MarketDataTypes.UpdateOrderInputs",
          "name": "params",
          "type": "tuple"
        }
      ],
      "name": "getOrderFees",
      "outputs": [
        {
          "internalType": "int256",
          "name": "fees",
          "type": "int256"
        }
      ],
      "stateMutability": "view",
      "type": "function"
    },
    {
      "inputs": [
        {
          "internalType": "bytes32",
          "name": "role",
          "type": "bytes32"
        }
      ],
      "name": "getRoleAdmin",
      "outputs": [
        {
          "internalType": "bytes32",
          "name": "",
          "type": "bytes32"
        }
      ],
      "stateMutability": "view",
      "type": "function"
    },
    {
      "inputs": [
        {
          "internalType": "address",
          "name": "_account",
          "type": "address"
        }
      ],
      "name": "grantControllerRoleByMarketManager",
      "outputs": [],
      "stateMutability": "nonpayable",
      "type": "function"
    },
    {
      "inputs": [
        {
          "internalType": "bytes32",
          "name": "role",
          "type": "bytes32"
        },
        {
          "internalType": "address",
          "name": "account",
          "type": "address"
        }
      ],
      "name": "grantRole",
      "outputs": [],
      "stateMutability": "nonpayable",
      "type": "function"
    },
    {
      "inputs": [
        {
          "internalType": "bytes32",
          "name": "role",
          "type": "bytes32"
        },
        {
          "internalType": "address",
          "name": "account",
          "type": "address"
        }
      ],
      "name": "hasRole",
      "outputs": [
        {
          "internalType": "bool",
          "name": "",
          "type": "bool"
        }
      ],
      "stateMutability": "view",
      "type": "function"
    },
    {
      "inputs": [
        {
          "internalType": "address",
          "name": "vault",
          "type": "address"
        },
        {
          "internalType": "address",
          "name": "fundingFee",
          "type": "address"
        }
      ],
      "name": "initialize",
      "outputs": [],
      "stateMutability": "nonpayable",
      "type": "function"
    },
    {
      "inputs": [],
      "name": "owner",
      "outputs": [
        {
          "internalType": "address",
          "name": "",
          "type": "address"
        }
      ],
      "stateMutability": "view",
      "type": "function"
    },
    {
      "inputs": [],
      "name": "renounceOwnership",
      "outputs": [],
      "stateMutability": "nonpayable",
      "type": "function"
    },
    {
      "inputs": [
        {
          "internalType": "bytes32",
          "name": "",
          "type": "bytes32"
        },
        {
          "internalType": "address",
          "name": "",
          "type": "address"
        }
      ],
      "name": "renounceRole",
      "outputs": [],
      "stateMutability": "nonpayable",
      "type": "function"
    },
    {
      "inputs": [
        {
          "internalType": "bytes32",
          "name": "role",
          "type": "bytes32"
        },
        {
          "internalType": "address",
          "name": "account",
          "type": "address"
        }
      ],
      "name": "revokeRole",
      "outputs": [],
      "stateMutability": "nonpayable",
      "type": "function"
    },
    {
      "inputs": [
        {
          "internalType": "address",
          "name": "market",
          "type": "address"
        },
        {
          "internalType": "uint256[]",
          "name": "rates",
          "type": "uint256[]"
        }
      ],
      "name": "setFeeAndRates",
      "outputs": [],
      "stateMutability": "nonpayable",
      "type": "function"
    },
    {
      "inputs": [
        {
          "internalType": "address",
          "name": "vault",
          "type": "address"
        }
      ],
      "name": "setFeeVault",
      "outputs": [],
      "stateMutability": "nonpayable",
      "type": "function"
    },
    {
      "inputs": [
        {
          "internalType": "address",
          "name": "fundingFee",
          "type": "address"
        }
      ],
      "name": "setFundFee",
      "outputs": [],
      "stateMutability": "nonpayable",
      "type": "function"
    },
    {
      "inputs": [
        {
          "internalType": "bytes4",
          "name": "interfaceId",
          "type": "bytes4"
        }
      ],
      "name": "supportsInterface",
      "outputs": [
        {
          "internalType": "bool",
          "name": "",
          "type": "bool"
        }
      ],
      "stateMutability": "view",
      "type": "function"
    },
    {
      "inputs": [
        {
          "internalType": "address",
          "name": "to",
          "type": "address"
        }
      ],
      "name": "transferAdmin",
      "outputs": [],
      "stateMutability": "nonpayable",
      "type": "function"
    },
    {
      "inputs": [
        {
          "internalType": "address",
          "name": "newOwner",
          "type": "address"
        }
      ],
      "name": "transferOwnership",
      "outputs": [],
      "stateMutability": "nonpayable",
      "type": "function"
    },
    {
      "inputs": [
        {
          "internalType": "address",
          "name": "market",
          "type": "address"
        },
        {
          "internalType": "uint256",
          "name": "longSize",
          "type": "uint256"
        },
        {
          "internalType": "uint256",
          "name": "shortSize",
          "type": "uint256"
        }
      ],
      "name": "updateCumulativeFundingRate",
      "outputs": [],
      "stateMutability": "nonpayable",
      "type": "function"
    },
    {
      "inputs": [
        {
          "internalType": "address",
          "name": "token",
          "type": "address"
        },
        {
          "internalType": "address",
          "name": "to",
          "type": "address"
        },
        {
          "internalType": "uint256",
          "name": "amount",
          "type": "uint256"
        }
      ],
      "name": "withdraw",
      "outputs": [],
      "stateMutability": "nonpayable",
      "type": "function"
    }
  ],
  "bytecode": {
    "object": "0x60806040523480156200001157600080fd5b5060405162002b1d38038062002b1d83398101604081905262000034916200021d565b806200004033620000f2565b62000056816200014460201b620011251760201c565b506001600160a01b038116620000a45760405162461bcd60e51b815260206004820152600f60248201526e696e76616c6964206164647265737360881b604482015260640160405180910390fd5b600580546001600160a01b0319166001600160a01b038316179055620000eb7f241ecf16d79d0f8dbfb92cbc07fe17840425976cf0667f022fe9877caa831b083362000170565b506200024f565b600180546001600160a01b038381166001600160a01b0319831681179093556040519116919082907f8be0079c531659141344cd1fd0a4f28419497f9722a3daafe3b4186f6b6457e090600090a35050565b426002556200015333620000f2565b6200016060003362000211565b6200016d60008262000211565b50565b6000828152602081815260408083206001600160a01b038516845290915290205460ff166200020d576000828152602081815260408083206001600160a01b03851684529091529020805460ff19166001179055620001cc3390565b6001600160a01b0316816001600160a01b0316837f2f8788117e7eff1d82e926ec794901d17c78024a50270940304540a733656f0d60405160405180910390a45b5050565b6200020d828262000170565b6000602082840312156200023057600080fd5b81516001600160a01b03811681146200024857600080fd5b9392505050565b6128be806200025f6000396000f3fe608060405234801561001057600080fd5b50600436106101cf5760003560e01c80637fe4a69811610104578063c8830bf5116100a2578063d9caed1211610071578063d9caed1214610426578063e50f19ef14610439578063f2fde38b1461044c578063f4ca4d1d1461045f57600080fd5b8063c8830bf5146103c2578063c9cf9f3a146103d5578063d547741f146103e8578063d8778068146103fb57600080fd5b8063a217fddf116100de578063a217fddf14610381578063a591f97f14610389578063c45a01551461039c578063c6f83ad1146103af57600080fd5b80637fe4a6981461034a5780638da5cb5b1461035d57806391d148541461036e57600080fd5b806336568abe11610171578063485cc9551161014b578063485cc95514610309578063715018a61461031c57806375829def146103245780637dd490231461033757600080fd5b806336568abe146102c857806341510263146102d6578063478222c2146102f657600080fd5b8063248a9ca3116101ad578063248a9ca3146102525780632f2ff15d1461027557806333abd0281461028a57806334f32e25146102b557600080fd5b806301ffc9a7146101d457806309d39897146101fc57806320981df41461023f575b600080fd5b6101e76101e23660046119d3565b610467565b60405190151581526020015b60405180910390f35b61023161020a366004611a22565b6001600160a01b031660009081526006602090815260408083206003845290915290205490565b6040519081526020016101f3565b61023161024d366004611a58565b61049e565b610231610260366004611a91565b60009081526020819052604090206001015490565b610288610283366004611aaa565b610522565b005b60045461029d906001600160a01b031681565b6040516001600160a01b0390911681526020016101f3565b6102316102c3366004611a58565b61054c565b6102886101cf366004611aaa565b6102e96102e4366004611d85565b610587565b6040516101f39190611f0e565b60035461029d906001600160a01b031681565b610288610317366004611f21565b610778565b610288610960565b610288610332366004611a22565b610974565b610288610345366004611f4f565b6109e8565b610288610358366004611a22565b610bb4565b6001546001600160a01b031661029d565b6101e761037c366004611aaa565b610bde565b610231600081565b610288610397366004611a22565b610c07565b60055461029d906001600160a01b031681565b6102886103bd366004611f9e565b610c9c565b6102316103d03660046120fa565b610d56565b6102886103e3366004611a22565b610dd0565b6102886103f6366004611aaa565b610e65565b6102316104093660046121c8565b600660209081526000928352604080842090915290825290205481565b6102886104343660046121f4565b610e8a565b610288610447366004612235565b610f28565b61028861045a366004611a22565b61109d565b610231611116565b60006001600160e01b03198216637965db0b60e01b148061049857506301ffc9a760e01b6001600160e01b03198316145b92915050565b60048054604051630826077d60e21b81526001600160a01b03858116938201939093528315156024820152600092909116906320981df4906044015b602060405180830381865afa1580156104f7573d6000803e3d6000fd5b505050506040513d601f19601f8201168201806040525081019061051b91906122ec565b9392505050565b60008281526020819052604090206001015461053d81611148565b6105478383611152565b505050565b6003546040516334f32e2560e01b81526001600160a01b038481166004830152831515602483015260009216906334f32e25906044016104da565b60408051600c8082526101a08201909252606091602082016101808036833701905050905060008360000151905060006105cf82866020015186608001518760e001516111d6565b90508083600260ff16815181106105e8576105e8612305565b602090810291909101015260a0850151158015610609575061018085015115155b15610615575050610498565b8460600151156106615760a085015161063a906106359084906000611279565b611355565b83600060ff168151811061065057610650612305565b6020026020010181815250506106fb565b60a0850151610677906106359084906001611279565b83600160ff168151811061068d5761068d612305565b60200260200101818152505084610120015160ff166001036106fb576001600160a01b0382166000908152600660209081526040808320600484529091529020546106d781611355565b84600460ff16815181106106ed576106ed612305565b602002602001018181525050505b6101a085015160ff1615610770576001600160a01b0382166000908152600660209081526040808320600384529091529020546101a08601516107419060ff1682612331565b905061074c81611355565b84600360ff168151811061076257610762612305565b602002602001018181525050505b505092915050565b600154600160a81b900460ff161580801561079e575060018054600160a01b900460ff16105b806107be5750303b1580156107be575060018054600160a01b900460ff16145b6108265760405162461bcd60e51b815260206004820152602e60248201527f496e697469616c697a61626c653a20636f6e747261637420697320616c72656160448201526d191e481a5b9a5d1a585b1a5e995960921b60648201526084015b60405180910390fd5b6001805460ff60a01b1916600160a01b1790558015610853576001805460ff60a81b1916600160a81b1790555b6001600160a01b03831661089d5760405162461bcd60e51b81526020600482015260116024820152701a5b9d985b1a5908199959481d985d5b1d607a1b604482015260640161081d565b6001600160a01b0382166108e55760405162461bcd60e51b815260206004820152600f60248201526e696e76616c69642066756e6446656560881b604482015260640161081d565b600380546001600160a01b038086166001600160a01b03199283161790925560048054928516929091169190911790558015610547576001805460ff60a81b191681556040519081527f7f26b83ff96e1f2b6a682f133852f6798a09c465da95921460cefb38474024989060200160405180910390a1505050565b6109686113c3565b610972600061141d565b565b600061097f81611148565b6001600160a01b0382166109c55760405162461bcd60e51b815260206004820152600d60248201526c217a65726f206164647265737360981b604482015260640161081d565b6109d060008361146f565b6109d98261141d565b6109e4600033611479565b5050565b7f8d1089725c0dc266707fa6207730fb801dcd03108bfed7a21099bd303651d2b76000610a158133610bde565b90508015610a72576201518060025442610a2f9190612348565b10610a6d5760405162461bcd60e51b815260206004820152600e60248201526d1858c81d1a5b59481c185cdcd95960921b604482015260640161081d565b610a7c565b610a7c82336114de565b60008351118015610a995750610a94600c600161235b565b835111155b610ad65760405162461bcd60e51b815260206004820152600e60248201526d696e76616c696420706172616d7360901b604482015260640161081d565b60005b83518160ff161015610bad576001600160a01b038516600090815260066020908152604080832060ff85168085529252822054865190929187918110610b2157610b21612305565b6020908102919091018101516001600160a01b038916600081815260068452604080822060ff8916808452908652918190208490558051918252938101869052928301829052909250907f8e26fb53d63c548677b068d08742bea435b6ecb7911ab3c5ad68fbccddeaf5fe9060600160405180910390a250508080610ba59061236e565b915050610ad9565b5050505050565b7f8d1089725c0dc266707fa6207730fb801dcd03108bfed7a21099bd303651d2b76101cf81611148565b6000918252602082815260408084206001600160a01b0393909316845291905290205460ff1690565b610c307f241ecf16d79d0f8dbfb92cbc07fe17840425976cf0667f022fe9877caa831b08611148565b6001600160a01b038116610c7a5760405162461bcd60e51b81526020600482015260116024820152701a5b9d985b1a5908199959481d985d5b1d607a1b604482015260640161081d565b600380546001600160a01b0319166001600160a01b0392909216919091179055565b610ca533611537565b610ce25760405162461bcd60e51b815260206004820152600e60248201526d1a5b9d985b1a59081b585c9ad95d60921b604482015260640161081d565b6004805460405163c6f83ad160e01b81526001600160a01b0386811693820193909352602481018590526044810184905291169063c6f83ad190606401600060405180830381600087803b158015610d3957600080fd5b505af1158015610d4d573d6000803e3d6000fd5b50505050505050565b600080826060015115610d6b57506000610d6f565b5060015b6000610d9184600001518560a0015160c001516001600160801b031684611279565b84516001600160a01b0316600090815260066020908152604080832060038452909152902054909150610dc7610635828461235b565b95945050505050565b610df97f241ecf16d79d0f8dbfb92cbc07fe17840425976cf0667f022fe9877caa831b08611148565b6004546001600160a01b0316610e435760405162461bcd60e51b815260206004820152600f60248201526e696e76616c69642066756e6446656560881b604482015260640161081d565b600480546001600160a01b0319166001600160a01b0392909216919091179055565b600082815260208190526040902060010154610e8081611148565b6105478383611479565b7f5d8e12c39142ff96d79d04d15d1ba1269e4fe57bb9d26f43523628b34ba108ec610eb481611148565b600354604051636ce5768960e11b81526001600160a01b0386811660048301528581166024830152604482018590529091169063d9caed1290606401600060405180830381600087803b158015610f0a57600080fd5b505af1158015610f1e573d6000803e3d6000fd5b5050505050505050565b610f3133611537565b80610f615750610f617fcb58d6d985142a614029cdf01861b4fe094d5919a47e69b8310dc4093d9d6ad033610bde565b610fad5760405162461bcd60e51b815260206004820152601860248201527f666565526f757465723a206163636573732064656e6965640000000000000000604482015260640161081d565b604051636eb1769f60e11b81523360048201523060248201526000906001600160a01b0384169063dd62ed3e90604401602060405180830381865afa158015610ffa573d6000803e3d6000fd5b505050506040513d601f19601f8201168201806040525081019061101e91906122ec565b90508060000361102e5750505050565b60035461104a906001600160a01b0385811691339116846115ce565b336001600160a01b0316846001600160a01b03167f51b85031527a935663233d62a057687d039b9fbcd79c55e46a5b24510159336f848460405161108f92919061238d565b60405180910390a350505050565b6110a56113c3565b6001600160a01b03811661110a5760405162461bcd60e51b815260206004820152602660248201527f4f776e61626c653a206e6577206f776e657220697320746865207a65726f206160448201526564647265737360d01b606482015260840161081d565b6111138161141d565b50565b6111226008600a612493565b81565b426002556111323361141d565b61113d60003361146f565b61111360008261146f565b61111381336114de565b61115c8282610bde565b6109e4576000828152602081815260408083206001600160a01b03851684529091529020805460ff191660011790556111923390565b6001600160a01b0316816001600160a01b0316837f2f8788117e7eff1d82e926ec794901d17c78024a50270940304540a733656f0d60405160405180910390a45050565b6000826000036111e857506000611271565b6004805460405163478c57cd60e11b81526001600160a01b038881169382019390935260248101869052604481018590528615156064820152911690638f18af9a90608401602060405180830381865afa15801561124a573d6000803e3d6000fd5b505050506040513d601f19601f8201168201806040525081019061126e91906122ec565b90505b949350505050565b60008260000361128b5750600061051b565b600c8260ff1611156112d15760405162461bcd60e51b815260206004820152600f60248201526e696e76616c6964204665655479706560881b604482015260640161081d565b6001600160a01b038416600090815260066020908152604080832060ff86168452909152812054908190036113065750620186a05b60006113146008600a612493565b826113216008600a612493565b61132b9190612348565b6113359087612331565b61133f919061249f565b905061134b8186612348565b9695505050505050565b60006001600160ff1b038211156113bf5760405162461bcd60e51b815260206004820152602860248201527f53616665436173743a2076616c756520646f65736e27742066697420696e2061604482015267371034b73a191a9b60c11b606482015260840161081d565b5090565b6001546001600160a01b031633146109725760405162461bcd60e51b815260206004820181905260248201527f4f776e61626c653a2063616c6c6572206973206e6f7420746865206f776e6572604482015260640161081d565b600180546001600160a01b038381166001600160a01b0319831681179093556040519116919082907f8be0079c531659141344cd1fd0a4f28419497f9722a3daafe3b4186f6b6457e090600090a35050565b6109e48282611152565b6114838282610bde565b156109e4576000828152602081815260408083206001600160a01b0385168085529252808320805460ff1916905551339285917ff6391f5c32d9c69d2a47ea670b442974b53935d1edc7fd64eb21e047a839171b9190a45050565b6114e88282610bde565b6109e4576114f58161162e565b611500836020611640565b6040516020016115119291906124e5565b60408051601f198184030181529082905262461bcd60e51b825261081d9160040161255a565b60055460405163d4dfadbf60e01b81526001600160a01b038381166004830152600092839291169063d4dfadbf90602401600060405180830381865afa158015611585573d6000803e3d6000fd5b505050506040513d6000823e601f3d908101601f191682016040526115ad919081019061266a565b905080604001516101c001518061051b5750604001516101e0015192915050565b604080516001600160a01b0385811660248301528416604482015260648082018490528251808303909101815260849091019091526020810180516001600160e01b03166323b872dd60e01b1790526116289085906117db565b50505050565b60606104986001600160a01b03831660145b6060600061164f836002612331565b61165a90600261235b565b6001600160401b0381111561167157611671611acf565b6040519080825280601f01601f19166020018201604052801561169b576020820181803683370190505b509050600360fc1b816000815181106116b6576116b6612305565b60200101906001600160f81b031916908160001a905350600f60fb1b816001815181106116e5576116e5612305565b60200101906001600160f81b031916908160001a9053506000611709846002612331565b61171490600161235b565b90505b600181111561178c576f181899199a1a9b1b9c1cb0b131b232b360811b85600f166010811061174857611748612305565b1a60f81b82828151811061175e5761175e612305565b60200101906001600160f81b031916908160001a90535060049490941c9361178581612838565b9050611717565b50831561051b5760405162461bcd60e51b815260206004820181905260248201527f537472696e67733a20686578206c656e67746820696e73756666696369656e74604482015260640161081d565b6000611830826040518060400160405280602081526020017f5361666545524332303a206c6f772d6c6576656c2063616c6c206661696c6564815250856001600160a01b03166118b09092919063ffffffff16565b9050805160001480611851575080806020019051810190611851919061284f565b6105475760405162461bcd60e51b815260206004820152602a60248201527f5361666545524332303a204552433230206f7065726174696f6e20646964206e6044820152691bdd081cdd58d8d9595960b21b606482015260840161081d565b6060611271848460008585600080866001600160a01b031685876040516118d7919061286c565b60006040518083038185875af1925050503d8060008114611914576040519150601f19603f3d011682016040523d82523d6000602084013e611919565b606091505b509150915061192a87838387611935565b979650505050505050565b606083156119a457825160000361199d576001600160a01b0385163b61199d5760405162461bcd60e51b815260206004820152601d60248201527f416464726573733a2063616c6c20746f206e6f6e2d636f6e7472616374000000604482015260640161081d565b5081611271565b61127183838151156119b95781518083602001fd5b8060405162461bcd60e51b815260040161081d919061255a565b6000602082840312156119e557600080fd5b81356001600160e01b03198116811461051b57600080fd5b6001600160a01b038116811461111357600080fd5b8035611a1d816119fd565b919050565b600060208284031215611a3457600080fd5b813561051b816119fd565b801515811461111357600080fd5b8035611a1d81611a3f565b60008060408385031215611a6b57600080fd5b8235611a76816119fd565b91506020830135611a8681611a3f565b809150509250929050565b600060208284031215611aa357600080fd5b5035919050565b60008060408385031215611abd57600080fd5b823591506020830135611a86816119fd565b634e487b7160e01b600052604160045260246000fd5b60405161018081016001600160401b0381118282101715611b0857611b08611acf565b60405290565b6040516101e081016001600160401b0381118282101715611b0857611b08611acf565b6040516101a081016001600160401b0381118282101715611b0857611b08611acf565b60405160e081016001600160401b0381118282101715611b0857611b08611acf565b604051606081016001600160401b0381118282101715611b0857611b08611acf565b60405161022081016001600160401b0381118282101715611b0857611b08611acf565b604051601f8201601f191681016001600160401b0381118282101715611be357611be3611acf565b604052919050565b803560ff81168114611a1d57600080fd5b80356001600160401b0381168114611a1d57600080fd5b60006001600160401b03821115611c2c57611c2c611acf565b5060051b60200190565b600082601f830112611c4757600080fd5b81356020611c5c611c5783611c13565b611bbb565b82815260059290921b84018101918181019086841115611c7b57600080fd5b8286015b84811015611c965780358352918301918301611c7f565b509695505050505050565b803563ffffffff81168114611a1d57600080fd5b80356001600160d81b0381168114611a1d57600080fd5b60006101808284031215611cdf57600080fd5b611ce7611ae5565b9050611cf282611a12565b8152611d0060208301611a4d565b6020820152611d1160408301611ca1565b6040820152611d2260608301611cb5565b60608201526080820135608082015260a082013560a082015260c082013560c082015260e082013560e082015261010080830135818301525061012080830135818301525061014080830135818301525061016080830135818301525092915050565b6000806101a0808486031215611d9a57600080fd5b83356001600160401b0380821115611db157600080fd5b908501906101e08288031215611dc657600080fd5b611dce611b0e565b611dd783611a12565b8152611de560208401611a4d565b602082015260408301356040820152611e0060608401611a4d565b6060820152611e1160808401611a12565b608082015260a083013560a082015260c083013560c082015260e083013560e0820152610100611e42818501611a4d565b90820152610120611e54848201611beb565b90820152610140611e66848201611bfc565b9082015261016083810135908201526101808084013590820152611e8b848401611beb565b848201526101c093508383013582811115611ea557600080fd5b611eb189828601611c36565b858301525080955050505050611eca8460208501611ccc565b90509250929050565b600081518084526020808501945080840160005b83811015611f0357815187529582019590820190600101611ee7565b509495945050505050565b60208152600061051b6020830184611ed3565b60008060408385031215611f3457600080fd5b8235611f3f816119fd565b91506020830135611a86816119fd565b60008060408385031215611f6257600080fd5b8235611f6d816119fd565b915060208301356001600160401b03811115611f8857600080fd5b611f9485828601611c36565b9150509250929050565b600080600060608486031215611fb357600080fd5b8335611fbe816119fd565b95602085013595506040909401359392505050565b803565ffffffffffff81168114611a1d57600080fd5b80356001600160801b0381168114611a1d57600080fd5b60006101a0828403121561201357600080fd5b61201b611b31565b905061202682611beb565b815261203460208301611ca1565b602082015261204560408301611beb565b604082015261205660608301611a12565b606082015261206760808301611fd3565b608082015261207860a08301611fe9565b60a082015261208960c08301611fe9565b60c082015261209a60e08301611fe9565b60e08201526101006120ad818401611fe9565b908201526101206120bf838201611bfc565b908201526101406120d1838201611bfc565b908201526101606120e3838201611fe9565b818301525061018080830135818301525092915050565b60006020828403121561210c57600080fd5b81356001600160401b038082111561212357600080fd5b90830190610260828603121561213857600080fd5b612140611b54565b61214983611a12565b815261215760208401611a4d565b60208201526040830135604082015261217260608401611a4d565b606082015261218360808401611a4d565b60808201526121958660a08501612000565b60a0820152610240830135828111156121ad57600080fd5b6121b987828601611c36565b60c08301525095945050505050565b600080604083850312156121db57600080fd5b82356121e6816119fd565b9150611eca60208401611beb565b60008060006060848603121561220957600080fd5b8335612214816119fd565b92506020840135612224816119fd565b929592945050506040919091013590565b60008060006060848603121561224a57600080fd5b8335612255816119fd565b9250602084810135612266816119fd565b925060408501356001600160401b0381111561228157600080fd5b8501601f8101871361229257600080fd5b80356122a0611c5782611c13565b81815260059190911b820183019083810190898311156122bf57600080fd5b928401925b828410156122dd578335825292840192908401906122c4565b80955050505050509250925092565b6000602082840312156122fe57600080fd5b5051919050565b634e487b7160e01b600052603260045260246000fd5b634e487b7160e01b600052601160045260246000fd5b80820281158282048414176104985761049861231b565b818103818111156104985761049861231b565b808201808211156104985761049861231b565b600060ff821660ff81036123845761238461231b565b60010192915050565b6040815260006123a06040830185611ed3565b90508260208301529392505050565b600181815b808511156123ea5781600019048211156123d0576123d061231b565b808516156123dd57918102915b93841c93908002906123b4565b509250929050565b60008261240157506001610498565b8161240e57506000610498565b8160018114612424576002811461242e5761244a565b6001915050610498565b60ff84111561243f5761243f61231b565b50506001821b610498565b5060208310610133831016604e8410600b841016171561246d575081810a610498565b61247783836123af565b806000190482111561248b5761248b61231b565b029392505050565b600061051b83836123f2565b6000826124bc57634e487b7160e01b600052601260045260246000fd5b500490565b60005b838110156124dc5781810151838201526020016124c4565b50506000910152565b7f416363657373436f6e74726f6c3a206163636f756e742000000000000000000081526000835161251d8160178501602088016124c1565b7001034b99036b4b9b9b4b733903937b6329607d1b601791840191820152835161254e8160288401602088016124c1565b01602801949350505050565b60208152600082518060208401526125798160408501602087016124c1565b601f01601f19169190910160400192915050565b600082601f83011261259e57600080fd5b81516001600160401b038111156125b7576125b7611acf565b6125ca601f8201601f1916602001611bbb565b8181528460208386010111156125df57600080fd5b6112718260208301602087016124c1565b8051611a1d816119fd565b600082601f83011261260c57600080fd5b8151602061261c611c5783611c13565b82815260059290921b8401810191818101908684111561263b57600080fd5b8286015b84811015611c96578051612652816119fd565b835291830191830161263f565b8051611a1d81611a3f565b60006020828403121561267c57600080fd5b81516001600160401b038082111561269357600080fd5b90830190606082860312156126a757600080fd5b6126af611b76565b8251828111156126be57600080fd5b6126ca8782860161258d565b82525060208301516126db816119fd565b60208201526040830151828111156126f257600080fd5b9290920191610220838703121561270857600080fd5b612710611b98565b83518381111561271f57600080fd5b61272b8882870161258d565b82525061273a602085016125f0565b602082015260408401518381111561275157600080fd5b61275d888287016125fb565b60408301525061276f606085016125f0565b6060820152612780608085016125f0565b608082015261279160a085016125f0565b60a08201526127a260c085016125f0565b60c082015260e08481015190820152610100808501519082015261012080850151908201526101408085015190820152610160808501519082015261018080850151908201526101a080850151908201526101c0925061280383850161265f565b838201526101e0925061281783850161265f565b92810192909252610200928301519282019290925260408201529392505050565b6000816128475761284761231b565b506000190190565b60006020828403121561286157600080fd5b815161051b81611a3f565b6000825161287e8184602087016124c1565b919091019291505056fea2646970667358221220d953f0d63879dc3a22ec9f79ce86ea48119fa2c0f259e5450064bc2e2e209eb064736f6c63430008110033",
    "linkReferences": {}
  },
  "methodIdentifiers": {
    "DEFAULT_ADMIN_ROLE()": "a217fddf",
    "FEE_RATE_PRECISION()": "f4ca4d1d",
    "collectFees(address,address,int256[])": "e50f19ef",
    "cumulativeFundingRates(address,bool)": "34f32e25",
    "factory()": "c45a0155",
    "feeAndRates(address,uint8)": "d8778068",
    "feeVault()": "478222c2",
    "fundFee()": "33abd028",
    "getExecFee(address)": "09d39897",
    "getFees((address,bool,uint256,bool,address,uint256,uint256,uint256,bool,uint8,uint64,bytes32,uint256,uint8,uint256[]),(address,bool,uint32,uint216,uint256,uint256,uint256,int256,int256,uint256,uint256,uint256))": "41510263",
    "getFundingRate(address,bool)": "20981df4",
    "getOrderFees((address,bool,uint256,bool,bool,(uint8,uint32,uint8,address,uint48,uint128,uint128,uint128,uint128,uint64,uint64,uint128,bytes32),uint256[]))": "c8830bf5",
    "getRoleAdmin(bytes32)": "248a9ca3",
    "grantControllerRoleByMarketManager(address)": "7fe4a698",
    "grantRole(bytes32,address)": "2f2ff15d",
    "hasRole(bytes32,address)": "91d14854",
    "initialize(address,address)": "485cc955",
    "owner()": "8da5cb5b",
    "renounceOwnership()": "715018a6",
    "renounceRole(bytes32,address)": "36568abe",
    "revokeRole(bytes32,address)": "d547741f",
    "setFeeAndRates(address,uint256[])": "7dd49023",
    "setFeeVault(address)": "a591f97f",
    "setFundFee(address)": "c9cf9f3a",
    "supportsInterface(bytes4)": "01ffc9a7",
    "transferAdmin(address)": "75829def",
    "transferOwnership(address)": "f2fde38b",
    "updateCumulativeFundingRate(address,uint256,uint256)": "c6f83ad1",
    "withdraw(address,address,uint256)": "d9caed12"
  },
  "id": 2
}