{
  "abi": [
    {
      "inputs": [
        {
          "internalType": "address",
          "name": "_f",
          "type": "address"
        }
      ],
      "stateMutability": "nonpayable",
      "type": "constructor"
    },
    {
      "anonymous": false,
      "inputs": [
        {
          "indexed": false,
          "internalType": "uint8",
          "name": "version",
          "type": "uint8"
        }
      ],
      "name": "Initialized",
      "type": "event"
    },
    {
      "anonymous": false,
      "inputs": [
        {
          "indexed": true,
          "internalType": "address",
          "name": "previousOwner",
          "type": "address"
        },
        {
          "indexed": true,
          "internalType": "address",
          "name": "newOwner",
          "type": "address"
        }
      ],
      "name": "OwnershipTransferred",
      "type": "event"
    },
    {
      "anonymous": false,
      "inputs": [
        {
          "indexed": true,
          "internalType": "bytes32",
          "name": "role",
          "type": "bytes32"
        },
        {
          "indexed": true,
          "internalType": "bytes32",
          "name": "previousAdminRole",
          "type": "bytes32"
        },
        {
          "indexed": true,
          "internalType": "bytes32",
          "name": "newAdminRole",
          "type": "bytes32"
        }
      ],
      "name": "RoleAdminChanged",
      "type": "event"
    },
    {
      "anonymous": false,
      "inputs": [
        {
          "indexed": true,
          "internalType": "bytes32",
          "name": "role",
          "type": "bytes32"
        },
        {
          "indexed": true,
          "internalType": "address",
          "name": "account",
          "type": "address"
        },
        {
          "indexed": true,
          "internalType": "address",
          "name": "sender",
          "type": "address"
        }
      ],
      "name": "RoleGranted",
      "type": "event"
    },
    {
      "anonymous": false,
      "inputs": [
        {
          "indexed": true,
          "internalType": "bytes32",
          "name": "role",
          "type": "bytes32"
        },
        {
          "indexed": true,
          "internalType": "address",
          "name": "account",
          "type": "address"
        },
        {
          "indexed": true,
          "internalType": "address",
          "name": "sender",
          "type": "address"
        }
      ],
      "name": "RoleRevoked",
      "type": "event"
    },
    {
      "inputs": [],
      "name": "DEFAULT_ADMIN_ROLE",
      "outputs": [
        {
          "internalType": "bytes32",
          "name": "",
          "type": "bytes32"
        }
      ],
      "stateMutability": "view",
      "type": "function"
    },
    {
      "inputs": [
        {
          "internalType": "bytes32",
          "name": "role",
          "type": "bytes32"
        }
      ],
      "name": "getRoleAdmin",
      "outputs": [
        {
          "internalType": "bytes32",
          "name": "",
          "type": "bytes32"
        }
      ],
      "stateMutability": "view",
      "type": "function"
    },
    {
      "inputs": [
        {
          "internalType": "address",
          "name": "_account",
          "type": "address"
        }
      ],
      "name": "grantControllerRoleByMarketManager",
      "outputs": [],
      "stateMutability": "nonpayable",
      "type": "function"
    },
    {
      "inputs": [
        {
          "internalType": "bytes32",
          "name": "role",
          "type": "bytes32"
        },
        {
          "internalType": "address",
          "name": "account",
          "type": "address"
        }
      ],
      "name": "grantRole",
      "outputs": [],
      "stateMutability": "nonpayable",
      "type": "function"
    },
    {
      "inputs": [
        {
          "internalType": "bytes32",
          "name": "role",
          "type": "bytes32"
        },
        {
          "internalType": "address",
          "name": "account",
          "type": "address"
        }
      ],
      "name": "hasRole",
      "outputs": [
        {
          "internalType": "bool",
          "name": "",
          "type": "bool"
        }
      ],
      "stateMutability": "view",
      "type": "function"
    },
    {
      "inputs": [],
      "name": "owner",
      "outputs": [
        {
          "internalType": "address",
          "name": "",
          "type": "address"
        }
      ],
      "stateMutability": "view",
      "type": "function"
    },
    {
      "inputs": [],
      "name": "renounceOwnership",
      "outputs": [],
      "stateMutability": "nonpayable",
      "type": "function"
    },
    {
      "inputs": [
        {
          "internalType": "bytes32",
          "name": "",
          "type": "bytes32"
        },
        {
          "internalType": "address",
          "name": "",
          "type": "address"
        }
      ],
      "name": "renounceRole",
      "outputs": [],
      "stateMutability": "nonpayable",
      "type": "function"
    },
    {
      "inputs": [
        {
          "internalType": "bytes32",
          "name": "role",
          "type": "bytes32"
        },
        {
          "internalType": "address",
          "name": "account",
          "type": "address"
        }
      ],
      "name": "revokeRole",
      "outputs": [],
      "stateMutability": "nonpayable",
      "type": "function"
    },
    {
      "inputs": [
        {
          "internalType": "bytes4",
          "name": "interfaceId",
          "type": "bytes4"
        }
      ],
      "name": "supportsInterface",
      "outputs": [
        {
          "internalType": "bool",
          "name": "",
          "type": "bool"
        }
      ],
      "stateMutability": "view",
      "type": "function"
    },
    {
      "inputs": [
        {
          "internalType": "address",
          "name": "to",
          "type": "address"
        }
      ],
      "name": "transferAdmin",
      "outputs": [],
      "stateMutability": "nonpayable",
      "type": "function"
    },
    {
      "inputs": [
        {
          "internalType": "address",
          "name": "newOwner",
          "type": "address"
        }
      ],
      "name": "transferOwnership",
      "outputs": [],
      "stateMutability": "nonpayable",
      "type": "function"
    }
  ],
  "bytecode": {
    "object": "0x608060405234801561001057600080fd5b50604051610b57380380610b5783398101604081905261002f91610175565b61003833610051565b61004b816100a360201b61039e1760201c565b506101a5565b600180546001600160a01b038381166001600160a01b0319831681179093556040519116919082907f8be0079c531659141344cd1fd0a4f28419497f9722a3daafe3b4186f6b6457e090600090a35050565b426002556100b033610051565b6100bb6000336100c9565b6100c66000826100c9565b50565b6100d382826100d7565b5050565b6000828152602081815260408083206001600160a01b038516845290915290205460ff166100d3576000828152602081815260408083206001600160a01b03851684529091529020805460ff191660011790556101313390565b6001600160a01b0316816001600160a01b0316837f2f8788117e7eff1d82e926ec794901d17c78024a50270940304540a733656f0d60405160405180910390a45050565b60006020828403121561018757600080fd5b81516001600160a01b038116811461019e57600080fd5b9392505050565b6109a3806101b46000396000f3fe608060405234801561001057600080fd5b50600436106100b45760003560e01c80637fe4a698116100715780637fe4a698146101505780638da5cb5b1461016357806391d148541461017e578063a217fddf14610191578063d547741f14610199578063f2fde38b146101ac57600080fd5b806301ffc9a7146100b9578063248a9ca3146100e15780632f2ff15d1461011257806336568abe14610127578063715018a61461013557806375829def1461013d575b600080fd5b6100cc6100c7366004610778565b6101bf565b60405190151581526020015b60405180910390f35b6101046100ef3660046107a2565b60009081526020819052604090206001015490565b6040519081526020016100d8565b6101256101203660046107d7565b6101f6565b005b6101256100b43660046107d7565b610125610220565b61012561014b366004610803565b610234565b61012561015e366004610803565b6102ad565b6001546040516001600160a01b0390911681526020016100d8565b6100cc61018c3660046107d7565b6102d7565b610104600081565b6101256101a73660046107d7565b610300565b6101256101ba366004610803565b610325565b60006001600160e01b03198216637965db0b60e01b14806101f057506301ffc9a760e01b6001600160e01b03198316145b92915050565b600082815260208190526040902060010154610211816103c1565b61021b83836103cb565b505050565b61022861044f565b61023260006104a9565b565b600061023f816103c1565b6001600160a01b03821661028a5760405162461bcd60e51b815260206004820152600d60248201526c217a65726f206164647265737360981b60448201526064015b60405180910390fd5b6102956000836104fb565b61029e826104a9565b6102a9600033610505565b5050565b7f8d1089725c0dc266707fa6207730fb801dcd03108bfed7a21099bd303651d2b76100b4816103c1565b6000918252602082815260408084206001600160a01b0393909316845291905290205460ff1690565b60008281526020819052604090206001015461031b816103c1565b61021b8383610505565b61032d61044f565b6001600160a01b0381166103925760405162461bcd60e51b815260206004820152602660248201527f4f776e61626c653a206e6577206f776e657220697320746865207a65726f206160448201526564647265737360d01b6064820152608401610281565b61039b816104a9565b50565b426002556103ab336104a9565b6103b66000336104fb565b61039b6000826104fb565b61039b813361056a565b6103d582826102d7565b6102a9576000828152602081815260408083206001600160a01b03851684529091529020805460ff1916600117905561040b3390565b6001600160a01b0316816001600160a01b0316837f2f8788117e7eff1d82e926ec794901d17c78024a50270940304540a733656f0d60405160405180910390a45050565b6001546001600160a01b031633146102325760405162461bcd60e51b815260206004820181905260248201527f4f776e61626c653a2063616c6c6572206973206e6f7420746865206f776e65726044820152606401610281565b600180546001600160a01b038381166001600160a01b0319831681179093556040519116919082907f8be0079c531659141344cd1fd0a4f28419497f9722a3daafe3b4186f6b6457e090600090a35050565b6102a982826103cb565b61050f82826102d7565b156102a9576000828152602081815260408083206001600160a01b0385168085529252808320805460ff1916905551339285917ff6391f5c32d9c69d2a47ea670b442974b53935d1edc7fd64eb21e047a839171b9190a45050565b61057482826102d7565b6102a957610581816105c3565b61058c8360206105d5565b60405160200161059d929190610842565b60408051601f198184030181529082905262461bcd60e51b8252610281916004016108b7565b60606101f06001600160a01b03831660145b606060006105e4836002610900565b6105ef906002610917565b67ffffffffffffffff8111156106075761060761092a565b6040519080825280601f01601f191660200182016040528015610631576020820181803683370190505b509050600360fc1b8160008151811061064c5761064c610940565b60200101906001600160f81b031916908160001a905350600f60fb1b8160018151811061067b5761067b610940565b60200101906001600160f81b031916908160001a905350600061069f846002610900565b6106aa906001610917565b90505b6001811115610722576f181899199a1a9b1b9c1cb0b131b232b360811b85600f16601081106106de576106de610940565b1a60f81b8282815181106106f4576106f4610940565b60200101906001600160f81b031916908160001a90535060049490941c9361071b81610956565b90506106ad565b5083156107715760405162461bcd60e51b815260206004820181905260248201527f537472696e67733a20686578206c656e67746820696e73756666696369656e746044820152606401610281565b9392505050565b60006020828403121561078a57600080fd5b81356001600160e01b03198116811461077157600080fd5b6000602082840312156107b457600080fd5b5035919050565b80356001600160a01b03811681146107d257600080fd5b919050565b600080604083850312156107ea57600080fd5b823591506107fa602084016107bb565b90509250929050565b60006020828403121561081557600080fd5b610771826107bb565b60005b83811015610839578181015183820152602001610821565b50506000910152565b7f416363657373436f6e74726f6c3a206163636f756e742000000000000000000081526000835161087a81601785016020880161081e565b7001034b99036b4b9b9b4b733903937b6329607d1b60179184019182015283516108ab81602884016020880161081e565b01602801949350505050565b60208152600082518060208401526108d681604085016020870161081e565b601f01601f19169190910160400192915050565b634e487b7160e01b600052601160045260246000fd5b80820281158282048414176101f0576101f06108ea565b808201808211156101f0576101f06108ea565b634e487b7160e01b600052604160045260246000fd5b634e487b7160e01b600052603260045260246000fd5b600081610965576109656108ea565b50600019019056fea264697066735822122024fc78b5cb55e91dca01c4590d1d3d1318bdab60031d4cec03856996fe1f0a4964736f6c63430008110033",
    "linkReferences": {}
  },
  "methodIdentifiers": {
    "DEFAULT_ADMIN_ROLE()": "a217fddf",
    "getRoleAdmin(bytes32)": "248a9ca3",
    "grantControllerRoleByMarketManager(address)": "7fe4a698",
    "grantRole(bytes32,address)": "2f2ff15d",
    "hasRole(bytes32,address)": "91d14854",
    "owner()": "8da5cb5b",
    "renounceOwnership()": "715018a6",
    "renounceRole(bytes32,address)": "36568abe",
    "revokeRole(bytes32,address)": "d547741f",
    "supportsInterface(bytes4)": "01ffc9a7",
    "transferAdmin(address)": "75829def",
    "transferOwnership(address)": "f2fde38b"
  },
  "id": 0
}